:1000000000000320D101000025240100DD230100B0
:10001000DD230100DD230100DD230100DD230100DC
:10002000DD230100DD230100DD2301002524010083
:1000300025240100DD230100193901001D3A0100CA
:100040002524010025240100252401002524010088
:100050002524010025240100252401002524010078
:100060002524010025240100252401002524010068
:100070002524010025240100252401002524010058
:100080002524010025240100252401002524010048
:100090002524010025240100252401002524010038
:1000A00099530100A55301002524010025240100D6
:1000B000252401002524010025240100653A0100C2
:1000C00025240100913B010025240100BD3C0100D5
:1000D00025240100B53D010025240100252401004F
:1000E00025240100252401002524010025240100E8
:1000F00025240100252401002524010025240100D8
:1001000025240100252401002524010025240100C7
:1001100025240100B12A0100252401002524010025
:1001200025240100252401002524010025240100A7
:100130002524010025240100252401002524010097
:100140000519010025240100AD3E01002524010010
:100150002524010025240100252401002524010077
:100160002524010025240100B153010025240100AC
:100170002524010025240100252401002524010057
:100180002524010025240100252401002524010047
:100190002524010025240100A53F0100252401009C
:1001A0002524010025240100252401002524010027
:1001B0002524010025240100252401002524010017
:1001C0002524010025240100252401002524010007
:1001D0005C4B4CF2205210B51A804DF628121A8052
:1001E00000BF00BF12F022F9574B4FF030621A6087
:1001F000564A9A60564ADA60564B4FF470021A60BB
:10020000554B564A1A60564A136813F4807304D14A
:1002100054490B604FF4A8531360534B1A781107DD
:1002200003D51A7842F008021A70504B5049AA229E
:100230001A70504A504B8B4204D252F8040F43F8C4
:10024000040BF8E74D4B4E4900228B4202D243F893
:10025000042BFAE74B494C4A002352F8230041F89B
:1002600023000133742BF8D1484B494A802103F80D
:10027000011B9342FBD1474B424A1A60464B8A22EC
:100280001A70A3F5805324225A70A0221A709A790A
:100290009207FCD59A79D406FCD4404A937903F0AE
:1002A0000C03082BFAD13E4B60221A7002331A78E5
:1002B000802AFCD1394B01221A715D225A719A7938
:1002C0009006FCD59979354A4906FBD5354B364918
:1002D00019600021596020231370937903F00C03F7
:1002E0000C2BFAD1314B324A1A60324B324A1A6027
:1002F00000225A60072243F8042C304AC3F80C2D20
:1003000062B612F079FA174B1B68DA0705D52C484C
:1003100012F0F4F92B4B2C4A1A602C4B1B785B061D
:1003200009D5284C284B22689A4204D1244812F05F
:10033000E5F90023236015F045FE12F07DF811F079
:10034000ABFFFEE70E20054030800440823F0400F2
:100350000100002B88ED00E0002008E0030000858C
:1003600010D0034014D0034002D0074000E0074003
:10037000184C00207CDD0200303D0020204C002085
:10038000D0A90220003800200000000000E400E0B6
:1003900064E400E008ED00E0005006400040064044
:1003A00001E007404480044000000602048004404D
:1003B000C010070014E000E01FBF02000000202072
:1003C000C89C5A5D1CE00340A5C3945A00F0074046
:1003D000FFFFFFFFFFFFFFFFFFFFFFFFFFFFFFFF2D
:1003E000FFFFFFFFFFFFFFFFFFFFFFFFFFFFFFFF1D
:1003F000FFFFFFFFFFFFFFFFFFFFFFFFFFFFFFFF0D
:10040000FFFFFFFFFFFFFFFFFFFFFFFFDEF9FFFF23
:1004100010B5054C237833B9044B13B10448AFF33E
:1004200000800123237010BD204C0020000000003C
:1004300078DD0200084B10B51BB108490848AFF33E
:1004400000800848036803B910BD074B002BFBD0A0
:10045000BDE81040184700BF00000000244C0020F9
:1004600078DD0200184C00200000000012F040B9B6
:1004700010B5044B044640F8183B06F023F920461B
:1004800010BD00BF80B0010010B5044611F0F2F9B4
:10049000204610BD214B10B49A6B13685068197830
:1004A0000478507A137A044201EA03011BD0937A4C
:1004B00003F0030309B143F0040343F00803991068
:1004C000013B91720D2B0BD8DFE803F021071B07CE
:1004D0000A152121150A071B0721D368013BD360A8
:1004E0005DF8044B7047937A03F003030029E6D0CC
:1004F00043F00403E3E7D3685DF8044B023BD360A9
:100500007047D3685DF8044B0233D3607047D368FB
:100510005DF8044B0133D360704700BF309F022069
:10052000214B10B4DA6B1368506819780478507A4C
:10053000137A044201EA03011BD0937A03F0030308
:1005400009B143F0040343F008039910013B917291
:100550000D2B0BD8DFE803F021071B070A1521211B
:10056000150A071B0721D368013BD3605DF8044BD4
:100570007047937A03F003030029E6D043F00403A5
:10058000E3E7D3685DF8044B023BD3607047D36860
:100590005DF8044B0233D3607047D3685DF8044BB9
:1005A0000133D360704700BF309F0220214B10B44D
:1005B0001A6C1368506819780478507A137A0442D8
:1005C00001EA03011BD0937A03F0030309B143F05E
:1005D000040343F008039910013B91720D2B0BD8D3
:1005E000DFE803F021071B070A152121150A071B65
:1005F0000721D368013BD3605DF8044B7047937AC1
:1006000003F003030029E6D043F00403E3E7D368D3
:100610005DF8044B023BD3607047D3685DF8044B30
:100620000233D3607047D3685DF8044B0133D36065
:10063000704700BF309F0220214B10B45A6C1368E2
:10064000506819780478507A137A044201EA030159
:100650001BD0937A03F0030309B143F0040343F082
:1006600008039910013B91720D2B0BD8DFE803F0C2
:1006700021071B070A152121150A071B0721D3682B
:10068000013BD3605DF8044B7047937A03F003039A
:100690000029E6D043F00403E3E7D3685DF8044B98
:1006A000023BD3607047D3685DF8044B0233D360DC
:1006B0007047D3685DF8044B0133D360704700BFC7
:1006C000309F0220214B10B49A6C1368506819783F
:1006D0000478507A137A044201EA03011BD0937A1A
:1006E00003F0030309B143F0040343F00803991036
:1006F000013B91720D2B0BD8DFE803F021071B079C
:100700000A152121150A071B0721D368013BD36075
:100710005DF8044B7047937A03F003030029E6D099
:1007200043F00403E3E7D3685DF8044B023BD36076
:100730007047D3685DF8044B0233D3607047D368C9
:100740005DF8044B0133D360704700BF309F022037
:10075000214B10B4DA6C1368506819780478507A19
:10076000137A044201EA03011BD0937A03F00303D6
:1007700009B143F0040343F008039910013B91725F
:100780000D2B0BD8DFE803F021071B070A152121E9
:10079000150A071B0721D368013BD3605DF8044BA2
:1007A0007047937A03F003030029E6D043F0040373
:1007B000E3E7D3685DF8044B023BD3607047D3682E
:1007C0005DF8044B0233D3607047D3685DF8044B87
:1007D0000133D360704700BF309F0220214B10B41B
:1007E0001A6D1368506819780478507A137A0442A5
:1007F00001EA03011BD0937A03F0030309B143F02C
:10080000040343F008039910013B91720D2B0BD8A0
:10081000DFE803F021071B070A152121150A071B32
:100820000721D368013BD3605DF8044B7047937A8E
:1008300003F003030029E6D043F00403E3E7D368A1
:100840005DF8044B023BD3607047D3685DF8044BFE
:100850000233D3607047D3685DF8044B0133D36033
:10086000704700BF309F0220214B10B45A6D1368AF
:10087000506819780478507A137A044201EA030127
:100880001BD0937A03F0030309B143F0040343F050
:1008900008039910013B91720D2B0BD8DFE803F090
:1008A00021071B070A152121150A071B0721D368F9
:1008B000013BD3605DF8044B7047937A03F0030368
:1008C0000029E6D043F00403E3E7D3685DF8044B66
:1008D000023BD3607047D3685DF8044B0233D360AA
:1008E0007047D3685DF8044B0133D360704700BF95
:1008F000309F0220214B10B49A6D1368506819780C
:100900000478507A137A044201EA03011BD0937AE7
:1009100003F0030309B143F0040343F00803991003
:10092000013B91720D2B0BD8DFE803F021071B0769
:100930000A152121150A071B0721D368013BD36043
:100940005DF8044B7047937A03F003030029E6D067
:1009500043F00403E3E7D3685DF8044B023BD36044
:100960007047D3685DF8044B0233D3607047D36897
:100970005DF8044B0133D360704700BF309F022005
:10098000214B10B4DA6D1368506819780478507AE6
:10099000137A044201EA03011BD0937A03F00303A4
:1009A00009B143F0040343F008039910013B91722D
:1009B0000D2B0BD8DFE803F021071B070A152121B7
:1009C000150A071B0721D368013BD3605DF8044B70
:1009D0007047937A03F003030029E6D043F0040341
:1009E000E3E7D3685DF8044B023BD3607047D368FC
:1009F0005DF8044B0233D3607047D3685DF8044B55
:100A00000133D360704700BF309F0220214B10B4E8
:100A10001A6E1368506819780478507A137A044271
:100A200001EA03011BD0937A03F0030309B143F0F9
:100A3000040343F008039910013B91720D2B0BD86E
:100A4000DFE803F021071B070A152121150A071B00
:100A50000721D368013BD3605DF8044B7047937A5C
:100A600003F003030029E6D043F00403E3E7D3686F
:100A70005DF8044B023BD3607047D3685DF8044BCC
:100A80000233D3607047D3685DF8044B0133D36001
:100A9000704700BF309F0220214B10B45A6E13687C
:100AA000506819780478507A137A044201EA0301F5
:100AB0001BD0937A03F0030309B143F0040343F01E
:100AC00008039910013B91720D2B0BD8DFE803F05E
:100AD00021071B070A152121150A071B0721D368C7
:100AE000013BD3605DF8044B7047937A03F0030336
:100AF0000029E6D043F00403E3E7D3685DF8044B34
:100B0000023BD3607047D3685DF8044B0233D36077
:100B10007047D3685DF8044B0133D360704700BF62
:100B2000309F0220214B10B49A6E136850681978D8
:100B30000478507A137A044201EA03011BD0937AB5
:100B400003F0030309B143F0040343F008039910D1
:100B5000013B91720D2B0BD8DFE803F021071B0737
:100B60000A152121150A071B0721D368013BD36011
:100B70005DF8044B7047937A03F003030029E6D035
:100B800043F00403E3E7D3685DF8044B023BD36012
:100B90007047D3685DF8044B0233D3607047D36865
:100BA0005DF8044B0133D360704700BF309F0220D3
:100BB000214B10B4DA6E1368506819780478507AB3
:100BC000137A044201EA03011BD0937A03F0030372
:100BD00009B143F0040343F008039910013B9172FB
:100BE0000D2B0BD8DFE803F021071B070A15212185
:100BF000150A071B0721D368013BD3605DF8044B3E
:100C00007047937A03F003030029E6D043F004030E
:100C1000E3E7D3685DF8044B023BD3607047D368C9
:100C20005DF8044B0233D3607047D3685DF8044B22
:100C30000133D360704700BF309F0220214B10B4B6
:100C40001A6F1368506819780478507A137A04423E
:100C500001EA03011BD0937A03F0030309B143F0C7
:100C6000040343F008039910013B91720D2B0BD83C
:100C7000DFE803F021071B070A152121150A071BCE
:100C80000721D368013BD3605DF8044B7047937A2A
:100C900003F003030029E6D043F00403E3E7D3683D
:100CA0005DF8044B023BD3607047D3685DF8044B9A
:100CB0000233D3607047D3685DF8044B0133D360CF
:100CC000704700BF309F0220214B10B45A6F136849
:100CD000506819780478507A137A044201EA0301C3
:100CE0001BD0937A03F0030309B143F0040343F0EC
:100CF00008039910013B91720D2B0BD8DFE803F02C
:100D000021071B070A152121150A071B0721D36894
:100D1000013BD3605DF8044B7047937A03F0030303
:100D20000029E6D043F00403E3E7D3685DF8044B01
:100D3000023BD3607047D3685DF8044B0233D36045
:100D40007047D3685DF8044B0133D360704700BF30
:100D5000309F0220214B10B49A6F136850681978A5
:100D60000478507A137A044201EA03011BD0937A83
:100D700003F0030309B143F0040343F0080399109F
:100D8000013B91720D2B0BD8DFE803F021071B0705
:100D90000A152121150A071B0721D368013BD360DF
:100DA0005DF8044B7047937A03F003030029E6D003
:100DB00043F00403E3E7D3685DF8044B023BD360E0
:100DC0007047D3685DF8044B0233D3607047D36833
:100DD0005DF8044B0133D360704700BF309F0220A1
:100DE000214B10B4DA6F1368506819780478507A80
:100DF000137A044201EA03011BD0937A03F0030340
:100E000009B143F0040343F008039910013B9172C8
:100E10000D2B0BD8DFE803F021071B070A15212152
:100E2000150A071B0721D368013BD3605DF8044B0B
:100E30007047937A03F003030029E6D043F00403DC
:100E4000E3E7D3685DF8044B023BD3607047D36897
:100E50005DF8044B0233D3607047D3685DF8044BF0
:100E60000133D360704700BF309F0220214B10B484
:100E7000D3F880201368506819780478507A137A70
:100E8000044201EA03011BD0937A03F0030309B182
:100E900043F0040343F008039910013B91720D2BBA
:100EA0000BD8DFE803F021071B070A152121150ADB
:100EB000071B0721D368013BD3605DF8044B7047E3
:100EC000937A03F003030029E6D043F00403E3E739
:100ED000D3685DF8044B023BD3607047D3685DF87C
:100EE000044B0233D3607047D3685DF8044B013381
:100EF000D3607047309F0220214B10B4D3F8842078
:100F00001368506819780478507A137A044201EA19
:100F100003011BD0937A03F0030309B143F00403E8
:100F200043F008039910013B91720D2B0BD8DFE8B9
:100F300003F021071B070A152121150A071B0721AA
:100F4000D368013BD3605DF8044B7047937A03F09C
:100F500003030029E6D043F00403E3E7D3685DF818
:100F6000044B023BD3607047D3685DF8044B0233F7
:100F7000D3607047D3685DF8044B0133D36070478A
:100F8000309F0220214B10B4D3F88820136850689A
:100F900019780478507A137A044201EA03011BD0CD
:100FA000937A03F0030309B143F0040343F0080309
:100FB0009910013B91720D2B0BD8DFE803F021074C
:100FC0001B070A152121150A071B0721D368013BBE
:100FD000D3605DF8044B7047937A03F00303002954
:100FE000E6D043F00403E3E7D3685DF8044B023B2B
:100FF000D3607047D3685DF8044B0233D360704709
:10100000D3685DF8044B0133D3607047309F0220F2
:10101000214B10B4D3F88C201368506819780478E9
:10102000507A137A044201EA03011BD0937A03F049
:10103000030309B143F0040343F008039910013B93
:1010400091720D2B0BD8DFE803F021071B070A155F
:101050002121150A071B0721D368013BD3605DF8E6
:10106000044B7047937A03F003030029E6D043F062
:101070000403E3E7D3685DF8044B023BD360704799
:10108000D3685DF8044B0233D3607047D3685DF8D2
:10109000044B0133D3607047309F0220214B10B4C2
:1010A000D3F890201368506819780478507A137A2E
:1010B000044201EA03011BD0937A03F0030309B150
:1010C00043F0040343F008039910013B91720D2B88
:1010D0000BD8DFE803F021071B070A152121150AA9
:1010E000071B0721D368013BD3605DF8044B7047B1
:1010F000937A03F003030029E6D043F00403E3E707
:10110000D3685DF8044B023BD3607047D3685DF849
:10111000044B0233D3607047D3685DF8044B01334E
:10112000D3607047309F0220214B10B4D3F8942035
:101130001368506819780478507A137A044201EAE7
:1011400003011BD0937A03F0030309B143F00403B6
:1011500043F008039910013B91720D2B0BD8DFE887
:1011600003F021071B070A152121150A071B072178
:10117000D368013BD3605DF8044B7047937A03F06A
:1011800003030029E6D043F00403E3E7D3685DF8E6
:10119000044B023BD3607047D3685DF8044B0233C5
:1011A000D3607047D3685DF8044B0133D360704758
:1011B000309F0220214B10B4D3F898201368506858
:1011C00019780478507A137A044201EA03011BD09B
:1011D000937A03F0030309B143F0040343F00803D7
:1011E0009910013B91720D2B0BD8DFE803F021071A
:1011F0001B070A152121150A071B0721D368013B8C
:10120000D3605DF8044B7047937A03F00303002921
:10121000E6D043F00403E3E7D3685DF8044B023BF8
:10122000D3607047D3685DF8044B0233D3607047D6
:10123000D3685DF8044B0133D3607047309F0220C0
:10124000214B10B4D3F89C201368506819780478A7
:10125000507A137A044201EA03011BD0937A03F017
:10126000030309B143F0040343F008039910013B61
:1012700091720D2B0BD8DFE803F021071B070A152D
:101280002121150A071B0721D368013BD3605DF8B4
:10129000044B7047937A03F003030029E6D043F030
:1012A0000403E3E7D3685DF8044B023BD360704767
:1012B000D3685DF8044B0233D3607047D3685DF8A0
:1012C000044B0133D3607047309F0220214B10B490
:1012D000D3F8A0201368506819780478507A137AEC
:1012E000044201EA03011BD0937A03F0030309B11E
:1012F00043F0040343F008039910013B91720D2B56
:101300000BD8DFE803F021071B070A152121150A76
:10131000071B0721D368013BD3605DF8044B70477E
:10132000937A03F003030029E6D043F00403E3E7D4
:10133000D3685DF8044B023BD3607047D3685DF817
:10134000044B0233D3607047D3685DF8044B01331C
:10135000D3607047309F0220214B10B4D3F8A420F3
:101360001368506819780478507A137A044201EAB5
:1013700003011BD0937A03F0030309B143F0040384
:1013800043F008039910013B91720D2B0BD8DFE855
:1013900003F021071B070A152121150A071B072146
:1013A000D368013BD3605DF8044B7047937A03F038
:1013B00003030029E6D043F00403E3E7D3685DF8B4
:1013C000044B023BD3607047D3685DF8044B023393
:1013D000D3607047D3685DF8044B0133D360704726
:1013E000309F0220214B10B4D3F8A8201368506816
:1013F00019780478507A137A044201EA03011BD069
:10140000937A03F0030309B143F0040343F00803A4
:101410009910013B91720D2B0BD8DFE803F02107E7
:101420001B070A152121150A071B0721D368013B59
:10143000D3605DF8044B7047937A03F003030029EF
:10144000E6D043F00403E3E7D3685DF8044B023BC6
:10145000D3607047D3685DF8044B0233D3607047A4
:10146000D3685DF8044B0133D3607047309F02208E
:10147000214B10B4D3F8AC20136850681978047865
:10148000507A137A044201EA03011BD0937A03F0E5
:10149000030309B143F0040343F008039910013B2F
:1014A00091720D2B0BD8DFE803F021071B070A15FB
:1014B0002121150A071B0721D368013BD3605DF882
:1014C000044B7047937A03F003030029E6D043F0FE
:1014D0000403E3E7D3685DF8044B023BD360704735
:1014E000D3685DF8044B0233D3607047D3685DF86E
:1014F000044B0133D3607047309F0220214B10B45E
:10150000D3F8B0201368506819780478507A137AA9
:10151000044201EA03011BD0937A03F0030309B1EB
:1015200043F0040343F008039910013B91720D2B23
:101530000BD8DFE803F021071B070A152121150A44
:10154000071B0721D368013BD3605DF8044B70474C
:10155000937A03F003030029E6D043F00403E3E7A2
:10156000D3685DF8044B023BD3607047D3685DF8E5
:10157000044B0233D3607047D3685DF8044B0133EA
:10158000D3607047309F0220214B10B4D3F8B420B1
:101590001368506819780478507A137A044201EA83
:1015A00003011BD0937A03F0030309B143F0040352
:1015B00043F008039910013B91720D2B0BD8DFE823
:1015C00003F021071B070A152121150A071B072114
:1015D000D368013BD3605DF8044B7047937A03F006
:1015E00003030029E6D043F00403E3E7D3685DF882
:1015F000044B023BD3607047D3685DF8044B023361
:10160000D3607047D3685DF8044B0133D3607047F3
:10161000309F0220214B10B4D3F8B82013685068D3
:1016200019780478507A137A044201EA03011BD036
:10163000937A03F0030309B143F0040343F0080372
:101640009910013B91720D2B0BD8DFE803F02107B5
:101650001B070A152121150A071B0721D368013B27
:10166000D3605DF8044B7047937A03F003030029BD
:10167000E6D043F00403E3E7D3685DF8044B023B94
:10168000D3607047D3685DF8044B0233D360704772
:10169000D3685DF8044B0133D3607047309F02205C
:1016A000214B10B4D3F8BC20136850681978047823
:1016B000507A137A044201EA03011BD0937A03F0B3
:1016C000030309B143F0040343F008039910013BFD
:1016D00091720D2B0BD8DFE803F021071B070A15C9
:1016E0002121150A071B0721D368013BD3605DF850
:1016F000044B7047937A03F003030029E6D043F0CC
:101700000403E3E7D3685DF8044B023BD360704702
:10171000D3685DF8044B0233D3607047D3685DF83B
:10172000044B0133D3607047309F0220214B10B42B
:10173000D3F8C0201368506819780478507A137A67
:10174000044201EA03011BD0937A03F0030309B1B9
:1017500043F0040343F008039910013B91720D2BF1
:101760000BD8DFE803F021071B070A152121150A12
:10177000071B0721D368013BD3605DF8044B70471A
:10178000937A03F003030029E6D043F00403E3E770
:10179000D3685DF8044B023BD3607047D3685DF8B3
:1017A000044B0233D3607047D3685DF8044B0133B8
:1017B000D3607047309F0220214B10B4D3F8C4206F
:1017C0001368506819780478507A137A044201EA51
:1017D00003011BD0937A03F0030309B143F0040320
:1017E00043F008039910013B91720D2B0BD8DFE8F1
:1017F00003F021071B070A152121150A071B0721E2
:10180000D368013BD3605DF8044B7047937A03F0D3
:1018100003030029E6D043F00403E3E7D3685DF84F
:10182000044B023BD3607047D3685DF8044B02332E
:10183000D3607047D3685DF8044B0133D3607047C1
:10184000309F0220214B10B4D3F8C8201368506891
:1018500019780478507A137A044201EA03011BD004
:10186000937A03F0030309B143F0040343F0080340
:101870009910013B91720D2B0BD8DFE803F0210783
:101880001B070A152121150A071B0721D368013BF5
:10189000D3605DF8044B7047937A03F0030300298B
:1018A000E6D043F00403E3E7D3685DF8044B023B62
:1018B000D3607047D3685DF8044B0233D360704740
:1018C000D3685DF8044B0133D3607047309F02202A
:1018D000214B10B4D3F8CC201368506819780478E1
:1018E000507A137A044201EA03011BD0937A03F081
:1018F000030309B143F0040343F008039910013BCB
:1019000091720D2B0BD8DFE803F021071B070A1596
:101910002121150A071B0721D368013BD3605DF81D
:10192000044B7047937A03F003030029E6D043F099
:101930000403E3E7D3685DF8044B023BD3607047D0
:10194000D3685DF8044B0233D3607047D3685DF809
:10195000044B0133D3607047309F0220214B10B4F9
:10196000D3F8D0201368506819780478507A137A25
:10197000044201EA03011BD0937A03F0030309B187
:1019800043F0040343F008039910013B91720D2BBF
:101990000BD8DFE803F021071B070A152121150AE0
:1019A000071B0721D368013BD3605DF8044B7047E8
:1019B000937A03F003030029E6D043F00403E3E73E
:1019C000D3685DF8044B023BD3607047D3685DF881
:1019D000044B0233D3607047D3685DF8044B013386
:1019E000D3607047309F0220214B10B4D3F8D4202D
:1019F0001368506819780478507A137A044201EA1F
:101A000003011BD0937A03F0030309B143F00403ED
:101A100043F008039910013B91720D2B0BD8DFE8BE
:101A200003F021071B070A152121150A071B0721AF
:101A3000D368013BD3605DF8044B7047937A03F0A1
:101A400003030029E6D043F00403E3E7D3685DF81D
:101A5000044B023BD3607047D3685DF8044B0233FC
:101A6000D3607047D3685DF8044B0133D36070478F
:101A7000309F0220214B10B4D3F8D820136850684F
:101A800019780478507A137A044201EA03011BD0D2
:101A9000937A03F0030309B143F0040343F008030E
:101AA0009910013B91720D2B0BD8DFE803F0210751
:101AB0001B070A152121150A071B0721D368013BC3
:101AC000D3605DF8044B7047937A03F00303002959
:101AD000E6D043F00403E3E7D3685DF8044B023B30
:101AE000D3607047D3685DF8044B0233D36070470E
:101AF000D3685DF8044B0133D3607047309F0220F8
:101B0000214B10B4D3F8DC2013685068197804789E
:101B1000507A137A044201EA03011BD0937A03F04E
:101B2000030309B143F0040343F008039910013B98
:101B300091720D2B0BD8DFE803F021071B070A1564
:101B40002121150A071B0721D368013BD3605DF8EB
:101B5000044B7047937A03F003030029E6D043F067
:101B60000403E3E7D3685DF8044B023BD36070479E
:101B7000D3685DF8044B0233D3607047D3685DF8D7
:101B8000044B0133D3607047309F0220214B10B4C7
:101B9000D3F8E0201368506819780478507A137AE3
:101BA000044201EA03011BD0937A03F0030309B155
:101BB00043F0040343F008039910013B91720D2B8D
:101BC0000BD8DFE803F021071B070A152121150AAE
:101BD000071B0721D368013BD3605DF8044B7047B6
:101BE000937A03F003030029E6D043F00403E3E70C
:101BF000D3685DF8044B023BD3607047D3685DF84F
:101C0000044B0233D3607047D3685DF8044B013353
:101C1000D3607047309F0220214B10B4D3F8E420EA
:101C20001368506819780478507A137A044201EAEC
:101C300003011BD0937A03F0030309B143F00403BB
:101C400043F008039910013B91720D2B0BD8DFE88C
:101C500003F021071B070A152121150A071B07217D
:101C6000D368013BD3605DF8044B7047937A03F06F
:101C700003030029E6D043F00403E3E7D3685DF8EB
:101C8000044B023BD3607047D3685DF8044B0233CA
:101C9000D3607047D3685DF8044B0133D36070475D
:101CA000309F0220214B10B4D3F8E820136850680D
:101CB00019780478507A137A044201EA03011BD0A0
:101CC000937A03F0030309B143F0040343F00803DC
:101CD0009910013B91720D2B0BD8DFE803F021071F
:101CE0001B070A152121150A071B0721D368013B91
:101CF000D3605DF8044B7047937A03F00303002927
:101D0000E6D043F00403E3E7D3685DF8044B023BFD
:101D1000D3607047D3685DF8044B0233D3607047DB
:101D2000D3685DF8044B0133D3607047309F0220C5
:101D3000214B10B4D3F8EC2013685068197804785C
:101D4000507A137A044201EA03011BD0937A03F01C
:101D5000030309B143F0040343F008039910013B66
:101D600091720D2B0BD8DFE803F021071B070A1532
:101D70002121150A071B0721D368013BD3605DF8B9
:101D8000044B7047937A03F003030029E6D043F035
:101D90000403E3E7D3685DF8044B023BD36070476C
:101DA000D3685DF8044B0233D3607047D3685DF8A5
:101DB000044B0133D3607047309F0220214B10B495
:101DC0001A681368506819780478507A137A0442B4
:101DD00001EA03011BD0937A03F0030309B143F036
:101DE000040343F008039910013B91720D2B0BD8AB
:101DF000DFE803F021071B070A152121150A071B3D
:101E00000721D368013BD3605DF8044B7047937A98
:101E100003F003030029E6D043F00403E3E7D368AB
:101E20005DF8044B023BD3607047D3685DF8044B08
:101E30000233D3607047D3685DF8044B0133D3603D
:101E4000704700BF309F0220214B10B45A681368BE
:101E5000506819780478507A137A044201EA030131
:101E60001BD0937A03F0030309B143F0040343F05A
:101E700008039910013B91720D2B0BD8DFE803F09A
:101E800021071B070A152121150A071B0721D36803
:101E9000013BD3605DF8044B7047937A03F0030372
:101EA0000029E6D043F00403E3E7D3685DF8044B70
:101EB000023BD3607047D3685DF8044B0233D360B4
:101EC0007047D3685DF8044B0133D360704700BF9F
:101ED000309F0220214B10B49A681368506819781B
:101EE0000478507A137A044201EA03011BD0937AF2
:101EF00003F0030309B143F0040343F0080399100E
:101F0000013B91720D2B0BD8DFE803F021071B0773
:101F10000A152121150A071B0721D368013BD3604D
:101F20005DF8044B7047937A03F003030029E6D071
:101F300043F00403E3E7D3685DF8044B023BD3604E
:101F40007047D3685DF8044B0233D3607047D368A1
:101F50005DF8044B0133D360704700BF309F02200F
:101F6000214B10B4DA681368506819780478507AF5
:101F7000137A044201EA03011BD0937A03F00303AE
:101F800009B143F0040343F008039910013B917237
:101F90000D2B0BD8DFE803F021071B070A152121C1
:101FA000150A071B0721D368013BD3605DF8044B7A
:101FB0007047937A03F003030029E6D043F004034B
:101FC000E3E7D3685DF8044B023BD3607047D36806
:101FD0005DF8044B0233D3607047D3685DF8044B5F
:101FE0000133D360704700BF309F0220214B10B4F3
:101FF0001A691368506819780478507A137A044281
:1020000001EA03011BD0937A03F0030309B143F003
:10201000040343F008039910013B91720D2B0BD878
:10202000DFE803F021071B070A152121150A071B0A
:102030000721D368013BD3605DF8044B7047937A66
:1020400003F003030029E6D043F00403E3E7D36879
:102050005DF8044B023BD3607047D3685DF8044BD6
:102060000233D3607047D3685DF8044B0133D3600B
:10207000704700BF309F0220214B10B45A6913688B
:10208000506819780478507A137A044201EA0301FF
:102090001BD0937A03F0030309B143F0040343F028
:1020A00008039910013B91720D2B0BD8DFE803F068
:1020B00021071B070A152121150A071B0721D368D1
:1020C000013BD3605DF8044B7047937A03F0030340
:1020D0000029E6D043F00403E3E7D3685DF8044B3E
:1020E000023BD3607047D3685DF8044B0233D36082
:1020F0007047D3685DF8044B0133D360704700BF6D
:10210000309F0220214B10B49A69136850681978E7
:102110000478507A137A044201EA03011BD0937ABF
:1021200003F0030309B143F0040343F008039910DB
:10213000013B91720D2B0BD8DFE803F021071B0741
:102140000A152121150A071B0721D368013BD3601B
:102150005DF8044B7047937A03F003030029E6D03F
:1021600043F00403E3E7D3685DF8044B023BD3601C
:102170007047D3685DF8044B0233D3607047D3686F
:102180005DF8044B0133D360704700BF309F0220DD
:10219000214B10B4DA691368506819780478507AC2
:1021A000137A044201EA03011BD0937A03F003037C
:1021B00009B143F0040343F008039910013B917205
:1021C0000D2B0BD8DFE803F021071B070A1521218F
:1021D000150A071B0721D368013BD3605DF8044B48
:1021E0007047937A03F003030029E6D043F0040319
:1021F000E3E7D3685DF8044B023BD3607047D368D4
:102200005DF8044B0233D3607047D3685DF8044B2C
:102210000133D360704700BF309F0220214B10B4C0
:102220001A6A1368506819780478507A137A04424D
:1022300001EA03011BD0937A03F0030309B143F0D1
:10224000040343F008039910013B91720D2B0BD846
:10225000DFE803F021071B070A152121150A071BD8
:102260000721D368013BD3605DF8044B7047937A34
:1022700003F003030029E6D043F00403E3E7D36847
:102280005DF8044B023BD3607047D3685DF8044BA4
:102290000233D3607047D3685DF8044B0133D360D9
:1022A000704700BF309F0220214B10B45A6A136858
:1022B000506819780478507A137A044201EA0301CD
:1022C0001BD0937A03F0030309B143F0040343F0F6
:1022D00008039910013B91720D2B0BD8DFE803F036
:1022E00021071B070A152121150A071B0721D3689F
:1022F000013BD3605DF8044B7047937A03F003030E
:102300000029E6D043F00403E3E7D3685DF8044B0B
:10231000023BD3607047D3685DF8044B0233D3604F
:102320007047D3685DF8044B0133D360704700BF3A
:10233000309F0220214B10B49A6A136850681978B4
:102340000478507A137A044201EA03011BD0937A8D
:1023500003F0030309B143F0040343F008039910A9
:10236000013B91720D2B0BD8DFE803F021071B070F
:102370000A152121150A071B0721D368013BD360E9
:102380005DF8044B7047937A03F003030029E6D00D
:1023900043F00403E3E7D3685DF8044B023BD360EA
:1023A0007047D3685DF8044B0233D3607047D3683D
:1023B0005DF8044B0133D360704700BF309F0220AB
:1023C000214B10B4DA6A1368506819780478507A8F
:1023D000137A044201EA03011BD0937A03F003034A
:1023E00009B143F0040343F008039910013B9172D3
:1023F0000D2B0BD8DFE803F021071B070A1521215D
:10240000150A071B0721D368013BD3605DF8044B15
:102410007047937A03F003030029E6D043F00403E6
:10242000E3E7D3685DF8044B023BD3607047D368A1
:102430005DF8044B0233D3607047D3685DF8044BFA
:102440000133D360704700BF309F0220214B10B48E
:102450001A6B1368506819780478507A137A04421A
:1024600001EA03011BD0937A03F0030309B143F09F
:10247000040343F008039910013B91720D2B0BD814
:10248000DFE803F021071B070A152121150A071BA6
:102490000721D368013BD3605DF8044B7047937A02
:1024A00003F003030029E6D043F00403E3E7D36815
:1024B0005DF8044B023BD3607047D3685DF8044B72
:1024C0000233D3607047D3685DF8044B0133D360A7
:1024D000704700BF309F0220214B10B45A6B136825
:1024E000506819780478507A137A044201EA03019B
:1024F0001BD0937A03F0030309B143F0040343F0C4
:1025000008039910013B91720D2B0BD8DFE803F003
:1025100021071B070A152121150A071B0721D3686C
:10252000013BD3605DF8044B7047937A03F00303DB
:102530000029E6D043F00403E3E7D3685DF8044BD9
:10254000023BD3607047D3685DF8044B0233D3601D
:102550007047D3685DF8044B0133D360704700BF08
:10256000309F0220002310B4114C417202610460BC
:102570000372C36041B1194600E0026942F82310BA
:10258000427A01339A42F8DC0A4B1A680AB90CE025
:102590001A465369002BFBD15061002343618380AD
:1025A000C38083725DF8044B70471860F5E700BF85
:1025B0005CA80100D4A40220F8B5044615460E46D6
:1025C0000846022110F0C0F82846022110F0BCF89D
:1025D000984A994B52F83610012001F50077276090
:1025E000207252F83520607202F500770020676093
:1025F000E060013BFDD191F8003292F8002203F037
:102600000103D20744BF43F00203DBB2A3723B2EA7
:1026100000F20386DFE816F0F405EA05E005D605CA
:10262000CC05C205B805AE05A4059A05900586053A
:102630007C05720568055E0554054A0540053605AA
:102640002C05220518050E050405FA04F004E6041D
:10265000DC04D204C804BE04B304A8049D0492049C
:1026600087047C0428041E0414040A040004F603EE
:10267000EC03E203D803CE03C403BA03B003A603FA
:102680009C03920388037E0374036A0360033C0087
:102690006A4B6B49C3F8EC4004223B200FF0ACFFBF
:1026A000012323743B2D00F2B585DFE815F00B0301
:1026B0000103F702ED02E302D902CF02C502BB0219
:1026C000B102A7029D02930289027F023102270212
:1026D0001D0213020902FF01F501EB01E101D7011F
:1026E000CD01C301B901AF01A5019B019101860193
:1026F0007B01700165015A014F01440139012E012E
:10270000230118010D010201F700EC00E100B800FF
:10271000AD00A20097008C00810076006B00600085
:1027200055004A003C00454B4549C3F8EC400422A3
:102730003B200FF061FF237C0122134423742046C9
:10274000F8BD3E4B3F49C3F8E84004223A200FF061
:1027500053FF237C0122F0E7384B3B49C3F8E440A8
:10276000042239200FF048FF237C0122E5E7334B98
:102770003649C3F8E040042238200FF03DFF237CA7
:102780000122DAE72D4B3249C3F8DC40042237201E
:102790000FF032FF237C0122CFE7284B2D49C3F8ED
:1027A000D840042236200FF027FF237C0122C4E703
:1027B000224B2949C3F8D440042235200FF01CFFD6
:1027C000237C0122B9E71D4B2449C3F8D0400422E1
:1027D00034200FF011FF237C0122AEE7174B204974
:1027E000C3F8CC40042233200FF006FF237C0122E3
:1027F000A3E7124B1B49C3F8C840042232200FF054
:10280000FBFE237C012298E70C4B1749C3F8C44018
:10281000042231200FF0F0FE237C01228DE7074BCC
:102820001249C3F8C040042230200FF0E5FE237C9B
:10283000012282E7D8DD0100C0D40100309F0220D0
:10284000311D0000A51C0000191C00008D1B00009C
:10285000011B0000751A0000E91900005D19000055
:10286000D118000045180000B91700002D1700000E
:10287000AC4BAD49C3F8BC4004222F200FF0BCFE86
:10288000237C012259E7A74BA849C3F8B84004228A
:102890002E200FF0B1FE237C01224EE7A14BA4496C
:1028A000C3F8B44004222D200FF0A6FE237C0122A1
:1028B00043E79C4B9F49C3F8B04004222C200FF003
:1028C0009BFE237C012238E7964B9B49C3F8AC4022
:1028D00004222B200FF090FE237C01222DE7914B48
:1028E0009649C3F8A84004222A200FF085FE237CD5
:1028F000012222E78B4B9249C3F8A44004222920ED
:102900000FF07AFE237C012217E7864B8D49C3F82E
:10291000A040042228200FF06FFE237C01220CE748
:10292000804B8949C3F89C40042227200FF064FEA5
:10293000237C012201E77B4B8449C3F898400422A1
:1029400026200FF059FE237C0122F6E6754B8049C4
:10295000C3F89440042225200FF04EFE237C012270
:10296000EBE6704B7B49C3F89040042224200FF023
:1029700043FE237C0122E0E66A4B7749C3F88C4092
:10298000042223200FF038FE237C0122D5E6654B7C
:102990007249C3F88840042222200FF02DFE237CC8
:1029A0000122CAE65F4B6E49C3F88440042221200D
:1029B0000FF022FE237C0122BFE65A4B6949C3F87F
:1029C0008040042220200FF017FE237C0122B4E671
:1029D000544B6549DC6704221F200FF00DFE237C59
:1029E0000122AAE64F4B61499C6704221E200FF08A
:1029F00003FE237C0122A0E64A4B5D495C6704226A
:102A00001D200FF0F9FD237C012296E6454B594924
:102A10001C6704221C200FF0EFFD237C01228CE6B2
:102A2000404B5549DC6604221B200FF0E5FD237C5A
:102A3000012282E63B4B51499C6604221A200FF08A
:102A4000DBFD237C012278E6364B4D495C6604228F
:102A500019200FF0D1FD237C01226EE6314B49494C
:102A60001C66042218200FF0C7FD237C012264E6B7
:102A70002C4B4549DC65042217200FF0BDFD237C5B
:102A800001225AE6274B41499C65042216200FF08B
:102A9000B3FD237C012250E6224B3D495C650422B4
:102AA00015200FF0A9FD237C012246E61D4B394974
:102AB0001C65042214200FF09FFD237C01223CE6BC
:102AC000184B3549DC64042213200FF095FD237C5C
:102AD000012232E6134B31499C64042212200FF08C
:102AE0008BFD237C012228E60E4B2D495C640422D9
:102AF00011200FF081FD237C01221EE6094B29499C
:102B00001C64042210200FF077FD237C012214E6C0
:102B1000044B2549DC6304220F200FF06DFD237C5C
:102B200001220AE6309F0220A116000015160000BF
:102B300089150000FD14000071140000E513000069
:102B400059130000CD12000041120000B511000021
:102B5000291100009D10000011100000850F0000D9
:102B6000F90E00006D0E0000E10D0000550D000093
:102B7000C90C00003D0C0000B10B0000250B00004B
:102B8000990A00000D0A000081090000F508000004
:102B900069080000DD07000051070000C5060000BD
:102BA00039060000AD05000021050000B34BB44913
:102BB0009C6304220E200FF01FFD237C0122BCE544
:102BC000AE4BB0495C6304220D200FF015FD237C51
:102BD0000122B2E5A94BAC491C6304220C200FF082
:102BE0000BFD237C0122A8E5A44BA849DC6204224A
:102BF0000B200FF001FD237C01229EE59F4BA44991
:102C00009C6204220A200FF0F7FC237C012294E549
:102C10009A4BA0495C62042209200FF0EDFC237C52
:102C200001228AE5954B9C491C62042208200FF082
:102C3000E3FC237C012280E5904B9849DC6104226F
:102C400007200FF0D9FC237C012276E58B4B9449B9
:102C50009C61042206200FF0CFFC237C01226CE54E
:102C6000864B90495C61042205200FF0C5FC237C53
:102C7000012262E5814B8C491C61042210460FF051
:102C8000BBFC237C012258E57C4B8849DC60042294
:102C900003200FF0B1FC237C01224EE5774B8449E1
:102CA0009C60042202200FF0A7FC237C012244E553
:102CB000724B80495C60042201200FF09DFC237C54
:102CC00001223AE56D4B7C491C60042200200FF084
:102CD00093FC237C012230E5684B7849C3F8E84037
:102CE00004223A200FF088FC0123DAE4634B744994
:102CF000C3F8E440042239200FF07EFC0123D0E425
:102D00005E4B7049C3F8E040042238200FF074FC99
:102D10000123C6E4594B6C49C3F8DC400422372038
:102D20000FF06AFC0123BCE4544B6849C3F8D84057
:102D3000042236200FF060FC0123B2E44F4B6449BB
:102D4000C3F8D440042235200FF056FC0123A8E438
:102D50004A4B6049C3F8D040042234200FF04CFCA9
:102D600001239EE4454B5C49C3F8CC400422332048
:102D70000FF042FC012394E4404B5849C3F8C8408B
:102D8000042232200FF038FC01238AE43B4B5449E3
:102D9000C3F8C440042231200FF02EFC012380E44C
:102DA000364B5049C3F8C040042230200FF024FCB9
:102DB000012376E4314B4C49C3F8BC4004222F2058
:102DC0000FF01AFC01236CE42C4B4849C3F8B840BF
:102DD00004222E200FF010FC012362E4274B44490B
:102DE000C3F8B44004222D200FF006FC012358E460
:102DF000224B4049C3F8B04004222C200FF0FCFBCA
:102E000001234EE41D4B3C49C3F8AC4004222B2067
:102E10000FF0F2FB012344E4184B3849C3F8A840F3
:102E200004222A200FF0E8FB01233AE4134B344933
:102E3000C3F8A440042229200FF0DEFB012330E474
:102E40000E4B3049C3F8A040042228200FF0D4FBD9
:102E5000012326E4094B2C49C3F89C400422272077
:102E60000FF0CAFB01231CE4044B2849C3F8984027
:102E7000042226200FF0C0FB012312E4309F022021
:102E800095040000D92400004D240000C123000057
:102E900035230000A92200001D220000912100001E
:102EA0000521000079200000ED1F0000611F0000D7
:102EB000D51E0000491E0000BD1D0000A51C00001D
:102EC000191C00008D1B0000011B0000751A00007A
:102ED000E91900005D190000D11800004518000034
:102EE000B91700002D170000A116000015160000EC
:102EF00089150000FD14000071140000E5130000A6
:102F000059130000CD12000041120000B51100005D
:102F1000C34BC449C3F89440042225200FF06CFB36
:102F20000123FFF7BEBBBE4BBF49C3F8904004224C
:102F300024200FF061FB0123FFF7B3BBB84BBB4963
:102F4000C3F88C40042223200FF056FB0123FFF727
:102F5000A8BBB34BB649C3F88840042222200FF027
:102F60004BFB0123FFF79DBBAD4BB249C3F8844037
:102F7000042221200FF040FB0123FFF792BBA84B56
:102F8000AD49C3F88040042220200FF035FB012317
:102F9000FFF787BBA24BA949DC6704221F200FF073
:102FA0002BFB0123FFF77DBB9D4BA5499C670422AA
:102FB0001E200FF021FB0123FFF773BB984BA149A3
:102FC0005C6704221D200FF017FB0123FFF769BB8C
:102FD000934B9D491C6704221C200FF00DFB01231D
:102FE000FFF75FBB8E4B9949DC6604221B200FF074
:102FF00003FB0123FFF755BB894B95499C660422CF
:103000001A200FF0F9FA0123FFF74BBB844B9149CB
:103010005C66042219200FF0EFFA0123FFF741BB91
:103020007F4B8D491C66042218200FF0E5FA01231E
:10303000FFF737BB7A4B8949DC65042217200FF074
:10304000DBFA0123FFF72DBB754B85499C650422F4
:1030500016200FF0D1FA0123FFF723BB704B8149F3
:103060005C65042215200FF0C7FA0123FFF719BB96
:103070006B4B7D491C65042214200FF0BDFA01231F
:10308000FFF70FBB664B7949DC64042213200FF075
:10309000B3FA0123FFF705BB614B75499C64042219
:1030A00012200FF0A9FA0123FFF7FBBA5C4B71491C
:1030B0005C64042211200FF09FFA0123FFF7F1BA9C
:1030C000574B6D491C64042210200FF095FA012320
:1030D000FFF7E7BA524B6949DC6304220F200FF077
:1030E0008BFA0123FFF7DDBA4D4B65499C6304223F
:1030F0000E200FF081FA0123FFF7D3BA484B614944
:103100005C6304220D200FF077FA0123FFF7C9BAA0
:10311000434B5D491C6304220C200FF06DFA012320
:10312000FFF7BFBA3E4B5949DC6204220B200FF077
:1031300063FA0123FFF7B5BA394B55499C62042263
:103140000A200FF059FA0123FFF7ABBA344B51496B
:103150005C62042209200FF04FFA0123FFF7A1BAA5
:103160002F4B4D491C62042208200FF045FA012321
:10317000FFF797BA2A4B4949DC61042207200FF078
:103180003BFA0123FFF78DBA254B45499C61042288
:1031900006200FF031FA0123FFF783BA204B414993
:1031A0005C61042205200FF027FA0123FFF779BAAA
:1031B0001B4B3D491C61042210460FF01DFA0123F0
:1031C000FFF76FBA164B3949DC60042203200FF079
:1031D00013FA0123FFF765BA114B35499C600422AD
:1031E00002200FF009FA0123FFF75BBA0C4B3149BB
:1031F0005C60042201200FF0FFF90123FFF751BAB0
:10320000074B2D491C60042200200FF0F5F9012323
:10321000FFF747BA0022FFF790BA0023FFF741BA41
:10322000309F0220291100009D10000011100000A5
:10323000850F0000F90E00006D0E0000E10D00008A
:10324000550D0000C90C00003D0C0000B10B000042
:10325000250B0000990A00000D0A000081090000FA
:10326000F508000069080000DD07000051070000B4
:10327000C506000039060000AD050000210500006C
:1032800095040000D92400004D240000C123000053
:1032900035230000A92200001D220000912100001A
:1032A0000521000079200000ED1F0000611F0000D3
:1032B000D51E0000491E0000BD1D000010B592B0D3
:1032C000014601A80EF0B4FC0023322201A805A992
:1032D0000EF0D0FC05A9054809F0A4FD044601A89C
:1032E0000EF066FCA0B212B010BD00BFE493002047
:1032F00030B500EB8004A4002D3424B2054683B021
:10330000224600210F4809F0F3FD0F4B1B689D4238
:1033100007D00C484FF6E07103B0BDE8304009F02B
:1033200003BE4FF6FF71074809F0FEFD002114238C
:10333000009322460191F023024807F08FFA03B070
:1033400030BD00BFE4930020AC98002007EE900A47
:103350009FED0C6ADFED0C6A0C4B0D48B8EEE77A76
:10336000DFED0C7A27EE067A10B5E7EE267A012417
:103370001C60FCEEE77A17EE901A05F043FB064B53
:103380001C6010BD0AD7233C0000014388E100E027
:103390000C4F0020EE7CFF3E08E100E010B5A2B02B
:1033A00044221749044668460EF07EFF44220DEB86
:1033B000020014490EF078FFADF10402002352F828
:1033C000041FA14204D00133112BF8D122B010BD4B
:1033D0000D490A68002AFCDB22AA02EB83030B4991
:1033E00013F8442C33F8423C013A1203013B02F437
:1033F0007F22C3F30B0313430B6022B010BD00BF49
:1034000060A80100A4A8010000F1024004F10240FC
:103410002DE9F04F2DED028BDFF800B13B4BDFEDD6
:103420003C8A9FED3C8A85B04FF000080393D94653
:1034300004E0B8F1FC0F4BF8046F62D059F8043F78
:10344000039A029332F9024F039207EE903A07EE85
:10345000104AF8EEE77AB8EEC77A67EEA87A1FFA54
:1034600088F5E7EE087A2F1D4FF4FC633FB2FDEEBE
:10347000E77A5A2217EE906ABE2ED4BF26EAE67685
:10348000BE26BE2CA8BFBE240FFA84FA22480093A1
:1034900039465346A4B207F057F80020C4F1BE03E2
:1034A00004F15A02394600901BB212B21A4805358F
:1034B00007F04AF82DB2002300932946BE235A2272
:1034C000154807F041F84FF4FC6253460092294634
:1034D0005A22114807F038F8029B042B08F1020821
:1034E000A7DD1A4655324FF6FF73009312B22946F4
:1034F0000523094807F028F8B8F1FC0F4BF8046FD2
:103500009CD105B0BDEC028BBDE8F08F868C00200D
:103510003333333F9A99993EE4930020D8830020B7
:10352000F8B55C4E34685CB1032C5B4D28D0022C9E
:103530003CD0012C60D0042C7DD000232B62F8BD40
:103540005648554D564F05F0A5FC564A564B116846
:103550001A68EC6191424FF48033AB6104BFEB61B8
:10356000AC61524B34685248524A00211960032C16
:103570004FF001034FF002013B6003601160D6D1B0
:103580004FF480414548464F05F068FC474B34688E
:103590004848474900221A60AA6101234FF480324B
:1035A000022C3B6003600B60EA61C2D14FF48041A2
:1035B0003A4805F03DFC404BDFED406A93F900309E
:1035C00007EE903AF8EEE77AB7EE006A86EE277AD1
:1035D0004FF480320023EA61AB61B4EEE67AF1EE9B
:1035E00010FA3BD4F2EE007AB4EEE77AF1EE10FA7C
:1035F00044DD4FF4002333E02848274C2B4F05F0DF
:1036000049FC284A284B116818684FF480328842D8
:103610004FF00003EB61AA6108BFE2612048254931
:10362000234A08BFA36101233468036000263E607B
:103630000B6013607FE719481C4F194E1D4C05F0B5
:1036400029FC1B48002201234FF480313A60EA61D3
:10365000AA613360236003602962F8BD40F28F23C2
:103660000E4F124C0E481349114A3B6201230027AA
:103670002760036034680B6013605AE7DFED106A5F
:10368000DFED107AE7EE267AFCEEE77A17EE903A55
:10369000E6E700BF9C96002064970020C0960020BB
:1036A000609C0220D84E0020203E0020B4980020CC
:1036B000A0960020A04E0020593E00200AD7233CAF
:1036C00000008047EE7CFF3EF0B5474C474A484932
:1036D00091B0002508A80123256003F0CBF810AABB
:1036E00044480A9B12F8145D9DF82410836005730A
:1036F000017100F10D031A3012F8011F03F8011BCC
:1037000083423C49F8D10F9B3B4ECB6108A802F0A5
:10371000D9FF0023394F336005E008A802F0E8FF25
:1037200008A802F0CFFF0122324908A803F016F9D9
:1037300008A802F0EBFF40F2E63310B922689A4283
:103740004CDD08A802F0C2FF0028E6D108A802F06C
:10375000BBFF014668460EF06BFA294904A80EF03B
:1037600067FA04A968460EF09FFA054604A80EF011
:103770001FFA1DB968460EF01BFACEE7236803EB6B
:10378000430503EB850308A8FD1802F09DFF0146E1
:10379000284613F0EFFA1B4904A80EF049FA04A9D1
:1037A00068460EF081FA054604A80EF001FA2B4691
:1037B0000122694604A80EF089FA04A80EF0AAFABC
:1037C000054604A80EF0F4F9326823680A499542C8
:1037D00003F10103C8BF0D602360CBE708A802F026
:1037E00071FF11B0F0BD00BF0897002090A9010043
:1037F000649C02203C9C0220381C022018510020AE
:1038000094A901009CA9010008B5054901220020E6
:103810000CF022F8FE210348BDE8084002F07EBF0C
:10382000A0A90100649C022038B5064D0648074C4B
:10383000294601220CF010F8207028460CF0E2FB1B
:10384000207038BDA0A901003C4C0020D48B002082
:10385000F8B5224C236833B9214B1A6840F2E6339D
:103860009A420DDDF8BD1F480CF0BAFB00231E4A3A
:1038700023601B4B10701A6840F2E6339A42F1DC69
:103880001A4F1B4B3D681B681A491B48164E0135E1
:103890002A463D6013F0E0F9002117480CF0C6FB02
:1038A0000A22307014490F480CF000F802283070DA
:1038B00008D00A2210490B480BF0F8FF01233070A2
:1038C0002360F8BD07480CF08BFB09283070F0D15D
:1038D00009480CF0D1FB3070EBE700BFD098002016
:1038E0000897002010940020D48B0020381C022060
:1038F000D4980020A4A901000C9700202DE9F843DA
:10390000064605F06BFF01282CDDDFF86490DFF838
:1039100058800025D8F80000134F05EB40043046CE
:1039200005F08EFF09EB042401464FF48072204617
:103930000EF0BAFC0135304605F0A0FF022DE9D1AA
:103940003B680133BF2B02D83B60BDE8F8830022FF
:10395000064B3A60064907484FF4C0320CF022F992
:10396000054B1870BDE8F883089400209C4E002099
:103970003099002010940020D48B0020134A38B5D1
:1039800000230446124D80F8F63013700CE005F069
:1039900057FF104B01464FF480720F480CF002F9AC
:1039A0002870204605F06AFF204605F017FF002822
:1039B0002046ECDC08480CF013FB084B2870002272
:1039C0001A60BDE83840FFF77FBE00BFF04E002010
:1039D000D48B00209C4E002010940020D098002012
:1039E00008B50948FFF7CAFF0021084807F0F4F8B6
:1039F0000749084A084B096811604FF480329A6100
:103A0000BDE80840FFF78CBDA0970020E49300209C
:103A10005C9C02209C960020E01B02202DE9F041D6
:103A20008CB00DF1FF3600250746B0462C462846DF
:103A30000EF0EAFB08F8010F4440082314F0010FD0
:103A40004FEA540203F1FF3314BF82F08C04C4F335
:103A5000470413F0FF03F1D101352F2DE7D1F4B95D
:103A60009DF82B30322B03D020460CB0BDE8F081FE
:103A70009DF82A30302BF7D19DF82930302BF3D127
:103A80009DF82830302BEFD1013F0DF12F0316F8B0
:103A9000012F07F8012F9E42F9D10120E5E71846D2
:103AA0000CB0BDE8F08100BFF8B50025471E2C46DC
:103AB00017F8016F0823744014F0010F4FEA540205
:103AC00003F1FF3314BF82F08C04C4F3470413F0F6
:103AD000FF03F1D128460EF097FB864209D031460C
:103AE00028460EF0ABFB28460EF08EFB3B78834257
:103AF00004D101352E2DDBD1002600E00126214620
:103B000028460EF09BFB28460EF07EFB84420CBF3D
:103B100030460120F8BD00BF2DE9F0432549264875
:103B2000264A09680068264B264D1B88264C2E68BD
:103B3000264F2568264C3F6894F800908FB00133DB
:103B40000390059192E80300C0F307228DF831201D
:103B5000C0F307428DF832201E491F4A91F80080B9
:103B600092F800C0ADF80A301C4A1D4B1D498DF873
:103B70003000000E92F800E009688DF833000696D8
:103B80005F2293F900600891002302A88DF81DC000
:103B90008DF81CE08DF808200A9504978DF8259083
:103BA0008DF824800B96ADF83430FFF77DFF0FB011
:103BB000BDE8F0831C3E00209C960020B0A90100C7
:103BC000088C0020683E0020B89800206C3E002041
:103BD000793E0020593E0020703E0020143E002017
:103BE000783E0020743E00202DE9F04FAA4AAB4BEE
:103BF0001468AB48AB491C600C328BB005680C688C
:103C00001268A949A948DA605D609C600EF010F85E
:103C1000A74AA849A548DFF8D49210F031FF1C212B
:103C20001B2227238DE80E00A348FF231422152111
:103C300006F02AFB32222521A0480DF085FC322215
:103C400024219F480DF080FC232222219D48FEF76D
:103C5000B3FC322226219C480DF076FC32221D2135
:103C60009A480DF071FC1F221E219948FEF7A4FC12
:103C7000984B994993F90030984A99480B7012680B
:103C80005942017000239749C9F8001089F809309A
:103C9000C9F8103089F80830C9F80C300AB9C0E208
:103CA0001A465369002BFBD1C2F814900024DFF8A8
:103CB00090B28D4B8D48C9F81440A9F80440A9F87A
:103CC000064089F80A40C9F8003005F0D5F90BF133
:103CD000180201215846FEF745FC854B85488BF8B4
:103CE000F440224621468BF8F540CBF8F0408BF8A3
:103CF000F640CBF80030FEF735FC7E4A7E4B136071
:103D00007E4A7C4E7E4D18324FF48043A2F118005B
:103D100002213362FEF726FC784A7A4B13600120B9
:103D200005F224726F4E2C7223462146EC602E6001
:103D300068722A612C4600E0226942F823106A7AF0
:103D40006F4801339A42F7DC644B1A680AB96CE297
:103D50001A465369002BFBD1556100246A4929603A
:103D6000224601234FF48071684E69486C61AC8033
:103D7000EC80AC7285F8214785F82247C5F81861B8
:103D800010F0A2FD554BDFF894811A685549C5F82B
:103D90001C41082385F8203788F80940C8F800102E
:103DA000C8F8104088F80840C8F80C404B4B0AB9D6
:103DB0003DE21A465369002BFBD1C2F814804FF044
:103DC000000A544B5448C8F814A0A8F804A0A8F856
:103DD00006A088F80AA0C8F8003002F065FC4F4839
:103DE0004F4C504F504E05F0F5FB314A4F494B4870
:103DF00010F046FE4E4B012103F118021846FEF763
:103E0000B1FB4B4A4B4B13604B4B042103F128028F
:103E10001846FEF7A7FB494B03F128021846464B0C
:103E200004211C604FF480349C61DC611C625C6284
:103E3000FEF798FB414B3A4C1C6007F128024FF407
:103E40008034042138469C61DC611C625C62FEF7B0
:103E500089FB3349BC61022006F11802FC613C6217
:103E60007C62204C396034605346514686F808A085
:103E7000C6F80CA070723261344600E0226942F844
:103E80002310727A284801339A42F7DC134B1A68E0
:103E9000002A58D1CEE100BF54800440388C002065
:103EA000588004405C800440B8A90100884E00207E
:103EB0000C3E0020B11B0100E4930020CC930020B5
:103EC00030190220A8960020A84E0020209900203A
:103ED000DC4E0020783E0020DC1B0220D4A402200F
:103EE000DC9300205CA801005CB00100DC9800209D
:103EF0008CB00100488C002098B00100B419022059
:103F00006C8C002050B001001CAE01003CAE0100E2
:103F10009493002080B001005C1902204419022013
:103F200068B0010064960020181C02207104000093
:103F3000C096002044B00100E01B022064970020DE
:103F4000A09700201A465369002BFBD1566100242C
:103F5000B94ABA4B7461B480F480B472B848326024
:103F6000059305F0C1FA059BDFF82CA31C721846D7
:103F7000C3F800905F605C72DC601C740DF046FC5E
:103F8000059BB04AB049184610F07AFDAF4B059337
:103F900050468AE8000A8AF808408AF80940CAF8B8
:103FA0000C408AF810400DF031FCA64AA649DFF813
:103FB000ECB2504610F064FD059BDFF8E4A21C72E1
:103FC0004FF001091846C3F800805F60DC601C7484
:103FD00083F809900DF01AFC059B9A4A9A49DFF87C
:103FE000C482184610F04CFD994BCBF8043058466B
:103FF0008BF80840CBF800708BF80940CBF80C40E8
:104000008BF810400DF002FC8E4A8F49584610F094
:1040100037FD904BCAF8043050468AF80840CAF879
:1040200000708AF80940CAF80C408AF810400DF078
:10403000EDFB844A8449DFF870B2504610F020FD51
:10404000834B88F80840404688E8280088F80940F3
:10405000C8F80C4088F810400DF0D8FB794A7A492E
:104060007D4B0593404610F00BFD7C4BDFF83CA2E6
:10407000CBF8043058468BF80840CBF800708BF82A
:104080000940CBF80C408BF810400DF0BFFB6D4A97
:104090006D49DFF81C82724D584610F0F1FC714BEF
:1040A000CAF8003050466D4BCAF804308AF8084010
:1040B0008AF80990CAF80C408AF810400DF0A6FB67
:1040C0006149604ADFF8ECB1504610F0D9FC059B1D
:1040D000604A1A601846644A1C725A6083F8099054
:1040E000DC601C740DF092FB059B564A5649DFF8C4
:1040F000C8A1184610F0C4FC584BC8F80030404620
:10410000594BC8F8043088F8084088F80940C8F8C6
:104110000C4088F810400DF079FB4B49494A404665
:1041200010F0AEFC022328464F4A6B722C722F60AF
:104130006A60EC602C740DF069FB424A4249DFF87A
:104140007C814A4F284610F09BFC474B8BF8084077
:1041500058468BE848008BF80940CBF80C408BF8A8
:1041600010400DF053FB374A3749414D584610F087
:1041700087FC3D4B8AF8099050468AE848008AF847
:104180000840CAF80C408AF810400DF03FFB50463A
:104190002C4A2D49DFF828A1364CDFF8289110F081
:1041A0006FFC3549354B0A680792DDF81CB00A6888
:1041B00008921A68089B0968DFF80CE109911E460D
:1041C0002F4B0999DFF804C1CEF8002002EB420022
:1041D00003EB80032B4A2D68CAF800B0A1F57A7171
:1041E000D3F808B0D3F804A0C8F80060264B2748DD
:1041F000CCF800104FF00A082360C2F800A0C7F8FE
:1042000000B0C9F8005084F8088002F04DFA0D4A59
:104210001F491E4810F034FC0DF0AAFF0BB0BDE89A
:10422000F08F1C4BC3F8009040E5186095E5C3F88B
:104230000080C4E518608AE674B00100B8930020DD
:10424000181C02200C3E002089040000248C002051
:10425000E01B0220C0960020F44E0020B41902207A
:10426000F08B0020488C0020649700209C97002051
:10427000743E00200C4F002064A50220683E002000
:10428000E8A80100D498002028AE01003C9C022040
:10429000C5660000D4A40220989800208819022046
:1042A0009C1902200C990020C44E0020F898002090
:1042B000BC9800200C8C0020A4930020DC8B0020F4
:1042C000D81B0220D88B00205C970020A4960020E9
:1042D0002DE9F04F2DED028B434CDFF82891434F31
:1042E00095B020464FF6E07108F01EFE282500220A
:1042F0004FF400430193114620460095F023C4F883
:10430000189006F0ABFA4FF6FF7301930095F02377
:104310002A462046002107F053FB3B68012B00F0A2
:10432000FA82022B00F0748214224FF400438DE8CD
:104330000C000021F0234FF48C722B482C4EDFF838
:10434000C88006F08BFA28224FF448738DE80C00E1
:104350000021F0234FF49672234806F07FFA0022E2
:104360001146214808F0C4FD022222491E480DF0E2
:104370008DFB96F900101C480DF012FC01221E491D
:1043800019480DF083FB98F9001017480DF008FC50
:104390003A68022A00F04682134C1849022220464D
:1043A0000DF074FB164B1D68284612F069FD294676
:1043B000024620460DF06AFB3D68032D00F0428264
:1043C000DFF8489008481422002108F091FDD9F840
:1043D0000030042B00F21682DFE813F03E014401A6
:1043E0004A0150011A0000BFE49300206C3E0020F7
:1043F000703E0020D8A90100DCA90100E4A9010059
:10440000D498002018D60100143E00209C9600206D
:104410000422C149C1480DF039FBC14BC14C196898
:104420000BA808F085FD1422B421BC48DDF830B09B
:10443000DDF834A008F05CFD4FF6E071B74808F0F5
:1044400073FD2368072B00F09B8105ADCDF800B00C
:1044500053462846B44A092112F0B0FB284612F010
:104460000FFD29460246AD480DF010FB4FF4967241
:104470000021AA4808F03CFD3B68032B62D0AB4DFD
:10448000A6482B68012B0CBF4DF29A614FF6E071E4
:1044900008F04AFD23680A2B03D12A68012A00F09C
:1044A0000783DFF8D4A25AF82350284612F0E8FC1C
:1044B0002946024699480DF0E9FA01229C4997489D
:1044C0000DF0E4FA4FF6FF719448964D08F02CFD7C
:1044D0002368012B00F05082022B00F0D580002BC6
:1044E00000F0E180092B00F03F82082B00F05D8294
:1044F000032B00F04882052B00F079818D4B8E4D07
:104500001B688648012B0CBF4DF29A614FF6E07193
:1045100008F00AFD2B685AF82300FEF7CFFEC0F121
:10452000F00109B24FF496727C4808F0E1FC2B6868
:104530005AF82350284612F0A3FC29460246774831
:104540000DF0A4FA4FF48C720021744808F0D0FCEE
:104550004FF6E071714808F0E7FC2368062B00F085
:10456000BE80764C2378002B00F02081012B00F0D8
:104570002681022B724C00F031814FF6E0716748C2
:1045800008F0D2FC6F4B22786F491C786F4B052CDA
:104590000CBF1C460C46002A00F08C803B68032BA5
:1045A00055D0002B40F3C981DFF8D0A1684DDAF86F
:1045B0000020DFF8B4B19FED677ADBF80010002A25
:1045C0001346B8BF02F1FF031B1207EE903A91FBAE
:1045D000F3F185FB0205D217FAEEEF7AC2EB6535EF
:1045E000012D87EE278A4FEA41081DDD01244FF691
:1045F000E076009605235522484807EE904AF8EEEB
:10460000E77A013467EE887AFDEEE77ACDED037A3A
:10461000BDF90C1005F098FFA542EAD1DAF8003098
:10462000002BB8BFFF331B12D9F80020022A00F07C
:10463000C4814FF6E0730093572203230FFA88F1E9
:10464000364807F091F93B68012B00F0D88115B08E
:10465000BDEC028BBDE8F08F02223F492F480DF0E0
:1046600015FADAE607223D492C480DF00FFAD4E698
:1046700007223B4929480DF009FACEE606223949BE
:1046800026480DF003FAC8E6374B38491B68234823
:1046900081FB0321DB17C3EBA1110DF081FA236825
:1046A000002B7FF41FAF96F900101C480DF078FA2C
:1046B000236817E72146194808F0B4FBC0F1EB0165
:1046C00009B24FF48C72154808F012FC204612F023
:1046D000D7FB2146024611480DF0D8F95EE7134B8F
:1046E0001B68012B7FF43DAF214C0C484FF6FF7146
:1046F00008F01AFC2378002B00F0FA81012B00F05F
:10470000FE81022B0E4C7FF438AF1A490348042275
:104710000DF0BCF931E700BF68AA0100E493002066
:1047200000D00340B498002088AA0100609C0220B9
:1047300048AA0100A0960020A04E0020B84E0020FC
:1047400040190220583E0020C8A90100D0A901004C
:10475000AD8BDB6800401C464CAA010058AA010042
:1047600060AA010050AA0100743E0020D34D6210DF
:10477000D41B0220B4AA0100243E00209C970020F4
:1047800014229621AC4808F0B3FB4FF6FF71AA48FB
:1047900008F0CAFB05AD0B9A0192CDF800B0534664
:1047A0002846A64A092112F009FA57E60722A44929
:1047B000A1480DF06BF92378012B7FF4DAAEA14B01
:1047C0001B78002B00F0B28006229F499A480DF01A
:1047D0005DF923789D4C022B7FF4CFAE2378002B1C
:1047E00093D004229A4994480DF050F9C5E6994DAA
:1047F0002B68002B40F0B080072297498E480DF0BF
:1048000045F97BE6052295498B480DF03FF904E612
:104810000021062300930191F0235422864806F0DC
:104820001DF881E58E4984480DF030F98D4B8E4995
:104830001B68814881FB0321DB17C3EBA1110DF03D
:10484000AFF9A9E52D220021204608F051FB4FF6D3
:10485000E071204608F068FB844BC4F818901A6891
:10486000002AC0F24281032AC8BF1D600020FEF763
:104870003FFD08227E4970480DF008F97D4B6E48D7
:1048800093F90030012B07BF0A227B497B490C2298
:104890000DF0FCF868480DF033F90120FEF728FD13
:1048A0001222774964480DF0F1F8764B624893F98B
:1048B00000100DF075F960480DF022F90220FEF7A6
:1048C00017FD142270495C480DF0E0F86F4B5A4810
:1048D00093F900100DF064F957480DF011F9032019
:1048E000FEF706FD6A4954480D220DF0CFF8694BDA
:1048F000694A1B6803EB430302EB83035C682046B1
:1049000012F0BEFA214602464B480DF0BFF84A4865
:104910000DF0F6F854E500211E2300932046F02305
:1049200001913C2205F09AFF3B68FAE407225B49BB
:1049300041480DF0ABF823781BE6552200213E4894
:1049400008F0D6FA092256493B480DF09FF815B0F9
:10495000BDEC028BBDE8F08F0422524936480DF0C1
:1049600095F801232B60C9E5464B334893F90010B5
:104970000DF016F92368B8E598F900102E480DF0EF
:104980000FF92B68A8E5434B434A1B6803EB43032D
:1049900002EB83035D68284612F072FA294602464C
:1049A00025480DF073F82368A5E5384B224893F9A4
:1049B00000100DF0F5F823689AE5324A3A4D92F965
:1049C000001095FBF3F54FF47A7202FB01F292FBB3
:1049D000F3F3ED1A6D005B001CB22DB24FF6FF76BB
:1049E0002B46214600965522134805F0BDFD2B4667
:1049F000214600965922104805F0B6FD19E6DBF86D
:104A00000010194B294A83FB0103C917C1EBA313FB
:104A100008A8092112F0D2F8A8F10A0109B23C2233
:104A2000054808F065FA08A812F02AFA08A9024613
:104A300001480DF02BF80AE6E493002078AA010063
:104A4000A4AA0100F04E0020BCAA010040190220D7
:104A5000CCAA0100B898002094AA010070AA010015
:104A6000E0A90100743E0020D34D6210AC980020F4
:104A7000E8A90100783E0020F4A9010000AA010085
:104A800010AA0100793E002024AA0100593E00200E
:104A90003CAA0100683E0020E8A80100C4AA010069
:104AA000DCAA01009CAA010080380100D4AA010000
:104AB000164B174A1B68DFF86CA003EB430503EBAA
:104AC0008503D51828462E2112F0ECF8421B294602
:104AD0000132104812F0ACF90E4812F0D1F90D492C
:104AE00002460D480CF0D2FFECE400221A60BDE64D
:104AF00007220A4908480CF0C9FF2378FEE507227F
:104B0000074905480CF0C2FF2378FAE5B0190220E6
:104B100018510020E08B0020E4930020A4AA01009B
:104B2000ACAA0100243E0020074B10B50124014629
:104B30001C60064803F0F6FE054B1C60FFF7C8FB3F
:104B4000044B00221A6010BD88E100E00C4F0020E9
:104B500008E100E0E0930020F0B58DB06846FEF774
:104B60005DFF044698B13849089A384BBDF8027089
:104B70009DF828609DF829509DF82A000F80012A91
:104B80009DF82B101E705D709870D97002D0204671
:104B90000DB0F0BD2E4E2F49039F37602E482F4B8E
:104BA000029D2F4E049F0F600199026019603560CD
:104BB000002D2FD0022D40D0012D35D000212948C5
:104BC00006F00AF831682748274E0CF0E9FF274A1B
:104BD0009DF915002649274B9DF81D509DF81C7026
:104BE0001070069A0D701A603770FEF7AFFB9DF9D2
:104BF0001430214A214D13701846FFF795FF099B89
:104C00001F4820495AB25B42037020462A700A703E
:104C10000DB0F0BD2946134806F014FA2946114894
:104C200005F0E8FF3568C5E700210E4806F00AFAEE
:104C300000210C4805F0DEFFC0E70021094805F01F
:104C4000D9FF3568B8E700BF088C0020BC4E0020B3
:104C50001C3E0020683E0020B89800209C96002052
:104C60006C3E0020E4930020593E0020703E00205E
:104C7000793E0020743E0020143E0020783E002043
:104C8000DC930020DC1B0220274B9FED286A93ED6C
:104C9000007ADFED276AB8EEC77A07EE900AC6EE13
:104CA000075AF8EEE77A67EEA57AF4EEE67AF1EEC7
:104CB00010FA19DC1F4A204BC2ED007AF5EEC07ADB
:104CC0000122F1EE10FA1A602BD49FED1C7AF4EE5B
:104CD000C77AF1EE10FA1BDD194B1A491A4A012066
:104CE0000860D361FFF7F4BAC7EE065A114B1748B4
:104CF000114A0121F2EE027AE5EEA67AC3ED006ACE
:104D0000FDEEE77A17EE903AF0EE667A03601160F6
:104D10009FED0F7A67EE877AFCEEE77A17EE903A0E
:104D2000DBE70023D9E700BF9C970020A6552C475E
:104D300000E0AB46183E002088E100E0A655AC46F6
:104D400080FFFF7F08E100E0488C0020743E0020D7
:104D50004B24BE472DE9F04F2DED048BB34AB44BE5
:104D600092F900201B689FEDB36ADFEDB36A07EE8E
:104D7000102A002BB8BFFF33F8EEC77A1B1227EEBC
:104D8000867A07EE903AF8EEE77AADF5097D87EE80
:104D9000278A10AC4FF4F07220460021C6EEA78A95
:104DA00011F0B0FCA54B1A680132012A04921A6076
:104DB000BDEEC88AFDEEE88A00F01881049B632BE3
:104DC00040F21C81DFF8C082DFF8B8929FED9C6A48
:104DD0000026C446B346B64627464FF4807A0225DD
:104DE000F2EE046A0FE0042AD8BF4FF4006323DC1C
:104DF0000135782D24F8163007F1040727F8023C16
:104E000006F102062CD03CF8023FB9EC017A03EB24
:104E100083035B0007EE903AF8EEE77AE7EE467A16
:104E200077EEA67AFDEEE77A17EE902A5245964481
:104E3000D9DD17EE90AAAB465300FF2BA8BFFF2386
:104E4000B2F5407FC0F2D482B2F5106FC0F2918209
:104E50001B0203F478436FEAD3236FEAC323C7E747
:104E6000784B9FED797A83FB0E234FEAEE7ECEEBF3
:104E700023139AFBF3F307EE903AF8EEE77A18EE75
:104E8000103AF4EE477AF1EE10FA48BF4FF0000BFB
:104E90005B4504DA18EE903A5B4500F3FB806B4B00
:104EA0001D68012D4FF0000A00F02081022D00F056
:104EB0002B8118EE103A5B45654D4EDA18EE903AAC
:104EC0005B454ADD2B78002B40F0AE81614EDFF868
:104ED000C08133680F93604B0F9A1A60D8F8003086
:104EE000012B00F098815D4E022B337840F09E81BB
:104EF000002B00F09B815A4803F0CCFF4FF4804117
:104F0000574803F095FF574BDFED576A93F9003090
:104F100007EE903AF8EEE77AB7EE006A86EE277A67
:104F2000B4EEE67AF1EE10FA00F11D82F2EE007AAC
:104F3000B4EEE77AF1EE10FA00F31882DFED4B6A77
:104F4000DFED4B7AE7EE267AFCEEE77A17EE902A51
:104F5000434900230A62337068E12B786BB13D4A04
:104F60003D4913680B930B9B096812680C924148EA
:104F7000414A0C9E06605B1A1380384E002233783B
:104F80002A7043B9334A344912680A9209680A9A66
:104F9000521A322A09D82D4B1B68022B0FD00DF55F
:104FA000097DBDEC048BBDE8F08F2D4A2B700123E9
:104FB00082F842303370254B1B68022BEFD1254B12
:104FC0002C4A1B6809931268099B2C4D9B1A312BA4
:104FD00040F23F812B68B3F58C7FE0DB5A232B60D6
:104FE0000DF5097DBDEC048BBDE8F08F244B00214D
:104FF00003F5007243F8041B9A42FBD1214A22496F
:10500000DFED226A02F5FC7031F8023F92ED007A82
:1050100003EB83035B0007EE903AF8EEE77AA7EE26
:10502000A67AA2EC017A8242EED1CBE6793E00204C
:105030009C97002000007A4400409C47D8980020AC
:105040006666663FBF3CB6226666863F6C3E0020C1
:10505000BC96002064A50220D81B0220673E0020D9
:10506000C0960020593E00200AD7233C000080470C
:10507000EE7CFF3EDC8B0020084F0020103E00201D
:10508000184F0020204F0020868C00206F12833A9A
:105090009C960020C34BC44A03930021D3ED006AC1
:1050A0008A46022338F8020F92ED007A07EE900A42
:1050B000F8EEE77A77EE877AF4EEE67AF1EE10FA18
:1050C000E2EC017A03DDF0EE676A9A4601210133D2
:1050D000782BE7D1002940F0A281B44A138801332C
:1050E0001380B34B1D68012D7FF4E0AEB14B1B68FC
:1050F000022B00F0A080049BDB073FF5DAAEFEF741
:1051000087F9AB4B1D68D1E6A84F3B88322B7FF661
:10511000D0AE00262D230196009331463E80A64E48
:10512000A64836680696F023282205F097FB9D4B8B
:10513000BAF1000F00F09F801A4692ED007A0393B7
:105140009F4BDFEDA05AF7EE007A03EB8A0377EE70
:10515000277A1A1D514632ED016AC6EE276AF4EE2F
:10516000E56AF1EE10FA02DD01390229F3D1DFED33
:10517000955A04915246B3EC016AC6EE276AF4EEE2
:10518000E56AF1EE10FA54DD0132782AF3D10023FA
:105190000593DFF81492DFED8C9A9FED8C9ACDF891
:1051A0001CB00026022702E0039B93ED007AD9EDA4
:1051B000006A8248C6EE877A4FF478430FFA86FB7E
:1051C0000093594667EEA97AFDEEE77A17EE905AFA
:1051D000C5F155080FFA88F82DB242462B4605F066
:1051E000B3F9BA4507F1010700F0D2800236782FF3
:1051F000B6B2A9EC019AD7D1DDF81CB0BAF1000F14
:105200005ED1039AD2ED007AB6EE007A67EE877A25
:10521000C2ED007A4DE633686D4F0E930E9A3B68EF
:10522000D31AB3F57A7F2DD86A4E337801222A70CB
:10523000A7E60592ADE75D4A674B1288A3FB021310
:105240009B0803EB8303D31A9BB2002B7FF431AE90
:1052500055E701940123B5F9002058480093002137
:10526000F02305F091FF2988544805F0EBFE2B68E8
:1052700001332B60AFE60393049593ED007ACDF8EC
:1052800014A086E74C4B554A1B68002BB8BFFF3370
:105290001B120BFB03F382FB0312DB17C3EB62133E
:1052A0004FF4FA7202FB03F34D4A18461360FFF7FE
:1052B000EBFC33680D930D9AD8F800303A6012E693
:1052C000069B9FED489A3D48002BB8BFFF331B1249
:1052D00007EE903AF8EEE77A2D22962127EE899A8A
:1052E00007F006FE4DF29A61344807F01DFEDDED31
:1052F000047A3248F8EEE77A67EE897AFDEEE77ACB
:1053000017EE901A0CF04CFC012237492B480CF098
:10531000BDFB4FF6E071294807F006FE07EE90AAA4
:10532000F8EEE77A254867EE897AFDEEE77A17EE20
:10533000901A0CF035FC01222B4920480CF0A6FBFA
:105340004DF29A611D4807F0EFFDDDED057A1B482F
:10535000F8EEE77A67EE897AFDEEE77A17EE901AB3
:105360000CF01EFC4DE740F28F22F1E54FF40022D5
:10537000EEE51E4981FB0210D217C2EB60021B0250
:10538000D21003F4784342F4FC6213439BB22FE53E
:105390004FF6E07000902B4642465946074805F00C
:1053A000D3F823E7E0930020DC190220A44E00206C
:1053B0006C3E00209C9600209C970020E4930020E7
:1053C000D4190220CDCCCC3D0000344200000000B6
:1053D000A4960020673E0020CDCCCCCCD34D6210EB
:1053E000743E00206F12833A48AA0100398EE338D8
:1053F0000D491B0203930D4B81FB0210D117401A7C
:1054000083FB0232039BC00003F4784300F4FC608A
:10541000C1EB62020343C2F3C4021343E8E4039BFB
:10542000C3ED006A59E600BF56555555398EE3382D
:1054300038B5104B1049114A114D00EB400003EBF9
:105440008003012498685B680B6028601460FDF796
:10545000A5FFC8200DF07EF90A4B1868FFF714FC71
:10546000094B14201C600DF075F9BDE83840FEF7BB
:105470002FBF00BFE8A80100D498002088E100E019
:105480009C970020743E002008E100E01F4B204A5A
:105490001B6801210B2B10B50446117026D0642027
:1054A0000DF058F90D2C2046A8BF0D2020EAE07021
:1054B000FFF7BEFF174C184B1A682368002B02F148
:1054C000FF3220DB9342A8BF134603EB430213498C
:1054D000236003EB8203194411480D2211F03EFDB5
:1054E0000F491048BDE8104004F0A2B80E4A0F4B17
:1054F00010684FF480310022022899611A6204BFBB
:10550000D9619A61CBE70023DFE700BFB4980020A0
:1055100040190220B01902200897002018510020DD
:105520000C970020441902209C96002064970020CC
:1055300038B50B4C23782BB10A4890F8403003F073
:10554000FF0503B138BD04F04BF8074B25701B78FD
:10555000002BF7D0054B1868BDE83840FFF796BF21
:105560004019022044190220609600201C3E0020B1
:105570002DE9F04788B0D0B9A64BA74AA7491B68C8
:1055800015680E680D22EBB9A54B1978731900291F
:1055900073D0002BB8BF02F1FF339342A8BF0023A2
:1055A000002875D19C4A136008B0BDE8F087012837
:1055B000FAD19C4B9C4A9D491B6815680E680422D1
:1055C000002BE1D0012BEFD1002EEDD00446002DB1
:1055D00065D1974A137833445BB2002BC0F2ED805B
:1055E0005A2BA8BF5A2307EE903A9FED926ADFED3F
:1055F000926AB8EEE77ADFED917A27EE067AE7EE67
:10560000267AFCEEE77ACDED017A8D4913700127F9
:105610000F608C48019903F0F5F98B4B1F607E4FAA
:105620003B68072B68D0052B4BD00C2D50D03B6826
:105630000A2BB9D1774B1B68012B00F0AC807A4B59
:105640001B68032BB0D1774B1B68012BACD17F4B70
:105650001B78022BA8D17E4C744B22681B68134424
:10566000052BA8BF052323EAE37318462360FFF741
:10567000DFFE784B22681A6096E7A3F10A01012940
:1056800087D8012E00F08580013608BF092384E702
:10569000012889D1644A136008B0BDE8F087032D62
:1056A0005FD16B4F3B6833440D2BA8BF0D2323EA1A
:1056B000E37318463B60FFF7BBFE674B3A681A601E
:1056C000ADE7544B1B68012B7CD00C2D7FF46CAFE5
:1056D000002C54D0012CAAD1604B1B68002B40F049
:1056E00083805F4A5F4892F900305F4903705B42F4
:1056F0005BB213700B709AE7002C96D1DFF884919F
:10570000DFF88481D9F800300493049BD8F8002096
:105710009B1AB3F5FA7F53D2F92B00F25F81632B0A
:105720008BBF4FF00A0AC6EB061A0AFB06FA4FEACD
:105730008A0A07F031FE06A9504407F0D7FC06A8F4
:1057400007F0ACFD0CF0DAFF06A807F0A7FD07F0A4
:1057500073FED9F800300593059A3B68C8F800201D
:1057600061E7082D40F0AD80404A137833445BB2C6
:10577000042B0BDD1E2BA8BF1E2313704FE7374AE7
:105780001368334483F30203136050E70523137057
:1057900045E70C2301E73649204A0B6812689B183D
:1057A0002FD4344A1268934202F1FF3200DB002307
:1057B0009342A8BF13460B6041E701952B4624E7AF
:1057C000B246B6E7154BDFF8C4E01A68DEF8001001
:1057D000294B0A441340002B6EDB19462748CEF8AC
:1057E00000300CF0DDF920E7012B51D1244A137869
:1057F00033445BB20E2B59DD232BA8BF2323137038
:1058000015E71C4B1B685A1E48BF0023D3D4134610
:10581000CEE700BF609C0220B4980020B098002022
:10582000F14E0020A0960020A04E0020984E0020AF
:10583000703E00200AD7233C00000143EE7CFF3E6F
:1058400088E100E00C4F002008E100E0B84E0020A5
:10585000683E00201C3E00205C970020AC98002091
:10586000783E0020DC930020DC1B0220593E002003
:10587000B01902200897002001000080E493002066
:10588000793E002064A50220048C0020B8980020F6
:10589000022B40F0A6805C4A137833445BB2042BA1
:1058A00007DD1E2BA8BF1E231370C0E60F23137045
:1058B000BDE605231370BAE6013B63F00103013333
:1058C0008BE7092D0DD1514A137833445BB20E2B6F
:1058D00004DD232BA8BF23231370A0E60F2313702E
:1058E0009DE6012D18D14A4A137833445BB2002B50
:1058F0006FDB3F2BA8BF3F2318461370FFF714F947
:10590000444A454B00201060002103F5007243F823
:10591000041B9342FBD182E6022D38D1DFF81C91A3
:10592000DFF81C81D9F800300293029BD8F80020E0
:105930009B1AB3F5FA7F46D2F92B4CD8642B41F26F
:10594000883328BF4FF4FA63344F354A39681268F8
:1059500003FB061341F657318B4231DD314981FBA0
:105960000201D243D20FC2EBE1124FF47A7101FB74
:1059700002F29342A8BF134618463B60FFF784F932
:10598000D9F800300393039BC8F8003047E6042D94
:1059900003D1204B00221A6041E6062D7FF43FAE72
:1059A000214B1B7893B12149214A0B780133DBB29B
:1059B000A2FB0302520802EB42029B1A0B702EE676
:1059C00041F65833D8E74FF4FA73BDE7174A13701E
:1059D00025E6002390E74FF47A73B5E706EB860AD5
:1059E000A7E6032B7FF423AE124C23681E440D2E32
:1059F000A8BF0D2626EAE67630462660FFF718FD9A
:105A00000D4B22681A6012E6593E0020793E0020B4
:105A1000143E0020D8980020184F0020743E00202B
:105A20009C970020D34D6210F14E0020D41B022021
:105A3000ABAAAAAA683E00205C97002064A50220B9
:105A4000048C0020F0B5254D254F264E83B0FDF780
:105A5000FFFE28460021002405F0F4FA4FF4A0735D
:105A600022462846214600930194F02304F0F6FED6
:105A700028464DF29A6107F057FA1B4BAB6121465D
:105A80002846642207F034FA0922184928460BF008
:105A9000FDFF384611F0F4F93946024628460BF06E
:105AA000F5FF134BAB61FEF713FC1248124D03F0E8
:105AB000F1F9124A12491348134B17688C610460BC
:105AC0004FF480313046DC61996114602F6003F03F
:105AD00091FE012386F8F63003B0F0BDE493002078
