:1000000000000320D1010000390A0100F1090100BC
:10001000F1090100F1090100F1090100F1090100F4
:10002000F1090100F1090100F1090100390A01009B
:10003000390A0100F10901002D1F010031200100E2
:10004000390A0100390A0100390A0100390A0100A0
:10005000390A0100390A0100390A0100390A010090
:10006000390A0100390A0100390A0100390A010080
:10007000390A0100390A0100390A0100390A010070
:10008000390A0100390A0100390A0100390A010060
:10009000390A0100390A0100390A0100390A010050
:1000A0008D3A0100993A0100390A0100390A01002C
:1000B000390A0100390A0100390A010059210100F9
:1000C000390A010085220100390A0100B12301002B
:1000D000390A0100A9240100390A0100390A010086
:1000E000390A0100390A0100390A0100390A010000
:1000F000390A0100390A0100390A0100390A0100F0
:10010000390A0100390A0100390A0100390A0100DF
:10011000390A0100C5100100390A0100390A01003D
:10012000390A0100390A0100390A0100390A0100BF
:10013000390A0100390A0100390A0100390A0100AF
:10014000F9030100390A0100A1250100390A010063
:10015000390A0100390A0100390A0100390A01008F
:10016000390A0100390A0100A53A0100390A0100E3
:10017000390A0100390A0100390A0100390A01006F
:10018000390A0100390A0100390A0100390A01005F
:10019000390A0100390A010099260100390A0100D3
:1001A000390A0100390A0100390A0100390A01003F
:1001B000390A0100390A0100390A0100390A01002F
:1001C000390A0100390A0100390A0100390A01001F
:1001D0005C4B4CF2205210B51A804DF628121A8052
:1001E00000BF00BF10F02CFC574B4FF030621A607C
:1001F000564A9A60564ADA60564B4FF470021A60BB
:10020000554B564A1A60564A136813F4807304D14A
:1002100054490B604FF4A8531360534B1A781107DD
:1002200003D51A7842F008021A70504B5049AA229E
:100230001A70504A504B8B4204D252F8040F43F8C4
:10024000040BF8E74D4B4E4900228B4202D243F893
:10025000042BFAE74B494C4A002352F8230041F89B
:1002600023000133742BF8D1484B494A802103F80D
:10027000011B9342FBD1474B424A1A60464B8A22EC
:100280001A70A3F5805324225A70A0221A709A790A
:100290009207FCD59A79D406FCD4404A937903F0AE
:1002A0000C03082BFAD13E4B60221A7002331A78E5
:1002B000802AFCD1394B01221A715D225A719A7938
:1002C0009006FCD59979354A4906FBD5354B364918
:1002D00019600021596020231370937903F00C03F7
:1002E0000C2BFAD1314B324A1A60324B324A1A6027
:1002F00000225A60072243F8042C304AC3F80C2D20
:1003000062B610F083FD174B1B68DA0705D52C4841
:1003100010F0FEFC2B4B2C4A1A602C4B1B785B0612
:1003200009D5284C284B22689A4204D1244810F061
:10033000EFFC0023236014F0BBF910F087FB10F0F2
:10034000B5FAFEE70E20054030800440823F0400ED
:100350000100002B88ED00E0002008E0030000858C
:1003600010D0034014D0034002D0074000E0074003
:10037000204C00201CCE0200303D0020204C0020EC
:1003800064790220003800200000000000E400E052
:1003900064E400E008ED00E0005006400040064044
:1003A00001E007404480044000000602048004404D
:1003B000C010070014E000E01FBF02000000202072
:1003C000988A355D1CE00340A5C3945A00F00740AD
:1003D000FFFFFFFFFFFFFFFFFFFFFFFFFFFFFFFF2D
:1003E000FFFFFFFFFFFFFFFFFFFFFFFFFFFFFFFF1D
:1003F000FFFFFFFFFFFFFFFFFFFFFFFFFFFFFFFF0D
:10040000FFFFFFFFFFFFFFFFFFFFFFFFDEF9FFFF23
:1004100010B5054C237833B9044B13B10448AFF33E
:1004200000800123237010BD204C0020000000003C
:1004300018CE0200084B10B51BB108490848AFF3AD
:1004400000800848036803B910BD074B002BFBD0A0
:10045000BDE81040184700BF00000000244C0020F9
:1004600018CE0200204C00200000000010F04ABC12
:1004700010B5044B044640F8183B08F0FFFB20463B
:1004800010BD00BFBC9A010010B504460FF06CFF10
:10049000204610BD214B10B4D3F8E02013685068FB
:1004A00019780478507A137A044201EA03011BD0C8
:1004B000937A03F0030309B143F0040343F0080304
:1004C0009910013B91720D2B0BD8DFE803F0210747
:1004D0001B070A152121150A071B0721D368013BB9
:1004E000D3605DF8044B7047937A03F0030300294F
:1004F000E6D043F00403E3E7D3685DF8044B023B26
:10050000D3607047D3685DF8044B0233D360704703
:10051000D3685DF8044B0133D3607047F86B022059
:10052000214B10B4D3F8E42013685068197804788C
:10053000507A137A044201EA03011BD0937A03F044
:10054000030309B143F0040343F008039910013B8E
:1005500091720D2B0BD8DFE803F021071B070A155A
:100560002121150A071B0721D368013BD3605DF8E1
:10057000044B7047937A03F003030029E6D043F05D
:100580000403E3E7D3685DF8044B023BD360704794
:10059000D3685DF8044B0233D3607047D3685DF8CD
:1005A000044B0133D3607047F86B0220214B10B429
:1005B000D3F8E8201368506819780478507A137AD1
:1005C000044201EA03011BD0937A03F0030309B14B
:1005D00043F0040343F008039910013B91720D2B83
:1005E0000BD8DFE803F021071B070A152121150AA4
:1005F000071B0721D368013BD3605DF8044B7047AC
:10060000937A03F003030029E6D043F00403E3E701
:10061000D3685DF8044B023BD3607047D3685DF844
:10062000044B0233D3607047D3685DF8044B013349
:10063000D3607047F86B0220214B10B4D3F8EC2044
:100640001368506819780478507A137A044201EAE2
:1006500003011BD0937A03F0030309B143F00403B1
:1006600043F008039910013B91720D2B0BD8DFE882
:1006700003F021071B070A152121150A071B072173
:10068000D368013BD3605DF8044B7047937A03F065
:1006900003030029E6D043F00403E3E7D3685DF8E1
:1006A000044B023BD3607047D3685DF8044B0233C0
:1006B000D3607047D3685DF8044B0133D360704753
:1006C000F86B0220214B10B4D3F8C0201368506897
:1006D00019780478507A137A044201EA03011BD096
:1006E000937A03F0030309B143F0040343F00803D2
:1006F0009910013B91720D2B0BD8DFE803F0210715
:100700001B070A152121150A071B0721D368013B86
:10071000D3605DF8044B7047937A03F0030300291C
:10072000E6D043F00403E3E7D3685DF8044B023BF3
:10073000D3607047D3685DF8044B0233D3607047D1
:10074000D3685DF8044B0133D3607047F86B022027
:10075000214B10B4D3F8C42013685068197804787A
:10076000507A137A044201EA03011BD0937A03F012
:10077000030309B143F0040343F008039910013B5C
:1007800091720D2B0BD8DFE803F021071B070A1528
:100790002121150A071B0721D368013BD3605DF8AF
:1007A000044B7047937A03F003030029E6D043F02B
:1007B0000403E3E7D3685DF8044B023BD360704762
:1007C000D3685DF8044B0233D3607047D3685DF89B
:1007D000044B0133D3607047F86B0220214B10B4F7
:1007E000D3F8C8201368506819780478507A137ABF
:1007F000044201EA03011BD0937A03F0030309B119
:1008000043F0040343F008039910013B91720D2B50
:100810000BD8DFE803F021071B070A152121150A71
:10082000071B0721D368013BD3605DF8044B704779
:10083000937A03F003030029E6D043F00403E3E7CF
:10084000D3685DF8044B023BD3607047D3685DF812
:10085000044B0233D3607047D3685DF8044B013317
:10086000D3607047F86B0220214B10B4D3F8CC2032
:100870001368506819780478507A137A044201EAB0
:1008800003011BD0937A03F0030309B143F004037F
:1008900043F008039910013B91720D2B0BD8DFE850
:1008A00003F021071B070A152121150A071B072141
:1008B000D368013BD3605DF8044B7047937A03F033
:1008C00003030029E6D043F00403E3E7D3685DF8AF
:1008D000044B023BD3607047D3685DF8044B02338E
:1008E000D3607047D3685DF8044B0133D360704721
:1008F000F86B0220214B10B4D3F8D0201368506855
:1009000019780478507A137A044201EA03011BD063
:10091000937A03F0030309B143F0040343F008039F
:100920009910013B91720D2B0BD8DFE803F02107E2
:100930001B070A152121150A071B0721D368013B54
:10094000D3605DF8044B7047937A03F003030029EA
:10095000E6D043F00403E3E7D3685DF8044B023BC1
:10096000D3607047D3685DF8044B0233D36070479F
:10097000D3685DF8044B0133D3607047F86B0220F5
:10098000214B10B4D3F8D420136850681978047838
:10099000507A137A044201EA03011BD0937A03F0E0
:1009A000030309B143F0040343F008039910013B2A
:1009B00091720D2B0BD8DFE803F021071B070A15F6
:1009C0002121150A071B0721D368013BD3605DF87D
:1009D000044B7047937A03F003030029E6D043F0F9
:1009E0000403E3E7D3685DF8044B023BD360704730
:1009F000D3685DF8044B0233D3607047D3685DF869
:100A0000044B0133D3607047F86B0220214B10B4C4
:100A1000D3F8D8201368506819780478507A137A7C
:100A2000044201EA03011BD0937A03F0030309B1E6
:100A300043F0040343F008039910013B91720D2B1E
:100A40000BD8DFE803F021071B070A152121150A3F
:100A5000071B0721D368013BD3605DF8044B704747
:100A6000937A03F003030029E6D043F00403E3E79D
:100A7000D3685DF8044B023BD3607047D3685DF8E0
:100A8000044B0233D3607047D3685DF8044B0133E5
:100A9000D3607047F86B0220214B10B4D3F8DC20F0
:100AA0001368506819780478507A137A044201EA7E
:100AB00003011BD0937A03F0030309B143F004034D
:100AC00043F008039910013B91720D2B0BD8DFE81E
:100AD00003F021071B070A152121150A071B07210F
:100AE000D368013BD3605DF8044B7047937A03F001
:100AF00003030029E6D043F00403E3E7D3685DF87D
:100B0000044B023BD3607047D3685DF8044B02335B
:100B1000D3607047D3685DF8044B0133D3607047EE
:100B2000F86B0220214B10B4D3F880201368506872
:100B300019780478507A137A044201EA03011BD031
:100B4000937A03F0030309B143F0040343F008036D
:100B50009910013B91720D2B0BD8DFE803F02107B0
:100B60001B070A152121150A071B0721D368013B22
:100B7000D3605DF8044B7047937A03F003030029B8
:100B8000E6D043F00403E3E7D3685DF8044B023B8F
:100B9000D3607047D3685DF8044B0233D36070476D
:100BA000D3685DF8044B0133D3607047F86B0220C3
:100BB000214B10B4D3F88420136850681978047856
:100BC000507A137A044201EA03011BD0937A03F0AE
:100BD000030309B143F0040343F008039910013BF8
:100BE00091720D2B0BD8DFE803F021071B070A15C4
:100BF0002121150A071B0721D368013BD3605DF84B
:100C0000044B7047937A03F003030029E6D043F0C6
:100C10000403E3E7D3685DF8044B023BD3607047FD
:100C2000D3685DF8044B0233D3607047D3685DF836
:100C3000044B0133D3607047F86B0220214B10B492
:100C4000D3F888201368506819780478507A137A9A
:100C5000044201EA03011BD0937A03F0030309B1B4
:100C600043F0040343F008039910013B91720D2BEC
:100C70000BD8DFE803F021071B070A152121150A0D
:100C8000071B0721D368013BD3605DF8044B704715
:100C9000937A03F003030029E6D043F00403E3E76B
:100CA000D3685DF8044B023BD3607047D3685DF8AE
:100CB000044B0233D3607047D3685DF8044B0133B3
:100CC000D3607047F86B0220214B10B4D3F88C200E
:100CD0001368506819780478507A137A044201EA4C
:100CE00003011BD0937A03F0030309B143F004031B
:100CF00043F008039910013B91720D2B0BD8DFE8EC
:100D000003F021071B070A152121150A071B0721DC
:100D1000D368013BD3605DF8044B7047937A03F0CE
:100D200003030029E6D043F00403E3E7D3685DF84A
:100D3000044B023BD3607047D3685DF8044B023329
:100D4000D3607047D3685DF8044B0133D3607047BC
:100D5000F86B0220214B10B4D3F890201368506830
:100D600019780478507A137A044201EA03011BD0FF
:100D7000937A03F0030309B143F0040343F008033B
:100D80009910013B91720D2B0BD8DFE803F021077E
:100D90001B070A152121150A071B0721D368013BF0
:100DA000D3605DF8044B7047937A03F00303002986
:100DB000E6D043F00403E3E7D3685DF8044B023B5D
:100DC000D3607047D3685DF8044B0233D36070473B
:100DD000D3685DF8044B0133D3607047F86B022091
:100DE000214B10B4D3F89420136850681978047814
:100DF000507A137A044201EA03011BD0937A03F07C
:100E0000030309B143F0040343F008039910013BC5
:100E100091720D2B0BD8DFE803F021071B070A1591
:100E20002121150A071B0721D368013BD3605DF818
:100E3000044B7047937A03F003030029E6D043F094
:100E40000403E3E7D3685DF8044B023BD3607047CB
:100E5000D3685DF8044B0233D3607047D3685DF804
:100E6000044B0133D3607047F86B0220214B10B460
:100E7000D3F898201368506819780478507A137A58
:100E8000044201EA03011BD0937A03F0030309B182
:100E900043F0040343F008039910013B91720D2BBA
:100EA0000BD8DFE803F021071B070A152121150ADB
:100EB000071B0721D368013BD3605DF8044B7047E3
:100EC000937A03F003030029E6D043F00403E3E739
:100ED000D3685DF8044B023BD3607047D3685DF87C
:100EE000044B0233D3607047D3685DF8044B013381
:100EF000D3607047F86B0220214B10B4D3F89C20CC
:100F00001368506819780478507A137A044201EA19
:100F100003011BD0937A03F0030309B143F00403E8
:100F200043F008039910013B91720D2B0BD8DFE8B9
:100F300003F021071B070A152121150A071B0721AA
:100F4000D368013BD3605DF8044B7047937A03F09C
:100F500003030029E6D043F00403E3E7D3685DF818
:100F6000044B023BD3607047D3685DF8044B0233F7
:100F7000D3607047D3685DF8044B0133D36070478A
:100F8000F86B0220214B10B4D3F8A02013685068EE
:100F900019780478507A137A044201EA03011BD0CD
:100FA000937A03F0030309B143F0040343F0080309
:100FB0009910013B91720D2B0BD8DFE803F021074C
:100FC0001B070A152121150A071B0721D368013BBE
:100FD000D3605DF8044B7047937A03F00303002954
:100FE000E6D043F00403E3E7D3685DF8044B023B2B
:100FF000D3607047D3685DF8044B0233D360704709
:10100000D3685DF8044B0133D3607047F86B02205E
:10101000214B10B4D3F8A4201368506819780478D1
:10102000507A137A044201EA03011BD0937A03F049
:10103000030309B143F0040343F008039910013B93
:1010400091720D2B0BD8DFE803F021071B070A155F
:101050002121150A071B0721D368013BD3605DF8E6
:10106000044B7047937A03F003030029E6D043F062
:101070000403E3E7D3685DF8044B023BD360704799
:10108000D3685DF8044B0233D3607047D3685DF8D2
:10109000044B0133D3607047F86B0220214B10B42E
:1010A000D3F8A8201368506819780478507A137A16
:1010B000044201EA03011BD0937A03F0030309B150
:1010C00043F0040343F008039910013B91720D2B88
:1010D0000BD8DFE803F021071B070A152121150AA9
:1010E000071B0721D368013BD3605DF8044B7047B1
:1010F000937A03F003030029E6D043F00403E3E707
:10110000D3685DF8044B023BD3607047D3685DF849
:10111000044B0233D3607047D3685DF8044B01334E
:10112000D3607047F86B0220214B10B4D3F8AC2089
:101130001368506819780478507A137A044201EAE7
:1011400003011BD0937A03F0030309B143F00403B6
:1011500043F008039910013B91720D2B0BD8DFE887
:1011600003F021071B070A152121150A071B072178
:10117000D368013BD3605DF8044B7047937A03F06A
:1011800003030029E6D043F00403E3E7D3685DF8E6
:10119000044B023BD3607047D3685DF8044B0233C5
:1011A000D3607047D3685DF8044B0133D360704758
:1011B000F86B0220214B10B4D3F8B02013685068AC
:1011C00019780478507A137A044201EA03011BD09B
:1011D000937A03F0030309B143F0040343F00803D7
:1011E0009910013B91720D2B0BD8DFE803F021071A
:1011F0001B070A152121150A071B0721D368013B8C
:10120000D3605DF8044B7047937A03F00303002921
:10121000E6D043F00403E3E7D3685DF8044B023BF8
:10122000D3607047D3685DF8044B0233D3607047D6
:10123000D3685DF8044B0133D3607047F86B02202C
:10124000214B10B4D3F8B42013685068197804788F
:10125000507A137A044201EA03011BD0937A03F017
:10126000030309B143F0040343F008039910013B61
:1012700091720D2B0BD8DFE803F021071B070A152D
:101280002121150A071B0721D368013BD3605DF8B4
:10129000044B7047937A03F003030029E6D043F030
:1012A0000403E3E7D3685DF8044B023BD360704767
:1012B000D3685DF8044B0233D3607047D3685DF8A0
:1012C000044B0133D3607047F86B0220214B10B4FC
:1012D000D3F8B8201368506819780478507A137AD4
:1012E000044201EA03011BD0937A03F0030309B11E
:1012F00043F0040343F008039910013B91720D2B56
:101300000BD8DFE803F021071B070A152121150A76
:10131000071B0721D368013BD3605DF8044B70477E
:10132000937A03F003030029E6D043F00403E3E7D4
:10133000D3685DF8044B023BD3607047D3685DF817
:10134000044B0233D3607047D3685DF8044B01331C
:10135000D3607047F86B0220214B10B4D3F8BC2047
:101360001368506819780478507A137A044201EAB5
:1013700003011BD0937A03F0030309B143F0040384
:1013800043F008039910013B91720D2B0BD8DFE855
:1013900003F021071B070A152121150A071B072146
:1013A000D368013BD3605DF8044B7047937A03F038
:1013B00003030029E6D043F00403E3E7D3685DF8B4
:1013C000044B023BD3607047D3685DF8044B023393
:1013D000D3607047D3685DF8044B0133D360704726
:1013E000F86B0220214B10B41A6813685068197802
:1013F0000478507A137A044201EA03011BD0937AED
:1014000003F0030309B143F0040343F00803991008
:10141000013B91720D2B0BD8DFE803F021071B076E
:101420000A152121150A071B0721D368013BD36048
:101430005DF8044B7047937A03F003030029E6D06C
:1014400043F00403E3E7D3685DF8044B023BD36049
:101450007047D3685DF8044B0233D3607047D3689C
:101460005DF8044B0133D360704700BFF86B022076
:10147000214B10B45A681368506819780478507A70
:10148000137A044201EA03011BD0937A03F00303A9
:1014900009B143F0040343F008039910013B917232
:1014A0000D2B0BD8DFE803F021071B070A152121BC
:1014B000150A071B0721D368013BD3605DF8044B75
:1014C0007047937A03F003030029E6D043F0040346
:1014D000E3E7D3685DF8044B023BD3607047D36801
:1014E0005DF8044B0233D3607047D3685DF8044B5A
:1014F0000133D360704700BFF86B0220214B10B45A
:101500009A681368506819780478507A137A0442FC
:1015100001EA03011BD0937A03F0030309B143F0FE
:10152000040343F008039910013B91720D2B0BD873
:10153000DFE803F021071B070A152121150A071B05
:101540000721D368013BD3605DF8044B7047937A61
:1015500003F003030029E6D043F00403E3E7D36874
:101560005DF8044B023BD3607047D3685DF8044BD1
:101570000233D3607047D3685DF8044B0133D36006
:10158000704700BFF86B0220214B10B4DA68136873
:10159000506819780478507A137A044201EA0301FA
:1015A0001BD0937A03F0030309B143F0040343F023
:1015B00008039910013B91720D2B0BD8DFE803F063
:1015C00021071B070A152121150A071B0721D368CC
:1015D000013BD3605DF8044B7047937A03F003033B
:1015E0000029E6D043F00403E3E7D3685DF8044B39
:1015F000023BD3607047D3685DF8044B0233D3607D
:101600007047D3685DF8044B0133D360704700BF67
:10161000F86B0220214B10B41A69136850681978CE
:101620000478507A137A044201EA03011BD0937ABA
:1016300003F0030309B143F0040343F008039910D6
:10164000013B91720D2B0BD8DFE803F021071B073C
:101650000A152121150A071B0721D368013BD36016
:101660005DF8044B7047937A03F003030029E6D03A
:1016700043F00403E3E7D3685DF8044B023BD36017
:101680007047D3685DF8044B0233D3607047D3686A
:101690005DF8044B0133D360704700BFF86B022044
:1016A000214B10B45A691368506819780478507A3D
:1016B000137A044201EA03011BD0937A03F0030377
:1016C00009B143F0040343F008039910013B917200
:1016D0000D2B0BD8DFE803F021071B070A1521218A
:1016E000150A071B0721D368013BD3605DF8044B43
:1016F0007047937A03F003030029E6D043F0040314
:10170000E3E7D3685DF8044B023BD3607047D368CE
:101710005DF8044B0233D3607047D3685DF8044B27
:101720000133D360704700BFF86B0220214B10B427
:101730009A691368506819780478507A137A0442C9
:1017400001EA03011BD0937A03F0030309B143F0CC
:10175000040343F008039910013B91720D2B0BD841
:10176000DFE803F021071B070A152121150A071BD3
:101770000721D368013BD3605DF8044B7047937A2F
:1017800003F003030029E6D043F00403E3E7D36842
:101790005DF8044B023BD3607047D3685DF8044B9F
:1017A0000233D3607047D3685DF8044B0133D360D4
:1017B000704700BFF86B0220214B10B4DA69136840
:1017C000506819780478507A137A044201EA0301C8
:1017D0001BD0937A03F0030309B143F0040343F0F1
:1017E00008039910013B91720D2B0BD8DFE803F031
:1017F00021071B070A152121150A071B0721D3689A
:10180000013BD3605DF8044B7047937A03F0030308
:101810000029E6D043F00403E3E7D3685DF8044B06
:10182000023BD3607047D3685DF8044B0233D3604A
:101830007047D3685DF8044B0133D360704700BF35
:10184000F86B0220214B10B41A6A1368506819789B
:101850000478507A137A044201EA03011BD0937A88
:1018600003F0030309B143F0040343F008039910A4
:10187000013B91720D2B0BD8DFE803F021071B070A
:101880000A152121150A071B0721D368013BD360E4
:101890005DF8044B7047937A03F003030029E6D008
:1018A00043F00403E3E7D3685DF8044B023BD360E5
:1018B0007047D3685DF8044B0233D3607047D36838
:1018C0005DF8044B0133D360704700BFF86B022012
:1018D000214B10B45A6A1368506819780478507A0A
:1018E000137A044201EA03011BD0937A03F0030345
:1018F00009B143F0040343F008039910013B9172CE
:101900000D2B0BD8DFE803F021071B070A15212157
:10191000150A071B0721D368013BD3605DF8044B10
:101920007047937A03F003030029E6D043F00403E1
:10193000E3E7D3685DF8044B023BD3607047D3689C
:101940005DF8044B0233D3607047D3685DF8044BF5
:101950000133D360704700BFF86B0220214B10B4F5
:101960009A6A1368506819780478507A137A044296
:1019700001EA03011BD0937A03F0030309B143F09A
:10198000040343F008039910013B91720D2B0BD80F
:10199000DFE803F021071B070A152121150A071BA1
:1019A0000721D368013BD3605DF8044B7047937AFD
:1019B00003F003030029E6D043F00403E3E7D36810
:1019C0005DF8044B023BD3607047D3685DF8044B6D
:1019D0000233D3607047D3685DF8044B0133D360A2
:1019E000704700BFF86B0220214B10B4DA6A13680D
:1019F000506819780478507A137A044201EA030196
:101A00001BD0937A03F0030309B143F0040343F0BE
:101A100008039910013B91720D2B0BD8DFE803F0FE
:101A200021071B070A152121150A071B0721D36867
:101A3000013BD3605DF8044B7047937A03F00303D6
:101A40000029E6D043F00403E3E7D3685DF8044BD4
:101A5000023BD3607047D3685DF8044B0233D36018
:101A60007047D3685DF8044B0133D360704700BF03
:101A7000F86B0220214B10B41A6B13685068197868
:101A80000478507A137A044201EA03011BD0937A56
:101A900003F0030309B143F0040343F00803991072
:101AA000013B91720D2B0BD8DFE803F021071B07D8
:101AB0000A152121150A071B0721D368013BD360B2
:101AC0005DF8044B7047937A03F003030029E6D0D6
:101AD00043F00403E3E7D3685DF8044B023BD360B3
:101AE0007047D3685DF8044B0233D3607047D36806
:101AF0005DF8044B0133D360704700BFF86B0220E0
:101B0000214B10B45A6B1368506819780478507AD6
:101B1000137A044201EA03011BD0937A03F0030312
:101B200009B143F0040343F008039910013B91729B
:101B30000D2B0BD8DFE803F021071B070A15212125
:101B4000150A071B0721D368013BD3605DF8044BDE
:101B50007047937A03F003030029E6D043F00403AF
:101B6000E3E7D3685DF8044B023BD3607047D3686A
:101B70005DF8044B0233D3607047D3685DF8044BC3
:101B80000133D360704700BFF86B0220214B10B4C3
:101B90009A6B1368506819780478507A137A044263
:101BA00001EA03011BD0937A03F0030309B143F068
:101BB000040343F008039910013B91720D2B0BD8DD
:101BC000DFE803F021071B070A152121150A071B6F
:101BD0000721D368013BD3605DF8044B7047937ACB
:101BE00003F003030029E6D043F00403E3E7D368DE
:101BF0005DF8044B023BD3607047D3685DF8044B3B
:101C00000233D3607047D3685DF8044B0133D3606F
:101C1000704700BFF86B0220214B10B4DA6B1368D9
:101C2000506819780478507A137A044201EA030163
:101C30001BD0937A03F0030309B143F0040343F08C
:101C400008039910013B91720D2B0BD8DFE803F0CC
:101C500021071B070A152121150A071B0721D36835
:101C6000013BD3605DF8044B7047937A03F00303A4
:101C70000029E6D043F00403E3E7D3685DF8044BA2
:101C8000023BD3607047D3685DF8044B0233D360E6
:101C90007047D3685DF8044B0133D360704700BFD1
:101CA000F86B0220214B10B41A6C13685068197835
:101CB0000478507A137A044201EA03011BD0937A24
:101CC00003F0030309B143F0040343F00803991040
:101CD000013B91720D2B0BD8DFE803F021071B07A6
:101CE0000A152121150A071B0721D368013BD36080
:101CF0005DF8044B7047937A03F003030029E6D0A4
:101D000043F00403E3E7D3685DF8044B023BD36080
:101D10007047D3685DF8044B0233D3607047D368D3
:101D20005DF8044B0133D360704700BFF86B0220AD
:101D3000214B10B45A6C1368506819780478507AA3
:101D4000137A044201EA03011BD0937A03F00303E0
:101D500009B143F0040343F008039910013B917269
:101D60000D2B0BD8DFE803F021071B070A152121F3
:101D7000150A071B0721D368013BD3605DF8044BAC
:101D80007047937A03F003030029E6D043F004037D
:101D9000E3E7D3685DF8044B023BD3607047D36838
:101DA0005DF8044B0233D3607047D3685DF8044B91
:101DB0000133D360704700BFF86B0220214B10B491
:101DC0009A6C1368506819780478507A137A044230
:101DD00001EA03011BD0937A03F0030309B143F036
:101DE000040343F008039910013B91720D2B0BD8AB
:101DF000DFE803F021071B070A152121150A071B3D
:101E00000721D368013BD3605DF8044B7047937A98
:101E100003F003030029E6D043F00403E3E7D368AB
:101E20005DF8044B023BD3607047D3685DF8044B08
:101E30000233D3607047D3685DF8044B0133D3603D
:101E4000704700BFF86B0220214B10B4DA6C1368A6
:101E5000506819780478507A137A044201EA030131
:101E60001BD0937A03F0030309B143F0040343F05A
:101E700008039910013B91720D2B0BD8DFE803F09A
:101E800021071B070A152121150A071B0721D36803
:101E9000013BD3605DF8044B7047937A03F0030372
:101EA0000029E6D043F00403E3E7D3685DF8044B70
:101EB000023BD3607047D3685DF8044B0233D360B4
:101EC0007047D3685DF8044B0133D360704700BF9F
:101ED000F86B0220214B10B41A6D13685068197802
:101EE0000478507A137A044201EA03011BD0937AF2
:101EF00003F0030309B143F0040343F0080399100E
:101F0000013B91720D2B0BD8DFE803F021071B0773
:101F10000A152121150A071B0721D368013BD3604D
:101F20005DF8044B7047937A03F003030029E6D071
:101F300043F00403E3E7D3685DF8044B023BD3604E
:101F40007047D3685DF8044B0233D3607047D368A1
:101F50005DF8044B0133D360704700BFF86B02207B
:101F6000214B10B45A6D1368506819780478507A70
:101F7000137A044201EA03011BD0937A03F00303AE
:101F800009B143F0040343F008039910013B917237
:101F90000D2B0BD8DFE803F021071B070A152121C1
:101FA000150A071B0721D368013BD3605DF8044B7A
:101FB0007047937A03F003030029E6D043F004034B
:101FC000E3E7D3685DF8044B023BD3607047D36806
:101FD0005DF8044B0233D3607047D3685DF8044B5F
:101FE0000133D360704700BFF86B0220214B10B45F
:101FF0009A6D1368506819780478507A137A0442FD
:1020000001EA03011BD0937A03F0030309B143F003
:10201000040343F008039910013B91720D2B0BD878
:10202000DFE803F021071B070A152121150A071B0A
:102030000721D368013BD3605DF8044B7047937A66
:1020400003F003030029E6D043F00403E3E7D36879
:102050005DF8044B023BD3607047D3685DF8044BD6
:102060000233D3607047D3685DF8044B0133D3600B
:10207000704700BFF86B0220214B10B4DA6D136873
:10208000506819780478507A137A044201EA0301FF
:102090001BD0937A03F0030309B143F0040343F028
:1020A00008039910013B91720D2B0BD8DFE803F068
:1020B00021071B070A152121150A071B0721D368D1
:1020C000013BD3605DF8044B7047937A03F0030340
:1020D0000029E6D043F00403E3E7D3685DF8044B3E
:1020E000023BD3607047D3685DF8044B0233D36082
:1020F0007047D3685DF8044B0133D360704700BF6D
:10210000F86B0220214B10B41A6E136850681978CE
:102110000478507A137A044201EA03011BD0937ABF
:1021200003F0030309B143F0040343F008039910DB
:10213000013B91720D2B0BD8DFE803F021071B0741
:102140000A152121150A071B0721D368013BD3601B
:102150005DF8044B7047937A03F003030029E6D03F
:1021600043F00403E3E7D3685DF8044B023BD3601C
:102170007047D3685DF8044B0233D3607047D3686F
:102180005DF8044B0133D360704700BFF86B022049
:10219000214B10B45A6E1368506819780478507A3D
:1021A000137A044201EA03011BD0937A03F003037C
:1021B00009B143F0040343F008039910013B917205
:1021C0000D2B0BD8DFE803F021071B070A1521218F
:1021D000150A071B0721D368013BD3605DF8044B48
:1021E0007047937A03F003030029E6D043F0040319
:1021F000E3E7D3685DF8044B023BD3607047D368D4
:102200005DF8044B0233D3607047D3685DF8044B2C
:102210000133D360704700BFF86B0220214B10B42C
:102220009A6E1368506819780478507A137A0442C9
:1022300001EA03011BD0937A03F0030309B143F0D1
:10224000040343F008039910013B91720D2B0BD846
:10225000DFE803F021071B070A152121150A071BD8
:102260000721D368013BD3605DF8044B7047937A34
:1022700003F003030029E6D043F00403E3E7D36847
:102280005DF8044B023BD3607047D3685DF8044BA4
:102290000233D3607047D3685DF8044B0133D360D9
:1022A000704700BFF86B0220214B10B4DA6E136840
:1022B000506819780478507A137A044201EA0301CD
:1022C0001BD0937A03F0030309B143F0040343F0F6
:1022D00008039910013B91720D2B0BD8DFE803F036
:1022E00021071B070A152121150A071B0721D3689F
:1022F000013BD3605DF8044B7047937A03F003030E
:102300000029E6D043F00403E3E7D3685DF8044B0B
:10231000023BD3607047D3685DF8044B0233D3604F
:102320007047D3685DF8044B0133D360704700BF3A
:10233000F86B0220214B10B41A6F1368506819789B
:102340000478507A137A044201EA03011BD0937A8D
:1023500003F0030309B143F0040343F008039910A9
:10236000013B91720D2B0BD8DFE803F021071B070F
:102370000A152121150A071B0721D368013BD360E9
:102380005DF8044B7047937A03F003030029E6D00D
:1023900043F00403E3E7D3685DF8044B023BD360EA
:1023A0007047D3685DF8044B0233D3607047D3683D
:1023B0005DF8044B0133D360704700BFF86B022017
:1023C000214B10B45A6F1368506819780478507A0A
:1023D000137A044201EA03011BD0937A03F003034A
:1023E00009B143F0040343F008039910013B9172D3
:1023F0000D2B0BD8DFE803F021071B070A1521215D
:10240000150A071B0721D368013BD3605DF8044B15
:102410007047937A03F003030029E6D043F00403E6
:10242000E3E7D3685DF8044B023BD3607047D368A1
:102430005DF8044B0233D3607047D3685DF8044BFA
:102440000133D360704700BFF86B0220214B10B4FA
:102450009A6F1368506819780478507A137A044296
:1024600001EA03011BD0937A03F0030309B143F09F
:10247000040343F008039910013B91720D2B0BD814
:10248000DFE803F021071B070A152121150A071BA6
:102490000721D368013BD3605DF8044B7047937A02
:1024A00003F003030029E6D043F00403E3E7D36815
:1024B0005DF8044B023BD3607047D3685DF8044B72
:1024C0000233D3607047D3685DF8044B0133D360A7
:1024D000704700BFF86B0220214B10B4DA6F13680D
:1024E000506819780478507A137A044201EA03019B
:1024F0001BD0937A03F0030309B143F0040343F0C4
:1025000008039910013B91720D2B0BD8DFE803F003
:1025100021071B070A152121150A071B0721D3686C
:10252000013BD3605DF8044B7047937A03F00303DB
:102530000029E6D043F00403E3E7D3685DF8044BD9
:10254000023BD3607047D3685DF8044B0233D3601D
:102550007047D3685DF8044B0133D360704700BF08
:10256000F86B0220002310B4114C41720261046028
:102570000372C36041B1194600E0026942F82310BA
:10258000427A01339A42F8DC0A4B1A680AB90CE025
:102590001A465369002BFBD15061002343618380AD
:1025A000C38083725DF8044B70471860F5E700BF85
:1025B000BC8D010068740220F8B5044615460E462D
:1025C000084602210EF0CAFB284602210EF0C6FB87
:1025D000984A994B52F83610012001F50077276090
:1025E000207252F83520607202F500770020676093
:1025F000E060013BFDD191F8003292F8002203F037
:102600000103D20744BF43F00203DBB2A3723B2EA7
:1026100000F20386DFE816F0F405EA05E005D605CA
:10262000CC05C205B805AE05A4059A05900586053A
:102630007C05720568055E0554054A0540053605AA
:102640002C05220518050E050405FA04F004E6041D
:10265000DC04D204C804BE04B304A8049D0492049C
:1026600087047C0428041E0414040A040004F603EE
:10267000EC03E203D803CE03C403BA03B003A603FA
:102680009C03920388037E0374036A0360033C0087
:102690006A4B6B49C3F8EC4004223B200EF0B6FABB
:1026A000012323743B2D00F2B585DFE815F00B0301
:1026B0000103F702ED02E302D902CF02C502BB0219
:1026C000B102A7029D02930289027F023102270212
:1026D0001D0213020902FF01F501EB01E101D7011F
:1026E000CD01C301B901AF01A5019B019101860193
:1026F0007B01700165015A014F01440139012E012E
:10270000230118010D010201F700EC00E100B800FF
:10271000AD00A20097008C00810076006B00600085
:1027200055004A003C00454B4549C3F8EC400422A3
:102730003B200EF06BFA237C0122134423742046C5
:10274000F8BD3E4B3F49C3F8E84004223A200EF062
:102750005DFA237C0122F0E7384B3B49C3F8E440A3
:10276000042239200EF052FA237C0122E5E7334B94
:102770003649C3F8E040042238200EF047FA237CA3
:102780000122DAE72D4B3249C3F8DC40042237201E
:102790000EF03CFA237C0122CFE7284B2D49C3F8E9
:1027A000D840042236200EF031FA237C0122C4E7FF
:1027B000224B2949C3F8D440042235200EF026FAD2
:1027C000237C0122B9E71D4B2449C3F8D0400422E1
:1027D00034200EF01BFA237C0122AEE7174B204970
:1027E000C3F8CC40042233200EF010FA237C0122DF
:1027F000A3E7124B1B49C3F8C840042232200EF055
:1028000005FA237C012298E70C4B1749C3F8C44012
:10281000042231200EF0FAF9237C01228DE7074BC8
:102820001249C3F8C040042230200EF0EFF9237C97
:10283000012282E774CE0100C0D40100F86B0220AF
:1028400039060000AD0500002105000095040000D8
:10285000990A00000D0A000081090000F508000037
:1028600069080000DD07000051070000C5060000F0
:10287000AC4BAD49C3F8BC4004222F200EF0C6F982
:10288000237C012259E7A74BA849C3F8B84004228A
:102890002E200EF0BBF9237C01224EE7A14BA44968
:1028A000C3F8B44004222D200EF0B0F9237C01229D
:1028B00043E79C4B9F49C3F8B04004222C200EF004
:1028C000A5F9237C012238E7964B9B49C3F8AC401D
:1028D00004222B200EF09AF9237C01222DE7914B44
:1028E0009649C3F8A84004222A200EF08FF9237CD1
:1028F000012222E78B4B9249C3F8A44004222920ED
:102900000EF084F9237C012217E7864B8D49C3F82A
:10291000A040042228200EF079F9237C01220CE744
:10292000804B8949C3F89C40042227200EF06EF9A1
:10293000237C012201E77B4B8449C3F898400422A1
:1029400026200EF063F9237C0122F6E6754B8049C0
:10295000C3F89440042225200EF058F9237C01226C
:10296000EBE6704B7B49C3F89040042224200EF024
:102970004DF9237C0122E0E66A4B7749C3F88C408D
:10298000042223200EF042F9237C0122D5E6654B78
:102990007249C3F88840042222200EF037F9237CC4
:1029A0000122CAE65F4B6E49C3F88440042221200D
:1029B0000EF02CF9237C0122BFE65A4B6949C3F87B
:1029C0008040042220200EF021F9237C0122B4E66D
:1029D000544B6549DC6704221F200EF017F9237C55
:1029E0000122AAE64F4B61499C6704221E200EF08B
:1029F0000DF9237C0122A0E64A4B5D495C67042265
:102A00001D200EF003F9237C012296E6454B59491F
:102A10001C6704221C200EF0F9F8237C01228CE6AE
:102A2000404B5549DC6604221B200EF0EFF8237C56
:102A3000012282E63B4B51499C6604221A200EF08B
:102A4000E5F8237C012278E6364B4D495C6604228A
:102A500019200EF0DBF8237C01226EE6314B494948
:102A60001C66042218200EF0D1F8237C012264E6B3
:102A70002C4B4549DC65042217200EF0C7F8237C57
:102A800001225AE6274B41499C65042216200EF08C
:102A9000BDF8237C012250E6224B3D495C650422AF
:102AA00015200EF0B3F8237C012246E61D4B394970
:102AB0001C65042214200EF0A9F8237C01223CE6B8
:102AC000184B3549DC64042213200EF09FF8237C58
:102AD000012232E6134B31499C64042212200EF08D
:102AE00095F8237C012228E60E4B2D495C640422D4
:102AF00011200EF08BF8237C01221EE6094B294998
:102B00001C64042210200EF081F8237C012214E6BC
:102B1000044B2549DC6304220F200EF077F8237C58
:102B200001220AE6F86B022059130000CD120000C2
:102B300041120000B5110000291100009D10000095
:102B400011100000850F0000F90E00006D0E00004E
:102B5000E10D0000550D0000C90C00003D0C000007
:102B6000B10B0000250B0000D92400004D2400000B
:102B7000C123000035230000A92200001D2200000F
:102B8000912100000521000079200000ED1F0000C8
:102B9000611F0000D51E0000491E0000BD1D000081
:102BA000311D0000A51C0000191C0000B34BB449E6
:102BB0009C6304220E200EF029F8237C0122BCE540
:102BC000AE4BB0495C6304220D200EF01FF8237C4D
:102BD0000122B2E5A94BAC491C6304220C200EF083
:102BE00015F8237C0122A8E5A44BA849DC62042245
:102BF0000B200EF00BF8237C01229EE59F4BA4498D
:102C00009C6204220A200EF001F8237C012294E544
:102C10009A4BA0495C62042209200DF0F7FF237C47
:102C200001228AE5954B9C491C62042208200DF084
:102C3000EDFF237C012280E5904B9849DC61042262
:102C400007200DF0E3FF237C012276E58B4B9449AE
:102C50009C61042206200DF0D9FF237C01226CE543
:102C6000864B90495C61042205200DF0CFFF237C48
:102C7000012262E5814B8C491C61042210460DF053
:102C8000C5FF237C012258E57C4B8849DC60042287
:102C900003200DF0BBFF237C01224EE5774B8449D6
:102CA0009C60042202200DF0B1FF237C012244E548
:102CB000724B80495C60042201200DF0A7FF237C49
:102CC00001223AE56D4B7C491C60042200200DF086
:102CD0009DFF237C012230E5684B7849C3F8E8402A
:102CE00004223A200DF092FF0123DAE4634B744989
:102CF000C3F8E440042239200DF088FF0123D0E41A
:102D00005E4B7049C3F8E040042238200DF07EFF8E
:102D10000123C6E4594B6C49C3F8DC400422372038
:102D20000DF074FF0123BCE4544B6849C3F8D8404C
:102D3000042236200DF06AFF0123B2E44F4B6449B0
:102D4000C3F8D440042235200DF060FF0123A8E42D
:102D50004A4B6049C3F8D040042234200DF056FF9E
:102D600001239EE4454B5C49C3F8CC400422332048
:102D70000DF04CFF012394E4404B5849C3F8C84080
:102D8000042232200DF042FF01238AE43B4B5449D8
:102D9000C3F8C440042231200DF038FF012380E441
:102DA000364B5049C3F8C040042230200DF02EFFAE
:102DB000012376E4314B4C49C3F8BC4004222F2058
:102DC0000DF024FF01236CE42C4B4849C3F8B840B4
:102DD00004222E200DF01AFF012362E4274B444900
:102DE000C3F8B44004222D200DF010FF012358E455
:102DF000224B4049C3F8B04004222C200DF006FFBE
:102E000001234EE41D4B3C49C3F8AC4004222B2067
:102E10000DF0FCFE012344E4184B3849C3F8A840E8
:102E200004222A200DF0F2FE01233AE4134B344928
:102E3000C3F8A440042229200DF0E8FE012330E469
:102E40000E4B3049C3F8A040042228200DF0DEFECE
:102E5000012326E4094B2C49C3F89C400422272077
:102E60000DF0D4FE01231CE4044B2849C3F898401C
:102E7000042226200DF0CAFE012312E4F86B022082
:102E80008D1B0000011B0000751A0000E9190000ED
:102E90005D190000D118000045180000B9170000A6
:102EA0002D170000A116000015160000891500005E
:102EB000FD14000071140000E5130000AD050000D2
:102EC0002105000095040000990A00000D0A000089
:102ED00081090000F508000069080000DD07000016
:102EE00051070000C506000059130000CD12000074
:102EF00041120000B5110000291100009D100000D2
:102F000011100000850F0000F90E00006D0E00008A
:102F1000C34BC449C3F89440042225200DF076FE2B
:102F20000123FFF7BEBBBE4BBF49C3F8904004224C
:102F300024200DF06BFE0123FFF7B3BBB84BBB4958
:102F4000C3F88C40042223200DF060FE0123FFF71C
:102F5000A8BBB34BB649C3F88840042222200DF029
:102F600055FE0123FFF79DBBAD4BB249C3F884402A
:102F7000042221200DF04AFE0123FFF792BBA84B4B
:102F8000AD49C3F88040042220200DF03FFE01230C
:102F9000FFF787BBA24BA949DC6704221F200DF075
:102FA00035FE0123FFF77DBB9D4BA5499C6704229D
:102FB0001E200DF02BFE0123FFF773BB984BA14998
:102FC0005C6704221D200DF021FE0123FFF769BB81
:102FD000934B9D491C6704221C200DF017FE012312
:102FE000FFF75FBB8E4B9949DC6604221B200DF076
:102FF0000DFE0123FFF755BB894B95499C660422C2
:103000001A200DF003FE0123FFF74BBB844B9149BF
:103010005C66042219200DF0F9FD0123FFF741BB86
:103020007F4B8D491C66042218200DF0EFFD012313
:10303000FFF737BB7A4B8949DC65042217200DF076
:10304000E5FD0123FFF72DBB754B85499C650422E7
:1030500016200DF0DBFD0123FFF723BB704B8149E8
:103060005C65042215200DF0D1FD0123FFF719BB8B
:103070006B4B7D491C65042214200DF0C7FD012314
:10308000FFF70FBB664B7949DC64042213200DF077
:10309000BDFD0123FFF705BB614B75499C6404220C
:1030A00012200DF0B3FD0123FFF7FBBA5C4B714911
:1030B0005C64042211200DF0A9FD0123FFF7F1BA91
:1030C000574B6D491C64042210200DF09FFD012315
:1030D000FFF7E7BA524B6949DC6304220F200DF079
:1030E00095FD0123FFF7DDBA4D4B65499C63042232
:1030F0000E200DF08BFD0123FFF7D3BA484B614939
:103100005C6304220D200DF081FD0123FFF7C9BA95
:10311000434B5D491C6304220C200DF077FD012315
:10312000FFF7BFBA3E4B5949DC6204220B200DF079
:103130006DFD0123FFF7B5BA394B55499C62042256
:103140000A200DF063FD0123FFF7ABBA344B514960
:103150005C62042209200DF059FD0123FFF7A1BA9A
:103160002F4B4D491C62042208200DF04FFD012316
:10317000FFF797BA2A4B4949DC61042207200DF07A
:1031800045FD0123FFF78DBA254B45499C6104227B
:1031900006200DF03BFD0123FFF783BA204B414988
:1031A0005C61042205200DF031FD0123FFF779BA9F
:1031B0001B4B3D491C61042210460DF027FD0123E5
:1031C000FFF76FBA164B3949DC60042203200DF07B
:1031D0001DFD0123FFF765BA114B35499C600422A0
:1031E00002200DF013FD0123FFF75BBA0C4B3149B0
:1031F0005C60042201200DF009FD0123FFF751BAA4
:10320000074B2D491C60042200200DF0FFFC012318
:10321000FFF747BA0022FFF790BA0023FFF741BA41
:10322000F86B0220E10D0000550D0000C90C0000F4
:103230003D0C0000B10B0000250B0000D92400005C
:103240004D240000C123000035230000A922000006
:103250001D220000912100000521000079200000BE
:10326000ED1F0000611F0000D51E0000491E000078
:10327000BD1D0000311D0000A51C0000191C000030
:103280008D1B0000011B0000751A0000E9190000E9
:103290005D190000D118000045180000B9170000A2
:1032A0002D170000A116000015160000891500005A
:1032B000FD14000071140000E513000010B592B079
:1032C000014601A80DF01EFA0023322201A805A92B
:1032D0000DF02CFA05A9054805F06EF9044601A881
:1032E0000DF0D0F9A0B212B010BD00BFAC63002049
:1032F00010B5A2B044221749044668460DF0DEFA24
:1033000044220DEB020014490DF0D8FAADF104028D
:10331000002352F8041FA14204D00133112BF8D12D
:1033200022B010BD0D490A68002AFCDB22AA02EB7C
:1033300083030B4913F8442C33F8423C013A12033F
:10334000013B02F47F22C3F30B0313430B6022B053
:1033500010BD00BFC08D0100048E010000F10240CD
:1033600004F102402DE9F04F2DED028BDFF8ECA0C7
:10337000364BDFED378A9FED378A85B0D34603930E
:103380004FF00009039B5BF8045F33F9022F0393AE
:1033900007EE902A07EE105AFAEEEF7AB8EEC77AE7
:1033A000FDEEE77A27EE287AF8EEE76A17EE904A04
:1033B000A6EE887A1FFA89F606F104084FF4FC603D
:1033C000BDEEC77A0FFA88F817EE107ABE2FD4BF79
:1033D00027EAE777BE27BE2CA8BFBE2423B25A2215
:1033E000A4B2414600901C4803F096FAC4F1BE0313
:1033F00004F15A02002441461BB212B2164800944E
:10340000053603F089FA36B24FF44873314600931B
:103410005A222BB21048ADB203F07EFAC5F1BE03BA
:1034200005F15A0209F10209009431461BB212B2A9
:10343000094803F071FAB9F1FC0F4AF8047FA1D1F1
:1034400005B0BDEC028BBDE8F08F00BF5E5C0020D4
:103450003333733FCDCC4C3DAC630020C4530020CC
:1034600070B5354C354A364990B0002508A801237F
:10347000256005F0DBFC10AA32480A9B12F8145DA7
:103480009DF8241083600573017100F10D031A305B
:1034900012F8011F03F8011B83422A49F8D10F9B40
:1034A000CB6108A805F0EAFB274E05E008A805F067
:1034B000FBFB08A805F0E2FB08A80122214905F062
:1034C00029FD08A805F0FEFB10B92368312B2DDD7E
:1034D00008A805F0D7FB0028E8D108A805F0D0FB24
:1034E000014668460DF00EF9184904A80DF00AF9D6
:1034F00004A968460DF034F9054604A80DF0C2F899
:103500001DB968460DF0BEF8D0E7236803EB43050C
:1035100003EB850308A8F51805F0B2FB0146284621
:1035200011F09AFF236801332360EAE708A805F049
:10353000A5FB10B070BD00BFCC660020F08E01006E
:103540000C6D0220D86B022034510020F48E010053
:1035500038B5064D0648074C294601220AF05CFFA3
:10356000207028460BF02EFB207038BDFC8E010029
:103570003C4C0020B4EB0120F8B51F4D2B6823B95B
:103580001E4E3268312A0BDDF8BD1D481B4E0BF074
:1035900007FB1C4A107032680023312A2B60F3DCD1
:1035A000194B1A491B681A48164F541C224634609E
:1035B00011F0C4FE002116480BF018FB0A223870E7
:1035C00013490F480AF052FF0228387008D00A2227
:1035D0000F490B480AF04AFF012338702B60F8BDF1
:1035E00007480BF0DDFA09283870F0D108480BF0D5
:1035F00023FB3870EBE700BF8C680020CC6600200E
:10360000D8630020B4EB012090680020008F0100F7
:10361000D06600202DE9F843064608F0BBFB0128E0
:103620002CDDDFF86490DFF858800025D8F8000022
:10363000134F05EB4004304608F0DEFB09EB042491
:1036400001464FF4807220460DF038F901353046BE
:1036500008F0F0FB022DE9D13B680133BF2B02D803
:103660003B60BDE8F8830022064B3A6006490748F4
:103670004FF4C0320BF076F8054B1870BDE8F883B4
:10368000D06300209C4E0020F0680020D86300200A
:10369000B4EB0120114A38B500230446104D80F8E0
:1036A000F63013700CE008F0A7FB0E4B01464FF408
:1036B00080720D480BF056F82870204608F0BAFBCF
:1036C000204608F067FB00282046ECDC06480BF09B
:1036D00067FA064B287000221A6038BD244F00207C
:1036E000B4EB01209C4E0020D86300208C680020A1
:1036F00008B50648FFF7CEFF0021054803F054FC4B
:10370000044B4FF480329A6108BD00BF606700200F
:10371000AC630020BC4E00202DE9F0418CB00DF1CF
:10372000030600250746B0462C4628460DF076F8DD
:1037300008F8010F4440082314F0010F4FEA540227
:1037400003F1FF3314BF82F08C04C4F3470413F079
:10375000FF03F1D101352B2DE7D1F4B99DF82B30C2
:10376000302B03D020460CB0BDE8F0819DF82A3004
:10377000302BF7D19DF82930302BF3D19DF828302C
:10378000302BEFD1013F0DF12F0316F8012F07F871
:10379000012F9E42F9D10120E5E718460CB0BDE8A3
:1037A000F08100BFF8B50025471E2C4617F8016FC1
:1037B0000823744014F0010F4FEA540203F1FF3361
:1037C00014BF82F08C04C4F3470413F0FF03F1D15B
:1037D00028460DF023F8864209D0314628460DF0E0
:1037E00037F828460DF01AF83B7883420FD101359F
:1037F0002A2DDBD10026214628460DF029F828463F
:103800000DF00CF884420CBF30460120F8BD0126B3
:10381000F1E700BFF0B58DB001A8FFF77DFF78B1EB
:10382000099A1A4B9DF828609DF829509DF82A4066
:103830009DF82B101E70012A5D709C70D97001D00C
:103840000DB0F0BD124C1349049F134D134B27606C
:103850000A60059F029A124E2F601A60114C039A5B
:10386000114F32609DF820609DF8212026700F4D89
:103870000F49104B079E9DF819403A709DF818208B
:103880002E600C701A700DB0F0BD00BFF45B00200C
:10389000203E002074680020703E002064660020F6
:1038A000743E0020613E0020803E00207C3E0020CF
:1038B000783E0020183E00202DE9F0412049214BA0
:1038C000214D224C224809682E6825680468214A47
:1038D000214F126897F800C0204F8EB097F800E093
:1038E000069193E80300C0F307238DF83130C0F34D
:1038F00007430B928DF83230194A1A4B1A498DF84A
:103900003000000E92F800801F7809688DF83300AF
:103910005822002303A80796049505948DF8298062
:103920008DF828C009918DF821E08DF820708DF870
:103930000C20ADF83430FFF735FF0EB0BDE8F08154
:10394000203E00200C8F0100703E002064660020A5
:10395000743E002074680020613E0020783E002004
:10396000803E0020183E00207C3E0020F8B55C4ED2
:1039700034685CB1032C5B4D28D0022C3CD0012C68
:1039800060D0042C7DD000232B62F8BD5648554DE5
:10399000564F07F05BFD564A564B11681A68EC61AA
:1039A00091424FF48033AB6104BFEB61AC61524B89
:1039B00034685248524A00211960032C4FF0010329
:1039C0004FF002013B6003601160D6D14FF480419B
:1039D0004548464F07F01EFD474B34684848474965
:1039E00000221A60AA6101234FF48032022C3B604E
:1039F00003600B60EA61C2D14FF480413A4807F09E
:103A0000F3FC404BDFED406A93F9003007EE903A4B
:103A1000F8EEE77AB7EE006A86EE277A4FF4803246
:103A20000023EA61AB61B4EEE67AF1EE10FA3BD422
:103A3000F2EE007AB4EEE77AF1EE10FA44DD4FF4DC
:103A4000002333E02848274C2B4F07F0FFFC284A7F
:103A5000284B116818684FF4803288424FF00003F9
:103A6000EB61AA6108BFE26120482549234A08BFEB
:103A7000A36101233468036000263E600B6013607D
:103A80007FE719481C4F194E1D4C07F0DFFC1B48FF
:103A9000002201234FF480313A60EA61AA61336069
:103AA000236003602962F8BD40F28F230E4F124C51
:103AB0000E481349114A3B62012300272760036027
:103AC00034680B6013605AE7DFED106ADFED107A9F
:103AD000E7EE267AFCEEE77A17EE903AE6E700BFCB
:103AE0006466002024670020846600202067002090
:103AF000B0EB0120243E002070680020906300207D
:103B0000A04E0020613E00200AD7233C00008047E1
:103B1000EE7CFF3E2DE9F04F9F49A048DFF8B092C0
:103B20008BB00CF0EFFD9E4A9E499C480FF022FBA3
:103B30001C211B2227238DE80E009B48FF23142203
:103B4000152102F089FD32222521984804F0BAFDA2
:103B500032222421964804F0B5FD232222219548E3
:103B6000FEF72AFD32222621934804F0ABFD3222D3
:103B70001D21924804F0A6FD1F221E219048FEF749
:103B80001BFD904B1A68904BC9F80030002389F850
:103B90000930C9F8103089F80830C9F80C300AB972
:103BA000B1E21A465369002BFBD1C2F814900024ED
:103BB000DFF870B2854B8648C9F81440A9F8044074
:103BC000A9F8064089F80A40C9F8003007F030FD2E
:103BD0000BF1180201215846FEF7C4FC7D4B7E48CC
:103BE0008BF8F440224621468BF8F540CBF8F040A4
:103BF0008BF8F640CBF80030FEF7B4FC764A774BF2
:103C00001360774A744E774D18324FF48043A2F117
:103C1000180002213362FEF7A5FC714A724B136053
:103C2000012005F22472684E2C7223462146EC6076
:103C30002E6068722A612C4600E0226942F8231047
:103C40006A7A684801339A42F7DC5E4B1A680AB90F
:103C50005DE21A465369002BFBD15561002463498C
:103C60002960224601234FF48071614E61486C61E6
:103C7000AC80EC80AC7285F8214785F82247C5F806
:103C800018610FF09BF94F4BDFF874811A684E49A9
:103C9000C5F81C41082385F8203788F80940C8F882
:103CA0000010C8F8104088F80840C8F80C40454B90
:103CB0000AB92EE21A465369002BFBD1C2F81480D0
:103CC0004FF0000A4C4B4D48C8F814A0A8F804A0C7
:103CD000A8F806A088F80AA0C8F8003004F0C0FFD1
:103CE0004748484C484F494E07F050FF2C4A484936
:103CF00043480FF03FFA474B012103F118021846E1
:103D0000FEF730FC434A444B1360444B042103F15B
:103D100028021846FEF726FC414B03F128021846FC
:103D20003E4B04211C604FF480349C61DC611C62BA
:103D30005C62FEF717FC3A4B324C1C6007F128021C
:103D40004FF48034042138469C61DC611C625C6263
:103D5000FEF708FC2B49BC61022006F11802FC6149
:103D60003C627C62184C396034605346514686F898
:103D700008A0C6F80CA070723261344600E02269D7
:103D800042F82310727A214801339A42F7DC0D4B36
:103D90001A68002A49D1BFE1148F0100884E002023
:103DA0000C3E002085060100AC63002094630020D7
:103DB00004E901206C660020A84E0020DC68002089
:103DC000104F002068740220BC8D0100989A0100F9
:103DD00098680020C89A0100205C0020D49A010055
:103DE00088E90120445C00208C9A01005898010069
:103DF000789801006C630020BC9A010030E9012032
:103E000018E90120A49A01002C660020B8EB0120DB
:103E10007104000084660020809A0100BC4E0020DE
:103E200024670020606700201A465369002BFBD1ED
:103E300056610024B94ABA4B7461B480F480B472FC
:103E4000B8483260059307F02BFE059BDFF82CA3E2
:103E50001C721846C3F800905F605C72DC601C74D2
:103E60000CF04EFA059BB04AB04918460FF082F9A3
:103E7000AF4B059350468AE8000A8AF808408AF852
:103E80000940CAF80C408AF810400CF039FAA64AEA
:103E9000A649DFF8ECB250460FF06CF9059BDFF84D
:103EA000E4A21C724FF001091846C3F800805F605D
:103EB000DC601C7483F809900CF022FA059B9A4A86
:103EC0009A49DFF8C48218460FF054F9994BCBF8A1
:103ED000043058468BF80840CBF800708BF8094046
:103EE000CBF80C408BF810400CF00AFA8E4A8F4940
:103EF00058460FF03FF9904BCAF8043050468AF804
:103F00000840CAF800708AF80940CAF80C408AF8DC
:103F100010400CF0F5F9844A8449DFF870B250463D
:103F20000FF028F9834B88F80840404688E82800BD
:103F300088F80940C8F80C4088F810400CF0E0F907
:103F4000794A7A497D4B059340460FF013F97C4B33
:103F5000DFF83CA2CBF8043058468BF80840CBF889
:103F600000708BF80940CBF80C408BF810400CF037
:103F7000C7F96D4A6D49DFF81C82724D58460FF043
:103F8000F9F8714BCAF8003050466D4BCAF804304E
:103F90008AF808408AF80990CAF80C408AF810405C
:103FA0000CF0AEF96149604ADFF8ECB150460FF011
:103FB000E1F8059B604A1A601846644A1C725A6010
:103FC00083F80990DC601C740CF09AF9059B564A42
:103FD0005649DFF8C8A118460FF0CCF8584BC8F87E
:103FE00000304046594BC8F8043088F8084088F83B
:103FF0000940C8F80C4088F810400CF081F94B4992
:10400000494A40460FF0B6F8022328464F4A6B72E1
:104010002C722F606A60EC602C740CF071F9424ACB
:104020004249DFF87C814A4F28460FF0A3F8474BFE
:104030008BF8084058468BE848008BF80940CBF8CD
:104040000C408BF810400CF05BF9374A3749414D72
:1040500058460FF08FF83D4B8AF8099050468AE891
:1040600048008AF80840CAF80C408AF810400CF062
:1040700047F950462C4A2D49DFF828A1364CDFF885
:1040800028910FF077F83549354B0A680792DDF82B
:104090001CB00A6808921A68089B0968DFF80CE1EE
:1040A00009911E462F4B0999DFF804C1CEF8002074
:1040B00002EB420003EB80032B4A2D68CAF800B0E4
:1040C000A1F57A71D3F808B0D3F804A0C8F800605D
:1040D000264B2748CCF800104FF00A082360C2F89E
:1040E00000A0C7F800B0C9F8005084F8088004F0B8
:1040F000B7FD0D4A1F491E480FF03CF80CF042FB7B
:104100000BB0BDE8F08F1C4BC3F800904FE5186072
:10411000A4E5C3F80080D3E518608AE6B09A0100F0
:10412000F85B0020B8EB01200C3E00208904000061
:104130000C5C0020BC4E002084660020F0E80120CA
:1041400088E90120DC5B0020205C0020246700203F
:104150005C6700207C3E0020284F0020F474022081
:10416000703E0020488E0100906800206498010095
:10417000D86B02207D8C00006874022058680020F3
:104180005CE9012070E90120C8680020F44E00209D
:10419000B468002078680020C85B00207C630020A1
:1041A000C45B0020ACEB0120C05B0020A4630020B6
:1041B000686600202DE9F0432DED028BC34CDFF83B
:1041C0008483C34D95B020464FF6E07104F076FA33
:1041D0004FF4004128230022019100932046F02350
:1041E0001146A56102F022FDD8F80030012B00F045
:1041F0005382022B00F0368214224FF400438DE8E4
:104200000C000021F0234FF48C72B04802F00EFD38
:1042100028224FF448738DE80C000021F0234FF45E
:104220009672AA4802F002FD00221146A74804F047
:1042300029FA0122A749A5480CF0A2F9A64BA348E8
:1042400093F900100CF016FAD8F80020022A00F0BA
:1042500013820222A1499D48A14C0CF091F9A14B77
:104260009A4893F900100CF005FA02229E499748EB
:104270000CF086F99D4B1D68284611F061F929461E
:10428000024692480CF07CF92368092B00F010825A
:104290000A2B00F01C820D2B00F028821422002132
:1042A0008A4804F0EFF9924B1B68042B00F2BB81A3
:1042B000DFE813F0F4000601FA0000010500042213
:1042C0008C4982480CF05CF98B4B8C4E19680BA81A
:1042D0000AF0B4FD1422B4217C4804F0D3F90C9AFE
:1042E0000D9B00920921864A05A810F0D9FF05A868
:1042F00011F026F905A9024674480CF041F9002195
:104300004FF48C72714804F0BDF933686F48012B8B
:104310000CBF4DF29A614FF6E07104F0CFF92368BB
:104320000B2B03D13268012A00F01482754F57F825
:104330002350284611F004F92946024663480CF040
:104340001FF90122704961480CF01AF92368644D85
:10435000072B00F07481082B00F03B816B4B6C4DF8
:104360001B685A48012B0CBF4DF29A614FF6E07161
:1043700004F0A4F92B6857F82300FEF79FFFC0F163
:10438000F00109B24FF48C72504804F07BF92B68AD
:1043900057F82350284611F0D3F8294602464B48D7
:1043A0000CF0EEF84FF496720021484804F06AF9D8
:1043B0004FF6E071454804F081F92368032B00F0C3
:1043C000ED80544C2378002B00F00C81012B00F081
:1043D0001281022B504C00F01D814FF6E0713B48DA
:1043E00004F06CF94D4B22784D491C784D4B052C4F
:1043F0000CBF1C460C46002A00F0A880D8F80030FC
:10440000002B40F3BC80484B484D1B68DFF83891C7
:104410009FED477AD9F80020002B1F46B8BF03F163
:10442000FF073F1207EE907A92FBF7F785FB031523
:10443000DB17FAEEEF7AC3EB6535012D87EE278A9D
:104440004FEA470717DD01244FF6E0760096052373
:1044500055221E4807EE904AF8EEE77A013467EEDF
:10446000887AFDEEE77ACDED037ABDF90C1002F003
:1044700053FAA542EAD14FF6E07300935722032383
:1044800039B2124803F058FCD8F80030012B00F084
:10449000408115B0BDEC028BBDE8F08302222549B6
:1044A0000A480CF06DF80FE70722234907480CF083
:1044B00067F809E70222214904480CF061F803E794
:1044C00007221F4901480CF05BF8FDE6AC630020B1
:1044D00080CD0100348F0100183E00203C8F010088
:1044E00070680020783E0020408F01009068002016
:1044F00064660020688F010000D003402067002020
:10450000788F0100283E0020848F010090630020F6
:10451000A04E0020B84E002014E90120603E00208B
:10452000248F01002C8F01005C670020AD8BDB68BD
:1045300000401C46508F0100608F0100548F010025
:10454000588F0100743E00207C3E00202146914897
:1045500004F032F8C0F1EB0109B24FF496728D48C5
:1045600004F090F8204610F0EBFF214602468948FF
:104570000CF006F8D8F80030002B3FF744AF552276
:104580000021844804F07EF81022834981480BF012
:10459000F7FF15B0BDEC028BBDE8F0833368012B4B
:1045A0007FF40FAF7D4C7B484FF6FF7104F086F827
:1045B0002378002B00F0E080012B00F0E480022B38
:1045C000774C7FF40AAF7749724804220BF0D8FF8A
:1045D00003E7754B1B6863BB072274496D480BF0FA
:1045E000CFFFBBE6072272496A480BF0C9FF237868
:1045F000012B7FF4EEAE6F4B1B78002B00F0828016
:1046000006226D4963480BF0BBFF2378644C022BF4
:104610007FF4E3AE2378002BD5D0042267495D48B0
:104620000BF0AEFFD9E6052265495A480BF0A8FF0A
:104630004AE60422634957480BF0A2FF8EE6624B1C
:10464000624A1B6803EB430302EB8303D3F8049035
:10465000484610F075FF494602464E480BF090FF61
:104660002B6878E60021062300930191F023542261
:10467000484802F0DBFABFE5554946480BF080FF99
:10468000544B55491B68434881FB0321DB17C3EB9F
:10469000A1110BF0EFFFDCE500211E230093204663
:1046A000F02301913C2202F0C1FAD8F80030A0E5D5
:1046B00003224A4937480BF063FF494B354893F9C9
:1046C00000100BF0D7FF23680A2B7FF4E4AD032220
:1046D000444930480BF054FF434B2E4893F90010E7
:1046E0000BF0C8FF23680D2B7FF4D8AD02223F49A1
:1046F00028480BF045FF3E4B264893F900100BF07D
:10470000B9FFCBE507223B4922480BF039FF23785C
:104710005FE6D9F80010304B374A83FB0103C91715
:10472000C1EBA31308A8092110F0BAFDA7F10A01F3
:1047300009B23C22174803F0A5FF08A810F000FFBB
:1047400008A9024613480BF01BFF15B0BDEC028B05
:10475000BDE8F083294B2A4A1B682A4F03EB430527
:1047600003EB8503D518284610F0EAFE29460246D9
:1047700008480BF005FFE9E507220D4905480BF055
:10478000FFFE237818E707221F4902480BF0F8FEC6
:10479000237814E7AC630020D08F0100A8EB012040
:1047A00014E90120A88F010074680020888F01009F
:1047B000988F0100244F0020B08F0100C08F0100AE
:1047C000708F0100908F0100703E0020488E010024
:1047D000388F01007C3E0020D34D6210448F0100D1
:1047E000613E0020488F0100803E00204C8F010078
:1047F000103E0020B88F0100C88F010084E901201D
:1048000034510020283E0020A08F0100074B10B536
:10481000012401461C60064806F060FB054B1C6045
:10482000FFF7C8FC044B00221A6010BD88E100E0CD
:10483000284F002008E100E0A8630020274B9FEDEF
:10484000286A93ED007ADFED276AB8EEC77A07EEA3
:10485000900AC6EE075AF8EEE77A67EEA57AF4EE0C
:10486000E67AF1EE10FA19DC1F4A204BC2ED007A0D
:10487000F5EEC07A0122F1EE10FA1A602BD49FED0A
:104880001C7AF4EEC77AF1EE10FA1BDD194B1A49C7
:104890001A4A01200860D361FFF78CBCC7EE065AA4
:1048A000114B1748114A0121F2EE027AE5EEA67A81
:1048B000C3ED006AFDEEE77A17EE903AF0EE667A05
:1048C000036011609FED0F7A67EE877AFCEEE77A5E
:1048D00017EE903ADBE70023D9E700BF5C670020C2
:1048E000A6552C4700E0AB461C3E002088E100E0C6
:1048F000A655AC4680FFFF7F08E100E0205C002069
:104900007C3E00204B24BE472DE9F04F2DED048B5B
:10491000B64AB74B92F900201B689FEDB66ADFEDEF
:10492000B66A07EE102A002BB8BFFF33F8EEC77A3D
:104930001B1227EE867A07EE903AF8EEE77AADF58D
:10494000077D87EE278A0EAC4FF4F07220460021D7
:10495000C6EEA78A10F048FAA84B1A68551C012D1C
:104960001D60BDEEC88AFDEEE88A00F01F81632D50
:1049700040F22481DFF8D882DFF8D0929FEDA06A60
:104980000026C446B346B64627464FF4807A022135
:10499000F2EE046A0FE0042BD8BF002300F3128369
:1049A0000131782924F8163007F1040727F8023C72
:1049B00006F102062ED03CF8023FB9EC017A03EB77
:1049C00083035B0007EE903AF8EEE77AE7EE467A6B
:1049D00077EEA67AFDEEE77A17EE903A53459E44BD
:1049E000D9DD17EE90AA8B46B3F5407FC0F2AC82BA
:1049F000B3F5C06FA8BF4FF6FF73D1DA814A82FBCF
:104A00000302A2EBE373C3F3C40343F47F4343F015
:104A1000E003C5E77C4B9FED7D7A83FB0E234FEAD5
:104A2000EE7ECEEB23139AFBF3F307EE903AF8EE0B
:104A3000E77A18EE103AF4EE477AF1EE10FA48BF32
:104A40004FF0000B5B4504DA18EE903A5B4500F33B
:104A500005816F4B1F68012F4FF0000A00F02A817B
:104A6000022F00F034816B4B6B4D93F9006018EE10
:104A7000103A5B454EDA18EE903A5B454ADD2B78EA
:104A8000002B40F00482654FDFF8CC913B680D931A
:104A9000634B0D9A1A60D9F80030012B00F0EC81BD
:104AA000604F022B3B7840F0F481002B00F0F18145
:104AB0005D4806F0CBFC4FF480415B4806F094FC67
:104AC0005A4BDFED5B6A93F9003007EE903AF8EE4F
:104AD000E77AB7EE006A86EE277AB4EEE67AF1EE70
:104AE00010FA00F12182F2EE007AB4EEE77AF1EEEC
:104AF00010FA00F32682DFED4F6ADFED4F7AE7EE22
:104B0000267AFCEEE77A17EE902A474900230A62DC
:104B10003B70BEE12B786BB1404A41491368099361
:104B2000099B12680A92454A09680A981060444A2B
:104B30005B1A13803B4F00223B782A705BB9374ADF
:104B40003749126808920968089A06EB8606521AD5
:104B5000B2EB460F09D82E4B1B68022B0FD00DF578
:104B6000077DBDEC048BBDE8F08F2F4A2B7001232D
:104B700082F842303B70264B1B68022BEFD1274B4B
:104B80002E4A1B6807931268079B2E4D9B1A312BE8
:104B900040F292812B68B3F58C7FE0DB5A232B60C7
:104BA0000DF5077DBDEC048BBDE8F08F264B002191
:104BB00003F5007243F8041B9A42FBD1234A2449AF
:104BC000DFED246A02F5FC7031F8023F92ED007AC5
:104BD00003EB83035B0007EE903AF8EEE77AA7EE6B
:104BE000A67AA2EC017A9042EED1C3E6803E002084
:104BF0005C67002000007A4400409C4794680020D5
:104C00006666663FABAAAA2ABF3CB6226666863FA6
:104C1000743E0020103E002080660020F4740220C4
:104C2000ACEB01206F3E002084660020613E002036
:104C30000AD7233C00008047EE7CFF3EC45B002087
:104C4000264F0020143E0020344F00203C4F00200F
:104C50005E5C00206F12833A64660020C54BC64A32
:104C600002930021D3ED006A8A46022338F8020F2E
:104C700092ED007A07EE900AF8EEE77A77EE877AFF
:104C8000F4EEE67AF1EE10FAE2EC017A03DDF0EEF2
:104C9000676A9A4601210133782BE7D1002940F059
:104CA000AE81B64A138801331380B54B1F68012FBC
:104CB0007FF4D6AEB34B1B68022B00F0EF80EB07FE
:104CC0003FF5D1AEFEF74EFBAD4B1F68C8E6AB4ECD
:104CD0003388322B7FF6C7AE00202D23019000933E
:104CE0000146F02330802822A74801F09FFFA14B06
:104CF000BAF1000F00F0F2801A4692ED007A0293AA
:104D0000A24BDFEDA35AF7EE007A03EB8A0377EEAE
:104D1000277A1A1D514632ED016AC6EE276AF4EE73
:104D2000E56AF1EE10FA02DD01390229F3D1DFED77
:104D3000985A03915246B3EC016AC6EE276AF4EE24
:104D4000E56AF1EE10FA40F3A7800132782AF2D139
:104D500000230493DFF82092DFED8E9A9FED8E9A68
:104D6000CDF814B00026022702E0029B93ED007AF2
:104D7000D9ED006A8448C6EE877A4FF478430FFA7B
:104D800086FB0093594667EEA97AFDEEE77A17EEA7
:104D9000905AC5F155080FFA88F82DB242462B46B5
:104DA00001F0BAFDBA4507F1010700F0C0800236F4
:104DB000782FB6B2A9EC019AD7D1784B029D1B6827
:104DC00095ED007A9FED769A6F48DDF814B0002BD0
:104DD000B8BFFF331B1207EE903AF6EE006A27EEDB
:104DE000267AF8EEE77A2D22822185ED007A27EEE9
:104DF000899A03F047FC4DF29A61634803F05EFC28
:104E0000DDED037A6048F8EEE77A67EE897AFDEE29
:104E1000E77A17EE901A0BF02DFC012261495A48EF
:104E20000BF0AEFB4FF6E071574803F047FC07EE7E
:104E300090AAF8EEE77A544867EE897AFDEEE77AB1
:104E400017EE901A0BF016FC012256494E480BF053
:104E500097FB4DF29A614C4803F030FCDDED047A8B
:104E60004948F8EEE77A67EE897AFDEEE77A17EEC1
:104E7000901A0BF0FFFBF6E53B68DFF844810C93DA
:104E80000C9AD8F80030D31AB3F57A7F2DD8464F54
:104E90003B7801222A7051E604925BE7374A434B84
:104EA0001288A3FB02139B0803EB8303D31A9BB264
:104EB000002B7FF4D8AD05E701940123B5F900205C
:104EC000314800930021F02302F046FB29882E4848
:104ED00002F0A0FA2B6801332B605CE60293039783
:104EE00093ED007ACDF810A034E72C4B304A1B68C4
:104EF000002BB8BFFF331B120BFB03F382FB031223
:104F0000DB17C3EB62134FF4FA7202FB03F3294A77
:104F100018461360FFF792FC3B680B930B9AD9F885
:104F20000030C8F80020BBE540F28F22EDE54FF6D7
:104F3000E07000902B4642465946134801F0ECFCC5
:104F400035E74FF40022E0E51B4A82FB0302D81745
:104F5000121A0292194A82FB0323029A1B1AD210D8
:104F60006FEA4252DB006FEA525203F4FC631343D0
:104F70009BB215E5A8630020B0E90120A44E0020F3
:104F8000743E002064660020AC630020A8E9012084
:104F9000CDCCCC3D00003442000000005C67002016
:104FA0006F12833A848F01006F3E0020CDCCCCCCB1
:104FB000D34D62107C3E0020ABAAAA2A5655555507
:104FC00068660020FF2B3FF70FAD0F4A82FB0302FC
:104FD0000E48029280FB032003900298DA17801A91
:104FE00002900398801A029A1B02D200C0F3C400F8
:104FF00003F4784302F4FC6203431343D0E4029BBE
:10500000C3ED006A4DE600BF56555555ABAAAA2A16
:1050100038B5104B1049114A114D00EB400003EB1D
:105020008003012498685B680B6028601460FEF7B9
:105030005FF9C8200BF098FE0A4B1868FFF7FEFBDB
:10504000094B14201C600BF08FFEBDE83840FFF7C1
:10505000B1B800BF488E01009068002088E100E0F0
:105060005C6700207C3E002008E100E010B50D48A0
:1050700006F092FD0C4A0D4B106800241C70FFF7DF
:10508000C7FF0B4A0B4B10681860FFF7D7FB0A4BA2
:105090000A491C624FF48032CC618A61DA619A61FC
:1050A00010BD00BF18E90120A463002014E901200D
:1050B000C05B00207C3E0020246700202C6600207E
:1050C0002DE9F04196B0A8B9AA4AAB49AB4B12689A
:1050D0000D681B680E21C2B9EB1848BF01F1FF3300
:1050E0008B4270DB0023002878D1A44A136016B0ED
:1050F000BDE8F0810128FAD1A14AA249A24B126869
:105100000D681B680321002AE6D0012AEFD1002D8B
:10511000EDD00446002B68D19C490A782A4452B24B
:10512000002AC0F20E815A2A1346A8BF5A2307EE5E
:10513000903A9FED976ADFED976AB8EEE77ADFED78
:10514000967A27EE067AE7EE267AFCEEE77ACDED40
:10515000037A924A0B70012616600399904805F075
:105160002DFF904B1E60DFF81482D8F80030062B1C
:1051700060D0072B48D0082B00F0B2800B2BB6D1A3
:105180007C4B1B68012B00F0CE807F4B1B68072BEC
:10519000ADD17B4B1B68012BA9D1834B1B78022B14
:1051A000A5D1824C774B22681B681344052BA8BFFE
:1051B000052323EAE37318462360FFF729FF7C4B9E
:1051C00022681A6093E77B4A1278002A8BD1A3F1F8
:1051D0000B02012A98BF0023002886D0012886D11F
:1051E000694A136016B0BDE8F081092B40F0888051
:1051F000714A13782B445BB2042B40F38E801E2B34
:10520000A8BF1E231370AEE75A4B1B68012B7FF417
:105210006EAF664A584B11681B680B440D2BA8BF34
:105220000D2323EAE37318461360FFF7F1FED8F865
:105230000030A0E7002C7FF45AAF604F604E3B680F
:105240000693069B32689B1AB3F5FA7F09D2F92BB5
:1052500000F23D81632B8BBF0A23C5EB05135D4331
:105260009D0003F0EBFB08A9284403F091FA08A87D
:1052700003F066FB0BF04CFD524C08A803F060FBFA
:1052800003F02CFC20463222502103F0FBF90022CF
:1052900014232046019200933222A023502101F0D2
:1052A000C5FC494A494B1168A3610DA809F0C6FD28
:1052B0000DA90EC90AA8019100920921444A0FF0D4
:1052C000EFFF0AA810F03CF90AA9024620460BF0AD
:1052D00057F93B680793079AD8F80030326048E7DF
:1052E000244B1B68012B7FF402AF234B39491A680A
:1052F0000868394B02441340002B26DB0B60F6E6AE
:105300000A2B27D1354A13782B445BB20E2B07DDCD
:10531000232BA8BF2323137025E70523137022E74F
:105320000F2313701FE7144A2D4910680B682D4A8C
:105330001B18126807D4013A9342A8BF13460B60AA
:1053400023E7039305E70023F9E7013B63F001033B
:105350000133D3E70D2B49D123490B782B445BB2A2
:10536000002B04DD232BA8BF23230B70FBE6134681
:105370000B70F8E6206700206C6800207068002041
:1053800090630020984E0020A04E0020783E002020
:105390000AD7233C00000143EE7CFF3E88E100E099
:1053A000284F002008E100E0B84E0020703E0020A9
:1053B000203E0020254F0020613E0020F474022092
:1053C000F05B0020AC63002000D003409CCD0100C6
:1053D000E48F01007468002001000080803E0020FE
:1053E00084E90120CC660020103E0020012B18D15A
:1053F000384A13782B445BB2002B63DB3F2BA8BFEA
:105400003F2318461370FFF701FA334A334B00204D
:105410001060002103F5007243F8041B9342FBD196
:10542000A1E6022B32D12E4F2E4E3B680493049BF3
:1054300032689B1AB3F5FA7F41D2F92B44D8642B1A
:1054400041F2883328BF4FF4FA632749274A086896
:10545000126803FB050341F6573083422CDD2448D4
:1054600080FB02E0D243D20FC2EBE0124FF47A701D
:1054700000FB02F29342A8BF134618460B60FFF7E9
:10548000DDF93B680593059B33606CE6042B03D183
:10549000114B00221A6066E6032B7FF464AE1549B7
:1054A000154A0B780133DBB2A2FB0302520802EB70
:1054B00042029B1A0B7056E641F65833DDE74FF473
:1054C000FA73C2E700239CE74FF47A73BDE705EB5C
:1054D0008505C6E6183E002094680020344F002061
:1054E000F4740220F05B00207C3E00205C6700200A
:1054F000D34D6210A8EB0120ABAAAAAAF0B5244DA7
:10550000244F254E83B0FEF737F8284600210024AB
:1055100001F080FF4FF4A0732246284621460093F5
:105520000194F02301F082FB28464DF29A6103F0CA
:10553000C5F81A4BAB6121462846642203F0A2F855
:105540000922174928460BF01BF838460FF0F8FFE0
:105550003946024628460BF013F8124BAB61FEF7B2
:1055600029FE1148114D05F071FF114A114B1249E6
:10557000946130464FF48032DC619A612C600C609B
:1055800006F014FC012386F8F63003B0F0BD00BF2E
:10559000AC630020D066002060670020B8CD010019
:1055A000F48F010080CD0100846600206466002035
:1055B000BC4E002024670020D0630020F8B5264BA5
:1055C000264E1968264B012700224FF480350B29FF
:1055D000044637709A61DD6132D00C2926D06420F0
:1055E0000BF0C2FB0D2C2046A8BF0D2020EAE07076
:1055F000FFF70EFD1B4A1C4B11681B68002928DBB6
:105600008B42A8BF0B4603EB43041849136003EB1E
:10561000840319440D22164810F000F8FEF7CAFD65
:1056200013491448BDE8F84006F0DEBA1249134B9E
:1056300009689D6102291A6204BFDD619A61CEE7A3
:105640000F480E4B0F49006808601D62DA619A61CD
:10565000C5E70023D7E700BF7068002014E90120E8
:105660002C66002084E90120CC6600203451002003
:10567000D066002018E9012064660020246700201D
:105680007C3E0020C05B002008B50A4B1B781BB194
:10569000094B93F8403003B108BDFFF7E7FC074B17
:1056A0001B78002BF8D0064B1868BDE80840FFF7C0
:1056B00085BF00BF14E9012018E9012028660020F9
:1056C000203E0020F8B5744A137C012B7BD972B6BA
:1056D000D36862B6714E724D3268002BB8BF033387
:1056E0009C10944228DD01232B600120FFF7E8FC89
:1056F0006C4A3460137C012B2BD972B6D36862B626
:10570000694E6A4F3268002BB8BF03339C10944235
:105710000DDD01233B600020FFF7D2FC2B683460D5
:105720000BB93B686BB1BDE8F840FEF743BD47DA03
:105730004FF0FF333B60EEE704DA4FF0FF332B60AE
:10574000D3E7F8BD574A346000232B60137C012B4C
:10575000D3D872B61368506819780478507A137ADF
:10576000044201EA03016FD0937A03F0030309B105
:1057700043F0040343F008039910013B91720D2B91
:10578000BCD801A151F823F09158000089580000BD
:105790008158000089580000FD560000795800002B
:1057A000915800009158000079580000FD56000003
:1057B0008958000081580000895800009158000065
:1057C00000233B60AAE772B6136850681978047822
:1057D000507A137A044201EA03012DD0937A03F040
:1057E000030309B143F0040343F008039910013B9C
:1057F00091720D2B3FF66CAF01A151F823F000BF61
:105800007158000069580000615800006958000094
:10581000D15600005958000071580000715800001E
:1058200059580000D1560000695800006158000026
:105830006958000071580000937A03F003030029AF
:10584000D4D043F00403D1E7937A03F00303002993
:1058500092D043F004038FE7D368023BD36038E76C
:10586000D3680233D36034E7D368013BD36030E7B9
:10587000D3680133D3602CE7D368023BD3603EE7A3
:10588000D3680233D3603AE7D368013BD36036E78D
:10589000D3680133D36032E76C6600200C4F0020E0
:1058A000984E0020104F0020084F00206C68002008
:1058B00070B56F4C257845B16E4802F039FF6D48E0
:1058C00002F05CFF002870D170BD6B4802F030FF21
:1058D0006A4802F02DFF674802F02AFF684802F08C
:1058E00027FF674802F04AFF70B1664B1A78002A1A
:1058F00062D1654A13680133042BC8BF00231360CB
:10590000FEF734F8FEF756FC5A4802F037FFF8B1BC
:105910005E4D2978B1B95E4E5E4B3268013283FB31
:105920000203A3EBE27303EB4303D31A022B3360AE
:1059300000F08F80012B00F083800021564801F099
:1059400033FB297802293ED0012950D0FEF732FCE2
:10595000494802F013FFC8B1504D514E2C683368CE
:10596000B4FA84F46409032B2C6037D0082B64D07C
:105970004C4B1B7843B133682C680B2B47D01CB9B8
:10598000424B1A78022A69D0FEF714FC3B4802F019
:10599000F5FE002898D0444A1368B3FA83F35B09F4
:1059A000BDE870401360FEF705BCFDF7A1FEFEF7F1
:1059B00001FC0023237070BD2E481D7002F0DEFE36
:1059C0000028C5D0A4E7394E3378D3B9384A01232B
:1059D00010683370FFF7F2FD2978B5E7314B354990
:1059E0002A4A1B7809781170002BC8D1CCE723789C
:1059F0001F4A002BAAD11170FEF7DCFBFFF77EFDDA
:105A0000A4E7FFF733FB0023297833709CE7012CD0
:105A1000224DB4D1264E284B1C4A284936681868B6
:105A20001E60022313700860FDF71AFD1E4A244B06
:105A3000146007222C681A60A1E7FDF73DFF97E785
:105A40000021154801F0E6FC0021134801F0BAFAE4
:105A500073E7114801F0B6FA33686BE7174A164945
:105A600012681C7010460A60FFF7D2FA8CE700BF7C
:105A7000244F0020A84E0020DC68002004E901200B
:105A8000946300206E3E002064660020B84E002023
:105A9000743E002056555555AC6300202067002009
:105AA00070680020254F00209063002014E9012039
:105AB000203E0020A8EB0120703E0020A4630020BF
:105AC000A04E002070B5294C2378012B8EB047D012
:105AD000022B3ED0FFF7ECFE254B1C786CB3254B18
