:1000000000000320D1010000D92501009125010045
:100010009125010091250100912501009125010004
:10002000912501009125010091250100D9250100AC
:10003000D925010091250100CD3A0100D13B0100F5
:10004000D9250100D9250100D9250100D9250100B4
:10005000D9250100D9250100D9250100D9250100A4
:10006000D9250100D9250100D9250100D925010094
:10007000D9250100D9250100D9250100D925010084
:10008000D9250100D9250100D9250100D925010074
:10009000D9250100D9250100D9250100D925010064
:1000A0004D55010059550100D9250100D925010000
:1000B000D9250100D9250100D9250100193C0100ED
:1000C000D9250100453D0100D9250100713E0100FF
:1000D000D9250100693F0100D9250100D92501007A
:1000E000D9250100D9250100D9250100D925010014
:1000F000D9250100D9250100D9250100D925010004
:10010000D9250100D9250100D9250100D9250100F3
:10011000D9250100652C0100D9250100D925010050
:10012000D9250100D9250100D9250100D9250100D3
:10013000D9250100D9250100D9250100D9250100C3
:10014000B91A0100D925010061400100D92501003B
:10015000D9250100D9250100D9250100D9250100A3
:10016000D9250100D925010065550100D9250100D7
:10017000D9250100D9250100D9250100D925010083
:10018000D9250100D9250100D9250100D925010073
:10019000D9250100D925010059410100D9250100C7
:1001A000D9250100D9250100D9250100D925010053
:1001B000D9250100D9250100D9250100D925010043
:1001C000D9250100D9250100D9250100D925010033
:1001D0005C4B4CF2205210B51A804DF628121A8052
:1001E00000BF00BF12F0FCF9574B4FF030621A60AD
:1001F000564A9A60564ADA60564B4FF470021A60BB
:10020000554B564A1A60564A136813F4807304D14A
:1002100054490B604FF4A8531360534B1A781107DD
:1002200003D51A7842F008021A70504B5049AA229E
:100230001A70504A504B8B4204D252F8040F43F8C4
:10024000040BF8E74D4B4E4900228B4202D243F893
:10025000042BFAE74B494C4A002352F8230041F89B
:1002600023000133742BF8D1484B494A802103F80D
:10027000011B9342FBD1474B424A1A60464B8A22EC
:100280001A70A3F5805324225A70A0221A709A790A
:100290009207FCD59A79D406FCD4404A937903F0AE
:1002A0000C03082BFAD13E4B60221A7002331A78E5
:1002B000802AFCD1394B01221A715D225A719A7938
:1002C0009006FCD59979354A4906FBD5354B364918
:1002D00019600021596020231370937903F00C03F7
:1002E0000C2BFAD1314B324A1A60324B324A1A6027
:1002F00000225A60072243F8042C304AC3F80C2D20
:1003000062B612F053FB174B1B68DA0705D52C4871
:1003100012F0CEFA2B4B2C4A1A602C4B1B785B0642
:1003200009D5284C284B22689A4204D1244812F05F
:10033000BFFA0023236015F01FFF12F057F912F0E7
:1003400085F8FEE70E20054030800440823F04001F
:100350000100002B88ED00E0002008E0030000858C
:1003600010D0034014D0034002D0074000E0074003
:10037000704C0020FCDF0200303D0020704C00205B
:100380001CAA0220003800200000000000E400E069
:1003900064E400E008ED00E0005006400040064044
:1003A00001E007404480044000000602048004404D
:1003B000C010070014E000E01FBF02000000202072
:1003C000E7335E5D1CE00340A5C3945A00F007408C
:1003D000FFFFFFFFFFFFFFFFFFFFFFFFFFFFFFFF2D
:1003E000FFFFFFFFFFFFFFFFFFFFFFFFFFFFFFFF1D
:1003F000FFFFFFFFFFFFFFFFFFFFFFFFFFFFFFFF0D
:10040000FFFFFFFFFFFFFFFFFFFFFFFFDEF9FFFF23
:1004100010B5054C237833B9044B13B10448AFF33E
:1004200000800123237010BD704C002000000000EC
:10043000F8DF0200084B10B51BB108490848AFF3BC
:1004400000800848036803B910BD074B002BFBD0A0
:10045000BDE81040184700BF00000000744C0020A9
:10046000F8DF0200704C00200000000012F01ABA01
:1004700010B5044B044640F8183B06F0FDF9204641
:1004800010BD00BF00B3010010B5044611F0CCFA56
:10049000204610BD214B10B41A68136850681978B3
:1004A0000478507A137A044201EA03011BD0937A4C
:1004B00003F0030309B143F0040343F00803991068
:1004C000013B91720D2B0BD8DFE803F021071B07CE
:1004D0000A152121150A071B0721D368013BD360A8
:1004E0005DF8044B7047937A03F003030029E6D0CC
:1004F00043F00403E3E7D3685DF8044B023BD360A9
:100500007047D3685DF8044B0233D3607047D368FB
:100510005DF8044B0133D360704700BF7C9F02201D
:10052000214B10B45A681368506819780478507ACF
:10053000137A044201EA03011BD0937A03F0030308
:1005400009B143F0040343F008039910013B917291
:100550000D2B0BD8DFE803F021071B070A1521211B
:10056000150A071B0721D368013BD3605DF8044BD4
:100570007047937A03F003030029E6D043F00403A5
:10058000E3E7D3685DF8044B023BD3607047D36860
:100590005DF8044B0233D3607047D3685DF8044BB9
:1005A0000133D360704700BF7C9F0220214B10B401
:1005B0009A681368506819780478507A137A04425C
:1005C00001EA03011BD0937A03F0030309B143F05E
:1005D000040343F008039910013B91720D2B0BD8D3
:1005E000DFE803F021071B070A152121150A071B65
:1005F0000721D368013BD3605DF8044B7047937AC1
:1006000003F003030029E6D043F00403E3E7D368D3
:100610005DF8044B023BD3607047D3685DF8044B30
:100620000233D3607047D3685DF8044B0133D36065
:10063000704700BF7C9F0220214B10B4D3F8CC2020
:100640001368506819780478507A137A044201EAE2
:1006500003011BD0937A03F0030309B143F00403B1
:1006600043F008039910013B91720D2B0BD8DFE882
:1006700003F021071B070A152121150A071B072173
:10068000D368013BD3605DF8044B7047937A03F065
:1006900003030029E6D043F00403E3E7D3685DF8E1
:1006A000044B023BD3607047D3685DF8044B0233C0
:1006B000D3607047D3685DF8044B0133D360704753
:1006C0007C9F0220214B10B4D3F8D02013685068CF
:1006D00019780478507A137A044201EA03011BD096
:1006E000937A03F0030309B143F0040343F00803D2
:1006F0009910013B91720D2B0BD8DFE803F0210715
:100700001B070A152121150A071B0721D368013B86
:10071000D3605DF8044B7047937A03F0030300291C
:10072000E6D043F00403E3E7D3685DF8044B023BF3
:10073000D3607047D3685DF8044B0233D3607047D1
:10074000D3685DF8044B0133D36070477C9F02206F
:10075000214B10B4D3F8D42013685068197804786A
:10076000507A137A044201EA03011BD0937A03F012
:10077000030309B143F0040343F008039910013B5C
:1007800091720D2B0BD8DFE803F021071B070A1528
:100790002121150A071B0721D368013BD3605DF8AF
:1007A000044B7047937A03F003030029E6D043F02B
:1007B0000403E3E7D3685DF8044B023BD360704762
:1007C000D3685DF8044B0233D3607047D3685DF89B
:1007D000044B0133D36070477C9F0220214B10B43F
:1007E000D3F8D8201368506819780478507A137AAF
:1007F000044201EA03011BD0937A03F0030309B119
:1008000043F0040343F008039910013B91720D2B50
:100810000BD8DFE803F021071B070A152121150A71
:10082000071B0721D368013BD3605DF8044B704779
:10083000937A03F003030029E6D043F00403E3E7CF
:10084000D3685DF8044B023BD3607047D3685DF812
:10085000044B0233D3607047D3685DF8044B013317
:10086000D36070477C9F0220214B10B4D3F8DC206A
:100870001368506819780478507A137A044201EAB0
:1008800003011BD0937A03F0030309B143F004037F
:1008900043F008039910013B91720D2B0BD8DFE850
:1008A00003F021071B070A152121150A071B072141
:1008B000D368013BD3605DF8044B7047937A03F033
:1008C00003030029E6D043F00403E3E7D3685DF8AF
:1008D000044B023BD3607047D3685DF8044B02338E
:1008E000D3607047D3685DF8044B0133D360704721
:1008F0007C9F0220214B10B4D3F8E020136850688D
:1009000019780478507A137A044201EA03011BD063
:10091000937A03F0030309B143F0040343F008039F
:100920009910013B91720D2B0BD8DFE803F02107E2
:100930001B070A152121150A071B0721D368013B54
:10094000D3605DF8044B7047937A03F003030029EA
:10095000E6D043F00403E3E7D3685DF8044B023BC1
:10096000D3607047D3685DF8044B0233D36070479F
:10097000D3685DF8044B0133D36070477C9F02203D
:10098000214B10B4D3F8E420136850681978047828
:10099000507A137A044201EA03011BD0937A03F0E0
:1009A000030309B143F0040343F008039910013B2A
:1009B00091720D2B0BD8DFE803F021071B070A15F6
:1009C0002121150A071B0721D368013BD3605DF87D
:1009D000044B7047937A03F003030029E6D043F0F9
:1009E0000403E3E7D3685DF8044B023BD360704730
:1009F000D3685DF8044B0233D3607047D3685DF869
:100A0000044B0133D36070477C9F0220214B10B40C
:100A1000D3F8E8201368506819780478507A137A6C
:100A2000044201EA03011BD0937A03F0030309B1E6
:100A300043F0040343F008039910013B91720D2B1E
:100A40000BD8DFE803F021071B070A152121150A3F
:100A5000071B0721D368013BD3605DF8044B704747
:100A6000937A03F003030029E6D043F00403E3E79D
:100A7000D3685DF8044B023BD3607047D3685DF8E0
:100A8000044B0233D3607047D3685DF8044B0133E5
:100A9000D36070477C9F0220214B10B4D3F8EC2028
:100AA0001368506819780478507A137A044201EA7E
:100AB00003011BD0937A03F0030309B143F004034D
:100AC00043F008039910013B91720D2B0BD8DFE81E
:100AD00003F021071B070A152121150A071B07210F
:100AE000D368013BD3605DF8044B7047937A03F001
:100AF00003030029E6D043F00403E3E7D3685DF87D
:100B0000044B023BD3607047D3685DF8044B02335B
:100B1000D3607047D3685DF8044B0133D3607047EE
:100B20007C9F0220214B10B4DA6813685068197852
:100B30000478507A137A044201EA03011BD0937AB5
:100B400003F0030309B143F0040343F008039910D1
:100B5000013B91720D2B0BD8DFE803F021071B0737
:100B60000A152121150A071B0721D368013BD36011
:100B70005DF8044B7047937A03F003030029E6D035
:100B800043F00403E3E7D3685DF8044B023BD36012
:100B90007047D3685DF8044B0233D3607047D36865
:100BA0005DF8044B0133D360704700BF7C9F022087
:100BB000214B10B41A691368506819780478507A78
:100BC000137A044201EA03011BD0937A03F0030372
:100BD00009B143F0040343F008039910013B9172FB
:100BE0000D2B0BD8DFE803F021071B070A15212185
:100BF000150A071B0721D368013BD3605DF8044B3E
:100C00007047937A03F003030029E6D043F004030E
:100C1000E3E7D3685DF8044B023BD3607047D368C9
:100C20005DF8044B0233D3607047D3685DF8044B22
:100C30000133D360704700BF7C9F0220214B10B46A
:100C40005A691368506819780478507A137A044204
:100C500001EA03011BD0937A03F0030309B143F0C7
:100C6000040343F008039910013B91720D2B0BD83C
:100C7000DFE803F021071B070A152121150A071BCE
:100C80000721D368013BD3605DF8044B7047937A2A
:100C900003F003030029E6D043F00403E3E7D3683D
:100CA0005DF8044B023BD3607047D3685DF8044B9A
:100CB0000233D3607047D3685DF8044B0133D360CF
:100CC000704700BF7C9F0220214B10B49A691368C3
:100CD000506819780478507A137A044201EA0301C3
:100CE0001BD0937A03F0030309B143F0040343F0EC
:100CF00008039910013B91720D2B0BD8DFE803F02C
:100D000021071B070A152121150A071B0721D36894
:100D1000013BD3605DF8044B7047937A03F0030303
:100D20000029E6D043F00403E3E7D3685DF8044B01
:100D3000023BD3607047D3685DF8044B0233D36045
:100D40007047D3685DF8044B0133D360704700BF30
:100D50007C9F0220214B10B4DA691368506819781F
:100D60000478507A137A044201EA03011BD0937A83
:100D700003F0030309B143F0040343F0080399109F
:100D8000013B91720D2B0BD8DFE803F021071B0705
:100D90000A152121150A071B0721D368013BD360DF
:100DA0005DF8044B7047937A03F003030029E6D003
:100DB00043F00403E3E7D3685DF8044B023BD360E0
:100DC0007047D3685DF8044B0233D3607047D36833
:100DD0005DF8044B0133D360704700BF7C9F022055
:100DE000214B10B41A6A1368506819780478507A45
:100DF000137A044201EA03011BD0937A03F0030340
:100E000009B143F0040343F008039910013B9172C8
:100E10000D2B0BD8DFE803F021071B070A15212152
:100E2000150A071B0721D368013BD3605DF8044B0B
:100E30007047937A03F003030029E6D043F00403DC
:100E4000E3E7D3685DF8044B023BD3607047D36897
:100E50005DF8044B0233D3607047D3685DF8044BF0
:100E60000133D360704700BF7C9F0220214B10B438
:100E70005A6A1368506819780478507A137A0442D1
:100E800001EA03011BD0937A03F0030309B143F095
:100E9000040343F008039910013B91720D2B0BD80A
:100EA000DFE803F021071B070A152121150A071B9C
:100EB0000721D368013BD3605DF8044B7047937AF8
:100EC00003F003030029E6D043F00403E3E7D3680B
:100ED0005DF8044B023BD3607047D3685DF8044B68
:100EE0000233D3607047D3685DF8044B0133D3609D
:100EF000704700BF7C9F0220214B10B49A6A136890
:100F0000506819780478507A137A044201EA030190
:100F10001BD0937A03F0030309B143F0040343F0B9
:100F200008039910013B91720D2B0BD8DFE803F0F9
:100F300021071B070A152121150A071B0721D36862
:100F4000013BD3605DF8044B7047937A03F00303D1
:100F50000029E6D043F00403E3E7D3685DF8044BCF
:100F6000023BD3607047D3685DF8044B0233D36013
:100F70007047D3685DF8044B0133D360704700BFFE
:100F80007C9F0220214B10B4DA6A136850681978EC
:100F90000478507A137A044201EA03011BD0937A51
:100FA00003F0030309B143F0040343F0080399106D
:100FB000013B91720D2B0BD8DFE803F021071B07D3
:100FC0000A152121150A071B0721D368013BD360AD
:100FD0005DF8044B7047937A03F003030029E6D0D1
:100FE00043F00403E3E7D3685DF8044B023BD360AE
:100FF0007047D3685DF8044B0233D3607047D36801
:101000005DF8044B0133D360704700BF7C9F022022
:10101000214B10B41A6B1368506819780478507A11
:10102000137A044201EA03011BD0937A03F003030D
:1010300009B143F0040343F008039910013B917296
:101040000D2B0BD8DFE803F021071B070A15212120
:10105000150A071B0721D368013BD3605DF8044BD9
:101060007047937A03F003030029E6D043F00403AA
:10107000E3E7D3685DF8044B023BD3607047D36865
:101080005DF8044B0233D3607047D3685DF8044BBE
:101090000133D360704700BF7C9F0220214B10B406
:1010A0005A6B1368506819780478507A137A04429E
:1010B00001EA03011BD0937A03F0030309B143F063
:1010C000040343F008039910013B91720D2B0BD8D8
:1010D000DFE803F021071B070A152121150A071B6A
:1010E0000721D368013BD3605DF8044B7047937AC6
:1010F00003F003030029E6D043F00403E3E7D368D9
:101100005DF8044B023BD3607047D3685DF8044B35
:101110000233D3607047D3685DF8044B0133D3606A
:10112000704700BF7C9F0220214B10B49A6B13685C
:10113000506819780478507A137A044201EA03015E
:101140001BD0937A03F0030309B143F0040343F087
:1011500008039910013B91720D2B0BD8DFE803F0C7
:1011600021071B070A152121150A071B0721D36830
:10117000013BD3605DF8044B7047937A03F003039F
:101180000029E6D043F00403E3E7D3685DF8044B9D
:10119000023BD3607047D3685DF8044B0233D360E1
:1011A0007047D3685DF8044B0133D360704700BFCC
:1011B0007C9F0220214B10B4DA6B136850681978B9
:1011C0000478507A137A044201EA03011BD0937A1F
:1011D00003F0030309B143F0040343F0080399103B
:1011E000013B91720D2B0BD8DFE803F021071B07A1
:1011F0000A152121150A071B0721D368013BD3607B
:101200005DF8044B7047937A03F003030029E6D09E
:1012100043F00403E3E7D3685DF8044B023BD3607B
:101220007047D3685DF8044B0233D3607047D368CE
:101230005DF8044B0133D360704700BF7C9F0220F0
:10124000214B10B41A6C1368506819780478507ADE
:10125000137A044201EA03011BD0937A03F00303DB
:1012600009B143F0040343F008039910013B917264
:101270000D2B0BD8DFE803F021071B070A152121EE
:10128000150A071B0721D368013BD3605DF8044BA7
:101290007047937A03F003030029E6D043F0040378
:1012A000E3E7D3685DF8044B023BD3607047D36833
:1012B0005DF8044B0233D3607047D3685DF8044B8C
:1012C0000133D360704700BF7C9F0220214B10B4D4
:1012D0005A6C1368506819780478507A137A04426B
:1012E00001EA03011BD0937A03F0030309B143F031
:1012F000040343F008039910013B91720D2B0BD8A6
:10130000DFE803F021071B070A152121150A071B37
:101310000721D368013BD3605DF8044B7047937A93
:1013200003F003030029E6D043F00403E3E7D368A6
:101330005DF8044B023BD3607047D3685DF8044B03
:101340000233D3607047D3685DF8044B0133D36038
:10135000704700BF7C9F0220214B10B49A6C136829
:10136000506819780478507A137A044201EA03012C
:101370001BD0937A03F0030309B143F0040343F055
:1013800008039910013B91720D2B0BD8DFE803F095
:1013900021071B070A152121150A071B0721D368FE
:1013A000013BD3605DF8044B7047937A03F003036D
:1013B0000029E6D043F00403E3E7D3685DF8044B6B
:1013C000023BD3607047D3685DF8044B0233D360AF
:1013D0007047D3685DF8044B0133D360704700BF9A
:1013E0007C9F0220214B10B4DA6C13685068197886
:1013F0000478507A137A044201EA03011BD0937AED
:1014000003F0030309B143F0040343F00803991008
:10141000013B91720D2B0BD8DFE803F021071B076E
:101420000A152121150A071B0721D368013BD36048
:101430005DF8044B7047937A03F003030029E6D06C
:1014400043F00403E3E7D3685DF8044B023BD36049
:101450007047D3685DF8044B0233D3607047D3689C
:101460005DF8044B0133D360704700BF7C9F0220BE
:10147000214B10B41A6D1368506819780478507AAB
:10148000137A044201EA03011BD0937A03F00303A9
:1014900009B143F0040343F008039910013B917232
:1014A0000D2B0BD8DFE803F021071B070A152121BC
:1014B000150A071B0721D368013BD3605DF8044B75
:1014C0007047937A03F003030029E6D043F0040346
:1014D000E3E7D3685DF8044B023BD3607047D36801
:1014E0005DF8044B0233D3607047D3685DF8044B5A
:1014F0000133D360704700BF7C9F0220214B10B4A2
:101500005A6D1368506819780478507A137A044237
:1015100001EA03011BD0937A03F0030309B143F0FE
:10152000040343F008039910013B91720D2B0BD873
:10153000DFE803F021071B070A152121150A071B05
:101540000721D368013BD3605DF8044B7047937A61
:1015500003F003030029E6D043F00403E3E7D36874
:101560005DF8044B023BD3607047D3685DF8044BD1
:101570000233D3607047D3685DF8044B0133D36006
:10158000704700BF7C9F0220214B10B49A6D1368F6
:10159000506819780478507A137A044201EA0301FA
:1015A0001BD0937A03F0030309B143F0040343F023
:1015B00008039910013B91720D2B0BD8DFE803F063
:1015C00021071B070A152121150A071B0721D368CC
:1015D000013BD3605DF8044B7047937A03F003033B
:1015E0000029E6D043F00403E3E7D3685DF8044B39
:1015F000023BD3607047D3685DF8044B0233D3607D
:101600007047D3685DF8044B0133D360704700BF67
:101610007C9F0220214B10B4DA6D13685068197852
:101620000478507A137A044201EA03011BD0937ABA
:1016300003F0030309B143F0040343F008039910D6
:10164000013B91720D2B0BD8DFE803F021071B073C
:101650000A152121150A071B0721D368013BD36016
:101660005DF8044B7047937A03F003030029E6D03A
:1016700043F00403E3E7D3685DF8044B023BD36017
:101680007047D3685DF8044B0233D3607047D3686A
:101690005DF8044B0133D360704700BF7C9F02208C
:1016A000214B10B41A6E1368506819780478507A78
:1016B000137A044201EA03011BD0937A03F0030377
:1016C00009B143F0040343F008039910013B917200
:1016D0000D2B0BD8DFE803F021071B070A1521218A
:1016E000150A071B0721D368013BD3605DF8044B43
:1016F0007047937A03F003030029E6D043F0040314
:10170000E3E7D3685DF8044B023BD3607047D368CE
:101710005DF8044B0233D3607047D3685DF8044B27
:101720000133D360704700BF7C9F0220214B10B46F
:101730005A6E1368506819780478507A137A044204
:1017400001EA03011BD0937A03F0030309B143F0CC
:10175000040343F008039910013B91720D2B0BD841
:10176000DFE803F021071B070A152121150A071BD3
:101770000721D368013BD3605DF8044B7047937A2F
:1017800003F003030029E6D043F00403E3E7D36842
:101790005DF8044B023BD3607047D3685DF8044B9F
:1017A0000233D3607047D3685DF8044B0133D360D4
:1017B000704700BF7C9F0220214B10B49A6E1368C3
:1017C000506819780478507A137A044201EA0301C8
:1017D0001BD0937A03F0030309B143F0040343F0F1
:1017E00008039910013B91720D2B0BD8DFE803F031
:1017F00021071B070A152121150A071B0721D3689A
:10180000013BD3605DF8044B7047937A03F0030308
:101810000029E6D043F00403E3E7D3685DF8044B06
:10182000023BD3607047D3685DF8044B0233D3604A
:101830007047D3685DF8044B0133D360704700BF35
:101840007C9F0220214B10B4DA6E1368506819781F
:101850000478507A137A044201EA03011BD0937A88
:1018600003F0030309B143F0040343F008039910A4
:10187000013B91720D2B0BD8DFE803F021071B070A
:101880000A152121150A071B0721D368013BD360E4
:101890005DF8044B7047937A03F003030029E6D008
:1018A00043F00403E3E7D3685DF8044B023BD360E5
:1018B0007047D3685DF8044B0233D3607047D36838
:1018C0005DF8044B0133D360704700BF7C9F02205A
:1018D000214B10B41A6F1368506819780478507A45
:1018E000137A044201EA03011BD0937A03F0030345
:1018F00009B143F0040343F008039910013B9172CE
:101900000D2B0BD8DFE803F021071B070A15212157
:10191000150A071B0721D368013BD3605DF8044B10
:101920007047937A03F003030029E6D043F00403E1
:10193000E3E7D3685DF8044B023BD3607047D3689C
:101940005DF8044B0233D3607047D3685DF8044BF5
:101950000133D360704700BF7C9F0220214B10B43D
:101960005A6F1368506819780478507A137A0442D1
:1019700001EA03011BD0937A03F0030309B143F09A
:10198000040343F008039910013B91720D2B0BD80F
:10199000DFE803F021071B070A152121150A071BA1
:1019A0000721D368013BD3605DF8044B7047937AFD
:1019B00003F003030029E6D043F00403E3E7D36810
:1019C0005DF8044B023BD3607047D3685DF8044B6D
:1019D0000233D3607047D3685DF8044B0133D360A2
:1019E000704700BF7C9F0220214B10B49A6F136890
:1019F000506819780478507A137A044201EA030196
:101A00001BD0937A03F0030309B143F0040343F0BE
:101A100008039910013B91720D2B0BD8DFE803F0FE
:101A200021071B070A152121150A071B0721D36867
:101A3000013BD3605DF8044B7047937A03F00303D6
:101A40000029E6D043F00403E3E7D3685DF8044BD4
:101A5000023BD3607047D3685DF8044B0233D36018
:101A60007047D3685DF8044B0133D360704700BF03
:101A70007C9F0220214B10B4DA6F136850681978EC
:101A80000478507A137A044201EA03011BD0937A56
:101A900003F0030309B143F0040343F00803991072
:101AA000013B91720D2B0BD8DFE803F021071B07D8
:101AB0000A152121150A071B0721D368013BD360B2
:101AC0005DF8044B7047937A03F003030029E6D0D6
:101AD00043F00403E3E7D3685DF8044B023BD360B3
:101AE0007047D3685DF8044B0233D3607047D36806
:101AF0005DF8044B0133D360704700BF7C9F022028
:101B0000214B10B4D3F880201368506819780478FA
:101B1000507A137A044201EA03011BD0937A03F04E
:101B2000030309B143F0040343F008039910013B98
:101B300091720D2B0BD8DFE803F021071B070A1564
:101B40002121150A071B0721D368013BD3605DF8EB
:101B5000044B7047937A03F003030029E6D043F067
:101B60000403E3E7D3685DF8044B023BD36070479E
:101B7000D3685DF8044B0233D3607047D3685DF8D7
:101B8000044B0133D36070477C9F0220214B10B47B
:101B9000D3F884201368506819780478507A137A3F
:101BA000044201EA03011BD0937A03F0030309B155
:101BB00043F0040343F008039910013B91720D2B8D
:101BC0000BD8DFE803F021071B070A152121150AAE
:101BD000071B0721D368013BD3605DF8044B7047B6
:101BE000937A03F003030029E6D043F00403E3E70C
:101BF000D3685DF8044B023BD3607047D3685DF84F
:101C0000044B0233D3607047D3685DF8044B013353
:101C1000D36070477C9F0220214B10B4D3F88820FA
:101C20001368506819780478507A137A044201EAEC
:101C300003011BD0937A03F0030309B143F00403BB
:101C400043F008039910013B91720D2B0BD8DFE88C
:101C500003F021071B070A152121150A071B07217D
:101C6000D368013BD3605DF8044B7047937A03F06F
:101C700003030029E6D043F00403E3E7D3685DF8EB
:101C8000044B023BD3607047D3685DF8044B0233CA
:101C9000D3607047D3685DF8044B0133D36070475D
:101CA0007C9F0220214B10B4D3F88C20136850681D
:101CB00019780478507A137A044201EA03011BD0A0
:101CC000937A03F0030309B143F0040343F00803DC
:101CD0009910013B91720D2B0BD8DFE803F021071F
:101CE0001B070A152121150A071B0721D368013B91
:101CF000D3605DF8044B7047937A03F00303002927
:101D0000E6D043F00403E3E7D3685DF8044B023BFD
:101D1000D3607047D3685DF8044B0233D3607047DB
:101D2000D3685DF8044B0133D36070477C9F022079
:101D3000214B10B4D3F890201368506819780478B8
:101D4000507A137A044201EA03011BD0937A03F01C
:101D5000030309B143F0040343F008039910013B66
:101D600091720D2B0BD8DFE803F021071B070A1532
:101D70002121150A071B0721D368013BD3605DF8B9
:101D8000044B7047937A03F003030029E6D043F035
:101D90000403E3E7D3685DF8044B023BD36070476C
:101DA000D3685DF8044B0233D3607047D3685DF8A5
:101DB000044B0133D36070477C9F0220214B10B449
:101DC000D3F894201368506819780478507A137AFD
:101DD000044201EA03011BD0937A03F0030309B123
:101DE00043F0040343F008039910013B91720D2B5B
:101DF0000BD8DFE803F021071B070A152121150A7C
:101E0000071B0721D368013BD3605DF8044B704783
:101E1000937A03F003030029E6D043F00403E3E7D9
:101E2000D3685DF8044B023BD3607047D3685DF81C
:101E3000044B0233D3607047D3685DF8044B013321
:101E4000D36070477C9F0220214B10B4D3F89820B8
:101E50001368506819780478507A137A044201EABA
:101E600003011BD0937A03F0030309B143F0040389
:101E700043F008039910013B91720D2B0BD8DFE85A
:101E800003F021071B070A152121150A071B07214B
:101E9000D368013BD3605DF8044B7047937A03F03D
:101EA00003030029E6D043F00403E3E7D3685DF8B9
:101EB000044B023BD3607047D3685DF8044B023398
:101EC000D3607047D3685DF8044B0133D36070472B
:101ED0007C9F0220214B10B4D3F89C2013685068DB
:101EE00019780478507A137A044201EA03011BD06E
:101EF000937A03F0030309B143F0040343F00803AA
:101F00009910013B91720D2B0BD8DFE803F02107EC
:101F10001B070A152121150A071B0721D368013B5E
:101F2000D3605DF8044B7047937A03F003030029F4
:101F3000E6D043F00403E3E7D3685DF8044B023BCB
:101F4000D3607047D3685DF8044B0233D3607047A9
:101F5000D3685DF8044B0133D36070477C9F022047
:101F6000214B10B4D3F8A020136850681978047876
:101F7000507A137A044201EA03011BD0937A03F0EA
:101F8000030309B143F0040343F008039910013B34
:101F900091720D2B0BD8DFE803F021071B070A1500
:101FA0002121150A071B0721D368013BD3605DF887
:101FB000044B7047937A03F003030029E6D043F003
:101FC0000403E3E7D3685DF8044B023BD36070473A
:101FD000D3685DF8044B0233D3607047D3685DF873
:101FE000044B0133D36070477C9F0220214B10B417
:101FF000D3F8A4201368506819780478507A137ABB
:10200000044201EA03011BD0937A03F0030309B1F0
:1020100043F0040343F008039910013B91720D2B28
:102020000BD8DFE803F021071B070A152121150A49
:10203000071B0721D368013BD3605DF8044B704751
:10204000937A03F003030029E6D043F00403E3E7A7
:10205000D3685DF8044B023BD3607047D3685DF8EA
:10206000044B0233D3607047D3685DF8044B0133EF
:10207000D36070477C9F0220214B10B4D3F8A82076
:102080001368506819780478507A137A044201EA88
:1020900003011BD0937A03F0030309B143F0040357
:1020A00043F008039910013B91720D2B0BD8DFE828
:1020B00003F021071B070A152121150A071B072119
:1020C000D368013BD3605DF8044B7047937A03F00B
:1020D00003030029E6D043F00403E3E7D3685DF887
:1020E000044B023BD3607047D3685DF8044B023366
:1020F000D3607047D3685DF8044B0133D3607047F9
:102100007C9F0220214B10B4D3F8AC201368506898
:1021100019780478507A137A044201EA03011BD03B
:10212000937A03F0030309B143F0040343F0080377
:102130009910013B91720D2B0BD8DFE803F02107BA
:102140001B070A152121150A071B0721D368013B2C
:10215000D3605DF8044B7047937A03F003030029C2
:10216000E6D043F00403E3E7D3685DF8044B023B99
:10217000D3607047D3685DF8044B0233D360704777
:10218000D3685DF8044B0133D36070477C9F022015
:10219000214B10B4D3F8B020136850681978047834
:1021A000507A137A044201EA03011BD0937A03F0B8
:1021B000030309B143F0040343F008039910013B02
:1021C00091720D2B0BD8DFE803F021071B070A15CE
:1021D0002121150A071B0721D368013BD3605DF855
:1021E000044B7047937A03F003030029E6D043F0D1
:1021F0000403E3E7D3685DF8044B023BD360704708
:10220000D3685DF8044B0233D3607047D3685DF840
:10221000044B0133D36070477C9F0220214B10B4E4
:10222000D3F8B4201368506819780478507A137A78
:10223000044201EA03011BD0937A03F0030309B1BE
:1022400043F0040343F008039910013B91720D2BF6
:102250000BD8DFE803F021071B070A152121150A17
:10226000071B0721D368013BD3605DF8044B70471F
:10227000937A03F003030029E6D043F00403E3E775
:10228000D3685DF8044B023BD3607047D3685DF8B8
:10229000044B0233D3607047D3685DF8044B0133BD
:1022A000D36070477C9F0220214B10B4D3F8B82034
:1022B0001368506819780478507A137A044201EA56
:1022C00003011BD0937A03F0030309B143F0040325
:1022D00043F008039910013B91720D2B0BD8DFE8F6
:1022E00003F021071B070A152121150A071B0721E7
:1022F000D368013BD3605DF8044B7047937A03F0D9
:1023000003030029E6D043F00403E3E7D3685DF854
:10231000044B023BD3607047D3685DF8044B023333
:10232000D3607047D3685DF8044B0133D3607047C6
:102330007C9F0220214B10B4D3F8BC201368506856
:1023400019780478507A137A044201EA03011BD009
:10235000937A03F0030309B143F0040343F0080345
:102360009910013B91720D2B0BD8DFE803F0210788
:102370001B070A152121150A071B0721D368013BFA
:10238000D3605DF8044B7047937A03F00303002990
:10239000E6D043F00403E3E7D3685DF8044B023B67
:1023A000D3607047D3685DF8044B0233D360704745
:1023B000D3685DF8044B0133D36070477C9F0220E3
:1023C000214B10B4D3F8C0201368506819780478F2
:1023D000507A137A044201EA03011BD0937A03F086
:1023E000030309B143F0040343F008039910013BD0
:1023F00091720D2B0BD8DFE803F021071B070A159C
:102400002121150A071B0721D368013BD3605DF822
:10241000044B7047937A03F003030029E6D043F09E
:102420000403E3E7D3685DF8044B023BD3607047D5
:10243000D3685DF8044B0233D3607047D3685DF80E
:10244000044B0133D36070477C9F0220214B10B4B2
:10245000D3F8C4201368506819780478507A137A36
:10246000044201EA03011BD0937A03F0030309B18C
:1024700043F0040343F008039910013B91720D2BC4
:102480000BD8DFE803F021071B070A152121150AE5
:10249000071B0721D368013BD3605DF8044B7047ED
:1024A000937A03F003030029E6D043F00403E3E743
:1024B000D3685DF8044B023BD3607047D3685DF886
:1024C000044B0233D3607047D3685DF8044B01338B
:1024D000D36070477C9F0220214B10B4D3F8C820F2
:1024E0001368506819780478507A137A044201EA24
:1024F00003011BD0937A03F0030309B143F00403F3
:1025000043F008039910013B91720D2B0BD8DFE8C3
:1025100003F021071B070A152121150A071B0721B4
:10252000D368013BD3605DF8044B7047937A03F0A6
:1025300003030029E6D043F00403E3E7D3685DF822
:10254000044B023BD3607047D3685DF8044B023301
:10255000D3607047D3685DF8044B0133D360704794
:102560007C9F0220002310B4114C41720261046070
:102570000372C36041B1194600E0026942F82310BA
:10258000427A01339A42F8DC0A4B1A680AB90CE025
:102590001A465369002BFBD15061002343618380AD
:1025A000C38083725DF8044B70471860F5E700BF85
:1025B0001CAA010020A50220F8B5044615460E46C7
:1025C0000846022110F09AF92846022110F096F9E7
:1025D000984A994B52F83610012001F50077276090
:1025E000207252F83520607202F500770020676093
:1025F000E060013BFDD191F8003292F8002203F037
:102600000103D20744BF43F00203DBB2A3723B2EA7
:1026100000F20386DFE816F0F405EA05E005D605CA
:10262000CC05C205B805AE05A4059A05900586053A
:102630007C05720568055E0554054A0540053605AA
:102640002C05220518050E050405FA04F004E6041D
:10265000DC04D204C804BE04B304A8049D0492049C
:1026600087047C0428041E0414040A040004F603EE
:10267000EC03E203D803CE03C403BA03B003A603FA
:102680009C03920388037E0374036A0360033C0087
:102690006A4B6B49C3F8EC4004223B2010F086F8EB
:1026A000012323743B2D00F2B585DFE815F00B0301
:1026B0000103F702ED02E302D902CF02C502BB0219
:1026C000B102A7029D02930289027F023102270212
:1026D0001D0213020902FF01F501EB01E101D7011F
:1026E000CD01C301B901AF01A5019B019101860193
:1026F0007B01700165015A014F01440139012E012E
:10270000230118010D010201F700EC00E100B800FF
:10271000AD00A20097008C00810076006B00600085
:1027200055004A003C00454B4549C3F8EC400422A3
:102730003B2010F03BF8237C0122134423742046F5
:10274000F8BD3E4B3F49C3F8E84004223A2010F060
:102750002DF8237C0122F0E7384B3B49C3F8E440D5
:102760000422392010F022F8237C0122E5E7334BC4
:102770003649C3F8E0400422382010F017F8237CD3
:102780000122DAE72D4B3249C3F8DC40042237201E
:1027900010F00CF8237C0122CFE7284B2D49C3F819
:1027A000D8400422362010F001F8237C0122C4E72F
:1027B000224B2949C3F8D440042235200FF0F6FFFC
:1027C000237C0122B9E71D4B2449C3F8D0400422E1
:1027D00034200FF0EBFF237C0122AEE7174B20499A
:1027E000C3F8CC40042233200FF0E0FF237C012209
:1027F000A3E7124B1B49C3F8C840042232200FF054
:10280000D5FF237C012298E70C4B1749C3F8C4403D
:10281000042231200FF0CAFF237C01228DE7074BF1
:102820001249C3F8C040042230200FF0BFFF237CC0
:10283000012282E758E00100C0D401007C9F022001
:10284000990A00000D0A000081090000F508000047
:1028500069080000DD07000051070000C506000000
:1028600039060000D92400004D240000C1230000D7
:10287000AC4BAD49C3F8BC4004222F200FF096FFAB
:10288000237C012259E7A74BA849C3F8B84004228A
:102890002E200FF08BFF237C01224EE7A14BA44991
:1028A000C3F8B44004222D200FF080FF237C0122C6
:1028B00043E79C4B9F49C3F8B04004222C200FF003
:1028C00075FF237C012238E7964B9B49C3F8AC4047
:1028D00004222B200FF06AFF237C01222DE7914B6D
:1028E0009649C3F8A84004222A200FF05FFF237CFA
:1028F000012222E78B4B9249C3F8A44004222920ED
:102900000FF054FF237C012217E7864B8D49C3F853
:10291000A040042228200FF049FF237C01220CE76D
:10292000804B8949C3F89C40042227200FF03EFFCA
:10293000237C012201E77B4B8449C3F898400422A1
:1029400026200FF033FF237C0122F6E6754B8049E9
:10295000C3F89440042225200FF028FF237C012295
:10296000EBE6704B7B49C3F89040042224200FF023
:102970001DFF237C0122E0E66A4B7749C3F88C40B7
:10298000042223200FF012FF237C0122D5E6654BA1
:102990007249C3F88840042222200FF007FF237CED
:1029A0000122CAE65F4B6E49C3F88440042221200D
:1029B0000FF0FCFE237C0122BFE65A4B6949C3F8A5
:1029C0008040042220200FF0F1FE237C0122B4E697
:1029D000544B6549DC6704221F200FF0E7FE237C7F
:1029E0000122AAE64F4B61499C6704221E200FF08A
:1029F000DDFE237C0122A0E64A4B5D495C67042290
:102A00001D200FF0D3FE237C012296E6454B594949
:102A10001C6704221C200FF0C9FE237C01228CE6D7
:102A2000404B5549DC6604221B200FF0BFFE237C7F
:102A3000012282E63B4B51499C6604221A200FF08A
:102A4000B5FE237C012278E6364B4D495C660422B4
:102A500019200FF0ABFE237C01226EE6314B494971
:102A60001C66042218200FF0A1FE237C012264E6DC
:102A70002C4B4549DC65042217200FF097FE237C80
:102A800001225AE6274B41499C65042216200FF08B
:102A90008DFE237C012250E6224B3D495C650422D9
:102AA00015200FF083FE237C012246E61D4B394999
:102AB0001C65042214200FF079FE237C01223CE6E1
:102AC000184B3549DC64042213200FF06FFE237C81
:102AD000012232E6134B31499C64042212200FF08C
:102AE00065FE237C012228E60E4B2D495C640422FE
:102AF00011200FF05BFE237C01221EE6094B2949C1
:102B00001C64042210200FF051FE237C012214E6E5
:102B1000044B2549DC6304220F200FF047FE237C81
:102B200001220AE67C9F022035230000A922000032
:102B30001D220000912100000521000079200000E5
:102B4000ED1F0000611F0000D51E0000491E00009F
:102B5000BD1D0000311D0000A51C0000191C000057
:102B60008D1B0000011B0000751A0000E919000010
:102B70005D190000D118000045180000B9170000C9
:102B80002D170000A1160000151600008915000081
:102B9000FD14000071140000E5130000591300003B
:102BA000CD12000041120000B5110000B34BB44932
:102BB0009C6304220E200FF0F9FD237C0122BCE56A
:102BC000AE4BB0495C6304220D200FF0EFFD237C77
:102BD0000122B2E5A94BAC491C6304220C200FF082
:102BE000E5FD237C0122A8E5A44BA849DC62042270
:102BF0000B200FF0DBFD237C01229EE59F4BA449B7
:102C00009C6204220A200FF0D1FD237C012294E56E
:102C10009A4BA0495C62042209200FF0C7FD237C77
:102C200001228AE5954B9C491C62042208200FF082
:102C3000BDFD237C012280E5904B9849DC61042294
:102C400007200FF0B3FD237C012276E58B4B9449DE
:102C50009C61042206200FF0A9FD237C01226CE573
:102C6000864B90495C61042205200FF09FFD237C78
:102C7000012262E5814B8C491C61042210460FF051
:102C800095FD237C012258E57C4B8849DC600422B9
:102C900003200FF08BFD237C01224EE5774B844906
:102CA0009C60042202200FF081FD237C012244E578
:102CB000724B80495C60042201200FF077FD237C79
:102CC00001223AE56D4B7C491C60042200200FF084
:102CD0006DFD237C012230E5684B7849C3F8E8405C
:102CE00004223A200FF062FD0123DAE4634B7449B9
:102CF000C3F8E440042239200FF058FD0123D0E44A
:102D00005E4B7049C3F8E040042238200FF04EFDBE
:102D10000123C6E4594B6C49C3F8DC400422372038
:102D20000FF044FD0123BCE4544B6849C3F8D8407C
:102D3000042236200FF03AFD0123B2E44F4B6449E0
:102D4000C3F8D440042235200FF030FD0123A8E45D
:102D50004A4B6049C3F8D040042234200FF026FDCE
:102D600001239EE4454B5C49C3F8CC400422332048
:102D70000FF01CFD012394E4404B5849C3F8C840B0
:102D8000042232200FF012FD01238AE43B4B544908
:102D9000C3F8C440042231200FF008FD012380E471
:102DA000364B5049C3F8C040042230200FF0FEFCDF
:102DB000012376E4314B4C49C3F8BC4004222F2058
:102DC0000FF0F4FC01236CE42C4B4849C3F8B840E5
:102DD00004222E200FF0EAFC012362E4274B444931
:102DE000C3F8B44004222D200FF0E0FC012358E486
:102DF000224B4049C3F8B04004222C200FF0D6FCEF
:102E000001234EE41D4B3C49C3F8AC4004222B2067
:102E10000FF0CCFC012344E4184B3849C3F8A84018
:102E200004222A200FF0C2FC01233AE4134B344958
:102E3000C3F8A440042229200FF0B8FC012330E499
:102E40000E4B3049C3F8A040042228200FF0AEFCFE
:102E5000012326E4094B2C49C3F89C400422272077
:102E60000FF0A4FC01231CE4044B2849C3F898404C
:102E7000042226200FF09AFC012312E47C9F0220FA
:102E8000291100009D10000011100000850F0000A6
:102E9000F90E00006D0E0000E10D0000550D000060
:102EA000C90C00003D0C0000B10B0000250B000018
:102EB000AD05000021050000950400000D0A00008A
:102EC00081090000F508000069080000DD07000026
:102ED00051070000C506000039060000D924000093
:102EE0004D240000C123000035230000A92200006A
:102EF0001D22000091210000052100007920000022
:102F0000ED1F0000611F0000D51E0000491E0000DB
:102F1000C34BC449C3F89440042225200FF046FC5B
:102F20000123FFF7BEBBBE4BBF49C3F8904004224C
:102F300024200FF03BFC0123FFF7B3BBB84BBB4988
:102F4000C3F88C40042223200FF030FC0123FFF74C
:102F5000A8BBB34BB649C3F88840042222200FF027
:102F600025FC0123FFF79DBBAD4BB249C3F884405C
:102F7000042221200FF01AFC0123FFF792BBA84B7B
:102F8000AD49C3F88040042220200FF00FFC01233C
:102F9000FFF787BBA24BA949DC6704221F200FF073
:102FA00005FC0123FFF77DBB9D4BA5499C670422CF
:102FB0001E200FF0FBFB0123FFF773BB984BA149C9
:102FC0005C6704221D200FF0F1FB0123FFF769BBB2
:102FD000934B9D491C6704221C200FF0E7FB012343
:102FE000FFF75FBB8E4B9949DC6604221B200FF074
:102FF000DDFB0123FFF755BB894B95499C660422F5
:103000001A200FF0D3FB0123FFF74BBB844B9149F0
:103010005C66042219200FF0C9FB0123FFF741BBB6
:103020007F4B8D491C66042218200FF0BFFB012343
:10303000FFF737BB7A4B8949DC65042217200FF074
:10304000B5FB0123FFF72DBB754B85499C65042219
:1030500016200FF0ABFB0123FFF723BB704B814918
:103060005C65042215200FF0A1FB0123FFF719BBBB
:103070006B4B7D491C65042214200FF097FB012344
:10308000FFF70FBB664B7949DC64042213200FF075
:103090008DFB0123FFF705BB614B75499C6404223E
:1030A00012200FF083FB0123FFF7FBBA5C4B714941
:1030B0005C64042211200FF079FB0123FFF7F1BAC1
:1030C000574B6D491C64042210200FF06FFB012345
:1030D000FFF7E7BA524B6949DC6304220F200FF077
:1030E00065FB0123FFF7DDBA4D4B65499C63042264
:1030F0000E200FF05BFB0123FFF7D3BA484B614969
:103100005C6304220D200FF051FB0123FFF7C9BAC5
:10311000434B5D491C6304220C200FF047FB012345
:10312000FFF7BFBA3E4B5949DC6204220B200FF077
:103130003DFB0123FFF7B5BA394B55499C62042288
:103140000A200FF033FB0123FFF7ABBA344B514990
:103150005C62042209200FF029FB0123FFF7A1BACA
:103160002F4B4D491C62042208200FF01FFB012346
:10317000FFF797BA2A4B4949DC61042207200FF078
:1031800015FB0123FFF78DBA254B45499C610422AD
:1031900006200FF00BFB0123FFF783BA204B4149B8
:1031A0005C61042205200FF001FB0123FFF779BACF
:1031B0001B4B3D491C61042210460FF0F7FA012316
:1031C000FFF76FBA164B3949DC60042203200FF079
:1031D000EDFA0123FFF765BA114B35499C600422D3
:1031E00002200FF0E3FA0123FFF75BBA0C4B3149E1
:1031F0005C60042201200FF0D9FA0123FFF751BAD5
:10320000074B2D491C60042200200FF0CFFA012348
:10321000FFF747BA0022FFF790BA0023FFF741BA41
:103220007C9F0220BD1D0000311D0000A51C000078
:10323000191C00008D1B0000011B0000751A000006
:10324000E91900005D190000D118000045180000C0
:10325000B91700002D170000A11600001516000078
:1032600089150000FD14000071140000E513000032
:1032700059130000CD12000041120000B5110000EA
:10328000291100009D10000011100000850F0000A2
:10329000F90E00006D0E0000E10D0000550D00005C
:1032A000C90C00003D0C0000B10B0000250B000014
:1032B000AD050000210500009504000010B592B096
:1032C000014601A80EF08EFD0023322201A805A9B7
:1032D0000EF0AAFD05A905480AF054F8044601A815
:1032E0000EF040FDA0B212B010BD00BF349400201B
:1032F00007EE900A9FED0C6ADFED0C6A0C4B0D484F
:10330000B8EEE77ADFED0C7A27EE067A10B5E7EE35
:10331000267A01241C60FCEEE77A17EE901A05F07D
:103320004BFC064B1C6010BD0AD7233C0000014338
:1033300088E100E05C4F0020EE7CFF3E08E100E009
:1033400010B5A2B044221749044668460FF086F82B
:1033500044220DEB020014490FF080F8ADF1040295
:10336000002352F8041FA14204D00133112BF8D1DD
:1033700022B010BD0D490A68002AFCDB22AA02EB2C
:1033800083030B4913F8442C33F8423C013A1203EF
:10339000013B02F47F22C3F30B0313430B6022B003
:1033A00010BD00BF20AA010064AA010000F1024084
:1033B00004F102402DE9F04F2DED028BDFF808B14A
:1033C0003D4BDFED3E8A9FED3E8A85B04FF0000811
:1033D0000393D94604E0B8F1EA0F4BF8046F66D0C6
:1033E00059F8043F039A029332F9024F039207EE11
:1033F000903A07EE104AF8EEE77AB8EEC77A67EE31
:10340000A87ABD2CE7EE087AA8BFBD241FFA88F57C
:1034100024EAE4742F1DFDEEE77A0FFA84FA4FF4E4
:10342000FC623FB20092534639465A222548A4B264
:1034300017EE906A07F038FB0020C4F1BE0304F1D8
:103440005A02394600901BB212B21E48053507F0E9
:103450002BFB2DB20023BD2E009329464FF0BE0357
:103460004FF05A021748A8BFBD2607F01DFB4FF4C6
:10347000FC625346009229465A22124807F014FB78
:10348000029B042B08F1020826EAE676A3DD1A4621
:1034900055324FF6FF73009312B2294605230948AF
:1034A00007F002FBB8F1EA0F4BF8046F98D105B0B2
:1034B000BDEC028BBDE8F08FDA8C00203333333F54
:1034C0009A99993E3494002028840020F8B55C4EE7
:1034D00034685CB1032C5B4D28D0022C3CD0012C0D
:1034E00060D0042C7DD000232B62F8BD5648554D8A
:1034F000564F05F0A9FD564A564B11681A68EC6103
:1035000091424FF48033AB6104BFEB61AC61524B2D
:1035100034685248524A00211960032C4FF00103CD
:103520004FF002013B6003601160D6D14FF480413F
:103530004548464F05F06CFD474B346848484749BD
:1035400000221A60AA6101234FF48032022C3B60F2
:1035500003600B60EA61C2D14FF480413A4805F044
:1035600041FD404BDFED406A93F9003007EE903AA1
:10357000F8EEE77AB7EE006A86EE277A4FF48032EB
:103580000023EA61AB61B4EEE67AF1EE10FA3BD4C7
:10359000F2EE007AB4EEE77AF1EE10FA44DD4FF481
:1035A000002333E02848274C2B4F05F04DFD284AD7
:1035B000284B116818684FF4803288424FF000039E
:1035C000EB61AA6108BFE26120482549234A08BF90
:1035D000A36101233468036000263E600B60136022
:1035E0007FE719481C4F194E1D4C05F02DFD1B4857
:1035F000002201234FF480313A60EA61AA6133600E
:10360000236003602962F8BD40F28F230E4F124CF5
:103610000E481349114A3B620123002727600360CB
:1036200034680B6013605AE7DFED106ADFED107A43
:10363000E7EE267AFCEEE77A17EE903AE6E700BF6F
:10364000EC960020FC97002010970020AC970020FB
:10365000284F0020503E00204C990020F09600207A
:10366000F04E0020753E00200AD7233C0000804722
:10367000EE7CFF3EF0B5474C474A484991B00025E3
:1036800008A80123256003F0CFF910AA44480A9B3B
:1036900012F8145D9DF8241083600573017100F128
:1036A0000D031A3012F8011F03F8011B83423C4935
:1036B000F8D10F9B3B4ECB6108A803F0DDF8002347
:1036C000394F336005E008A803F0ECF808A803F0D0
:1036D000D3F80122324908A803F01AFA08A803F027
:1036E000EFF840F2E63310B922689A424CDD08A8A0
:1036F00003F0C6F80028E6D108A803F0BFF8014699
:1037000068460EF06FFB294904A80EF06BFB04A974
:1037100068460EF0A3FB054604A80EF023FB1DB976
:1037200068460EF01FFBCEE7236803EB430503EB6F
:10373000850308A8FD1803F0A1F80146284613F0F8
:10374000F3FB1B4904A80EF04DFB04A968460EF0DC
:1037500085FB054604A80EF005FB2B4601226946B1
:1037600004A80EF08DFB04A80EF0AEFB054604A8DD
:103770000EF0F8FA326823680A49954203F1010312
:10378000C8BF0D602360CBE708A803F075F811B03F
:10379000F0BD00BF5897002050AB0100B09C022044
:1037A0008C9C0220881C02206851002054AB010030
:1037B0005CAB010008B50549012200200CF026F998
:1037C000FE210348BDE8084003F082B860AB010069
:1037D000B09C022038B5064D0648074C2946012208
:1037E0000CF014F9207028460CF0E6FC207038BD6F
:1037F00060AB01008C4C0020248C0020F8B5244CD8
:10380000236833B9234B1A6840F2E6339A420DDD40
:10381000F8BD21480CF0BEFC0023204A23601D4B5C
:1038200010701A6840F2E6339A42F1DC1C4B1D4FCF
:103830001B681D4E3A681D491D48184D03EB430394
:1038400006EB830301325B683A6013F0DFFA002174
:1038500017480CF0C5FC0A22287015490E480CF0D8
:10386000FFF80228287008D00A2211490A480CF0F3
:10387000F7F8012328702360F8BD07480CF08AFC94
:1038800009282870F0D10A480CF0D0FC2870EBE72A
:10389000BC8C00205897002060940020248C0020CD
:1038A000BC3E0020881C0220A8AA010064AB0100D5
:1038B0005C9700202DE9F843064606F069F80128D8
:1038C0002CDDDFF86490DFF858800025D8F8000080
:1038D000134F05EB4004304606F08CF809EB042446
:1038E00001464FF4807220460EF0B8FD0135304697
:1038F00006F09EF8022DE9D13B680133BF2B02D8B8
:103900003B60BDE8F8830022064B3A600649074851
:103910004FF4C0320CF020FA054B1870BDE8F88364
:1039200058940020EC4E0020C099002060940020A4
:10393000248C0020134A38B500230446124D80F829
:10394000F63013700CE006F055F8104B01464FF4BA
:1039500080720F480CF000FA2870204606F068F8D4
:10396000204606F015F800282046ECDC08480CF04C
:1039700011FC084B287000221A60BDE83840FFF7A0
:1039800079BE00BF404F0020248C0020EC4E002068
:1039900060940020BC8C00202DE9F0418EB00DF128
:1039A000030600250746B0462C4628460EF006FDC5
:1039B00008F8010F4440082314F0010F4FEA5402A5
:1039C00003F1FF3314BF82F08C04C4F3470413F0F7
:1039D000FF03F1D10135332DE7D1F4B99DF8333030
:1039E000332B03D020460EB0BDE8F0819DF8323075
:1039F000302BF7D19DF83130302BF3D19DF830309A
:103A0000302BEFD1013F0DF1370316F8012F07F8E6
:103A1000012F9E42F9D10120E5E718460EB0BDE81E
:103A2000F08100BFF8B50025471E2C4617F8016F3E
:103A30000823744014F0010F4FEA540203F1FF33DE
:103A400014BF82F08C04C4F3470413F0FF03F1D1D8
:103A500028460EF0B3FC864209D0314628460EF0C7
:103A6000C7FC28460EF0AAFC3B78834204D10135FE
:103A7000322DDBD1002600E00126214628460EF03B
:103A8000B7FC28460EF09AFC84420CBF3046012059
:103A9000F8BD00BFF0B526492648274A09680068E6
:103AA000264B274D1B88274C2E682568264C91B045
:103AB00001330C90069192E803002449244A8DF8C2
:103AC0003800C0F30727096812688DF83970ADF81F
:103AD0000E30C0F30747030E1E4894F800E005922D
:103AE000089504911C4A1D4D1D4C1E49006892F812
:103AF00000C0079600222E780A90257891F90040A0
:103B00008DF82DE05F2103A88DF82CC08DF80C10E6
:103B10008DF825608DF824500D94ADF83C208DF87B
:103B20003A708DF83B30FFF77DFF11B0F0BD00BF5C
:103B3000AC3E0020443E002070AB0100588C0020B9
:103B4000BC3E00203C3E0020D03E0020641C0220F1
:103B5000CC3E0020C43E0020753E0020C03E002028
:103B6000483E0020C83E00202DE9F04FAD4AAE4B44
:103B70001468AE48AE491C600C328BB00C68056806
:103B80001268AC49AC489C60DA605D600EF02AF9BE
:103B9000AA4AAB49A848DFF8F09211F04BF8A94BBC
:103BA000A9481A680792079C1A680892089A1B6825
:103BB0000993A64B099904601A60A54CA5482723D0
:103BC00002931B22A1F57A711C2301920093142207
:103BD000FF232160152106F007FE322225219E4891
:103BE0000DF08CFD322224219C480DF087FD23220C
:103BF00022219B48FEF7E0FC3222262199480DF055
:103C00007DFD32221D2198480DF078FD1F221E21D6
:103C10009648FEF7D1FC964B964993F90030964AA8
:103C200096480B7012685942017000239449C9F8F4
:103C3000001089F80930C9F8103089F80830C9F83F
:103C40000C300AB9A3E21A465369002BFBD1C2F823
:103C500014900024DFF884B28A4B8B48C9F81440D2
:103C6000A9F80440A9F8064089F80A40C9F80030CC
:103C700005F0DCFA0BF1180201215846FEF772FC40
:103C8000824B83488BF8F440224621468BF8F5405E
:103C9000CBF8F0408BF8F640CBF80030FEF762FC32
:103CA0007B4A7C4B13607C4A794E7C4D18324FF432
:103CB0008043A2F1180002213362FEF753FC764ADA
:103CC000774B1360012005F224726D4E2C7223464F
:103CD0002146EC602E6068722A612C4600E0226961
:103CE00042F823106A7A6D4801339A42F7DC624B3E
:103CF0001A680AB94FE21A465369002BFBD1556185
:103D0000002468492960224601234FF48071664EE1
:103D100066486C61AC80EC80AC7285F8214785F810
:103D20002247C5F8186110F0A9FE534BDFF88881CF
:103D30001A685349C5F81C41082385F8203788F8CC
:103D40000940C8F80010C8F8104088F80840C8F8C2
:103D50000C40494B0AB920E21A465369002BFBD1AB
:103D6000C2F814804FF0000A514B5248C8F814A012
:103D7000A8F804A0A8F806A088F80AA0C8F800309F
:103D800002F06CFD4C484D4C4D4F4E4E05F0FCFC86
:103D90002A4A4D49484810F04DFF4C4B012103F190
:103DA00018021846FEF7DEFB484A494B1360494BA0
:103DB000042103F128021846FEF7D4FB464B03F119
:103DC00028021846434B04211C604FF480349C6148
:103DD000DC611C625C62FEF7C5FB3F4B374C1C602C
:103DE00007F128024FF48034042138469C61DC61DD
:103DF0001C625C62FEF7B6FB3049BC61022006F132
:103E00001802FC613C627C621D4C39603460534690
:103E1000514686F808A0C6F80CA07072326134468C
:103E20005FE000BF54800440888C0020588004402C
:103E30005C80044078AB0100D84E00200C3E00208E
:103E4000651D0100B0A50220241C02202C8C00203E
:103E5000F49600203494002020940020C019022001
:103E6000F8960020F84E0020B09900202C4F00203A
:103E7000C83E0020281C022020A5022030940020EB
:103E80001CAA0100DCB201006C9900200CB30100F7
:103E9000988C002018B30100001A0220C08C00206A
:103EA000D0B201009CB00100BCB00100E89300203A
:103EB00000B30100CC970020B4970020E8B20100C5
:103EC000B4960020681C02207104000010970020A6
:103ED000C4B201002C1C0220FC970020389800205E
:103EE000226942F82310727AAE4801339A42F7DC15
:103EF000AD4B1A680AB953E11A465369002BFBD13E
:103F000056610024A94AAA4B7461B480F480B4724B
:103F1000A4483260059305F0C1FB059BDFF8E4A2DD
:103F20001C721846C3F800905F605C72DC601C7401
:103F30000DF046FD059B9F4A9F49184610F07AFEFA
:103F40009E4B059350468AE8000A8AF808408AF892
:103F50000940CAF80C408AF810400DF031FD954A2E
:103F60009549DFF8A4B2504610F064FE059BDFF8D7
:103F70009CA21C724FF001091846C3F800805F60D4
:103F8000DC601C7483F809900DF01AFD059B894ACA
:103F90008949DFF87C82184610F04CFE884BCBF83C
:103FA000043058468BF80840CBF800708BF8094075
:103FB000CBF80C408BF810400DF002FD7D4A7E4995
:103FC000584610F037FE7F4BCAF8043050468AF846
:103FD0000840CAF800708AF80940CAF80C408AF80C
:103FE00010400DF0EDFC734A7349DFF828B25046DB
:103FF00010F020FE724B88F80840404688E8280000
:1040000088F80940C8F80C4088F810400DF0D8FC3A
:10401000684A69496C4B0593404610F00BFE6B4BA8
:10402000DFF8F4A1CBF8043058468BF80840CBF801
:1040300000708BF80940CBF80C408BF810400DF065
:10404000BFFC5C4A5C49DFF8D481614D584610F0F2
:10405000F1FD604BCAF8003050465C4BCAF80430A2
:104060008AF808408AF80990CAF80C408AF810408B
:104070000DF0A6FC50494F4ADFF8A4B1504610F0AD
:10408000D9FD059B4F4A1A601846534A1C725A6064
:1040900083F80990DC601C740DF092FC059B454A86
:1040A0004549DFF880A1184610F0C4FD474BC8F819
:1040B00000304046484BC8F8043088F8084088F87B
:1040C0000940C8F80C4088F810400DF079FC3A49D6
:1040D000384A404610F0AEFD022328463E4A6B7235
:1040E0002C722F606A60EC602C740DF069FC314A10
:1040F00031493A4F284610F09DFD374B8BF8084068
:1041000058468BE848008BF80940CBF80C408BF8F8
:1041100010400DF055FC274A2749314D584610F004
:1041200089FD2D4B8AF8084050468AE84800CAF8B5
:104130000C408AF810408AF809900DF041FC504676
:104140001C4A1D49274E284C10F074FD274B284A65
:104150001B6828482849D0F800E0C7F800E003EBC6
:10416000430302EB830325489F685B682B600A22A8
:104170000C600A72376002F071FB0E4A20491F483A
:1041800010F058FD0EF0CEF80BB0BDE8F08F064BE6
:10419000C3F800905DE51860B2E5C3F80080E1E582
:1041A0001860AEE6681C022020A50220F4B20100CF
:1041B0000C9400200C3E002089040000748C002028
:1041C0002C1C022010970020444F0020001A0220CF
:1041D000408C0020988C0020FC970020288C002028
:1041E0006499002034980020A8B001003C3E0020D3
:1041F000A8AA0100C43E00205C4F00208C9C022035
:104200007968000030990020D4190220E8190220B2
:104210009C990020144F002088990020509900207C
:104220005C8C0020F893002030B500EB8004A400E3
:104230002D3424B2054683B022460021144809F0EB
:1042400007F9144B1B689D4212D04FF6E0711048DD
:1042500009F01AF9104B53F82540204612F0F0FEF1
:1042600002460B48214603B0BDE830400DF0E8BCE3
:104270004FF6FF71064809F007F900211423009357
:1042800022460191F023024806F098FDE2E700BFC4
:104290003494002044990020103E00202DE9F04F76
:1042A0002DED028B3F4C404E404F9DB020464FF6C7
:1042B000E07109F0E9F8282500224FF4004301934A
:1042C000114620460095F023A66106F077FD4FF6D3
:1042D000FF7301930095F0232A462046002107F042
:1042E0001FFE3B68012B00F06482022B00F06E82FF
:1042F00014224FF400438DE80C000021F0234FF40A
:104300008C7228482A4DDFF8BC8006F057FD282221
:104310004FF448738DE80C000021F0234FF496729F
:10432000204806F04BFD002211461E4809F090F887
:10433000012220491B480DF083FC95F90010194813
:104340000DF008FD02221C4916480DF079FC98F981
:10435000001014480DF0FEFC3A68022A00F040827A
:10436000022216490F48DFF860900DF069FC144BEB
:104370001C68204612F064FE2146024609480DF0F2
:104380005FFC14220021074809F062F8D9F80030D8
:10439000042B00F20882DFE813F035013B014101F4
:1043A0004701190034940020A4D80100B43E002035
:1043B000C03E002098AB01009CAB0100A4AB010003
:1043C00064990020483E0020EC9600200422BD495C
:1043D000BD480DF035FCBC4C14222046B42109F038
:1043E00037F8BA4B0AA8196809F052F820464FF678
:1043F000E07109F049F80B9A0C9B00920921B44A2C
:1044000004A812F0B5FC04A812F01AFE04A9024692
:1044100020460DF015FC3B68032B00F0F1814FF4B2
:1044200096720021A84809F013F83B68032B00F0AE
:104430002C81A84CA84E2368A348012B0CBF4DF239
:104440009A614FF6E07109F01FF83368052B03D12C
:104450002268012A00F06C83DFF8C8A25AF82340D2
:10446000204612F0EDFD2146024697480DF0E8FB8C
:1044700001229A4994480DF0E3FB4FF6FF719248F0
:10448000954C09F001F83368012B00F0B082022B43
:1044900000F0D080002B00F0DC80032B00F0F282D3
:1044A0008F4B904C1B688848012B0CBF4DF29A61D2
:1044B0004FF6E07108F0E8FF23685AF82300FEF792
:1044C000FDFEC0F1F00109B24FF496727E4808F08B
:1044D000BFFF23685AF82340204612F0B1FD214661
:1044E000024679480DF0ACFB3B68032B00F0CE8010
:1044F0004FF48C720021744808F0AAFF4FF6E07167
:10450000714808F0C1FF3368042B00F00F81764C2E
:104510002378002B00F02681012B00F02C81022B48
:10452000724C00F037814FF6E071674808F0ACFF3D
:104530006F4B22786F491C786F4B052C0CBF1C46C3
:104540000C46002A00F08C803B68032B55D0002BD2
:1045500040F33E82DFF8D0A1684DDAF80020DFF8A2
:10456000B4B19FED677ADBF80010002A1346B8BF9C
:1045700002F1FF031B1207EE903A91FBF3F185FB6A
:104580000205D217FAEEEF7AC2EB6535012D87EE00
:10459000278A4FEA41081DDD01244FF6E076009698
:1045A00005235522484807EE904AF8EEE77A013491
:1045B00067EE887AFDEEE77ACDED037ABDF90C104F
:1045C00006F072FAA542EAD1DAF80030002BB8BF43
:1045D000FF331B12D9F80020022A00F081824FF627
:1045E000E0730093572203230FFA88F1364807F04F
:1045F0006BFC3B68012B00F056821DB0BDEC028BBA
:10460000BDE8F08F02223F492F480DF019FBE2E68A
:1046100007223D492C480DF013FBDCE607223B49FD
:1046200029480DF00DFBD6E60622394926480DF043
:1046300007FBD0E6374B38491B68234881FB032131
:10464000DB17C3EBA1110DF085FB3368002B7FF462
:1046500024AF95F900101C480DF07CFB33681CE773
:104660002146194808F08EFEC0F1EB0109B24FF463
:104670008C72154808F0ECFE204612F0E1FC214651
:10468000024611480DF0DCFA5EE7134E0E484DF27B
:104690009A6108F0F9FE062220490B480DF0D0FA85
:1046A0001F48FEF70BFEC0F1F00109B24FF49672FD
:1046B000054808F0CDFE0B22194903480DF0C0FA59
:1046C00016E700BFC4AB01003494002000D00340C3
:1046D000D4AB0100AC9700204C99002008AD01003C
:1046E000F0960020F04E0020084F0020D019022044
:1046F000743E002088AB010090AB0100AD8BDB68FD
:1047000000401C46A8AB0100B4AB0100BCAB0100EB
:10471000ACAB0100C43E0020D34D621030AC0100B0
:1047200038AC0100543E002034980020B34B1B6885
:10473000012B7FF4ECAEB24CB2484FF6FF7108F09B
:10474000A3FE2378002B00F01282012B00F01682CA
:10475000022BAD4C7FF4E7AEAC49AA4804220DF021
:104760006FFAE0E60722AA49A6480DF069FA237815
:10477000012B7FF4D4AEA74B1B78002B00F02181D6
:104780000622A5499F480DF05BFA23789E4C022B28
:104790007FF4C9AE2378002BDED004229F499948CC
:1047A0000DF04EFABFE605229D4996480DF048FAF5
:1047B00011E600211E2300932046F02301913C22A4
:1047C00006F0FCFA3B68022B7FF492AD0021062331
:1047D00000930191F02354228A4806F0EFFA87E50E
:1047E000904988480DF02CFA8F4B90491B688548FA
:1047F00081FB0321DB17C3EBA1110DF0ABFAAFE591
:104800002D220021204608F023FE4FF6E0712046BD
:1048100008F03AFE864AA6611368002BC0F2A58113
:104820000B2BA8BF002303201360FFF7FDFC814B77
:10483000744893F90030804C804E012B07BF0A2248
:104840007F4980490C220DF0FBF96E480DF032FAD9
:104850000420FFF7E9FC7C4B6A4893F900100DF047
:1048600079FA68480DF026FA0520FFF7DDFC774B52
:10487000644893F900100DF06DFA62480DF01AFAD1
:104880000620FFF7D1FC724B1B6803EB430304EBDC
:104890008303D3F804A0504612F0D2FB51460246DF
:1048A00058480DF0CDF957480DF004FA0720FFF7EE
:1048B000BBFC684B1B6803EB430304EB8303D3F897
:1048C00004A0504612F0BCFB514602464D480DF084
:1048D000B7F94C480DF0EEF90820FFF7A5FC5E4B48
:1048E0001B6803EB430304EB83046468204612F067
:1048F000A7FB2146024643480DF0A2F941480DF0BE
:10490000D9F90020FFF790FC544A554B126853F830
:104910002240204612F094FB2146024639480DF011
:104920008FF90120FFF780FC4E4A4F4B126853F875
:104930002240204612F084FB2146024631480DF009
:104940007FF90920FFF770FC316813A808F0A0FD7B
:1049500013A90EC907A8019100920921434A12F038
:1049600007FA07A812F06CFB07A9024625480DF0CC
:1049700067F90A20FFF758FC316813A808F088FD92
:1049800016A90EC907A803F2B2730191009209217A
:10499000374A12F0EDF907A812F052FB07A90246B8
:1049A00018480DF04DF90220FFF73EFC314B1B6813
:1049B000002B40F0B78008222F4912480DF040F933
:1049C0002DE507222D490F480DF03AF92378A6E589
:1049D000552200210B4808F03BFD092228490948CF
:1049E0000DF02EF91DB0BDEC028BBDE8F08F98F9EB
:1049F000001004480DF0AEF9236848E5AC9700209C
:104A0000201C022034940020D019022054AC010054
:104A100044AC0100404F00205CAC01006CAC0100D4
:104A2000CCAB0100A0AB0100C43E0020D34D62100E
:104A300044990020C83E0020A8AA010000D00340ED
:104A4000E0AB0100ECAB0100D03E0020753E002041
:104A50003C3E0020BC3E0020AC3E0020CC3E00206E
:104A6000843E0020641C0220983E0020FCAB010024
:104A70000CAC0100443E00201CAC010064AC010001
:104A800074AC0100414B424A1B6803EB430302EB49
:104A900083035C68204612F0D3FA214602463D4863
:104AA0000DF0CEF8FCE4DBF800103B4B3B4A83FBF7
:104AB0000103C917C1EBA31313A8092112F058F978
:104AC000A8F10A0109B23C22324808F0C1FC13A83F
:104AD00012F0B6FA13A902462E480DF0B1F88CE593
:104AE0002F4A304D92F9001095FBF3F54FF47A728E
:104AF00002FB01F292FBF3F3ED1A6D005B001CB2B6
:104B00002DB24FF6FF762B462146009655222148BE
:104B100005F0DAFF2B462146009659221D4805F084
:104B2000D3FF5CE5062220491A480DF089F876E4A7
:104B30001E4B1F4A1B68DFF888A003EB430403EBFE
:104B40008403D41820462E2112F086F9021B214638
:104B50000132184812F046FA164812F071FA154957
:104B600002460C480DF06CF887E40A235BE6072246
:104B7000114908480DF064F82378E6E507220F494B
:104B800004480DF05DF82378E2E500BF3C3E0020CC
:104B9000A8AA010034940020D34D621014AC010087
:104BA000D03E00208038010028AC0100FC19022012
:104BB00068510020308C002044AC01004CAC010056
:104BC000543E0020074B10B5012401461C600648E6
:104BD00003F082FF054B1C60FFF760FB044B0022D3
:104BE0001A6010BD88E100E05C4F002008E100E0A1
:104BF000B0970020F0B58FB001A8FEF7CDFE0446B7
:104C000098B139490A9A394BBDF806709DF8306061
:104C10009DF831509DF832000F80012A9DF8331025
:104C20001E705D709870D97002D020460FB0F0BD34
:104C30002F4D304E049F30492F60059F37602F481D
:104C40002F4B039D2F4E069F0F6002990260196043
:104C50003560002D2FD0022D40D0012D35D0002100
:104C6000294806F069FA31682748284E0DF072F895
:104C7000274A9DF91D002749274B9DF825509DF88F
:104C800024701070089A0D701A603770FEF730FBB0
:104C90009DF91C30214A224D13701846FFF792FFF0
:104CA0000B9B204820495AB25B42037020462A7071
:104CB0000A700FB0F0BD2946134806F073FC294670
:104CC000114806F047FA3568C5E700210E4806F09E
:104CD00069FC00210C4806F03DFAC0E700210A48B3
:104CE00006F038FA3568B8E7588C00200C4F0020E1
:104CF000AC3E0020BC3E00203C3E0020443E002054
:104D0000EC960020B43E002034940020753E002034
:104D1000C03E0020D03E0020C43E0020483E00207F
:104D2000C83E002030940020281C0220274B9FED15
:104D3000286A93ED007ADFED276AB8EEC77A07EEAE
:104D4000900AC6EE075AF8EEE77A67EEA57AF4EE17
:104D5000E67AF1EE10FA19DC1F4A204BC2ED007A18
:104D6000F5EEC07A0122F1EE10FA1A602BD49FED15
:104D70001C7AF4EEC77AF1EE10FA1BDD194B1A49D2
:104D80001A4A01200860D361FFF788BAC7EE065AB5
:104D9000114B1748114A0121F2EE027AE5EEA67A8C
:104DA000C3ED006AFDEEE77A17EE903AF0EE667A10
:104DB000036011609FED0F7A67EE877AFCEEE77A69
:104DC00017EE903ADBE70023D9E700BF34980020C4
:104DD000A6552C4700E0AB464C3E002088E100E0A1
:104DE000A655AC4680FFFF7F08E100E0988C0020CC
:104DF000C43E00204B24BE472DE9F04F2DED048B1F
:104E0000B34AB44B92F900201B689FEDB36ADFED03
:104E1000B36A07EE102A002BB8BFFF33F8EEC77A4B
:104E20001B1227EE867A07EE903AF8EEE77AADF598
:104E3000097D87EE278A10AC4FF4F07220460021DE
:104E4000C6EEA78A11F038FDA54B1A680132012A77
:104E500004921A60BDEEC88AFDEEE88A00F018815F
:104E6000049B632B40F21C81DFF8C082DFF8B8920C
:104E70009FED9C6A0026C446B346B64627464FF4CB
:104E8000807A0225F2EE046A0FE0042AD8BF4FF4BC
:104E9000006323DC0135782D24F8163007F1040770
:104EA00027F8023C06F102062CD03CF8023FB9EC90
:104EB000017A03EB83035B0007EE903AF8EEE77AA2
:104EC000E7EE467A77EEA67AFDEEE77A17EE902ABD
:104ED00052459644D9DD17EE90AAAB465300FF2BFE
:104EE000A8BFFF23B2F5407FC0F2D482B2F5106FA5
:104EF000C0F291821B0203F478436FEAD3236FEA76
:104F0000C323C7E7784B9FED797A83FB0E234FEAE3
:104F1000EE7ECEEB23139AFBF3F307EE903AF8EE16
:104F2000E77A18EE103AF4EE477AF1EE10FA48BF3D
:104F30004FF0000B5B4504DA18EE903A5B4500F346
:104F4000FB806B4B1D68012D4FF0000A00F02081A3
:104F5000022D00F02B8118EE103A5B45654D4EDABC
:104F600018EE903A5B454ADD2B78002B40F0AE817D
:104F7000614EDFF8C08133680F93604B0F9A1A605F
:104F8000D8F80030012B00F098815D4E022B337869
:104F900040F09E81002B00F09B815A4804F054F8A9
:104FA0004FF48041574804F01DF8574BDFED576A26
:104FB00093F9003007EE903AF8EEE77AB7EE006A20
:104FC00086EE277AB4EEE67AF1EE10FA00F11D8251
:104FD000F2EE007AB4EEE77AF1EE10FA00F31882FE
:104FE000DFED4B6ADFED4B7AE7EE267AFCEEE77AEF
:104FF00017EE902A434900230A62337068E12B7848
:105000006BB13D4A3D4913680B930B9B09681268CD
:105010000C924148414A0C9E06605B1A1380384E40
:10502000002233782A7043B9334A344912680A920D
:1050300009680A9A521A322A09D82D4B1B68022B8A
:105040000FD00DF5097DBDEC048BBDE8F08F2D4A26
:105050002B70012382F842303370254B1B68022BE2
:10506000EFD1254B2C4A1B6809931268099B2C4DE4
:105070009B1A312B40F23F812B68B3F58C7FE0DB2C
:105080005A232B600DF5097DBDEC048BBDE8F08F34
:10509000244B002103F5007243F8041B9A42FBD114
:1050A000214A2249DFED226A02F5FC7031F8023F05
:1050B00092ED007A03EB83035B0007EE903AF8EE83
:1050C000E77AA7EEA67AA2EC017A8242EED1CBE68D
:1050D000D03E00203498002000007A4400409C47D5
:1050E000689900206666663FBF3CB6226666863FCA
:1050F000B43E00200C970020B0A50220241C022002
:10510000B03E002010970020753E00200AD7233CB7
:1051100000008047EE7CFF3E2C8C0020584F002082
:10512000403E0020684F0020704F0020DA8C0020A5
:105130006F12833AEC960020C34BC44A03930021BC
:10514000D3ED006A8A46022338F8020F92ED007A06
:1051500007EE900AF8EEE77A77EE877AF4EEE67AD1
:10516000F1EE10FAE2EC017A03DDF0EE676A9A469E
:1051700001210133782BE7D1002940F0A281B44A04
:10518000138801331380B34B1D68012D7FF4E0AE0B
:10519000B14B1B68022B00F0A080049BDB073FF59E
:1051A000DAAEFEF707F9AB4B1D68D1E6A84F3B8896
:1051B000322B7FF6D0AE00262D2301960093314688
:1051C0003E80A64EA64836680696F023282205F0B3
:1051D000F5FD9D4BBAF1000F00F09F801A4692ED4D
:1051E000007A03939F4BDFEDA05AF7EE007A03EBB2
:1051F0008A0377EE277A1A1D514632ED016AC6EE10
:10520000276AF4EEE56AF1EE10FA02DD01390229AF
:10521000F3D1DFED955A04915246B3EC016AC6EE24
:10522000276AF4EEE56AF1EE10FA54DD0132782ACD
:10523000F3D100230593DFF81492DFED8C9A9FEDF4
:105240008C9ACDF81CB00026022702E0039B93ED58
:10525000007AD9ED006A8248C6EE877A4FF4784327
:105260000FFA86FB0093594667EEA97AFDEEE77ABE
:1052700017EE905AC5F155080FFA88F82DB242463C
:105280002B4605F011FCBA4507F1010700F0D2806A
:105290000236782FB6B2A9EC019AD7D1DDF81CB04E
:1052A000BAF1000F5ED1039AD2ED007AB6EE007A21
:1052B00067EE877AC2ED007A4DE633686D4F0E9344
:1052C0000E9A3B68D31AB3F57A7F2DD86A4E33789D
:1052D00001222A70A7E60592ADE75D4A674B128866
:1052E000A3FB02139B0803EB8303D31A9BB2002B8F
:1052F0007FF431AE55E701940123B5F900205848F9
:1053000000930021F02306F0EFF92988544806F0B5
:1053100049F92B6801332B60AFE60393049593EDB5
:10532000007ACDF814A086E74C4B554A1B68002B39
:10533000B8BFFF331B120BFB03F382FB0312DB1717
:10534000C3EB62134FF4FA7202FB03F34D4A1846A3
:105350001360FFF7EBFC33680D930D9AD8F800301B
:105360003A6012E6069B9FED489A3D48002BB8BF75
:10537000FF331B1207EE903AF8EEE77A2D229621C2
:1053800027EE899A08F064F84DF29A61344808F0E3
:105390007BF8DDED047A3248F8EEE77A67EE897A39
:1053A000FDEEE77A17EE901A0CF0D4FC0122374993
:1053B0002B480CF045FC4FF6E071294808F064F8E2
:1053C00007EE90AAF8EEE77A254867EE897AFDEEB7
:1053D000E77A17EE901A0CF0BDFC01222B49204809
:1053E0000CF02EFC4DF29A611D4808F04DF8DDEDF1
:1053F000057A1B48F8EEE77A67EE897AFDEEE77AE0
:1054000017EE901A0CF0A6FC4DE740F28F22F1E562
:105410004FF40022EEE51E4981FB0210D217C2EBC9
:1054200060021B02D21003F4784342F4FC6213437F
:105430009BB22FE54FF6E07000902B46424659464E
:10544000074805F031FB23E7B0970020281A022017
:10545000F44E0020B43E0020EC960020349800204A
:1054600034940020201A0220CDCCCC3D00003442E0
:1054700000000000F4960020B03E0020CDCCCCCC43
:10548000D34D6210C43E00206F12833A08AD010074
:10549000398EE3380D491B0203930D4B81FB02103B
:1054A000D117401A83FB0232039BC00003F47843F8
:1054B00000F4FC60C1EB62020343C2F3C402134375
:1054C000E8E4039BC3ED006A59E600BF5655555505
:1054D000398EE33838B5104B1049114A114D00EBA5
:1054E000400003EB8003012498685B680B60286030
:1054F0001460FDF725FFC8200DF006FA0A4B186866
:10550000FFF714FC094B14201C600DF0FDF9BDE8F9
:105510003840FEF7C3BE00BFA8AA0100649900206E
:1055200088E100E034980020C43E002008E100E05B
:1055300008B50B48FEF7FEF90A4B1868FFF7CAFFDB
:105540000021094805F0F8FD0849094A094B096896
:1055500011604FF480329A61BDE80840FDF7B6BF94
:10556000389800203C3E002034940020AC9C02205F
:10557000EC9600202C1C0220224B234A1B680121A0
:10558000062B10B50446117027D064200DF0BCF92D
:10559000002C35DB0E2CA8BF002420461B4CFFF747
:1055A00099FF1B4B22681B68002A03F1FF3303DBC2
:1055B0009A42D4BF1346002303EB430215492360EC
:1055C00003EB8203194414480D2211F0A7FD124980
:1055D0001248BDE8104004F005B9114A114B10689B
:1055E0004FF4803102284FF000024FF064009961BF
:1055F00004BFD9619A611A620DF086F9002CC9DAEC
:105600000D24CAE74C990020D0190220FC19022071
:1056100058970020685100205C970020B497002024
:10562000EC960020FC97002008B5064804F0B2F87C
:10563000054A064B106800221A70BDE80840FFF7C3
:1056400049BF00BFB49700203C3E0020D019022083
:1056500008B50A4B1B781BB1094B93F8403003B1D6
:1056600008BDFFF7E1FF074B1B78002BF8D0064B76
:105670001868BDE80840FFF77FBF00BFD0190220BF
:10568000B4970020B0960020AC3E00202DE9F041F8
:1056900086B0D0B9954A9649964B12680C6819683D
:1056A0000823EAB9944A12782144002A31D000290B
:1056B00003F1FF336DDB9942C8BF0021002832D1CE
:1056C0008C4B196006B0BDE8F0810128FAD18B4AF5
:1056D0008B498C4B12680C6819680423002AE1D0AE
:1056E000012AEFD1002CEDD021BB874A13781C444E
:1056F00064B2002CC0F283805A2C67DD0C46834BC9
:10570000147001241C60824803F056FA814B1C601F
:105710001DE04A1F012ACAD8012C6AD0013408BFF3
:105720000421013BC7E70128CCD1764B196006B0B4
:10573000BDE8F08103292ED1774A1368E4185AD4C2
:105740000E2CA8BF002420461460FFF7C3FE694B4F
:105750001B68052BB6D1654B1B68012B52D0694BDA
:105760001B68032BAED1654B1B68012BAAD16B4B79
:105770001B78022BA6D16A4A6149136809685B1835
:1057800051D4062BA8BF002318461360FFF7A2FED2
:1057900098E7194692E7012947D1624A13782344D2
:1057A0005BB2002B29DB402BA8BF002318461370E7
:1057B000FFF708FA5C4A5D4B00201060002103F5FA
:1057C000007243F8041B9342FBD1C0E707EE904AF6
:1057D0009FED576ADFED576AB8EEE77ADFED567A4C
:1057E00027EE067AE7EE267AFCEEE77A17EE901AB5
:1057F00085E7072195E70D24A5E73F23D6E7742128
:105800005A247CE74D4B4E4939481A6800680B68AA
:105810001B1802F1FF3204D49342C8BF00230B606F
:105820009DE71346FBE70523AEE702293AD1454E33
:10583000454D33680193019B2A689B1AB3F5FA7FA3
:105840002BD2F92B00F26781642B41F2883328BFF9
:105850004FF4FA633D4A3E4F12683E48396880FB78
:1058600002E0D24303FB0414D20F41F65733C2EBDC
:10587000E0129C424FF47A7000FB02F210DD41F618
:1058800058339442C8BF1C4620463C60FFF74EFA8E
:1058900033680493049B2B6059E74FF4FA73D9E7FC
:1058A0001446F1E704290FD1134B1B78DBB12A49C9
:1058B0002A4A0B780133DBB2A2FB0302520802EB47
:1058C00042029B1A0B7042E707297FF440AF002881
:1058D00048D1234E3368E41800F183800B2CA8BF15
:1058E0000024346033E71C4A137030E7AC97002083
:1058F000489900204C990020414F0020F09600204C
:10590000E84E0020F04E0020C03E002088E100E07C
:105910005C4F002008E100E03C3E0020084F0020E2
:10592000AC3E0020483E002068990020684F0020CF
:105930000AD7233C00000143EE7CFF3E589700202D
:10594000FC190220B0A50220548C002034980020BD
:10595000C43E0020D34D6210201C0220ABAAAAAA8C
:105960004499002001287FF4F2AE6C4E3368032B7B
:1059700043D0042B37D0052B4ED1694A13782344EA
:105980005BB2042B46DD1F2BA8BF052313703368C1
:105990000A2B7FF4DCAE634B634D1B680393039EBD
:1059A0002B68F31AB3F5FA7F07D2F92B00F2B18016
:1059B000632B8CBF04EB4404A40004F0A1FA5B4BFE
:1059C00004A903FB040004F045F904A804F01AFA42
:1059D0000CF06EFF04A804F015FA04F0E1FA2E6052
:1059E000B5E60A247DE7524A137823445BB20E2BB6
:1059F0000EDD242BA8BF0F23C8E74E4A4E4892F96C
:105A000000304E4903705B425BB213700B70BEE70F
:105A10002323BBE71E23B9E7062B0BD1484A1368A3
:105A2000E31813D40E2BA8BF002318461360FFF70A
:105A300051FD336863B9434A1368E31804D4042B57
:105A4000A8BF00231360A2E70323FBE70D23ECE7C5
:105A5000012B09D13C4A1368E31803D4052BA8BFD6
:105A60000023EFE70423EDE7022B09D1374A13683F
:105A7000E31803D4022BA8BF0023E3E70123E1E7E7
:105A8000082B09D1324A1368E31803D4062BA8BFA8
:105A90000023D7E70523D5E7072B0AD12D4A136842
:105AA0002344042B03DD0E2BA8BF0523CAE70D23D7
:105AB000C8E7092B7FF46BAF1A4B1B4D1B68029391
:105AC000DDF808802B68C3EB0803B3F5FA7F1BD21F
:105AD000F92B1BD8632B8BBF0A27C4EB0417674332
