:1000000000000320D1010000AD2E0100652E01008B
:10001000652E0100652E0100652E0100652E010090
:10002000652E0100652E0100652E0100AD2E010038
:10003000AD2E0100652E0100A5430100A944010079
:10004000AD2E0100AD2E0100AD2E0100AD2E010040
:10005000AD2E0100AD2E0100AD2E0100AD2E010030
:10006000AD2E0100AD2E0100AD2E0100AD2E010020
:10007000AD2E0100AD2E0100AD2E0100AD2E010010
:10008000AD2E0100AD2E0100AD2E0100AD2E010000
:10009000AD2E0100AD2E0100AD2E0100AD2E0100F0
:1000A000255E0100315E0100AD2E0100AD2E010084
:1000B000AD2E0100AD2E0100AD2E0100F144010076
:1000C000AD2E01001D460100AD2E01004947010083
:1000D000AD2E010041480100AD2E0100AD2E010002
:1000E000AD2E0100AD2E0100AD2E0100AD2E0100A0
:1000F000AD2E0100AD2E0100AD2E0100AD2E010090
:10010000AD2E0100AD2E0100AD2E0100AD2E01007F
:10011000AD2E01003D350100AD2E0100AD2E0100D8
:10012000AD2E0100AD2E0100AD2E0100AD2E01005F
:10013000AD2E0100AD2E0100AD2E0100AD2E01004F
:100140008D230100AD2E010039490100AD2E0100C3
:10015000AD2E0100AD2E0100AD2E0100AD2E01002F
:10016000AD2E0100AD2E01003D5E0100AD2E01005F
:10017000AD2E0100AD2E0100AD2E0100AD2E01000F
:10018000AD2E0100AD2E0100AD2E0100AD2E0100FF
:10019000AD2E0100AD2E0100314A0100AD2E01004F
:1001A000AD2E0100AD2E0100AD2E0100AD2E0100DF
:1001B000AD2E0100AD2E0100AD2E0100AD2E0100CF
:1001C000AD2E0100AD2E0100AD2E0100AD2E0100BF
:1001D0005C4B4CF2205210B51A804DF628121A8052
:1001E00000BF00BF12F066FE574B4FF030621A603E
:1001F000564A9A60564ADA60564B4FF470021A60BB
:10020000554B564A1A60564A136813F4807304D14A
:1002100054490B604FF4A8531360534B1A781107DD
:1002200003D51A7842F008021A70504B5049AA229E
:100230001A70504A504B8B4204D252F8040F43F8C4
:10024000040BF8E74D4B4E4900228B4202D243F893
:10025000042BFAE74B494C4A002352F8230041F89B
:1002600023000133742BF8D1484B494A802103F80D
:10027000011B9342FBD1474B424A1A60464B8A22EC
:100280001A70A3F5805324225A70A0221A709A790A
:100290009207FCD59A79D406FCD4404A937903F0AE
:1002A0000C03082BFAD13E4B60221A7002331A78E5
:1002B000802AFCD1394B01221A715D225A719A7938
:1002C0009006FCD59979354A4906FBD5354B364918
:1002D00019600021596020231370937903F00C03F7
:1002E0000C2BFAD1314B324A1A60324B324A1A6027
:1002F00000225A60072243F8042C304AC3F80C2D20
:1003000062B612F0BFFF174B1B68DA0705D52C4801
:1003100012F03AFF2B4B2C4A1A602C4B1B785B06D1
:1003200009D5284C284B22689A4204D1244812F05F
:100330002BFF0023236016F08BFB12F0C1FD12F09F
:10034000EFFCFEE70E20054030800440823F0400B1
:100350000100002B88ED00E0002008E0030000858C
:1003600010D0034014D0034002D0074000E0074003
:10037000704C00201CEF0200303D0020704C00202B
:1003800020AA0220003800200000000000E400E065
:1003900064E400E008ED00E0005006400040064044
:1003A00001E007404480044000000602048004404D
:1003B000C010070014E000E01FBF02000000202072
:1003C00096996B5D1CE00340A5C3945A00F007406A
:1003D000FFFFFFFFFFFFFFFFFFFFFFFFFFFFFFFF2D
:1003E000FFFFFFFFFFFFFFFFFFFFFFFFFFFFFFFF1D
:1003F000FFFFFFFFFFFFFFFFFFFFFFFFFFFFFFFF0D
:10040000FFFFFFFFFFFFFFFFFFFFFFFFDEF9FFFF23
:1004100010B5054C237833B9044B13B10448AFF33E
:1004200000800123237010BD704C002000000000EC
:1004300018EF0200084B10B51BB108490848AFF38C
:1004400000800848036803B910BD074B002BFBD0A0
:10045000BDE81040184700BF00000000744C0020A9
:1004600018EF0200704C00200000000012F086BE61
:1004700010B5044B044640F8183B0BF063F92046D6
:1004800010BD00BFB8EE010010B5044611F036FFF4
:10049000204610BD214B10B49A6913685068197832
:1004A0000478507A137A044201EA03011BD0937A4C
:1004B00003F0030309B143F0040343F00803991068
:1004C000013B91720D2B0BD8DFE803F021071B07CE
:1004D0000A152121150A071B0721D368013BD360A8
:1004E0005DF8044B7047937A03F003030029E6D0CC
:1004F00043F00403E3E7D3685DF8044B023BD360A9
:100500007047D3685DF8044B0233D3607047D368FB
:100510005DF8044B0133D360704700BFB49C0220E8
:10052000214B10B4DA691368506819780478507A4E
:10053000137A044201EA03011BD0937A03F0030308
:1005400009B143F0040343F008039910013B917291
:100550000D2B0BD8DFE803F021071B070A1521211B
:10056000150A071B0721D368013BD3605DF8044BD4
:100570007047937A03F003030029E6D043F00403A5
:10058000E3E7D3685DF8044B023BD3607047D36860
:100590005DF8044B0233D3607047D3685DF8044BB9
:1005A0000133D360704700BFB49C0220214B10B4CC
:1005B0001A6A1368506819780478507A137A0442DA
:1005C00001EA03011BD0937A03F0030309B143F05E
:1005D000040343F008039910013B91720D2B0BD8D3
:1005E000DFE803F021071B070A152121150A071B65
:1005F0000721D368013BD3605DF8044B7047937AC1
:1006000003F003030029E6D043F00403E3E7D368D3
:100610005DF8044B023BD3607047D3685DF8044B30
:100620000233D3607047D3685DF8044B0133D36065
:10063000704700BFB49C0220214B10B45A6A136863
:10064000506819780478507A137A044201EA030159
:100650001BD0937A03F0030309B143F0040343F082
:1006600008039910013B91720D2B0BD8DFE803F0C2
:1006700021071B070A152121150A071B0721D3682B
:10068000013BD3605DF8044B7047937A03F003039A
:100690000029E6D043F00403E3E7D3685DF8044B98
:1006A000023BD3607047D3685DF8044B0233D360DC
:1006B0007047D3685DF8044B0133D360704700BFC7
:1006C000B49C0220214B10B49A6A136850681978C0
:1006D0000478507A137A044201EA03011BD0937A1A
:1006E00003F0030309B143F0040343F00803991036
:1006F000013B91720D2B0BD8DFE803F021071B079C
:100700000A152121150A071B0721D368013BD36075
:100710005DF8044B7047937A03F003030029E6D099
:1007200043F00403E3E7D3685DF8044B023BD36076
:100730007047D3685DF8044B0233D3607047D368C9
:100740005DF8044B0133D360704700BFB49C0220B6
:10075000214B10B4DA6A1368506819780478507A1B
:10076000137A044201EA03011BD0937A03F00303D6
:1007700009B143F0040343F008039910013B91725F
:100780000D2B0BD8DFE803F021071B070A152121E9
:10079000150A071B0721D368013BD3605DF8044BA2
:1007A0007047937A03F003030029E6D043F0040373
:1007B000E3E7D3685DF8044B023BD3607047D3682E
:1007C0005DF8044B0233D3607047D3685DF8044B87
:1007D0000133D360704700BFB49C0220214B10B49A
:1007E0001A6B1368506819780478507A137A0442A7
:1007F00001EA03011BD0937A03F0030309B143F02C
:10080000040343F008039910013B91720D2B0BD8A0
:10081000DFE803F021071B070A152121150A071B32
:100820000721D368013BD3605DF8044B7047937A8E
:1008300003F003030029E6D043F00403E3E7D368A1
:100840005DF8044B023BD3607047D3685DF8044BFE
:100850000233D3607047D3685DF8044B0133D36033
:10086000704700BFB49C0220214B10B45A6B136830
:10087000506819780478507A137A044201EA030127
:100880001BD0937A03F0030309B143F0040343F050
:1008900008039910013B91720D2B0BD8DFE803F090
:1008A00021071B070A152121150A071B0721D368F9
:1008B000013BD3605DF8044B7047937A03F0030368
:1008C0000029E6D043F00403E3E7D3685DF8044B66
:1008D000023BD3607047D3685DF8044B0233D360AA
:1008E0007047D3685DF8044B0133D360704700BF95
:1008F000B49C0220214B10B49A6B1368506819788D
:100900000478507A137A044201EA03011BD0937AE7
:1009100003F0030309B143F0040343F00803991003
:10092000013B91720D2B0BD8DFE803F021071B0769
:100930000A152121150A071B0721D368013BD36043
:100940005DF8044B7047937A03F003030029E6D067
:1009500043F00403E3E7D3685DF8044B023BD36044
:100960007047D3685DF8044B0233D3607047D36897
:100970005DF8044B0133D360704700BFB49C022084
:10098000214B10B4DA6B1368506819780478507AE8
:10099000137A044201EA03011BD0937A03F00303A4
:1009A00009B143F0040343F008039910013B91722D
:1009B0000D2B0BD8DFE803F021071B070A152121B7
:1009C000150A071B0721D368013BD3605DF8044B70
:1009D0007047937A03F003030029E6D043F0040341
:1009E000E3E7D3685DF8044B023BD3607047D368FC
:1009F0005DF8044B0233D3607047D3685DF8044B55
:100A00000133D360704700BFB49C0220214B10B467
:100A10001A6C1368506819780478507A137A044273
:100A200001EA03011BD0937A03F0030309B143F0F9
:100A3000040343F008039910013B91720D2B0BD86E
:100A4000DFE803F021071B070A152121150A071B00
:100A50000721D368013BD3605DF8044B7047937A5C
:100A600003F003030029E6D043F00403E3E7D3686F
:100A70005DF8044B023BD3607047D3685DF8044BCC
:100A80000233D3607047D3685DF8044B0133D36001
:100A9000704700BFB49C0220214B10B45A6C1368FD
:100AA000506819780478507A137A044201EA0301F5
:100AB0001BD0937A03F0030309B143F0040343F01E
:100AC00008039910013B91720D2B0BD8DFE803F05E
:100AD00021071B070A152121150A071B0721D368C7
:100AE000013BD3605DF8044B7047937A03F0030336
:100AF0000029E6D043F00403E3E7D3685DF8044B34
:100B0000023BD3607047D3685DF8044B0233D36077
:100B10007047D3685DF8044B0133D360704700BF62
:100B2000B49C0220214B10B49A6C13685068197859
:100B30000478507A137A044201EA03011BD0937AB5
:100B400003F0030309B143F0040343F008039910D1
:100B5000013B91720D2B0BD8DFE803F021071B0737
:100B60000A152121150A071B0721D368013BD36011
:100B70005DF8044B7047937A03F003030029E6D035
:100B800043F00403E3E7D3685DF8044B023BD36012
:100B90007047D3685DF8044B0233D3607047D36865
:100BA0005DF8044B0133D360704700BFB49C022052
:100BB000214B10B4DA6C1368506819780478507AB5
:100BC000137A044201EA03011BD0937A03F0030372
:100BD00009B143F0040343F008039910013B9172FB
:100BE0000D2B0BD8DFE803F021071B070A15212185
:100BF000150A071B0721D368013BD3605DF8044B3E
:100C00007047937A03F003030029E6D043F004030E
:100C1000E3E7D3685DF8044B023BD3607047D368C9
:100C20005DF8044B0233D3607047D3685DF8044B22
:100C30000133D360704700BFB49C0220214B10B435
:100C40001A6D1368506819780478507A137A044240
:100C500001EA03011BD0937A03F0030309B143F0C7
:100C6000040343F008039910013B91720D2B0BD83C
:100C7000DFE803F021071B070A152121150A071BCE
:100C80000721D368013BD3605DF8044B7047937A2A
:100C900003F003030029E6D043F00403E3E7D3683D
:100CA0005DF8044B023BD3607047D3685DF8044B9A
:100CB0000233D3607047D3685DF8044B0133D360CF
:100CC000704700BFB49C0220214B10B45A6D1368CA
:100CD000506819780478507A137A044201EA0301C3
:100CE0001BD0937A03F0030309B143F0040343F0EC
:100CF00008039910013B91720D2B0BD8DFE803F02C
:100D000021071B070A152121150A071B0721D36894
:100D1000013BD3605DF8044B7047937A03F0030303
:100D20000029E6D043F00403E3E7D3685DF8044B01
:100D3000023BD3607047D3685DF8044B0233D36045
:100D40007047D3685DF8044B0133D360704700BF30
:100D5000B49C0220214B10B49A6D13685068197826
:100D60000478507A137A044201EA03011BD0937A83
:100D700003F0030309B143F0040343F0080399109F
:100D8000013B91720D2B0BD8DFE803F021071B0705
:100D90000A152121150A071B0721D368013BD360DF
:100DA0005DF8044B7047937A03F003030029E6D003
:100DB00043F00403E3E7D3685DF8044B023BD360E0
:100DC0007047D3685DF8044B0233D3607047D36833
:100DD0005DF8044B0133D360704700BFB49C022020
:100DE000214B10B4DA6D1368506819780478507A82
:100DF000137A044201EA03011BD0937A03F0030340
:100E000009B143F0040343F008039910013B9172C8
:100E10000D2B0BD8DFE803F021071B070A15212152
:100E2000150A071B0721D368013BD3605DF8044B0B
:100E30007047937A03F003030029E6D043F00403DC
:100E4000E3E7D3685DF8044B023BD3607047D36897
:100E50005DF8044B0233D3607047D3685DF8044BF0
:100E60000133D360704700BFB49C0220214B10B403
:100E70001A6E1368506819780478507A137A04420D
:100E800001EA03011BD0937A03F0030309B143F095
:100E9000040343F008039910013B91720D2B0BD80A
:100EA000DFE803F021071B070A152121150A071B9C
:100EB0000721D368013BD3605DF8044B7047937AF8
:100EC00003F003030029E6D043F00403E3E7D3680B
:100ED0005DF8044B023BD3607047D3685DF8044B68
:100EE0000233D3607047D3685DF8044B0133D3609D
:100EF000704700BFB49C0220214B10B45A6E136897
:100F0000506819780478507A137A044201EA030190
:100F10001BD0937A03F0030309B143F0040343F0B9
:100F200008039910013B91720D2B0BD8DFE803F0F9
:100F300021071B070A152121150A071B0721D36862
:100F4000013BD3605DF8044B7047937A03F00303D1
:100F50000029E6D043F00403E3E7D3685DF8044BCF
:100F6000023BD3607047D3685DF8044B0233D36013
:100F70007047D3685DF8044B0133D360704700BFFE
:100F8000B49C0220214B10B49A6E136850681978F3
:100F90000478507A137A044201EA03011BD0937A51
:100FA00003F0030309B143F0040343F0080399106D
:100FB000013B91720D2B0BD8DFE803F021071B07D3
:100FC0000A152121150A071B0721D368013BD360AD
:100FD0005DF8044B7047937A03F003030029E6D0D1
:100FE00043F00403E3E7D3685DF8044B023BD360AE
:100FF0007047D3685DF8044B0233D3607047D36801
:101000005DF8044B0133D360704700BFB49C0220ED
:10101000214B10B4DA6E1368506819780478507A4E
:10102000137A044201EA03011BD0937A03F003030D
:1010300009B143F0040343F008039910013B917296
:101040000D2B0BD8DFE803F021071B070A15212120
:10105000150A071B0721D368013BD3605DF8044BD9
:101060007047937A03F003030029E6D043F00403AA
:10107000E3E7D3685DF8044B023BD3607047D36865
:101080005DF8044B0233D3607047D3685DF8044BBE
:101090000133D360704700BFB49C0220214B10B4D1
:1010A0001A6F1368506819780478507A137A0442DA
:1010B00001EA03011BD0937A03F0030309B143F063
:1010C000040343F008039910013B91720D2B0BD8D8
:1010D000DFE803F021071B070A152121150A071B6A
:1010E0000721D368013BD3605DF8044B7047937AC6
:1010F00003F003030029E6D043F00403E3E7D368D9
:101100005DF8044B023BD3607047D3685DF8044B35
:101110000233D3607047D3685DF8044B0133D3606A
:10112000704700BFB49C0220214B10B45A6F136863
:10113000506819780478507A137A044201EA03015E
:101140001BD0937A03F0030309B143F0040343F087
:1011500008039910013B91720D2B0BD8DFE803F0C7
:1011600021071B070A152121150A071B0721D36830
:10117000013BD3605DF8044B7047937A03F003039F
:101180000029E6D043F00403E3E7D3685DF8044B9D
:10119000023BD3607047D3685DF8044B0233D360E1
:1011A0007047D3685DF8044B0133D360704700BFCC
:1011B000B49C0220214B10B49A6F136850681978C0
:1011C0000478507A137A044201EA03011BD0937A1F
:1011D00003F0030309B143F0040343F0080399103B
:1011E000013B91720D2B0BD8DFE803F021071B07A1
:1011F0000A152121150A071B0721D368013BD3607B
:101200005DF8044B7047937A03F003030029E6D09E
:1012100043F00403E3E7D3685DF8044B023BD3607B
:101220007047D3685DF8044B0233D3607047D368CE
:101230005DF8044B0133D360704700BFB49C0220BB
:10124000214B10B4DA6F1368506819780478507A1B
:10125000137A044201EA03011BD0937A03F00303DB
:1012600009B143F0040343F008039910013B917264
:101270000D2B0BD8DFE803F021071B070A152121EE
:10128000150A071B0721D368013BD3605DF8044BA7
:101290007047937A03F003030029E6D043F0040378
:1012A000E3E7D3685DF8044B023BD3607047D36833
:1012B0005DF8044B0233D3607047D3685DF8044B8C
:1012C0000133D360704700BFB49C0220214B10B49F
:1012D000D3F880201368506819780478507A137A0C
:1012E000044201EA03011BD0937A03F0030309B11E
:1012F00043F0040343F008039910013B91720D2B56
:101300000BD8DFE803F021071B070A152121150A76
:10131000071B0721D368013BD3605DF8044B70477E
:10132000937A03F003030029E6D043F00403E3E7D4
:10133000D3685DF8044B023BD3607047D3685DF817
:10134000044B0233D3607047D3685DF8044B01331C
:10135000D3607047B49C0220214B10B4D3F8842092
:101360001368506819780478507A137A044201EAB5
:1013700003011BD0937A03F0030309B143F0040384
:1013800043F008039910013B91720D2B0BD8DFE855
:1013900003F021071B070A152121150A071B072146
:1013A000D368013BD3605DF8044B7047937A03F038
:1013B00003030029E6D043F00403E3E7D3685DF8B4
:1013C000044B023BD3607047D3685DF8044B023393
:1013D000D3607047D3685DF8044B0133D360704726
:1013E000B49C0220214B10B4D3F8882013685068B5
:1013F00019780478507A137A044201EA03011BD069
:10140000937A03F0030309B143F0040343F00803A4
:101410009910013B91720D2B0BD8DFE803F02107E7
:101420001B070A152121150A071B0721D368013B59
:10143000D3605DF8044B7047937A03F003030029EF
:10144000E6D043F00403E3E7D3685DF8044B023BC6
:10145000D3607047D3685DF8044B0233D3607047A4
:10146000D3685DF8044B0133D3607047B49C02200D
:10147000214B10B4D3F88C20136850681978047885
:10148000507A137A044201EA03011BD0937A03F0E5
:10149000030309B143F0040343F008039910013B2F
:1014A00091720D2B0BD8DFE803F021071B070A15FB
:1014B0002121150A071B0721D368013BD3605DF882
:1014C000044B7047937A03F003030029E6D043F0FE
:1014D0000403E3E7D3685DF8044B023BD360704735
:1014E000D3685DF8044B0233D3607047D3685DF86E
:1014F000044B0133D3607047B49C0220214B10B4DD
:10150000D3F890201368506819780478507A137AC9
:10151000044201EA03011BD0937A03F0030309B1EB
:1015200043F0040343F008039910013B91720D2B23
:101530000BD8DFE803F021071B070A152121150A44
:10154000071B0721D368013BD3605DF8044B70474C
:10155000937A03F003030029E6D043F00403E3E7A2
:10156000D3685DF8044B023BD3607047D3685DF8E5
:10157000044B0233D3607047D3685DF8044B0133EA
:10158000D3607047B49C0220214B10B4D3F8942050
:101590001368506819780478507A137A044201EA83
:1015A00003011BD0937A03F0030309B143F0040352
:1015B00043F008039910013B91720D2B0BD8DFE823
:1015C00003F021071B070A152121150A071B072114
:1015D000D368013BD3605DF8044B7047937A03F006
:1015E00003030029E6D043F00403E3E7D3685DF882
:1015F000044B023BD3607047D3685DF8044B023361
:10160000D3607047D3685DF8044B0133D3607047F3
:10161000B49C0220214B10B4D3F8E8201368506822
:1016200019780478507A137A044201EA03011BD036
:10163000937A03F0030309B143F0040343F0080372
:101640009910013B91720D2B0BD8DFE803F02107B5
:101650001B070A152121150A071B0721D368013B27
:10166000D3605DF8044B7047937A03F003030029BD
:10167000E6D043F00403E3E7D3685DF8044B023B94
:10168000D3607047D3685DF8044B0233D360704772
:10169000D3685DF8044B0133D3607047B49C0220DB
:1016A000214B10B4D3F8EC201368506819780478F3
:1016B000507A137A044201EA03011BD0937A03F0B3
:1016C000030309B143F0040343F008039910013BFD
:1016D00091720D2B0BD8DFE803F021071B070A15C9
:1016E0002121150A071B0721D368013BD3605DF850
:1016F000044B7047937A03F003030029E6D043F0CC
:101700000403E3E7D3685DF8044B023BD360704702
:10171000D3685DF8044B0233D3607047D3685DF83B
:10172000044B0133D3607047B49C0220214B10B4AA
:10173000D3F8D8201368506819780478507A137A4F
:10174000044201EA03011BD0937A03F0030309B1B9
:1017500043F0040343F008039910013B91720D2BF1
:101760000BD8DFE803F021071B070A152121150A12
:10177000071B0721D368013BD3605DF8044B70471A
:10178000937A03F003030029E6D043F00403E3E770
:10179000D3685DF8044B023BD3607047D3685DF8B3
:1017A000044B0233D3607047D3685DF8044B0133B8
:1017B000D3607047B49C0220214B10B4D3F8DC20D6
:1017C0001368506819780478507A137A044201EA51
:1017D00003011BD0937A03F0030309B143F0040320
:1017E00043F008039910013B91720D2B0BD8DFE8F1
:1017F00003F021071B070A152121150A071B0721E2
:10180000D368013BD3605DF8044B7047937A03F0D3
:1018100003030029E6D043F00403E3E7D3685DF84F
:10182000044B023BD3607047D3685DF8044B02332E
:10183000D3607047D3685DF8044B0133D3607047C1
:10184000B49C0220214B10B4D3F8E02013685068F8
:1018500019780478507A137A044201EA03011BD004
:10186000937A03F0030309B143F0040343F0080340
:101870009910013B91720D2B0BD8DFE803F0210783
:101880001B070A152121150A071B0721D368013BF5
:10189000D3605DF8044B7047937A03F0030300298B
:1018A000E6D043F00403E3E7D3685DF8044B023B62
:1018B000D3607047D3685DF8044B0233D360704740
:1018C000D3685DF8044B0133D3607047B49C0220A9
:1018D000214B10B4D3F8E4201368506819780478C9
:1018E000507A137A044201EA03011BD0937A03F081
:1018F000030309B143F0040343F008039910013BCB
:1019000091720D2B0BD8DFE803F021071B070A1596
:101910002121150A071B0721D368013BD3605DF81D
:10192000044B7047937A03F003030029E6D043F099
:101930000403E3E7D3685DF8044B023BD3607047D0
:10194000D3685DF8044B0233D3607047D3685DF809
:10195000044B0133D3607047B49C0220214B10B478
:10196000D3F898201368506819780478507A137A5D
:10197000044201EA03011BD0937A03F0030309B187
:1019800043F0040343F008039910013B91720D2BBF
:101990000BD8DFE803F021071B070A152121150AE0
:1019A000071B0721D368013BD3605DF8044B7047E8
:1019B000937A03F003030029E6D043F00403E3E73E
:1019C000D3685DF8044B023BD3607047D3685DF881
:1019D000044B0233D3607047D3685DF8044B013386
:1019E000D3607047B49C0220214B10B4D3F89C20E4
:1019F0001368506819780478507A137A044201EA1F
:101A000003011BD0937A03F0030309B143F00403ED
:101A100043F008039910013B91720D2B0BD8DFE8BE
:101A200003F021071B070A152121150A071B0721AF
:101A3000D368013BD3605DF8044B7047937A03F0A1
:101A400003030029E6D043F00403E3E7D3685DF81D
:101A5000044B023BD3607047D3685DF8044B0233FC
:101A6000D3607047D3685DF8044B0133D36070478F
:101A7000B49C0220214B10B4D3F8A0201368506806
:101A800019780478507A137A044201EA03011BD0D2
:101A9000937A03F0030309B143F0040343F008030E
:101AA0009910013B91720D2B0BD8DFE803F0210751
:101AB0001B070A152121150A071B0721D368013BC3
:101AC000D3605DF8044B7047937A03F00303002959
:101AD000E6D043F00403E3E7D3685DF8044B023B30
:101AE000D3607047D3685DF8044B0233D36070470E
:101AF000D3685DF8044B0133D3607047B49C022077
:101B0000214B10B4D3F8A4201368506819780478D6
:101B1000507A137A044201EA03011BD0937A03F04E
:101B2000030309B143F0040343F008039910013B98
:101B300091720D2B0BD8DFE803F021071B070A1564
:101B40002121150A071B0721D368013BD3605DF8EB
:101B5000044B7047937A03F003030029E6D043F067
:101B60000403E3E7D3685DF8044B023BD36070479E
:101B7000D3685DF8044B0233D3607047D3685DF8D7
:101B8000044B0133D3607047B49C0220214B10B446
:101B9000D3F8A8201368506819780478507A137A1B
:101BA000044201EA03011BD0937A03F0030309B155
:101BB00043F0040343F008039910013B91720D2B8D
:101BC0000BD8DFE803F021071B070A152121150AAE
:101BD000071B0721D368013BD3605DF8044B7047B6
:101BE000937A03F003030029E6D043F00403E3E70C
:101BF000D3685DF8044B023BD3607047D3685DF84F
:101C0000044B0233D3607047D3685DF8044B013353
:101C1000D3607047B49C0220214B10B4D3F8AC20A1
:101C20001368506819780478507A137A044201EAEC
:101C300003011BD0937A03F0030309B143F00403BB
:101C400043F008039910013B91720D2B0BD8DFE88C
:101C500003F021071B070A152121150A071B07217D
:101C6000D368013BD3605DF8044B7047937A03F06F
:101C700003030029E6D043F00403E3E7D3685DF8EB
:101C8000044B023BD3607047D3685DF8044B0233CA
:101C9000D3607047D3685DF8044B0133D36070475D
:101CA000B49C0220214B10B4D3F8B02013685068C4
:101CB00019780478507A137A044201EA03011BD0A0
:101CC000937A03F0030309B143F0040343F00803DC
:101CD0009910013B91720D2B0BD8DFE803F021071F
:101CE0001B070A152121150A071B0721D368013B91
:101CF000D3605DF8044B7047937A03F00303002927
:101D0000E6D043F00403E3E7D3685DF8044B023BFD
:101D1000D3607047D3685DF8044B0233D3607047DB
:101D2000D3685DF8044B0133D3607047B49C022044
:101D3000214B10B4D3F8B420136850681978047894
:101D4000507A137A044201EA03011BD0937A03F01C
:101D5000030309B143F0040343F008039910013B66
:101D600091720D2B0BD8DFE803F021071B070A1532
:101D70002121150A071B0721D368013BD3605DF8B9
:101D8000044B7047937A03F003030029E6D043F035
:101D90000403E3E7D3685DF8044B023BD36070476C
:101DA000D3685DF8044B0233D3607047D3685DF8A5
:101DB000044B0133D3607047B49C0220214B10B414
:101DC000D3F8B8201368506819780478507A137AD9
:101DD000044201EA03011BD0937A03F0030309B123
:101DE00043F0040343F008039910013B91720D2B5B
:101DF0000BD8DFE803F021071B070A152121150A7C
:101E0000071B0721D368013BD3605DF8044B704783
:101E1000937A03F003030029E6D043F00403E3E7D9
:101E2000D3685DF8044B023BD3607047D3685DF81C
:101E3000044B0233D3607047D3685DF8044B013321
:101E4000D3607047B49C0220214B10B4D3F8BC205F
:101E50001368506819780478507A137A044201EABA
:101E600003011BD0937A03F0030309B143F0040389
:101E700043F008039910013B91720D2B0BD8DFE85A
:101E800003F021071B070A152121150A071B07214B
:101E9000D368013BD3605DF8044B7047937A03F03D
:101EA00003030029E6D043F00403E3E7D3685DF8B9
:101EB000044B023BD3607047D3685DF8044B023398
:101EC000D3607047D3685DF8044B0133D36070472B
:101ED000B49C0220214B10B4D3F8C0201368506882
:101EE00019780478507A137A044201EA03011BD06E
:101EF000937A03F0030309B143F0040343F00803AA
:101F00009910013B91720D2B0BD8DFE803F02107EC
:101F10001B070A152121150A071B0721D368013B5E
:101F2000D3605DF8044B7047937A03F003030029F4
:101F3000E6D043F00403E3E7D3685DF8044B023BCB
:101F4000D3607047D3685DF8044B0233D3607047A9
:101F5000D3685DF8044B0133D3607047B49C022012
:101F6000214B10B4D3F8C420136850681978047852
:101F7000507A137A044201EA03011BD0937A03F0EA
:101F8000030309B143F0040343F008039910013B34
:101F900091720D2B0BD8DFE803F021071B070A1500
:101FA0002121150A071B0721D368013BD3605DF887
:101FB000044B7047937A03F003030029E6D043F003
:101FC0000403E3E7D3685DF8044B023BD36070473A
:101FD000D3685DF8044B0233D3607047D3685DF873
:101FE000044B0133D3607047B49C0220214B10B4E2
:101FF000D3F8C8201368506819780478507A137A97
:10200000044201EA03011BD0937A03F0030309B1F0
:1020100043F0040343F008039910013B91720D2B28
:102020000BD8DFE803F021071B070A152121150A49
:10203000071B0721D368013BD3605DF8044B704751
:10204000937A03F003030029E6D043F00403E3E7A7
:10205000D3685DF8044B023BD3607047D3685DF8EA
:10206000044B0233D3607047D3685DF8044B0133EF
:10207000D3607047B49C0220214B10B4D3F8CC201D
:102080001368506819780478507A137A044201EA88
:1020900003011BD0937A03F0030309B143F0040357
:1020A00043F008039910013B91720D2B0BD8DFE828
:1020B00003F021071B070A152121150A071B072119
:1020C000D368013BD3605DF8044B7047937A03F00B
:1020D00003030029E6D043F00403E3E7D3685DF887
:1020E000044B023BD3607047D3685DF8044B023366
:1020F000D3607047D3685DF8044B0133D3607047F9
:10210000B49C0220214B10B4D3F8D020136850683F
:1021100019780478507A137A044201EA03011BD03B
:10212000937A03F0030309B143F0040343F0080377
:102130009910013B91720D2B0BD8DFE803F02107BA
:102140001B070A152121150A071B0721D368013B2C
:10215000D3605DF8044B7047937A03F003030029C2
:10216000E6D043F00403E3E7D3685DF8044B023B99
:10217000D3607047D3685DF8044B0233D360704777
:10218000D3685DF8044B0133D3607047B49C0220E0
:10219000214B10B4D3F8D420136850681978047810
:1021A000507A137A044201EA03011BD0937A03F0B8
:1021B000030309B143F0040343F008039910013B02
:1021C00091720D2B0BD8DFE803F021071B070A15CE
:1021D0002121150A071B0721D368013BD3605DF855
:1021E000044B7047937A03F003030029E6D043F0D1
:1021F0000403E3E7D3685DF8044B023BD360704708
:10220000D3685DF8044B0233D3607047D3685DF840
:10221000044B0133D3607047B49C0220214B10B4AF
:102220001A681368506819780478507A137A04424F
:1022300001EA03011BD0937A03F0030309B143F0D1
:10224000040343F008039910013B91720D2B0BD846
:10225000DFE803F021071B070A152121150A071BD8
:102260000721D368013BD3605DF8044B7047937A34
:1022700003F003030029E6D043F00403E3E7D36847
:102280005DF8044B023BD3607047D3685DF8044BA4
:102290000233D3607047D3685DF8044B0133D360D9
:1022A000704700BFB49C0220214B10B45A681368D9
:1022B000506819780478507A137A044201EA0301CD
:1022C0001BD0937A03F0030309B143F0040343F0F6
:1022D00008039910013B91720D2B0BD8DFE803F036
:1022E00021071B070A152121150A071B0721D3689F
:1022F000013BD3605DF8044B7047937A03F003030E
:102300000029E6D043F00403E3E7D3685DF8044B0B
:10231000023BD3607047D3685DF8044B0233D3604F
:102320007047D3685DF8044B0133D360704700BF3A
:10233000B49C0220214B10B49A6813685068197835
:102340000478507A137A044201EA03011BD0937A8D
:1023500003F0030309B143F0040343F008039910A9
:10236000013B91720D2B0BD8DFE803F021071B070F
:102370000A152121150A071B0721D368013BD360E9
:102380005DF8044B7047937A03F003030029E6D00D
:1023900043F00403E3E7D3685DF8044B023BD360EA
:1023A0007047D3685DF8044B0233D3607047D3683D
:1023B0005DF8044B0133D360704700BFB49C02202A
:1023C000214B10B4DA681368506819780478507A91
:1023D000137A044201EA03011BD0937A03F003034A
:1023E00009B143F0040343F008039910013B9172D3
:1023F0000D2B0BD8DFE803F021071B070A1521215D
:10240000150A071B0721D368013BD3605DF8044B15
:102410007047937A03F003030029E6D043F00403E6
:10242000E3E7D3685DF8044B023BD3607047D368A1
:102430005DF8044B0233D3607047D3685DF8044BFA
:102440000133D360704700BFB49C0220214B10B40D
:102450001A691368506819780478507A137A04421C
:1024600001EA03011BD0937A03F0030309B143F09F
:10247000040343F008039910013B91720D2B0BD814
:10248000DFE803F021071B070A152121150A071BA6
:102490000721D368013BD3605DF8044B7047937A02
:1024A00003F003030029E6D043F00403E3E7D36815
:1024B0005DF8044B023BD3607047D3685DF8044B72
:1024C0000233D3607047D3685DF8044B0133D360A7
:1024D000704700BFB49C0220214B10B45A691368A6
:1024E000506819780478507A137A044201EA03019B
:1024F0001BD0937A03F0030309B143F0040343F0C4
:1025000008039910013B91720D2B0BD8DFE803F003
:1025100021071B070A152121150A071B0721D3686C
:10252000013BD3605DF8044B7047937A03F00303DB
:102530000029E6D043F00403E3E7D3685DF8044BD9
:10254000023BD3607047D3685DF8044B0233D3601D
:102550007047D3685DF8044B0133D360704700BF08
:10256000B49C0220002310B4114C4172026104603B
:102570000372C36041B1194600E0026942F82310BA
:10258000427A01339A42F8DC0A4B1A680AB90CE025
:102590001A465369002BFBD15061002343618380AD
:1025A000C38083725DF8044B70471860F5E700BF85
:1025B000DCB2010024A50220F8B5044615460E46FB
:1025C0000846022110F006FE2846022110F002FE05
:1025D000984A994B52F83610012001F50077276090
:1025E000207252F83520607202F500770020676093
:1025F000E060013BFDD191F8003292F8002203F037
:102600000103D20744BF43F00203DBB2A3723B2EA7
:1026100000F20386DFE816F0F405EA05E005D605CA
:10262000CC05C205B805AE05A4059A05900586053A
:102630007C05720568055E0554054A0540053605AA
:102640002C05220518050E050405FA04F004E6041D
:10265000DC04D204C804BE04B304A8049D0492049C
:1026600087047C0428041E0414040A040004F603EE
:10267000EC03E203D803CE03C403BA03B003A603FA
:102680009C03920388037E0374036A0360033C0087
:102690006A4B6B49C3F8EC4004223B2010F0F2FC7B
:1026A000012323743B2D00F2B585DFE815F00B0301
:1026B0000103F702ED02E302D902CF02C502BB0219
:1026C000B102A7029D02930289027F023102270212
:1026D0001D0213020902FF01F501EB01E101D7011F
:1026E000CD01C301B901AF01A5019B019101860193
:1026F0007B01700165015A014F01440139012E012E
:10270000230118010D010201F700EC00E100B800FF
:10271000AD00A20097008C00810076006B00600085
:1027200055004A003C00454B4549C3F8EC400422A3
:102730003B2010F0A7FC237C012213442374204685
:10274000F8BD3E4B3F49C3F8E84004223A2010F060
:1027500099FC237C0122F0E7384B3B49C3F8E44065
:102760000422392010F08EFC237C0122E5E7334B54
:102770003649C3F8E0400422382010F083FC237C63
:102780000122DAE72D4B3249C3F8DC40042237201E
:1027900010F078FC237C0122CFE7284B2D49C3F8A9
:1027A000D8400422362010F06DFC237C0122C4E7BF
:1027B000224B2949C3F8D4400422352010F062FC92
:1027C000237C0122B9E71D4B2449C3F8D0400422E1
:1027D000342010F057FC237C0122AEE7174B204930
:1027E000C3F8CC400422332010F04CFC237C01229F
:1027F000A3E7124B1B49C3F8C8400422322010F053
:1028000041FC237C012298E70C4B1749C3F8C440D4
:102810000422312010F036FC237C01228DE7074B87
:102820001249C3F8C0400422302010F02BFC237C56
:10283000012282E774EF0100C0D40100B49C0220A1
:10284000A116000015160000D11800004518000060
:10285000B91700002D17000091210000052100008C
:1028600079200000ED1F0000611F0000D51E000050
:10287000AC4BAD49C3F8BC4004222F2010F002FC41
:10288000237C012259E7A74BA849C3F8B84004228A
:102890002E2010F0F7FB237C01224EE7A14BA44928
:1028A000C3F8B44004222D2010F0ECFB237C01225D
:1028B00043E79C4B9F49C3F8B04004222C2010F002
:1028C000E1FB237C012238E7964B9B49C3F8AC40DF
:1028D00004222B2010F0D6FB237C01222DE7914B04
:1028E0009649C3F8A84004222A2010F0CBFB237C91
:1028F000012222E78B4B9249C3F8A44004222920ED
:1029000010F0C0FB237C012217E7864B8D49C3F8EA
:10291000A0400422282010F0B5FB237C01220CE704
:10292000804B8949C3F89C400422272010F0AAFB61
:10293000237C012201E77B4B8449C3F898400422A1
:10294000262010F09FFB237C0122F6E6754B804980
:10295000C3F894400422252010F094FB237C01222C
:10296000EBE6704B7B49C3F890400422242010F022
:1029700089FB237C0122E0E66A4B7749C3F88C404F
:102980000422232010F07EFB237C0122D5E6654B38
:102990007249C3F888400422222010F073FB237C84
:1029A0000122CAE65F4B6E49C3F88440042221200D
:1029B00010F068FB237C0122BFE65A4B6949C3F83B
:1029C00080400422202010F05DFB237C0122B4E62D
:1029D000544B6549DC6704221F2010F053FB237C15
:1029E0000122AAE64F4B61499C6704221E2010F089
:1029F00049FB237C0122A0E64A4B5D495C67042227
:102A00001D2010F03FFB237C012296E6454B5949DF
:102A10001C6704221C2010F035FB237C01228CE66D
:102A2000404B5549DC6604221B2010F02BFB237C15
:102A3000012282E63B4B51499C6604221A2010F089
:102A400021FB237C012278E6364B4D495C6604224B
:102A5000192010F017FB237C01226EE6314B494907
:102A60001C660422182010F00DFB237C012264E672
:102A70002C4B4549DC650422172010F003FB237C16
:102A800001225AE6274B41499C650422162010F08A
:102A9000F9FA237C012250E6224B3D495C65042271
:102AA000152010F0EFFA237C012246E61D4B394930
:102AB0001C650422142010F0E5FA237C01223CE678
:102AC000184B3549DC640422132010F0DBFA237C18
:102AD000012232E6134B31499C640422122010F08B
:102AE000D1FA237C012228E60E4B2D495C64042296
:102AF000112010F0C7FA237C01221EE6094B294958
:102B00001C640422102010F0BDFA237C012214E67C
:102B1000044B2549DC6304220F2010F0B3FA237C18
:102B200001220AE6B49C0220491E0000BD1D0000DF
:102B3000311D0000A51C0000191C00008D1B0000A9
:102B4000011B0000751A0000E91900005D19000062
:102B500089150000FD14000071140000E513000049
:102B600059130000CD12000041120000B511000001
:102B7000291100009D10000011100000850F0000B9
:102B8000F90E00006D0E0000E10D0000550D000073
:102B9000C90C00003D0C0000B10B0000250B00002B
:102BA000990A00000D0A000081090000B34BB449E6
:102BB0009C6304220E2010F065FA237C0122BCE500
:102BC000AE4BB0495C6304220D2010F05BFA237C0D
:102BD0000122B2E5A94BAC491C6304220C2010F081
:102BE00051FA237C0122A8E5A44BA849DC62042207
:102BF0000B2010F047FA237C01229EE59F4BA4494D
:102C00009C6204220A2010F03DFA237C012294E504
:102C10009A4BA0495C620422092010F033FA237C0D
:102C200001228AE5954B9C491C620422082010F081
:102C300029FA237C012280E5904B9849DC6104222B
:102C4000072010F01FFA237C012276E58B4B944974
:102C50009C610422062010F015FA237C01226CE509
:102C6000864B90495C610422052010F00BFA237C0E
:102C7000012262E5814B8C491C610422104610F050
:102C800001FA237C012258E57C4B8849DC60042250
:102C9000032010F0F7F9237C01224EE5774B84499D
:102CA0009C600422022010F0EDF9237C012244E50F
:102CB000724B80495C600422012010F0E3F9237C10
:102CC00001223AE56D4B7C491C600422002010F083
:102CD000D9F9237C012230E5684B7849C3F8E840F4
:102CE00004223A2010F0CEF90123DAE4634B744950
:102CF000C3F8E4400422392010F0C4F90123D0E4E1
:102D00005E4B7049C3F8E0400422382010F0BAF955
:102D10000123C6E4594B6C49C3F8DC400422372038
:102D200010F0B0F90123BCE4544B6849C3F8D84013
:102D30000422362010F0A6F90123B2E44F4B644977
:102D4000C3F8D4400422352010F09CF90123A8E4F4
:102D50004A4B6049C3F8D0400422342010F092F965
:102D600001239EE4454B5C49C3F8CC400422332048
:102D700010F088F9012394E4404B5849C3F8C84047
:102D80000422322010F07EF901238AE43B4B54499F
:102D9000C3F8C4400422312010F074F9012380E408
:102DA000364B5049C3F8C0400422302010F06AF975
:102DB000012376E4314B4C49C3F8BC4004222F2058
:102DC00010F060F901236CE42C4B4849C3F8B8407B
:102DD00004222E2010F056F9012362E4274B4449C7
:102DE000C3F8B44004222D2010F04CF9012358E41C
:102DF000224B4049C3F8B04004222C2010F042F985
:102E000001234EE41D4B3C49C3F8AC4004222B2067
:102E100010F038F9012344E4184B3849C3F8A840AE
:102E200004222A2010F02EF901233AE4134B3449EE
:102E3000C3F8A4400422292010F024F9012330E42F
:102E40000E4B3049C3F8A0400422282010F01AF994
:102E5000012326E4094B2C49C3F89C400422272077
:102E600010F010F901231CE4044B2849C3F89840E2
:102E70000422262010F006F9012312E4B49C02205B
:102E8000F508000069080000DD0700005107000098
:102E9000C506000039060000AD0500002105000050
:102EA00095040000D92400004D240000C123000037
:102EB00035230000A92200001D2200001516000085
:102EC000D118000045180000B91700002D170000A8
:102ED000912100000521000079200000ED1F000075
:102EE000611F0000D51E0000491E0000BD1D00002E
:102EF000311D0000A51C0000191C00008D1B0000E6
:102F0000011B0000751A0000E91900005D1900009E
:102F1000C34BC449C3F894400422252010F0B2F8F2
:102F20000123FFF7BEBBBE4BBF49C3F8904004224C
:102F3000242010F0A7F80123FFF7B3BBB84BBB491F
:102F4000C3F88C400422232010F09CF80123FFF7E3
:102F5000A8BBB34BB649C3F888400422222010F026
:102F600091F80123FFF79DBBAD4BB249C3F88440F4
:102F70000422212010F086F80123FFF792BBA84B12
:102F8000AD49C3F880400422202010F07BF80123D3
:102F9000FFF787BBA24BA949DC6704221F2010F072
:102FA00071F80123FFF77DBB9D4BA5499C67042267
:102FB0001E2010F067F80123FFF773BB984BA1495F
:102FC0005C6704221D2010F05DF80123FFF769BB48
:102FD000934B9D491C6704221C2010F053F80123D9
:102FE000FFF75FBB8E4B9949DC6604221B2010F073
:102FF00049F80123FFF755BB894B95499C6604228C
:103000001A2010F03FF80123FFF74BBB844B914986
:103010005C660422192010F035F80123FFF741BB4C
:103020007F4B8D491C660422182010F02BF80123D9
:10303000FFF737BB7A4B8949DC650422172010F073
:1030400021F80123FFF72DBB754B85499C650422B0
:10305000162010F017F80123FFF723BB704B8149AE
:103060005C650422152010F00DF80123FFF719BB51
:103070006B4B7D491C650422142010F003F80123DA
:10308000FFF70FBB664B7949DC64042213200FF075
:10309000F9FF0123FFF705BB614B75499C640422CE
:1030A00012200FF0EFFF0123FFF7FBBA5C4B7149D1
:1030B0005C64042211200FF0E5FF0123FFF7F1BA51
:1030C000574B6D491C64042210200FF0DBFF0123D5
:1030D000FFF7E7BA524B6949DC6304220F200FF077
:1030E000D1FF0123FFF7DDBA4D4B65499C630422F4
:1030F0000E200FF0C7FF0123FFF7D3BA484B6149F9
:103100005C6304220D200FF0BDFF0123FFF7C9BA55
:10311000434B5D491C6304220C200FF0B3FF0123D5
:10312000FFF7BFBA3E4B5949DC6204220B200FF077
:10313000A9FF0123FFF7B5BA394B55499C62042218
:103140000A200FF09FFF0123FFF7ABBA344B514920
:103150005C62042209200FF095FF0123FFF7A1BA5A
:103160002F4B4D491C62042208200FF08BFF0123D6
:10317000FFF797BA2A4B4949DC61042207200FF078
:1031800081FF0123FFF78DBA254B45499C6104223D
:1031900006200FF077FF0123FFF783BA204B414948
:1031A0005C61042205200FF06DFF0123FFF779BA5F
:1031B0001B4B3D491C61042210460FF063FF0123A5
:1031C000FFF76FBA164B3949DC60042203200FF079
:1031D00059FF0123FFF765BA114B35499C60042262
:1031E00002200FF04FFF0123FFF75BBA0C4B314970
:1031F0005C60042201200FF045FF0123FFF751BA64
:10320000074B2D491C60042200200FF03BFF0123D7
:10321000FFF747BA0022FFF790BA0023FFF741BA41
:10322000B49C022089150000FD14000071140000F8
:10323000E513000059130000CD12000041120000F8
:10324000B5110000291100009D10000011100000B0
:10325000850F0000F90E00006D0E0000E10D00006A
:10326000550D0000C90C00003D0C0000B10B000022
:10327000250B0000990A00000D0A000081090000DA
:10328000F508000069080000DD0700005107000094
:10329000C506000039060000AD050000210500004C
:1032A00095040000D92400004D240000C123000033
:1032B00035230000A92200001D22000010B592B0A5
:1032C000014601A80FF0F8F90023322201A805A950
:1032D0000FF014FA05A905480DF0F0FB044601A80B
:1032E0000FF0AAF9A0B212B010BD00BF38920020B2
:1032F00007EE900A9FED0C6ADFED0C6A0C4B0D484F
:10330000B8EEE77ADFED0C7A27EE067A10B5E7EE35
:10331000267A01241C60FCEEE77A17EE901A0DF075
:1033200009FE064B1C6010BD0AD7233C0000014378
:1033300088E100E05C4F0020EE7CFF3E08E100E009
:1033400010B5A2B044221749044668460FF0F0FCBD
:1033500044220DEB020014490FF0EAFCADF1040227
:10336000002352F8041FA14204D00133112BF8D1DD
:1033700022B010BD0D490A68002AFCDB22AA02EB2C
:1033800083030B4913F8442C33F8423C013A1203EF
:10339000013B02F47F22C3F30B0313430B6022B003
:1033A00010BD00BFE0B2010024B3010000F10240F3
:1033B00004F102402DE9F04F2DED028BDFF808B14A
:1033C0003D4BDFED3E8A9FED3E8A85B04FF0000811
:1033D0000393D94604E0B8F1EA0F4BF8046F66D0C6
:1033E00059F8043F039A029332F9024F039207EE11
:1033F000903A07EE104AF8EEE77AB8EEC77A67EE31
:10340000A87ABD2CE7EE087AA8BFBD241FFA88F57C
:1034100024EAE4742F1DFDEEE77A0FFA84FA4FF4E4
:10342000FC623FB20092534639465A222548A4B264
:1034300017EE906A0AF0D4FE0020C4F1BE0304F136
:103440005A02394600901BB212B21E4805350AF0E6
:10345000C7FE2DB20023BD2E009329464FF0BE03B8
:103460004FF05A021748A8BFBD260AF0B9FE4FF424
:10347000FC625346009229465A2212480AF0B0FED6
:10348000029B042B08F1020826EAE676A3DD1A4621
:1034900055324FF6FF73009312B2294605230948AF
:1034A0000AF09EFEB8F1EA0F4BF8046F98D105B010
:1034B000BDEC028BBDE8F08FDA8A00203333333F56
:1034C0009A99993E389200202C820020F0B5474C02
:1034D000474A484991B0002508A80123256008F013
:1034E00009FA10AA44480A9B12F8145D9DF82410AA
:1034F00083600573017100F10D031A3012F8011F8A
:1035000003F8011B83423C49F8D10F9B3B4ECB6132
:1035100008A808F017F90023394F336005E008A820
:1035200008F026F908A808F00DF90122324908A888
:1035300008F054FA08A808F029F940F2E63310B967
:1035400022689A424CDD08A808F000F90028E6D16C
:1035500008A808F0F9F8014668460FF0ADF82949C7
:1035600004A80FF0A9F804A968460FF0E1F8054691
:1035700004A80FF061F81DB968460FF05DF8CEE7BA
:10358000236803EB430503EB850308A8FD1808F047
:10359000DBF80146284614F033F91B4904A80FF064
:1035A0008BF804A968460FF0C3F8054604A80FF08D
:1035B00043F82B460122694604A80FF0CBF804A873
:1035C0000FF0ECF8054604A80FF036F832682368CF
:1035D0000A49954203F10103C8BF0D602360CBE7A0
:1035E00008A808F0AFF811B0F0BD00BF7495002036
:1035F00010B401006CA20220909C02208C1C0220BE
:103600006C4F002014B401001CB4010008B505493A
:103610000122002005F05CFAFE210348BDE80840C5
:1036200008F0BCB820B401006CA2022038B5064DE9
:103630000648074C2946012205F04AFA2070284620
:1036400005F01CFE207038BD20B401008C4C002019
:10365000288A0020F8B5244C236833B9234B1A6814
:1036600040F2E6339A420DDDF8BD214805F0F4FD45
:103670000023204A23601D4B10701A6840F2E63385
:103680009A42F1DC1C4B1D4F1B681D4E3A681D49C8
:103690001D48184D03EB430306EB830301325B68BF
:1036A0003A6014F01FF80021174805F0FBFD0A22CC
:1036B000287015490E4805F035FA0228287008D000
:1036C0000A2211490A4805F02DFA012328702360C7
:1036D000F8BD074805F0C0FD09282870F0D10A4858
:1036E00005F006FE2870EBE7BC8A002074950020E8
:1036F00060920020288A0020C83E00208C1C0220F6
:1037000068B3010024B40100789500202DE9F84346
:1037100006460EF0FBFA01282CDDDFF86490DFF896
:1037200058800025D8F80000134F05EB40043046C0
:103730000EF01EFB09EB042401464FF48072204674
:103740000FF0F6FA013530460EF030FB022DE9D1CC
:103750003B680133BF2B02D83B60BDE8F8830022F1
:10376000064B3A60064907484FF4C03205F056FB55
:10377000054B1870BDE8F8835C920020EC4E0020E9
:10378000C099002060920020288A0020134A38B592
:1037900000230446124D80F8F63013700CE00EF052
:1037A000E7FA104B01464FF480720F4805F036FBE4
:1037B000287020460EF0FAFA20460EF0A7FA0028EC
:1037C0002046ECDC084805F047FD084B2870002235
:1037D0001A60BDE83840FFF779BE00BF404F0020B7
:1037E000288A0020EC4E002060920020BC8A002035
:1037F0002DE9F0418EB00DF1030600250746B046D5
:103800002C4628460FF044FA08F8010F44400823DC
:1038100014F0010F4FEA540203F1FF3314BF82F09A
:103820008C04C4F3470413F0FF03F1D10135332DA9
:10383000E7D1F4B99DF83330332B03D020460EB0D6
:10384000BDE8F0819DF83230302BF7D19DF8313052
:10385000302BF3D19DF83030302BEFD1013F0DF1FB
:10386000370316F8012F07F8012F9E42F9D10120E6
:10387000E5E718460EB0BDE8F08100BFF8B50025B9
:10388000471E2C4617F8016F0823744014F0010FEF
:103890004FEA540203F1FF3314BF82F08C04C4F3E7
:1038A000470413F0FF03F1D128460FF0F1F98642E7
:1038B00009D0314628460FF005FA28460FF0E8F9FE
:1038C0003B78834204D10135322DDBD1002600E064
:1038D0000126214628460FF0F5F928460FF0D8F9C1
:1038E00084420CBF30460120F8BD00BFF0B5264928
:1038F0002648274A09680068264B274D1B88274C15
:103900002E682568264C91B001330C90069192E800
:1039100003002449244A8DF83800C0F307270968BA
:1039200012688DF83970ADF80E30C0F30747030EFA
:103930001E4894F800E00592089504911C4A1D4D1C
:103940001D4C1E49006892F800C0079600222E7890
:103950000A90257891F900408DF82DE0612103A8A7
:103960008DF82CC08DF80C108DF825608DF8245042
:103970000D94ADF83C208DF83A708DF83B30FFF790
:103980007DFF11B0F0BD00BF7C3E0020183E00203E
:1039900030B40100588A0020C83E0020BC3E002000
:1039A000CC3E0020681C0220C43E0020D03E0020F7
:1039B000413E0020B93E00201C3E0020C03E0020B9
:1039C0002DE9F04FAD4AAE4B1468AE48AE491C60CD
:1039D0000C328BB00C6805681268AC49AC489C602E
:1039E000DA605D600EF068FEAA4AAB49A848DFF8CD
:1039F000F09211F08BFDA94BA9481A680792079C19
:103A00001A680892089A1B680993A64B09990460E2
:103A10001A60A54CA548272302931B22A1F57A71B1
:103A20001C23019200931422FF23216015210AF028
:103A300077FA322225219E480EF0CAFA322224213A
:103A40009C480EF0C5FA232222219B48FEF7B4FDC4
:103A50003222262199480EF0BBFA32221D219848C5
:103A60000EF0B6FA1F221E219648FEF7A5FD964BD2
:103A7000964993F90030964A96480B70126859425D
:103A8000017000239449C9F8001089F80930C9F879
:103A9000103089F80830C9F80C300AB9AAE21A4681
:103AA0005369002BFBD1C2F814900024DFF884B2D4
:103AB0008A4B8B48C9F81440A9F80440A9F806407D
:103AC00089F80A40C9F800300DF06EFD0BF11802BC
:103AD00001215846FEF746FD824B83488BF8F4409F
:103AE000224621468BF8F540CBF8F0408BF8F640A3
:103AF000CBF80030FEF736FD7B4A7C4B13607C4AE6
:103B0000794E7C4D18324FF48043A2F11800022107
:103B10003362FEF727FD764A774B1360012005F2EA
:103B200024726D4E2C7223462146EC602E60687222
:103B30002A612C4600E0226942F823106A7A6D4817
:103B400001339A42F7DC624B1A680AB956E21A4608
:103B50005369002BFBD15561002468492960224636
:103B600001234FF48071664E66486C61AC80EC8036
:103B7000AC7285F8214785F82247C5F8186111F025
:103B8000E9FB534BDFF888811A685349C5F81C419B
:103B9000082385F8203788F80940C8F80010C8F8CD
:103BA000104088F80840C8F80C40494B0AB927E291
:103BB0001A465369002BFBD1C2F814804FF0000A5B
:103BC000514B5248C8F814A0A8F804A0A8F806A0C1
:103BD00088F80AA0C8F8003007F0A6FD4C484D4C04
:103BE0004D4F4E4E0DF08EFF2A4A4D49484811F078
:103BF0008DFC4C4B012103F118021846FEF7B2FC74
:103C0000484A494B1360494B042103F128021846E6
:103C1000FEF7A8FC464B03F128021846434B04214B
:103C20001C604FF480349C61DC611C625C62FEF7B6
:103C300099FC3F4B374C1C6007F128024FF480344D
:103C4000042138469C61DC611C625C62FEF78AFCE0
:103C50003049BC61022006F11802FC613C627C62C2
:103C60001D4C396034605346514686F808A0C6F8AA
:103C70000CA07072326134465FE000BF5480044093
:103C8000888A0020588004405C80044038B40100D9
:103C9000D84E00200C3E002039260100B4A5022099
:103CA000281C02202C8A0020109500203892002029
:103CB00020920020C019022014950020F84E002008
:103CC000AC9900202C4F0020C03E00202C1C02206C
:103CD00024A5022030920020DCB2010094EE010005
:103CE000F0940020C4EE0100988A0020D0EE01007C
:103CF000001A0220C08A002088EE010054EC010066
:103D000074EC0100E8910020B8EE0100E497002077
:103D1000CC970020A0EE0100B89400206C1C02207B
:103D2000710400002C9500207CEE0100301C022064
:103D3000149800204C980020226942F82310727ACF
:103D4000B24801339A42F7DCB14B1A680AB95AE11A
:103D50001A465369002BFBD156610024AD4AAE4B85
:103D60007461B480F480B472A848326005930DF099
:103D700053FE059BDFF8F8A21C721846C3F80090AA
:103D80005F605C72DC601C740EF084FA059BA34AD1
:103D9000A349184611F0BAFBA24B059350468AE896
:103DA000000A8AF808408AF80940CAF80C408AF8E4
:103DB00010400EF06FFA994A9949DFF8B8B25046B0
:103DC00011F0A4FB059BDFF8B0A21C724FF00109B3
:103DD0001846C3F800805F60DC601C7483F80990AB
:103DE0000EF058FA059B8D4A8D49DFF890821846EF
:103DF00011F08CFB8C4BCBF8043058468BF8084004
:103E0000CBF800708BF80940CBF80C408BF81040D1
:103E10000EF040FA814A8249584611F077FB834BF5
:103E2000CAF8043050468AF80840CAF800708AF888
:103E30000940CAF80C408AF810400EF02BFA774A75
:103E40007749DFF83CB2504611F060FB764B88F8BA
:103E50000840404688E8280088F80940C8F80C4027
:103E600088F810400EF016FA6C4A6D49704B0593B5
:103E7000404611F04BFB6F4BDFF808A2CBF8043043
:103E800058468BF80840CBF800708BF80940CBF807
:103E90000C408BF810400EF0FDF9604A6049DFF8E5
:103EA000E881654D584611F031FB644BCAF800308B
:103EB0005046604BCAF804308AF808408AF80990E6
:103EC000CAF80C408AF810400EF0E4F95449534AFD
:103ED000DFF8B8B1504611F019FB059B534A1A6040
:103EE0001846574A1C725A6083F80990DC601C74AB
:103EF0000EF0D0F9059B494A4949DFF894A11846CC
:103F000011F004FB4B4BC8F8003040464C4BC8F84E
:103F1000043088F8084088F80940C8F80C4088F850
:103F200010400EF0B7F93E493C4A404611F0EEFA17
:103F300002232846424A6B722C722F606A60EC6042
:103F40002C740EF0A7F9354A3549284611F0DEFAEF
:103F50003B4B8BF8084058468BE848008BF80940EB
:103F6000CBF80C408BF810400EF094F92B4A2C49FA
:103F7000344D584611F0CAFA314B8AF80840504681
:103F80008AE84800CAF80C408AF810408AF809907C
:103F90000EF080F95046214A21492B4C2B4E11F04E
:103FA000B5FA2B4B2B4A1B6827682B482B493760E7
:103FB00003EB430302EB8303294C9E6806600A224D
:103FC0005B680C604FF4B2700A722B600EF0C6FF93
:103FD000044606F0A9FE234B23481C6007F0A4FB0F
:103FE0000E4A2249204811F091FA0EF005FE0BB05E
:103FF000BDE8F08F064BC3F8009056E51860ABE5BE
:10400000C3F80080DAE51860A7E600BF6C1C022048
:1040100024A50220ACEE01000C9200200C3E0020F2
:1040200089040000748A0020301C02202C95002096
:10403000444F0020001A0220408A0020988A002065
:104040001498002078990020D03E0020684F00206E
:10405000BC3E002068B30100244F00205C4F0020CC
:1040600060EC01000C4F0020909C022045B700003E
:1040700044990020D4190220E819022098990020C0
:10408000104F002084990020649900205C8A002051
:10409000F891002038B50546FFF710F9094CC0F13A
:1040A000F001B4F90C2009B220460CF06DFD284651
:1040B00013F026FC294602462046BDE838400EF0A3
:1040C00029BA00BF38920020194B70B55D7E0335C8
:1040D00010FB05F42D3424B2064682B0224600219E
:1040E00014480CF051FD144B1B689E4212D04FF641
:1040F000E07110480CF064FD104B53F82640204648
:1041000013F0FEFB02460B48214602B0BDE87040AA
:104110000EF000BA4FF6FF7106480CF051FD002179
:10412000009522460191F02302480AF0E3F9E3E703
:1041300008C601003892002058990020843E0020D3
:104140002DE9F04F2DED028B3F4C404E404F9DB07E
:1041500020464FF6E0710CF033FD282500224FF485
:1041600000430193114620460095F023A6610AF012
:10417000C1F94FF6FF7301930095F0232A462046BC
:1041800000210BF069FA3B68012B00F07782022BCB
:1041900000F0818214224FF400438DE80C000021CE
:1041A000F0234FF48C7228482A4D2B4E0AF0A2F9C6
:1041B00028224FF448738DE80C000021F0234FF4BF
:1041C000967221480AF096F9002211461E480CF01A
:1041D000DBFC012221491C480EF09CF995F90010E6
:1041E00019480EF021FA02221D4917480EF092F9E3
:1041F00096F9001014480EF017FA3A68022A00F0F7
:104200005482022217491048DFF860900EF082F9BC
:10421000154B1C68204613F073FB214602460A48E2
:104220000EF078F91422002107480CF0ADFCD9F803
:104230000030042B00F21082DFE813F05301590123
:104240005F0165011A0000BF3892002084EB010075
:10425000803E0020B93E00201C3E002058B40100E2
:104260005CB4010064B40100789900200895002036
:104270000422C149C1480EF04DF90022B421BF48C3
:104280000CF082FCBE4B1B6841F29312934200F388
:10429000568104ACBB4A0921A3F67463204613F08F
:1042A000D3F9204613F02CFB21460246B3480EF00A
:1042B00031F9DFF8C88214224046B4210CF064FCC6
:1042C000B14B0AA8196806F07BFA40464FF6E07138
:1042D0000CF076FC0B9A0C9B00920921AB4A20460D
:1042E00013F0B2F9204613F00BFB2146024640467C
:1042F0000EF010F93B68032B00F0E7814FF4967243
:1043000000219E480CF040FC3B68032B00F08981A3
:10431000DFF8C4829E4CD8F800309848012B0CBFBF
:104320004DF29A614FF6E0710CF04AFC2368052BC0
:1043300004D1D8F80020012A00F05083DFF89C82D5
:1043400058F823A0504613F0DBFA514602468B483A
:104350000EF0E0F801228F4988480EF0DBF84FF6A6
:10436000FF718648DFF828A20CF02AFC2368012B95
:1043700000F08582022B00F0CC80002B00F0D8806A
:10438000032B00F08482844B844C1B687B48012BF8
:104390000CBF4DF29A614FF6E0710CF011FC2368EE
:1043A00058F82300FEF78AFFC0F1F00109B24FF47C
:1043B000967272480CF0E8FB236858F823402046B8
:1043C00013F09EFA214602466C480EF0A3F83B68B3
:1043D000032B00F026814FF48C7200216748704C4B
:1043E0000CF0D2FB4FF6E07164480CF0E9FB237847
:1043F000002B00F0F780012B00F0FD80022B694CB0
:1044000000F007814FF6E0715C480CF0D9FB664B79
:10441000227866491C78664B052C0CBF1C460C465E
:10442000002A00F093803B68032B55D0002B40F30B
:104430001782DFF8ACA15F4DDAF80020DFF88CB10D
:104440009FED5D7ADBF80010002A1346B8BF02F139
:10445000FF031B1207EE903A91FBF3F185FB020577
:10446000D217FAEEEF7AC2EB6535012D87EE278A77
:104470004FEA41081DDD01244FF6E0760096052342
:1044800055223E4807EE904AF8EEE77A013467EE8F
:10449000887AFDEEE77ACDED037ABDF90C1009F0CC
:1044A0009FFEA542EAD1DAF80030002BB8BFFF33F7
:1044B0001B12D9F80020022A00F064824FF6E07344
:1044C0000093572203230FFA88F12C480BF098F839
:1044D0003B68012B00F0EC811DB0BDEC028BBDE808
:1044E000F08F0222354925480EF014F8C5E6072260
:1044F000334922480EF00EF8BFE6072231491F4823
:104500000EF008F8B9E606222F491C480EF002F812
:10451000B3E62E4B2E491B68184881FB0321DB179D
:10452000C3EBA1110EF080F82368002B7FF428AFB5
:1045300095F9001011480EF077F8236820E7032260
:1045400024490E480DF0E6FF04ACB2E621460B48C4
:104550000CF0B4FAC0F1EB0109B24FF48C720748C9
:104560000CF012FB204613F0CBF92146024603481B
:104570000DF0D0FF57E700BF84B40100389200204F
:10458000B094002094B4010000D00340A0B4010016
:1045900060990020CCB501000C950020F04E002061
:1045A000084F0020D0190220403E002048B40100EE
:1045B00050B40100AD8BDB6800401C4668B40100BC
:1045C00074B401007CB401006CB40100D03E002042
:1045D000D34D62109CB40100C8950020243E0020F9
:1045E000244F00200722C149C1480DF093FF2378D2
:1045F000012B7FF403AFBF4B1B78002B32D0062278
:10460000BD49BB480DF086FF2378BC4C022B7FF4DC
:10461000F9AE2378042263BBB949B5480DF07AFF9F
:10462000F0E64DF29A61B2480CF0CAFA0622B5499A
:10463000AF480DF06FFFB448FEF740FEC0F1F00147
:1046400009B24FF49672AA480CF09EFA0B22AE49BA
:10465000A7480DF05FFFBEE60522AC49A4480DF067
:1046600059FF0AE60722AA49A1480DF053FF237813
:10467000C4E6A8499E480DF04DFFC3E600211E2365
:1046800000932046F02301913C2209F033FF3B6860
:10469000022B7FF47FAD0021062300930191F023CC
:1046A0005422934809F026FF74E59B4990480DF089
:1046B00031FF9A4B9A491B688D4881FB0321DB1718
:1046C000C3EBA1110DF0B0FF9BE52D220021404668
:1046D0000CF05AFA4FF6E07140460CF071FA914A2C
:1046E00091491368C8F81810002BC0F296810C2B62
:1046F000A8BF002303201360FFF7E6FC8B4B93F960
:104700000030012B00F08B81894B93E8070007AC48
:10471000234603C31A702046FFF7BCFC0420FFF7B2
:10472000D3FC844B844A93F90030DFF85082DFF8E1
:1047300050A20921204612F087FF2046FFF7AAFC6D
:104740000520FFF7C1FC7D4B7D4A93F9003009211C
:10475000204612F079FF2046FFF79CFC0620FFF769
:10476000B3FC784B1B6803EB430308EB83035868E7
:10477000FFF790FC0720FFF7A7FC734B1B6803EBC8
:10478000430308EB83035868FFF784FC0820FFF716
:104790009BFC6E4B1B6803EB430308EB8308D8F8C4
:1047A0000400FFF777FC0020FFF78EFC684A694B96
:1047B000126853F82200FFF76DFC0120FFF784FC1C
:1047C000654A664B126853F82200FFF763FC092024
:1047D000FFF77AFCDAF8001013A805F0F1FF13A92F
:1047E0000EC920460191009209215D4A12F02CFF6A
:1047F0002046FFF74FFC0A20FFF766FCDAF80010AE
:1048000013A805F0DDFF16A90EC9204603F2B27306
:10481000019100920921534A12F016FF2046FFF73A
:1048200039FC0220FFF750FC4F4B1B68002B40F077
:10483000CB804E4B93E8030084E803002046FFF74B
:1048400029FC0B20FFF740FC494B4A4A93F9003002
:104850000921204612F0F8FE2046FFF71BFC4DE52B
:104860005522002122480CF08FF9092242492048A4
:104870000DF050FE1DB0BDEC028BBDE8F08F96F937
:1048800000101B480DF0D0FEDAF8003072E52D4B19
:104890003A4A1B6803EB430302EB83035C68204640
:1048A00013F02EF82146024611480DF033FE6AE55A
:1048B000DBF800101A4B204A83FB0103C917C1EB38
:1048C000A31313A8092112F0BFFEA8F10A0109B22F
:1048D0003C2207480CF058F913A813F011F813A95B
:1048E000024603480DF016FEF6E500BF08B50100CC
:1048F00038920020404F002010B50100D01902204E
:1049000020B50100F4B40100FCB401008CB4010036
:1049100018B5010028B5010060B40100D03E0020A8
:10492000D34D62105899002008C60100C03E0020F7
:104930003CB50100CC3E0020D4B40100413E002033
:10494000B4B40100BC3E0020C83E00207C3E0020E4
:10495000C43E0020503E0020681C0220643E00201F
:10496000BCB40100CCB40100183E0020DCB401004E
:10497000103E0020ECB4010030B5010068B3010026
:1049800000D003402B4A2C4D92F9001095FBF3F513
:104990004FF47A7202FB01F292FBF3F3ED1A6D0011
:1049A0005B001CB22DB24FF6FF762B4621460096D7
:1049B0005522224809F024FC2B4621460096592214
:1049C0001E4809F01DFC79E51D4B93E803000B0C14
:1049D0000790ADF820108DF822302FE7194B1A4AB6
:1049E0001B68DFF8708003EB430A03EB8A0302EBDA
:1049F000030A50462E2112F09BFECAEB00025146DC
:104A00000132124812F05AFF104812F079FF0F4994
:104A100002460A480DF07EFDA1E40B236AE60C4B2A
:104A200093E803000B0C0790ADF820108DF82230AE
:104A300007AC70E6CC3E00208038010038920020A0
:104A4000E4B40100FC1902206C4F0020308A0020E1
:104A5000ACB40100243E0020074B10B501240146F0
:104A60001C6006480CF0E6F9054B1C60FFF768FB7C
:104A7000044B00221A6010BD88E100E05C4F00206A
:104A800008E100E034920020F0B58FB001A8FEF7F5
:104A9000AFFE044698B13B490A9A3B4BBDF80670FD
:104AA0009DF830609DF831509DF832000F80012A4A
:104AB0009DF833101E705D709870D97002D020463A
:104AC0000FB0F0BD3148324D049E06603149059E5D
:104AD000314B2E60069E0E60039D304F30483149A9
:104AE000314E1A60029B3B6003600D603560002D03
:104AF0002FD0022D40D0012D35D000212B4809F0B8
:104B0000B7FE316829482A4E0DF08EFD294A9DF9DD
:104B10001D002949294B9DF825509DF824701070DF
:104B2000089A0D701A603770FEF7E2FB9DF91C3091
:104B3000234A244D13701846FFF78EFF0B9B224823
:104B400022495AB25B42037020462A700A700FB0A5
:104B5000F0BD294615480AF0C1F82946134809F066
:104B600095FE3568C5E7002110480AF0B7F8002126
:104B70000E4809F08BFEC0E700210C4809F086FEC4
:104B80003568B8E7588A0020201C02207C3E0020AF
:104B9000C83E0020BC3E0020183E002008950020A2
:104BA000681C0220C43E0020803E00203892002075
:104BB000413E0020B93E0020CC3E0020D03E0020E7
:104BC0001C3E0020C03E0020309200202C1C022001
:104BD000274B9FED286A93ED007ADFED276AB8EE48
:104BE000C77A07EE900AC6EE075AF8EEE77A67EE44
:104BF000A57AF4EEE67AF1EE10FA19DC1F4A204BA2
:104C0000C2ED007AF5EEC07A0122F1EE10FA1A60D8
:104C10002BD49FED1C7AF4EEC77AF1EE10FA1BDD6F
:104C2000194B1A491A4A01200860D361FFF788BA64
:104C3000C7EE065A114B1748114A0121F2EE027ACB
:104C4000E5EEA67AC3ED006AFDEEE77A17EE903A3C
:104C5000F0EE667A036011609FED0F7A67EE877A57
:104C6000FCEEE77A17EE903ADBE70023D9E700BFC6
:104C7000244F0020A6552C4700E0AB46203E0020E4
:104C800088E100E0A655AC4680FFFF7F08E100E028
:104C9000988A0020D03E00204B24BE47F8B55F4ED6
:104CA000346864B1032C5E4D2FD0022C43D0012C0C
:104CB00067D0042C00F0848000232B62F8BD594893
:104CC000574D594F0CF07EFB584A594B10681860ED
:104CD000FFF77EFF574A584B11681A68EC61914202
:104CE0004FF48033AB6104BFEB61AC61534B34686C
:104CF0005348544A00211960032C4FF001034FF030
:104D000002013B6003601160CFD14FF48041454800
:104D1000454F0CF03BFB494B34684A484849002258
:104D20001A60AA6101234FF48032022C3B600360B9
:104D30000B60EA61BBD14FF480413A480CF010FBA4
:104D4000414BDFED426A93F9003007EE903AF8EEFE
:104D5000E77AB7EE006A86EE277A4FF480320023B6
:104D6000EA61AB61B4EEE67AF1EE10FA3BD4F2EE12
:104D7000007AB4EEE77AF1EE10FA44DD4FF4002346
:104D800033E02848264C2D4F0CF01CFB294A2A4BB7
:104D9000116818684FF4803288424FF00003EB61CD
:104DA000AA6108BFE26120482649254A08BFA361DD
:104DB00001233468036000263E600B60136078E7CF
:104DC00018481E4F184E1F4C0CF0FCFA1C480022CD
:104DD00001234FF480313A60EA61AA6133602360B5
:104DE00003602962F8BD40F28F230E4F134C0E482A
:104DF0001449134A3B62012300272760036034688B
:104E00000B60136053E7DFED126ADFED127AE7EE15
:104E1000267AFCEEE77A17EE903AE6E7089500204E
:104E2000149800202C950020C8950020684F002081
:104E3000D03E0020284F0020783E002060990020BE
:104E40000C950020F04E0020413E00200AD7233C64
:104E500000008047EE7CFF3E38B5104B1049114AE8
:104E6000114D00EB400003EB8003012498685B6860
:104E70000B6028601460FEF763FAC8200EF0B0F9EA
:104E80000A4B1868FFF7A4FE094B14201C600EF0B3
:104E9000A7F9BDE83840FFF753B900BF68B3010078
:104EA0007899002088E100E0244F0020D03E0020C7
:104EB00008E100E008B50B48FEF768FC0A4B1868EB
:104EC000FFF7CAFF0021094809F0D2FC0849094A46
:104ED000094B096811604FF480329A61BDE80840BF
:104EE000FFF7DCBE4C980020BC3E0020389200202A
:104EF000B09C022008950020301C0220174B10B5F2
:104F0000012264201A700EF06BF9154B1868002806
:104F100021DB0628A8BF0020124CFFF79DFF124B93
:104F200022681B68002A03F1FF3303DB9A42D4BFD7
:104F30001346002303EB43020C49236003EB820377
:104F400019440B480D2212F049FD09490948BDE8F2
:104F500010400CF005BE0520DEE700BFD01902208E
:104F60007C3E0020FC190220749500206C4F00202C
:104F700078950020CC97002008B509480CF0C8FDB2
:104F8000084A094B106800221A70FFF765FF074AAC
:104F9000074B10681860BDE80840FFF719BE00BF56
:104FA000CC970020BC3E0020D0190220684F002082
:104FB000D03E002008B50A4B1B781BB1094B93F873
:104FC000403003B108BDFFF7D7FF074B1B78002B1C
:104FD000F8D0064B1868BDE80840FFF78FBF00BF48
:104FE000D0190220CC970020B49400207C3E0020F1
:104FF0002DE9F04188B0D8B9A749A84AA84B09685B
:1050000014681B680722F1B9A649097823440029CE
:1050100067D0002B02F1FF32C0F287809A42B8BFFE
:105020000023002867D19E4A136008B0BDE8F081D4
:105030000128FAD19C499D4A9D4B096814681B6858
:1050400004220029E0D00129EFD1002CEDD0002B63
:1050500058D198490A78144464B2002CC0F2958063
:105060005A2CA8BF5A2407EE904A9FED936ADFEDB1
:10507000936AB8EEE77ADFED927A27EE067AE7EEEA
:10508000267AFCEEE77ACDED017A8E4B0C70012486
:105090001C6001998C480BF04DFF8C4B1C60804BC1
:1050A0001B68052BC1D17C4B1B68012B5CD0804B4E
:1050B0001B68032BB9D17C4B1B68012BB5D1844BEA
:1050C0001B78022BB1D1834A7849136809685B18B1
:1050D00060D4062BA8BF002318461360FFF7BCFE60
:1050E000A3E7191F012994D8012C3BD0013408BF34
:1050F0000323013A92E7012897D16D4A136008B063
:10510000BDE8F081032B12D1714B1B78022BC6D066
:10511000714A13681C440D2CA8BF0D2424EAE474C2
:1051200020461460FFF798FEB9E7134679E7012B94
:1051300032D16A4A137823445BB2002B23DB3F2B26
:10514000A8BF3F2318461370FFF786FC644A654BDF
:1051500000201060002103F5007243F8041B934205
:10516000FBD19CE70623C4E75F4B60494B481A68B4
:1051700000680B681B1802F1FF3209D49342C8BFC4
:1051800000230B6093E70023DCE701931C467CE7D8
:105190001346F6E705239FE7022B3BD1544E554DAE
:1051A00033680393039B2A689B1AB3F5FA7F2BD2CB
:1051B000F92B00F20981642B41F2883328BF4FF4A8
:1051C000FA634D4A4D491068096803FB040441F62F
:1051D00057339C421BDD4A48CB43DB0F80FB010168
:1051E000C3EBE1114FF47A7303FB01F39C42A8BFB8
:1051F0001C46444B146020461C60FFF7E9FC3368F2
:105200000693069B2B604AE74FF4FA73D9E741F601
:105210005834EEE7062B7FF442AF40B93A4E33687C
:10522000E4182DD40C2CA8BF0024346037E70128E3
:105230007FF435AF344E3368032B6DD0042B21D06F
:10524000052B40F0A180314A137823445BB2042B34
:1052500040F398801F2BA8BF0523137033680A2BD7
:1052600065D00B2B7FF41BAF294A137823445BB224
:10527000002BC0F2A680192BA8BF192313700EE7CC
:105280000B24D2E7234A137823445BB20E2B77DD3D
:10529000242BA8BF0F23E0E7C89500205C990020CD
:1052A00060990020414F00200C950020E84E00201E
:1052B000F04E0020B93E00200AD7233C00000143F5
:1052C000EE7CFF3E88E100E05C4F002008E100E05A
:1052D000084F00207C3E0020BC3E00201C3E0020E9
:1052E0007C990020CC95002074950020FC190220A8
:1052F000B4A50220548A0020D03E0020244F002074
:10530000D34D6210684F002058990020413E002084
:10531000103E0020CC3E00205E4A5F4892F90030EB
:105320005E4903705B425BB213700B7096E75C4B97
:105330005C4D1B680593DDF814802B68C3EB0803F4
:10534000B3F5FA7F39D2F92B41D8632B8CBF04EB2C
:105350004407A70005F068FC534B06A903FB0700B0
:1053600005F00CFB06A805F0E1FB0DF00DFF06A80B
:1053700005F0DCFB05F0A8FC3368C5F8008070E799
:1053800023236AE71E2368E7062B0CD1474A1368DC
:1053900023440D2BA8BF0D2323EAE37318461360A3
:1053A000FFF75AFD3368A3B9414A1368E31806D4DE
:1053B000042BA8BF0023136050E72746CAE7032346
:1053C000F9E7002313706AE64FF47A73F9E6670091
:1053D000C0E7012B09D1374A1368E31803D4052B22
:1053E000A8BF0023E7E70423E5E7022B09D1324AEF
:1053F0001368E31803D4022BA8BF0023DBE70123C3
:10540000D9E7082B09D12D4A1368E31803D4062BDA
:10541000A8BF0023CFE70523CDE7072B0AD1284AF1
:1054200013682344042B03DD0E2BA8BF0523C2E71A
:105430000D23C0E7092B7FF411AF194B194D1B68E1
:105440000493DDF810802B68C3EB0803B3F5FA7FF3
:105450001BD2F92B1BD8632B8BBF0A27C4EB041775
:105460006743BF0005F0E0FB06A9384405F086FA63
:1054700006A805F05BFB0DF087FE06A805F056FBBD
:1054800005F022FCC5F80080E8E62746EAE704EBD1
:105490008407E7E7C03E0020309200202C1C022049
:1054A000B4A50220548A002080510100BC3E002097
:1054B000C43E0020681C0220183E00207C3E0020D4
:1054C000C83E0020F0B583B0FEF7C4F8254B264D4A
:1054D0001868264F264EFFF7BFFC284600210024FF
:1054E00009F0FCFB4FF4A0732246284621460093A6
:1054F0000194F02308F0FEFF28464DF29A610BF06C
:105500005FFB1C4BAB612146284664220BF03CFB41
:105510000922194928460CF0FDFF384612F0F0F92F
:105520003946024628460CF0F5FF144BAB61FEF7F6
:1055300007FE1348134D0BF045FF134A1349144857
:10554000144B17688C6104604FF480313046DC6185
:10555000996114602F600CF0E5FB012386F8F630AA
:1055600003B0F0BDC83E002038920020789500209E
:105570004C980020A0EB010048B5010084EB01002D
:105580002C950020B09C022008950020301C0220A1
:105590005C92002014980020F8B57F4A137C012B00
:1055A00040F2918072B6D36862B67C4E002BB8BFD1
:1055B000033332689C1094422FDD794B794D93F977
:1055C00000302B60002B35D1774A3460137C012BDF
:1055D00038D972B6D36862B6744E002BB8BF0333A5
:1055E00032689C1094420FDD6D4B714F93F900307F
:1055F0003B60DBB92B68346013B93B68002B59D092
:10560000BDE8F840FEF79CBD59DA6A4B684F93F944
:1056100000303B60002BEDD008E04CDA654B614D6B
:1056200093F900302B60002BCED003E00020FFF771
:10563000DFFCDFE70120FFF7DBFC5B4A3460137C13
:10564000012BC6D872B61368506819780478507A5E
:10565000137A044201EA03016ED0937A03F0030344
:1056600009B143F0040343F008039910013B917220
:105670000D2BAFD801A151F823F000BF71570000E6
:10568000695700006157000069570000D5550000B8
:10569000595700007157000071570000595700001A
:1056A000D555000069570000615700006957000098
:1056B00071570000F8BD3B4D00232B6084E73C4F41
:1056C00000233B6096E772B6136850681978047837
:1056D000507A137A044201EA030135D0937A03F039
:1056E000030309B143F0040343F008039910013B9D
:1056F00091720D2B3FF657AF01A151F823F000BF77
:105700009157000089570000815700008957000019
:10571000A7550000795700009157000091570000ED
:1057200079570000A75500008957000081570000F5
:105730008957000091570000937A03F00303002972
:1057400093D043F0040390E7937A03F00303002916
:10575000CCD043F00403C9E7D368023BD3603AE7F7
:10576000D3680233D36036E7D368013BD36032E7B6
:10577000D3680133D3602EE7D368023BD36013E7CD
:10578000D3680233D3600FE7D368013BD3600BE7E4
:10579000D3680133D36007E71495002010980020E8
:1057A0002C1C0220E84E00202C4F0020708A002084
:1057B0005C99002030920020F0B5A04C237883B093
:1057C0004BB19F480CF03AFC9D480CF05DFC002862
:1057D00067D103B0F0BD9B480CF030FC9A480CF048
:1057E0002DFC97480CF02AFC98480CF027FC9748B1
:1057F0000CF04AFC60B1964A1368002B5DD001336F
:10580000042BC8BF00231360FFF748FAFEF798FC8B
:105810008B480CF039FC80B18E4E3368032B7CD062
:105820008D4D2A78002A00F08580022A00F0A2809F
:10583000012A00F09480FEF783FC82480CF024FCDF
:10584000D0B1864C864D23682E68B3FA83F35B098A
:10585000062E236038D0834B1B785BB12B68804EBB
:10586000042B00F02E81052B256800F0C080002D50
:1058700000F09880FEF764FC73480CF005FC0028EB
:10588000A7D0744B1B68032B00F00881764A13687D
:10589000B3FA83F35B09136003B0BDE8F040FEF791
:1058A0004FBCFFF707FB64200DF09AFC0023237028
:1058B00003B0BDE8F040FEF743BC6C496C4B09688F
:1058C0001960012313609FE7624B1A68032A00F0F6
:1058D0000A815F486749DFF8ACE107680F606648F6
:1058E000CEF80020032700211F6008F0C1FF00212F
:1058F000614809F0F3F90027F02339460093282284
:1059000001975D4808F0F6FD5C4B5D49564A1F6003
:1059100001230E60136023609DE75A4B4F484E4DA4
:105920001B68514F5649002202600120013B2A703A
:105930003A6008600133002B3360464AC0F2CB80E6
:10594000022B23DC23B3022B00F0C780012B00F0D5
:10595000DC800021484808F08BFF2A7865E723782F
:105960003649002B7FF467AF0A70FEF7E9FBFFF7BB
:10597000A9FD60E7444E3378002B32D1434A01231E
:1059800010683370FFF7BAFA2A7851E700231360E2
:105990000021394809F0A2F90021374808F076FFC4
:1059A0003368D0E7324A3A4E304B126830681A609A
:1059B000FFF752FA374A3849206815624FF48033AE
:1059C000D36193618B61CD6100287FF453AF224B8B
:1059D0001A78022A7FF44EAF30681D70FFF73CFA48
:1059E00048E7FFF7C9FA00232A78337020E7012D32
:1059F0001A4E7FF43CAF1D491D4A0968164B1160D1
:105A000002221A70FDF702FE204B1868FFF724FAF5
:105A1000204B214800224FF48031DA619A61826183
:105A20001962C161FDF752FD0F4A154B15603568CB
:105A300003221A60002D7FF41DAFB3E7404F002012
:105A4000F84E0020AC990020C019022020920020BE
:105A500008950020803E0020084F0020C8950020B7
:105A600060990020414F00200C950020D03E00207E
:105A7000684F0020B09C02203892002058990020E6
:105A8000F04E0020B43E0020D01902207C3E0020C1
:105A9000BC3E002014980020B8940020FDF726FF9B
:105AA0004FF6FF711D480BF08BF84FF48272962170
:105AB0001A480BF069F80522194918480CF02AFD1C
:105AC000EAE62568012D7FF4D2AE164B1D70FDF776
:105AD000ADFD3368C7E60223136000210F4808F0CC
