:1000000000000320D101000031260100E925010094
:10001000E9250100E9250100E9250100E9250100A4
:10002000E9250100E9250100E9250100312601004B
:1000300031260100E9250100253B0100293C010092
:100040003126010031260100312601003126010050
:100050003126010031260100312601003126010040
:100060003126010031260100312601003126010030
:100070003126010031260100312601003126010020
:100080003126010031260100312601003126010010
:100090003126010031260100312601003126010000
:1000A000A5550100B155010031260100312601009E
:1000B000312601003126010031260100713C01008A
:1000C000312601009D3D010031260100C93E01009D
:1000D00031260100C13F0100312601003126010017
:1000E00031260100312601003126010031260100B0
:1000F00031260100312601003126010031260100A0
:10010000312601003126010031260100312601008F
:1001100031260100BD2C01003126010031260100ED
:10012000312601003126010031260100312601006F
:10013000312601003126010031260100312601005F
:10014000111B010031260100B940010031260100D8
:10015000312601003126010031260100312601003F
:100160003126010031260100BD5501003126010074
:10017000312601003126010031260100312601001F
:10018000312601003126010031260100312601000F
:100190003126010031260100B14101003126010064
:1001A00031260100312601003126010031260100EF
:1001B00031260100312601003126010031260100DF
:1001C00031260100312601003126010031260100CF
:1001D0005C4B4CF2205210B51A804DF628121A8052
:1001E00000BF00BF12F028FA574B4FF030621A6080
:1001F000564A9A60564ADA60564B4FF470021A60BB
:10020000554B564A1A60564A136813F4807304D14A
:1002100054490B604FF4A8531360534B1A781107DD
:1002200003D51A7842F008021A70504B5049AA229E
:100230001A70504A504B8B4204D252F8040F43F8C4
:10024000040BF8E74D4B4E4900228B4202D243F893
:10025000042BFAE74B494C4A002352F8230041F89B
:1002600023000133742BF8D1484B494A802103F80D
:10027000011B9342FBD1474B424A1A60464B8A22EC
:100280001A70A3F5805324225A70A0221A709A790A
:100290009207FCD59A79D406FCD4404A937903F0AE
:1002A0000C03082BFAD13E4B60221A7002331A78E5
:1002B000802AFCD1394B01221A715D225A719A7938
:1002C0009006FCD59979354A4906FBD5354B364918
:1002D00019600021596020231370937903F00C03F7
:1002E0000C2BFAD1314B324A1A60324B324A1A6027
:1002F00000225A60072243F8042C304AC3F80C2D20
:1003000062B612F07FFB174B1B68DA0705D52C4845
:1003100012F0FAFA2B4B2C4A1A602C4B1B785B0616
:1003200009D5284C284B22689A4204D1244812F05F
:10033000EBFA0023236015F04BFF12F083F912F063
:10034000B1F8FEE70E20054030800440823F0400F3
:100350000100002B88ED00E0002008E0030000858C
:1003600010D0034014D0034002D0074000E0074003
:10037000504C002024E00200303D0020504C002072
:1003800004AA0220003800200000000000E400E081
:1003900064E400E008ED00E0005006400040064044
:1003A00001E007404480044000000602048004404D
:1003B000C010070014E000E01FBF02000000202072
:1003C00054E35B5D1CE00340A5C3945A00F0074072
:1003D000FFFFFFFFFFFFFFFFFFFFFFFFFFFFFFFF2D
:1003E000FFFFFFFFFFFFFFFFFFFFFFFFFFFFFFFF1D
:1003F000FFFFFFFFFFFFFFFFFFFFFFFFFFFFFFFF0D
:10040000FFFFFFFFFFFFFFFFFFFFFFFFDEF9FFFF23
:1004100010B5054C237833B9044B13B10448AFF33E
:1004200000800123237010BD504C0020000000000C
:1004300020E00200084B10B51BB108490848AFF393
:1004400000800848036803B910BD074B002BFBD0A0
:10045000BDE81040184700BF00000000544C0020C9
:1004600020E00200504C00200000000012F046BACC
:1004700010B5044B044640F8183B06F029FA204614
:1004800010BD00BF24B3010010B5044611F0F8FA06
:10049000204610BD214B10B41A68136850681978B3
:1004A0000478507A137A044201EA03011BD0937A4C
:1004B00003F0030309B143F0040343F00803991068
:1004C000013B91720D2B0BD8DFE803F021071B07CE
:1004D0000A152121150A071B0721D368013BD360A8
:1004E0005DF8044B7047937A03F003030029E6D0CC
:1004F00043F00403E3E7D3685DF8044B023BD360A9
:100500007047D3685DF8044B0233D3607047D368FB
:100510005DF8044B0133D360704700BF509F022049
:10052000214B10B45A681368506819780478507ACF
:10053000137A044201EA03011BD0937A03F0030308
:1005400009B143F0040343F008039910013B917291
:100550000D2B0BD8DFE803F021071B070A1521211B
:10056000150A071B0721D368013BD3605DF8044BD4
:100570007047937A03F003030029E6D043F00403A5
:10058000E3E7D3685DF8044B023BD3607047D36860
:100590005DF8044B0233D3607047D3685DF8044BB9
:1005A0000133D360704700BF509F0220214B10B42D
:1005B0009A681368506819780478507A137A04425C
:1005C00001EA03011BD0937A03F0030309B143F05E
:1005D000040343F008039910013B91720D2B0BD8D3
:1005E000DFE803F021071B070A152121150A071B65
:1005F0000721D368013BD3605DF8044B7047937AC1
:1006000003F003030029E6D043F00403E3E7D368D3
:100610005DF8044B023BD3607047D3685DF8044B30
:100620000233D3607047D3685DF8044B0133D36065
:10063000704700BF509F0220214B10B4DA68136846
:10064000506819780478507A137A044201EA030159
:100650001BD0937A03F0030309B143F0040343F082
:1006600008039910013B91720D2B0BD8DFE803F0C2
:1006700021071B070A152121150A071B0721D3682B
:10068000013BD3605DF8044B7047937A03F003039A
:100690000029E6D043F00403E3E7D3685DF8044B98
:1006A000023BD3607047D3685DF8044B0233D360DC
:1006B0007047D3685DF8044B0133D360704700BFC7
:1006C000509F0220214B10B4D3F8D02013685068FB
:1006D00019780478507A137A044201EA03011BD096
:1006E000937A03F0030309B143F0040343F00803D2
:1006F0009910013B91720D2B0BD8DFE803F0210715
:100700001B070A152121150A071B0721D368013B86
:10071000D3605DF8044B7047937A03F0030300291C
:10072000E6D043F00403E3E7D3685DF8044B023BF3
:10073000D3607047D3685DF8044B0233D3607047D1
:10074000D3685DF8044B0133D3607047509F02209B
:10075000214B10B4D3F8D42013685068197804786A
:10076000507A137A044201EA03011BD0937A03F012
:10077000030309B143F0040343F008039910013B5C
:1007800091720D2B0BD8DFE803F021071B070A1528
:100790002121150A071B0721D368013BD3605DF8AF
:1007A000044B7047937A03F003030029E6D043F02B
:1007B0000403E3E7D3685DF8044B023BD360704762
:1007C000D3685DF8044B0233D3607047D3685DF89B
:1007D000044B0133D3607047509F0220214B10B46B
:1007E000D3F8D8201368506819780478507A137AAF
:1007F000044201EA03011BD0937A03F0030309B119
:1008000043F0040343F008039910013B91720D2B50
:100810000BD8DFE803F021071B070A152121150A71
:10082000071B0721D368013BD3605DF8044B704779
:10083000937A03F003030029E6D043F00403E3E7CF
:10084000D3685DF8044B023BD3607047D3685DF812
:10085000044B0233D3607047D3685DF8044B013317
:10086000D3607047509F0220214B10B4D3F8DC2096
:100870001368506819780478507A137A044201EAB0
:1008800003011BD0937A03F0030309B143F004037F
:1008900043F008039910013B91720D2B0BD8DFE850
:1008A00003F021071B070A152121150A071B072141
:1008B000D368013BD3605DF8044B7047937A03F033
:1008C00003030029E6D043F00403E3E7D3685DF8AF
:1008D000044B023BD3607047D3685DF8044B02338E
:1008E000D3607047D3685DF8044B0133D360704721
:1008F000509F0220214B10B4D3F8E02013685068B9
:1009000019780478507A137A044201EA03011BD063
:10091000937A03F0030309B143F0040343F008039F
:100920009910013B91720D2B0BD8DFE803F02107E2
:100930001B070A152121150A071B0721D368013B54
:10094000D3605DF8044B7047937A03F003030029EA
:10095000E6D043F00403E3E7D3685DF8044B023BC1
:10096000D3607047D3685DF8044B0233D36070479F
:10097000D3685DF8044B0133D3607047509F022069
:10098000214B10B4D3F8E420136850681978047828
:10099000507A137A044201EA03011BD0937A03F0E0
:1009A000030309B143F0040343F008039910013B2A
:1009B00091720D2B0BD8DFE803F021071B070A15F6
:1009C0002121150A071B0721D368013BD3605DF87D
:1009D000044B7047937A03F003030029E6D043F0F9
:1009E0000403E3E7D3685DF8044B023BD360704730
:1009F000D3685DF8044B0233D3607047D3685DF869
:100A0000044B0133D3607047509F0220214B10B438
:100A1000D3F8E8201368506819780478507A137A6C
:100A2000044201EA03011BD0937A03F0030309B1E6
:100A300043F0040343F008039910013B91720D2B1E
:100A40000BD8DFE803F021071B070A152121150A3F
:100A5000071B0721D368013BD3605DF8044B704747
:100A6000937A03F003030029E6D043F00403E3E79D
:100A7000D3685DF8044B023BD3607047D3685DF8E0
:100A8000044B0233D3607047D3685DF8044B0133E5
:100A9000D3607047509F0220214B10B4D3F8EC2054
:100AA0001368506819780478507A137A044201EA7E
:100AB00003011BD0937A03F0030309B143F004034D
:100AC00043F008039910013B91720D2B0BD8DFE81E
:100AD00003F021071B070A152121150A071B07210F
:100AE000D368013BD3605DF8044B7047937A03F001
:100AF00003030029E6D043F00403E3E7D3685DF87D
:100B0000044B023BD3607047D3685DF8044B02335B
:100B1000D3607047D3685DF8044B0133D3607047EE
:100B2000509F0220214B10B41A691368506819783D
:100B30000478507A137A044201EA03011BD0937AB5
:100B400003F0030309B143F0040343F008039910D1
:100B5000013B91720D2B0BD8DFE803F021071B0737
:100B60000A152121150A071B0721D368013BD36011
:100B70005DF8044B7047937A03F003030029E6D035
:100B800043F00403E3E7D3685DF8044B023BD36012
:100B90007047D3685DF8044B0233D3607047D36865
:100BA0005DF8044B0133D360704700BF509F0220B3
:100BB000214B10B45A691368506819780478507A38
:100BC000137A044201EA03011BD0937A03F0030372
:100BD00009B143F0040343F008039910013B9172FB
:100BE0000D2B0BD8DFE803F021071B070A15212185
:100BF000150A071B0721D368013BD3605DF8044B3E
:100C00007047937A03F003030029E6D043F004030E
:100C1000E3E7D3685DF8044B023BD3607047D368C9
:100C20005DF8044B0233D3607047D3685DF8044B22
:100C30000133D360704700BF509F0220214B10B496
:100C40009A691368506819780478507A137A0442C4
:100C500001EA03011BD0937A03F0030309B143F0C7
:100C6000040343F008039910013B91720D2B0BD83C
:100C7000DFE803F021071B070A152121150A071BCE
:100C80000721D368013BD3605DF8044B7047937A2A
:100C900003F003030029E6D043F00403E3E7D3683D
:100CA0005DF8044B023BD3607047D3685DF8044B9A
:100CB0000233D3607047D3685DF8044B0133D360CF
:100CC000704700BF509F0220214B10B4DA691368AF
:100CD000506819780478507A137A044201EA0301C3
:100CE0001BD0937A03F0030309B143F0040343F0EC
:100CF00008039910013B91720D2B0BD8DFE803F02C
:100D000021071B070A152121150A071B0721D36894
:100D1000013BD3605DF8044B7047937A03F0030303
:100D20000029E6D043F00403E3E7D3685DF8044B01
:100D3000023BD3607047D3685DF8044B0233D36045
:100D40007047D3685DF8044B0133D360704700BF30
:100D5000509F0220214B10B41A6A1368506819780A
:100D60000478507A137A044201EA03011BD0937A83
:100D700003F0030309B143F0040343F0080399109F
:100D8000013B91720D2B0BD8DFE803F021071B0705
:100D90000A152121150A071B0721D368013BD360DF
:100DA0005DF8044B7047937A03F003030029E6D003
:100DB00043F00403E3E7D3685DF8044B023BD360E0
:100DC0007047D3685DF8044B0233D3607047D36833
:100DD0005DF8044B0133D360704700BF509F022081
:100DE000214B10B45A6A1368506819780478507A05
:100DF000137A044201EA03011BD0937A03F0030340
:100E000009B143F0040343F008039910013B9172C8
:100E10000D2B0BD8DFE803F021071B070A15212152
:100E2000150A071B0721D368013BD3605DF8044B0B
:100E30007047937A03F003030029E6D043F00403DC
:100E4000E3E7D3685DF8044B023BD3607047D36897
:100E50005DF8044B0233D3607047D3685DF8044BF0
:100E60000133D360704700BF509F0220214B10B464
:100E70009A6A1368506819780478507A137A044291
:100E800001EA03011BD0937A03F0030309B143F095
:100E9000040343F008039910013B91720D2B0BD80A
:100EA000DFE803F021071B070A152121150A071B9C
:100EB0000721D368013BD3605DF8044B7047937AF8
:100EC00003F003030029E6D043F00403E3E7D3680B
:100ED0005DF8044B023BD3607047D3685DF8044B68
:100EE0000233D3607047D3685DF8044B0133D3609D
:100EF000704700BF509F0220214B10B4DA6A13687C
:100F0000506819780478507A137A044201EA030190
:100F10001BD0937A03F0030309B143F0040343F0B9
:100F200008039910013B91720D2B0BD8DFE803F0F9
:100F300021071B070A152121150A071B0721D36862
:100F4000013BD3605DF8044B7047937A03F00303D1
:100F50000029E6D043F00403E3E7D3685DF8044BCF
:100F6000023BD3607047D3685DF8044B0233D36013
:100F70007047D3685DF8044B0133D360704700BFFE
:100F8000509F0220214B10B41A6B136850681978D7
:100F90000478507A137A044201EA03011BD0937A51
:100FA00003F0030309B143F0040343F0080399106D
:100FB000013B91720D2B0BD8DFE803F021071B07D3
:100FC0000A152121150A071B0721D368013BD360AD
:100FD0005DF8044B7047937A03F003030029E6D0D1
:100FE00043F00403E3E7D3685DF8044B023BD360AE
:100FF0007047D3685DF8044B0233D3607047D36801
:101000005DF8044B0133D360704700BF509F02204E
:10101000214B10B45A6B1368506819780478507AD1
:10102000137A044201EA03011BD0937A03F003030D
:1010300009B143F0040343F008039910013B917296
:101040000D2B0BD8DFE803F021071B070A15212120
:10105000150A071B0721D368013BD3605DF8044BD9
:101060007047937A03F003030029E6D043F00403AA
:10107000E3E7D3685DF8044B023BD3607047D36865
:101080005DF8044B0233D3607047D3685DF8044BBE
:101090000133D360704700BF509F0220214B10B432
:1010A0009A6B1368506819780478507A137A04425E
:1010B00001EA03011BD0937A03F0030309B143F063
:1010C000040343F008039910013B91720D2B0BD8D8
:1010D000DFE803F021071B070A152121150A071B6A
:1010E0000721D368013BD3605DF8044B7047937AC6
:1010F00003F003030029E6D043F00403E3E7D368D9
:101100005DF8044B023BD3607047D3685DF8044B35
:101110000233D3607047D3685DF8044B0133D3606A
:10112000704700BF509F0220214B10B4DA6B136848
:10113000506819780478507A137A044201EA03015E
:101140001BD0937A03F0030309B143F0040343F087
:1011500008039910013B91720D2B0BD8DFE803F0C7
:1011600021071B070A152121150A071B0721D36830
:10117000013BD3605DF8044B7047937A03F003039F
:101180000029E6D043F00403E3E7D3685DF8044B9D
:10119000023BD3607047D3685DF8044B0233D360E1
:1011A0007047D3685DF8044B0133D360704700BFCC
:1011B000509F0220214B10B41A6C136850681978A4
:1011C0000478507A137A044201EA03011BD0937A1F
:1011D00003F0030309B143F0040343F0080399103B
:1011E000013B91720D2B0BD8DFE803F021071B07A1
:1011F0000A152121150A071B0721D368013BD3607B
:101200005DF8044B7047937A03F003030029E6D09E
:1012100043F00403E3E7D3685DF8044B023BD3607B
:101220007047D3685DF8044B0233D3607047D368CE
:101230005DF8044B0133D360704700BF509F02201C
:10124000214B10B45A6C1368506819780478507A9E
:10125000137A044201EA03011BD0937A03F00303DB
:1012600009B143F0040343F008039910013B917264
:101270000D2B0BD8DFE803F021071B070A152121EE
:10128000150A071B0721D368013BD3605DF8044BA7
:101290007047937A03F003030029E6D043F0040378
:1012A000E3E7D3685DF8044B023BD3607047D36833
:1012B0005DF8044B0233D3607047D3685DF8044B8C
:1012C0000133D360704700BF509F0220214B10B400
:1012D0009A6C1368506819780478507A137A04422B
:1012E00001EA03011BD0937A03F0030309B143F031
:1012F000040343F008039910013B91720D2B0BD8A6
:10130000DFE803F021071B070A152121150A071B37
:101310000721D368013BD3605DF8044B7047937A93
:1013200003F003030029E6D043F00403E3E7D368A6
:101330005DF8044B023BD3607047D3685DF8044B03
:101340000233D3607047D3685DF8044B0133D36038
:10135000704700BF509F0220214B10B4DA6C136815
:10136000506819780478507A137A044201EA03012C
:101370001BD0937A03F0030309B143F0040343F055
:1013800008039910013B91720D2B0BD8DFE803F095
:1013900021071B070A152121150A071B0721D368FE
:1013A000013BD3605DF8044B7047937A03F003036D
:1013B0000029E6D043F00403E3E7D3685DF8044B6B
:1013C000023BD3607047D3685DF8044B0233D360AF
:1013D0007047D3685DF8044B0133D360704700BF9A
:1013E000509F0220214B10B41A6D13685068197871
:1013F0000478507A137A044201EA03011BD0937AED
:1014000003F0030309B143F0040343F00803991008
:10141000013B91720D2B0BD8DFE803F021071B076E
:101420000A152121150A071B0721D368013BD36048
:101430005DF8044B7047937A03F003030029E6D06C
:1014400043F00403E3E7D3685DF8044B023BD36049
:101450007047D3685DF8044B0233D3607047D3689C
:101460005DF8044B0133D360704700BF509F0220EA
:10147000214B10B45A6D1368506819780478507A6B
:10148000137A044201EA03011BD0937A03F00303A9
:1014900009B143F0040343F008039910013B917232
:1014A0000D2B0BD8DFE803F021071B070A152121BC
:1014B000150A071B0721D368013BD3605DF8044B75
:1014C0007047937A03F003030029E6D043F0040346
:1014D000E3E7D3685DF8044B023BD3607047D36801
:1014E0005DF8044B0233D3607047D3685DF8044B5A
:1014F0000133D360704700BF509F0220214B10B4CE
:101500009A6D1368506819780478507A137A0442F7
:1015100001EA03011BD0937A03F0030309B143F0FE
:10152000040343F008039910013B91720D2B0BD873
:10153000DFE803F021071B070A152121150A071B05
:101540000721D368013BD3605DF8044B7047937A61
:1015500003F003030029E6D043F00403E3E7D36874
:101560005DF8044B023BD3607047D3685DF8044BD1
:101570000233D3607047D3685DF8044B0133D36006
:10158000704700BF509F0220214B10B4DA6D1368E2
:10159000506819780478507A137A044201EA0301FA
:1015A0001BD0937A03F0030309B143F0040343F023
:1015B00008039910013B91720D2B0BD8DFE803F063
:1015C00021071B070A152121150A071B0721D368CC
:1015D000013BD3605DF8044B7047937A03F003033B
:1015E0000029E6D043F00403E3E7D3685DF8044B39
:1015F000023BD3607047D3685DF8044B0233D3607D
:101600007047D3685DF8044B0133D360704700BF67
:10161000509F0220214B10B41A6E1368506819783D
:101620000478507A137A044201EA03011BD0937ABA
:1016300003F0030309B143F0040343F008039910D6
:10164000013B91720D2B0BD8DFE803F021071B073C
:101650000A152121150A071B0721D368013BD36016
:101660005DF8044B7047937A03F003030029E6D03A
:1016700043F00403E3E7D3685DF8044B023BD36017
:101680007047D3685DF8044B0233D3607047D3686A
:101690005DF8044B0133D360704700BF509F0220B8
:1016A000214B10B45A6E1368506819780478507A38
:1016B000137A044201EA03011BD0937A03F0030377
:1016C00009B143F0040343F008039910013B917200
:1016D0000D2B0BD8DFE803F021071B070A1521218A
:1016E000150A071B0721D368013BD3605DF8044B43
:1016F0007047937A03F003030029E6D043F0040314
:10170000E3E7D3685DF8044B023BD3607047D368CE
:101710005DF8044B0233D3607047D3685DF8044B27
:101720000133D360704700BF509F0220214B10B49B
:101730009A6E1368506819780478507A137A0442C4
:1017400001EA03011BD0937A03F0030309B143F0CC
:10175000040343F008039910013B91720D2B0BD841
:10176000DFE803F021071B070A152121150A071BD3
:101770000721D368013BD3605DF8044B7047937A2F
:1017800003F003030029E6D043F00403E3E7D36842
:101790005DF8044B023BD3607047D3685DF8044B9F
:1017A0000233D3607047D3685DF8044B0133D360D4
:1017B000704700BF509F0220214B10B4DA6E1368AF
:1017C000506819780478507A137A044201EA0301C8
:1017D0001BD0937A03F0030309B143F0040343F0F1
:1017E00008039910013B91720D2B0BD8DFE803F031
:1017F00021071B070A152121150A071B0721D3689A
:10180000013BD3605DF8044B7047937A03F0030308
:101810000029E6D043F00403E3E7D3685DF8044B06
:10182000023BD3607047D3685DF8044B0233D3604A
:101830007047D3685DF8044B0133D360704700BF35
:10184000509F0220214B10B41A6F1368506819780A
:101850000478507A137A044201EA03011BD0937A88
:1018600003F0030309B143F0040343F008039910A4
:10187000013B91720D2B0BD8DFE803F021071B070A
:101880000A152121150A071B0721D368013BD360E4
:101890005DF8044B7047937A03F003030029E6D008
:1018A00043F00403E3E7D3685DF8044B023BD360E5
:1018B0007047D3685DF8044B0233D3607047D36838
:1018C0005DF8044B0133D360704700BF509F022086
:1018D000214B10B45A6F1368506819780478507A05
:1018E000137A044201EA03011BD0937A03F0030345
:1018F00009B143F0040343F008039910013B9172CE
:101900000D2B0BD8DFE803F021071B070A15212157
:10191000150A071B0721D368013BD3605DF8044B10
:101920007047937A03F003030029E6D043F00403E1
:10193000E3E7D3685DF8044B023BD3607047D3689C
:101940005DF8044B0233D3607047D3685DF8044BF5
:101950000133D360704700BF509F0220214B10B469
:101960009A6F1368506819780478507A137A044291
:1019700001EA03011BD0937A03F0030309B143F09A
:10198000040343F008039910013B91720D2B0BD80F
:10199000DFE803F021071B070A152121150A071BA1
:1019A0000721D368013BD3605DF8044B7047937AFD
:1019B00003F003030029E6D043F00403E3E7D36810
:1019C0005DF8044B023BD3607047D3685DF8044B6D
:1019D0000233D3607047D3685DF8044B0133D360A2
:1019E000704700BF509F0220214B10B4DA6F13687C
:1019F000506819780478507A137A044201EA030196
:101A00001BD0937A03F0030309B143F0040343F0BE
:101A100008039910013B91720D2B0BD8DFE803F0FE
:101A200021071B070A152121150A071B0721D36867
:101A3000013BD3605DF8044B7047937A03F00303D6
:101A40000029E6D043F00403E3E7D3685DF8044BD4
:101A5000023BD3607047D3685DF8044B0233D36018
:101A60007047D3685DF8044B0133D360704700BF03
:101A7000509F0220214B10B4D3F880201368506887
:101A800019780478507A137A044201EA03011BD0D2
:101A9000937A03F0030309B143F0040343F008030E
:101AA0009910013B91720D2B0BD8DFE803F0210751
:101AB0001B070A152121150A071B0721D368013BC3
:101AC000D3605DF8044B7047937A03F00303002959
:101AD000E6D043F00403E3E7D3685DF8044B023B30
:101AE000D3607047D3685DF8044B0233D36070470E
:101AF000D3685DF8044B0133D3607047509F0220D8
:101B0000214B10B4D3F884201368506819780478F6
:101B1000507A137A044201EA03011BD0937A03F04E
:101B2000030309B143F0040343F008039910013B98
:101B300091720D2B0BD8DFE803F021071B070A1564
:101B40002121150A071B0721D368013BD3605DF8EB
:101B5000044B7047937A03F003030029E6D043F067
:101B60000403E3E7D3685DF8044B023BD36070479E
:101B7000D3685DF8044B0233D3607047D3685DF8D7
:101B8000044B0133D3607047509F0220214B10B4A7
:101B9000D3F888201368506819780478507A137A3B
:101BA000044201EA03011BD0937A03F0030309B155
:101BB00043F0040343F008039910013B91720D2B8D
:101BC0000BD8DFE803F021071B070A152121150AAE
:101BD000071B0721D368013BD3605DF8044B7047B6
:101BE000937A03F003030029E6D043F00403E3E70C
:101BF000D3685DF8044B023BD3607047D3685DF84F
:101C0000044B0233D3607047D3685DF8044B013353
:101C1000D3607047509F0220214B10B4D3F88C2022
:101C20001368506819780478507A137A044201EAEC
:101C300003011BD0937A03F0030309B143F00403BB
:101C400043F008039910013B91720D2B0BD8DFE88C
:101C500003F021071B070A152121150A071B07217D
:101C6000D368013BD3605DF8044B7047937A03F06F
:101C700003030029E6D043F00403E3E7D3685DF8EB
:101C8000044B023BD3607047D3685DF8044B0233CA
:101C9000D3607047D3685DF8044B0133D36070475D
:101CA000509F0220214B10B4D3F890201368506845
:101CB00019780478507A137A044201EA03011BD0A0
:101CC000937A03F0030309B143F0040343F00803DC
:101CD0009910013B91720D2B0BD8DFE803F021071F
:101CE0001B070A152121150A071B0721D368013B91
:101CF000D3605DF8044B7047937A03F00303002927
:101D0000E6D043F00403E3E7D3685DF8044B023BFD
:101D1000D3607047D3685DF8044B0233D3607047DB
:101D2000D3685DF8044B0133D3607047509F0220A5
:101D3000214B10B4D3F894201368506819780478B4
:101D4000507A137A044201EA03011BD0937A03F01C
:101D5000030309B143F0040343F008039910013B66
:101D600091720D2B0BD8DFE803F021071B070A1532
:101D70002121150A071B0721D368013BD3605DF8B9
:101D8000044B7047937A03F003030029E6D043F035
:101D90000403E3E7D3685DF8044B023BD36070476C
:101DA000D3685DF8044B0233D3607047D3685DF8A5
:101DB000044B0133D3607047509F0220214B10B475
:101DC000D3F898201368506819780478507A137AF9
:101DD000044201EA03011BD0937A03F0030309B123
:101DE00043F0040343F008039910013B91720D2B5B
:101DF0000BD8DFE803F021071B070A152121150A7C
:101E0000071B0721D368013BD3605DF8044B704783
:101E1000937A03F003030029E6D043F00403E3E7D9
:101E2000D3685DF8044B023BD3607047D3685DF81C
:101E3000044B0233D3607047D3685DF8044B013321
:101E4000D3607047509F0220214B10B4D3F89C20E0
:101E50001368506819780478507A137A044201EABA
:101E600003011BD0937A03F0030309B143F0040389
:101E700043F008039910013B91720D2B0BD8DFE85A
:101E800003F021071B070A152121150A071B07214B
:101E9000D368013BD3605DF8044B7047937A03F03D
:101EA00003030029E6D043F00403E3E7D3685DF8B9
:101EB000044B023BD3607047D3685DF8044B023398
:101EC000D3607047D3685DF8044B0133D36070472B
:101ED000509F0220214B10B4D3F8A0201368506803
:101EE00019780478507A137A044201EA03011BD06E
:101EF000937A03F0030309B143F0040343F00803AA
:101F00009910013B91720D2B0BD8DFE803F02107EC
:101F10001B070A152121150A071B0721D368013B5E
:101F2000D3605DF8044B7047937A03F003030029F4
:101F3000E6D043F00403E3E7D3685DF8044B023BCB
:101F4000D3607047D3685DF8044B0233D3607047A9
:101F5000D3685DF8044B0133D3607047509F022073
:101F6000214B10B4D3F8A420136850681978047872
:101F7000507A137A044201EA03011BD0937A03F0EA
:101F8000030309B143F0040343F008039910013B34
:101F900091720D2B0BD8DFE803F021071B070A1500
:101FA0002121150A071B0721D368013BD3605DF887
:101FB000044B7047937A03F003030029E6D043F003
:101FC0000403E3E7D3685DF8044B023BD36070473A
:101FD000D3685DF8044B0233D3607047D3685DF873
:101FE000044B0133D3607047509F0220214B10B443
:101FF000D3F8A8201368506819780478507A137AB7
:10200000044201EA03011BD0937A03F0030309B1F0
:1020100043F0040343F008039910013B91720D2B28
:102020000BD8DFE803F021071B070A152121150A49
:10203000071B0721D368013BD3605DF8044B704751
:10204000937A03F003030029E6D043F00403E3E7A7
:10205000D3685DF8044B023BD3607047D3685DF8EA
:10206000044B0233D3607047D3685DF8044B0133EF
:10207000D3607047509F0220214B10B4D3F8AC209E
:102080001368506819780478507A137A044201EA88
:1020900003011BD0937A03F0030309B143F0040357
:1020A00043F008039910013B91720D2B0BD8DFE828
:1020B00003F021071B070A152121150A071B072119
:1020C000D368013BD3605DF8044B7047937A03F00B
:1020D00003030029E6D043F00403E3E7D3685DF887
:1020E000044B023BD3607047D3685DF8044B023366
:1020F000D3607047D3685DF8044B0133D3607047F9
:10210000509F0220214B10B4D3F8B02013685068C0
:1021100019780478507A137A044201EA03011BD03B
:10212000937A03F0030309B143F0040343F0080377
:102130009910013B91720D2B0BD8DFE803F02107BA
:102140001B070A152121150A071B0721D368013B2C
:10215000D3605DF8044B7047937A03F003030029C2
:10216000E6D043F00403E3E7D3685DF8044B023B99
:10217000D3607047D3685DF8044B0233D360704777
:10218000D3685DF8044B0133D3607047509F022041
:10219000214B10B4D3F8B420136850681978047830
:1021A000507A137A044201EA03011BD0937A03F0B8
:1021B000030309B143F0040343F008039910013B02
:1021C00091720D2B0BD8DFE803F021071B070A15CE
:1021D0002121150A071B0721D368013BD3605DF855
:1021E000044B7047937A03F003030029E6D043F0D1
:1021F0000403E3E7D3685DF8044B023BD360704708
:10220000D3685DF8044B0233D3607047D3685DF840
:10221000044B0133D3607047509F0220214B10B410
:10222000D3F8B8201368506819780478507A137A74
:10223000044201EA03011BD0937A03F0030309B1BE
:1022400043F0040343F008039910013B91720D2BF6
:102250000BD8DFE803F021071B070A152121150A17
:10226000071B0721D368013BD3605DF8044B70471F
:10227000937A03F003030029E6D043F00403E3E775
:10228000D3685DF8044B023BD3607047D3685DF8B8
:10229000044B0233D3607047D3685DF8044B0133BD
:1022A000D3607047509F0220214B10B4D3F8BC205C
:1022B0001368506819780478507A137A044201EA56
:1022C00003011BD0937A03F0030309B143F0040325
:1022D00043F008039910013B91720D2B0BD8DFE8F6
:1022E00003F021071B070A152121150A071B0721E7
:1022F000D368013BD3605DF8044B7047937A03F0D9
:1023000003030029E6D043F00403E3E7D3685DF854
:10231000044B023BD3607047D3685DF8044B023333
:10232000D3607047D3685DF8044B0133D3607047C6
:10233000509F0220214B10B4D3F8C020136850687E
:1023400019780478507A137A044201EA03011BD009
:10235000937A03F0030309B143F0040343F0080345
:102360009910013B91720D2B0BD8DFE803F0210788
:102370001B070A152121150A071B0721D368013BFA
:10238000D3605DF8044B7047937A03F00303002990
:10239000E6D043F00403E3E7D3685DF8044B023B67
:1023A000D3607047D3685DF8044B0233D360704745
:1023B000D3685DF8044B0133D3607047509F02200F
:1023C000214B10B4D3F8C4201368506819780478EE
:1023D000507A137A044201EA03011BD0937A03F086
:1023E000030309B143F0040343F008039910013BD0
:1023F00091720D2B0BD8DFE803F021071B070A159C
:102400002121150A071B0721D368013BD3605DF822
:10241000044B7047937A03F003030029E6D043F09E
:102420000403E3E7D3685DF8044B023BD3607047D5
:10243000D3685DF8044B0233D3607047D3685DF80E
:10244000044B0133D3607047509F0220214B10B4DE
:10245000D3F8C8201368506819780478507A137A32
:10246000044201EA03011BD0937A03F0030309B18C
:1024700043F0040343F008039910013B91720D2BC4
:102480000BD8DFE803F021071B070A152121150AE5
:10249000071B0721D368013BD3605DF8044B7047ED
:1024A000937A03F003030029E6D043F00403E3E743
:1024B000D3685DF8044B023BD3607047D3685DF886
:1024C000044B0233D3607047D3685DF8044B01338B
:1024D000D3607047509F0220214B10B4D3F8CC201A
:1024E0001368506819780478507A137A044201EA24
:1024F00003011BD0937A03F0030309B143F00403F3
:1025000043F008039910013B91720D2B0BD8DFE8C3
:1025100003F021071B070A152121150A071B0721B4
:10252000D368013BD3605DF8044B7047937A03F0A6
:1025300003030029E6D043F00403E3E7D3685DF822
:10254000044B023BD3607047D3685DF8044B023301
:10255000D3607047D3685DF8044B0133D360704794
:10256000509F0220002310B4114C4172026104609C
:102570000372C36041B1194600E0026942F82310BA
:10258000427A01339A42F8DC0A4B1A680AB90CE025
:102590001A465369002BFBD15061002343618380AD
:1025A000C38083725DF8044B70471860F5E700BF85
:1025B0005CAA010008A50220F8B5044615460E469F
:1025C0000846022110F0C6F92846022110F0C2F98F
:1025D000984A994B52F83610012001F50077276090
:1025E000207252F83520607202F500770020676093
:1025F000E060013BFDD191F8003292F8002203F037
:102600000103D20744BF43F00203DBB2A3723B2EA7
:1026100000F20386DFE816F0F405EA05E005D605CA
:10262000CC05C205B805AE05A4059A05900586053A
:102630007C05720568055E0554054A0540053605AA
:102640002C05220518050E050405FA04F004E6041D
:10265000DC04D204C804BE04B304A8049D0492049C
:1026600087047C0428041E0414040A040004F603EE
:10267000EC03E203D803CE03C403BA03B003A603FA
:102680009C03920388037E0374036A0360033C0087
:102690006A4B6B49C3F8EC4004223B2010F0B2F8BF
:1026A000012323743B2D00F2B585DFE815F00B0301
:1026B0000103F702ED02E302D902CF02C502BB0219
:1026C000B102A7029D02930289027F023102270212
:1026D0001D0213020902FF01F501EB01E101D7011F
:1026E000CD01C301B901AF01A5019B019101860193
:1026F0007B01700165015A014F01440139012E012E
:10270000230118010D010201F700EC00E100B800FF
:10271000AD00A20097008C00810076006B00600085
:1027200055004A003C00454B4549C3F8EC400422A3
:102730003B2010F067F8237C0122134423742046C9
:10274000F8BD3E4B3F49C3F8E84004223A2010F060
:1027500059F8237C0122F0E7384B3B49C3F8E440A9
:102760000422392010F04EF8237C0122E5E7334B98
:102770003649C3F8E0400422382010F043F8237CA7
:102780000122DAE72D4B3249C3F8DC40042237201E
:1027900010F038F8237C0122CFE7284B2D49C3F8ED
:1027A000D8400422362010F02DF8237C0122C4E703
:1027B000224B2949C3F8D4400422352010F022F8D6
:1027C000237C0122B9E71D4B2449C3F8D0400422E1
:1027D000342010F017F8237C0122AEE7174B204974
:1027E000C3F8CC400422332010F00CF8237C0122E3
:1027F000A3E7124B1B49C3F8C8400422322010F053
:1028000001F8237C012298E70C4B1749C3F8C44018
:10281000042231200FF0F6FF237C01228DE7074BC5
:102820001249C3F8C040042230200FF0EBFF237C94
:10283000012282E77CE00100C0D40100509F022009
:10284000990A00000D0A000081090000F508000047
:1028500069080000DD07000051070000C506000000
:10286000D92400004D240000C123000035230000BE
:10287000AC4BAD49C3F8BC4004222F200FF0C2FF7F
:10288000237C012259E7A74BA849C3F8B84004228A
:102890002E200FF0B7FF237C01224EE7A14BA44965
:1028A000C3F8B44004222D200FF0ACFF237C01229A
:1028B00043E79C4B9F49C3F8B04004222C200FF003
:1028C000A1FF237C012238E7964B9B49C3F8AC401B
:1028D00004222B200FF096FF237C01222DE7914B41
:1028E0009649C3F8A84004222A200FF08BFF237CCE
:1028F000012222E78B4B9249C3F8A44004222920ED
:102900000FF080FF237C012217E7864B8D49C3F827
:10291000A040042228200FF075FF237C01220CE741
:10292000804B8949C3F89C40042227200FF06AFF9E
:10293000237C012201E77B4B8449C3F898400422A1
:1029400026200FF05FFF237C0122F6E6754B8049BD
:10295000C3F89440042225200FF054FF237C012269
:10296000EBE6704B7B49C3F89040042224200FF023
:1029700049FF237C0122E0E66A4B7749C3F88C408B
:10298000042223200FF03EFF237C0122D5E6654B75
:102990007249C3F88840042222200FF033FF237CC1
:1029A0000122CAE65F4B6E49C3F88440042221200D
:1029B0000FF028FF237C0122BFE65A4B6949C3F878
:1029C0008040042220200FF01DFF237C0122B4E66A
:1029D000544B6549DC6704221F200FF013FF237C52
:1029E0000122AAE64F4B61499C6704221E200FF08A
:1029F00009FF237C0122A0E64A4B5D495C67042263
:102A00001D200FF0FFFE237C012296E6454B59491D
:102A10001C6704221C200FF0F5FE237C01228CE6AB
:102A2000404B5549DC6604221B200FF0EBFE237C53
:102A3000012282E63B4B51499C6604221A200FF08A
:102A4000E1FE237C012278E6364B4D495C66042288
:102A500019200FF0D7FE237C01226EE6314B494945
:102A60001C66042218200FF0CDFE237C012264E6B0
:102A70002C4B4549DC65042217200FF0C3FE237C54
:102A800001225AE6274B41499C65042216200FF08B
:102A9000B9FE237C012250E6224B3D495C650422AD
:102AA00015200FF0AFFE237C012246E61D4B39496D
:102AB0001C65042214200FF0A5FE237C01223CE6B5
:102AC000184B3549DC64042213200FF09BFE237C55
:102AD000012232E6134B31499C64042212200FF08C
:102AE00091FE237C012228E60E4B2D495C640422D2
:102AF00011200FF087FE237C01221EE6094B294995
:102B00001C64042210200FF07DFE237C012214E6B9
:102B1000044B2549DC6304220F200FF073FE237C55
:102B200001220AE6509F0220A92200001D22000077
:102B3000912100000521000079200000ED1F000018
:102B4000611F0000D51E0000491E0000BD1D0000D1
:102B5000311D0000A51C0000191C00008D1B000089
:102B6000011B0000751A0000E91900005D19000042
:102B7000D118000045180000B91700002D170000FB
:102B8000A11600001516000089150000FD140000B4
:102B900071140000E513000059130000CD1200006D
:102BA00041120000B511000029110000B34BB449D7
:102BB0009C6304220E200FF025FE237C0122BCE53D
:102BC000AE4BB0495C6304220D200FF01BFE237C4A
:102BD0000122B2E5A94BAC491C6304220C200FF082
:102BE00011FE237C0122A8E5A44BA849DC62042243
:102BF0000B200FF007FE237C01229EE59F4BA4498A
:102C00009C6204220A200FF0FDFD237C012294E542
:102C10009A4BA0495C62042209200FF0F3FD237C4B
:102C200001228AE5954B9C491C62042208200FF082
:102C3000E9FD237C012280E5904B9849DC61042268
:102C400007200FF0DFFD237C012276E58B4B9449B2
:102C50009C61042206200FF0D5FD237C01226CE547
:102C6000864B90495C61042205200FF0CBFD237C4C
:102C7000012262E5814B8C491C61042210460FF051
:102C8000C1FD237C012258E57C4B8849DC6004228D
:102C900003200FF0B7FD237C01224EE5774B8449DA
:102CA0009C60042202200FF0ADFD237C012244E54C
:102CB000724B80495C60042201200FF0A3FD237C4D
:102CC00001223AE56D4B7C491C60042200200FF084
:102CD00099FD237C012230E5684B7849C3F8E84030
:102CE00004223A200FF08EFD0123DAE4634B74498D
:102CF000C3F8E440042239200FF084FD0123D0E41E
:102D00005E4B7049C3F8E040042238200FF07AFD92
:102D10000123C6E4594B6C49C3F8DC400422372038
:102D20000FF070FD0123BCE4544B6849C3F8D84050
:102D3000042236200FF066FD0123B2E44F4B6449B4
:102D4000C3F8D440042235200FF05CFD0123A8E431
:102D50004A4B6049C3F8D040042234200FF052FDA2
:102D600001239EE4454B5C49C3F8CC400422332048
:102D70000FF048FD012394E4404B5849C3F8C84084
:102D8000042232200FF03EFD01238AE43B4B5449DC
:102D9000C3F8C440042231200FF034FD012380E445
:102DA000364B5049C3F8C040042230200FF02AFDB2
:102DB000012376E4314B4C49C3F8BC4004222F2058
:102DC0000FF020FD01236CE42C4B4849C3F8B840B8
:102DD00004222E200FF016FD012362E4274B444904
:102DE000C3F8B44004222D200FF00CFD012358E459
:102DF000224B4049C3F8B04004222C200FF002FDC2
:102E000001234EE41D4B3C49C3F8AC4004222B2067
:102E10000FF0F8FC012344E4184B3849C3F8A840EC
:102E200004222A200FF0EEFC01233AE4134B34492C
:102E3000C3F8A440042229200FF0E4FC012330E46D
:102E40000E4B3049C3F8A040042228200FF0DAFCD2
:102E5000012326E4094B2C49C3F89C400422272077
:102E60000FF0D0FC01231CE4044B2849C3F8984020
:102E7000042226200FF0C6FC012312E4509F0220FA
:102E80009D10000011100000850F0000F90E0000D9
:102E90006D0E0000E10D0000550D0000C90C000092
:102EA0003D0C0000B10B0000250B000039060000AE
:102EB000AD05000021050000950400000D0A00008A
:102EC00081090000F508000069080000DD07000026
:102ED00051070000C5060000D92400004D24000061
:102EE000C123000035230000A92200001D2200009C
:102EF000912100000521000079200000ED1F000055
:102F0000611F0000D51E0000491E0000BD1D00000D
:102F1000C34BC449C3F89440042225200FF072FC2F
:102F20000123FFF7BEBBBE4BBF49C3F8904004224C
:102F300024200FF067FC0123FFF7B3BBB84BBB495C
:102F4000C3F88C40042223200FF05CFC0123FFF720
:102F5000A8BBB34BB649C3F88840042222200FF027
:102F600051FC0123FFF79DBBAD4BB249C3F8844030
:102F7000042221200FF046FC0123FFF792BBA84B4F
:102F8000AD49C3F88040042220200FF03BFC012310
:102F9000FFF787BBA24BA949DC6704221F200FF073
:102FA00031FC0123FFF77DBB9D4BA5499C670422A3
:102FB0001E200FF027FC0123FFF773BB984BA1499C
:102FC0005C6704221D200FF01DFC0123FFF769BB85
:102FD000934B9D491C6704221C200FF013FC012316
:102FE000FFF75FBB8E4B9949DC6604221B200FF074
:102FF00009FC0123FFF755BB894B95499C660422C8
:103000001A200FF0FFFB0123FFF74BBB844B9149C4
:103010005C66042219200FF0F5FB0123FFF741BB8A
:103020007F4B8D491C66042218200FF0EBFB012317
:10303000FFF737BB7A4B8949DC65042217200FF074
:10304000E1FB0123FFF72DBB754B85499C650422ED
:1030500016200FF0D7FB0123FFF723BB704B8149EC
:103060005C65042215200FF0CDFB0123FFF719BB8F
:103070006B4B7D491C65042214200FF0C3FB012318
:10308000FFF70FBB664B7949DC64042213200FF075
:10309000B9FB0123FFF705BB614B75499C64042212
:1030A00012200FF0AFFB0123FFF7FBBA5C4B714915
:1030B0005C64042211200FF0A5FB0123FFF7F1BA95
:1030C000574B6D491C64042210200FF09BFB012319
:1030D000FFF7E7BA524B6949DC6304220F200FF077
:1030E00091FB0123FFF7DDBA4D4B65499C63042238
:1030F0000E200FF087FB0123FFF7D3BA484B61493D
:103100005C6304220D200FF07DFB0123FFF7C9BA99
:10311000434B5D491C6304220C200FF073FB012319
:10312000FFF7BFBA3E4B5949DC6204220B200FF077
:1031300069FB0123FFF7B5BA394B55499C6204225C
:103140000A200FF05FFB0123FFF7ABBA344B514964
:103150005C62042209200FF055FB0123FFF7A1BA9E
:103160002F4B4D491C62042208200FF04BFB01231A
:10317000FFF797BA2A4B4949DC61042207200FF078
:1031800041FB0123FFF78DBA254B45499C61042281
:1031900006200FF037FB0123FFF783BA204B41498C
:1031A0005C61042205200FF02DFB0123FFF779BAA3
:1031B0001B4B3D491C61042210460FF023FB0123E9
:1031C000FFF76FBA164B3949DC60042203200FF079
:1031D00019FB0123FFF765BA114B35499C600422A6
:1031E00002200FF00FFB0123FFF75BBA0C4B3149B4
:1031F0005C60042201200FF005FB0123FFF751BAA8
:10320000074B2D491C60042200200FF0FBFA01231C
:10321000FFF747BA0022FFF790BA0023FFF741BA41
:10322000509F0220311D0000A51C0000191C000049
:103230008D1B0000011B0000751A0000E919000039
:103240005D190000D118000045180000B9170000F2
:103250002D170000A11600001516000089150000AA
:10326000FD14000071140000E51300005913000064
:10327000CD12000041120000B5110000291100001C
:103280009D10000011100000850F0000F90E0000D5
:103290006D0E0000E10D0000550D0000C90C00008E
:1032A0003D0C0000B10B0000250B000039060000AA
:1032B000AD050000210500009504000010B592B096
:1032C000014601A80EF0BAFD0023322201A805A98B
:1032D0000EF0D6FD05A9054809F0AAFE044601A88E
:1032E0000EF06CFDA0B212B010BD00BF0094002023
:1032F00030B500EB8004A4002D3424B2054683B021
:10330000224600210F4809F0F9FE0F4B1B689D4231
:1033100007D00C484FF6E07103B0BDE8304009F02B
:1033200009BF4FF6FF71074809F004FF002114237D
:10333000009322460191F023024807F095FB03B069
:1033400030BD00BF00940020C498002007EE900A12
:103350009FED0C6ADFED0C6A0C4B0D48B8EEE77A76
:10336000DFED0C7A27EE067A10B5E7EE267A012417
:103370001C60FCEEE77A17EE901A05F049FC064B4C
:103380001C6010BD0AD7233C0000014388E100E027
:10339000304F0020EE7CFF3E08E100E010B5A2B007
:1033A00044221749044668460FF084F844220DEB86
:1033B000020014490FF07EF8ADF10402002352F828
:1033C000041FA14204D00133112BF8D122B010BD4B
:1033D0000D490A68002AFCDB22AA02EB83030B4991
:1033E00013F8442C33F8423C013A1203013B02F437
:1033F0007F22C3F30B0313430B6022B010BD00BF49
:1034000060AA0100A4AA010000F1024004F10240F8
:103410002DE9F04F2DED028BDFF800B13B4BDFEDD6
:103420003C8A9FED3C8A85B04FF000080393D94653
:1034300004E0B8F1FC0F4BF8046F62D059F8043F78
:10344000039A029332F9024F039207EE903A07EE85
:10345000104AF8EEE77AB8EEC77A67EEA87A1FFA54
:1034600088F5E7EE087A2F1D4FF4FC633FB2FDEEBE
:10347000E77A5A2217EE906ABE2ED4BF26EAE67685
:10348000BE26BE2CA8BFBE240FFA84FA22480093A1
:1034900039465346A4B207F05DF90020C4F1BE03DB
:1034A00004F15A02394600901BB212B21A4805358F
:1034B00007F050F92DB2002300932946BE235A226B
:1034C000154807F047F94FF4FC625346009229462D
:1034D0005A22114807F03EF9029B042B08F102081A
:1034E000A7DD1A4655324FF6FF73009312B22946F4
:1034F0000523094807F02EF9B8F1FC0F4BF8046FCB
:103500009CD105B0BDEC028BBDE8F08FB68C0020DD
:103510003333333F9A99993E00940020FC83002076
:10352000F8B55C4E34685CB1032C5B4D28D0022C9E
:103530003CD0012C60D0042C7DD000232B62F8BD40
:103540005648554D564F05F0ABFD564A564B11683F
:103550001A68EC6191424FF48033AB6104BFEB61B8
:10356000AC61524B34685248524A00211960032C16
:103570004FF001034FF002013B6003601160D6D1B0
:103580004FF480414548464F05F06EFD474B346887
:103590004848474900221A60AA6101234FF480324B
:1035A000022C3B6003600B60EA61C2D14FF48041A2
:1035B0003A4805F043FD404BDFED406A93F9003097
:1035C00007EE903AF8EEE77AB7EE006A86EE277AD1
:1035D0004FF480320023EA61AB61B4EEE67AF1EE9B
:1035E00010FA3BD4F2EE007AB4EEE77AF1EE10FA7C
:1035F00044DD4FF4002333E02848274C2B4F05F0DF
:103600004FFD284A284B116818684FF480328842D1
:103610004FF00003EB61AA6108BFE2612048254931
:10362000234A08BFA36101233468036000263E607B
:103630000B6013607FE719481C4F194E1D4C05F0B5
:103640002FFD1B48002201234FF480313A60EA61CC
:10365000AA613360236003602962F8BD40F28F23C2
:103660000E4F124C0E481349114A3B6201230027AA
:103670002760036034680B6013605AE7DFED106A5F
:10368000DFED107AE7EE267AFCEEE77A17EE903A55
:10369000E6E700BFB49600207C970020D496002077
:1036A000949C02200C4F0020243E0020CC98002047
:1036B000E8930020D04E00205D3E00200AD7233C36
:1036C00000008047EE7CFF3EF0B5474C474A484932
:1036D00091B0002508A80123256003F0D1F910AAB4
:1036E00044480A9B12F8145D9DF82410836005730A
:1036F000017100F10D031A3012F8011F03F8011BCC
:1037000083423C49F8D10F9B3B4ECB6108A803F0A4
:10371000DFF80023394F336005E008A803F0EEF826
:1037200008A803F0D5F80122324908A803F01CFAD2
:1037300008A803F0F1F840F2E63310B922689A4283
:103740004CDD08A803F0C8F80028E6D108A803F06B
:10375000C1F8014668460EF071FB294904A80EF035
:103760006DFB04A968460EF0A5FB054604A80EF003
:1037700025FB1DB968460EF021FBCEE7236803EB5D
:10378000430503EB850308A8FD1803F0A3F80146E1
:10379000284613F0F5FB1B4904A80EF04FFB04A9C3
:1037A00068460EF087FB054604A80EF007FB2B4683
:1037B0000122694604A80EF08FFB04A80EF0B0FBAE
:1037C000054604A80EF0FAFA326823680A499542C1
:1037D00003F10103C8BF0D602360CBE708A803F025
:1037E00077F811B0F0BD00BF1C97002090AB01002E
:1037F000989C0220709C02206C1C02203C510020EE
:1038000094AB01009CAB010008B5054901220020E2
:103810000BF052FFFE210348BDE8084003F084B8D6
:10382000A0AB0100989C022038B5064D0648074C15
:10383000294601220BF040FF207028460CF012FBB5
:10384000207038BDA0AB01006C4C0020491C022048
:10385000F8B5224C236833B9214B1A6840F2E6339D
:103860009A420DDDF8BD1F480CF0EAFA00231E4A0B
:1038700023601B4B10701A6840F2E6339A42F1DC69
:103880001A4F1B4B3D681B681A491B48164E0135E1
:103890002A463D6013F0E6FA002117480CF0F6FACC
:1038A0000A22307014490F480BF030FF02283070A4
:1038B00008D00A2210490B480BF028FF0123307072
:1038C0002360F8BD07480CF0BBFA09283070F0D12E
:1038D00009480CF001FB3070EBE700BFE8980020CE
:1038E0001C97002028940020491C02206C1C0220F8
:1038F000EC980020A4AB0100209700202DE9F843AC
:10390000064606F071F801282CDDDFF86490DFF838
:1039100058800025D8F80000134F05EB40043046CE
:1039200006F094F809EB042401464FF48072204617
:103930000EF0C0FD0135304606F0A6F8022DE9D1A3
:103940003B680133BF2B02D83B60BDE8F8830022FF
:10395000064B3A60064907484FF4C0320CF052F863
:10396000054B1870BDE8F88324940020CC4E00204D
:103970007099002028940020491C0220134A38B571
:1039800000230446124D80F8F63013700CE006F068
:103990005DF8104B01464FF480720F480CF032F87E
:1039A0002870204606F070F8204606F01DF8002822
:1039B0002046ECDC08480CF043FA084B2870002243
:1039C0001A60BDE83840FFF77FBE00BF244F0020DB
:1039D000491C0220CC4E002028940020E8980020AA
:1039E00008B50948FFF7CAFF0021084807F0FAF9AF
:1039F0000749084A084B096811604FF480329A6100
:103A0000BDE80840FFF78CBDB89700200094002067
:103A1000909C0220B4960020F49800202DE9F041FB
:103A20008CB00DF1FF3600250746B0462C462846DF
:103A30000EF0F0FC08F8010F4440082314F0010FC9
:103A40004FEA540203F1FF3314BF82F08C04C4F335
:103A5000470413F0FF03F1D101352F2DE7D1F4B95D
:103A60009DF82B30322B03D020460CB0BDE8F081FE
:103A70009DF82A30302BF7D19DF82930302BF3D127
:103A80009DF82830302BEFD1013F0DF12F0316F8B0
:103A9000012F07F8012F9E42F9D10120E5E71846D2
:103AA0000CB0BDE8F08100BFF8B50025471E2C46DC
:103AB00017F8016F0823744014F0010F4FEA540205
:103AC00003F1FF3314BF82F08C04C4F3470413F0F6
:103AD000FF03F1D128460EF09DFC864209D0314605
:103AE00028460EF0B1FC28460EF094FC3B78834249
:103AF00004D101352E2DDBD1002600E00126214620
:103B000028460EF0A1FC28460EF084FC84420CBF2F
:103B100030460120F8BD00BF2DE9F0432549264875
:103B2000264A09680068264B264D1B88264C2E68BD
:103B3000264F2568264C3F6894F800908FB00133DB
:103B40000390059192E80300C0F307228DF831201D
:103B5000C0F307428DF832201E491F4A91F80080B9
:103B600092F800C0ADF80A301C4A1D4B1D498DF873
:103B70003000000E92F800E009688DF833000696D8
:103B80005F2293F900600891002302A88DF81DC000
:103B90008DF81CE08DF808200A9504978DF8259083
:103BA0008DF824800B96ADF83430FFF77DFF0FB011
:103BB000BDE8F0831C3E0020284F0020B0AB010080
:103BC000288C0020943E0020D0980020AC3E00209D
:103BD000B13E00205D3E0020A43E0020143E0020A7
:103BE000B03E0020A83E00202DE9F04FAA4AAB4B82
:103BF0001468AB48AB491C600C328BB005680C688C
:103C00001268A949A948DA605D609C600EF016F957
:103C1000A74AA849A548DFF8D49211F037F81C212B
:103C20001B2227238DE80E00A348FF231422152111
:103C300006F030FC32222521A0480DF08BFD322207
:103C400024219F480DF086FD232222219D48FEF766
:103C5000B3FC322226219C480DF07CFD32221D212E
:103C60009A480DF077FD1F221E219948FEF7A4FC0B
:103C7000984B994993F90030984A99480B7012680B
:103C80005942017000239749C9F8001089F809309A
:103C9000C9F8103089F80830C9F80C300AB9C0E208
:103CA0001A465369002BFBD1C2F814900024DFF8A8
:103CB00090B28D4B8D48C9F81440A9F80440A9F87A
:103CC000064089F80A40C9F8003005F0DBFA0BF12C
:103CD000180201215846FEF745FC854B85488BF8B4
:103CE000F440224621468BF8F540CBF8F0408BF8A3
:103CF000F640CBF80030FEF735FC7E4A7E4B136071
:103D00007E4A7C4E7E4D18324FF48043A2F118005B
:103D100002213362FEF726FC784A7A4B13600120B9
:103D200005F224726F4E2C7223462146EC602E6001
:103D300068722A612C4600E0226942F823106A7AF0
:103D40006F4801339A42F7DC644B1A680AB96CE297
:103D50001A465369002BFBD1556100246A4929603A
:103D6000224601234FF48071684E69486C61AC8033
:103D7000EC80AC7285F8214785F82247C5F81861B8
:103D800010F0A8FE554BDFF894811A685549C5F824
:103D90001C41082385F8203788F80940C8F800102E
:103DA000C8F8104088F80840C8F80C404B4B0AB9D6
:103DB0003DE21A465369002BFBD1C2F814804FF044
:103DC000000A544B5448C8F814A0A8F804A0A8F856
:103DD00006A088F80AA0C8F8003002F06BFD4F4832
:103DE0004F4C504F504E05F0FBFC314A4F494B4869
:103DF00010F04CFF4E4B012103F118021846FEF75C
:103E0000B1FB4B4A4B4B13604B4B042103F128028F
:103E10001846FEF7A7FB494B03F128021846464B0C
:103E200004211C604FF480349C61DC611C625C6284
:103E3000FEF798FB414B3A4C1C6007F128024FF407
:103E40008034042138469C61DC611C625C62FEF7B0
:103E500089FB3349BC61022006F11802FC613C6217
:103E60007C62204C396034605346514686F808A085
:103E7000C6F80CA070723261344600E0226942F844
:103E80002310727A284801339A42F7DC134B1A68E0
:103E9000002A58D1CEE100BF54800440688C002035
:103EA000588004405C800440B8AB0100B84E00204C
:103EB0000C3E0020BD1D010000940020EC9300206A
:103EC00084190220BC960020D84E0020589900206A
:103ED000104F0020B03E0020481C022008A5022000
:103EE000FC9300205CAA010000B30100DC19022051
:103EF00030B30100788C00203CB30100201A02206E
:103F00009C8C0020F4B20100C0B00100E0B00100C0
:103F1000C493002024B30100B01902209819022094
:103F20000CB301007C9600204C1C022071040000A0
:103F3000D4960020E8B20100F49800207C9700207D
:103F4000B89700201A465369002BFBD15661002414
:103F5000B94ABA4B7461B480F480B472B848326024
:103F6000059305F0C7FB059BDFF82CA31C721846D0
:103F7000C3F800905F605C72DC601C740DF04CFD57
:103F8000059BB04AB049184610F080FEAF4B059330
:103F900050468AE8000A8AF808408AF80940CAF8B8
:103FA0000C408AF810400DF037FDA64AA649DFF80C
:103FB000ECB2504610F06AFE059BDFF8E4A21C72DA
:103FC0004FF001091846C3F800805F60DC601C7484
:103FD00083F809900DF020FD059B9A4A9A49DFF875
:103FE000C482184610F052FE994BCBF80430584664
:103FF0008BF80840CBF800708BF80940CBF80C40E8
:104000008BF810400DF008FD8E4A8F49584610F08D
:104010003DFE904BCAF8043050468AF80840CAF872
:1040200000708AF80940CAF80C408AF810400DF078
:10403000F3FC844A8449DFF870B2504610F026FE43
:10404000834B88F80840404688E8280088F80940F3
:10405000C8F80C4088F810400DF0DEFC794A7A4927
:104060007D4B0593404610F011FE7C4BDFF83CA2DF
:10407000CBF8043058468BF80840CBF800708BF82A
:104080000940CBF80C408BF810400DF0C5FC6D4A90
:104090006D49DFF81C82724D584610F0F7FD714BE8
:1040A000CAF8003050466D4BCAF804308AF8084010
:1040B0008AF80990CAF80C408AF810400DF0ACFC60
:1040C0006149604ADFF8ECB1504610F0DFFD059B16
:1040D000604A1A601846644A1C725A6083F8099054
:1040E000DC601C740DF098FC059B564A5649DFF8BD
:1040F000C8A1184610F0CAFD584BC8F80030404619
:10410000594BC8F8043088F8084088F80940C8F8C6
:104110000C4088F810400DF07FFC4B49494A40465E
:1041200010F0B4FD022328464F4A6B722C722F60A8
:104130006A60EC602C740DF06FFC424A4249DFF873
:104140007C814A4F284610F0A1FD474B8BF8084070
:1041500058468BE848008BF80940CBF80C408BF8A8
:1041600010400DF059FC374A3749414D584610F080
:104170008DFD3D4B8AF8099050468AE848008AF840
:104180000840CAF80C408AF810400DF045FC504633
:104190002C4A2D49DFF828A1364CDFF8289110F081
:1041A00075FD3549354B0A680792DDF81CB00A6881
:1041B00008921A68089B0968DFF80CE109911E460D
:1041C0002F4B0999DFF804C1CEF8002002EB420022
:1041D00003EB80032B4A2D68CAF800B0A1F57A7171
:1041E000D3F808B0D3F804A0C8F80060264B2748DD
:1041F000CCF800104FF00A082360C2F800A0C7F8FE
:1042000000B0C9F8005084F8088002F053FB0D4A52
:104210001F491E4810F03AFD0EF0B0F80BB0BDE893
:10422000F08F1C4BC3F8009040E5186095E5C3F88B
:104230000080C4E518608AE618B30100408C0020B5
:104240004C1C02200C3E002089040000548C0020ED
:10425000F4980020D496002070190220201A022021
:10426000108C0020788C00207C970020B4970020D0
:10427000A83E0020304F002098A50220943E002048
:10428000E8AA0100EC980020CCB00100709C02204C
:10429000D168000008A50220B0980020F41902207F
:1042A000081A022044990020F44E00203099002082
:1042B000D49800202C8C0020D4930020FC8B00206C
:1042C000441C0220F88B002074970020B896002030
:1042D0002DE9F04F2DED028B434CDFF82891434F31
:1042E00095B020464FF6E07108F024FF2825002203
:1042F0004FF400430193114620460095F023C4F883
:10430000189006F0B1FB4FF6FF7301930095F02370
:104310002A462046002107F059FC3B68012B00F09B
:104320009182022B00F09B8214224FF400438DE80F
:104330000C000021F0234FF48C722B482C4EDFF838
:10434000C88006F091FB28224FF448738DE80C00DA
:104350000021F0234FF49672234806F085FB0022DB
:104360001146214808F0CAFE022222491E480DF0DB
:1043700093FC96F900101C480DF018FD01221E490F
:1043800019480DF089FC98F9001017480DF00EFD42
:104390003A68022A00F06D82134C18490222204626
:1043A0000DF07AFC164B1D68284612F069FE29466E
:1043B000024620460DF070FC3B68032B00F069823A
:1043C000DFF8489008481422002108F097FED9F839
:1043D0000030042B00F23082DFE813F04301490182
:1043E0004F0155011A0000BF009400209C3E0020A0
:1043F000A43E0020D8AB010068B00100E0AB010092
:10440000EC980020BCD80100143E0020B496002097
:104410000422C049C0480DF03FFCC04BC04C196895
:104420000BA808F08BFE1422B421BB48DDF830B095
:10443000DDF834A008F062FE4FF6E071B64808F0EF
:1044400079FE2368072B00F0998105ADCDF800B007
:1044500053462846B34A092112F0B6FC284612F00A
:104460000FFE29460246AC480DF016FC4FF496723A
:104470000021A94808F042FE3B68032B00F034817C
:10448000A94DA5482B68012B0CBF4DF29A614FF640
:10449000E07108F04FFE23680A2B03D12A68012A35
:1044A00000F05B83DFF8CCA25AF82350284612F0C4
:1044B000E7FD2946024698480DF0EEFB01229B4994
:1044C00095480DF0E9FB4FF6FF719348944D08F0C5
:1044D00031FE2368012B00F0B082022B00F0D9805E
:1044E000002B00F0E580092B00F08D82082B00F0F6
:1044F0008282032B00F08F82052B00F092818C4B7F
:104500008C4D1B688448012B0CBF4DF29A614FF60D
:10451000E07108F00FFE2B685AF82300FEF7CEFE7C
:10452000C0F1F00109B24FF496727B4808F0E6FD45
:104530002B685AF82350284612F0A2FD294602465D
:1045400075480DF0A9FB3B68032B00F0CD804FF4BC
:104550008C720021704808F0D1FD4FF6E0716E4872
:1045600008F0E8FD2368062B00F01E81724C2378CA
:10457000002B00F03581012B00F03B81022B6F4CAA
:1045800000F046814FF6E071634808F0D3FD6C4BB4
:1045900022786C491C786C4B052C0CBF1C460C46D1
:1045A000002A00F08C803B68032B55D0002B40F391
:1045B0000B82DFF8C4A1654DDAF80020DFF8A4B162
:1045C0009FED637ADBF80010002A1346B8BF02F1B2
:1045D000FF031B1207EE903A91FBF3F185FB0205F6
:1045E000D217FAEEEF7AC2EB6535012D87EE278AF6
:1045F0004FEA41081DDD01244FF6E07600960523C1
:104600005522454807EE904AF8EEE77A013467EE06
:10461000887AFDEEE77ACDED037ABDF90C1006F04D
:1046200099F8A542EAD1DAF80030002BB8BFFF3381
:104630001B12D9F80020022A00F06D824FF6E073B9
:104640000093572203230FFA88F1334807F092FAB8
:104650003B68012B00F0428215B0BDEC028BBDE837
:10466000F08F02223B492C480DF016FBD5E60722BD
:10467000394929480DF010FBCFE607223749264873
:104680000DF00AFBC9E60622354923480DF004FB6C
:10469000C3E6344B34491B681F4881FB0321DB17F9
:1046A000C3EBA1110DF082FB2368002B7FF41BAF3D
:1046B00096F9001018480DF079FB236813E721469E
:1046C000154808F0B5FCC0F1EB0109B24FF48C724B
:1046D000114808F013FD204612F0D2FC2146024694
:1046E0000D480DF0D9FA5EE7062220490A480DF080
:1046F000D3FA1F48FEF7E2FDC0F1F00109B24FF412
:104700009672054808F0FAFC0622194902480DF095
:10471000C3FA1CE774AC01000094002000D00340F1
:10472000CC98002094AC0100949C02209CAD010028
:10473000E8930020D04E0020E84E0020941902207B
:104740005C3E0020C8AB0100D0AB0100AD8BDB6844
:1047500000401C4658AC010064AC01006CAC010088
:104760005CAC0100A83E0020D34D6210A0AC01005B
:10477000A8AC0100283E0020B49700201422962106
:10478000B14808F0BBFC4FF6FF71AF4808F0D2FC0F
:1047900005AD0B9A0192CDF800B053462846AB4ABE
:1047A000092112F011FB59E6A94B1B68012B7FF47C
:1047B000DDAEA84CA4484FF6FF7108F0BBFC23788F
:1047C000002B00F0EA81012B00F0EE81022BA24CBD
:1047D0007FF4D8AEA1499C4804220DF05DFAD1E6E1
:1047E00007229F4998480DF057FA2378012B7FF450
:1047F000C5AE9C4B1B78002B00F0DF8006229A4947
:1048000091480DF049FA2378934C022B7FF4BAAE0D
:104810002378002BDED0042294498B480DF03CFA1B
:10482000B0E6934D2B68002B40F0DD8007229149C4
:1048300085480DF031FA62E605228F4982480DF075
:104840002BFAEAE500211E2300932046F023019174
:104850003C2206F009F93B68022B7FF465AD00218C
:10486000062300930191F0235422774806F0FCF8C8
:104870005AE5824974480DF00FFA814B81491B6853
:10488000714881FB0321DB17C3EBA1110DF08EFAF8
:1048900082E52D220021204608F030FC4FF6E07121
:1048A000204608F047FC784BC4F818901A68002A94
:1048B000C0F27081052AC4BF00221A600220FEF7F0
:1048C00017FD0722714960480DF0E6F9704B5E480C
:1048D00093F90030012B07BF0A226E496E490C2262
:1048E0000DF0DAF958480DF011FA0320FEF700FD3B
:1048F00011226A4954480DF0CFF9694B524893F997
:1049000000100DF053FA50480DF000FA0420FEF7A5
:10491000EFFC132263494C480DF0BEF9624B4A4844
:1049200093F900100DF042FA47480DF0EFF9052019
:10493000FEF7DEFC5D4944480C220DF0ADF95C4BFE
:104940005C4A1B6803EB430302EB83035C6820466D
:1049500012F096FB214602463B480DF09DF93A487D
:104960000DF0D4F90020FEF7C3FC53493648082265
:104970000DF092F9514A524B126853F822402046EA
:1049800012F07EFB214602462F480DF085F90120EA
:10499000FEF7AEFC4B492C4809220DF07DF94A4A3E
:1049A0004A4B126853F82240204612F069FB214618
:1049B000024625480DF070F902E5072244492248D5
:1049C0000DF06AF92378D9E5552200211E4808F038
:1049D00095FB09223F491C480DF05EF915B0BDEC6E
:1049E000028BBDE8F08F04223B4917480DF054F9C3
:1049F00001232B6083E52C4B134893F900100DF035
:104A0000D5F9236875E5264B0F4893F900100DF092
:104A1000CDF923686AE5264B264A1B6803EB43035E
:104A200002EB83035D68284612F02AFB2946024602
:104A300005480DF031F923685EE598F90010024849
:104A40000DF0B4F92B6848E50094002084AC010017
:104A5000949C0220401C022094190220D0AC01003A
:104A6000C0AC0100244F0020D8AC0100E8AC01002C
:104A7000D0980020B0AC01007CAC0100DCAB0100A0
:104A8000A83E0020D34D6210C4980020E4AB010082
:104A9000B03E0020ECAB0100F8AB010008AC010017
:104AA000B13E00201CAC01005D3E002030AC010096
:104AB000943E0020E8AA010040AC0100AC3E00207A
:104AC0006C3E00204CAC0100284F0020803E0020AE
:104AD000E0AC0100F8AC0100B8AC0100DBF800105C
:104AE000354B364A83FB0103C917C1EBA31308A852
:104AF000092112F069F9A8F10A0109B23C223048F3
:104B000008F0FCFA08A812F0BBFA08A902462C48E3
:104B10000DF0C2F8A0E52B4A2B4D92F9001095FB41
:104B2000F3F54FF47A7202FB01F292FBF3F3ED1A04
:104B30006D005B001CB22DB24FF6FF762B4621466E
:104B4000009655221E4805F015FE2B46214600967C
:104B500059221B4805F00EFE70E51C4B1C4A1B68D1
:104B6000DFF87CA003EB430503EB8503D51828464B
:104B70002E2112F09DF9421B29460132154812F0F0
:104B80005DFA144812F07CFA124902460C480DF006
:104B900083F898E405221A6090E607220E49084837
:104BA0000DF07AF823780EE607220C4904480DF040
:104BB00073F823780AE600BFD34D6210F0AC010011
:104BC00000940020B13E0020803801001C1A022011
:104BD0003C510020008C0020C0AC0100C8AC01009A
:104BE000283E0020074B10B5012401461C600648F2
:104BF00003F09EFF054B1C60FFF76AFB044B00228D
:104C00001A6010BD88E100E0304F002008E100E0AC
:104C100070970020F0B58DB06846FEF7FFFE0446A1
:104C200098B13849089A384BBDF802709DF8286051
:104C30009DF829509DF82A000F80012A9DF82B101D
:104C40001E705D709870D97002D020460DB0F0BD16
:104C50002E4E2F49039F37602E482F4B029D2F4E1B
:104C6000049F0F600199026019603560002D2FD0FC
:104C7000022D40D0012D35D00021294806F0B2F890
:104C800031682748274E0DF091F8274A9DF9150005
:104C90002649274B9DF81D509DF81C701070069AF0
:104CA0000D701A603770FEF751FB9DF91430214AE0
:104CB000214D13701846FFF795FF099B1F482049A7
:104CC0005AB25B42037020462A700A700DB0F0BDE4
:104CD0002946134806F0BCFA2946114806F090F818
:104CE0003568C5E700210E4806F0B2FA00210C48ED
:104CF00006F086F8C0E70021094806F081F835681B
:104D0000B8E700BF288C0020EC4E00201C3E00209D
:104D1000943E0020D0980020B49600209C3E0020B5
:104D2000009400205D3E0020A43E0020B13E002003
:104D3000A83E0020143E0020B03E0020FC9300203E
:104D4000481C0220274B9FED286A93ED007ADFED87
:104D5000276AB8EEC77A07EE900AC6EE075AF8EE51
:104D6000E77A67EEA57AF4EEE67AF1EE10FA19DC4E
:104D70001F4A204BC2ED007AF5EEC07A0122F1EE17
:104D800010FA1A602BD49FED1C7AF4EEC77AF1EE7C
:104D900010FA1BDD194B1A491A4A01200860D36129
:104DA000FFF796BAC7EE065A114B1748114A012170
:104DB000F2EE027AE5EEA67AC3ED006AFDEEE77A3E
:104DC00017EE903AF0EE667A036011609FED0F7A6D
:104DD00067EE877AFCEEE77A17EE903ADBE700237E
:104DE000D9E700BFB4970020A6552C4700E0AB469A
:104DF000183E002088E100E0A655AC4680FFFF7F0A
:104E000008E100E0788C0020A83E00204B24BE473B
:104E10002DE9F04F2DED048BB34AB44B92F90020ED
:104E20001B689FEDB36ADFEDB36A07EE102A002B13
:104E3000B8BFFF33F8EEC77A1B1227EE867A07EE6B
:104E4000903AF8EEE77AADF5097D87EE278A10AC47
:104E50004FF4F07220460021C6EEA78A11F058FDEB
:104E6000A54B1A680132012A04921A60BDEEC88A65
:104E7000FDEEE88A00F01881049B632B40F21C8150
:104E8000DFF8C082DFF8B8929FED9C6A0026C44626
:104E9000B346B64627464FF4807A0225F2EE046AFE
:104EA0000FE0042AD8BF4FF4006323DC0135782DCE
:104EB00024F8163007F1040727F8023C06F1020631
:104EC0002CD03CF8023FB9EC017A03EB83035B0082
:104ED00007EE903AF8EEE77AE7EE467A77EEA67AB2
:104EE000FDEEE77A17EE902A52459644D9DD17EE8B
:104EF00090AAAB465300FF2BA8BFFF23B2F5407F1B
:104F0000C0F2D482B2F5106FC0F291821B0203F49A
:104F100078436FEAD3236FEAC323C7E7784B9FED4B
:104F2000797A83FB0E234FEAEE7ECEEB23139AFBB6
:104F3000F3F307EE903AF8EEE77A18EE103AF4EE53
:104F4000477AF1EE10FA48BF4FF0000B5B4504DAE8
:104F500018EE903A5B4500F3FB806B4B1D68012D0A
:104F60004FF0000A00F02081022D00F02B8118EE96
:104F7000103A5B45654D4EDA18EE903A5B454ADDD6
:104F80002B78002B40F0AE81614EDFF8C081336892
:104F90000F93604B0F9A1A60D8F80030012B00F085
:104FA00098815D4E022B337840F09E81002B00F0FB
:104FB0009B815A4804F074F84FF48041574804F03C
:104FC0003DF8574BDFED576A93F9003007EE903A02
:104FD000F8EEE77AB7EE006A86EE277AB4EEE67A64
:104FE000F1EE10FA00F11D82F2EE007AB4EEE77AEB
:104FF000F1EE10FA00F31882DFED4B6ADFED4B7A29
:10500000E7EE267AFCEEE77A17EE902A4349002372
:105010000A62337068E12B786BB13D4A3D491368F1
:105020000B930B9B096812680C924148414A0C9EF5
:1050300006605B1A1380384E002233782A7043B919
:10504000334A344912680A9209680A9A521A322A73
:1050500009D82D4B1B68022B0FD00DF5097DBDEC37
:10506000048BBDE8F08F2D4A2B70012382F842306B
:105070003370254B1B68022BEFD1254B2C4A1B6844
:1050800009931268099B2C4D9B1A312B40F23F81EA
:105090002B68B3F58C7FE0DB5A232B600DF5097D7F
:1050A000BDEC048BBDE8F08F244B002103F50072AA
:1050B00043F8041B9A42FBD1214A2249DFED226AC0
:1050C00002F5FC7031F8023F92ED007A03EB8303A6
:1050D0005B0007EE903AF8EEE77AA7EEA67AA2EC2C
:1050E000017A8242EED1CBE6B13E0020B497002097
:1050F00000007A4400409C47F09800206666663FB6
:10510000BF3CB6226666863F9C3E0020D0960020BB
:1051100098A50220441C0220983E0020D49600202E
:105120005D3E00200AD7233C00008047EE7CFF3E16
:10513000FC8B00202C4F0020103E00203C4F002014
:10514000444F0020B68C00206F12833AB4960020A2
:10515000C34BC44A03930021D3ED006A8A4602235D
:1051600038F8020F92ED007A07EE900AF8EEE77A2F
:1051700077EE877AF4EEE67AF1EE10FAE2EC017A55
:1051800003DDF0EE676A9A4601210133782BE7D1FF
:10519000002940F0A281B44A138801331380B34B35
:1051A0001D68012D7FF4E0AEB14B1B68022B00F0AF
:1051B000A080049BDB073FF5DAAEFEF729F9AB4B85
:1051C0001D68D1E6A84F3B88322B7FF6D0AE002673
:1051D0002D230196009331463E80A64EA6483668A0
:1051E0000696F023282205F03FFC9D4BBAF1000FF4
:1051F00000F09F801A4692ED007A03939F4BDFEDFB
:10520000A05AF7EE007A03EB8A0377EE277A1A1D8D
:10521000514632ED016AC6EE276AF4EEE56AF1EE18
:1052200010FA02DD01390229F3D1DFED955A04911C
:105230005246B3EC016AC6EE276AF4EEE56AF1EE77
:1052400010FA54DD0132782AF3D100230593DFF8F8
:105250001492DFED8C9A9FED8C9ACDF81CB000264D
:10526000022702E0039B93ED007AD9ED006A8248A1
:10527000C6EE877A4FF478430FFA86FB00935946BF
:1052800067EEA97AFDEEE77A17EE905AC5F1550858
:105290000FFA88F82DB242462B4605F05BFABA4564
:1052A00007F1010700F0D2800236782FB6B2A9ECE0
:1052B000019AD7D1DDF81CB0BAF1000F5ED1039A84
:1052C000D2ED007AB6EE007A67EE877AC2ED007A08
:1052D0004DE633686D4F0E930E9A3B68D31AB3F5C3
:1052E0007A7F2DD86A4E337801222A70A7E605927C
:1052F000ADE75D4A674B1288A3FB02139B0803EBE3
:105300008303D31A9BB2002B7FF431AE55E701948F
:105310000123B5F90020584800930021F02306F03E
:1053200039F82988544805F093FF2B6801332B6026
:10533000AFE60393049593ED007ACDF814A086E7C9
:105340004C4B554A1B68002BB8BFFF331B120BFB9D
:1053500003F382FB0312DB17C3EB62134FF4FA7201
:1053600002FB03F34D4A18461360FFF7EBFC33686A
:105370000D930D9AD8F800303A6012E6069B9FED27
:10538000489A3D48002BB8BFFF331B1207EE903AF6
:10539000F8EEE77A2D22962127EE899A07F0AEFEE5
:1053A0004DF29A61344807F0C5FEDDED047A3248CB
:1053B000F8EEE77A67EE897AFDEEE77A17EE901A53
:1053C0000CF0F4FC012237492B480CF065FC4FF639
:1053D000E071294807F0AEFE07EE90AAF8EEE77AF2
:1053E000254867EE897AFDEEE77A17EE901A0CF001
:1053F000DDFC01222B4920480CF04EFC4DF29A6155
:105400001D4807F097FEDDED057A1B48F8EEE77AB8
:1054100067EE897AFDEEE77A17EE901A0CF0C6FC7B
:105420004DE740F28F22F1E54FF40022EEE51E49F0
:1054300081FB0210D217C2EB60021B02D21003F4F0
:10544000784342F4FC6213439BB22FE54FF6E070C1
:1054500000902B4642465946074805F07BF923E762
:1054600070970020481A0220D44E00209C3E002055
:10547000B4960020B497002000940020401A022027
:10548000CDCCCC3D0000344200000000B896002096
:10549000983E0020CDCCCCCCD34D6210A83E00204D
:1054A0006F12833A9CAD0100398EE3380D491B021F
:1054B00003930D4B81FB0210D117401A83FB02327C
:1054C000039BC00003F4784300F4FC60C1EB62026C
:1054D0000343C2F3C4021343E8E4039BC3ED006A31
:1054E00059E600BF56555555398EE33838B5104B3F
:1054F0001049114A114D00EB400003EB80030124D9
:1055000098685B680B6028601460FDF747FFC8204F
:105510000DF026FA0A4B1868FFF714FC094B14200B
:105520001C600DF01DFABDE83840FEF7D1BE00BF8B
:10553000E8AA0100EC98002088E100E0B497002080
:10554000A83E002008E100E01F4B204A1B68012113
:105550000B2B10B50446117026D064200DF000FA14
:105560000D2C2046A8BF0D2020EAE070FFF7BEFFFB
:10557000174C184B1A682368002B02F1FF3220DB0E
:105580009342A8BF134603EB43021349236003EB86
:105590008203194411480D2211F0E0FD0F49104813
:1055A000BDE8104004F04AB90E4A0F4B10684FF4A2
:1055B00080310022022899611A6204BFD9619A6180
:1055C000CBE70023DFE700BFCC980020941902202E
:1055D0001C1A02201C9700203C510020209700201C
:1055E00098190220B49600207C97002038B50B4C07
:1055F00023782BB10A4890F8403003F0FF0503B13F
:1056000038BD04F0F3F8074B25701B78002BF7D05A
:10561000054B1868BDE83840FFF796BF9419022083
:1056200098190220789600201C3E00202DE9F047B2
:1056300088B0D0B9AA4BAB4AAB491B6815680E6855
:105640000D22EBB9A94B19787319002973D0002BDF
:10565000B8BF02F1FF339342A8BF0023002875D1E1
:10566000A04A136008B0BDE8F0870128FAD1A04B2A
:10567000A04AA1491B6815680E680422002BE1D0DE
:10568000012BEFD1002EEDD00446002D65D19B4AB1
:10569000137833445BB2002BC0F2F8805A2BA8BFBA
:1056A0005A2307EE903A9FED966ADFED966AB8EEC0
:1056B000E77ADFED957A27EE067AE7EE267AFCEEBA
:1056C000E77ACDED017A9149137001270F60904878
:1056D000019903F09DFA8F4B1F60824F3B68072BA7
:1056E00070D0052B4BD00C2D51D03B680A2BB9D173
:1056F0007B4B1B68012B00F0B7807E4B1B68032B94
:10570000B0D17B4B1B68012BACD1834B1B78022B98
:10571000A8D1824C784B22681B681344052BA8BF84
:10572000052323EAE37318462360FFF7DFFE7C4B73
:1057300022681A6096E7A3F10A01012987D8012E91
:1057400000F09080013608BF092384E7012889D141
:10575000684A136008B0BDE8F087032D67D16F4F2A
:105760003B6833440D2BA8BF0D2323EAE37318468F
:105770003B60FFF7BBFE6B4B3A681A60ADE7584BD6
:105780001B68012B00F087800C2D7FF46BAF002C81
:105790005BD0012CA9D1644C2368022B00F0D88087
:1057A000032B00F09280042B40F0E0805F4A1378D6
:1057B00033445BB2042B40F3D6801E2BA8BF1E23BC
:1057C000137092E7002C8ED1DFF87891DFF87881A2
:1057D000D9F800300493049BD8F800209B1AB3F545
:1057E000FA7F56D2F92B00F27281632B8BBF4FF0F8
:1057F0000A0AC6EB061A0AFB06FA4FEA8A0A0BF0F7
:1058000029FF06A950440BF0CFFD06A80BF0A4FE1B
:105810000DF07AF806A80BF09FFE0BF06BFFD9F89D
:1058200000300593059A3B68C8F8002059E7082D19
:1058300040F0C0803D4A137833445BB2042B0EDD48
:105840001E2BA8BF1E23137047E7374A1368334443
:10585000052BA8BF052323EAE373136045E705235F
:1058600013703AE70C23F6E631491F4A0B681268B9
:105870009B1822D42F4A1268934202F1FF3200DBB8
:1058800000239342A8BF13460B6036E701952B46D1
:1058900019E7B246B3E7144BDFF8B0E01A68DEF858
:1058A0000010254B0A441340002B7EDB1946234889
:1058B000CEF800300CF07AFA15E71E4B1B685A1E22
:1058C00048BF0023E0D41346DBE71D4A1378334476
:1058D0005BB20E2B66DD232BA8BF2323137004E7D6
:1058E000949C0220CC980020C8980020254F0020CE
:1058F000E8930020D04E0020C84E0020A43E002097
:105900000AD7233C00000143EE7CFF3E88E100E023
:10591000304F002008E100E0E84E0020943E0020D7
:105920001C3E002074970020C49800205D3E00209B
:105930001C1A02201C970020010000800094002007
:10594000B13E002098A50220248C0020D098002091
:10595000674A684892F90030674903705B425BB25E
:1059600013700B70C1E605231370BEE6052B0FD133
:10597000624D2B6833440D2BA8BF0D2323EAE3733C
:1059800018462B60FFF7B2FD5D4A29682368116055
:10599000002B40F09F805B4A1368334483F302037B
:1059A0001360A2E60F2313709FE6013B63F001032F
:1059B00001337BE7092D0DD1534A137833445BB291
:1059C0000E2B04DD232BA8BF2323137085E60F23A2
:1059D000137082E6012D18D14C4A137833445BB220
:1059E000002B6FDB3F2BA8BF3F2318461370FFF738
:1059F000F9F8474A474B00201060002103F5007278
:105A000043F8041B9342FBD167E6022D38D1DFF83F
:105A10002491DFF82481D9F800300293029BD8F852
:105A200000209B1AB3F5FA7F46D2F92B4CD8642B91
:105A300041F2883328BF4FF4FA63374F374A396849
:105A4000126803FB061341F657318B4231DD3449AE
:105A500081FB0201D243D20FC2EBE1124FF47A7103
:105A600001FB02F29342A8BF134618463B60FFF7C2
:105A700069F9D9F800300393039BC8F800302CE68D
:105A8000042D03D1224B00221A6026E6062D7FF456
:105A900024AE244B1B7893B12349244A0B7801335D
:105AA000DBB2A2FB0302520802EB42029B1A0B700C
:105AB00013E641F65833D8E74FF4FA73BDE71A4AB4
:105AC00013700AE6002390E74FF47A73B5E706EB0C
:105AD000860A94E6012B7FF408AE154A1368334416
