:1000000000000320D1010000410D0100F90C0100A6
:10001000F90C0100F90C0100F90C0100F90C0100C8
:10002000F90C0100F90C0100F90C0100410D01006F
:10003000410D0100F90C01003522010039230100B6
:10004000410D0100410D0100410D0100410D010074
:10005000410D0100410D0100410D0100410D010064
:10006000410D0100410D0100410D0100410D010054
:10007000410D0100410D0100410D0100410D010044
:10008000410D0100410D0100410D0100410D010034
:10009000410D0100410D0100410D0100410D010024
:1000A000953D0100A13D0100410D0100410D010000
:1000B000410D0100410D0100410D010061240100CD
:1000C000410D01008D250100410D0100B9260100FF
:1000D000410D0100B1270100410D0100410D01005A
:1000E000410D0100410D0100410D0100410D0100D4
:1000F000410D0100410D0100410D0100410D0100C4
:10010000410D0100410D0100410D0100410D0100B3
:10011000410D0100CD130100410D0100410D010011
:10012000410D0100410D0100410D0100410D010093
:10013000410D0100410D0100410D0100410D010083
:10014000E1060100410D0100A9280100410D010057
:10015000410D0100410D0100410D0100410D010063
:10016000410D0100410D0100AD3D0100410D0100B7
:10017000410D0100410D0100410D0100410D010043
:10018000410D0100410D0100410D0100410D010033
:10019000410D0100410D0100A1290100410D0100A7
:1001A000410D0100410D0100410D0100410D010013
:1001B000410D0100410D0100410D0100410D010003
:1001C000410D0100410D0100410D0100410D0100F3
:1001D0005C4B4CF2205210B51A804DF628121A8052
:1001E00000BF00BF10F0B0FD574B4FF030621A60F7
:1001F000564A9A60564ADA60564B4FF470021A60BB
:10020000554B564A1A60564A136813F4807304D14A
:1002100054490B604FF4A8531360534B1A781107DD
:1002200003D51A7842F008021A70504B5049AA229E
:100230001A70504A504B8B4204D252F8040F43F8C4
:10024000040BF8E74D4B4E4900228B4202D243F893
:10025000042BFAE74B494C4A002352F8230041F89B
:1002600023000133742BF8D1484B494A802103F80D
:10027000011B9342FBD1474B424A1A60464B8A22EC
:100280001A70A3F5805324225A70A0221A709A790A
:100290009207FCD59A79D406FCD4404A937903F0AE
:1002A0000C03082BFAD13E4B60221A7002331A78E5
:1002B000802AFCD1394B01221A715D225A719A7938
:1002C0009006FCD59979354A4906FBD5354B364918
:1002D00019600021596020231370937903F00C03F7
:1002E0000C2BFAD1314B324A1A60324B324A1A6027
:1002F00000225A60072243F8042C304AC3F80C2D20
:1003000062B610F007FF174B1B68DA0705D52C48BB
:1003100010F082FE2B4B2C4A1A602C4B1B785B068C
:1003200009D5284C284B22689A4204D1244810F061
:1003300073FE0023236014F03FFB10F00BFD10F060
:1003400039FCFEE70E20054030800440823F040067
:100350000100002B88ED00E0002008E0030000858C
:1003600010D0034014D0034002D0074000E0074003
:10037000204C002034D10200303D0020204C0020D1
:1003800068790220003800200000000000E400E04E
:1003900064E400E008ED00E0005006400040064044
:1003A00001E007404480044000000602048004404D
:1003B000C010070014E000E01FBF02000000202072
:1003C0003485465D1CE00340A5C3945A00F0074005
:1003D000FFFFFFFFFFFFFFFFFFFFFFFFFFFFFFFF2D
:1003E000FFFFFFFFFFFFFFFFFFFFFFFFFFFFFFFF1D
:1003F000FFFFFFFFFFFFFFFFFFFFFFFFFFFFFFFF0D
:10040000FFFFFFFFFFFFFFFFFFFFFFFFDEF9FFFF23
:1004100010B5054C237833B9044B13B10448AFF33E
:1004200000800123237010BD204C0020000000003C
:1004300030D10200084B10B51BB108490848AFF392
:1004400000800848036803B910BD074B002BFBD0A0
:10045000BDE81040184700BF00000000244C0020F9
:1004600030D10200204C0020000000002DE9F04FA8
:10047000654E664C664F674B674ADFF8A0C1DFF8F0
:10048000A0E1A6FB0156360C06F1040AAAFB0445BE
:10049000A7FB0198C5EB0A044FEA581B05EB54056E
:1004A000A3FB0183DB0AAD08A7FB0B78A2FB0329A2
:1004B000C5EBC505C5EB0A0283B04FEA58184FEAF1
:1004C0001919CBEB0B17C8EB081809EB49090025E4
:1004D0000132ABEB88080192A1EB870BA3EBC909B2
:1004E000294664274FF4C87A0EE0D2090AFB12327B
:1004F000002C68D1002A40F26D1308BF4FF4B77387
:100500001D44AE4211D3013101F2B273AEFB03427E
:100510005409614507FB143402D013F0030FE4D0F3
:1005200040F26D131D44AE42EDD23C4B99425AD07D
:1005300001F2B2739A0749D040F26D12384F394C2C
:10054000DFF8D8E0A7FB03C7AD1A4FEA571C4FF4FA
:10055000C872FF0902FB17374FF0640A0AFB1C3C04
:10056000BA46761B674603F003051F220023D446D4
:100570000EE002F1010A17B9BCF1000F0CD1012BFA
:100580000AD1B2452DD8CAEB0606022314F8012F72
:10059000714501D0002DECD0B24222D801330C2B92
:1005A000A6EB0206F2D10D230361019BC0F800B057
:1005B0000136C660C0F80480C0F8089041618361CC
:1005C00003B0BDE8F08F4FF4B77399E7144AA2FB6C
:1005D00003425409642707FB143444B14FF4B77243
:1005E000ACE70133E0E740F26D120023A6E7D20941
:1005F0004FF4C87404FB1232002A40F26D1208BF97
:100600004FF4B7729AE700BF07452EC225499224DE
:1006100089888888C5B3A291ABAAAAAA4EF8FFFF21
:100620001F85EB51B490010010F0F0BC10B5044BE5
:10063000044640F8183B05F02FFE204610BD00BFD1
:100640004898010010B5044610F002F8204610BD8D
:10065000214B10B4D3F8A42013685068197804789B
:10066000507A137A044201EA03011BD0937A03F013
:10067000030309B143F0040343F008039910013B5D
:1006800091720D2B0BD8DFE803F021071B070A1529
:100690002121150A071B0721D368013BD3605DF8B0
:1006A000044B7047937A03F003030029E6D043F02C
:1006B0000403E3E7D3685DF8044B023BD360704763
:1006C000D3685DF8044B0233D3607047D3685DF89C
:1006D000044B0133D360704758730220214B10B490
:1006E000D3F8A8201368506819780478507A137AE0
:1006F000044201EA03011BD0937A03F0030309B11A
:1007000043F0040343F008039910013B91720D2B51
:100710000BD8DFE803F021071B070A152121150A72
:10072000071B0721D368013BD3605DF8044B70477A
:10073000937A03F003030029E6D043F00403E3E7D0
:10074000D3685DF8044B023BD3607047D3685DF813
:10075000044B0233D3607047D3685DF8044B013318
:10076000D360704758730220214B10B4D3F8AC20EB
:100770001368506819780478507A137A044201EAB1
:1007800003011BD0937A03F0030309B143F0040380
:1007900043F008039910013B91720D2B0BD8DFE851
:1007A00003F021071B070A152121150A071B072142
:1007B000D368013BD3605DF8044B7047937A03F034
:1007C00003030029E6D043F00403E3E7D3685DF8B0
:1007D000044B023BD3607047D3685DF8044B02338F
:1007E000D3607047D3685DF8044B0133D360704722
:1007F00058730220214B10B4D3F8B020136850680E
:1008000019780478507A137A044201EA03011BD064
:10081000937A03F0030309B143F0040343F00803A0
:100820009910013B91720D2B0BD8DFE803F02107E3
:100830001B070A152121150A071B0721D368013B55
:10084000D3605DF8044B7047937A03F003030029EB
:10085000E6D043F00403E3E7D3685DF8044B023BC2
:10086000D3607047D3685DF8044B0233D3607047A0
:10087000D3685DF8044B0133D3607047587302208E
:10088000214B10B4D3F8B420136850681978047859
:10089000507A137A044201EA03011BD0937A03F0E1
:1008A000030309B143F0040343F008039910013B2B
:1008B00091720D2B0BD8DFE803F021071B070A15F7
:1008C0002121150A071B0721D368013BD3605DF87E
:1008D000044B7047937A03F003030029E6D043F0FA
:1008E0000403E3E7D3685DF8044B023BD360704731
:1008F000D3685DF8044B0233D3607047D3685DF86A
:10090000044B0133D360704758730220214B10B45D
:10091000D3F8B8201368506819780478507A137A9D
:10092000044201EA03011BD0937A03F0030309B1E7
:1009300043F0040343F008039910013B91720D2B1F
:100940000BD8DFE803F021071B070A152121150A40
:10095000071B0721D368013BD3605DF8044B704748
:10096000937A03F003030029E6D043F00403E3E79E
:10097000D3685DF8044B023BD3607047D3685DF8E1
:10098000044B0233D3607047D3685DF8044B0133E6
:10099000D360704758730220214B10B4D3F8BC20A9
:1009A0001368506819780478507A137A044201EA7F
:1009B00003011BD0937A03F0030309B143F004034E
:1009C00043F008039910013B91720D2B0BD8DFE81F
:1009D00003F021071B070A152121150A071B072110
:1009E000D368013BD3605DF8044B7047937A03F002
:1009F00003030029E6D043F00403E3E7D3685DF87E
:100A0000044B023BD3607047D3685DF8044B02335C
:100A1000D3607047D3685DF8044B0133D3607047EF
:100A200058730220214B10B4D3F8C02013685068CB
:100A300019780478507A137A044201EA03011BD032
:100A4000937A03F0030309B143F0040343F008036E
:100A50009910013B91720D2B0BD8DFE803F02107B1
:100A60001B070A152121150A071B0721D368013B23
:100A7000D3605DF8044B7047937A03F003030029B9
:100A8000E6D043F00403E3E7D3685DF8044B023B90
:100A9000D3607047D3685DF8044B0233D36070476E
:100AA000D3685DF8044B0133D3607047587302205C
:100AB000214B10B4D3F8C420136850681978047817
:100AC000507A137A044201EA03011BD0937A03F0AF
:100AD000030309B143F0040343F008039910013BF9
:100AE00091720D2B0BD8DFE803F021071B070A15C5
:100AF0002121150A071B0721D368013BD3605DF84C
:100B0000044B7047937A03F003030029E6D043F0C7
:100B10000403E3E7D3685DF8044B023BD3607047FE
:100B2000D3685DF8044B0233D3607047D3685DF837
:100B3000044B0133D360704758730220214B10B42B
:100B4000D3F8C8201368506819780478507A137A5B
:100B5000044201EA03011BD0937A03F0030309B1B5
:100B600043F0040343F008039910013B91720D2BED
:100B70000BD8DFE803F021071B070A152121150A0E
:100B8000071B0721D368013BD3605DF8044B704716
:100B9000937A03F003030029E6D043F00403E3E76C
:100BA000D3685DF8044B023BD3607047D3685DF8AF
:100BB000044B0233D3607047D3685DF8044B0133B4
:100BC000D360704758730220214B10B4D3F8CC2067
:100BD0001368506819780478507A137A044201EA4D
:100BE00003011BD0937A03F0030309B143F004031C
:100BF00043F008039910013B91720D2B0BD8DFE8ED
:100C000003F021071B070A152121150A071B0721DD
:100C1000D368013BD3605DF8044B7047937A03F0CF
:100C200003030029E6D043F00403E3E7D3685DF84B
:100C3000044B023BD3607047D3685DF8044B02332A
:100C4000D3607047D3685DF8044B0133D3607047BD
:100C500058730220214B10B4D3F8D0201368506889
:100C600019780478507A137A044201EA03011BD000
:100C7000937A03F0030309B143F0040343F008033C
:100C80009910013B91720D2B0BD8DFE803F021077F
:100C90001B070A152121150A071B0721D368013BF1
:100CA000D3605DF8044B7047937A03F00303002987
:100CB000E6D043F00403E3E7D3685DF8044B023B5E
:100CC000D3607047D3685DF8044B0233D36070473C
:100CD000D3685DF8044B0133D3607047587302202A
:100CE000214B10B4D3F8D4201368506819780478D5
:100CF000507A137A044201EA03011BD0937A03F07D
:100D0000030309B143F0040343F008039910013BC6
:100D100091720D2B0BD8DFE803F021071B070A1592
:100D20002121150A071B0721D368013BD3605DF819
:100D3000044B7047937A03F003030029E6D043F095
:100D40000403E3E7D3685DF8044B023BD3607047CC
:100D5000D3685DF8044B0233D3607047D3685DF805
:100D6000044B0133D360704758730220214B10B4F9
:100D7000D3F8D8201368506819780478507A137A19
:100D8000044201EA03011BD0937A03F0030309B183
:100D900043F0040343F008039910013B91720D2BBB
:100DA0000BD8DFE803F021071B070A152121150ADC
:100DB000071B0721D368013BD3605DF8044B7047E4
:100DC000937A03F003030029E6D043F00403E3E73A
:100DD000D3685DF8044B023BD3607047D3685DF87D
:100DE000044B0233D3607047D3685DF8044B013382
:100DF000D360704758730220214B10B4D3F8DC2025
:100E00001368506819780478507A137A044201EA1A
:100E100003011BD0937A03F0030309B143F00403E9
:100E200043F008039910013B91720D2B0BD8DFE8BA
:100E300003F021071B070A152121150A071B0721AB
:100E4000D368013BD3605DF8044B7047937A03F09D
:100E500003030029E6D043F00403E3E7D3685DF819
:100E6000044B023BD3607047D3685DF8044B0233F8
:100E7000D3607047D3685DF8044B0133D36070478B
:100E800058730220214B10B4D3F8E0201368506847
:100E900019780478507A137A044201EA03011BD0CE
:100EA000937A03F0030309B143F0040343F008030A
:100EB0009910013B91720D2B0BD8DFE803F021074D
:100EC0001B070A152121150A071B0721D368013BBF
:100ED000D3605DF8044B7047937A03F00303002955
:100EE000E6D043F00403E3E7D3685DF8044B023B2C
:100EF000D3607047D3685DF8044B0233D36070470A
:100F0000D3685DF8044B0133D360704758730220F7
:100F1000214B10B4D3F8EC2013685068197804788A
:100F2000507A137A044201EA03011BD0937A03F04A
:100F3000030309B143F0040343F008039910013B94
:100F400091720D2B0BD8DFE803F021071B070A1560
:100F50002121150A071B0721D368013BD3605DF8E7
:100F6000044B7047937A03F003030029E6D043F063
:100F70000403E3E7D3685DF8044B023BD36070479A
:100F8000D3685DF8044B0233D3607047D3685DF8D3
:100F9000044B0133D360704758730220214B10B4C7
:100FA000D3F8E4201368506819780478507A137ADB
:100FB000044201EA03011BD0937A03F0030309B151
:100FC00043F0040343F008039910013B91720D2B89
:100FD0000BD8DFE803F021071B070A152121150AAA
:100FE000071B0721D368013BD3605DF8044B7047B2
:100FF000937A03F003030029E6D043F00403E3E708
:10100000D3685DF8044B023BD3607047D3685DF84A
:10101000044B0233D3607047D3685DF8044B01334F
:10102000D360704758730220214B10B4D3F8E820E6
:101030001368506819780478507A137A044201EAE8
:1010400003011BD0937A03F0030309B143F00403B7
:1010500043F008039910013B91720D2B0BD8DFE888
:1010600003F021071B070A152121150A071B072179
:10107000D368013BD3605DF8044B7047937A03F06B
:1010800003030029E6D043F00403E3E7D3685DF8E7
:10109000044B023BD3607047D3685DF8044B0233C6
:1010A000D3607047D3685DF8044B0133D360704759
:1010B00058730220214B10B41A68136850681978CD
:1010C0000478507A137A044201EA03011BD0937A20
:1010D00003F0030309B143F0040343F0080399103C
:1010E000013B91720D2B0BD8DFE803F021071B07A2
:1010F0000A152121150A071B0721D368013BD3607C
:101100005DF8044B7047937A03F003030029E6D09F
:1011100043F00403E3E7D3685DF8044B023BD3607C
:101120007047D3685DF8044B0233D3607047D368CF
:101130005DF8044B0133D360704700BF5873022041
:10114000214B10B45A681368506819780478507AA3
:10115000137A044201EA03011BD0937A03F00303DC
:1011600009B143F0040343F008039910013B917265
:101170000D2B0BD8DFE803F021071B070A152121EF
:10118000150A071B0721D368013BD3605DF8044BA8
:101190007047937A03F003030029E6D043F0040379
:1011A000E3E7D3685DF8044B023BD3607047D36834
:1011B0005DF8044B0233D3607047D3685DF8044B8D
:1011C0000133D360704700BF58730220214B10B425
:1011D0009A681368506819780478507A137A044230
:1011E00001EA03011BD0937A03F0030309B143F032
:1011F000040343F008039910013B91720D2B0BD8A7
:10120000DFE803F021071B070A152121150A071B38
:101210000721D368013BD3605DF8044B7047937A94
:1012200003F003030029E6D043F00403E3E7D368A7
:101230005DF8044B023BD3607047D3685DF8044B04
:101240000233D3607047D3685DF8044B0133D36039
:10125000704700BF58730220214B10B4DA6813683E
:10126000506819780478507A137A044201EA03012D
:101270001BD0937A03F0030309B143F0040343F056
:1012800008039910013B91720D2B0BD8DFE803F096
:1012900021071B070A152121150A071B0721D368FF
:1012A000013BD3605DF8044B7047937A03F003036E
:1012B0000029E6D043F00403E3E7D3685DF8044B6C
:1012C000023BD3607047D3685DF8044B0233D360B0
:1012D0007047D3685DF8044B0133D360704700BF9B
:1012E00058730220214B10B41A691368506819789A
:1012F0000478507A137A044201EA03011BD0937AEE
:1013000003F0030309B143F0040343F00803991009
:10131000013B91720D2B0BD8DFE803F021071B076F
:101320000A152121150A071B0721D368013BD36049
:101330005DF8044B7047937A03F003030029E6D06D
:1013400043F00403E3E7D3685DF8044B023BD3604A
:101350007047D3685DF8044B0233D3607047D3689D
:101360005DF8044B0133D360704700BF587302200F
:10137000214B10B45A691368506819780478507A70
:10138000137A044201EA03011BD0937A03F00303AA
:1013900009B143F0040343F008039910013B917233
:1013A0000D2B0BD8DFE803F021071B070A152121BD
:1013B000150A071B0721D368013BD3605DF8044B76
:1013C0007047937A03F003030029E6D043F0040347
:1013D000E3E7D3685DF8044B023BD3607047D36802
:1013E0005DF8044B0233D3607047D3685DF8044B5B
:1013F0000133D360704700BF58730220214B10B4F3
:101400009A691368506819780478507A137A0442FC
:1014100001EA03011BD0937A03F0030309B143F0FF
:10142000040343F008039910013B91720D2B0BD874
:10143000DFE803F021071B070A152121150A071B06
:101440000721D368013BD3605DF8044B7047937A62
:1014500003F003030029E6D043F00403E3E7D36875
:101460005DF8044B023BD3607047D3685DF8044BD2
:101470000233D3607047D3685DF8044B0133D36007
:10148000704700BF58730220214B10B4DA6913680B
:10149000506819780478507A137A044201EA0301FB
:1014A0001BD0937A03F0030309B143F0040343F024
:1014B00008039910013B91720D2B0BD8DFE803F064
:1014C00021071B070A152121150A071B0721D368CD
:1014D000013BD3605DF8044B7047937A03F003033C
:1014E0000029E6D043F00403E3E7D3685DF8044B3A
:1014F000023BD3607047D3685DF8044B0233D3607E
:101500007047D3685DF8044B0133D360704700BF68
:1015100058730220214B10B41A6A13685068197866
:101520000478507A137A044201EA03011BD0937ABB
:1015300003F0030309B143F0040343F008039910D7
:10154000013B91720D2B0BD8DFE803F021071B073D
:101550000A152121150A071B0721D368013BD36017
:101560005DF8044B7047937A03F003030029E6D03B
:1015700043F00403E3E7D3685DF8044B023BD36018
:101580007047D3685DF8044B0233D3607047D3686B
:101590005DF8044B0133D360704700BF58730220DD
:1015A000214B10B45A6A1368506819780478507A3D
:1015B000137A044201EA03011BD0937A03F0030378
:1015C00009B143F0040343F008039910013B917201
:1015D0000D2B0BD8DFE803F021071B070A1521218B
:1015E000150A071B0721D368013BD3605DF8044B44
:1015F0007047937A03F003030029E6D043F0040315
:10160000E3E7D3685DF8044B023BD3607047D368CF
:101610005DF8044B0233D3607047D3685DF8044B28
:101620000133D360704700BF58730220214B10B4C0
:101630009A6A1368506819780478507A137A0442C9
:1016400001EA03011BD0937A03F0030309B143F0CD
:10165000040343F008039910013B91720D2B0BD842
:10166000DFE803F021071B070A152121150A071BD4
:101670000721D368013BD3605DF8044B7047937A30
:1016800003F003030029E6D043F00403E3E7D36843
:101690005DF8044B023BD3607047D3685DF8044BA0
:1016A0000233D3607047D3685DF8044B0133D360D5
:1016B000704700BF58730220214B10B4DA6A1368D8
:1016C000506819780478507A137A044201EA0301C9
:1016D0001BD0937A03F0030309B143F0040343F0F2
:1016E00008039910013B91720D2B0BD8DFE803F032
:1016F00021071B070A152121150A071B0721D3689B
:10170000013BD3605DF8044B7047937A03F0030309
:101710000029E6D043F00403E3E7D3685DF8044B07
:10172000023BD3607047D3685DF8044B0233D3604B
:101730007047D3685DF8044B0133D360704700BF36
:1017400058730220214B10B41A6B13685068197833
:101750000478507A137A044201EA03011BD0937A89
:1017600003F0030309B143F0040343F008039910A5
:10177000013B91720D2B0BD8DFE803F021071B070B
:101780000A152121150A071B0721D368013BD360E5
:101790005DF8044B7047937A03F003030029E6D009
:1017A00043F00403E3E7D3685DF8044B023BD360E6
:1017B0007047D3685DF8044B0233D3607047D36839
:1017C0005DF8044B0133D360704700BF58730220AB
:1017D000214B10B45A6B1368506819780478507A0A
:1017E000137A044201EA03011BD0937A03F0030346
:1017F00009B143F0040343F008039910013B9172CF
:101800000D2B0BD8DFE803F021071B070A15212158
:10181000150A071B0721D368013BD3605DF8044B11
:101820007047937A03F003030029E6D043F00403E2
:10183000E3E7D3685DF8044B023BD3607047D3689D
:101840005DF8044B0233D3607047D3685DF8044BF6
:101850000133D360704700BF58730220214B10B48E
:101860009A6B1368506819780478507A137A044296
:1018700001EA03011BD0937A03F0030309B143F09B
:10188000040343F008039910013B91720D2B0BD810
:10189000DFE803F021071B070A152121150A071BA2
:1018A0000721D368013BD3605DF8044B7047937AFE
:1018B00003F003030029E6D043F00403E3E7D36811
:1018C0005DF8044B023BD3607047D3685DF8044B6E
:1018D0000233D3607047D3685DF8044B0133D360A3
:1018E000704700BF58730220214B10B4DA6B1368A5
:1018F000506819780478507A137A044201EA030197
:101900001BD0937A03F0030309B143F0040343F0BF
:1019100008039910013B91720D2B0BD8DFE803F0FF
:1019200021071B070A152121150A071B0721D36868
:10193000013BD3605DF8044B7047937A03F00303D7
:101940000029E6D043F00403E3E7D3685DF8044BD5
:10195000023BD3607047D3685DF8044B0233D36019
:101960007047D3685DF8044B0133D360704700BF04
:1019700058730220214B10B41A6C13685068197800
:101980000478507A137A044201EA03011BD0937A57
:1019900003F0030309B143F0040343F00803991073
:1019A000013B91720D2B0BD8DFE803F021071B07D9
:1019B0000A152121150A071B0721D368013BD360B3
:1019C0005DF8044B7047937A03F003030029E6D0D7
:1019D00043F00403E3E7D3685DF8044B023BD360B4
:1019E0007047D3685DF8044B0233D3607047D36807
:1019F0005DF8044B0133D360704700BF5873022079
:101A0000214B10B45A6C1368506819780478507AD6
:101A1000137A044201EA03011BD0937A03F0030313
:101A200009B143F0040343F008039910013B91729C
:101A30000D2B0BD8DFE803F021071B070A15212126
:101A4000150A071B0721D368013BD3605DF8044BDF
:101A50007047937A03F003030029E6D043F00403B0
:101A6000E3E7D3685DF8044B023BD3607047D3686B
:101A70005DF8044B0233D3607047D3685DF8044BC4
:101A80000133D360704700BF58730220214B10B45C
:101A90009A6C1368506819780478507A137A044263
:101AA00001EA03011BD0937A03F0030309B143F069
:101AB000040343F008039910013B91720D2B0BD8DE
:101AC000DFE803F021071B070A152121150A071B70
:101AD0000721D368013BD3605DF8044B7047937ACC
:101AE00003F003030029E6D043F00403E3E7D368DF
:101AF0005DF8044B023BD3607047D3685DF8044B3C
:101B00000233D3607047D3685DF8044B0133D36070
:101B1000704700BF58730220214B10B4DA6C136871
:101B2000506819780478507A137A044201EA030164
:101B30001BD0937A03F0030309B143F0040343F08D
:101B400008039910013B91720D2B0BD8DFE803F0CD
:101B500021071B070A152121150A071B0721D36836
:101B6000013BD3605DF8044B7047937A03F00303A5
:101B70000029E6D043F00403E3E7D3685DF8044BA3
:101B8000023BD3607047D3685DF8044B0233D360E7
:101B90007047D3685DF8044B0133D360704700BFD2
:101BA00058730220214B10B41A6D136850681978CD
:101BB0000478507A137A044201EA03011BD0937A25
:101BC00003F0030309B143F0040343F00803991041
:101BD000013B91720D2B0BD8DFE803F021071B07A7
:101BE0000A152121150A071B0721D368013BD36081
:101BF0005DF8044B7047937A03F003030029E6D0A5
:101C000043F00403E3E7D3685DF8044B023BD36081
:101C10007047D3685DF8044B0233D3607047D368D4
:101C20005DF8044B0133D360704700BF5873022046
:101C3000214B10B45A6D1368506819780478507AA3
:101C4000137A044201EA03011BD0937A03F00303E1
:101C500009B143F0040343F008039910013B91726A
:101C60000D2B0BD8DFE803F021071B070A152121F4
:101C7000150A071B0721D368013BD3605DF8044BAD
:101C80007047937A03F003030029E6D043F004037E
:101C9000E3E7D3685DF8044B023BD3607047D36839
:101CA0005DF8044B0233D3607047D3685DF8044B92
:101CB0000133D360704700BF58730220214B10B42A
:101CC0009A6D1368506819780478507A137A044230
:101CD00001EA03011BD0937A03F0030309B143F037
:101CE000040343F008039910013B91720D2B0BD8AC
:101CF000DFE803F021071B070A152121150A071B3E
:101D00000721D368013BD3605DF8044B7047937A99
:101D100003F003030029E6D043F00403E3E7D368AC
:101D20005DF8044B023BD3607047D3685DF8044B09
:101D30000233D3607047D3685DF8044B0133D3603E
:101D4000704700BF58730220214B10B4DA6D13683E
:101D5000506819780478507A137A044201EA030132
:101D60001BD0937A03F0030309B143F0040343F05B
:101D700008039910013B91720D2B0BD8DFE803F09B
:101D800021071B070A152121150A071B0721D36804
:101D9000013BD3605DF8044B7047937A03F0030373
:101DA0000029E6D043F00403E3E7D3685DF8044B71
:101DB000023BD3607047D3685DF8044B0233D360B5
:101DC0007047D3685DF8044B0133D360704700BFA0
:101DD00058730220214B10B41A6E1368506819789A
:101DE0000478507A137A044201EA03011BD0937AF3
:101DF00003F0030309B143F0040343F0080399100F
:101E0000013B91720D2B0BD8DFE803F021071B0774
:101E10000A152121150A071B0721D368013BD3604E
:101E20005DF8044B7047937A03F003030029E6D072
:101E300043F00403E3E7D3685DF8044B023BD3604F
:101E40007047D3685DF8044B0233D3607047D368A2
:101E50005DF8044B0133D360704700BF5873022014
:101E6000214B10B45A6E1368506819780478507A70
:101E7000137A044201EA03011BD0937A03F00303AF
:101E800009B143F0040343F008039910013B917238
:101E90000D2B0BD8DFE803F021071B070A152121C2
:101EA000150A071B0721D368013BD3605DF8044B7B
:101EB0007047937A03F003030029E6D043F004034C
:101EC000E3E7D3685DF8044B023BD3607047D36807
:101ED0005DF8044B0233D3607047D3685DF8044B60
:101EE0000133D360704700BF58730220214B10B4F8
:101EF0009A6E1368506819780478507A137A0442FD
:101F000001EA03011BD0937A03F0030309B143F004
:101F1000040343F008039910013B91720D2B0BD879
:101F2000DFE803F021071B070A152121150A071B0B
:101F30000721D368013BD3605DF8044B7047937A67
:101F400003F003030029E6D043F00403E3E7D3687A
:101F50005DF8044B023BD3607047D3685DF8044BD7
:101F60000233D3607047D3685DF8044B0133D3600C
:101F7000704700BF58730220214B10B4DA6E13680B
:101F8000506819780478507A137A044201EA030100
:101F90001BD0937A03F0030309B143F0040343F029
:101FA00008039910013B91720D2B0BD8DFE803F069
:101FB00021071B070A152121150A071B0721D368D2
:101FC000013BD3605DF8044B7047937A03F0030341
:101FD0000029E6D043F00403E3E7D3685DF8044B3F
:101FE000023BD3607047D3685DF8044B0233D36083
:101FF0007047D3685DF8044B0133D360704700BF6E
:1020000058730220214B10B41A6F13685068197866
:102010000478507A137A044201EA03011BD0937AC0
:1020200003F0030309B143F0040343F008039910DC
:10203000013B91720D2B0BD8DFE803F021071B0742
:102040000A152121150A071B0721D368013BD3601C
:102050005DF8044B7047937A03F003030029E6D040
:1020600043F00403E3E7D3685DF8044B023BD3601D
:102070007047D3685DF8044B0233D3607047D36870
:102080005DF8044B0133D360704700BF58730220E2
:10209000214B10B45A6F1368506819780478507A3D
:1020A000137A044201EA03011BD0937A03F003037D
:1020B00009B143F0040343F008039910013B917206
:1020C0000D2B0BD8DFE803F021071B070A15212190
:1020D000150A071B0721D368013BD3605DF8044B49
:1020E0007047937A03F003030029E6D043F004031A
:1020F000E3E7D3685DF8044B023BD3607047D368D5
:102100005DF8044B0233D3607047D3685DF8044B2D
:102110000133D360704700BF58730220214B10B4C5
:102120009A6F1368506819780478507A137A0442C9
:1021300001EA03011BD0937A03F0030309B143F0D2
:10214000040343F008039910013B91720D2B0BD847
:10215000DFE803F021071B070A152121150A071BD9
:102160000721D368013BD3605DF8044B7047937A35
:1021700003F003030029E6D043F00403E3E7D36848
:102180005DF8044B023BD3607047D3685DF8044BA5
:102190000233D3607047D3685DF8044B0133D360DA
:1021A000704700BF58730220214B10B4DA6F1368D8
:1021B000506819780478507A137A044201EA0301CE
:1021C0001BD0937A03F0030309B143F0040343F0F7
:1021D00008039910013B91720D2B0BD8DFE803F037
:1021E00021071B070A152121150A071B0721D368A0
:1021F000013BD3605DF8044B7047937A03F003030F
:102200000029E6D043F00403E3E7D3685DF8044B0C
:10221000023BD3607047D3685DF8044B0233D36050
:102220007047D3685DF8044B0133D360704700BF3B
:1022300058730220214B10B4D3F8802013685068E3
:1022400019780478507A137A044201EA03011BD00A
:10225000937A03F0030309B143F0040343F0080346
:102260009910013B91720D2B0BD8DFE803F0210789
:102270001B070A152121150A071B0721D368013BFB
:10228000D3605DF8044B7047937A03F00303002991
:10229000E6D043F00403E3E7D3685DF8044B023B68
:1022A000D3607047D3685DF8044B0233D360704746
:1022B000D3685DF8044B0133D36070475873022034
:1022C000214B10B4D3F8842013685068197804782F
:1022D000507A137A044201EA03011BD0937A03F087
:1022E000030309B143F0040343F008039910013BD1
:1022F00091720D2B0BD8DFE803F021071B070A159D
:102300002121150A071B0721D368013BD3605DF823
:10231000044B7047937A03F003030029E6D043F09F
:102320000403E3E7D3685DF8044B023BD3607047D6
:10233000D3685DF8044B0233D3607047D3685DF80F
:10234000044B0133D360704758730220214B10B403
:10235000D3F888201368506819780478507A137A73
:10236000044201EA03011BD0937A03F0030309B18D
:1023700043F0040343F008039910013B91720D2BC5
:102380000BD8DFE803F021071B070A152121150AE6
:10239000071B0721D368013BD3605DF8044B7047EE
:1023A000937A03F003030029E6D043F00403E3E744
:1023B000D3685DF8044B023BD3607047D3685DF887
:1023C000044B0233D3607047D3685DF8044B01338C
:1023D000D360704758730220214B10B4D3F88C207F
:1023E0001368506819780478507A137A044201EA25
:1023F00003011BD0937A03F0030309B143F00403F4
:1024000043F008039910013B91720D2B0BD8DFE8C4
:1024100003F021071B070A152121150A071B0721B5
:10242000D368013BD3605DF8044B7047937A03F0A7
:1024300003030029E6D043F00403E3E7D3685DF823
:10244000044B023BD3607047D3685DF8044B023302
:10245000D3607047D3685DF8044B0133D360704795
:1024600058730220214B10B4D3F8902013685068A1
:1024700019780478507A137A044201EA03011BD0D8
:10248000937A03F0030309B143F0040343F0080314
:102490009910013B91720D2B0BD8DFE803F0210757
:1024A0001B070A152121150A071B0721D368013BC9
:1024B000D3605DF8044B7047937A03F0030300295F
:1024C000E6D043F00403E3E7D3685DF8044B023B36
:1024D000D3607047D3685DF8044B0233D360704714
:1024E000D3685DF8044B0133D36070475873022002
:1024F000214B10B4D3F894201368506819780478ED
:10250000507A137A044201EA03011BD0937A03F054
:10251000030309B143F0040343F008039910013B9E
:1025200091720D2B0BD8DFE803F021071B070A156A
:102530002121150A071B0721D368013BD3605DF8F1
:10254000044B7047937A03F003030029E6D043F06D
:102550000403E3E7D3685DF8044B023BD3607047A4
:10256000D3685DF8044B0233D3607047D3685DF8DD
:10257000044B0133D360704758730220214B10B4D1
:10258000D3F898201368506819780478507A137A31
:10259000044201EA03011BD0937A03F0030309B15B
:1025A00043F0040343F008039910013B91720D2B93
:1025B0000BD8DFE803F021071B070A152121150AB4
:1025C000071B0721D368013BD3605DF8044B7047BC
:1025D000937A03F003030029E6D043F00403E3E712
:1025E000D3685DF8044B023BD3607047D3685DF855
:1025F000044B0233D3607047D3685DF8044B01335A
:10260000D360704758730220214B10B4D3F89C203C
:102610001368506819780478507A137A044201EAF2
:1026200003011BD0937A03F0030309B143F00403C1
:1026300043F008039910013B91720D2B0BD8DFE892
:1026400003F021071B070A152121150A071B072183
:10265000D368013BD3605DF8044B7047937A03F075
:1026600003030029E6D043F00403E3E7D3685DF8F1
:10267000044B023BD3607047D3685DF8044B0233D0
:10268000D3607047D3685DF8044B0133D360704763
:1026900058730220214B10B4D3F8A020136850685F
:1026A00019780478507A137A044201EA03011BD0A6
:1026B000937A03F0030309B143F0040343F00803E2
:1026C0009910013B91720D2B0BD8DFE803F0210725
:1026D0001B070A152121150A071B0721D368013B97
:1026E000D3605DF8044B7047937A03F0030300292D
:1026F000E6D043F00403E3E7D3685DF8044B023B04
:10270000D3607047D3685DF8044B0233D3607047E1
:10271000D3685DF8044B0133D360704758730220CF
:10272000002310B4114C4172026104600372C36053
:1027300041B1194600E0026942F82310427A0133A0
:102740009A42F8DC0A4B1A680AB90CE01A46536937
:10275000002BFBD15061002343618380C3808372CF
:102760005DF8044B70471860F5E700BFC8900100A2
:102770006C740220F8B5044615460E460846022140
:102780000EF070FC284602210EF06CFC984A994B22
:1027900052F83610012001F500772760207252F8B8
:1027A0003520607202F5007700206760E060013B31
:1027B000FDD191F8003292F8002203F00103D20714
:1027C00044BF43F00203DBB2A3723B2E00F2038648
:1027D000DFE816F0F405EA05E005D605CC05C205EC
:1027E000B805AE05A4059A05900586057C05720519
:1027F00068055E0554054A05400536052C05220589
:1028000018050E050405FA04F004E604DC04D204FD
:10281000C804BE04B304A8049D04920487047C0485
:1028200028041E0414040A040004F603EC03E20363
:10283000D803CE03C403BA03B003A6039C039203D8
:1028400088037E0374036A0360033C006A4B6B4990
:10285000C3F8EC4004223B200EF05CFB0123237400
:102860003B2D00F2B585DFE815F00B030103F702FD
:10287000ED02E302D902CF02C502BB02B102A702F8
:102880009D02930289027F02310227021D02130278
:102890000902FF01F501EB01E101D701CD01C301FF
:1028A000B901AF01A5019B01910186017B01700176
:1028B00065015A014F01440139012E01230118011C
:1028C0000D010201F700EC00E100B800AD00A2002C
:1028D00097008C00810076006B00600055004A0074
:1028E0003C00454B4549C3F8EC4004223B200EF028
:1028F00011FB237C0122134423742046F8BD3E4B78
:102900003F49C3F8E84004223A200EF003FB237C41
:102910000122F0E7384B3B49C3F8E4400422392058
:102920000EF0F8FA237C0122E5E7334B3649C3F871
:10293000E040042238200EF0EDFA237C0122DAE791
:102940002D4B3249C3F8DC40042237200EF0E2FA66
:10295000237C0122CFE7284B2D49C3F8D84004221D
:1029600036200EF0D7FA237C0122C4E7224B2949F6
:10297000C3F8D440042235200EF0CCFA237C012287
:10298000B9E71D4B2449C3F8D040042234200EF08F
:10299000C1FA237C0122AEE7174B2049C3F8CC4093
:1029A000042233200EF0B6FA237C0122A3E7124B57
:1029B0001B49C3F8C840042232200EF0ABFA237C36
:1029C000012298E70C4B1749C3F8C4400422312078
:1029D0000EF0A0FA237C01228DE7074B1249C3F8C1
:1029E000C040042230200EF095FA237C012282E7B9
:1029F00090D10100C0D4010058730220110F0000D3
:102A0000291000009D0F0000850E0000F90D000048
:102A10006D0D0000E10C0000550C0000C90B00001A
:102A20003D0B0000B10A0000250A0000AC4BAD4987
:102A3000C3F8BC4004222F200EF06CFA237C012244
:102A400059E7A74BA849C3F8B84004222E200EF03E
:102A500061FA237C01224EE7A14BA449C3F8B4409C
:102A600004222D200EF056FA237C012243E79C4BD2
:102A70009F49C3F8B04004222C200EF04BFA237C6F
:102A8000012238E7964B9B49C3F8AC4004222B2027
:102A90000EF040FA237C01222DE7914B9649C3F8B2
:102AA000A84004222A200EF035FA237C012222E7D6
:102AB0008B4B9249C3F8A440042229200EF02AFA35
:102AC000237C012217E7864B8D49C3F8A0400422DE
:102AD00028200EF01FFA237C01220CE7804B894945
:102AE000C3F89C40042227200EF014FA237C012214
:102AF00001E77B4B8449C3F89840042226200EF05E
:102B000009FA237C0122F6E6754B8049C3F894400C
:102B1000042225200EF0FEF9237C0122EBE6704B07
:102B20007B49C3F89040042224200EF0F3F9237C63
:102B30000122E0E66A4B7749C3F88C400422232047
:102B40000EF0E8F9237C0122D5E6654B7249C3F803
:102B50008840042222200EF0DDF9237C0122CAE6FF
:102B60005F4B6E49C3F88440042221200EF0D2F955
:102B7000237C0122BFE65A4B6949C3F880400422F6
:102B800020200EF0C7F9237C0122B4E6544B65499E
:102B9000DC6704221F200EF0BDF9237C0122AAE687
:102BA0004F4B61499C6704221E200EF0B3F9237C31
:102BB0000122A0E64A4B5D495C6704221D200EF00D
:102BC000A9F9237C012296E6454B59491C6704224A
:102BD0001C200EF09FF9237C01228CE6404B5549C6
:102BE000DC6604221B200EF095F9237C012282E68C
:102BF0003B4B51499C6604221A200EF08BF9237C32
:102C0000012278E6364B4D495C66042219200EF00D
:102C100081F9237C01226EE6314B49491C6604226E
:102C200018200EF077F9237C012264E62C4B4549ED
:102C3000DC65042217200EF06DF9237C01225AE690
:102C4000274B41499C65042216200EF063F9237C32
:102C5000012250E6224B3D495C65042215200EF00E
:102C600059F9237C012246E61D4B39491C65042293
:102C700014200EF04FF9237C01223CE6184B354915
:102C8000DC64042213200EF045F9237C012232E695
:102C9000134B31499C64042212200EF03BF9237C33
:102CA000012228E60E4B2D495C64042211200EF00F
:102CB00031F9237C01221EE6094B29491C640422B8
:102CC00010200EF027F9237C012214E6044B25493D
:102CD000DC6304220F200EF01DF9237C01220AE69A
:102CE00058730220990900000D09000081080000B6
:102CF000F507000069070000DD060000510600002E
:102D000095260000092600007D250000F124000022
:102D100065240000D92300004D230000C1220000DB
:102D200035220000A92100001D2100009120000093
:102D300005200000791F0000ED1E0000611E00004C
:102D4000D51D0000491D0000BD1C0000311C000005
:102D5000A51B0000191B00008D1A0000011A0000BD
:102D600075190000E9180000B34BB4499C630422B4
:102D70000E200EF0CFF8237C0122BCE5AE4BB0490B
:102D80005C6304220D200EF0C5F8237C0122B2E51D
:102D9000A94BAC491C6304220C200EF0BBF8237C29
:102DA0000122A8E5A44BA849DC6204220B200EF006
:102DB000B1F8237C01229EE59F4BA4499C6204222A
:102DC0000A200EF0A7F8237C012294E59A4BA04933
:102DD0005C62042209200EF09DF8237C01228AE522
:102DE000954B9C491C62042208200EF093F8237C2A
:102DF000012280E5904B9849DC61042207200EF007
:102E000089F8237C012276E58B4B94499C6104224E
:102E100006200EF07FF8237C01226CE5864B90495A
:102E20005C61042205200EF075F8237C012262E526
:102E3000814B8C491C61042210460EF06BF8237CF8
:102E4000012258E57C4B8849DC60042203200EF007
:102E500061F8237C01224EE5774B84499C60042273
:102E600002200EF057F8237C012244E5724B804982
:102E70005C60042201200EF04DF8237C01223AE52B
:102E80006D4B7C491C60042200200EF043F8237C2B
:102E9000012230E5684B7849C3F8E84004223A2023
:102EA0000EF038F80123DAE4634B7449C3F8E440C8
:102EB000042239200EF02EF80123D0E45E4B704935
:102EC000C3F8E040042238200EF024F80123C6E4C1
:102ED000594B6C49C3F8DC40042237200EF01AF835
:102EE0000123BCE4544B6849C3F8D840042236207F
:102EF0000EF010F80123B2E44F4B6449C3F8D440FC
:102F0000042235200EF006F80123A8E44A4B60495C
:102F1000C3F8D040042234200DF0FCFF01239EE4CE
:102F2000454B5C49C3F8CC40042233200DF0F2FF3E
:102F3000012394E4404B5849C3F8C840042232208E
:102F40000DF0E8FF01238AE43B4B5449C3F8C44029
:102F5000042231200DF0DEFF012380E4364B50497E
:102F6000C3F8C040042230200DF0D4FF012376E4E2
:102F7000314B4C49C3F8BC4004222F200DF0CAFF4E
:102F800001236CE42C4B4849C3F8B84004222E209E
:102F90000DF0C0FF012362E4274B4449C3F8B4405D
:102FA00004222D200DF0B6FF012358E4224B4049A6
:102FB000C3F8B04004222C200DF0ACFF01234EE4F6
:102FC0001D4B3C49C3F8AC4004222B200DF0A2FF5E
:102FD000012344E4184B3849C3F8A84004222A20AE
:102FE0000DF098FF01233AE4134B3449C3F8A44091
:102FF000042229200DF08EFF012330E40E4B3049CE
:10300000C3F8A040042228200DF084FF012326E409
:10301000094B2C49C3F89C40042227200DF07AFF6D
:1030200001231CE4044B2849C3F8984004222620BD
:103030000DF070FF012312E4587302205D180000A8
:10304000D117000045170000B91600002D1600002A
:10305000A11500001515000089140000FD130000E3
:1030600071130000E512000059120000CD1100009C
:1030700041110000B5100000291000009D0F000054
:10308000850E0000F90D00006D0D0000E10C000040
:10309000550C0000C90B00003D0B0000B10A0000F8
:1030A000250A0000990900000D09000081080000B0
:1030B000F507000069070000DD060000510600006A
:1030C00095260000092600007D250000C34BC44959
:1030D000C3F89440042225200DF01CFF0123FFF7C4
:1030E000BEBBBE4BBF49C3F89040042224200DF064
:1030F00011FF0123FFF7B3BBB84BBB49C3F88C40AA
:10310000042223200DF006FF0123FFF7A8BBB34BD9
:10311000B649C3F88840042222200DF0FBFE0123AB
:10312000FFF79DBBAD4BB249C3F884400422212078
:103130000DF0F0FE0123FFF792BBA84BAD49C3F899
:103140008040042220200DF0E5FE0123FFF787BB1D
:10315000A24BA949DC6704221F200DF0DBFE0123EE
:10316000FFF77DBB9D4BA5499C6704221E200DF0F7
:10317000D1FE0123FFF773BB984BA1495C67042282
:103180001D200DF0C7FE0123FFF769BB934B9D493E
:103190001C6704221C200DF0BDFE0123FFF75FBB5E
:1031A0008E4B9949DC6604221B200DF0B3FE0123EF
:1031B000FFF755BB894B95499C6604221A200DF0F8
:1031C000A9FE0123FFF74BBB844B91495C660422A7
:1031D00019200DF09FFE0123FFF741BB7F4B8D4966
:1031E0001C66042218200DF095FE0123FFF737BB63
:1031F0007A4B8949DC65042217200DF08BFE0123F0
:10320000FFF72DBB754B85499C65042216200DF0F8
:1032100081FE0123FFF723BB704B81495C650422CB
:1032200015200DF077FE0123FFF719BB6B4B7D498D
:103230001C65042214200DF06DFE0123FFF70FBB67
:10324000664B7949DC64042213200DF063FE0123F0
:10325000FFF705BB614B75499C64042212200DF0F9
:1032600059FE0123FFF7FBBA5C4B71495C640422F1
:1032700011200DF04FFE0123FFF7F1BA574B6D49B6
:103280001C64042210200DF045FE0123FFF7E7BA6D
:10329000524B6949DC6304220F200DF03BFE0123F1
:1032A000FFF7DDBA4D4B65499C6304220E200DF0FB
:1032B00031FE0123FFF7D3BA484B61495C63042216
:1032C0000D200DF027FE0123FFF7C9BA434B5D49DE
:1032D0001C6304220C200DF01DFE0123FFF7BFBA72
:1032E0003E4B5949DC6204220B200DF013FE0123F2
:1032F000FFF7B5BA394B55499C6204220A200DF0FC
:1033000009FE0123FFF7ABBA344B51495C6204223A
:1033100009200DF0FFFD0123FFF7A1BA2F4B4D4906
:103320001C62042208200DF0F5FD0123FFF797BA77
:103330002A4B4949DC61042207200DF0EBFD0123F3
:10334000FFF78DBA254B45499C61042206200DF0FC
:10335000E1FD0123FFF783BA204B41495C61042260
:1033600005200DF0D7FD0123FFF779BA1B4B3D492E
:103370001C61042210460DF0CDFD0123FFF76FBA4A
:10338000164B3949DC60042203200DF0C3FD0123F4
:10339000FFF765BA114B35499C60042202200DF0FD
:1033A000B9FD0123FFF75BBA0C4B31495C60042285
:1033B00001200DF0AFFD0123FFF751BA074B2D4956
:1033C0001C60042200200DF0A5FD0123FFF747BA81
:1033D0000022FFF790BA0023FFF741BA587302208A
:1033E000F124000065240000D92300004D230000D3
:1033F000C122000035220000A92100001D2100008B
:103400009120000005200000791F0000ED1E000043
:10341000611E0000D51D0000491D0000BD1C0000FC
:10342000311C0000A51B0000191B00008D1A0000B4
:10343000011A000075190000E91800005D1800006D
:10344000D117000045170000B91600002D16000026
:10345000A11500001515000089140000FD130000DF
:1034600071130000E512000059120000CD11000098
:1034700041110000B510000010B592B0014601A83E
:103480000DF0C4FA0023322201A805A90DF0D2FAEA
:1034900005A905480CF026FF044601A80DF076FAB0
:1034A000A0B212B010BD00BF8063002010B5A2B062
:1034B00044221749044668460DF084FB44220DEB74
:1034C000020014490DF07EFBADF10402002352F816
:1034D000041FA14204D00133112BF8D122B010BD3A
:1034E0000D490A68002AFCDB22AA02EB83030B4980
:1034F00013F8442C33F8423C013A1203013B02F426
:103500007F22C3F30B0313430B6022B010BD00BF37
:10351000CC9001001091010000F1024004F1024042
:103520002DE9F04F2DED028BDFF8ECA0364BDFEDEF
:10353000378A9FED378A85B0D34603934FF0000951
:10354000039B5BF8045F33F9022F039307EE902A85
:1035500007EE105AFAEEEF7AB8EEC77AFDEEE77A88
:1035600027EE287AF8EEE76A17EE904AA6EE887AF8
:103570001FFA89F606F104084FF4FC60BDEEC77A25
:103580000FFA88F817EE107ABE2FD4BF27EAE77734
:10359000BE27BE2CA8BFBE2423B25A22A4B24146E5
:1035A00000901C480BF04EF8C4F1BE0304F15A021F
:1035B000002441461BB212B21648009405360BF0A7
:1035C00041F836B24FF44873314600935A222BB279
:1035D0001048ADB20BF036F8C5F1BE0305F15A0242
:1035E00009F10209009431461BB212B209480BF0EE
:1035F00029F8B9F1FC0F4AF8047FA1D105B0BDEC60
:10360000028BBDE8F08F00BF325C00203333733F84
:10361000CDCC4C3D806300209453002070B5374CD6
:10362000374A384990B0002508A80123256002F0E8
:103630000BFF10AA34480A9B12F8145D9DF8241061
:1036400083600573017100F10D031A3012F8011F38
:1036500003F8011B83422C49F8D10F9BCB6108A8CA
:1036600002F01AFE294E05E008A802F02BFE08A879
:1036700002F012FE08A80122234902F059FF08A80F
:1036800002F02EFE10B92368312B2DDD08A802F0C0
:1036900007FE0028E8D108A802F000FE01466846AF
:1036A0000DF0B4F91A4904A80DF0B0F904A9684660
:1036B0000DF0DAF9054604A80DF068F91DB9684661
:1036C0000DF064F9D0E7236803EB430503EB8503B2
:1036D00008A8F51802F0E2FD0146284612F040F86D
:1036E000236801332360EAE708A802F0D5FD41F220
:1036F00088300DF0BDFC10B070BD00BF9C6600208E
:10370000FC910100FC6B0220D86B022004510020C8
:103710000092010038B5064D0648074C29460022A4
:1037200008F088F92070284608F05AFD207038BD4E
:10373000089201003C4C0020905B002038B5064DFB
:103740000648074C2946012208F074F920702846E3
:1037500008F046FD207038BD0C9201003C4C002062
:10376000905B0020F8B5214DFFF758FFFFF7E6FF0B
:103770002B6823B91E4E3268312A0BDDF8BD1D4877
:103780001B4E08F01BFD1C4A107032680023312AC2
:103790002B60F3DC194B1A491B681A48164F541C4E
:1037A0002246346011F04EFF0021164808F02CFD2F
:1037B0000A22387013490F4808F066F90228387059
:1037C00008D00A220F490B4808F05EF9012338702F
:1037D0002B60F8BD074808F0F1FC09283870F0D1DB
:1037E000084808F037FD3870EBE700BF5C68002040
:1037F0009C660020A8630020905B00206068002089
:1038000010920100A06600202DE9F843064605F05D
:10381000CFFD01282CDDDFF86490DFF8588000250B
:10382000D8F80000134F05EB4004304605F0F2FDD8
:1038300009EB042401464FF4807220460DF0C2F9D2
:103840000135304605F004FE022DE9D13B68013315
:10385000BF2B02D83B60BDE8F8830022064B3A60DC
:10386000064907484FF4C03208F08AFA054B187031
:10387000BDE8F883A46300209C4E0020C0680020AF
:10388000A8630020905B0020134A38B5002304464B
:10389000124D80F8F63013700CE005F0BBFD104BB4
:1038A00001464FF480720F4808F06AFA28702046EB
:1038B00005F0CEFD204605F07BFD00282046ECDC1F
:1038C000084808F07BFC084B287000221A60BDE80D
:1038D0003840FFF71FBF00BFF44E0020905B002070
:1038E0009C4E0020A86300205C68002008B50648B4
:1038F000FFF7CAFF002105480BF0ECF9044B4FF429
:1039000080329A6108BD00BF3067002080630020CC
:1039100080EB01202DE9F0418CB00DF1030600256C
:103920000746B0462C4628460DF0FCF808F8010F73
:103930004440082314F0010F4FEA540203F1FF330F
:1039400014BF82F08C04C4F3470413F0FF03F1D1D9
:1039500001352B2DE7D1F4B99DF82B30312B03D055
:1039600020460CB0BDE8F0819DF82A30302BF7D10D
:103970009DF82930302BF3D19DF82830302BEFD132
:10398000013F0DF12F0316F8012F07F8012F9E427A
:10399000F9D10120E5E718460CB0BDE8F08100BF81
:1039A000F8B50025471E2C4617F8016F0823744010
:1039B00014F0010F4FEA540203F1FF3314BF82F0F9
:1039C0008C04C4F3470413F0FF03F1D128460DF033
:1039D000A9F8864209D0314628460DF0BDF82846A0
:1039E0000DF0A0F83B7883420FD101352A2DDBD1B1
:1039F0000026214628460DF0AFF828460DF092F833
:103A000084420CBF30460120F8BD0126F1E700BF1B
:103A1000F0B58DB001A8FFF77DFF98B11C49099A58
:103A20001C4BBDF806709DF828609DF829509DF844
:103A30002A400F80012A9DF82B101E705D709C702B
:103A4000D97001D00DB0F0BD134C1449049F144D32
:103A5000144B27600A60059F029A134E2F601A606C
:103A6000124C039A124F32609DF820609DF821207D
:103A70002670104D1049114B079E9DF819403A7061
:103A80009DF818202E600C701A700DB0F0BD00BFAC
:103A9000C85B0020BC4E0020203E0020446800206F
:103AA0006C3E002034660020703E00205D3E002009
:103AB0007C3E0020783E0020743E0020183E00200E
:103AC000F0B522492248234A09680068224B234D59
:103AD0001B88234C2E68234F2568234C97F800E061
:103AE00094F800C08FB001330490069192E803006F
:103AF000C0F307228DF830008DF83120C0F3074263
:103B0000000E8DF832208DF83300ADF80E301748D6
:103B1000174B1849184A07780968126807960B95D9
:103B20001E78059100235B2503A88DF829C08DF828
:103B300028E009928DF821708DF820608DF80C50E6
:103B4000ADF83430FFF72CFF0FB0F0BD203E002061
:103B5000346600201C920100C85B00206C3E0020EF
:103B6000446800205D3E00207C3E0020743E002022
:103B7000183E0020703E0020783E0020F8B55C4ED4
:103B800034685CB1032C5B4D28D0022C3CD0012C56
:103B900060D0042C7DD000232B62F8BD5648554DD3
:103BA000564F04F061FF564A564B11681A68EC6193
:103BB00091424FF48033AB6104BFEB61AC61524B77
:103BC00034685248524A00211960032C4FF0010317
:103BD0004FF002013B6003601160D6D14FF4804189
:103BE0004548464F04F024FF474B3468484847494E
:103BF00000221A60AA6101234FF48032022C3B603C
:103C000003600B60EA61C2D14FF480413A4804F08E
:103C1000F9FE404BDFED406A93F9003007EE903A31
:103C2000F8EEE77AB7EE006A86EE277A4FF4803234
:103C30000023EA61AB61B4EEE67AF1EE10FA3BD410
:103C4000F2EE007AB4EEE77AF1EE10FA44DD4FF4CA
:103C5000002333E02848274C2B4F04F005FF284A67
:103C6000284B116818684FF4803288424FF00003E7
:103C7000EB61AA6108BFE26120482549234A08BFD9
:103C8000A36101233468036000263E600B6013606B
:103C90007FE719481C4F194E1D4C04F0E5FE1B48E8
:103CA000002201234FF480313A60EA61AA61336057
:103CB000236003602962F8BD40F28F230E4F124C3F
:103CC0000E481349114A3B62012300272760036015
:103CD00034680B6013605AE7DFED106ADFED107A8D
:103CE000E7EE267AFCEEE77A17EE903AE6E700BFB9
:103CF00034660020F466002054660020F86B022031
:103D0000DC4E0020243E0020406800206463002038
:103D1000A04E00205D3E00200AD7233C00008047D3
:103D2000EE7CFF3E2DE9F04F9F49A048DFF8B092AE
:103D30008BB00CF06BFE9E4A9E499C480FF09EFB98
:103D40001C211B2227238DE80E009B48FF231422F1
:103D500015210AF017FB32222521984809F0E2FCD0
:103D600032222421964809F0DDFC232222219548A5
:103D7000FEF700FD32222621934809F0D3FC3222BF
:103D80001D21924809F0CEFC1F221E219048FEF70B
:103D9000F1FC904B1A68904BC9F80030002389F869
:103DA0000930C9F8103089F80830C9F80C300AB960
:103DB000B1E21A465369002BFBD1C2F814900024DB
:103DC000DFF870B2854B8648C9F81440A9F8044062
:103DD000A9F8064089F80A40C9F8003004F036FF17
:103DE0000BF1180201215846FEF79AFC7D4B7E48E4
:103DF0008BF8F440224621468BF8F540CBF8F04092
:103E00008BF8F640CBF80030FEF78AFC764A774B09
:103E10001360774A744E774D18324FF48043A2F105
:103E2000180002213362FEF77BFC714A724B13606B
:103E3000012005F22472684E2C7223462146EC6064
:103E40002E6068722A612C4600E0226942F8231035
:103E50006A7A684801339A42F7DC5E4B1A680AB9FD
:103E60005DE21A465369002BFBD15561002463497A
:103E70002960224601234FF48071614E61486C61D4
:103E8000AC80EC80AC7285F8214785F82247C5F8F4
:103E900018610FF017FA4F4BDFF874811A684E491A
:103EA000C5F81C41082385F8203788F80940C8F870
:103EB0000010C8F8104088F80840C8F80C40454B7E
:103EC0000AB92EE21A465369002BFBD1C2F81480BE
:103ED0004FF0000A4C4B4D48C8F814A0A8F804A0B5
:103EE000A8F806A088F80AA0C8F8003002F0C6F9C1
:103EF0004748484C484F494E05F056F92C4A484926
:103F000043480FF0BBFA474B012103F11802184652
:103F1000FEF706FC434A444B1360444B042103F173
:103F200028021846FEF7FCFB414B03F12802184615
:103F30003E4B04211C604FF480349C61DC611C62A8
:103F40005C62FEF7EDFB3A4B324C1C6007F1280235
:103F50004FF48034042138469C61DC611C625C6251
:103F6000FEF7DEFB2B49BC61022006F11802FC6162
:103F70003C627C62184C396034605346514686F886
:103F800008A0C6F80CA070723261344600E02269C5
:103F900042F82310727A214801339A42F7DC0D4B24
:103FA0001A68002A49D1BFE124920100884E0020FE
:103FB0000C3E00208D090100806300206863002012
:103FC000D4E801203C660020A84E0020AC68002008
:103FD000E04E00206C740220C8900100249801007B
:103FE0006868002054980100F45B0020609801008C
:103FF00058E90120185C002018980100E4950100A0
:1040000004960100406300204898010000E9012067
:10401000E8E8012030980100FC650020B8EB0120A1
:104020002D060000546600200C98010080EB012052
:10403000F4660020306700201A465369002BFBD13C
:1040400056610024B94ABA4B7461B480F480B472EA
:10405000B8483260059305F031F8059BDFF82CA3D2
:104060001C721846C3F800905F605C72DC601C74C0
:104070000CF0BAFA059BB04AB04918460FF0FEF9A9
:10408000AF4B059350468AE8000A8AF808408AF840
:104090000940CAF80C408AF810400CF0A5FAA64A6C
:1040A000A649DFF8ECB250460FF0E8F9059BDFF8BF
:1040B000E4A21C724FF001091846C3F800805F604B
:1040C000DC601C7483F809900CF08EFA059B9A4A08
:1040D0009A49DFF8C48218460FF0D0F9994BCBF813
:1040E000043058468BF80840CBF800708BF8094034
:1040F000CBF80C408BF810400CF076FA8E4A8F49C2
:1041000058460FF0BBF9904BCAF8043050468AF875
:104110000840CAF800708AF80940CAF80C408AF8CA
:1041200010400CF061FA844A8449DFF870B25046BE
:104130000FF0A4F9834B88F80840404688E828002F
:1041400088F80940C8F80C4088F810400CF04CFA88
:10415000794A7A497D4B059340460FF08FF97C4BA5
:10416000DFF83CA2CBF8043058468BF80840CBF877
:1041700000708BF80940CBF80C408BF810400CF025
:1041800033FA6D4A6D49DFF81C82724D58460FF0C4
:1041900075F9714BCAF8003050466D4BCAF80430BF
:1041A0008AF808408AF80990CAF80C408AF810404A
:1041B0000CF01AFA6149604ADFF8ECB150460FF092
:1041C0005DF9059B604A1A601846644A1C725A6081
:1041D00083F80990DC601C740CF006FA059B564AC3
:1041E0005649DFF8C8A118460FF048F9584BC8F8EF
:1041F00000304046594BC8F8043088F8084088F829
:104200000940C8F80C4088F810400CF0EDF94B4913
:10421000494A40460FF032F9022328464F4A6B7252
:104220002C722F606A60EC602C740CF0DDF9424A4D
:104230004249DFF87C814A4F28460FF01FF9474B6F
:104240008BF8084058468BE848008BF80940CBF8BB
:104250000C408BF810400CF0C7F9374A3749414DF4
:1042600058460FF00BF93D4B8AF8099050468AE802
:1042700048008AF80840CAF80C408AF810400CF050
:10428000B3F950462C4A2D49DFF828A1364CDFF807
:1042900028910FF0F3F83549354B0A680792DDF89D
:1042A0001CB00A6808921A68089B0968DFF80CE1DC
:1042B00009911E462F4B0999DFF804C1CEF8002062
:1042C00002EB420003EB80032B4A2D68CAF800B0D2
:1042D000A1F57A71D3F808B0D3F804A0C8F800604B
:1042E000264B2748CCF800104FF00A082360C2F88C
:1042F00000A0C7F800B0C9F8005084F8088001F0A9
:10430000BDFF0D4A1F491E480FF0B8F80CF0BEFB68
:104310000BB0BDE8F08F1C4BC3F800904FE5186060
:10432000A4E5C3F80080D3E518608AE63C98010054
:10433000CC5B0020B8EB01200C3E002045060000BD
:10434000E05B002080EB012054660020C0E80120E3
:1043500058E90120B05B0020F45B0020F4660020E7
:104360002C670020783E0020F84E0020F8740220D0
:104370006C3E00205491010060680020F09501001F
:10438000D86B0220996200006C740220286800201B
:104390002CE9012040E9012098680020C44E00204B
:1043A00084680020486800209C5B00205063002047
:1043B000985B00207CEB0120945B00207863002058
:1043C000386600202DE9F04F2DED028BCB4CCC4E02
:1043D000CC4D95B020464FF6E0710CF005F84FF447
:1043E000004128230022019100932046F02311462A
:1043F000A5610AF0B1FA3368012B00F09382022B19
:1044000000F09D8214224FF400438DE80C0000213F
:10441000F0234FF48C72B948DFF83CA30AF09CFA01
:1044200028224FF448738DE80C000021F0234FF44C
:104430009672B2480AF090FA00221146AF480BF08B
:10444000B7FF0122B049AD480CF00EFA9AF90010FE
:10445000AA480CF093FA3268022A00F07A82DFF858
:10446000FC92AA49A548AA4F02220CF0FDF999F93D
:104470000010A2480CF082FA0222A6499F480CF0D4
:10448000F3F9A54B1C68204611F0DAF921460246E3
:104490009A480CF0E9F91422002198480BF088FFA3
:1044A0003B68042B00F23182DFE813F02201620145
:1044B00068016E0105000422984990480CF0D4F977
:1044C000974BDFF89C821968964C0BA8FBF7CEFF40
:1044D0001422B42189480BF06BFF0C9A0D9B0092BB
:1044E0000921914A05A811F05FF805A811F0A8F973
:1044F00005A9024681480CF0B7F900214FF48C72EF
:104500007E480BF055FFD8F800307C48012B0CBFDB
:104510004DF29A614FF6E0710BF066FF23680A2BAB
:1045200004D1D8F80020012A00F075827F4D55F89B
:1045300023B0584611F084F9594602466F480CF0F2
:1045400093F901227A496D480CF08EF94FF6FF710C
:104550006A48DFF8D0B10BF047FF2368012B00F069
:104560000882022B00F01681002B00F01C81092B21
:1045700000F02281082B00F02981032B00F030810C
:104580000C2B00F04281052B00F049810A2B00F032
:104590005381684BDFF8CC911B685848012B0CBF46
:1045A0004DF29A614FF6E0710BF01EFFD9F8003022
:1045B00055F82300FEF760FFC0F1F00109B24FF497
:1045C0008C724E480BF0F4FED9F8003055F82350A9
:1045D000284611F035F92946024648480CF044F9BE
:1045E0004FF49672002145480BF0E2FE4FF6E07161
:1045F00042480BF0F9FE2368062B00F04A814E4C2E
:104600002378002B00F06181012B00F06781022BE1
:104610004A4C00F071814FF6E07138480BF0E4FE2F
:10462000474B227847491C78474B052C0CBF1C464A
:104630000C46002A00F006813368002B40F31A81F3
:10464000DFF824A1414DDAF80020DFF820B19FED1A
:10465000407ADBF80010002A1346B8BF02F1FF03CE
:104660001B1207EE903A91FBF3F185FB0205D2177E
:10467000FAEEEF7AC2EB6535012D87EE278A4FEA15
:1046800041091EDD01244FF6E078CDF800800523B6
:1046900055221A4807EE904AF8EEE77A013467EEA1
:1046A000887AFDEEE77ACDED037ABDF90C1009F0BA
:1046B000C9FFA542E9D1DAF80030002BB8BFFF33BB
:1046C0001B123A68022A00F084814FF6E0730093CF
:1046D000572203230FFA89F108480BF0C3F9336816
:1046E000012B00F0558115B0BDEC028BBDE8F08FB9
:1046F0000222184901480CF0B7F8E1E68063002077
:10470000703E002098D00100449201004C920100BC
:104710003466002050920100606800206C92010015
:1047200000D00340406800207C920100283E002019
:104730008892010064630020B84E0020E4E8012064
:104740005C3E0020349201003C920100AD8BDB689E
:1047500000401C4654920100183E0020743E002088
:10476000F86B0220A04E00202C670020783E00202D
:104770000722B949B9480CF077F8A1E60722B849F1
:10478000B6480CF071F89BE60222B649B3480CF02B
:104790006BF895E6B44BB14819680CF0EFF8236854
:1047A000002B7FF4E4AE99F90010AC480CF0E6F869
:1047B0002368092B7FF4DEAEAC4BA84893F90010B8
:1047C0000CF0DCF82368082B7FF4D7AEA84BA34885
:1047D00093F900100CF0D2F82368032B7FF4D0AECD
:1047E000A44BA54A1B6803EB430302EB8303D3F8F6
:1047F0000490484611F024F84946024697480CF0C8
:1048000033F823680C2B7FF4BEAE9C4B934893F98E
:1048100000100CF0B3F82368052B7FF4B7AE984B6B
:104820001B68002B77D1072296498C480CF01CF8A6
:1048300023680A2B7FF4ADAE934B884819680CF0BF
:104840009DF8A6E6214685480BF04CFDC0F1EB0132
:1048500009B24FF4967281480BF0AAFD204610F081
:10486000EFFF214602467D480BF0FEFF3368002B28
:104870003FF7E6AE5522002178480BF099FD102253
:10488000824976480BF0F0FF15B0BDEC028BBDE815
:10489000F08FD8F80030012B7FF4B1AE7C4C6F481C
:1048A0004FF6FF710BF0A0FD2378002B00F0C680BF
:1048B000012B00F0CA80022B764C7FF4ACAE764917
:1048C000664804220BF0D0FFA5E60722734963482F
:1048D0000BF0CAFF2378012B7FF499AE704B1B7845
:1048E000002B4ED006226F495C480BF0BDFF2378A9
:1048F000684C022B7FF48FAE2378002BDFD004228C
:10490000694956480BF0B0FF85E6052267495348D0
:104910000BF0AAFFD4E50422654950480BF0A4FF30
:10492000236833E600211E2300932046F0230191E3
:104930003C220AF011F83368022B7FF463AD0021AA
:10494000062300930191F023542244480AF004F80E
:1049500058E5584941480BF087FF434B56491B68BF
:104960003E4881FB0321DB17C3EBA1110CF006F8D5
:1049700075E59AF9001039480CF000F8DBF80030C2
:10498000EFE507224D4935480BF06EFF23783EE6F0
:10499000DBF80010484B4A4A83FB0103C917C1EBFF
:1049A000A31308A8092110F0FFFDA9F10A0109B21B
:1049B0003C222A480BF0FCFC08A810F041FF08A993
:1049C000024626480BF050FF15B0BDEC028BBDE847
:1049D000F08F264A3B4D92F9001095FBF3F54FF40A
:1049E0007A7202FB01F292FBF3F3ED1A6D005B00A9
:1049F0001CB22DB24FF6FF772B4621460097552269
:104A0000164809F02FFE2B462146009759221348DD
:104A100009F028FE59E62C4B2C4A1B682C4D03EB61
:104A2000430B03EB8B0302EB030B584610F008FF1C
:104A30005946024609480BF017FF87E50722174938
:104A400006480BF011FF237832E70722214903487B
:104A50000BF00AFF23782EE75C92010080630020B0
:104A60006492010058920100783E00207C3E0020B4
:104A70005D3E00206C3E002054910100103E00205D
:104A8000446800208C9201009C660020D4920100B2
:104A900078EB0120E4E80120AC9201009C92010037
:104AA000F44E0020B4920100C492010074920100FF
:104AB0009492010048920100D34D6210BC92010013
:104AC000CC9201008038010054E9012004510020FB
:104AD000283E0020A4920100074B10B50124014696
:104AE0001C60064803F008FD054B1C60FFF76AFCDC
:104AF000044B00221A6010BD88E100E0F84E00204F
:104B000008E100E07C630020274B9FED286A93EDCD
:104B1000007ADFED276AB8EEC77A07EE900AC6EE94
:104B2000075AF8EEE77A67EEA57AF4EEE67AF1EE48
:104B300010FA19DC1F4A204BC2ED007AF5EEC07A5C
:104B40000122F1EE10FA1A602BD49FED1C7AF4EEDC
:104B5000C77AF1EE10FA1BDD194B1A491A4A0120E7
:104B60000860D361FFF72EBCC7EE065A114B1748F9
:104B7000114A0121F2EE027AE5EEA67AC3ED006A4F
:104B8000FDEEE77A17EE903AF0EE667A0360116078
:104B90009FED0F7A67EE877AFCEEE77A17EE903A90
:104BA000DBE70023D9E700BF2C670020A6552C4780
:104BB00000E0AB461C3E002088E100E0A655AC4674
:104BC00080FFFF7F08E100E0F45B0020783E0020DA
:104BD0004B24BE472DE9F04F2DED048BB34AB44B67
:104BE00092F900201B689FEDB36ADFEDB36A07EE10
:104BF000102A002BB8BFFF33F8EEC77A1B1227EE3E
:104C0000867A07EE903AF8EEE77AADF5077D87EE03
:104C1000278A0EAC4FF4F07220460021C6EEA78A18
:104C200010F066FAA54B1A680132012A03921A6045
:104C3000BDEEC88AFDEEE88A00F01881039B632B65
:104C400040F21C81DFF8C082DFF8B8929FED9C6AC9
:104C50000026C446B346B64627464FF4807A02255E
:104C6000F2EE046A0FE0042AD8BF4FF4006323DC9D
:104C70000135782D24F8163007F1040727F8023C97
:104C800006F102062CD03CF8023FB9EC017A03EBA6
:104C900083035B0007EE903AF8EEE77AE7EE467A98
:104CA00077EEA67AFDEEE77A17EE902A5245964403
:104CB000D9DD17EE90AAAB465300FF2BA8BFFF2308
:104CC000B2F5407FC0F2D082B2F5106FC0F296828A
:104CD0001B0203F478436FEAD3236FEAC323C7E7C9
:104CE000784B9FED797A83FB0E234FEAEE7ECEEB75
:104CF00023139AFBF3F307EE903AF8EEE77A18EEF7
:104D0000103AF4EE477AF1EE10FA48BF4FF0000B7C
:104D10005B4504DA18EE903A5B4500F3FB806B4B81
:104D20001D68012D4FF0000A00F02081022D00F0D7
:104D30002B8118EE103A5B45654D4EDA18EE903A2D
:104D40005B454ADD2B78002B40F0FC81614EDFF89B
:104D5000C08133680D93604B0D9A1A60D8F800300B
:104D6000012B00F0E6815D4E022B337840F0EC81A0
:104D7000002B00F0E9815A4803F076FE4FF48041A1
:104D8000574803F03FFE574BDFED576A93F9003069
:104D900007EE903AF8EEE77AB7EE006A86EE277AE9
:104DA000B4EEE67AF1EE10FA00F11882F2EE007A33
:104DB000B4EEE77AF1EE10FA00F31382DFED4B6AFE
:104DC000DFED4B7AE7EE267AFCEEE77A17EE902AD3
:104DD000434900230A623370B6E12B786BB13D4A38
:104DE0003D4913680993099B096812680A92414872
:104DF000414A0A9E06605B1A1380384E00223378BF
:104E00002A7043B9334A3449126808920968089AEB
:104E1000521A322A09D82D4B1B68022B0FD00DF5E0
:104E2000077DBDEC048BBDE8F08F2D4A2B7001236C
:104E300082F842303370254B1B68022BEFD1254B93
:104E40002C4A1B6807931268079B2C4D9B1A312B29
:104E500040F28D812B68B3F58C7FE0DB5A232B6009
:104E60000DF5077DBDEC048BBDE8F08F244B0021D0
:104E700003F5007243F8041B9A42FBD1214A2249F0
:104E8000DFED226A02F5FC7031F8023F92ED007A04
:104E900003EB83035B0007EE903AF8EEE77AA7EEA8
:104EA000A67AA2EC017A8242EED1CBE67C3E0020CB
:104EB0002C67002000007A4400409C476468002072
:104EC0006666663FBF3CB6226666863F703E00203F
:104ED00050660020F87402207CEB01206B3E00201D
:104EE000546600205D3E00200AD7233C0000804726
:104EF000EE7CFF3E985B0020F64E0020143E002022
:104F0000044F00200C4F0020325C00206F12833AC7
:104F100034660020C14BC24A02930021D3ED006ADF
:104F20008A46022338F8020F92ED007A07EE900AC3
:104F3000F8EEE77A77EE877AF4EEE67AF1EE10FA99
:104F4000E2EC017A03DDF0EE676A9A460121013353
:104F5000782BE7D1002940F09E81B24A13880133B3
:104F60001380B14B1D68012D7FF4E0AEAF4B1B6881
:104F7000022B00F0EE80039BDB073FF5DAAEFEF775
:104F8000CFFAA94B1D68D1E6A64E3388322B7FF6A7
:104F9000D0AE00202D23019000930146F0233080F5
:104FA0002822A34809F0D8FC9C4BBAF1000F00F06E
:104FB000F0801A4692ED007A02939E4BDFED9E5AE6
:104FC000F7EE007A03EB8A0377EE277A1A1D514633
:104FD00032ED016AC6EE276AF4EEE56AF1EE10FAE8
:104FE00002DD01390229F3D1DFED935A03915246D4
:104FF000B3EC016AC6EE276AF4EEE56AF1EE10FA48
:1050000040F3A5800132782AF2D100230493DFF81F
:105010001092DFED8A9A9FED8A9ACDF814B000269F
:10502000022702E0029B93ED007AD9ED006A8048E6
:10503000C6EE877A4FF478430FFA86FB0093594601
:1050400067EEA97AFDEEE77A17EE905AC5F155089A
:105050000FFA88F82DB242462B4609F0F3FABA450A
:1050600007F1010700F0C0800236782FB6B2A9EC34
:10507000019AD7D1734B029D1B6895ED007A9FED85
:10508000729A6B48DDF814B0002BB8BFFF331B12C7
:1050900007EE903AF6EE006A27EE267AF8EEE77A07
:1050A0002D22822185ED007A27EE899A0BF080F976
:1050B0004DF29A615E480BF097F9DDED037A5C489A
:1050C000F8EEE77A67EE897AFDEEE77A17EE901A46
:1050D0000BF054FC01225D4955480BF0C5FB4FF61F
:1050E000E07153480BF080F907EE90AAF8EEE77AEA
:1050F0004F4867EE897AFDEEE77A17EE901A0BF0CB
:105100003DFC012251494A480BF0AEFB4DF29A6139
:1051100047480BF069F9DDED047A4548F8EEE77A87
:1051200067EE897AFDEEE77A17EE901A0BF026FC0F
:10513000FFE53368464F0C930C9A3B68D31AB3F5DE
:105140007A7F2DD8434E337801222A7059E6049293
:105150005DE7344A404B1288A3FB02139B0803EB24
:105160008303D31A9BB2002B7FF4E3AD07E70194CE
:105170000123B5F900202E4800930021F0230AF006
:1051800081F829882A4809F0DBFF2B6801332B605E
:1051900061E60293039593ED007ACDF810A036E70F
:1051A000284B2E4A1B68002BB8BFFF331B120BFB8A
:1051B00003F382FB0312DB17C3EB62134FF4FA72A3
:1051C00002FB03F3264A18461360FFF79DFC336881
:1051D0000B930B9AD8F800303A60C4E540F28F2266
:1051E000F6E54FF40022F3E54FF6E07000902B4611
:1051F000424659460E4809F025FA35E7194981FB20
:105200000210D217C2EB60021B02D21003F47843E3
:1052100042F4FC6213439BB22AE500BF7C6300208A
:1052200080E90120A44E0020703E0020346600205A
:105230008063002078E90120CDCCCC3D00003442D1
:10524000000000002C6700206F12833A8892010052
:10525000386600206B3E0020CDCCCCCCD34D621004
:10526000783E0020398EE3380D491B0202930D4B26
:1052700081FB0210D117401A83FB0232029BC0004F
:1052800003F4784300F4FC60C1EB62020343C2F311
:10529000C4021343ECE4029BC3ED006A5DE600BF69
:1052A00056555555398EE33838B5104B1049114ACB
:1052B000114D00EB400003EB8003012498685B680C
:1052C0000B6028601460FEF7F1F8C8200BF0D0FEE8
:1052D0000A4B1868FFF718FC094B14201C600BF0F0
:1052E000C7FEBDE83840FFF76DB800BF549101001C
:1052F0006068002088E100E02C670020783E0020F4
:1053000008E100E0F8B5264B264E1968264B012728
:1053100000224FF480350A29044637709A61DD6116
:1053200032D00B2926D064200BF0A2FE0D2C204693
:10533000A8BF0D2020EAE070FFF7B6FF1B4C1C4B06
:105340001A682368002B02F1FF3226DB9342A8BFC4
:10535000134603EB43021749236003EB820319440E
:1053600015480D2210F0DAFA13491448BDE8F84048
:1053700003F048BF1249134B09689D6102291A6264
:1053800004BFDD619A61CEE70F480E4B0F490068FC
:1053900008601D62DA619A61C5E70023D9E700BFA2
:1053A00040680020E4E80120FC65002054E9012069
:1053B0009C66002004510020A0660020E8E801203F
:1053C00034660020F4660020783E0020945B0020C4
:1053D00010B50D4803F0EEFE0C4A0D4B106800248A
:1053E0001C70FFF761FF0B4A0B4B10681860FFF74A
:1053F0008BFB0A4B0A491C624FF48032CC618A61F4
:10540000DA619A6110BD00BFE8E8012078630020EE
:10541000E4E80120945B0020783E0020F466002040
:10542000FC65002008B50A4B1B781BB1094B93F8AB
:10543000403003B108BDFFF7CBFF074B1B78002BB3
:10544000F8D0064B1868BDE80840FFF75BBF00BF07
:10545000E4E80120E8E80120F8650020203E002073
:105460002DE9F04196B0A8B9AA4AAB49AB4B1268F6
:105470000D681B680D21C2B9EB1848BF01F1FF335D
:105480008B4270DB0023002878D1A44A136016B049
:10549000BDE8F0810128FAD1A14AA249A24B1268C5
:1054A0000D681B680321002AE6D0012AEFD1002DE8
:1054B000EDD00446002B68D19C490A782A4452B2A8
:1054C000002AC0F20E815A2A1346A8BF5A2307EEBB
:1054D000903A9FED976ADFED976AB8EEE77ADFEDD5
:1054E000967A27EE067AE7EE267AFCEEE77ACDED9D
:1054F000037A924A0B70012616600399904803F0D4
:105500006BF8904B1E60DFF81482D8F80030072B40
:1055100060D0032B48D0052B00F0B2800A2BB6D107
:105520007C4B1B68012B00F0CE807F4B1B68032B4C
:10553000ADD17B4B1B68012BA9D1834B1B78022B70
:10554000A5D1824C774B22681B681344052BA8BF5A
:10555000052323EAE37318462360FFF7A5FE7C4B7F
:1055600022681A6093E77B4A1278002A8BD1A3F154
:105570000A02012A98BF0023002886D0012886D17C
:10558000694A136016B0BDE8F081082B40F08880AE
:10559000714A13782B445BB2042B40F38E801E2B90
:1055A000A8BF1E231370AEE75A4B1B68012B7FF474
:1055B0006EAF664A584B11681B680B440D2BA8BF91
:1055C0000D2323EAE37318461360FFF76DFED8F846
:1055D0000030A0E7002C7FF45AAF604F604E3B686C
:1055E0000693069B32689B1AB3F5FA7F09D2F92B12
:1055F00000F23D81632B8BBF0A23C5EB05135D438E
:105600009D0008F04BFA08A9284408F0F1F808A812
:1056100008F0C6F90BF000FD524C08A808F0C0F9DC
:1056200008F08CFA2046322250210AF0C1FE0022F6
:1056300014232046019200933222A023502109F026
:105640008BF9494A494B1168A3610DA8FAF70EFF7F
:105650000DA90EC90AA8019100920921444A0FF030
:10566000A3FF0AA810F0ECF80AA9024620460BF0A6
:10567000FBF83B680793079AD8F80030326048E798
:10568000244B1B68012B7FF402AF234B39491A6866
:105690000868394B02441340002B26DB0B60F6E60A
:1056A000092B27D1354A13782B445BB20E2B07DD2B
:1056B000232BA8BF2323137025E70523137022E7AC
:1056C0000F2313701FE7144A2D4910680B682D4AE9
:1056D0001B18126807D4013A9342A8BF13460B6007
:1056E00023E7039305E70023F9E7013B63F0010398
:1056F0000133D3E70C2B49D123490B782B445BB200
:10570000002B04DD232BA8BF23230B70FBE61346DD
:105710000B70F8E6F86B02203C680020406800201F
:1057200064630020984E0020A04E0020743E0020AC
:105730000AD7233C00000143EE7CFF3E88E100E0F5
:10574000F84E002008E100E0B84E00206C3E00203A
:10575000203E0020F54E00205D3E0020F87402201F
:10576000C45B00208063002000D00340B4D001005F
:10577000E892010044680020010000807C3E002087
:1057800054E901209C660020103E0020012B18D116
:10579000384A13782B445BB2002B63DB3F2BA8BF46
:1057A0003F2318461370FFF797F9334A334B002015
:1057B0001060002103F5007243F8041B9342FBD1F3
:1057C000A1E6022B32D12E4F2E4E3B680493049B50
:1057D00032689B1AB3F5FA7F41D2F92B44D8642B77
:1057E00041F2883328BF4FF4FA632749274A0868F3
:1057F000126803FB050341F6573083422CDD244831
:1058000080FB02E0D243D20FC2EBE0124FF47A7079
:1058100000FB02F29342A8BF134618460B60FFF745
:1058200073F93B680593059B33606CE6042B03D149
:10583000114B00221A6066E6062B7FF464AE154910
:10584000154A0B780133DBB2A2FB0302520802EBCC
:1058500042029B1A0B7056E641F65833DDE74FF4CF
:10586000FA73C2E700239CE74FF47A73BDE705EBB8
:105870008505C6E6183E002064680020044F00201D
:10588000F8740220C45B0020783E00202C670020C2
:10589000D34D621078EB0120ABAAAAAAF0B5244D33
:1058A000244F254E83B0FDF75DFF284600210024DC
:1058B00009F046FC4FF4A073224628462146009387
:1058C0000194F02309F048F828464DF29A610AF055
:1058D0008BFD1A4BAB612146284664220AF068FD15
:1058E0000922174928460AF0BFFF38460FF0A8FFE3
:1058F0003946024628460AF0B7FF124BAB61FEF765
:1059000061FD1148114D03F0AFF8114A114B1249D6
:10591000946130464FF48032DC619A612C600C60F7
:1059200003F052FD012386F8F63003B0F0BD00BF4E
:1059300080630020A066002030670020D0D00100E6
:10594000F892010098D001005466002034660020CF
:1059500080EB0120F4660020A4630020F8B5744AAF
:10596000137C012B7BD972B6D36862B6714E724D2F
:105970003268002BB8BF03339C10944228DD01230A
:105980002B600120FFF76CFD6C4A3460137C012B07
:105990002BD972B6D36862B6694E6A4F3268002B53
:1059A000B8BF03339C1094420DDD01233B600020FF
:1059B000FFF756FD2B6834600BB93B686BB1BDE84F
:1059C000F840FEF7FFBC47DA4FF0FF333B60EEE7ED
:1059D00004DA4FF0FF332B60D3E7F8BD574A346049
:1059E00000232B60137C012BD3D872B61368506848
:1059F00019780478507A137A044201EA03016FD0CF
:105A0000937A03F0030309B143F0040343F008035E
:105A10009910013B91720D2BBCD801A151F823F0D4
:105A2000295B0000215B0000195B0000215B000086
:105A300095590000115B0000295B0000295B000004
:105A4000115B000095590000215B0000195B00000C
:105A5000215B0000295B000000233B60AAE772B6CF
:105A60001368506819780478507A137A044201EA6E
:105A700003012DD0937A03F0030309B143F004032B
:105A800043F008039910013B91720D2B3FF66CAF68
:105A900001A151F823F000BF095B0000015B000089
:105AA000F95A0000015B000069590000F15A00003A
:105AB000095B0000095B0000F15A00006959000011
:105AC000015B0000F95A0000015B0000095B000067
:105AD000937A03F003030029D4D043F00403D1E701
