:1000000000000320D1010000B111010069110100BD
:1000100069110100691101006911010069110100F4
:10002000691101006911010069110100B11101009C
:10003000B111010069110100A5260100A9270100E5
:10004000B1110100B1110100B1110100B1110100A4
:10005000B1110100B1110100B1110100B111010094
:10006000B1110100B1110100B1110100B111010084
:10007000B1110100B1110100B1110100B111010074
:10008000B1110100B1110100B1110100B111010064
:10009000B1110100B1110100B1110100B111010054
:1000A0002541010031410100B1110100B1110100F0
:1000B000B1110100B1110100B1110100F1270100DE
:1000C000B11101001D290100B1110100492A0100EF
:1000D000B1110100412B0100B1110100B11101006A
:1000E000B1110100B1110100B1110100B111010004
:1000F000B1110100B1110100B1110100B1110100F4
:10010000B1110100B1110100B1110100B1110100E3
:10011000B11101003D180100B1110100B111010040
:10012000B1110100B1110100B1110100B1110100C3
:10013000B1110100B1110100B1110100B1110100B3
:1001400001070100B1110100392C0100B1110100BA
:10015000B1110100B1110100B1110100B111010093
:10016000B1110100B11101003D410100B1110100C7
:10017000B1110100B1110100B1110100B111010073
:10018000B1110100B1110100B1110100B111010063
:10019000B1110100B1110100312D0100B1110100B7
:1001A000B1110100B1110100B1110100B111010043
:1001B000B1110100B1110100B1110100B111010033
:1001C000B1110100B1110100B1110100B111010023
:1001D0005C4B4CF2205210B51A804DF628121A8052
:1001E00000BF00BF10F0E8FF574B4FF030621A60BD
:1001F000564A9A60564ADA60564B4FF470021A60BB
:10020000554B564A1A60564A136813F4807304D14A
:1002100054490B604FF4A8531360534B1A781107DD
:1002200003D51A7842F008021A70504B5049AA229E
:100230001A70504A504B8B4204D252F8040F43F8C4
:10024000040BF8E74D4B4E4900228B4202D243F893
:10025000042BFAE74B494C4A002352F8230041F89B
:1002600023000133742BF8D1484B494A802103F80D
:10027000011B9342FBD1474B424A1A60464B8A22EC
:100280001A70A3F5805324225A70A0221A709A790A
:100290009207FCD59A79D406FCD4404A937903F0AE
:1002A0000C03082BFAD13E4B60221A7002331A78E5
:1002B000802AFCD1394B01221A715D225A719A7938
:1002C0009006FCD59979354A4906FBD5354B364918
:1002D00019600021596020231370937903F00C03F7
:1002E0000C2BFAD1314B324A1A60324B324A1A6027
:1002F00000225A60072243F8042C304AC3F80C2D20
:1003000062B611F03FF9174B1B68DA0705D52C4888
:1003100011F0BAF82B4B2C4A1A602C4B1B785B0659
:1003200009D5284C284B22689A4204D1244811F060
:10033000ABF80023236014F007FD10F043FF10F02A
:1003400071FEFEE70E20054030800440823F04002D
:100350000100002B88ED00E0002008E0030000858C
:1003600010D0034014D0034002D0074000E0074003
:10037000204C002044D50200303D0020204C0020BD
:10038000B0A90220003800200000000000E400E0D6
:1003900064E400E008ED00E0005006400040064044
:1003A00001E007404480044000000602048004404D
:1003B000C010070014E000E01FBF02000000202072
:1003C0009DC04B5D1CE00340A5C3945A00F007405C
:1003D000FFFFFFFFFFFFFFFFFFFFFFFFFFFFFFFF2D
:1003E000FFFFFFFFFFFFFFFFFFFFFFFFFFFFFFFF1D
:1003F000FFFFFFFFFFFFFFFFFFFFFFFFFFFFFFFF0D
:10040000FFFFFFFFFFFFFFFFFFFFFFFFDEF9FFFF23
:1004100010B5054C237833B9044B13B10448AFF33E
:1004200000800123237010BD204C0020000000003C
:1004300040D50200084B10B51BB108490848AFF37E
:1004400000800848036803B910BD074B002BFBD0A0
:10045000BDE81040184700BF00000000244C0020F9
:1004600040D50200204C00200000000011F006B82A
:1004700010B5044B044640F8183B05F03FFE2046FB
:1004800010BD00BF049C010010B5044610F0F0F848
:10049000204610BD214B10B4D3F8E42013685068F7
:1004A00019780478507A137A044201EA03011BD0C8
:1004B000937A03F0030309B143F0040343F0080304
:1004C0009910013B91720D2B0BD8DFE803F0210747
:1004D0001B070A152121150A071B0721D368013BB9
:1004E000D3605DF8044B7047937A03F0030300294F
:1004F000E6D043F00403E3E7D3685DF8044B023B26
:10050000D3607047D3685DF8044B0233D360704703
:10051000D3685DF8044B0133D3607047B4A3022065
:10052000214B10B4D3F8E820136850681978047888
:10053000507A137A044201EA03011BD0937A03F044
:10054000030309B143F0040343F008039910013B8E
:1005500091720D2B0BD8DFE803F021071B070A155A
:100560002121150A071B0721D368013BD3605DF8E1
:10057000044B7047937A03F003030029E6D043F05D
:100580000403E3E7D3685DF8044B023BD360704794
:10059000D3685DF8044B0233D3607047D3685DF8CD
:1005A000044B0133D3607047B4A30220214B10B435
:1005B000D3F8EC201368506819780478507A137ACD
:1005C000044201EA03011BD0937A03F0030309B14B
:1005D00043F0040343F008039910013B91720D2B83
:1005E0000BD8DFE803F021071B070A152121150AA4
:1005F000071B0721D368013BD3605DF8044B7047AC
:10060000937A03F003030029E6D043F00403E3E701
:10061000D3685DF8044B023BD3607047D3685DF844
:10062000044B0233D3607047D3685DF8044B013349
:10063000D3607047B4A30220214B10B4D3F89420A8
:100640001368506819780478507A137A044201EAE2
:1006500003011BD0937A03F0030309B143F00403B1
:1006600043F008039910013B91720D2B0BD8DFE882
:1006700003F021071B070A152121150A071B072173
:10068000D368013BD3605DF8044B7047937A03F065
:1006900003030029E6D043F00403E3E7D3685DF8E1
:1006A000044B023BD3607047D3685DF8044B0233C0
:1006B000D3607047D3685DF8044B0133D360704753
:1006C000B4A30220214B10B4D3F8982013685068CB
:1006D00019780478507A137A044201EA03011BD096
:1006E000937A03F0030309B143F0040343F00803D2
:1006F0009910013B91720D2B0BD8DFE803F0210715
:100700001B070A152121150A071B0721D368013B86
:10071000D3605DF8044B7047937A03F0030300291C
:10072000E6D043F00403E3E7D3685DF8044B023BF3
:10073000D3607047D3685DF8044B0233D3607047D1
:10074000D3685DF8044B0133D3607047B4A3022033
:10075000214B10B4D3F89C201368506819780478A2
:10076000507A137A044201EA03011BD0937A03F012
:10077000030309B143F0040343F008039910013B5C
:1007800091720D2B0BD8DFE803F021071B070A1528
:100790002121150A071B0721D368013BD3605DF8AF
:1007A000044B7047937A03F003030029E6D043F02B
:1007B0000403E3E7D3685DF8044B023BD360704762
:1007C000D3685DF8044B0233D3607047D3685DF89B
:1007D000044B0133D3607047B4A30220214B10B403
:1007E000D3F8A0201368506819780478507A137AE7
:1007F000044201EA03011BD0937A03F0030309B119
:1008000043F0040343F008039910013B91720D2B50
:100810000BD8DFE803F021071B070A152121150A71
:10082000071B0721D368013BD3605DF8044B704779
:10083000937A03F003030029E6D043F00403E3E7CF
:10084000D3685DF8044B023BD3607047D3685DF812
:10085000044B0233D3607047D3685DF8044B013317
:10086000D3607047B4A30220214B10B4D3F8A42066
:100870001368506819780478507A137A044201EAB0
:1008800003011BD0937A03F0030309B143F004037F
:1008900043F008039910013B91720D2B0BD8DFE850
:1008A00003F021071B070A152121150A071B072141
:1008B000D368013BD3605DF8044B7047937A03F033
:1008C00003030029E6D043F00403E3E7D3685DF8AF
:1008D000044B023BD3607047D3685DF8044B02338E
:1008E000D3607047D3685DF8044B0133D360704721
:1008F000B4A30220214B10B4D3F8A8201368506889
:1009000019780478507A137A044201EA03011BD063
:10091000937A03F0030309B143F0040343F008039F
:100920009910013B91720D2B0BD8DFE803F02107E2
:100930001B070A152121150A071B0721D368013B54
:10094000D3605DF8044B7047937A03F003030029EA
:10095000E6D043F00403E3E7D3685DF8044B023BC1
:10096000D3607047D3685DF8044B0233D36070479F
:10097000D3685DF8044B0133D3607047B4A3022001
:10098000214B10B4D3F8AC20136850681978047860
:10099000507A137A044201EA03011BD0937A03F0E0
:1009A000030309B143F0040343F008039910013B2A
:1009B00091720D2B0BD8DFE803F021071B070A15F6
:1009C0002121150A071B0721D368013BD3605DF87D
:1009D000044B7047937A03F003030029E6D043F0F9
:1009E0000403E3E7D3685DF8044B023BD360704730
:1009F000D3685DF8044B0233D3607047D3685DF869
:100A0000044B0133D3607047B4A30220214B10B4D0
:100A1000D3F8B0201368506819780478507A137AA4
:100A2000044201EA03011BD0937A03F0030309B1E6
:100A300043F0040343F008039910013B91720D2B1E
:100A40000BD8DFE803F021071B070A152121150A3F
:100A5000071B0721D368013BD3605DF8044B704747
:100A6000937A03F003030029E6D043F00403E3E79D
:100A7000D3685DF8044B023BD3607047D3685DF8E0
:100A8000044B0233D3607047D3685DF8044B0133E5
:100A9000D3607047B4A30220214B10B4D3F8B42024
:100AA0001368506819780478507A137A044201EA7E
:100AB00003011BD0937A03F0030309B143F004034D
:100AC00043F008039910013B91720D2B0BD8DFE81E
:100AD00003F021071B070A152121150A071B07210F
:100AE000D368013BD3605DF8044B7047937A03F001
:100AF00003030029E6D043F00403E3E7D3685DF87D
:100B0000044B023BD3607047D3685DF8044B02335B
:100B1000D3607047D3685DF8044B0133D3607047EE
:100B2000B4A30220214B10B4D3F8B8201368506846
:100B300019780478507A137A044201EA03011BD031
:100B4000937A03F0030309B143F0040343F008036D
:100B50009910013B91720D2B0BD8DFE803F02107B0
:100B60001B070A152121150A071B0721D368013B22
:100B7000D3605DF8044B7047937A03F003030029B8
:100B8000E6D043F00403E3E7D3685DF8044B023B8F
:100B9000D3607047D3685DF8044B0233D36070476D
:100BA000D3685DF8044B0133D3607047B4A30220CF
:100BB000214B10B4D3F8BC2013685068197804781E
:100BC000507A137A044201EA03011BD0937A03F0AE
:100BD000030309B143F0040343F008039910013BF8
:100BE00091720D2B0BD8DFE803F021071B070A15C4
:100BF0002121150A071B0721D368013BD3605DF84B
:100C0000044B7047937A03F003030029E6D043F0C6
:100C10000403E3E7D3685DF8044B023BD3607047FD
:100C2000D3685DF8044B0233D3607047D3685DF836
:100C3000044B0133D3607047B4A30220214B10B49E
:100C4000D3F8C0201368506819780478507A137A62
:100C5000044201EA03011BD0937A03F0030309B1B4
:100C600043F0040343F008039910013B91720D2BEC
:100C70000BD8DFE803F021071B070A152121150A0D
:100C8000071B0721D368013BD3605DF8044B704715
:100C9000937A03F003030029E6D043F00403E3E76B
:100CA000D3685DF8044B023BD3607047D3685DF8AE
:100CB000044B0233D3607047D3685DF8044B0133B3
:100CC000D3607047B4A30220214B10B4D3F8C420E2
:100CD0001368506819780478507A137A044201EA4C
:100CE00003011BD0937A03F0030309B143F004031B
:100CF00043F008039910013B91720D2B0BD8DFE8EC
:100D000003F021071B070A152121150A071B0721DC
:100D1000D368013BD3605DF8044B7047937A03F0CE
:100D200003030029E6D043F00403E3E7D3685DF84A
:100D3000044B023BD3607047D3685DF8044B023329
:100D4000D3607047D3685DF8044B0133D3607047BC
:100D5000B4A30220214B10B4D3F8C8201368506804
:100D600019780478507A137A044201EA03011BD0FF
:100D7000937A03F0030309B143F0040343F008033B
:100D80009910013B91720D2B0BD8DFE803F021077E
:100D90001B070A152121150A071B0721D368013BF0
:100DA000D3605DF8044B7047937A03F00303002986
:100DB000E6D043F00403E3E7D3685DF8044B023B5D
:100DC000D3607047D3685DF8044B0233D36070473B
:100DD000D3685DF8044B0133D3607047B4A302209D
:100DE000214B10B4D3F8CC201368506819780478DC
:100DF000507A137A044201EA03011BD0937A03F07C
:100E0000030309B143F0040343F008039910013BC5
:100E100091720D2B0BD8DFE803F021071B070A1591
:100E20002121150A071B0721D368013BD3605DF818
:100E3000044B7047937A03F003030029E6D043F094
:100E40000403E3E7D3685DF8044B023BD3607047CB
:100E5000D3685DF8044B0233D3607047D3685DF804
:100E6000044B0133D3607047B4A30220214B10B46C
:100E7000D3F8D0201368506819780478507A137A20
:100E8000044201EA03011BD0937A03F0030309B182
:100E900043F0040343F008039910013B91720D2BBA
:100EA0000BD8DFE803F021071B070A152121150ADB
:100EB000071B0721D368013BD3605DF8044B7047E3
:100EC000937A03F003030029E6D043F00403E3E739
:100ED000D3685DF8044B023BD3607047D3685DF87C
:100EE000044B0233D3607047D3685DF8044B013381
:100EF000D3607047B4A30220214B10B4D3F8D420A0
:100F00001368506819780478507A137A044201EA19
:100F100003011BD0937A03F0030309B143F00403E8
:100F200043F008039910013B91720D2B0BD8DFE8B9
:100F300003F021071B070A152121150A071B0721AA
:100F4000D368013BD3605DF8044B7047937A03F09C
:100F500003030029E6D043F00403E3E7D3685DF818
:100F6000044B023BD3607047D3685DF8044B0233F7
:100F7000D3607047D3685DF8044B0133D36070478A
:100F8000B4A30220214B10B4D3F8D82013685068C2
:100F900019780478507A137A044201EA03011BD0CD
:100FA000937A03F0030309B143F0040343F0080309
:100FB0009910013B91720D2B0BD8DFE803F021074C
:100FC0001B070A152121150A071B0721D368013BBE
:100FD000D3605DF8044B7047937A03F00303002954
:100FE000E6D043F00403E3E7D3685DF8044B023B2B
:100FF000D3607047D3685DF8044B0233D360704709
:10100000D3685DF8044B0133D3607047B4A302206A
:10101000214B10B4D3F8DC20136850681978047899
:10102000507A137A044201EA03011BD0937A03F049
:10103000030309B143F0040343F008039910013B93
:1010400091720D2B0BD8DFE803F021071B070A155F
:101050002121150A071B0721D368013BD3605DF8E6
:10106000044B7047937A03F003030029E6D043F062
:101070000403E3E7D3685DF8044B023BD360704799
:10108000D3685DF8044B0233D3607047D3685DF8D2
:10109000044B0133D3607047B4A30220214B10B43A
:1010A000D3F8E0201368506819780478507A137ADE
:1010B000044201EA03011BD0937A03F0030309B150
:1010C00043F0040343F008039910013B91720D2B88
:1010D0000BD8DFE803F021071B070A152121150AA9
:1010E000071B0721D368013BD3605DF8044B7047B1
:1010F000937A03F003030029E6D043F00403E3E707
:10110000D3685DF8044B023BD3607047D3685DF849
:10111000044B0233D3607047D3685DF8044B01334E
:10112000D3607047B4A30220214B10B41A6813682F
:10113000506819780478507A137A044201EA03015E
:101140001BD0937A03F0030309B143F0040343F087
:1011500008039910013B91720D2B0BD8DFE803F0C7
:1011600021071B070A152121150A071B0721D36830
:10117000013BD3605DF8044B7047937A03F003039F
:101180000029E6D043F00403E3E7D3685DF8044B9D
:10119000023BD3607047D3685DF8044B0233D360E1
:1011A0007047D3685DF8044B0133D360704700BFCC
:1011B000B4A30220214B10B45A6813685068197800
:1011C0000478507A137A044201EA03011BD0937A1F
:1011D00003F0030309B143F0040343F0080399103B
:1011E000013B91720D2B0BD8DFE803F021071B07A1
:1011F0000A152121150A071B0721D368013BD3607B
:101200005DF8044B7047937A03F003030029E6D09E
:1012100043F00403E3E7D3685DF8044B023BD3607B
:101220007047D3685DF8044B0233D3607047D368CE
:101230005DF8044B0133D360704700BFB4A30220B4
:10124000214B10B49A681368506819780478507A62
:10125000137A044201EA03011BD0937A03F00303DB
:1012600009B143F0040343F008039910013B917264
:101270000D2B0BD8DFE803F021071B070A152121EE
:10128000150A071B0721D368013BD3605DF8044BA7
:101290007047937A03F003030029E6D043F0040378
:1012A000E3E7D3685DF8044B023BD3607047D36833
:1012B0005DF8044B0233D3607047D3685DF8044B8C
:1012C0000133D360704700BFB4A30220214B10B498
:1012D000DA681368506819780478507A137A0442EF
:1012E00001EA03011BD0937A03F0030309B143F031
:1012F000040343F008039910013B91720D2B0BD8A6
:10130000DFE803F021071B070A152121150A071B37
:101310000721D368013BD3605DF8044B7047937A93
:1013200003F003030029E6D043F00403E3E7D368A6
:101330005DF8044B023BD3607047D3685DF8044B03
:101340000233D3607047D3685DF8044B0133D36038
:10135000704700BFB4A30220214B10B41A69136870
:10136000506819780478507A137A044201EA03012C
:101370001BD0937A03F0030309B143F0040343F055
:1013800008039910013B91720D2B0BD8DFE803F095
:1013900021071B070A152121150A071B0721D368FE
:1013A000013BD3605DF8044B7047937A03F003036D
:1013B0000029E6D043F00403E3E7D3685DF8044B6B
:1013C000023BD3607047D3685DF8044B0233D360AF
:1013D0007047D3685DF8044B0133D360704700BF9A
:1013E000B4A30220214B10B45A69136850681978CD
:1013F0000478507A137A044201EA03011BD0937AED
:1014000003F0030309B143F0040343F00803991008
:10141000013B91720D2B0BD8DFE803F021071B076E
:101420000A152121150A071B0721D368013BD36048
:101430005DF8044B7047937A03F003030029E6D06C
:1014400043F00403E3E7D3685DF8044B023BD36049
:101450007047D3685DF8044B0233D3607047D3689C
:101460005DF8044B0133D360704700BFB4A3022082
:10147000214B10B49A691368506819780478507A2F
:10148000137A044201EA03011BD0937A03F00303A9
:1014900009B143F0040343F008039910013B917232
:1014A0000D2B0BD8DFE803F021071B070A152121BC
:1014B000150A071B0721D368013BD3605DF8044B75
:1014C0007047937A03F003030029E6D043F0040346
:1014D000E3E7D3685DF8044B023BD3607047D36801
:1014E0005DF8044B0233D3607047D3685DF8044B5A
:1014F0000133D360704700BFB4A30220214B10B466
:10150000DA691368506819780478507A137A0442BB
:1015100001EA03011BD0937A03F0030309B143F0FE
:10152000040343F008039910013B91720D2B0BD873
:10153000DFE803F021071B070A152121150A071B05
:101540000721D368013BD3605DF8044B7047937A61
:1015500003F003030029E6D043F00403E3E7D36874
:101560005DF8044B023BD3607047D3685DF8044BD1
:101570000233D3607047D3685DF8044B0133D36006
:10158000704700BFB4A30220214B10B41A6A13683D
:10159000506819780478507A137A044201EA0301FA
:1015A0001BD0937A03F0030309B143F0040343F023
:1015B00008039910013B91720D2B0BD8DFE803F063
:1015C00021071B070A152121150A071B0721D368CC
:1015D000013BD3605DF8044B7047937A03F003033B
:1015E0000029E6D043F00403E3E7D3685DF8044B39
:1015F000023BD3607047D3685DF8044B0233D3607D
:101600007047D3685DF8044B0133D360704700BF67
:10161000B4A30220214B10B45A6A13685068197899
:101620000478507A137A044201EA03011BD0937ABA
:1016300003F0030309B143F0040343F008039910D6
:10164000013B91720D2B0BD8DFE803F021071B073C
:101650000A152121150A071B0721D368013BD36016
:101660005DF8044B7047937A03F003030029E6D03A
:1016700043F00403E3E7D3685DF8044B023BD36017
:101680007047D3685DF8044B0233D3607047D3686A
:101690005DF8044B0133D360704700BFB4A3022050
:1016A000214B10B49A6A1368506819780478507AFC
:1016B000137A044201EA03011BD0937A03F0030377
:1016C00009B143F0040343F008039910013B917200
:1016D0000D2B0BD8DFE803F021071B070A1521218A
:1016E000150A071B0721D368013BD3605DF8044B43
:1016F0007047937A03F003030029E6D043F0040314
:10170000E3E7D3685DF8044B023BD3607047D368CE
:101710005DF8044B0233D3607047D3685DF8044B27
:101720000133D360704700BFB4A30220214B10B433
:10173000DA6A1368506819780478507A137A044288
:1017400001EA03011BD0937A03F0030309B143F0CC
:10175000040343F008039910013B91720D2B0BD841
:10176000DFE803F021071B070A152121150A071BD3
:101770000721D368013BD3605DF8044B7047937A2F
:1017800003F003030029E6D043F00403E3E7D36842
:101790005DF8044B023BD3607047D3685DF8044B9F
:1017A0000233D3607047D3685DF8044B0133D360D4
:1017B000704700BFB4A30220214B10B41A6B13680A
:1017C000506819780478507A137A044201EA0301C8
:1017D0001BD0937A03F0030309B143F0040343F0F1
:1017E00008039910013B91720D2B0BD8DFE803F031
:1017F00021071B070A152121150A071B0721D3689A
:10180000013BD3605DF8044B7047937A03F0030308
:101810000029E6D043F00403E3E7D3685DF8044B06
:10182000023BD3607047D3685DF8044B0233D3604A
:101830007047D3685DF8044B0133D360704700BF35
:10184000B4A30220214B10B45A6B13685068197866
:101850000478507A137A044201EA03011BD0937A88
:1018600003F0030309B143F0040343F008039910A4
:10187000013B91720D2B0BD8DFE803F021071B070A
:101880000A152121150A071B0721D368013BD360E4
:101890005DF8044B7047937A03F003030029E6D008
:1018A00043F00403E3E7D3685DF8044B023BD360E5
:1018B0007047D3685DF8044B0233D3607047D36838
:1018C0005DF8044B0133D360704700BFB4A302201E
:1018D000214B10B49A6B1368506819780478507AC9
:1018E000137A044201EA03011BD0937A03F0030345
:1018F00009B143F0040343F008039910013B9172CE
:101900000D2B0BD8DFE803F021071B070A15212157
:10191000150A071B0721D368013BD3605DF8044B10
:101920007047937A03F003030029E6D043F00403E1
:10193000E3E7D3685DF8044B023BD3607047D3689C
:101940005DF8044B0233D3607047D3685DF8044BF5
:101950000133D360704700BFB4A30220214B10B401
:10196000DA6B1368506819780478507A137A044255
:1019700001EA03011BD0937A03F0030309B143F09A
:10198000040343F008039910013B91720D2B0BD80F
:10199000DFE803F021071B070A152121150A071BA1
:1019A0000721D368013BD3605DF8044B7047937AFD
:1019B00003F003030029E6D043F00403E3E7D36810
:1019C0005DF8044B023BD3607047D3685DF8044B6D
:1019D0000233D3607047D3685DF8044B0133D360A2
:1019E000704700BFB4A30220214B10B41A6C1368D7
:1019F000506819780478507A137A044201EA030196
:101A00001BD0937A03F0030309B143F0040343F0BE
:101A100008039910013B91720D2B0BD8DFE803F0FE
:101A200021071B070A152121150A071B0721D36867
:101A3000013BD3605DF8044B7047937A03F00303D6
:101A40000029E6D043F00403E3E7D3685DF8044BD4
:101A5000023BD3607047D3685DF8044B0233D36018
:101A60007047D3685DF8044B0133D360704700BF03
:101A7000B4A30220214B10B45A6C13685068197833
:101A80000478507A137A044201EA03011BD0937A56
:101A900003F0030309B143F0040343F00803991072
:101AA000013B91720D2B0BD8DFE803F021071B07D8
:101AB0000A152121150A071B0721D368013BD360B2
:101AC0005DF8044B7047937A03F003030029E6D0D6
:101AD00043F00403E3E7D3685DF8044B023BD360B3
:101AE0007047D3685DF8044B0233D3607047D36806
:101AF0005DF8044B0133D360704700BFB4A30220EC
:101B0000214B10B49A6C1368506819780478507A95
:101B1000137A044201EA03011BD0937A03F0030312
:101B200009B143F0040343F008039910013B91729B
:101B30000D2B0BD8DFE803F021071B070A15212125
:101B4000150A071B0721D368013BD3605DF8044BDE
:101B50007047937A03F003030029E6D043F00403AF
:101B6000E3E7D3685DF8044B023BD3607047D3686A
:101B70005DF8044B0233D3607047D3685DF8044BC3
:101B80000133D360704700BFB4A30220214B10B4CF
:101B9000DA6C1368506819780478507A137A044222
:101BA00001EA03011BD0937A03F0030309B143F068
:101BB000040343F008039910013B91720D2B0BD8DD
:101BC000DFE803F021071B070A152121150A071B6F
:101BD0000721D368013BD3605DF8044B7047937ACB
:101BE00003F003030029E6D043F00403E3E7D368DE
:101BF0005DF8044B023BD3607047D3685DF8044B3B
:101C00000233D3607047D3685DF8044B0133D3606F
:101C1000704700BFB4A30220214B10B41A6D1368A3
:101C2000506819780478507A137A044201EA030163
:101C30001BD0937A03F0030309B143F0040343F08C
:101C400008039910013B91720D2B0BD8DFE803F0CC
:101C500021071B070A152121150A071B0721D36835
:101C6000013BD3605DF8044B7047937A03F00303A4
:101C70000029E6D043F00403E3E7D3685DF8044BA2
:101C8000023BD3607047D3685DF8044B0233D360E6
:101C90007047D3685DF8044B0133D360704700BFD1
:101CA000B4A30220214B10B45A6D13685068197800
:101CB0000478507A137A044201EA03011BD0937A24
:101CC00003F0030309B143F0040343F00803991040
:101CD000013B91720D2B0BD8DFE803F021071B07A6
:101CE0000A152121150A071B0721D368013BD36080
:101CF0005DF8044B7047937A03F003030029E6D0A4
:101D000043F00403E3E7D3685DF8044B023BD36080
:101D10007047D3685DF8044B0233D3607047D368D3
:101D20005DF8044B0133D360704700BFB4A30220B9
:101D3000214B10B49A6D1368506819780478507A62
:101D4000137A044201EA03011BD0937A03F00303E0
:101D500009B143F0040343F008039910013B917269
:101D60000D2B0BD8DFE803F021071B070A152121F3
:101D7000150A071B0721D368013BD3605DF8044BAC
:101D80007047937A03F003030029E6D043F004037D
:101D9000E3E7D3685DF8044B023BD3607047D36838
:101DA0005DF8044B0233D3607047D3685DF8044B91
:101DB0000133D360704700BFB4A30220214B10B49D
:101DC000DA6D1368506819780478507A137A0442EF
:101DD00001EA03011BD0937A03F0030309B143F036
:101DE000040343F008039910013B91720D2B0BD8AB
:101DF000DFE803F021071B070A152121150A071B3D
:101E00000721D368013BD3605DF8044B7047937A98
:101E100003F003030029E6D043F00403E3E7D368AB
:101E20005DF8044B023BD3607047D3685DF8044B08
:101E30000233D3607047D3685DF8044B0133D3603D
:101E4000704700BFB4A30220214B10B41A6E136870
:101E5000506819780478507A137A044201EA030131
:101E60001BD0937A03F0030309B143F0040343F05A
:101E700008039910013B91720D2B0BD8DFE803F09A
:101E800021071B070A152121150A071B0721D36803
:101E9000013BD3605DF8044B7047937A03F0030372
:101EA0000029E6D043F00403E3E7D3685DF8044B70
:101EB000023BD3607047D3685DF8044B0233D360B4
:101EC0007047D3685DF8044B0133D360704700BF9F
:101ED000B4A30220214B10B45A6E136850681978CD
:101EE0000478507A137A044201EA03011BD0937AF2
:101EF00003F0030309B143F0040343F0080399100E
:101F0000013B91720D2B0BD8DFE803F021071B0773
:101F10000A152121150A071B0721D368013BD3604D
:101F20005DF8044B7047937A03F003030029E6D071
:101F300043F00403E3E7D3685DF8044B023BD3604E
:101F40007047D3685DF8044B0233D3607047D368A1
:101F50005DF8044B0133D360704700BFB4A3022087
:101F6000214B10B49A6E1368506819780478507A2F
:101F7000137A044201EA03011BD0937A03F00303AE
:101F800009B143F0040343F008039910013B917237
:101F90000D2B0BD8DFE803F021071B070A152121C1
:101FA000150A071B0721D368013BD3605DF8044B7A
:101FB0007047937A03F003030029E6D043F004034B
:101FC000E3E7D3685DF8044B023BD3607047D36806
:101FD0005DF8044B0233D3607047D3685DF8044B5F
:101FE0000133D360704700BFB4A30220214B10B46B
:101FF000DA6E1368506819780478507A137A0442BC
:1020000001EA03011BD0937A03F0030309B143F003
:10201000040343F008039910013B91720D2B0BD878
:10202000DFE803F021071B070A152121150A071B0A
:102030000721D368013BD3605DF8044B7047937A66
:1020400003F003030029E6D043F00403E3E7D36879
:102050005DF8044B023BD3607047D3685DF8044BD6
:102060000233D3607047D3685DF8044B0133D3600B
:10207000704700BFB4A30220214B10B41A6F13683D
:10208000506819780478507A137A044201EA0301FF
:102090001BD0937A03F0030309B143F0040343F028
:1020A00008039910013B91720D2B0BD8DFE803F068
:1020B00021071B070A152121150A071B0721D368D1
:1020C000013BD3605DF8044B7047937A03F0030340
:1020D0000029E6D043F00403E3E7D3685DF8044B3E
:1020E000023BD3607047D3685DF8044B0233D36082
:1020F0007047D3685DF8044B0133D360704700BF6D
:10210000B4A30220214B10B45A6F13685068197899
:102110000478507A137A044201EA03011BD0937ABF
:1021200003F0030309B143F0040343F008039910DB
:10213000013B91720D2B0BD8DFE803F021071B0741
:102140000A152121150A071B0721D368013BD3601B
:102150005DF8044B7047937A03F003030029E6D03F
:1021600043F00403E3E7D3685DF8044B023BD3601C
:102170007047D3685DF8044B0233D3607047D3686F
:102180005DF8044B0133D360704700BFB4A3022055
:10219000214B10B49A6F1368506819780478507AFC
:1021A000137A044201EA03011BD0937A03F003037C
:1021B00009B143F0040343F008039910013B917205
:1021C0000D2B0BD8DFE803F021071B070A1521218F
:1021D000150A071B0721D368013BD3605DF8044B48
:1021E0007047937A03F003030029E6D043F0040319
:1021F000E3E7D3685DF8044B023BD3607047D368D4
:102200005DF8044B0233D3607047D3685DF8044B2C
:102210000133D360704700BFB4A30220214B10B438
:10222000DA6F1368506819780478507A137A044288
:1022300001EA03011BD0937A03F0030309B143F0D1
:10224000040343F008039910013B91720D2B0BD846
:10225000DFE803F021071B070A152121150A071BD8
:102260000721D368013BD3605DF8044B7047937A34
:1022700003F003030029E6D043F00403E3E7D36847
:102280005DF8044B023BD3607047D3685DF8044BA4
:102290000233D3607047D3685DF8044B0133D360D9
:1022A000704700BFB4A30220214B10B4D3F88020A4
:1022B0001368506819780478507A137A044201EA56
:1022C00003011BD0937A03F0030309B143F0040325
:1022D00043F008039910013B91720D2B0BD8DFE8F6
:1022E00003F021071B070A152121150A071B0721E7
:1022F000D368013BD3605DF8044B7047937A03F0D9
:1023000003030029E6D043F00403E3E7D3685DF854
:10231000044B023BD3607047D3685DF8044B023333
:10232000D3607047D3685DF8044B0133D3607047C6
:10233000B4A30220214B10B4D3F884201368506852
:1023400019780478507A137A044201EA03011BD009
:10235000937A03F0030309B143F0040343F0080345
:102360009910013B91720D2B0BD8DFE803F0210788
:102370001B070A152121150A071B0721D368013BFA
:10238000D3605DF8044B7047937A03F00303002990
:10239000E6D043F00403E3E7D3685DF8044B023B67
:1023A000D3607047D3685DF8044B0233D360704745
:1023B000D3685DF8044B0133D3607047B4A30220A7
:1023C000214B10B4D3F8882013685068197804782A
:1023D000507A137A044201EA03011BD0937A03F086
:1023E000030309B143F0040343F008039910013BD0
:1023F00091720D2B0BD8DFE803F021071B070A159C
:102400002121150A071B0721D368013BD3605DF822
:10241000044B7047937A03F003030029E6D043F09E
:102420000403E3E7D3685DF8044B023BD3607047D5
:10243000D3685DF8044B0233D3607047D3685DF80E
:10244000044B0133D3607047B4A30220214B10B476
:10245000D3F88C201368506819780478507A137A6E
:10246000044201EA03011BD0937A03F0030309B18C
:1024700043F0040343F008039910013B91720D2BC4
:102480000BD8DFE803F021071B070A152121150AE5
:10249000071B0721D368013BD3605DF8044B7047ED
:1024A000937A03F003030029E6D043F00403E3E743
:1024B000D3685DF8044B023BD3607047D3685DF886
:1024C000044B0233D3607047D3685DF8044B01338B
:1024D000D3607047B4A30220214B10B4D3F89020EE
:1024E0001368506819780478507A137A044201EA24
:1024F00003011BD0937A03F0030309B143F00403F3
:1025000043F008039910013B91720D2B0BD8DFE8C3
:1025100003F021071B070A152121150A071B0721B4
:10252000D368013BD3605DF8044B7047937A03F0A6
:1025300003030029E6D043F00403E3E7D3685DF822
:10254000044B023BD3607047D3685DF8044B023301
:10255000D3607047D3685DF8044B0133D360704794
:10256000B4A30220002310B4114C41720261046034
:102570000372C36041B1194600E0026942F82310BA
:10258000427A01339A42F8DC0A4B1A680AB90CE025
:102590001A465369002BFBD15061002343618380AD
:1025A000C38083725DF8044B70471860F5E700BF85
:1025B0007C940100B4A40220F8B5044615460E46EA
:1025C000084602210EF086FF284602210EF082FF07
:1025D000984A994B52F83610012001F50077276090
:1025E000207252F83520607202F500770020676093
:1025F000E060013BFDD191F8003292F8002203F037
:102600000103D20744BF43F00203DBB2A3723B2EA7
:1026100000F20386DFE816F0F405EA05E005D605CA
:10262000CC05C205B805AE05A4059A05900586053A
:102630007C05720568055E0554054A0540053605AA
:102640002C05220518050E050405FA04F004E6041D
:10265000DC04D204C804BE04B304A8049D0492049C
:1026600087047C0428041E0414040A040004F603EE
:10267000EC03E203D803CE03C403BA03B003A603FA
:102680009C03920388037E0374036A0360033C0087
:102690006A4B6B49C3F8EC4004223B200EF072FEFB
:1026A000012323743B2D00F2B585DFE815F00B0301
:1026B0000103F702ED02E302D902CF02C502BB0219
:1026C000B102A7029D02930289027F023102270212
:1026D0001D0213020902FF01F501EB01E101D7011F
:1026E000CD01C301B901AF01A5019B019101860193
:1026F0007B01700165015A014F01440139012E012E
:10270000230118010D010201F700EC00E100B800FF
:10271000AD00A20097008C00810076006B00600085
:1027200055004A003C00454B4549C3F8EC400422A3
:102730003B200EF027FE237C012213442374204605
:10274000F8BD3E4B3F49C3F8E84004223A200EF062
:1027500019FE237C0122F0E7384B3B49C3F8E440E3
:10276000042239200EF00EFE237C0122E5E7334BD4
:102770003649C3F8E040042238200EF003FE237CE3
:102780000122DAE72D4B3249C3F8DC40042237201E
:102790000EF0F8FD237C0122CFE7284B2D49C3F82A
:1027A000D840042236200EF0EDFD237C0122C4E740
:1027B000224B2949C3F8D440042235200EF0E2FD13
:1027C000237C0122B9E71D4B2449C3F8D0400422E1
:1027D00034200EF0D7FD237C0122AEE7174B2049B1
:1027E000C3F8CC40042233200EF0CCFD237C012220
:1027F000A3E7124B1B49C3F8C840042232200EF055
:10280000C1FD237C012298E70C4B1749C3F8C44053
:10281000042231200EF0B6FD237C01228DE7074B08
:102820001249C3F8C040042230200EF0ABFD237CD7
:10283000012282E7A0D50100C0D40100B4A3022088
:10284000AD05000021050000950400009D1000006A
:1028500011100000850F0000F90E00006D0E000041
:10286000E10D0000550D0000C90C00003D0C0000FA
:10287000AC4BAD49C3F8BC4004222F200EF082FDC2
:10288000237C012259E7A74BA849C3F8B84004228A
:102890002E200EF077FD237C01224EE7A14BA449A8
:1028A000C3F8B44004222D200EF06CFD237C0122DD
:1028B00043E79C4B9F49C3F8B04004222C200EF004
:1028C00061FD237C012238E7964B9B49C3F8AC405D
:1028D00004222B200EF056FD237C01222DE7914B84
:1028E0009649C3F8A84004222A200EF04BFD237C11
:1028F000012222E78B4B9249C3F8A44004222920ED
:102900000EF040FD237C012217E7864B8D49C3F86A
:10291000A040042228200EF035FD237C01220CE784
:10292000804B8949C3F89C40042227200EF02AFDE1
:10293000237C012201E77B4B8449C3F898400422A1
:1029400026200EF01FFD237C0122F6E6754B804900
:10295000C3F89440042225200EF014FD237C0122AC
:10296000EBE6704B7B49C3F89040042224200EF024
:1029700009FD237C0122E0E66A4B7749C3F88C40CD
:10298000042223200EF0FEFC237C0122D5E6654BB9
:102990007249C3F88840042222200EF0F3FC237C05
:1029A0000122CAE65F4B6E49C3F88440042221200D
:1029B0000EF0E8FC237C0122BFE65A4B6949C3F8BC
:1029C0008040042220200EF0DDFC237C0122B4E6AE
:1029D000544B6549DC6704221F200EF0D3FC237C96
:1029E0000122AAE64F4B61499C6704221E200EF08B
:1029F000C9FC237C0122A0E64A4B5D495C670422A6
:102A00001D200EF0BFFC237C012296E6454B594960
:102A10001C6704221C200EF0B5FC237C01228CE6EE
:102A2000404B5549DC6604221B200EF0ABFC237C96
:102A3000012282E63B4B51499C6604221A200EF08B
:102A4000A1FC237C012278E6364B4D495C660422CA
:102A500019200EF097FC237C01226EE6314B494988
:102A60001C66042218200EF08DFC237C012264E6F3
:102A70002C4B4549DC65042217200EF083FC237C97
:102A800001225AE6274B41499C65042216200EF08C
:102A900079FC237C012250E6224B3D495C650422EF
:102AA00015200EF06FFC237C012246E61D4B3949B0
:102AB0001C65042214200EF065FC237C01223CE6F8
:102AC000184B3549DC64042213200EF05BFC237C98
:102AD000012232E6134B31499C64042212200EF08D
:102AE00051FC237C012228E60E4B2D495C64042214
:102AF00011200EF047FC237C01221EE6094B2949D8
:102B00001C64042210200EF03DFC237C012214E6FC
:102B1000044B2549DC6304220F200EF033FC237C98
:102B200001220AE6B4A30220B10B0000250B00002D
:102B3000990A00000D0A000081090000F508000054
:102B400069080000DD07000051070000C50600000D
:102B500039060000D92400004D240000C1230000E4
:102B600035230000A92200001D2200009121000051
:102B70000521000079200000ED1F0000611F00000A
:102B8000D51E0000491E0000BD1D0000311D0000C3
:102B9000A51C0000191C00008D1B0000011B00007B
:102BA000751A0000E91900005D190000B34BB44923
:102BB0009C6304220E200EF0E5FB237C0122BCE581
:102BC000AE4BB0495C6304220D200EF0DBFB237C8E
:102BD0000122B2E5A94BAC491C6304220C200EF083
:102BE000D1FB237C0122A8E5A44BA849DC62042286
:102BF0000B200EF0C7FB237C01229EE59F4BA449CE
:102C00009C6204220A200EF0BDFB237C012294E585
:102C10009A4BA0495C62042209200EF0B3FB237C8E
:102C200001228AE5954B9C491C62042208200EF083
:102C3000A9FB237C012280E5904B9849DC610422AA
:102C400007200EF09FFB237C012276E58B4B9449F5
:102C50009C61042206200EF095FB237C01226CE58A
:102C6000864B90495C61042205200EF08BFB237C8F
:102C7000012262E5814B8C491C61042210460EF052
:102C800081FB237C012258E57C4B8849DC600422CF
:102C900003200EF077FB237C01224EE5774B84491D
:102CA0009C60042202200EF06DFB237C012244E58F
:102CB000724B80495C60042201200EF063FB237C90
:102CC00001223AE56D4B7C491C60042200200EF085
:102CD00059FB237C012230E5684B7849C3F8E84072
:102CE00004223A200EF04EFB0123DAE4634B7449D0
:102CF000C3F8E440042239200EF044FB0123D0E461
:102D00005E4B7049C3F8E040042238200EF03AFBD5
:102D10000123C6E4594B6C49C3F8DC400422372038
:102D20000EF030FB0123BCE4544B6849C3F8D84093
:102D3000042236200EF026FB0123B2E44F4B6449F7
:102D4000C3F8D440042235200EF01CFB0123A8E474
:102D50004A4B6049C3F8D040042234200EF012FBE5
:102D600001239EE4454B5C49C3F8CC400422332048
:102D70000EF008FB012394E4404B5849C3F8C840C7
:102D8000042232200EF0FEFA01238AE43B4B544920
:102D9000C3F8C440042231200EF0F4FA012380E489
:102DA000364B5049C3F8C040042230200EF0EAFAF6
:102DB000012376E4314B4C49C3F8BC4004222F2058
:102DC0000EF0E0FA01236CE42C4B4849C3F8B840FC
:102DD00004222E200EF0D6FA012362E4274B444948
:102DE000C3F8B44004222D200EF0CCFA012358E49D
:102DF000224B4049C3F8B04004222C200EF0C2FA06
:102E000001234EE41D4B3C49C3F8AC4004222B2067
:102E10000EF0B8FA012344E4184B3849C3F8A8402F
:102E200004222A200EF0AEFA01233AE4134B34496F
:102E3000C3F8A440042229200EF0A4FA012330E4B0
:102E40000E4B3049C3F8A040042228200EF09AFA15
:102E5000012326E4094B2C49C3F89C400422272077
:102E60000EF090FA01231CE4044B2849C3F8984063
:102E7000042226200EF086FA012312E4B4A30220D5
:102E8000D118000045180000B91700002D170000E8
:102E9000A11600001516000089150000FD140000A1
:102EA00071140000E513000059130000CD1200005A
:102EB00041120000B5110000291100002105000099
:102EC000950400009D10000011100000850F000007
:102ED000F90E00006D0E0000E10D0000550D000020
:102EE000C90C00003D0C0000B10B0000250B0000D8
:102EF000990A00000D0A000081090000F508000091
:102F000069080000DD07000051070000C506000049
:102F1000C34BC449C3F89440042225200EF032FA72
:102F20000123FFF7BEBBBE4BBF49C3F8904004224C
:102F300024200EF027FA0123FFF7B3BBB84BBB499F
:102F4000C3F88C40042223200EF01CFA0123FFF763
:102F5000A8BBB34BB649C3F88840042222200EF028
:102F600011FA0123FFF79DBBAD4BB249C3F8844072
:102F7000042221200EF006FA0123FFF792BBA84B92
:102F8000AD49C3F88040042220200EF0FBF9012354
:102F9000FFF787BBA24BA949DC6704221F200EF074
:102FA000F1F90123FFF77DBB9D4BA5499C670422E6
:102FB0001E200EF0E7F90123FFF773BB984BA149E0
:102FC0005C6704221D200EF0DDF90123FFF769BBC9
:102FD000934B9D491C6704221C200EF0D3F901235A
:102FE000FFF75FBB8E4B9949DC6604221B200EF075
:102FF000C9F90123FFF755BB894B95499C6604220B
:103000001A200EF0BFF90123FFF74BBB844B914907
:103010005C66042219200EF0B5F90123FFF741BBCD
:103020007F4B8D491C66042218200EF0ABF901235A
:10303000FFF737BB7A4B8949DC65042217200EF075
:10304000A1F90123FFF72DBB754B85499C6504222F
:1030500016200EF097F90123FFF723BB704B81492F
:103060005C65042215200EF08DF90123FFF719BBD2
:103070006B4B7D491C65042214200EF083F901235B
:10308000FFF70FBB664B7949DC64042213200EF076
:1030900079F90123FFF705BB614B75499C64042254
:1030A00012200EF06FF90123FFF7FBBA5C4B714958
:1030B0005C64042211200EF065F90123FFF7F1BAD8
:1030C000574B6D491C64042210200EF05BF901235C
:1030D000FFF7E7BA524B6949DC6304220F200EF078
:1030E00051F90123FFF7DDBA4D4B65499C6304227A
:1030F0000E200EF047F90123FFF7D3BA484B614980
:103100005C6304220D200EF03DF90123FFF7C9BADC
:10311000434B5D491C6304220C200EF033F901235C
:10312000FFF7BFBA3E4B5949DC6204220B200EF078
:1031300029F90123FFF7B5BA394B55499C6204229E
:103140000A200EF01FF90123FFF7ABBA344B5149A7
:103150005C62042209200EF015F90123FFF7A1BAE1
:103160002F4B4D491C62042208200EF00BF901235D
:10317000FFF797BA2A4B4949DC61042207200EF079
:1031800001F90123FFF78DBA254B45499C610422C3
:1031900006200EF0F7F80123FFF783BA204B4149D0
:1031A0005C61042205200EF0EDF80123FFF779BAE7
:1031B0001B4B3D491C61042210460EF0E3F801232D
:1031C000FFF76FBA164B3949DC60042203200EF07A
:1031D000D9F80123FFF765BA114B35499C600422E9
:1031E00002200EF0CFF80123FFF75BBA0C4B3149F8
:1031F0005C60042201200EF0C5F80123FFF751BAEC
:10320000074B2D491C60042200200EF0BBF801235F
:10321000FFF747BA0022FFF790BA0023FFF741BA41
:10322000B4A3022039060000D92400004D24000078
:10323000C123000035230000A92200001D22000048
:10324000912100000521000079200000ED1F000001
:10325000611F0000D51E0000491E0000BD1D0000BA
:10326000311D0000A51C0000191C00008D1B000072
:10327000011B0000751A0000E91900005D1900002B
:10328000D118000045180000B91700002D170000E4
:10329000A11600001516000089150000FD1400009D
:1032A00071140000E513000059130000CD12000056
:1032B00041120000B51100002911000010B592B0B4
:1032C000014601A80DF0B2FB0023322201A805A996
:1032D0000DF0C0FB05A905480DF014F8044601A83F
:1032E0000DF064FBA0B212B010BD00BFF49300203B
:1032F00010B5A2B044221749044668460DF09AFE64
:1033000044220DEB020014490DF094FEADF10402CD
:10331000002352F8041FA14204D00133112BF8D12D
:1033200022B010BD0D490A68002AFCDB22AA02EB7C
:1033300083030B4913F8442C33F8423C013A12033F
:10334000013B02F47F22C3F30B0313430B6022B053
:1033500010BD00BF80940100C494010000F1024040
:1033600004F102402DE9F04F2DED028BDFF8ECA0C7
:10337000364BDFED378A9FED378A85B0D34603930E
:103380004FF00009039B5BF8045F33F9022F0393AE
:1033900007EE902A07EE105AFAEEEF7AB8EEC77AE7
:1033A000FDEEE77A27EE287AF8EEE76A17EE904A04
:1033B000A6EE887A1FFA89F606F104084FF4FC603D
:1033C000BDEEC77A0FFA88F817EE107ABE2FD4BF79
:1033D00027EAE777BE27BE2CA8BFBE2423B25A2215
:1033E000A4B2414600901C480BF03CF9C4F1BE0366
:1033F00004F15A02002441461BB212B2164800944E
:1034000005360BF02FF936B24FF44873314600936E
:103410005A222BB21048ADB20BF024F9C5F1BE030D
:1034200005F15A0209F10209009431461BB212B2A9
:1034300009480BF017F9B9F1FC0F4AF8047FA1D144
:1034400005B0BDEC028BBDE8F08F00BFA68C00205C
:103450003333733FCDCC4C3DF4930020F4830020F4
:1034600070B5364C364A374990B0002508A801237C
:10347000256002F01BFF10AA33480A9B12F8145D66
:103480009DF8241083600573017100F10D031A305B
:1034900012F8011F03F8011B83422B49F8D10F9B3F
:1034A000CB6108A802F02AFE284E05E008A802F029
:1034B0003BFE08A802F022FE0122234908A802F0E0
:1034C00069FF08A802F03EFE40F2E63310B9226818
:1034D0009A422DDD08A802F015FE0028E6D108A8C2
:1034E00002F00EFE014668460DF0A0FA184904A845
:1034F0000DF09CFA04A968460DF0C6FA054604A82A
:103500000DF054FA1DB968460DF050FACEE7236865
:1035100003EB430503EB850308A8F51802F0F0FD63
:103520000146284612F0E4FA236801332360EAE7F3
:1035300008A802F0E3FD10B070BD00BF1497002092
:10354000B0950100449C0220249C022034510020AC
:10355000B495010008B505490122002008F09CF946
:10356000FE210348BDE8084002F0F4BDBC9501000F
:10357000449C022038B5064D0648074C29460122D6
:1035800008F08AF92070284608F05CFD207038BDEC
:10359000BC9501003C4C0020001C0220F8B5214DD8
:1035A0002B6833B9204E326840F2E6339A420DDD83
:1035B000F8BD1E481C4E08F033FD1D4A0023107054
:1035C00032682B6040F2E6339A42F1DC194B1A491B
:1035D0001B681A48164F541C2246346012F0FAF940
:1035E0000021164808F042FD0A22387013490F489E
:1035F00008F07CF90228387008D00A220F490B48DD
:1036000008F074F9012338702B60F8BD074808F002
:1036100007FD09283870F0D1084808F04DFD3870D2
:10362000EBE700BFD89800201497002020940020DA
:10363000001C0220DC980020C09501001897002093
:103640002DE9F843064605F0E5FD01282CDDDFF8FD
:103650006490DFF858800025D8F80000134F05EB80
:103660004004304605F008FE09EB042401464FF4FF
:10367000807220460DF0DEFC0135304605F01AFE62
:10368000022DE9D13B680133BF2B02D83B60BDE876
:10369000F8830022064B3A60064907484FF4C032CF
:1036A00008F0A0FA054B1870BDE8F88318940020C4
:1036B0009C4E00204099002020940020001C0220F5
:1036C000134A38B500230446124D80F8F6301370C3
:1036D0000CE005F0D1FD104B01464FF480720F480D
:1036E00008F080FA2870204605F0E4FD204605F039
:1036F00091FD00282046ECDC084808F091FC084BBE
:10370000287000221A60BDE83840FFF7A9BE00BF4C
:10371000244F0020001C02209C4E002020940020FA
:10372000D898002008B50648FFF7CAFF00210548D1
:103730000BF0E0FA044B4FF480329A6108BD00BFF1
:10374000AC970020F4930020BC4E00202DE9F041FE
:103750008CB00DF1030600250746B0462C462846DE
:103760000DF018FC08F8010F4440082314F0010F75
:103770004FEA540203F1FF3314BF82F08C04C4F308
:10378000470413F0FF03F1D101352B2DE7D1F4B934
:103790009DF82B30312B03D020460CB0BDE8F081D2
:1037A0009DF82A30302BF7D19DF82930302BF3D1FA
:1037B0009DF82830302BEFD1013F0DF12F0316F883
:1037C000012F07F8012F9E42F9D10120E5E71846A5
:1037D0000CB0BDE8F08100BFF8B50025471E2C46AF
:1037E00017F8016F0823744014F0010F4FEA5402D8
:1037F00003F1FF3314BF82F08C04C4F3470413F0C9
:10380000FF03F1D128460DF0C5FB864209D03146B1
:1038100028460DF0D9FB28460DF0BCFB3B788342CF
:103820000FD101352A2DDBD10026214628460DF087
:10383000CBFB28460DF0AEFB84420CBF3046012086
:10384000F8BD0126F1E700BFF0B58DB001A8FFF784
:103850007DFF98B11C49099A1C4BBDF806709DF874
:1038600028609DF829509DF82A400F80012A9DF874
:103870002B101E705D709C70D97001D00DB0F0BD22
:10388000134C1449049F144D144B27600A60059F84
:10389000029A134E2F601A60124C039A124F326034
:1038A0009DF820609DF821202670104D1049114B85
:1038B000079E9DF819403A709DF818202E600C70F4
:1038C0001A700DB0F0BD00BF208C0020388C002095
:1038D000203E0020C09800206C3E0020AC960020C6
:1038E000703E00205D3E00207C3E0020783E00209F
:1038F000743E0020183E0020F0B522492248234A99
:1039000009680068224B234D1B88234C2E68234FE7
:103910002568234C97F800E094F800C08FB001337D
:103920000490069192E80300C0F307228DF830005E
:103930008DF83120C0F30742000E8DF832208DF84B
:103940003300ADF80E301748174B1849184A07785E
:103950000968126807960B951E78059100235D256E
:1039600003A88DF829C08DF828E009928DF8217000
:103970008DF820608DF80C50ADF83430FFF72CFF37
:103980000FB0F0BD203E0020AC960020CC95010089
:10399000208C00206C3E0020C09800205D3E00205E
:1039A0007C3E0020743E0020183E0020703E002027
:1039B000783E0020F8B55C4E34685CB1032C5B4D5A
:1039C00028D0022C3CD0012C60D0042C7DD00023C8
:1039D0002B62F8BD5648554D564F04F077FF564AB6
:1039E000564B11681A68EC6191424FF48033AB6119
:1039F00004BFEB61AC61524B34685248524A00211B
:103A00001960032C4FF001034FF002013B6003608B
:103A10001160D6D14FF480414548464F04F03AFF3B
:103A2000474B34684848474900221A60AA6101237D
:103A30004FF48032022C3B6003600B60EA61C2D11C
:103A40004FF480413A4804F00FFF404BDFED406AED
:103A500093F9003007EE903AF8EEE77AB7EE006A95
:103A600086EE277A4FF480320023EA61AB61B4EE30
:103A7000E67AF1EE10FA3BD4F2EE007AB4EEE77A91
:103A8000F1EE10FA44DD4FF4002333E02848274CD0
:103A90002B4F04F01BFF284A284B116818684FF47D
:103AA000803288424FF00003EB61AA6108BFE261F7
:103AB00020482549234A08BFA361012334680360D5
:103AC00000263E600B6013607FE719481C4F194EBB
:103AD0001D4C04F0FBFE1B48002201234FF48031F3
:103AE0003A60EA61AA613360236003602962F8BD2D
:103AF00040F28F230E4F124C0E481349114A3B627D
:103B0000012300272760036034680B6013605AE7C5
:103B1000DFED106ADFED107AE7EE267AFCEEE77A49
:103B200017EE903AE6E700BFAC96002070970020B1
:103B3000CC960020689700200C4F0020243E0020E7
:103B4000BC980020D8930020A04E00205D3E0020AD
:103B50000AD7233C00008047EE7CFF3E2DE9F04F62
:103B60009F49A048DFF8B0928BB00CF05FFF9E4AEF
:103B70009E499C480FF04AFE1C211B2227238DE8FA
:103B80000E009B48FF23142215210AF00BFC322261
:103B90002521984809F0F8FC32222421964809F0A2
:103BA000F3FC232222219548FEF706FD322226212E
:103BB000934809F0E9FC32221D21924809F0E4FC07
:103BC0001F221E219048FEF7F7FC904B1A68904B7D
:103BD000C9F80030002389F80930C9F8103089F895
:103BE0000830C9F80C300AB9B1E21A465369002B03
:103BF000FBD1C2F814900024DFF870B2854B8648E0
:103C0000C9F81440A9F80440A9F8064089F80A4008
:103C1000C9F8003004F04CFF0BF11802012158469E
:103C2000FEF7A0FC7D4B7E488BF8F44022462146EF
:103C30008BF8F540CBF8F0408BF8F640CBF800302D
:103C4000FEF790FC764A774B1360774A744E774DB7
:103C500018324FF48043A2F1180002213362FEF7BC
:103C600081FC714A724B1360012005F22472684E88
:103C70002C7223462146EC602E6068722A612C4625
:103C800000E0226942F823106A7A684801339A42B8
:103C9000F7DC5E4B1A680AB95DE21A465369002BDD
:103CA000FBD15561002463492960224601234FF46A
:103CB0008071614E61486C61AC80EC80AC7285F8BB
:103CC000214785F82247C5F818610FF0C3FC4F4B18
:103CD000DFF874811A684E49C5F81C41082385F83D
:103CE000203788F80940C8F80010C8F8104088F854
:103CF0000840C8F80C40454B0AB92EE21A465369F1
:103D0000002BFBD1C2F814804FF0000A4C4B4D48F9
:103D1000C8F814A0A8F804A0A8F806A088F80AA07B
:103D2000C8F8003002F0DCF94748484C484F494E8B
:103D300005F06CF92C4A484943480FF067FD474BA2
:103D4000012103F118021846FEF70CFC434A444BCC
:103D50001360444B042103F128021846FEF702FCCD
:103D6000414B03F1280218463E4B04211C604FF4DE
:103D700080349C61DC611C625C62FEF7F3FB3A4BB1
:103D8000324C1C6007F128024FF48034042138467D
:103D90009C61DC611C625C62FEF7E4FB2B49BC6148
:103DA000022006F11802FC613C627C62184C39600A
:103DB00034605346514686F808A0C6F80CA07072CD
:103DC0003261344600E0226942F82310727A2148B9
:103DD00001339A42F7DC0D4B1A68002A49D1BFE142
:103DE000D4950100884E00200C3E0020AD09010052
:103DF000F4930020DC93002054190220B496002094
:103E0000A84E002028990020104F0020B4A40220C2
:103E10007C940100E09B0100E4980020109C0100CC
:103E2000688C00201C9C0100D81902208C8C00207A
:103E3000D49B0100A0990100C0990100B493002017
:103E4000049C01008019022068190220EC9B0100EB
:103E500074960020041C022071040000CC960020FF
:103E6000C89B0100BC4E002070970020AC9700203A
:103E70001A465369002BFBD156610024B94ABA4B4C
:103E80007461B480F480B472B8483260059305F070
:103E900047F8059BDFF82CA31C721846C3F8009066
:103EA0005F605C72DC601C740CF0AEFB059BB04A7A
:103EB000B04918460FF0AAFCAF4B059350468AE86C
:103EC000000A8AF808408AF80940CAF80C408AF8C3
:103ED00010400CF099FBA64AA649DFF8ECB2504618
:103EE0000FF094FC059BDFF8E4A21C724FF001096F
:103EF0001846C3F800805F60DC601C7483F809908A
:103F00000CF082FB059B9A4A9A49DFF8C482184656
:103F10000FF07CFC994BCBF8043058468BF80840E6
:103F2000CBF800708BF80940CBF80C408BF81040B0
:103F30000CF06AFB8E4A8F4958460FF067FC904B95
:103F4000CAF8043050468AF80840CAF800708AF867
:103F50000940CAF80C408AF810400CF055FB844A1E
:103F60008449DFF870B250460FF050FC834B88F85C
:103F70000840404688E8280088F80940C8F80C4006
:103F800088F810400CF040FB794A7A497D4B059344
:103F900040460FF03BFC7C4BDFF83CA2CBF80430F2
:103FA00058468BF80840CBF800708BF80940CBF8E6
:103FB0000C408BF810400CF027FB6D4A6D49DFF880
:103FC0001C82724D58460FF021FC714BCAF800302C
:103FD00050466D4BCAF804308AF808408AF80990B8
:103FE000CAF80C408AF810400CF00EFB6149604A98
:103FF000DFF8ECB150460FF009FC059B604A1A60EF
:104000001846644A1C725A6083F80990DC601C747C
:104010000CF0FAFA059B564A5649DFF8C8A1184633
:104020000FF0F4FB584BC8F800304046594BC8F825
:10403000043088F8084088F80940C8F80C4088F82F
:1040400010400CF0E1FA4B49494A40460FF0DEFBC4
:10405000022328464F4A6B722C722F606A60EC6014
:104060002C740CF0D1FA424A4249DFF87C814A4F65
:1040700028460FF0CBFB474B8BF8084058468BE89F
:1040800048008BF80940CBF80C408BF810400CF03E
:10409000BBFA374A3749414D58460FF0B7FB3D4B05
:1040A0008AF8099050468AE848008AF80840CAF819
:1040B0000C408AF810400CF0A7FA50462C4A2D49C3
:1040C000DFF828A1364CDFF828910FF09FFB354927
:1040D000354B0A680792DDF81CB00A6808921A6826
:1040E000089B0968DFF80CE109911E462F4B0999DE
:1040F000DFF804C1CEF8002002EB420003EB80039E
:104100002B4A2D68CAF800B0A1F57A71D3F808B02F
:10411000D3F804A0C8F80060264B2748CCF800105C
:104120004FF00A082360C2F800A0C7F800B0C9F831
:10413000005084F8088001F0D3FF0D4A1F491E4843
:104140000FF064FB0CF0DAFE0BB0BDE8F08F1C4BF7
:10415000C3F800904FE51860A4E5C3F80080D3E5EC
:1041600018608AE6F89B0100408C0020041C0220A5
:104170000C3E002089040000548C0020BC4E00201E
:10418000CC96002040190220D8190220088C00206B
:10419000688C002070970020A8970020783E0020AF
:1041A000284F002044A502206C3E00200895010005
:1041B000DC980020AC990100249C0220FD600000E6
:1041C000B4A40220A4980020AC190220C019022037
:1041D00014990020F44E002000990020C49800207B
:1041E000248C0020C4930020F48B0020FC1B0220B0
:1041F000F08B0020EC930020B09600202DE9F04FCA
:104200002DED028BCA4CCB4ECB4D95B020464FF6D0
:10421000E0710CF0F9F84FF40041282300220191DD
:1042200000932046F0231146A5610AF0A5FB3368F0
:10423000012B00F08782022B00F0918214224FF4B0
:1042400000438DE80C000021F0234FF48C72B84835
:10425000DFF838A30AF090FB28224FF448738DE86A
:104260000C000021F0234FF49672B1480AF084FB51
:1042700000221146AE480CF0ABF80122AF49AC4821
:104280000CF002FB9AF90010A9480CF087FB326889
:10429000022A00F06E82DFF8F892A949A448A94FDB
:1042A00002220CF0F1FA99F90010A1480CF076FB0B
:1042B0000222A5499E480CF0E7FAA44B1C68204650
:1042C00011F09EFC2146024699480CF0DDFA1422BA
:1042D000002197480CF07CF83B68042B00F2268202
:1042E000DFE813F01F01600166016C010500042284
:1042F00097498F480CF0C8FA964BDFF898821968F6
:10430000954C0BA809F0A6F91422B42188480CF0AA
:104310005FF80C9A0D9B00920921904A05A811F0B4
:104320000BFB05A811F06CFC05A9024680480CF0B7
:10433000ABFA00214FF48C727D480CF049F8D8F8A4
:1043400000307B48012B0CBF4DF29A614FF6E071B3
:104350000CF05AF823680A2B04D1D8F80020012A5F
:1043600000F069827E4D55F823B0584611F048FCA4
:10437000594602466E480CF087FA012279496C488A
:104380000CF082FA4FF6FF716948DFF8CCB10CF0FF
:104390003BF82368012B00F0FC81022B00F0148114
:1043A000002B00F01A81092B00F02081082B00F06F
:1043B0002781032B00F02E810C2B00F04081052B70
:1043C00000F04781684BDFF8D0911B685848012BFB
:1043D0000CBF4DF29A614FF6E0710CF015F8D9F868
:1043E000003055F82300FEF769FFC0F1F00109B273
:1043F0004FF48C724E480BF0EBFFD9F8003055F8B3
:104400002350284611F0FCFB2946024648480CF090
:104410003BFA4FF49672002145480BF0D9FF4FF656
:10442000E07143480BF0F0FF2368062B00F0428157
:104430004E4C2378002B00F05981012B00F05F8156
:10444000022B4B4C00F069814FF6E07138480BF0BD
:10445000DBFF484B227848491C78484B052C0CBFA1
:104460001C460C46002A00F0FE803368002B40F307
:104470001281DFF828A1424DDAF80020DFF820B1E0
:104480009FED407ADBF80010002A1346B8BF02F116
:10449000FF031B1207EE903A91FBF3F185FB020537
:1044A000D217FAEEEF7AC2EB6535012D87EE278A37
:1044B0004FEA41091EDD01244FF6E078CDF8008077
:1044C000052355221A4807EE904AF8EEE77A0134A0
:1044D00067EE887AFDEEE77ACDED037ABDF90C1030
:1044E0000AF0C0F8A542E9D1DAF80030002BB8BFD5
:1044F000FF331B123A68022A00F07B814FF6E0730B
:104500000093572203230FFA89F109480BF0BAFAF6
:104510003368012B00F04C8115B0BDEC028BBDE877
:10452000F08F0222184902480CF0AEF9E4E600BF11
:10453000F4930020703E002060D40100F495010047
:10454000FC950100AC96002000960100DC9800204C
:104550001C96010000D00340BC9800202C9601005E
:10456000283E002038960100D8930020B84E002045
:10457000641902205C3E0020E4950100EC950100E6
:10458000AD8BDB6800401C4604960100183E0020FD
:10459000743E002068970020A04E0020A8970020BD
:1045A000783E00200722BA49BA480CF06DF9A3E61C
:1045B0000722B949B7480CF067F99DE60222B749CE
:1045C000B4480CF061F997E6B54BB24819680CF0A5
:1045D000E5F92368002B7FF4E6AE99F90010AD48A9
:1045E0000CF0DCF92368092B7FF4E0AEAD4BA94851
:1045F00093F900100CF0D2F92368082B7FF4D9AEA0
:10460000A94BA44893F900100CF0C8F92368032BB8
:104610007FF4D2AEA54BA64A1B6803EB430302EB23
:104620008303D3F80490484611F0EAFA494602465B
:1046300098480CF029F923680C2B7FF4C0AE9D4BF1
:10464000944893F900100CF0A9F92368052B7FF426
:10465000B9AE994B1B68002B6ED1072297498D4844
:104660000CF012F9AEE621468A480BF04BFEC0F181
:10467000EB0109B24FF4967286480BF0A9FE204672
:1046800011F0BEFA2146024682480CF0FDF833686C
:10469000002B3FF7EEAE552200217E480BF098FE2E
:1046A000102287497B480CF0EFF815B0BDEC028B67
:1046B000BDE8F08FD8F80030012B7FF4B9AE814C03
:1046C00074484FF6FF710BF09FFE2378002B00F02B
:1046D000D080012B00F0D480022B7B4C7FF4B4AE51
:1046E0007A496C4804220CF0CFF8ADE607227849ED
:1046F00068480CF0C9F82378012B7FF4A1AE754B04
:104700001B78002B4DD00622734962480CF0BCF890
:1047100023786D4C022B7FF497AE2378002BDFD0EB
:1047200004226E495B480CF0AFF88DE605226C4917
:1047300058480CF0A9F8DFE504226A4955480CF006
:10474000A3F83FE600211E2300932046F0230191A9
:104750003C220AF011F93368022B7FF46FAD00217F
:10476000062300930191F02354224A480AF004F9E9
:1047700064E55D4947480CF087F8494B5B491B6885
:10478000444881FB0321DB17C3EBA1110CF006F9B0
:1047900081E59AF900103F480CF000F9DBF8003091
:1047A000FBE5072252493B480CF06EF8237847E6B8
:1047B000DBF800104D4B4F4A83FB0103C917C1EBD7
:1047C000A31308A8092111F0B7F8A9F10A0109B249
:1047D0003C2230480BF0FCFD08A811F011FA08A9A2
:1047E00002462C480CF050F815B0BDEC028BBDE829
:1047F000F08F2C4A404D92F9001095FBF3F54FF4E1
:104800007A7202FB01F292FBF3F3ED1A6D005B008A
:104810001CB22DB24FF6FF772B462146009755224A
:104820001C4809F02FFF2B462146009759221948B2
:1048300009F028FF62E6314B314A1B68314D03EB2A
:10484000430B03EB8B0302EB030B58462E2111F0B5
:10485000E7F8CBEB0002594601322B4811F0A6F9DC
:10486000294811F0CDF9284902460A480CF00CF805
:1048700088E50722164907480CF006F8237828E750
:104880000722224903480BF0FFFF237824E700BFEB
:104890000C960100F4930020149601000896010084
:1048A000783E00207C3E00205D3E00206C3E0020D3
:1048B00008950100103E0020C09800203C960100A1
:1048C00084960100F81B0220641902205C96010006
:1048D0004C960100244F002064960100749601005C
:1048E0002496010044960100F8950100D34D621012
:1048F0006C9601007C96010080380100D4190220DA
:1049000034510020283E0020F88B002054960100EE
:10491000074B10B5012401461C60064803F01EFD3C
:10492000054B1C60FFF76AFC044B00221A6010BDA7
:1049300088E100E0284F002008E100E0F09300202B
:10494000274B9FED286A93ED007ADFED276AB8EEDA
:10495000C77A07EE900AC6EE075AF8EEE77A67EED6
:10496000A57AF4EEE67AF1EE10FA19DC1F4A204B34
:10497000C2ED007AF5EEC07A0122F1EE10FA1A606B
:104980002BD49FED1C7AF4EEC77AF1EE10FA1BDD02
:10499000194B1A491A4A01200860D361FFF72EBC4F
:1049A000C7EE065A114B1748114A0121F2EE027A5E
:1049B000E5EEA67AC3ED006AFDEEE77A17EE903ACF
:1049C000F0EE667A036011609FED0F7A67EE877AEA
:1049D000FCEEE77A17EE903ADBE70023D9E700BF59
:1049E000A8970020A6552C4700E0AB461C3E0020AF
:1049F00088E100E0A655AC4680FFFF7F08E100E0BB
:104A0000688C0020783E00204B24BE472DE9F04FF3
:104A10002DED048BB34AB44B92F900201B689FED37
:104A2000B36ADFEDB36A07EE102A002BB8BFFF337D
:104A3000F8EEC77A1B1227EE867A07EE903AF8EE68
:104A4000E77AADF5077D87EE278A0EAC4FF4F0725A
:104A500020460021C6EEA78A10F012FDA54B1A6869
:104A60000132012A03921A60BDEEC88AFDEEE88A7F
:104A700000F01881039B632B40F21C81DFF8C08299
:104A8000DFF8B8929FED9C6A0026C446B346B6464E
:104A900027464FF4807A0225F2EE046A0FE0042ADA
:104AA000D8BF4FF4006323DC0135782D24F816308D
:104AB00007F1040727F8023C06F102062CD03CF867
:104AC000023FB9EC017A03EB83035B0007EE903AF7
:104AD000F8EEE77AE7EE467A77EEA67AFDEEE77A29
:104AE00017EE902A52459644D9DD17EE90AAAB46B0
:104AF0005300FF2BA8BFFF23B2F5407FC0F2D08246
:104B0000B2F5106FC0F296821B0203F478436FEA8D
:104B1000D3236FEAC323C7E7784B9FED797A83FBF2
:104B20000E234FEAEE7ECEEB23139AFBF3F307EE50
:104B3000903AF8EEE77A18EE103AF4EE477AF1EE92
:104B400010FA48BF4FF0000B5B4504DA18EE903ABC
:104B50005B4500F3FB806B4B1D68012D4FF0000A95
:104B600000F02081022D00F02B8118EE103A5B45F9
:104B7000654D4EDA18EE903A5B454ADD2B78002BF6
:104B800040F0FC81614EDFF8C08133680D93604BCB
:104B90000D9A1A60D8F80030012B00F0E6815D4EC6
:104BA000022B337840F0EC81002B00F0E9815A4869
:104BB00003F08CFE4FF48041574803F055FE574BED
:104BC000DFED576A93F9003007EE903AF8EEE77A96
:104BD000B7EE006A86EE277AB4EEE67AF1EE10FAC6
:104BE00000F11882F2EE007AB4EEE77AF1EE10FAF4
:104BF00000F31382DFED4B6ADFED4B7AE7EE267AA6
:104C0000FCEEE77A17EE902A434900230A623370DC
:104C1000B6E12B786BB13D4A3D4913680993099B76
:104C2000096812680A924148414A0A9E06605B1A66
:104C30001380384E002233782A7043B9334A3449FE
:104C4000126808920968089A521A322A09D82D4B1C
:104C50001B68022B0FD00DF5077DBDEC048BBDE862
:104C6000F08F2D4A2B70012382F842303370254B90
:104C70001B68022BEFD1254B2C4A1B680793126847
:104C8000079B2C4D9B1A312B40F28D812B68B3F57D
:104C90008C7FE0DB5A232B600DF5077DBDEC048B88
:104CA000BDE8F08F244B002103F5007243F8041B8C
:104CB0009A42FBD1214A2249DFED226A02F5FC70BB
:104CC00031F8023F92ED007A03EB83035B0007EEBD
:104CD000903AF8EEE77AA7EEA67AA2EC017A824241
:104CE000EED1CBE67C3E0020A897002000007A445D
:104CF00000409C47E09800206666663FBF3CB622B5
:104D00006666863F703E0020C896002044A50220BB
:104D1000FC1B02206B3E0020CC9600205D3E002054
:104D20000AD7233C00008047EE7CFF3EF48B002036
:104D3000264F0020143E0020344F00203C4F00201E
:104D4000A68C00206F12833AAC960020C14BC24A59
:104D500002930021D3ED006A8A46022338F8020F3D
:104D600092ED007A07EE900AF8EEE77A77EE877A0E
:104D7000F4EEE67AF1EE10FAE2EC017A03DDF0EE01
:104D8000676A9A4601210133782BE7D1002940F068
:104D90009E81B24A138801331380B14B1D68012DE7
:104DA0007FF4E0AEAF4B1B68022B00F0EE80039B5C
:104DB000DB073FF5DAAEFEF7D5FAA94B1D68D1E661
:104DC000A64E3388322B7FF6D0AE00202D230190E3
:104DD00000930146F02330802822A34809F0CCFD3F
:104DE0009C4BBAF1000F00F0F0801A4692ED007A69
:104DF00002939E4BDFED9E5AF7EE007A03EB8A0397
:104E000077EE277A1A1D514632ED016AC6EE276AFF
:104E1000F4EEE56AF1EE10FA02DD01390229F3D170
:104E2000DFED935A03915246B3EC016AC6EE276A4E
:104E3000F4EEE56AF1EE10FA40F3A5800132782A2B
:104E4000F2D100230493DFF81092DFED8A9A9FEDF0
:104E50008A9ACDF814B00026022702E0029B93ED57
:104E6000007AD9ED006A8048C6EE877A4FF478431D
:104E70000FFA86FB0093594667EEA97AFDEEE77AB2
:104E800017EE905AC5F155080FFA88F82DB2424630
:104E90002B4609F0E7FBBA4507F1010700F0C08097
:104EA0000236782FB6B2A9EC019AD7D1734B029D86
:104EB0001B6895ED007A9FED729A6B48DDF814B08F
:104EC000002BB8BFFF331B1207EE903AF6EE006AD4
:104ED00027EE267AF8EEE77A2D22822185ED007AF8
:104EE00027EE899A0BF074FA4DF29A615E480BF046
:104EF0008BFADDED037A5C48F8EEE77A67EE897AA3
:104F0000FDEEE77A17EE901A0BF048FD01225D499D
:104F100055480BF0B9FC4FF6E07153480BF074FAAA
:104F200007EE90AAF8EEE77A4F4867EE897AFDEE31
:104F3000E77A17EE901A0BF031FD012251494A48E9
:104F40000BF0A2FC4DF29A6147480BF05DFADDEDE3
:104F5000047A4548F8EEE77A67EE897AFDEEE77A5B
:104F600017EE901A0BF01AFDFFE53368464F0C93CD
:104F70000C9A3B68D31AB3F57A7F2DD8434E337819
:104F800001222A7059E604925DE7344A404B1288A8
:104F9000A3FB02139B0803EB8303D31A9BB2002BE2
:104FA0007FF4E3AD07E701940123B5F900202E4813
:104FB00000930021F0230AF075F929882A480AF0A5
:104FC000CFF82B6801332B6061E60293039593EDD4
:104FD000007ACDF810A036E7284B2E4A1B68002B2C
:104FE000B8BFFF331B120BFB03F382FB0312DB176B
:104FF000C3EB62134FF4FA7202FB03F3264A18461E
:105000001360FFF79DFC33680B930B9AD8F80030C0
:105010003A60C4E540F28F22F6E54FF40022F3E552
:105020004FF6E07000902B46424659460E4809F074
:1050300019FB35E7194981FB0210D217C2EB600258
:105040001B02D21003F4784342F4FC6213439BB278
:105050002AE500BFF0930020001A0220A44E002091
:10506000703E0020AC960020F4930020F819022036
:10507000CDCCCC3D0000344200000000A8970020B9
:105080006F12833A38960100B09600206B3E0020E4
:10509000CDCCCCCCD34D6210783E0020398EE33895
:1050A0000D491B0202930D4B81FB0210D117401AD0
:1050B00083FB0232029BC00003F4784300F4FC60DF
:1050C000C1EB62020343C2F3C4021343ECE4029B4C
:1050D000C3ED006A5DE600BF56555555398EE3387D
:1050E00038B5104B1049114A114D00EB400003EB4D
:1050F0008003012498685B680B6028601460FEF7E9
:10510000F7F8C8200CF0ECF90A4B1868FFF718FC08
:10511000094B14201C600CF0E3F9BDE83840FFF7A0
:105120006DB800BF08950100DC98002088E100E020
:10513000A8970020783E002008E100E01F4B204A9D
:105140001B6801210B2B10B50446117026D064207A
:105150000CF0C6F90D2C2046A8BF0D2020EAE07007
:10516000FFF7BEFF174C184B1A682368002B02F19B
:10517000FF3220DB9342A8BF134603EB43021349DF
:10518000236003EB8203194411480D2210F0A6FDA1
:105190000F491048BDE8104003F066BF0E4A0F4BA0
:1051A00010684FF480310022022899611A6204BF0E
:1051B000D9619A61CBE70023DFE700BFBC980020EC
:1051C00064190220D41902201497002034510020C1
:1051D0001897002068190220AC96002070970020D4
:1051E00038B50B4C23782BB10A4890F8403003F0C7
:1051F000FF0503B138BD03F00FFF074B25701B7887
:10520000002BF7D0054B1868BDE83840FFF796BF74
:10521000641902206819022070960020203E0020A8
:105220002DE9F04196B0A8B9A44AA549A54B12684A
:105230000D681B680D21C2B9EB1848BF01F1FF339F
:105240008B426DDB0023002875D19E4A136016B097
:10525000BDE8F0810128FAD19B4A9C499C4B126819
:105260000D681B680421002AE6D0012AEFD1002D29
:10527000EDD00446002B65D196490A782A4452B2F3
:10528000002AC0F2F9805A2A1346A8BF5A2307EE13
:10529000903A9FED916ADFED916AB8EEE77ADFED23
:1052A000907A27EE067AE7EE267AFCEEE77ACDEDE5
:1052B000037A8C4A0B700126166003998A4803F022
:1052C000BDF88A4B1E60DFF8FC81D8F80030072B50
:1052D0005BD0052B48D00A2BB9D1784B1B68012B2A
:1052E00000F0B8807A4B1B68032BB0D1764B1B685B
:1052F000012BACD17E4B1B78022BA8D17D4C734B7C
:1053000022681B681344052BA8BF052323EAE37317
:1053100018462360FFF7E4FE774B22681A6096E791
:10532000764A1278002A8ED1A3F10A02012A98BF88
:105330000023002889D0012889D1654A136016B05E
:10534000BDE8F081032B75D16A4E33682B440D2BD9
:10535000A8BF0D2323EAE37318463360FFF7C0FEAE
:10536000674B32681A60AEE7544B1B68012B7FF421
:105370006EAF534B63491A680868634B024413408D
:10538000002BC0F283800B6061E7002C7FF45FAFDD
:105390005E4F5F4E3B680693069B32689B1AB3F5DF
:1053A000FA7F08D2F92B76D8632B8BBF0A23C5EB83
:1053B00005135D439D0008F081FB08A9284408F00F
:1053C00027FA08A808F0FCFA0CF05EF8514C08A87F
:1053D00008F0F6FA08F0C2FB2046322250210AF00B
:1053E000F7FF002214232046019200933222A023CB
:1053F000502109F0C1FA484A484B1168A3610DA831
:1054000008F028F90DA90EC90AA8019100920921F6
:10541000434A10F091FA0AA810F0F2FB0AA90246DA
:1054200020460BF031FA3B680793079AD8F8003012
:1054300032604EE7082B31D13A4A13782B445BB2E5
:10544000042B04DD1E2BA8BF1E2313703BE705238E
:10545000137038E734491A4A0B6812689B180DD448
:10546000324A1268934202F1FF3200DB002393427A
:10547000A8BF13460B6035E703931AE72B4B1B6855
:105480005A1E48BF0023F5D41346F0E7013B63F0F2
:105490000103013377E705EB85058CE7092B49D13B
:1054A000234A13782B445BB20E2B04DD232BA8BFB9
:1054B0002323137007E70F23137004E76897002076
:1054C000B8980020BC980020D8930020984E002067
:1054D000A04E0020743E00200AD7233C0000014368
:1054E000EE7CFF3E88E100E0284F002008E100E06C
:1054F000B84E00206C3E0020203E0020254F0020AA
:10550000EC930020C09800200100008044A50220F8
:105510001C8C0020F493002000D003407CD40100B8
:10552000989601005D3E0020D419022014970020B7
:105530007C3E00200C2B0AD13F490B782B445BB2F8
:10554000002B60DD232BA8BF23230B70BBE6012BB0
:1055500018D13A4A13782B445BB2002B56DB3F2B11
:10556000A8BF3F2318461370FFF7D2F9344A354BD2
:1055700000201060002103F5007243F8041B9342E1
:10558000FBD1A0E6022B32D12F4F304E3B68049363
:10559000049B32689B1AB3F5FA7F31D2F92B47D8B6
:1055A000642B41F2883328BF4FF4FA632849294A13
:1055B0000868126803FB050341F6573083421CDD7F
:1055C000254880FB02E0D243D20FC2EBE0124FF439
:1055D0007A7000FB02F29342A8BF134618460B6094
:1055E000FFF7AEF93B680593059B33606BE6042B30
:1055F0000ED1134B00221A6065E641F65833EDE7F1
:105600004FF4FA73D2E713460B705CE60023A9E768
:10561000062B7FF458AE1149114A0B780133DBB2E7
:10562000A2FB0302520802EB42029B1A0B704AE6ED
:105630004FF47A73BAE700BF103E0020183E0020F6
:10564000E0980020344F002044A502201C8C00204C
:10565000783E0020A8970020D34D6210F81B02204E
:10566000ABAAAAAAF0B5244D244F254E83B0FDF76E
:1056700095FF28460021002409F072FD4FF4A07325
:1056800022462846214600930194F02309F074F93C
:1056900028464DF29A610AF0B7FE1A4BAB612146DB
:1056A000284664220AF094FE0922174928460BF086
:1056B000EBF8384610F0A4FA3946024628460BF0BB
:1056C000E3F8124BAB61FEF799FD1148114D03F061
:1056D000FDF8114A114B1249946130464FF4803263
:1056E000DC619A612C600C6003F0A0FD012386F858
:1056F000F63003B0F0BD00BFF493002018970020EF
:10570000AC97002098D40100A896010060D4010055
:10571000CC960020AC960020BC4E00207097002054
:1057200018940020F8B5744A137C012B7BD972B60B
:10573000D36862B6714E724D3268002BB8BF033326
:105740009C10944228DD01232B600120FFF768FDA7
:105750006C4A3460137C012B2BD972B6D36862B6C5
:10576000694E6A4F3268002BB8BF03339C109442D5
:105770000DDD01233B600020FFF752FD2B683460F4
:105780000BB93B686BB1BDE8F840FEF737BD47DAAF
:105790004FF0FF333B60EEE704DA4FF0FF332B604E
:1057A000D3E7F8BD574A346000232B60137C012BEC
:1057B000D3D872B61368506819780478507A137A7F
:1057C000044201EA03016FD0937A03F0030309B1A5
:1057D00043F0040343F008039910013B91720D2B31
:1057E000BCD801A151F823F0F1580000E95800009D
:1057F000E1580000E95800005D570000D95800004A
:10580000F1580000F1580000D95800005D57000021
:10581000E9580000E1580000E9580000F158000084
:1058200000233B60AAE772B61368506819780478C1
:10583000507A137A044201EA03012DD0937A03F0DF
:10584000030309B143F0040343F008039910013B3B
:1058500091720D2B3FF66CAF01A151F823F000BF00
:10586000D1580000C9580000C1580000C9580000B4
:1058700031570000B9580000D1580000D15800003D
:10588000B958000031570000C9580000C158000045
:10589000C9580000D1580000937A03F0030300298F
:1058A000D4D043F00403D1E7937A03F00303002933
:1058B00092D043F004038FE7D368023BD36038E70C
:1058C000D3680233D36034E7D368013BD36030E759
:1058D000D3680133D3602CE7D368023BD3603EE743
:1058E000D3680233D3603AE7D368013BD36036E72D
:1058F000D3680133D36032E7B49600206C97002060
:10590000984E0020104F0020084F0020B89800202B
:1059100070B58A4C25784DB1894807F06BFE8848F0
:1059200007F08EFE002840F08B8070BD854807F0A0
:1059300061FE854807F05EFE814807F05BFE834804
:1059400007F058FE814807F07BFE70B1804B1A7853
:10595000002A7CD17F4A13680133042BC8BF00237F
:105960001360FEF727F8FEF749FC754807F068FE5C
:10597000F8B1794D2978B1B9784E794B3268013256
:1059800083FB0203A3EBE27303EB4303D31A022B63
:10599000336000F0A380012B00F097800021714854
:1059A00009F0A8F92978022958D001296BD0FEF70F
:1059B00025FC644807F044FE002831D06A4C6B4D4A
:1059C00023682A68B3FA83F35B09062A236050D060
:1059D000052A69D0664B1B7803B32B680A2B03D1C9
:1059E0002668012E00F08780624D2868FFF778FB5B
:1059F000614A624B10681860FEF7A2FF604B614974
:105A00004FF4803200201862C8618A61DA619A61BD
:105A100023681BB9504A1178022964D0FEF7EEFBC7
:105A2000494807F00DFE00283FF47FAF564A13683F
:105A3000B3FA83F35B09BDE870401360FEF7DEBB89
:105A4000FDF770FEFEF7DAFB0023237070BD3C48C3
:105A50001D7007F0F5FD0028ABD08AE74B4E337878
:105A6000DBB94B4A012310683370FFF767FB2978D5
:105A70009BE7484B384A1B781370012BAAD1FDF7DE
:105A800079FD2A68A4E723782C4A002B8FD1117066
:105A9000FEF7B4FBFFF7E6FD89E73F4803F0BCFAE9
:105AA00000232978337080E7FDF726FF4FF48272D8
:105AB00000212C480AF08CFC0C22384929480AF0B5
:105AC000E3FE28480AF01AFF84E70021254809F080
:105AD00047FB0021234809F01BF95FE7214809F043
