:1000000000000320D1010000952401004D240100CF
:100010004D2401004D2401004D2401004D24010018
:100020004D2401004D2401004D24010095240100C0
:10003000952401004D240100893901008D3A010009
:1000400095240100952401009524010095240100C8
:1000500095240100952401009524010095240100B8
:1000600095240100952401009524010095240100A8
:100070009524010095240100952401009524010098
:100080009524010095240100952401009524010088
:100090009524010095240100952401009524010078
:1000A0000954010015540100952401009524010014
:1000B000952401009524010095240100D53A010002
:1000C00095240100013C0100952401002D3D010013
:1000D00095240100253E010095240100952401008E
:1000E0009524010095240100952401009524010028
:1000F0009524010095240100952401009524010018
:100100009524010095240100952401009524010007
:1001100095240100212B0100952401009524010064
:1001200095240100952401009524010095240100E7
:1001300095240100952401009524010095240100D7
:1001400075190100952401001D3F0100952401004F
:1001500095240100952401009524010095240100B7
:1001600095240100952401002154010095240100EB
:100170009524010095240100952401009524010097
:100180009524010095240100952401009524010087
:1001900095240100952401001540010095240100DB
:1001A0009524010095240100952401009524010067
:1001B0009524010095240100952401009524010057
:1001C0009524010095240100952401009524010047
:1001D0005C4B4CF2205210B51A804DF628121A8052
:1001E00000BF00BF12F05AF9574B4FF030621A604F
:1001F000564A9A60564ADA60564B4FF470021A60BB
:10020000554B564A1A60564A136813F4807304D14A
:1002100054490B604FF4A8531360534B1A781107DD
:1002200003D51A7842F008021A70504B5049AA229E
:100230001A70504A504B8B4204D252F8040F43F8C4
:10024000040BF8E74D4B4E4900228B4202D243F893
:10025000042BFAE74B494C4A002352F8230041F89B
:1002600023000133742BF8D1484B494A802103F80D
:10027000011B9342FBD1474B424A1A60464B8A22EC
:100280001A70A3F5805324225A70A0221A709A790A
:100290009207FCD59A79D406FCD4404A937903F0AE
:1002A0000C03082BFAD13E4B60221A7002331A78E5
:1002B000802AFCD1394B01221A715D225A719A7938
:1002C0009006FCD59979354A4906FBD5354B364918
:1002D00019600021596020231370937903F00C03F7
:1002E0000C2BFAD1314B324A1A60324B324A1A6027
:1002F00000225A60072243F8042C304AC3F80C2D20
:1003000062B612F0B1FA174B1B68DA0705D52C4814
:1003100012F02CFA2B4B2C4A1A602C4B1B785B06E4
:1003200009D5284C284B22689A4204D1244812F05F
:100330001DFA0023236015F07DFE12F0B5F811F0D0
:10034000E3FFFEE70E20054030800440823F0400BA
:100350000100002B88ED00E0002008E0030000858C
:1003600010D0034014D0034002D0074000E0074003
:10037000684C0020B4DE0200303D0020704C0020AC
:1003800020AA0220003800200000000000E400E065
:1003900064E400E008ED00E0005006400040064044
:1003A00001E007404480044000000602048004404D
:1003B000C010070014E000E01FBF02000000202072
:1003C00093EE605D1CE00340A5C3945A00F0074023
:1003D000FFFFFFFFFFFFFFFFFFFFFFFFFFFFFFFF2D
:1003E000FFFFFFFFFFFFFFFFFFFFFFFFFFFFFFFF1D
:1003F000FFFFFFFFFFFFFFFFFFFFFFFFFFFFFFFF0D
:10040000FFFFFFFFFFFFFFFFFFFFFFFFDEF9FFFF23
:1004100010B5054C237833B9044B13B10448AFF33E
:1004200000800123237010BD704C002000000000EC
:10043000B0DE0200084B10B51BB108490848AFF305
:1004400000800848036803B910BD074B002BFBD0A0
:10045000BDE81040184700BF00000000744C0020A9
:10046000B0DE0200684C00200000000012F078B9F5
:1004700010B5044B044640F8183B06F031FB20460B
:1004800010BD00BFC0B1010010B5044611F02AFA3A
:10049000204610BD214B10B4D3F8E02013685068FB
:1004A00019780478507A137A044201EA03011BD0C8
:1004B000937A03F0030309B143F0040343F0080304
:1004C0009910013B91720D2B0BD8DFE803F0210747
:1004D0001B070A152121150A071B0721D368013BB9
:1004E000D3605DF8044B7047937A03F0030300294F
:1004F000E6D043F00403E3E7D3685DF8044B023B26
:10050000D3607047D3685DF8044B0233D360704703
:10051000D3685DF8044B0133D3607047809F02209D
:10052000214B10B4D3F8E42013685068197804788C
:10053000507A137A044201EA03011BD0937A03F044
:10054000030309B143F0040343F008039910013B8E
:1005500091720D2B0BD8DFE803F021071B070A155A
:100560002121150A071B0721D368013BD3605DF8E1
:10057000044B7047937A03F003030029E6D043F05D
:100580000403E3E7D3685DF8044B023BD360704794
:10059000D3685DF8044B0233D3607047D3685DF8CD
:1005A000044B0133D3607047809F0220214B10B46D
:1005B000D3F8E8201368506819780478507A137AD1
:1005C000044201EA03011BD0937A03F0030309B14B
:1005D00043F0040343F008039910013B91720D2B83
:1005E0000BD8DFE803F021071B070A152121150AA4
:1005F000071B0721D368013BD3605DF8044B7047AC
:10060000937A03F003030029E6D043F00403E3E701
:10061000D3685DF8044B023BD3607047D3685DF844
:10062000044B0233D3607047D3685DF8044B013349
:10063000D3607047809F0220214B10B4D3F8EC2088
:100640001368506819780478507A137A044201EAE2
:1006500003011BD0937A03F0030309B143F00403B1
:1006600043F008039910013B91720D2B0BD8DFE882
:1006700003F021071B070A152121150A071B072173
:10068000D368013BD3605DF8044B7047937A03F065
:1006900003030029E6D043F00403E3E7D3685DF8E1
:1006A000044B023BD3607047D3685DF8044B0233C0
:1006B000D3607047D3685DF8044B0133D360704753
:1006C000809F0220214B10B4D3F8C02013685068DB
:1006D00019780478507A137A044201EA03011BD096
:1006E000937A03F0030309B143F0040343F00803D2
:1006F0009910013B91720D2B0BD8DFE803F0210715
:100700001B070A152121150A071B0721D368013B86
:10071000D3605DF8044B7047937A03F0030300291C
:10072000E6D043F00403E3E7D3685DF8044B023BF3
:10073000D3607047D3685DF8044B0233D3607047D1
:10074000D3685DF8044B0133D3607047809F02206B
:10075000214B10B4D3F8C42013685068197804787A
:10076000507A137A044201EA03011BD0937A03F012
:10077000030309B143F0040343F008039910013B5C
:1007800091720D2B0BD8DFE803F021071B070A1528
:100790002121150A071B0721D368013BD3605DF8AF
:1007A000044B7047937A03F003030029E6D043F02B
:1007B0000403E3E7D3685DF8044B023BD360704762
:1007C000D3685DF8044B0233D3607047D3685DF89B
:1007D000044B0133D3607047809F0220214B10B43B
:1007E000D3F8C8201368506819780478507A137ABF
:1007F000044201EA03011BD0937A03F0030309B119
:1008000043F0040343F008039910013B91720D2B50
:100810000BD8DFE803F021071B070A152121150A71
:10082000071B0721D368013BD3605DF8044B704779
:10083000937A03F003030029E6D043F00403E3E7CF
:10084000D3685DF8044B023BD3607047D3685DF812
:10085000044B0233D3607047D3685DF8044B013317
:10086000D3607047809F0220214B10B4D3F8CC2076
:100870001368506819780478507A137A044201EAB0
:1008800003011BD0937A03F0030309B143F004037F
:1008900043F008039910013B91720D2B0BD8DFE850
:1008A00003F021071B070A152121150A071B072141
:1008B000D368013BD3605DF8044B7047937A03F033
:1008C00003030029E6D043F00403E3E7D3685DF8AF
:1008D000044B023BD3607047D3685DF8044B02338E
:1008E000D3607047D3685DF8044B0133D360704721
:1008F000809F0220214B10B4D3F8D0201368506899
:1009000019780478507A137A044201EA03011BD063
:10091000937A03F0030309B143F0040343F008039F
:100920009910013B91720D2B0BD8DFE803F02107E2
:100930001B070A152121150A071B0721D368013B54
:10094000D3605DF8044B7047937A03F003030029EA
:10095000E6D043F00403E3E7D3685DF8044B023BC1
:10096000D3607047D3685DF8044B0233D36070479F
:10097000D3685DF8044B0133D3607047809F022039
:10098000214B10B4D3F8D420136850681978047838
:10099000507A137A044201EA03011BD0937A03F0E0
:1009A000030309B143F0040343F008039910013B2A
:1009B00091720D2B0BD8DFE803F021071B070A15F6
:1009C0002121150A071B0721D368013BD3605DF87D
:1009D000044B7047937A03F003030029E6D043F0F9
:1009E0000403E3E7D3685DF8044B023BD360704730
:1009F000D3685DF8044B0233D3607047D3685DF869
:100A0000044B0133D3607047809F0220214B10B408
:100A1000D3F8D8201368506819780478507A137A7C
:100A2000044201EA03011BD0937A03F0030309B1E6
:100A300043F0040343F008039910013B91720D2B1E
:100A40000BD8DFE803F021071B070A152121150A3F
:100A5000071B0721D368013BD3605DF8044B704747
:100A6000937A03F003030029E6D043F00403E3E79D
:100A7000D3685DF8044B023BD3607047D3685DF8E0
:100A8000044B0233D3607047D3685DF8044B0133E5
:100A9000D3607047809F0220214B10B4D3F8DC2034
:100AA0001368506819780478507A137A044201EA7E
:100AB00003011BD0937A03F0030309B143F004034D
:100AC00043F008039910013B91720D2B0BD8DFE81E
:100AD00003F021071B070A152121150A071B07210F
:100AE000D368013BD3605DF8044B7047937A03F001
:100AF00003030029E6D043F00403E3E7D3685DF87D
:100B0000044B023BD3607047D3685DF8044B02335B
:100B1000D3607047D3685DF8044B0133D3607047EE
:100B2000809F0220214B10B41A681368506819780E
:100B30000478507A137A044201EA03011BD0937AB5
:100B400003F0030309B143F0040343F008039910D1
:100B5000013B91720D2B0BD8DFE803F021071B0737
:100B60000A152121150A071B0721D368013BD36011
:100B70005DF8044B7047937A03F003030029E6D035
:100B800043F00403E3E7D3685DF8044B023BD36012
:100B90007047D3685DF8044B0233D3607047D36865
:100BA0005DF8044B0133D360704700BF809F022083
:100BB000214B10B45A681368506819780478507A39
:100BC000137A044201EA03011BD0937A03F0030372
:100BD00009B143F0040343F008039910013B9172FB
:100BE0000D2B0BD8DFE803F021071B070A15212185
:100BF000150A071B0721D368013BD3605DF8044B3E
:100C00007047937A03F003030029E6D043F004030E
:100C1000E3E7D3685DF8044B023BD3607047D368C9
:100C20005DF8044B0233D3607047D3685DF8044B22
:100C30000133D360704700BF809F0220214B10B466
:100C40009A681368506819780478507A137A0442C5
:100C500001EA03011BD0937A03F0030309B143F0C7
:100C6000040343F008039910013B91720D2B0BD83C
:100C7000DFE803F021071B070A152121150A071BCE
:100C80000721D368013BD3605DF8044B7047937A2A
:100C900003F003030029E6D043F00403E3E7D3683D
:100CA0005DF8044B023BD3607047D3685DF8044B9A
:100CB0000233D3607047D3685DF8044B0133D360CF
:100CC000704700BF809F0220214B10B4DA68136880
:100CD000506819780478507A137A044201EA0301C3
:100CE0001BD0937A03F0030309B143F0040343F0EC
:100CF00008039910013B91720D2B0BD8DFE803F02C
:100D000021071B070A152121150A071B0721D36894
:100D1000013BD3605DF8044B7047937A03F0030303
:100D20000029E6D043F00403E3E7D3685DF8044B01
:100D3000023BD3607047D3685DF8044B0233D36045
:100D40007047D3685DF8044B0133D360704700BF30
:100D5000809F0220214B10B41A69136850681978DB
:100D60000478507A137A044201EA03011BD0937A83
:100D700003F0030309B143F0040343F0080399109F
:100D8000013B91720D2B0BD8DFE803F021071B0705
:100D90000A152121150A071B0721D368013BD360DF
:100DA0005DF8044B7047937A03F003030029E6D003
:100DB00043F00403E3E7D3685DF8044B023BD360E0
:100DC0007047D3685DF8044B0233D3607047D36833
:100DD0005DF8044B0133D360704700BF809F022051
:100DE000214B10B45A691368506819780478507A06
:100DF000137A044201EA03011BD0937A03F0030340
:100E000009B143F0040343F008039910013B9172C8
:100E10000D2B0BD8DFE803F021071B070A15212152
:100E2000150A071B0721D368013BD3605DF8044B0B
:100E30007047937A03F003030029E6D043F00403DC
:100E4000E3E7D3685DF8044B023BD3607047D36897
:100E50005DF8044B0233D3607047D3685DF8044BF0
:100E60000133D360704700BF809F0220214B10B434
:100E70009A691368506819780478507A137A044292
:100E800001EA03011BD0937A03F0030309B143F095
:100E9000040343F008039910013B91720D2B0BD80A
:100EA000DFE803F021071B070A152121150A071B9C
:100EB0000721D368013BD3605DF8044B7047937AF8
:100EC00003F003030029E6D043F00403E3E7D3680B
:100ED0005DF8044B023BD3607047D3685DF8044B68
:100EE0000233D3607047D3685DF8044B0133D3609D
:100EF000704700BF809F0220214B10B4DA6913684D
:100F0000506819780478507A137A044201EA030190
:100F10001BD0937A03F0030309B143F0040343F0B9
:100F200008039910013B91720D2B0BD8DFE803F0F9
:100F300021071B070A152121150A071B0721D36862
:100F4000013BD3605DF8044B7047937A03F00303D1
:100F50000029E6D043F00403E3E7D3685DF8044BCF
:100F6000023BD3607047D3685DF8044B0233D36013
:100F70007047D3685DF8044B0133D360704700BFFE
:100F8000809F0220214B10B41A6A136850681978A8
:100F90000478507A137A044201EA03011BD0937A51
:100FA00003F0030309B143F0040343F0080399106D
:100FB000013B91720D2B0BD8DFE803F021071B07D3
:100FC0000A152121150A071B0721D368013BD360AD
:100FD0005DF8044B7047937A03F003030029E6D0D1
:100FE00043F00403E3E7D3685DF8044B023BD360AE
:100FF0007047D3685DF8044B0233D3607047D36801
:101000005DF8044B0133D360704700BF809F02201E
:10101000214B10B45A6A1368506819780478507AD2
:10102000137A044201EA03011BD0937A03F003030D
:1010300009B143F0040343F008039910013B917296
:101040000D2B0BD8DFE803F021071B070A15212120
:10105000150A071B0721D368013BD3605DF8044BD9
:101060007047937A03F003030029E6D043F00403AA
:10107000E3E7D3685DF8044B023BD3607047D36865
:101080005DF8044B0233D3607047D3685DF8044BBE
:101090000133D360704700BF809F0220214B10B402
:1010A0009A6A1368506819780478507A137A04425F
:1010B00001EA03011BD0937A03F0030309B143F063
:1010C000040343F008039910013B91720D2B0BD8D8
:1010D000DFE803F021071B070A152121150A071B6A
:1010E0000721D368013BD3605DF8044B7047937AC6
:1010F00003F003030029E6D043F00403E3E7D368D9
:101100005DF8044B023BD3607047D3685DF8044B35
:101110000233D3607047D3685DF8044B0133D3606A
:10112000704700BF809F0220214B10B4DA6A136819
:10113000506819780478507A137A044201EA03015E
:101140001BD0937A03F0030309B143F0040343F087
:1011500008039910013B91720D2B0BD8DFE803F0C7
:1011600021071B070A152121150A071B0721D36830
:10117000013BD3605DF8044B7047937A03F003039F
:101180000029E6D043F00403E3E7D3685DF8044B9D
:10119000023BD3607047D3685DF8044B0233D360E1
:1011A0007047D3685DF8044B0133D360704700BFCC
:1011B000809F0220214B10B41A6B13685068197875
:1011C0000478507A137A044201EA03011BD0937A1F
:1011D00003F0030309B143F0040343F0080399103B
:1011E000013B91720D2B0BD8DFE803F021071B07A1
:1011F0000A152121150A071B0721D368013BD3607B
:101200005DF8044B7047937A03F003030029E6D09E
:1012100043F00403E3E7D3685DF8044B023BD3607B
:101220007047D3685DF8044B0233D3607047D368CE
:101230005DF8044B0133D360704700BF809F0220EC
:10124000214B10B45A6B1368506819780478507A9F
:10125000137A044201EA03011BD0937A03F00303DB
:1012600009B143F0040343F008039910013B917264
:101270000D2B0BD8DFE803F021071B070A152121EE
:10128000150A071B0721D368013BD3605DF8044BA7
:101290007047937A03F003030029E6D043F0040378
:1012A000E3E7D3685DF8044B023BD3607047D36833
:1012B0005DF8044B0233D3607047D3685DF8044B8C
:1012C0000133D360704700BF809F0220214B10B4D0
:1012D0009A6B1368506819780478507A137A04422C
:1012E00001EA03011BD0937A03F0030309B143F031
:1012F000040343F008039910013B91720D2B0BD8A6
:10130000DFE803F021071B070A152121150A071B37
:101310000721D368013BD3605DF8044B7047937A93
:1013200003F003030029E6D043F00403E3E7D368A6
:101330005DF8044B023BD3607047D3685DF8044B03
:101340000233D3607047D3685DF8044B0133D36038
:10135000704700BF809F0220214B10B4DA6B1368E6
:10136000506819780478507A137A044201EA03012C
:101370001BD0937A03F0030309B143F0040343F055
:1013800008039910013B91720D2B0BD8DFE803F095
:1013900021071B070A152121150A071B0721D368FE
:1013A000013BD3605DF8044B7047937A03F003036D
:1013B0000029E6D043F00403E3E7D3685DF8044B6B
:1013C000023BD3607047D3685DF8044B0233D360AF
:1013D0007047D3685DF8044B0133D360704700BF9A
:1013E000809F0220214B10B41A6C13685068197842
:1013F0000478507A137A044201EA03011BD0937AED
:1014000003F0030309B143F0040343F00803991008
:10141000013B91720D2B0BD8DFE803F021071B076E
:101420000A152121150A071B0721D368013BD36048
:101430005DF8044B7047937A03F003030029E6D06C
:1014400043F00403E3E7D3685DF8044B023BD36049
:101450007047D3685DF8044B0233D3607047D3689C
:101460005DF8044B0133D360704700BF809F0220BA
:10147000214B10B45A6C1368506819780478507A6C
:10148000137A044201EA03011BD0937A03F00303A9
:1014900009B143F0040343F008039910013B917232
:1014A0000D2B0BD8DFE803F021071B070A152121BC
:1014B000150A071B0721D368013BD3605DF8044B75
:1014C0007047937A03F003030029E6D043F0040346
:1014D000E3E7D3685DF8044B023BD3607047D36801
:1014E0005DF8044B0233D3607047D3685DF8044B5A
:1014F0000133D360704700BF809F0220214B10B49E
:101500009A6C1368506819780478507A137A0442F8
:1015100001EA03011BD0937A03F0030309B143F0FE
:10152000040343F008039910013B91720D2B0BD873
:10153000DFE803F021071B070A152121150A071B05
:101540000721D368013BD3605DF8044B7047937A61
:1015500003F003030029E6D043F00403E3E7D36874
:101560005DF8044B023BD3607047D3685DF8044BD1
:101570000233D3607047D3685DF8044B0133D36006
:10158000704700BF809F0220214B10B4DA6C1368B3
:10159000506819780478507A137A044201EA0301FA
:1015A0001BD0937A03F0030309B143F0040343F023
:1015B00008039910013B91720D2B0BD8DFE803F063
:1015C00021071B070A152121150A071B0721D368CC
:1015D000013BD3605DF8044B7047937A03F003033B
:1015E0000029E6D043F00403E3E7D3685DF8044B39
:1015F000023BD3607047D3685DF8044B0233D3607D
:101600007047D3685DF8044B0133D360704700BF67
:10161000809F0220214B10B41A6D1368506819780E
:101620000478507A137A044201EA03011BD0937ABA
:1016300003F0030309B143F0040343F008039910D6
:10164000013B91720D2B0BD8DFE803F021071B073C
:101650000A152121150A071B0721D368013BD36016
:101660005DF8044B7047937A03F003030029E6D03A
:1016700043F00403E3E7D3685DF8044B023BD36017
:101680007047D3685DF8044B0233D3607047D3686A
:101690005DF8044B0133D360704700BF809F022088
:1016A000214B10B45A6D1368506819780478507A39
:1016B000137A044201EA03011BD0937A03F0030377
:1016C00009B143F0040343F008039910013B917200
:1016D0000D2B0BD8DFE803F021071B070A1521218A
:1016E000150A071B0721D368013BD3605DF8044B43
:1016F0007047937A03F003030029E6D043F0040314
:10170000E3E7D3685DF8044B023BD3607047D368CE
:101710005DF8044B0233D3607047D3685DF8044B27
:101720000133D360704700BF809F0220214B10B46B
:101730009A6D1368506819780478507A137A0442C5
:1017400001EA03011BD0937A03F0030309B143F0CC
:10175000040343F008039910013B91720D2B0BD841
:10176000DFE803F021071B070A152121150A071BD3
:101770000721D368013BD3605DF8044B7047937A2F
:1017800003F003030029E6D043F00403E3E7D36842
:101790005DF8044B023BD3607047D3685DF8044B9F
:1017A0000233D3607047D3685DF8044B0133D360D4
:1017B000704700BF809F0220214B10B4DA6D136880
:1017C000506819780478507A137A044201EA0301C8
:1017D0001BD0937A03F0030309B143F0040343F0F1
:1017E00008039910013B91720D2B0BD8DFE803F031
:1017F00021071B070A152121150A071B0721D3689A
:10180000013BD3605DF8044B7047937A03F0030308
:101810000029E6D043F00403E3E7D3685DF8044B06
:10182000023BD3607047D3685DF8044B0233D3604A
:101830007047D3685DF8044B0133D360704700BF35
:10184000809F0220214B10B41A6E136850681978DB
:101850000478507A137A044201EA03011BD0937A88
:1018600003F0030309B143F0040343F008039910A4
:10187000013B91720D2B0BD8DFE803F021071B070A
:101880000A152121150A071B0721D368013BD360E4
:101890005DF8044B7047937A03F003030029E6D008
:1018A00043F00403E3E7D3685DF8044B023BD360E5
:1018B0007047D3685DF8044B0233D3607047D36838
:1018C0005DF8044B0133D360704700BF809F022056
:1018D000214B10B45A6E1368506819780478507A06
:1018E000137A044201EA03011BD0937A03F0030345
:1018F00009B143F0040343F008039910013B9172CE
:101900000D2B0BD8DFE803F021071B070A15212157
:10191000150A071B0721D368013BD3605DF8044B10
:101920007047937A03F003030029E6D043F00403E1
:10193000E3E7D3685DF8044B023BD3607047D3689C
:101940005DF8044B0233D3607047D3685DF8044BF5
:101950000133D360704700BF809F0220214B10B439
:101960009A6E1368506819780478507A137A044292
:1019700001EA03011BD0937A03F0030309B143F09A
:10198000040343F008039910013B91720D2B0BD80F
:10199000DFE803F021071B070A152121150A071BA1
:1019A0000721D368013BD3605DF8044B7047937AFD
:1019B00003F003030029E6D043F00403E3E7D36810
:1019C0005DF8044B023BD3607047D3685DF8044B6D
:1019D0000233D3607047D3685DF8044B0133D360A2
:1019E000704700BF809F0220214B10B4DA6E13684D
:1019F000506819780478507A137A044201EA030196
:101A00001BD0937A03F0030309B143F0040343F0BE
:101A100008039910013B91720D2B0BD8DFE803F0FE
:101A200021071B070A152121150A071B0721D36867
:101A3000013BD3605DF8044B7047937A03F00303D6
:101A40000029E6D043F00403E3E7D3685DF8044BD4
:101A5000023BD3607047D3685DF8044B0233D36018
:101A60007047D3685DF8044B0133D360704700BF03
:101A7000809F0220214B10B41A6F136850681978A8
:101A80000478507A137A044201EA03011BD0937A56
:101A900003F0030309B143F0040343F00803991072
:101AA000013B91720D2B0BD8DFE803F021071B07D8
:101AB0000A152121150A071B0721D368013BD360B2
:101AC0005DF8044B7047937A03F003030029E6D0D6
:101AD00043F00403E3E7D3685DF8044B023BD360B3
:101AE0007047D3685DF8044B0233D3607047D36806
:101AF0005DF8044B0133D360704700BF809F022024
:101B0000214B10B45A6F1368506819780478507AD2
:101B1000137A044201EA03011BD0937A03F0030312
:101B200009B143F0040343F008039910013B91729B
:101B30000D2B0BD8DFE803F021071B070A15212125
:101B4000150A071B0721D368013BD3605DF8044BDE
:101B50007047937A03F003030029E6D043F00403AF
:101B6000E3E7D3685DF8044B023BD3607047D3686A
:101B70005DF8044B0233D3607047D3685DF8044BC3
:101B80000133D360704700BF809F0220214B10B407
:101B90009A6F1368506819780478507A137A04425F
:101BA00001EA03011BD0937A03F0030309B143F068
:101BB000040343F008039910013B91720D2B0BD8DD
:101BC000DFE803F021071B070A152121150A071B6F
:101BD0000721D368013BD3605DF8044B7047937ACB
:101BE00003F003030029E6D043F00403E3E7D368DE
:101BF0005DF8044B023BD3607047D3685DF8044B3B
:101C00000233D3607047D3685DF8044B0133D3606F
:101C1000704700BF809F0220214B10B4DA6F136819
:101C2000506819780478507A137A044201EA030163
:101C30001BD0937A03F0030309B143F0040343F08C
:101C400008039910013B91720D2B0BD8DFE803F0CC
:101C500021071B070A152121150A071B0721D36835
:101C6000013BD3605DF8044B7047937A03F00303A4
:101C70000029E6D043F00403E3E7D3685DF8044BA2
:101C8000023BD3607047D3685DF8044B0233D360E6
:101C90007047D3685DF8044B0133D360704700BFD1
:101CA000809F0220214B10B4D3F880201368506825
:101CB00019780478507A137A044201EA03011BD0A0
:101CC000937A03F0030309B143F0040343F00803DC
:101CD0009910013B91720D2B0BD8DFE803F021071F
:101CE0001B070A152121150A071B0721D368013B91
:101CF000D3605DF8044B7047937A03F00303002927
:101D0000E6D043F00403E3E7D3685DF8044B023BFD
:101D1000D3607047D3685DF8044B0233D3607047DB
:101D2000D3685DF8044B0133D3607047809F022075
:101D3000214B10B4D3F884201368506819780478C4
:101D4000507A137A044201EA03011BD0937A03F01C
:101D5000030309B143F0040343F008039910013B66
:101D600091720D2B0BD8DFE803F021071B070A1532
:101D70002121150A071B0721D368013BD3605DF8B9
:101D8000044B7047937A03F003030029E6D043F035
:101D90000403E3E7D3685DF8044B023BD36070476C
:101DA000D3685DF8044B0233D3607047D3685DF8A5
:101DB000044B0133D3607047809F0220214B10B445
:101DC000D3F888201368506819780478507A137A09
:101DD000044201EA03011BD0937A03F0030309B123
:101DE00043F0040343F008039910013B91720D2B5B
:101DF0000BD8DFE803F021071B070A152121150A7C
:101E0000071B0721D368013BD3605DF8044B704783
:101E1000937A03F003030029E6D043F00403E3E7D9
:101E2000D3685DF8044B023BD3607047D3685DF81C
:101E3000044B0233D3607047D3685DF8044B013321
:101E4000D3607047809F0220214B10B4D3F88C20C0
:101E50001368506819780478507A137A044201EABA
:101E600003011BD0937A03F0030309B143F0040389
:101E700043F008039910013B91720D2B0BD8DFE85A
:101E800003F021071B070A152121150A071B07214B
:101E9000D368013BD3605DF8044B7047937A03F03D
:101EA00003030029E6D043F00403E3E7D3685DF8B9
:101EB000044B023BD3607047D3685DF8044B023398
:101EC000D3607047D3685DF8044B0133D36070472B
:101ED000809F0220214B10B4D3F8902013685068E3
:101EE00019780478507A137A044201EA03011BD06E
:101EF000937A03F0030309B143F0040343F00803AA
:101F00009910013B91720D2B0BD8DFE803F02107EC
:101F10001B070A152121150A071B0721D368013B5E
:101F2000D3605DF8044B7047937A03F003030029F4
:101F3000E6D043F00403E3E7D3685DF8044B023BCB
:101F4000D3607047D3685DF8044B0233D3607047A9
:101F5000D3685DF8044B0133D3607047809F022043
:101F6000214B10B4D3F89420136850681978047882
:101F7000507A137A044201EA03011BD0937A03F0EA
:101F8000030309B143F0040343F008039910013B34
:101F900091720D2B0BD8DFE803F021071B070A1500
:101FA0002121150A071B0721D368013BD3605DF887
:101FB000044B7047937A03F003030029E6D043F003
:101FC0000403E3E7D3685DF8044B023BD36070473A
:101FD000D3685DF8044B0233D3607047D3685DF873
:101FE000044B0133D3607047809F0220214B10B413
:101FF000D3F898201368506819780478507A137AC7
:10200000044201EA03011BD0937A03F0030309B1F0
:1020100043F0040343F008039910013B91720D2B28
:102020000BD8DFE803F021071B070A152121150A49
:10203000071B0721D368013BD3605DF8044B704751
:10204000937A03F003030029E6D043F00403E3E7A7
:10205000D3685DF8044B023BD3607047D3685DF8EA
:10206000044B0233D3607047D3685DF8044B0133EF
:10207000D3607047809F0220214B10B4D3F89C207E
:102080001368506819780478507A137A044201EA88
:1020900003011BD0937A03F0030309B143F0040357
:1020A00043F008039910013B91720D2B0BD8DFE828
:1020B00003F021071B070A152121150A071B072119
:1020C000D368013BD3605DF8044B7047937A03F00B
:1020D00003030029E6D043F00403E3E7D3685DF887
:1020E000044B023BD3607047D3685DF8044B023366
:1020F000D3607047D3685DF8044B0133D3607047F9
:10210000809F0220214B10B4D3F8A02013685068A0
:1021100019780478507A137A044201EA03011BD03B
:10212000937A03F0030309B143F0040343F0080377
:102130009910013B91720D2B0BD8DFE803F02107BA
:102140001B070A152121150A071B0721D368013B2C
:10215000D3605DF8044B7047937A03F003030029C2
:10216000E6D043F00403E3E7D3685DF8044B023B99
:10217000D3607047D3685DF8044B0233D360704777
:10218000D3685DF8044B0133D3607047809F022011
:10219000214B10B4D3F8A420136850681978047840
:1021A000507A137A044201EA03011BD0937A03F0B8
:1021B000030309B143F0040343F008039910013B02
:1021C00091720D2B0BD8DFE803F021071B070A15CE
:1021D0002121150A071B0721D368013BD3605DF855
:1021E000044B7047937A03F003030029E6D043F0D1
:1021F0000403E3E7D3685DF8044B023BD360704708
:10220000D3685DF8044B0233D3607047D3685DF840
:10221000044B0133D3607047809F0220214B10B4E0
:10222000D3F8A8201368506819780478507A137A84
:10223000044201EA03011BD0937A03F0030309B1BE
:1022400043F0040343F008039910013B91720D2BF6
:102250000BD8DFE803F021071B070A152121150A17
:10226000071B0721D368013BD3605DF8044B70471F
:10227000937A03F003030029E6D043F00403E3E775
:10228000D3685DF8044B023BD3607047D3685DF8B8
:10229000044B0233D3607047D3685DF8044B0133BD
:1022A000D3607047809F0220214B10B4D3F8AC203C
:1022B0001368506819780478507A137A044201EA56
:1022C00003011BD0937A03F0030309B143F0040325
:1022D00043F008039910013B91720D2B0BD8DFE8F6
:1022E00003F021071B070A152121150A071B0721E7
:1022F000D368013BD3605DF8044B7047937A03F0D9
:1023000003030029E6D043F00403E3E7D3685DF854
:10231000044B023BD3607047D3685DF8044B023333
:10232000D3607047D3685DF8044B0133D3607047C6
:10233000809F0220214B10B4D3F8B020136850685E
:1023400019780478507A137A044201EA03011BD009
:10235000937A03F0030309B143F0040343F0080345
:102360009910013B91720D2B0BD8DFE803F0210788
:102370001B070A152121150A071B0721D368013BFA
:10238000D3605DF8044B7047937A03F00303002990
:10239000E6D043F00403E3E7D3685DF8044B023B67
:1023A000D3607047D3685DF8044B0233D360704745
:1023B000D3685DF8044B0133D3607047809F0220DF
:1023C000214B10B4D3F8B4201368506819780478FE
:1023D000507A137A044201EA03011BD0937A03F086
:1023E000030309B143F0040343F008039910013BD0
:1023F00091720D2B0BD8DFE803F021071B070A159C
:102400002121150A071B0721D368013BD3605DF822
:10241000044B7047937A03F003030029E6D043F09E
:102420000403E3E7D3685DF8044B023BD3607047D5
:10243000D3685DF8044B0233D3607047D3685DF80E
:10244000044B0133D3607047809F0220214B10B4AE
:10245000D3F8B8201368506819780478507A137A42
:10246000044201EA03011BD0937A03F0030309B18C
:1024700043F0040343F008039910013B91720D2BC4
:102480000BD8DFE803F021071B070A152121150AE5
:10249000071B0721D368013BD3605DF8044B7047ED
:1024A000937A03F003030029E6D043F00403E3E743
:1024B000D3685DF8044B023BD3607047D3685DF886
:1024C000044B0233D3607047D3685DF8044B01338B
:1024D000D3607047809F0220214B10B4D3F8BC20FA
:1024E0001368506819780478507A137A044201EA24
:1024F00003011BD0937A03F0030309B143F00403F3
:1025000043F008039910013B91720D2B0BD8DFE8C3
:1025100003F021071B070A152121150A071B0721B4
:10252000D368013BD3605DF8044B7047937A03F0A6
:1025300003030029E6D043F00403E3E7D3685DF822
:10254000044B023BD3607047D3685DF8044B023301
:10255000D3607047D3685DF8044B0133D360704794
:10256000809F0220002310B4114C4172026104606C
:102570000372C36041B1194600E0026942F82310BA
:10258000427A01339A42F8DC0A4B1A680AB90CE025
:102590001A465369002BFBD15061002343618380AD
:1025A000C38083725DF8044B70471860F5E700BF85
:1025B000DCA8010024A50220F8B5044615460E4605
:1025C0000846022110F0F8F82846022110F0F4F82D
:1025D000984A994B52F83610012001F50077276090
:1025E000207252F83520607202F500770020676093
:1025F000E060013BFDD191F8003292F8002203F037
:102600000103D20744BF43F00203DBB2A3723B2EA7
:1026100000F20386DFE816F0F405EA05E005D605CA
:10262000CC05C205B805AE05A4059A05900586053A
:102630007C05720568055E0554054A0540053605AA
:102640002C05220518050E050405FA04F004E6041D
:10265000DC04D204C804BE04B304A8049D0492049C
:1026600087047C0428041E0414040A040004F603EE
:10267000EC03E203D803CE03C403BA03B003A603FA
:102680009C03920388037E0374036A0360033C0087
:102690006A4B6B49C3F8EC4004223B200FF0E4FF87
:1026A000012323743B2D00F2B585DFE815F00B0301
:1026B0000103F702ED02E302D902CF02C502BB0219
:1026C000B102A7029D02930289027F023102270212
:1026D0001D0213020902FF01F501EB01E101D7011F
:1026E000CD01C301B901AF01A5019B019101860193
:1026F0007B01700165015A014F01440139012E012E
:10270000230118010D010201F700EC00E100B800FF
:10271000AD00A20097008C00810076006B00600085
:1027200055004A003C00454B4549C3F8EC400422A3
:102730003B200FF099FF237C012213442374204691
:10274000F8BD3E4B3F49C3F8E84004223A200FF061
:102750008BFF237C0122F0E7384B3B49C3F8E44070
:10276000042239200FF080FF237C0122E5E7334B60
:102770003649C3F8E040042238200FF075FF237C6F
:102780000122DAE72D4B3249C3F8DC40042237201E
:102790000FF06AFF237C0122CFE7284B2D49C3F8B5
:1027A000D840042236200FF05FFF237C0122C4E7CB
:1027B000224B2949C3F8D440042235200FF054FF9E
:1027C000237C0122B9E71D4B2449C3F8D0400422E1
:1027D00034200FF049FF237C0122AEE7174B20493C
:1027E000C3F8CC40042233200FF03EFF237C0122AB
:1027F000A3E7124B1B49C3F8C840042232200FF054
:1028000033FF237C012298E70C4B1749C3F8C440DF
:10281000042231200FF028FF237C01228DE7074B93
:102820001249C3F8C040042230200FF01DFF237C62
:10283000012282E70CDF0100C0D40100809F02204A
:1028400039060000AD0500002105000095040000D8
:10285000990A00000D0A000081090000F508000037
:1028600069080000DD07000051070000C5060000F0
:10287000AC4BAD49C3F8BC4004222F200FF0F4FE4E
:10288000237C012259E7A74BA849C3F8B84004228A
:102890002E200FF0E9FE237C01224EE7A14BA44934
:1028A000C3F8B44004222D200FF0DEFE237C012269
:1028B00043E79C4B9F49C3F8B04004222C200FF003
:1028C000D3FE237C012238E7964B9B49C3F8AC40EA
:1028D00004222B200FF0C8FE237C01222DE7914B10
:1028E0009649C3F8A84004222A200FF0BDFE237C9D
:1028F000012222E78B4B9249C3F8A44004222920ED
:102900000FF0B2FE237C012217E7864B8D49C3F8F6
:10291000A040042228200FF0A7FE237C01220CE710
:10292000804B8949C3F89C40042227200FF09CFE6D
:10293000237C012201E77B4B8449C3F898400422A1
:1029400026200FF091FE237C0122F6E6754B80498C
:10295000C3F89440042225200FF086FE237C012238
:10296000EBE6704B7B49C3F89040042224200FF023
:102970007BFE237C0122E0E66A4B7749C3F88C405A
:10298000042223200FF070FE237C0122D5E6654B44
:102990007249C3F88840042222200FF065FE237C90
:1029A0000122CAE65F4B6E49C3F88440042221200D
:1029B0000FF05AFE237C0122BFE65A4B6949C3F847
:1029C0008040042220200FF04FFE237C0122B4E639
:1029D000544B6549DC6704221F200FF045FE237C21
:1029E0000122AAE64F4B61499C6704221E200FF08A
:1029F0003BFE237C0122A0E64A4B5D495C67042232
:102A00001D200FF031FE237C012296E6454B5949EB
:102A10001C6704221C200FF027FE237C01228CE679
:102A2000404B5549DC6604221B200FF01DFE237C21
:102A3000012282E63B4B51499C6604221A200FF08A
:102A400013FE237C012278E6364B4D495C66042256
:102A500019200FF009FE237C01226EE6314B494913
:102A60001C66042218200FF0FFFD237C012264E67F
:102A70002C4B4549DC65042217200FF0F5FD237C23
:102A800001225AE6274B41499C65042216200FF08B
:102A9000EBFD237C012250E6224B3D495C6504227C
:102AA00015200FF0E1FD237C012246E61D4B39493C
:102AB0001C65042214200FF0D7FD237C01223CE684
:102AC000184B3549DC64042213200FF0CDFD237C24
:102AD000012232E6134B31499C64042212200FF08C
:102AE000C3FD237C012228E60E4B2D495C640422A1
:102AF00011200FF0B9FD237C01221EE6094B294964
:102B00001C64042210200FF0AFFD237C012214E688
:102B1000044B2549DC6304220F200FF0A5FD237C24
:102B200001220AE6809F0220D92400004D240000E3
:102B3000C123000035230000A92200001D2200004F
:102B4000912100000521000079200000ED1F000008
:102B5000611F0000D51E0000491E0000BD1D0000C1
:102B6000311D0000A51C0000191C00008D1B000079
:102B7000011B0000751A0000E91900005D19000032
:102B8000D118000045180000B91700002D170000EB
:102B9000A11600001516000089150000FD140000A4
:102BA00071140000E513000059130000B34BB44941
:102BB0009C6304220E200FF057FD237C0122BCE50C
:102BC000AE4BB0495C6304220D200FF04DFD237C19
:102BD0000122B2E5A94BAC491C6304220C200FF082
:102BE00043FD237C0122A8E5A44BA849DC62042212
:102BF0000B200FF039FD237C01229EE59F4BA44959
:102C00009C6204220A200FF02FFD237C012294E510
:102C10009A4BA0495C62042209200FF025FD237C19
:102C200001228AE5954B9C491C62042208200FF082
:102C30001BFD237C012280E5904B9849DC61042236
:102C400007200FF011FD237C012276E58B4B944980
:102C50009C61042206200FF007FD237C01226CE515
:102C6000864B90495C61042205200FF0FDFC237C1B
:102C7000012262E5814B8C491C61042210460FF051
:102C8000F3FC237C012258E57C4B8849DC6004225C
:102C900003200FF0E9FC237C01224EE5774B8449A9
:102CA0009C60042202200FF0DFFC237C012244E51B
:102CB000724B80495C60042201200FF0D5FC237C1C
:102CC00001223AE56D4B7C491C60042200200FF084
:102CD000CBFC237C012230E5684B7849C3F8E840FF
:102CE00004223A200FF0C0FC0123DAE4634B74495C
:102CF000C3F8E440042239200FF0B6FC0123D0E4ED
:102D00005E4B7049C3F8E040042238200FF0ACFC61
:102D10000123C6E4594B6C49C3F8DC400422372038
:102D20000FF0A2FC0123BCE4544B6849C3F8D8401F
:102D3000042236200FF098FC0123B2E44F4B644983
:102D4000C3F8D440042235200FF08EFC0123A8E400
:102D50004A4B6049C3F8D040042234200FF084FC71
:102D600001239EE4454B5C49C3F8CC400422332048
:102D70000FF07AFC012394E4404B5849C3F8C84053
:102D8000042232200FF070FC01238AE43B4B5449AB
:102D9000C3F8C440042231200FF066FC012380E414
:102DA000364B5049C3F8C040042230200FF05CFC81
:102DB000012376E4314B4C49C3F8BC4004222F2058
:102DC0000FF052FC01236CE42C4B4849C3F8B84087
:102DD00004222E200FF048FC012362E4274B4449D3
:102DE000C3F8B44004222D200FF03EFC012358E428
:102DF000224B4049C3F8B04004222C200FF034FC91
:102E000001234EE41D4B3C49C3F8AC4004222B2067
:102E10000FF02AFC012344E4184B3849C3F8A840BA
:102E200004222A200FF020FC01233AE4134B3449FA
:102E3000C3F8A440042229200FF016FC012330E43B
:102E40000E4B3049C3F8A040042228200FF00CFCA0
:102E5000012326E4094B2C49C3F89C400422272077
:102E60000FF002FC01231CE4044B2849C3F89840EE
:102E7000042226200FF0F8FB012312E4809F022099
:102E8000CD12000041120000B51100002911000010
:102E90009D10000011100000850F0000F90E0000C9
:102EA0006D0E0000E10D0000550D0000C90C000082
:102EB0003D0C0000B10B0000250B0000AD0500002B
:102EC0002105000095040000990A00000D0A000089
:102ED00081090000F508000069080000DD07000016
:102EE00051070000C5060000D92400004D24000051
:102EF000C123000035230000A92200001D2200008C
:102F0000912100000521000079200000ED1F000044
:102F1000C34BC449C3F89440042225200FF0A4FBFE
:102F20000123FFF7BEBBBE4BBF49C3F8904004224C
:102F300024200FF099FB0123FFF7B3BBB84BBB492B
:102F4000C3F88C40042223200FF08EFB0123FFF7EF
:102F5000A8BBB34BB649C3F88840042222200FF027
:102F600083FB0123FFF79DBBAD4BB249C3F88440FF
:102F7000042221200FF078FB0123FFF792BBA84B1E
:102F8000AD49C3F88040042220200FF06DFB0123DF
:102F9000FFF787BBA24BA949DC6704221F200FF073
:102FA00063FB0123FFF77DBB9D4BA5499C67042272
:102FB0001E200FF059FB0123FFF773BB984BA1496B
:102FC0005C6704221D200FF04FFB0123FFF769BB54
:102FD000934B9D491C6704221C200FF045FB0123E5
:102FE000FFF75FBB8E4B9949DC6604221B200FF074
:102FF0003BFB0123FFF755BB894B95499C66042297
:103000001A200FF031FB0123FFF74BBB844B914992
:103010005C66042219200FF027FB0123FFF741BB58
:103020007F4B8D491C66042218200FF01DFB0123E5
:10303000FFF737BB7A4B8949DC65042217200FF074
:1030400013FB0123FFF72DBB754B85499C650422BB
:1030500016200FF009FB0123FFF723BB704B8149BA
:103060005C65042215200FF0FFFA0123FFF719BB5E
:103070006B4B7D491C65042214200FF0F5FA0123E7
:10308000FFF70FBB664B7949DC64042213200FF075
:10309000EBFA0123FFF705BB614B75499C640422E1
:1030A00012200FF0E1FA0123FFF7FBBA5C4B7149E4
:1030B0005C64042211200FF0D7FA0123FFF7F1BA64
:1030C000574B6D491C64042210200FF0CDFA0123E8
:1030D000FFF7E7BA524B6949DC6304220F200FF077
:1030E000C3FA0123FFF7DDBA4D4B65499C63042207
:1030F0000E200FF0B9FA0123FFF7D3BA484B61490C
:103100005C6304220D200FF0AFFA0123FFF7C9BA68
:10311000434B5D491C6304220C200FF0A5FA0123E8
:10312000FFF7BFBA3E4B5949DC6204220B200FF077
:103130009BFA0123FFF7B5BA394B55499C6204222B
:103140000A200FF091FA0123FFF7ABBA344B514933
:103150005C62042209200FF087FA0123FFF7A1BA6D
:103160002F4B4D491C62042208200FF07DFA0123E9
:10317000FFF797BA2A4B4949DC61042207200FF078
:1031800073FA0123FFF78DBA254B45499C61042250
:1031900006200FF069FA0123FFF783BA204B41495B
:1031A0005C61042205200FF05FFA0123FFF779BA72
:1031B0001B4B3D491C61042210460FF055FA0123B8
:1031C000FFF76FBA164B3949DC60042203200FF079
:1031D0004BFA0123FFF765BA114B35499C60042275
:1031E00002200FF041FA0123FFF75BBA0C4B314983
:1031F0005C60042201200FF037FA0123FFF751BA77
:10320000074B2D491C60042200200FF02DFA0123EA
:10321000FFF747BA0022FFF790BA0023FFF741BA41
:10322000809F0220611F0000D51E0000491E000083
:10323000BD1D0000311D0000A51C0000191C000070
:103240008D1B0000011B0000751A0000E919000029
:103250005D190000D118000045180000B9170000E2
:103260002D170000A116000015160000891500009A
:10327000FD14000071140000E51300005913000054
:10328000CD12000041120000B5110000291100000C
:103290009D10000011100000850F0000F90E0000C5
:1032A0006D0E0000E10D0000550D0000C90C00007E
:1032B0003D0C0000B10B0000250B000010B592B0D2
:1032C000014601A80EF0ECFC0023322201A805A95A
:1032D0000EF008FD05A9054809F0B2FF044601A853
:1032E0000EF09EFCA0B212B010BD00BF30940020C2
:1032F00007EE900A9FED0C6ADFED0C6A0C4B0D484F
:10330000B8EEE77ADFED0C7A27EE067A10B5E7EE35
:10331000267A01241C60FCEEE77A17EE901A05F07D
:103320007FFD064B1C6010BD0AD7233C0000014303
:1033300088E100E0544F0020EE7CFF3E08E100E011
:1033400010B5A2B044221749044668460EF0E4FFC7
:1033500044220DEB020014490EF0DEFFADF1040231
:10336000002352F8041FA14204D00133112BF8D1DD
:1033700022B010BD0D490A68002AFCDB22AA02EB2C
:1033800083030B4913F8442C33F8423C013A1203EF
:10339000013B02F47F22C3F30B0313430B6022B003
:1033A00010BD00BFE0A8010024A9010000F1024007
:1033B00004F102402DE9F04F2DED028BDFF808B14A
:1033C0003D4BDFED3E8A9FED3E8A85B04FF0000811
:1033D0000393D94604E0B8F1EA0F4BF8046F66D0C6
:1033E00059F8043F039A029332F9024F039207EE11
:1033F000903A07EE104AF8EEE77AB8EEC77A67EE31
:10340000A87ABD2CE7EE087AA8BFBD241FFA88F57C
:1034100024EAE4742F1DFDEEE77A0FFA84FA4FF4E4
:10342000FC623FB20092534639465A222548A4B264
:1034300017EE906A07F096FA0020C4F1BE0304F17B
:103440005A02394600901BB212B21E48053507F0E9
:1034500089FA2DB20023BD2E009329464FF0BE03FA
:103460004FF05A021748A8BFBD2607F07BFA4FF469
:10347000FC625346009229465A22124807F072FA1B
:10348000029B042B08F1020826EAE676A3DD1A4621
:1034900055324FF6FF73009312B2294605230948AF
:1034A00007F060FAB8F1EA0F4BF8046F98D105B055
:1034B000BDEC028BBDE8F08FD28C00203333333F5C
:1034C0009A99993E3094002020840020F8B55C4EF3
:1034D00034685CB1032C5B4D28D0022C3CD0012C0D
:1034E00060D0042C7DD000232B62F8BD5648554D8A
:1034F000564F05F0DDFE564A564B11681A68EC61CE
:1035000091424FF48033AB6104BFEB61AC61524B2D
:1035100034685248524A00211960032C4FF00103CD
:103520004FF002013B6003601160D6D14FF480413F
:103530004548464F05F0A0FE474B34684848474988
:1035400000221A60AA6101234FF48032022C3B60F2
:1035500003600B60EA61C2D14FF480413A4805F044
:1035600075FE404BDFED406A93F9003007EE903A6C
:10357000F8EEE77AB7EE006A86EE277A4FF48032EB
:103580000023EA61AB61B4EEE67AF1EE10FA3BD4C7
:10359000F2EE007AB4EEE77AF1EE10FA44DD4FF481
:1035A000002333E02848274C2B4F05F081FE284AA2
:1035B000284B116818684FF4803288424FF000039E
:1035C000EB61AA6108BFE26120482549234A08BF90
:1035D000A36101233468036000263E600B60136022
:1035E0007FE719481C4F194E1D4C05F061FE1B4822
:1035F000002201234FF480313A60EA61AA6133600E
:10360000236003602962F8BD40F28F230E4F124CF5
:103610000E481349114A3B620123002727600360CB
:1036200034680B6013605AE7DFED106ADFED107A43
:10363000E7EE267AFCEEE77A17EE903AE6E700BF6F
:10364000FC9600200C98002020970020BC970020BA
:10365000204F00203C3E0020589900200097002079
:10366000F04E0020413E00200AD7233C0000804756
:10367000EE7CFF3EF0B5474C474A484991B00025E3
:1036800008A80123256003F003FB10AA44480A9B05
:1036900012F8145D9DF8241083600573017100F128
:1036A0000D031A3012F8011F03F8011B83423C4935
:1036B000F8D10F9B3B4ECB6108A803F011FA002311
:1036C000394F336005E008A803F020FA08A803F09A
:1036D00007FA0122324908A803F04EFB08A803F0BC
:1036E00023FA40F2E63310B922689A424CDD08A86A
:1036F00003F0FAF90028E6D108A803F0F3F901462F
:1037000068460EF0CDFA294904A80EF0C9FA04A9BA
:1037100068460EF001FB054604A80EF081FA1DB9BB
:1037200068460EF07DFACEE7236803EB430503EB12
:10373000850308A8FD1803F0D5F90146284613F0C3
:1037400051FB1B4904A80EF0ABFA04A968460EF021
:10375000E3FA054604A80EF063FA2B4601226946F7
:1037600004A80EF0EBFA04A80EF00CFB054604A822
:103770000EF056FA326823680A49954203F10103B4
:10378000C8BF0D602360CBE708A803F0A9F911B00A
:10379000F0BD00BF6897002010AA0100C89C02205D
:1037A000909C02208C1C02206051002014AA010071
:1037B0001CAA010008B50549012200200CF084F87C
:1037C000FE210348BDE8084003F0B6B920AA010075
:1037D000C89C022038B5064D0648074C29460122F0
:1037E0000CF072F8207028460CF044FC207038BDB4
:1037F00020AA01008C4C00201C8C0020F8B5244C21
:10380000236833B9234B1A6840F2E6339A420DDD40
:10381000F8BD21480CF01CFC0023204A23601D4BFE
:1038200010701A6840F2E6339A42F1DC1C4B1D4FCF
:103830001B681D4E3A681D491D48184D03EB430394
:1038400006EB830301325B683A6013F03DFA002116
:1038500017480CF023FC0A22287015490E480CF07A
:103860005DF80228287008D00A2211490A480CF095
:1038700055F8012328702360F8BD07480CF0E8FBD9
:1038800009282870F0D10A480CF02EFC2870EBE7CC
:10389000B48C002068970020589400201C8C0020D5
:1038A000C43E00208C1C022068A9010024AA01004B
:1038B0006C9700202DE9F843064606F09DF9012893
:1038C0002CDDDFF86490DFF858800025D8F8000080
:1038D000134F05EB4004304606F0C0F909EB042411
:1038E00001464FF4807220460EF016FD0135304639
:1038F00006F0D2F9022DE9D13B680133BF2B02D883
:103900003B60BDE8F8830022064B3A600649074851
:103910004FF4C0320CF07EF9054B1870BDE8F88307
:1039200054940020EC4E0020C099002058940020B0
:103930001C8C0020134A38B500230446124D80F831
:10394000F63013700CE006F089F9104B01464FF485
:1039500080720F480CF05EF92870204606F09CF942
:10396000204606F049F900282046ECDC08480CF017
:103970006FFB084B287000221A60BDE83840FFF743
:1039800079BE00BF384F00201C8C0020EC4E002078
:1039900058940020B48C00202DE9F0418EB00DF138
:1039A000030600250746B0462C4628460EF064FC68
:1039B00008F8010F4440082314F0010F4FEA5402A5
:1039C00003F1FF3314BF82F08C04C4F3470413F0F7
:1039D000FF03F1D10135332DE7D1F4B99DF8333030
:1039E000332B03D020460EB0BDE8F0819DF8323075
:1039F000302BF7D19DF83130302BF3D19DF830309A
:103A0000302BEFD1013F0DF1370316F8012F07F8E6
:103A1000012F9E42F9D10120E5E718460EB0BDE81E
:103A2000F08100BFF8B50025471E2C4617F8016F3E
:103A30000823744014F0010F4FEA540203F1FF33DE
:103A400014BF82F08C04C4F3470413F0FF03F1D1D8
:103A500028460EF011FC864209D0314628460EF069
:103A600025FC28460EF008FC3B78834204D1013542
:103A7000322DDBD1002600E00126214628460EF03B
:103A800015FC28460EF0F8FB84420CBF304601209E
:103A9000F8BD00BFF0B526492648274A09680068E6
:103AA000264B274D1B88274C2E682568264C91B045
:103AB00001330C90069192E803002449244A8DF8C2
:103AC0003800C0F30727096812688DF83970ADF81F
:103AD0000E30C0F30747030E1E4894F800E005922D
:103AE000089504911C4A1D4D1D4C1E49006892F812
:103AF00000C0079600222E780A90257891F90040A0
:103B00008DF82DE0602103A88DF82CC08DF80C10E5
:103B10008DF825608DF824500D94ADF83C208DF87B
:103B20003A708DF83B30FFF77DFF11B0F0BD00BF5C
:103B3000783E0020143E002030AA0100508C002066
:103B4000C43E0020B83E0020C83E0020681C022071
:103B5000C03E0020B43E0020413E0020B13E002087
:103B6000183E0020BC3E00202DE9F04FAD4AAE4B80
:103B70001468AE48AE491C600C328BB00C68056806
:103B80001268AC49AC489C60DA605D600EF088F861
:103B9000AA4AAB49A848DFF8F09210F0A9FFA94B58
:103BA000A9481A680792079C1A680892089A1B6825
:103BB0000993A64B099904601A60A54CA5482723D0
:103BC00002931B22A1F57A711C2301920093142207
:103BD000FF232160152106F065FD322225219E4834
:103BE0000DF0EAFC322224219C480DF0E5FC232252
:103BF00022219B48FEF7E0FC3222262199480DF055
:103C0000DBFC32221D2198480DF0D6FC1F221E211C
:103C10009648FEF7D1FC964B964993F90030964AA8
:103C200096480B7012685942017000239449C9F8F4
:103C3000001089F80930C9F8103089F80830C9F83F
:103C40000C300AB9A3E21A465369002BFBD1C2F823
:103C500014900024DFF884B28A4B8B48C9F81440D2
:103C6000A9F80440A9F8064089F80A40C9F80030CC
:103C700005F010FC0BF1180201215846FEF772FC0A
:103C8000824B83488BF8F440224621468BF8F5405E
:103C9000CBF8F0408BF8F640CBF80030FEF762FC32
:103CA0007B4A7C4B13607C4A794E7C4D18324FF432
:103CB0008043A2F1180002213362FEF753FC764ADA
:103CC000774B1360012005F224726D4E2C7223464F
:103CD0002146EC602E6068722A612C4600E0226961
:103CE00042F823106A7A6D4801339A42F7DC624B3E
:103CF0001A680AB94FE21A465369002BFBD1556185
:103D0000002468492960224601234FF48071664EE1
:103D100066486C61AC80EC80AC7285F8214785F810
:103D20002247C5F8186110F007FE534BDFF8888171
:103D30001A685349C5F81C41082385F8203788F8CC
:103D40000940C8F80010C8F8104088F80840C8F8C2
:103D50000C40494B0AB920E21A465369002BFBD1AB
:103D6000C2F814804FF0000A514B5248C8F814A012
:103D7000A8F804A0A8F806A088F80AA0C8F800309F
:103D800002F0A0FE4C484D4C4D4F4E4E05F030FE1B
:103D90002A4A4D49484810F0ABFE4C4B012103F133
:103DA00018021846FEF7DEFB484A494B1360494BA0
:103DB000042103F128021846FEF7D4FB464B03F119
:103DC00028021846434B04211C604FF480349C6148
:103DD000DC611C625C62FEF7C5FB3F4B374C1C602C
:103DE00007F128024FF48034042138469C61DC61DD
:103DF0001C625C62FEF7B6FB3049BC61022006F132
:103E00001802FC613C627C621D4C39603460534690
:103E1000514686F808A0C6F80CA07072326134468C
:103E20005FE000BF54800440808C00205880044034
:103E30005C80044038AA0100D84E00200C3E0020CF
:103E4000211C0100B4A50220281C0220248C002083
:103E5000049700203094002018940020C0190220FC
:103E600008970020F84E0020A4990020244F00203D
:103E7000BC3E00202C1C022024A5022028940020F7
:103E8000DCA801009CB10100E4960020CCB1010047
:103E9000908C0020D8B10100001A0220B88C0020BC
:103EA00090B101005CAF01007CAF0100E093002005
:103EB000C0B10100DC970020C4970020A8B1010028
:103EC000AC9600206C1C022071040000209700209A
:103ED00084B10100301C02200C980020449800207E
:103EE000226942F82310727AAE4801339A42F7DC15
:103EF000AD4B1A680AB953E11A465369002BFBD13E
:103F000056610024A94AAA4B7461B480F480B4724B
:103F1000A4483260059305F0F5FC059BDFF8E4A2A8
:103F20001C721846C3F800905F605C72DC601C7401
:103F30000DF0A4FC059B9F4A9F49184610F0D8FD40
:103F40009E4B059350468AE8000A8AF808408AF892
:103F50000940CAF80C408AF810400DF08FFC954AD1
:103F60009549DFF8A4B2504610F0C2FD059BDFF87A
:103F70009CA21C724FF001091846C3F800805F60D4
:103F8000DC601C7483F809900DF078FC059B894A6D
:103F90008949DFF87C82184610F0AAFD884BCBF8DF
:103FA000043058468BF80840CBF800708BF8094075
:103FB000CBF80C408BF810400DF060FC7D4A7E4938
:103FC000584610F095FD7F4BCAF8043050468AF8E9
:103FD0000840CAF800708AF80940CAF80C408AF80C
:103FE00010400DF04BFC734A7349DFF828B250467D
:103FF00010F07EFD724B88F80840404688E82800A3
:1040000088F80940C8F80C4088F810400DF036FCDC
:10401000684A69496C4B0593404610F069FD6B4B4B
:10402000DFF8F4A1CBF8043058468BF80840CBF801
:1040300000708BF80940CBF80C408BF810400DF065
:104040001DFC5C4A5C49DFF8D481614D584610F094
:104050004FFD604BCAF8003050465C4BCAF8043044
:104060008AF808408AF80990CAF80C408AF810408B
:104070000DF004FC50494F4ADFF8A4B1504610F04F
:1040800037FD059B4F4A1A601846534A1C725A6006
:1040900083F80990DC601C740DF0F0FB059B454A29
:1040A0004549DFF880A1184610F022FD474BC8F8BB
:1040B00000304046484BC8F8043088F8084088F87B
:1040C0000940C8F80C4088F810400DF0D7FB3A4979
:1040D000384A404610F00CFD022328463E4A6B72D7
:1040E0002C722F606A60EC602C740DF0C7FB314AB3
:1040F00031493A4F284610F0FBFC374B8BF808400B
:1041000058468BE848008BF80940CBF80C408BF8F8
:1041100010400DF0B3FB274A2749314D584610F0A7
:10412000E7FC2D4B8AF8084050468AE84800CAF858
:104130000C408AF810408AF809900DF09FFB504619
:104140001C4A1D49274E284C10F0D2FC274B284A08
:104150001B6828482849D0F800E0C7F800E003EBC6
:10416000430302EB830325489F685B682B600A22A8
:104170000C600A72376002F0A5FC0E4A20491F4805
:1041800010F0B6FC0EF02CF80BB0BDE8F08F064B2B
:10419000C3F800905DE51860B2E5C3F80080E1E582
:1041A0001860AEE66C1C022024A50220B4B1010008
:1041B000049400200C3E0020890400006C8C002038
:1041C000301C0220209700203C4F0020001A0220C3
:1041D000388C0020908C00200C980020208C00202F
:1041E00070990020C097002068AF0100B83E002001
:1041F00068A90100B43E0020544F0020909C02208A
:10420000E16A00003C990020D4190220E81902203C
:10421000909900200C4F00207C9900205C99002090
:10422000548C0020F093002030B500EB8004A400F3
:104230002D3424B2054683B022460021144809F0EB
:1042400065F8144B1B689D4212D04FF6E071104880
:1042500009F078F8104B53F82540204612F050FE34
:1042600002460B48214603B0BDE830400DF046BC85
:104270004FF6FF71064809F065F8002114230093FA
:1042800022460191F023024806F0F6FCE2E700BF67
:104290003094002050990020803E00202DE9F04FFE
:1042A0002DED028B3F4C404E404F9DB020464FF6C7
:1042B000E07109F047F8282500224FF400430193EC
:1042C000114620460095F023A66106F0D5FC4FF676
:1042D000FF7301930095F0232A462046002107F042
:1042E0007DFD3B68012B00F03383022B00F03D8302
:1042F00014224FF400438DE80C000021F0234FF40A
:104300008C7228482A4DDFF8BC8006F0B5FC2822C4
:104310004FF448738DE80C000021F0234FF496729F
:10432000204806F0A9FC002211461E4808F0EEFFC6
:10433000012220491B480DF0E1FB95F900101948B6
:104340000DF066FC02221C4916480DF0D7FB98F9C7
:10435000001014480DF05CFC3A68022A00F00F834C
:10436000022216490F48DFF860900DF0C7FB144B8E
:104370001C68204612F0C4FD2146024609480DF093
:10438000BDFB14220021074808F0C0FFD9F8003017
:10439000042B00F2EA81DFE813F0310137013D011F
:1043A000430119003094002058D701007C3E0020C2
:1043B000B13E002058AA01005CAA010064AA0100D5
:1043C00070990020183E0020FC9600200422BD4970
:1043D000BD480DF093FBBC4C14222046B42108F0DC
:1043E00095FFBA4B0AA8196808F0B0FF20464FF6AF
:1043F000E07108F0A7FF0B9A0C9B00920921B44AC8
:1044000004A812F013FC04A812F07AFD04A90246D5
:1044100020460DF073FB3B68032B00F0B8814FF48E
:1044200096720021A84808F071FF3B68032B00F04A
:104430008181A84EA84C3368A348012B0CBF4DF2D4
:104440009A614FF6E07108F07DFF2368052B03D1D8
:104450003268012A00F04C83A04E56F823A0504643
:1044600012F04EFD5146024697480DF047FB0122DF
:104470009B4995480DF042FB4FF6FF719248DFF8DB
:1044800058A208F05FFF2368012B00F09782022BEF
:1044900000F0CC80002B00F0D880032B00F0968237
:1044A000904B914C1B688848012B0CBF4DF29A61D0
:1044B0004FF6E07108F046FF236856F82300FEF738
:1044C000FDFEC0F1F00109B24FF496727E4808F08B
:1044D0001DFF236856F82340204612F011FD2146A7
:1044E000024679480DF00AFB3B68032B00F022815D
:1044F0004FF48C72002174487C4C08F007FF4FF693
:10450000E071714808F01EFF2378002B00F0A480B2
:10451000012B00F0AA80022B754C00F0B5804FF6FD
:10452000E071694808F00EFF724B227872491C78DE
:10453000724B052C0CBF1C460C46002A00F0AD80C7
:104540003B68032B55D0002B40F32982DFF8E0A114
:104550006B4DDAF80020DFF8C0B19FED6A7ADBF826
:104560000010002A1346B8BF02F1FF031B1207EE2A
:10457000903A91FBF3F185FB0205D217FAEEEF7A40
:10458000C2EB6535012D87EE278A4FEA41081DDD14
:1045900001244FF6E0760096052355224A4807EE9F
:1045A000904AF8EEE77A013467EE887AFDEEE77A12
:1045B000CDED037ABDF90C1006F0D4F9A542EAD18D
:1045C000DAF80030002BB8BFFF331B12D9F80020F7
:1045D000022A00F065824FF6E0730093572203230E
:1045E0000FFA88F1384807F0CDFB3B68012B00F04B
:1045F000FE811DB0BDEC028BBDE8F08F0222424966
:1046000031480DF07BFAE6E6072240492E480DF0CE
:1046100075FAE0E607223E492B480DF06FFADAE61C
:1046200006223C4928480DF069FAD4E63A4B3B494A
:104630001B68254881FB0321DB17C3EBA1110DF09B
:10464000E7FA2368002B7FF428AF95F900101E4885
:104650000DF0DEFA236820E7072231491A480DF0F1
:104660004DFA2378012B7FF456AF2E4B1B78002B8D
:1046700000F0868006222C4913480DF03FFA23787B
:104680001B4C022B7FF44BAF23780422002B72D1FA
:1046900026490D480DF032FA41E721460A4808F054
:1046A000CFFDC0F1EB0109B24FF48C72064808F05F
:1046B0002DFE204612F024FC2146024602480DF051
:1046C0001DFA3DE784AA01003094002000D0034089
:1046D00094AA0100BC97002058990020203E002099
:1046E000BCAB010000970020F04E0020084F0020D6
:1046F000D0190220403E002048AA010050AA010023
:10470000AD8BDB6800401C4668AA010074AA01005A
:104710007CAA01006CAA0100B43E0020D34D6210B7
:1047200004AB0100384F00200CAB01001CAB0100B2
:10473000C09700204DF29A61BB4808F003FE0622A4
:10474000BA49B9480DF0DAF9B948FEF7B7FDC0F13A
:10475000F00109B24FF49672B34808F0D7FD0B226E
:10476000B349B1480DF0CAF9C2E60522B149AE48D5
:104770000DF0C4F92FE6B049AB480DF0BFF9CEE615
:104780000722AE49A8480DF0B9F92378C3E62D22D7
:104790000021204608F0BAFD4FF6E071204608F0EF
:1047A000D1FDA74AA6611368002BC0F2BF810B2B75
:1047B000A8BF002303201360FFF736FDA14B9A48E2
:1047C00093F90030A04CA14E012B07BF0A22A0494B
:1047D000A0490C220DF092F993480DF0C9F904207C
:1047E000FFF722FD9C4B904893F900100DF010FA52
:1047F0008D480DF0BDF90520FFF716FD974B8A484F
:1048000093F900100DF004FA87480DF0B1F9062075
:10481000FFF70AFD924B1B6803EB430304EB830392
:10482000D3F804A0504612F06BFB514602467E4876
:104830000DF064F97C480DF09BF90720FFF7F4FCBC
:10484000884B1B6803EB430304EB8303D3F804A0FA
:10485000504612F055FB5146024673480DF04EF992
:1048600071480DF085F90820FFF7DEFC7E4B1B68D0
:1048700003EB430304EB83046468204612F040FB1F
:104880002146024668480DF039F967480DF070F985
:104890000020FFF7C9FC754A754B126853F8224097
:1048A000204612F02DFB214602465F480DF026F906
:1048B0000120FFF7B9FC6F4A6F4B126853F8224092
:1048C000204612F01DFB2146024657480DF016F90E
:1048D0000920FFF7A9FC316813A808F037FD13A9D8
:1048E0000EC907A8019100920921644A12F09EF9AD
:1048F00007A812F005FB07A902464B480DF0FEF889
:104900000A20FFF791FC316813A808F01FFD16A9D3
:104910000EC907A803F2B273019100920921584A07
:1049200012F084F907A812F0EBFA07A902463E48F4
:104930000DF0E4F80220FFF777FC524B1B68002BC8
:1049400040F0D0800822504937480DF0D7F866E58E
:1049500000211E2300932046F02301913C2206F003
:104960008BF93B68022B7FF4C3AC00210623009334
:104970000191F02354222C4806F07EF9B8E4434913
:1049800029480DF0BBF8424B42491B68264881FB81
:104990000321DB17C3EBA1110DF03AF9E0E4552236
:1049A0000021214808F0B2FC09223B491E480DF0C5
:1049B000A5F81DB0BDEC028BBDE8F08F98F9001092
:1049C00019480DF025F9DAF8003060E5244B1E4A4D
:1049D0001B6803EB430302EB83035C68204612F081
:1049E0008FFA2146024610480DF088F858E5DBF8AA
:1049F0000010284B294A83FB0103C917C1EBA313FD
:104A000013A8092112F012F9A8F10A0109B23C22F7
:104A1000054808F07BFC13A812F072FA13A90246AD
:104A200001480DF06BF8E4E530940020F0AA010095
:104A3000F8AA01008CAA010024AB010014AB01000C
:104A400050990020BC3E002068A9010000D003401E
:104A5000A0AA0100ACAA0100C83E0020413E0020EF
:104A6000B83E0020C43E0020783E0020C03E00201A
:104A7000503E0020681C0220643E0020BCAA0100B9
:104A8000CCAA0100143E0020DCAA010060AA0100AB
:104A9000B43E0020D34D62102CAB0100D4AA01001B
:104AA000234A244D92F9001095FBF3F54FF47A72E6
:104AB00002FB01F292FBF3F3ED1A6D005B001CB2F6
:104AC0002DB24FF6FF762B462146009655221A4806
:104AD00005F058FF2B46214600965922164805F04E
:104AE00051FF78E50622154913480DF007F896E4C2
:104AF000134B144A1B68144E03EB430A03EB8A035F
:104B000002EB030A50462E2112F004F9CAEB000210
:104B1000514601320D4812F0C3F90C4812F0F0F979
:104B20000A49024604480CF0E9FFA5E40A2341E6DD
:104B3000C83E00208038010030940020E8AA01001F
:104B4000FC19022060510020203E0020288C00200B
:104B5000074B10B5012401461C60064804F0F0F82C
:104B6000054B1C60FFF79AFB044B00221A6010BD36
:104B700088E100E0544F002008E100E02C94002080
:104B8000F0B58FB001A8FEF707FF044698B13B4986
:104B90000A9A3B4BBDF806709DF830609DF8315085
:104BA0009DF832000F80012A9DF833101E705D7051
:104BB0009870D97002D020460FB0F0BD3148324D08
:104BC000049E06603149059E314B2E60069E0E60A4
:104BD000039D304F30483149314E1A60029B3B6093
:104BE00003600D603560002D2FD0022D40D0012DC7
:104BF00035D000212B4806F0FDF9316829482A4EAE
:104C00000DF006F8294A9DF91D002949294B9DF808
:104C100025509DF824701070089A0D701A60377036
:104C2000FEF766FB9DF91C30234A244D137018468D
:104C3000FFF78EFF0B9B224822495AB25B4203705A
:104C400020462A700A700FB0F0BD2946154806F0BC
:104C500007FC2946134806F0DBF93568C5E7002153
:104C6000104806F0FDFB00210E4806F0D1F9C0E720
:104C700000210C4806F0CCF93568B8E7508C0020CC
:104C8000201C0220783E0020C43E0020B83E0020B8
:104C9000143E0020FC960020681C0220C03E00202C
:104CA0007C3E002030940020413E0020B13E002098
:104CB000C83E0020B43E0020183E0020BC3E00202C
:104CC000289400202C1C0220274B9FED286A93ED8E
:104CD000007ADFED276AB8EEC77A07EE900AC6EED3
:104CE000075AF8EEE77A67EEA57AF4EEE67AF1EE87
:104CF00010FA19DC1F4A204BC2ED007AF5EEC07A9B
:104D00000122F1EE10FA1A602BD49FED1C7AF4EE1A
:104D1000C77AF1EE10FA1BDD194B1A491A4A012025
:104D20000860D361FFF7BABAC7EE065A114B1748AD
:104D3000114A0121F2EE027AE5EEA67AC3ED006A8D
:104D4000FDEEE77A17EE903AF0EE667A03601160B6
:104D50009FED0F7A67EE877AFCEEE77A17EE903ACE
:104D6000DBE70023D9E700BFC0970020A6552C47FA
:104D700000E0AB461C3E002088E100E0A655AC46B2
:104D800080FFFF7F08E100E0908C0020B43E00200F
:104D90004B24BE4738B5104B1049114A114D00EB5A
:104DA000400003EB8003012498685B680B60286077
:104DB0001460FEF7C5FAC8200DF004FD0A4B186810
:104DC000FFF782FF094B14201C600DF0FBFCBDE8CF
:104DD0003840FFF763BA00BF68A90100709900204E
:104DE00088E100E0C0970020B43E002008E100E028
:104DF00008B50B48FEF79EFD0A4B1868FFF7CAFF7F
:104E00000021094806F0F6F80849094A094B0968E3
:104E100011604FF480329A61BDE80840FEF756BB3E
:104E200044980020B83E002030940020B09C02201E
:104E3000FC960020301C0220174B10B50122642084
:104E40001A700DF0BFFC154B1868002821DB0628EE
:104E5000A8BF0020124CFFF79DFF124B22681B6871
:104E6000002A03F1FF3303DB9A42D4BF1346002329
:104E700003EB43020C49236003EB820319440B4804
:104E80000D2212F0ABF809490948BDE8104004F0C2
:104E9000DDBD0520DEE700BFD0190220783E0020EE
:104EA000FC19022068970020605100206C970020B8
:104EB000C497002008B5064804F0A0FD054A064B3B
:104EC000106800221A70BDE80840FFF763BF00BFFA
:104ED000C4970020B83E0020D019022008B50A4B24
:104EE0001B781BB1094B93F8403003B108BDFFF7A5
:104EF000E1FF074B1B78002BF8D0064B1868BDE884
:104F00000840FFF799BF00BFD0190220C4970020C6
:104F1000A8960020783E00202DE9F04188B0D8B94D
:104F20008C498D4A8D4B096814681B680722F1B9BA
:104F30008B4909782344002966D0002B02F1FF3207
:104F4000C0F285809342C8BF0023002866D1834AFF
:104F5000136008B0BDE8F0810128FAD18149824A86
:104F6000824B096814681B6804220029E0D00129DB
:104F7000EFD1002CEDD0002B57D17D490A78224487
:104F800052B2002AC0F293805A2A1346A8BF5A236D
:104F900007EE903A9FED776ADFED776AB8EEE77A31
:104FA000DFED767A27EE067AE7EE267AFCEEE77AF0
:104FB000CDED017A724A0B70012515600199714897
:104FC00003F02EFF704B1D60644B1B68052BC0D196
:104FD000604B1B68012B59D0644B1B68032BB8D165
:104FE000604B1B68012BB4D1684B1B78022BB0D1EE
:104FF000674A1368E41860D4062CA8BF0024204632
:105000001460FFF7C7FEA4E7191F012995D8012CEA
:105010003AD0013408BF0323013A93E7012898D11D
:10502000524A136008B0BDE8F081032B11D1574BF1
:105030001B78022BC8D0574A1368E31839D40E2BBB
:10504000A8BF002318461360FFF7A4FEBCE7134671
:105050007BE7012B33D1504A137823445BB2002BFA
:1050600023DB3F2BA8BF3F2318461370FFF770FDCB
:105070004A4A4B4B00201060002103F5007243F8B0
:10508000041B9342FBD19FE70623C5E7454B4649E6
:1050900031481A6800680B681B1802F1FF320AD405
:1050A0009342C8BF00230B6096E70023DCE701931F
:1050B00080E70D23C6E71346F5E705249FE7022B9B
:1050C0003AD13A4E3A4D33680393039B2A689B1AB0
:1050D000B3F5FA7F2BD2F92B00F2ED80642B41F26D
:1050E000883328BF4FF4FA63324A334F126833488B
:1050F000396880FB02E0D24303FB0413D20F41F670
:105100005731C2EBE0128B424FF47A7000FB02F28F
:1051100010DD41F658319342C8BF0B4618463B603C
:10512000FFF7D2FD33680693069B2B604CE74FF4E4
:10513000FA73D9E71346F1E7062B7FF445AF002851
:1051400040D11F4E3368E3187AD40B2BA8BF00233D
:10515000336039E7BC97002054990020589900200B
:10516000394F002000970020E84E0020F04E00202C
:10517000B13E00200AD7233C00000143EE7CFF3EF5
:1051800088E100E0544F002008E100E0084F0020D3
:10519000783E0020B83E0020183E00207499002080
:1051A000604F002068970020FC190220B4A502205F
:1051B0004C8C0020C0970020B43E0020D34D6210DC
:1051C0005099002001287FF4FFAE6D4E3368032B09
:1051D00042D0042B36D0052B4BD16A4A1378234496
:1051E0005BB2042B43DD1F2BA8BF0523137033686C
:1051F0000A2B7FF4E9AE644B644D1B680593059F51
:105200002B68FB1AB3F5FA7F4BD2F92B51D8632BDD
:105210008CBF04EB4406A60001F03EFB5C4B06A9E4
:1052200003FB060001F0E2F906A801F0B7FA0DF061
:105230009DFA06A801F0B2FA01F07EFB2F60C3E6EA
:105240000A2385E7534A137823445BB20E2B2ADDE9
:10525000242BA8BF0F23C9E74F4A504892F90030CA
:105260004F4903705B425BB213700B70BFE71E23A4
:10527000BCE7062B0BD14B4A1368E31817D40E2B4F
:10528000A8BF002318461360FFF784FD3368ABB94D
:10529000454A1368E31808D4042BA8BF0023136001
:1052A000A5E72646B8E72323A0E70323F7E70D2366
:1052B000E8E76600B0E74FF47A7315E7012B09D1F0
:1052C0003A4A1368E31803D4052BA8BF0023E6E786
:1052D0000423E4E7022B09D1354A1368E31803D409
:1052E000022BA8BF0023DAE70123D8E7082B09D156
:1052F000304A1368E31803D4062BA8BF0023CEE777
:105300000523CCE7072B0AD12B4A13682344042B2F
:1053100003DD0E2BA8BF0523C1E70D23BFE7092B33
:105320007FF465AF184B194D1B680493DDF81080AE
:105330002B68C3EB0803B3F5FA7F1BD2F92B1BD8FC
:10534000632B8BBF0A27C4EB04176743BF0001F030
:10535000A3FA06A9384401F049F906A801F01EFA9B
:105360000DF004FA06A801F019FA01F0E5FAC5F803
:1053700000803CE72746EAE704EB8407E7E700BF45
:1053800050990020413E0020B4A502204C8C002002
:1053900080510100C83E0020BC3E0020289400201F
:1053A0002C1C0220B83E0020C03E0020681C0220B9
:1053B000143E0020783E0020C43E0020F0B583B0AB
:1053C000FEF71CFA254B264D1868264F264EFFF790
:1053D000E1FC28460021002406F042F84FF4A073B7
:1053E00022462846214600930194F02305F044FC10
:1053F00028464DF29A6107F0A5FF1C4BAB61214690
:105400002846642207F082FF0922194928460CF039
:1054100075FB384611F074FD3946024628460CF0FB
:105420006DFB144BAB61FEF739FF1348134D03F0CE
:105430003FFF134A13491448144B17688C610460EA
:105440004FF480313046DC61996114602F6004F0C4
:10545000DFFB012386F8F63003B0F0BDC43E002028
:10546000309400206C9700204498002074D70100ED
:1054700038AB010058D7010020970020B09C0220D3
:10548000FC960020301C0220549400200C98002030
:10549000F8B57F4A137C012B40F2918072B6D36835
:1054A00062B67C4E002BB8BF033332689C10944226
:1054B0002FDD794B794D93F900302B60002B35D1DE
:1054C000774A3460137C012B38D972B6D36862B640
:1054D000744E002BB8BF033332689C1094420FDD2A
:1054E0006D4B714F93F900303B60DBB92B68346032
:1054F00013B93B68002B59D0BDE8F840FEF7CEBE8B
:1055000059DA6A4B684F93F900303B60002BEDD0BD
:1055100008E04CDA654B614D93F900302B60002BAD
:10552000CED003E00020FFF7F7FCDFE70120FFF714
:10553000F3FC5B4A3460137C012BC6D872B6136847
:10554000506819780478507A137A044201EA03010A
:105550006ED0937A03F0030309B143F0040343F0E0
:1055600008039910013B91720D2BAFD801A151F89E
:1055700023F000BF69560000615600005956000034
:1055800061560000CD5400005156000069560000DD
:105590006956000051560000CD54000061560000CD
:1055A000595600006156000069560000F8BD3B4D99
:1055B00000232B6084E73C4F00233B6096E772B6E4
:1055C0001368506819780478507A137A044201EA13
:1055D000030135D0937A03F0030309B143F00403C8
:1055E00043F008039910013B91720D2B3FF657AF22
:1055F00001A151F823F000BF895600008156000038
:1056000079560000815600009F540000715600003A
:105610008956000089560000715600009F54000012
:10562000815600007956000081560000895600001E
:10563000937A03F00303002993D043F0040390E727
:10564000937A03F003030029CCD043F00403C9E7A5
:10565000D368023BD3603AE7D3680233D36036E7BE
:10566000D368013BD36032E7D3680133D3602EE7C0
:10567000D368023BD36013E7D3680233D3600FE7EC
:10568000D368013BD3600BE7D3680133D36007E7EE
:1056900008970020089800202C1C0220E84E0020CB
:1056A000244F0020688C002054990020289400206A
:1056B000F0B5A94C237883B04BB1A8480BF0B2FFEA
:1056C000A6480BF0D5FF002864D103B0F0BDA44874
:1056D0000BF0A8FFA3480BF0A5FFA0480BF0A2FF1A
:1056E000A1480BF09FFFA0480BF0C2FF50B19F4AAA
:1056F00013680133042BC8BF00231360FDF7E6FED7
:10570000FEF7CCFD95480BF0B3FF78B1984E3368A7
:10571000032B74D0974D2A78002A7DD0022A00F0FE
:105720009B80012A00F08D80FEF7B8FD8C480BF0BD
:105730009FFFD0B1904C914D23682E68B3FA83F34C
:105740005B09062E236031D08D4B1B785BB12B6833
:105750008A4E042B00F0F580052B256800F0BB80F5
:10576000002D00F09180FEF799FD7E480BF080FF40
:105770000028AAD07E4B1B68032B00F0CF80814A03
:105780001368B3FA83F35B09136003B0BDE8F0401C
:10579000FEF784BDFFF72CFB64200DF013F8002307
:1057A000237003B0BDE8F040FEF778BD704B1A6877
:1057B000032A00F00B816D487349DFF8DCE10768CC
:1057C0000F607248CEF80020032700211F6005F00B
:1057D00011FC00216D4805F043FE0027F0233946F7
:1057E000009328220197694805F046FA684B6949F9
:1057F000644A1F6001230E6013602360A4E7664BB8
:105800005D485C4D1B685F4F6249002202600120C9
:10581000013B2A703A6008600133002B3360544A20
:10582000C0F2CC80022B23DC23B3022B00F0C88013
:10583000012B00F0DD800021544805F0DBFB2A78C5
:105840006CE723784449002B7FF46EAF0A70FEF7B3
:1058500025FDFFF7B3FD67E7504E3378002B34D1B9
:105860004F4A012310683370FFF7E6FA2A7858E7A9
:10587000002313600021454805F0F2FD0021434854
:1058800005F0C6FB3368D0E7464E3068FFF782FA72
:10589000454A464B10681860FFF716FA444A4549D6
:1058A000206815624FF48033D36193618B61CD61C1
:1058B00000287FF458AF2F4B1A78022A7FF453AF99
:1058C00030681D70FFF766FA4DE7FFF7F3FA002323
:1058D0002A78337025E7012D274E7FF441AF254B01
:1058E00002221A70FDF766FF30492F4A304B3148CB
:1058F0000968116000224FF48031DA619A61826197
:105900001962C161FDF7B6FE1E4A224B156035686B
:1059100003221A60002D7FF426AFB5E7FEF7BAF830
:105920004FF6FF71194807F00DFD4FF48272962172
:10593000164807F0EBFC05221F4914480CF0DEF86E
:1059400023E72568012D7FF40BAF0A4B1D70FDF78F
:1059500041FF336800E700BF384F0020F84E0020B9
:10596000A4990020C019022018940020FC96002061
:105970007C3E0020084F0020BC9700205899002052
:10598000394F002000970020B09C02203094002066
:1059900050990020F04E0020AC3E0020D01902208B
:1059A000783E0020B83E0020208C0020B43E00202D
:1059B0000C980020AC96002044AB01000223136039
:1059C0000021104805F024FB336831E70E490F48E9
:1059D0000F4A0968066819600A481660002105F038
:1059E00009FB0C490C4B0020012208601A60ABE651
:1059F0000021044805F034FD0021024805F008FBB1
:105A000019E700BF30940020AC3E0020B09C02207B
:105A1000FC96002000970020F04E0020F0B52DED00
:105A2000028BCA48CA4FCB4ECB4C8FB005F030FF2B
:105A30000021C64805F0ECFA0021C44805F010FD2D
:105A40004FF6FF71C14807F07DFC0021BF4805F00B
:105A5000D1FA00221146BD4807F058FC022124204B
:105A60000CF0AAFE02211D200CF0A6FE022125202A
:105A70000CF0A2FE022126200CF09EFEB749B84A87
:105A8000B84800230B6002254FF4967115603B6007
:105A900033600BF0F7FDB44800F070FF204603F0D0
:105AA000E1F8204640F273122A2103F0AFF80028F3
:105AB00040F0C281AD4B9FEDAE6A93F90030DFED4F
:105AC000AD6A9FEDAD7AA44807EE903AF8EEE77A1A
:105AD00067EE867AA7EEA67AFCEEC77A17EE901AE2
