:1000000000000320D10100005D0D0100150D01006D
:10001000150D0100150D0100150D0100150D010054
:10002000150D0100150D0100150D01005D0D0100FC
:100030005D0D0100150D010051250100552601003F
:100040005D0D01005D0D01005D0D01005D0D010004
:100050005D0D01005D0D01005D0D01005D0D0100F4
:100060005D0D01005D0D01005D0D01005D0D0100E4
:100070005D0D01005D0D01005D0D01005D0D0100D4
:100080005D0D01005D0D01005D0D01005D0D0100C4
:100090005D0D01005D0D01005D0D01005D0D0100B4
:1000A000B1400100BD4001005D0D01005D0D01008A
:1000B0005D0D01005D0D01005D0D01007D2701005A
:1000C0005D0D0100A92801005D0D0100D529010089
:1000D0005D0D0100CD2A01005D0D01005D0D0100E7
:1000E0005D0D01005D0D01005D0D01005D0D010064
:1000F0005D0D01005D0D01005D0D01005D0D010054
:100100005D0D01005D0D01005D0D01005D0D010043
:100110005D0D0100511401005D0D01005D0D010038
:100120005D0D01005D0D01005D0D01005D0D010023
:100130005D0D01005D0D01005D0D01005D0D010013
:10014000D10601005D0D0100C52B01005D0D010010
:100150005D0D01005D0D01005D0D01005D0D0100F3
:100160005D0D01005D0D0100C94001005D0D010044
:100170005D0D01005D0D01005D0D01005D0D0100D3
:100180005D0D01005D0D01005D0D01005D0D0100C3
:100190005D0D01005D0D0100BD2C01005D0D010034
:1001A0005D0D01005D0D01005D0D01005D0D0100A3
:1001B0005D0D01005D0D01005D0D01005D0D010093
:1001C0005D0D01005D0D01005D0D01005D0D010083
:1001D0005C4B4CF2205210B51A804DF628121A8052
:1001E00000BF00BF10F0BEFD574B4FF030621A60E9
:1001F000564A9A60564ADA60564B4FF470021A60BB
:10020000554B564A1A60564A136813F4807304D14A
:1002100054490B604FF4A8531360534B1A781107DD
:1002200003D51A7842F008021A70504B5049AA229E
:100230001A70504A504B8B4204D252F8040F43F8C4
:10024000040BF8E74D4B4E4900228B4202D243F893
:10025000042BFAE74B494C4A002352F8230041F89B
:1002600023000133742BF8D1484B494A802103F80D
:10027000011B9342FBD1474B424A1A60464B8A22EC
:100280001A70A3F5805324225A70A0221A709A790A
:100290009207FCD59A79D406FCD4404A937903F0AE
:1002A0000C03082BFAD13E4B60221A7002331A78E5
:1002B000802AFCD1394B01221A715D225A719A7938
:1002C0009006FCD59979354A4906FBD5354B364918
:1002D00019600021596020231370937903F00C03F7
:1002E0000C2BFAD1314B324A1A60324B324A1A6027
:1002F00000225A60072243F8042C304AC3F80C2D20
:1003000062B610F015FF174B1B68DA0705D52C48AD
:1003100010F090FE2B4B2C4A1A602C4B1B785B067E
:1003200009D5284C284B22689A4204D1244810F061
:1003300081FE0023236014F0CDFC10F019FD10F0B5
:1003400047FCFEE70E20054030800440823F040059
:100350000100002B88ED00E0002008E0030000858C
:1003600010D0034014D0034002D0074000E0074003
:10037000904C00205CD70200303D0020904C0020C3
:10038000DC790220003800200000000000E400E0DA
:1003900064E400E008ED00E0005006400040064044
:1003A00001E007404480044000000602048004404D
:1003B000C010070014E000E01FBF02000000202072
:1003C000ED75315D1CE00340A5C3945A00F0074071
:1003D000FFFFFFFFFFFFFFFFFFFFFFFFFFFFFFFF2D
:1003E000FFFFFFFFFFFFFFFFFFFFFFFFFFFFFFFF1D
:1003F000FFFFFFFFFFFFFFFFFFFFFFFFFFFFFFFF0D
:10040000FFFFFFFFFFFFFFFFFFFFFFFFDEF9FFFF23
:1004100010B5054C237833B9044B13B10448AFF33E
:1004200000800123237010BD904C002000000000CC
:1004300058D70200084B10B51BB108490848AFF364
:1004400000800848036803B910BD074B002BFBD0A0
:10045000BDE81040184700BF00000000944C002089
:1004600058D70200904C00200000000010F0DCBDC6
:1004700010B5044B044640F8183B08F02FFB20460B
:1004800010BD00BFCCA3010010B5044610F0D8F891
:10049000204610BD214B10B4D3F8A8201368506833
:1004A00019780478507A137A044201EA03011BD0C8
:1004B000937A03F0030309B143F0040343F0080304
:1004C0009910013B91720D2B0BD8DFE803F0210747
:1004D0001B070A152121150A071B0721D368013BB9
:1004E000D3605DF8044B7047937A03F0030300294F
:1004F000E6D043F00403E3E7D3685DF8044B023B26
:10050000D3607047D3685DF8044B0233D360704703
:10051000D3685DF8044B0133D36070476C6C0220E4
:10052000214B10B4D3F8AC201368506819780478C4
:10053000507A137A044201EA03011BD0937A03F044
:10054000030309B143F0040343F008039910013B8E
:1005500091720D2B0BD8DFE803F021071B070A155A
:100560002121150A071B0721D368013BD3605DF8E1
:10057000044B7047937A03F003030029E6D043F05D
:100580000403E3E7D3685DF8044B023BD360704794
:10059000D3685DF8044B0233D3607047D3685DF8CD
:1005A000044B0133D36070476C6C0220214B10B4B4
:1005B000D3F8B0201368506819780478507A137A09
:1005C000044201EA03011BD0937A03F0030309B14B
:1005D00043F0040343F008039910013B91720D2B83
:1005E0000BD8DFE803F021071B070A152121150AA4
:1005F000071B0721D368013BD3605DF8044B7047AC
:10060000937A03F003030029E6D043F00403E3E701
:10061000D3685DF8044B023BD3607047D3685DF844
:10062000044B0233D3607047D3685DF8044B013349
:10063000D36070476C6C0220214B10B4D3F8B42007
:100640001368506819780478507A137A044201EAE2
:1006500003011BD0937A03F0030309B143F00403B1
:1006600043F008039910013B91720D2B0BD8DFE882
:1006700003F021071B070A152121150A071B072173
:10068000D368013BD3605DF8044B7047937A03F065
:1006900003030029E6D043F00403E3E7D3685DF8E1
:1006A000044B023BD3607047D3685DF8044B0233C0
:1006B000D3607047D3685DF8044B0133D360704753
:1006C0006C6C0220214B10B4D3F8B820136850682A
:1006D00019780478507A137A044201EA03011BD096
:1006E000937A03F0030309B143F0040343F00803D2
:1006F0009910013B91720D2B0BD8DFE803F0210715
:100700001B070A152121150A071B0721D368013B86
:10071000D3605DF8044B7047937A03F0030300291C
:10072000E6D043F00403E3E7D3685DF8044B023BF3
:10073000D3607047D3685DF8044B0233D3607047D1
:10074000D3685DF8044B0133D36070476C6C0220B2
:10075000214B10B4D3F8BC20136850681978047882
:10076000507A137A044201EA03011BD0937A03F012
:10077000030309B143F0040343F008039910013B5C
:1007800091720D2B0BD8DFE803F021071B070A1528
:100790002121150A071B0721D368013BD3605DF8AF
:1007A000044B7047937A03F003030029E6D043F02B
:1007B0000403E3E7D3685DF8044B023BD360704762
:1007C000D3685DF8044B0233D3607047D3685DF89B
:1007D000044B0133D36070476C6C0220214B10B482
:1007E000D3F8C0201368506819780478507A137AC7
:1007F000044201EA03011BD0937A03F0030309B119
:1008000043F0040343F008039910013B91720D2B50
:100810000BD8DFE803F021071B070A152121150A71
:10082000071B0721D368013BD3605DF8044B704779
:10083000937A03F003030029E6D043F00403E3E7CF
:10084000D3685DF8044B023BD3607047D3685DF812
:10085000044B0233D3607047D3685DF8044B013317
:10086000D36070476C6C0220214B10B4D3F8C420C5
:100870001368506819780478507A137A044201EAB0
:1008800003011BD0937A03F0030309B143F004037F
:1008900043F008039910013B91720D2B0BD8DFE850
:1008A00003F021071B070A152121150A071B072141
:1008B000D368013BD3605DF8044B7047937A03F033
:1008C00003030029E6D043F00403E3E7D3685DF8AF
:1008D000044B023BD3607047D3685DF8044B02338E
:1008E000D3607047D3685DF8044B0133D360704721
:1008F0006C6C0220214B10B4D3F8C82013685068E8
:1009000019780478507A137A044201EA03011BD063
:10091000937A03F0030309B143F0040343F008039F
:100920009910013B91720D2B0BD8DFE803F02107E2
:100930001B070A152121150A071B0721D368013B54
:10094000D3605DF8044B7047937A03F003030029EA
:10095000E6D043F00403E3E7D3685DF8044B023BC1
:10096000D3607047D3685DF8044B0233D36070479F
:10097000D3685DF8044B0133D36070476C6C022080
:10098000214B10B4D3F8CC20136850681978047840
:10099000507A137A044201EA03011BD0937A03F0E0
:1009A000030309B143F0040343F008039910013B2A
:1009B00091720D2B0BD8DFE803F021071B070A15F6
:1009C0002121150A071B0721D368013BD3605DF87D
:1009D000044B7047937A03F003030029E6D043F0F9
:1009E0000403E3E7D3685DF8044B023BD360704730
:1009F000D3685DF8044B0233D3607047D3685DF869
:100A0000044B0133D36070476C6C0220214B10B44F
:100A1000D3F8D0201368506819780478507A137A84
:100A2000044201EA03011BD0937A03F0030309B1E6
:100A300043F0040343F008039910013B91720D2B1E
:100A40000BD8DFE803F021071B070A152121150A3F
:100A5000071B0721D368013BD3605DF8044B704747
:100A6000937A03F003030029E6D043F00403E3E79D
:100A7000D3685DF8044B023BD3607047D3685DF8E0
:100A8000044B0233D3607047D3685DF8044B0133E5
:100A9000D36070476C6C0220214B10B4D3F8D42083
:100AA0001368506819780478507A137A044201EA7E
:100AB00003011BD0937A03F0030309B143F004034D
:100AC00043F008039910013B91720D2B0BD8DFE81E
:100AD00003F021071B070A152121150A071B07210F
:100AE000D368013BD3605DF8044B7047937A03F001
:100AF00003030029E6D043F00403E3E7D3685DF87D
:100B0000044B023BD3607047D3685DF8044B02335B
:100B1000D3607047D3685DF8044B0133D3607047EE
:100B20006C6C0220214B10B4D3F8D82013685068A5
:100B300019780478507A137A044201EA03011BD031
:100B4000937A03F0030309B143F0040343F008036D
:100B50009910013B91720D2B0BD8DFE803F02107B0
:100B60001B070A152121150A071B0721D368013B22
:100B7000D3605DF8044B7047937A03F003030029B8
:100B8000E6D043F00403E3E7D3685DF8044B023B8F
:100B9000D3607047D3685DF8044B0233D36070476D
:100BA000D3685DF8044B0133D36070476C6C02204E
:100BB000214B10B4D3F8DC201368506819780478FE
:100BC000507A137A044201EA03011BD0937A03F0AE
:100BD000030309B143F0040343F008039910013BF8
:100BE00091720D2B0BD8DFE803F021071B070A15C4
:100BF0002121150A071B0721D368013BD3605DF84B
:100C0000044B7047937A03F003030029E6D043F0C6
:100C10000403E3E7D3685DF8044B023BD3607047FD
:100C2000D3685DF8044B0233D3607047D3685DF836
:100C3000044B0133D36070476C6C0220214B10B41D
:100C4000D3F8E0201368506819780478507A137A42
:100C5000044201EA03011BD0937A03F0030309B1B4
:100C600043F0040343F008039910013B91720D2BEC
:100C70000BD8DFE803F021071B070A152121150A0D
:100C8000071B0721D368013BD3605DF8044B704715
:100C9000937A03F003030029E6D043F00403E3E76B
:100CA000D3685DF8044B023BD3607047D3685DF8AE
:100CB000044B0233D3607047D3685DF8044B0133B3
:100CC000D36070476C6C0220214B10B4D3F8E42041
:100CD0001368506819780478507A137A044201EA4C
:100CE00003011BD0937A03F0030309B143F004031B
:100CF00043F008039910013B91720D2B0BD8DFE8EC
:100D000003F021071B070A152121150A071B0721DC
:100D1000D368013BD3605DF8044B7047937A03F0CE
:100D200003030029E6D043F00403E3E7D3685DF84A
:100D3000044B023BD3607047D3685DF8044B023329
:100D4000D3607047D3685DF8044B0133D3607047BC
:100D50006C6C0220214B10B4D3F8E8201368506863
:100D600019780478507A137A044201EA03011BD0FF
:100D7000937A03F0030309B143F0040343F008033B
:100D80009910013B91720D2B0BD8DFE803F021077E
:100D90001B070A152121150A071B0721D368013BF0
:100DA000D3605DF8044B7047937A03F00303002986
:100DB000E6D043F00403E3E7D3685DF8044B023B5D
:100DC000D3607047D3685DF8044B0233D36070473B
:100DD000D3685DF8044B0133D36070476C6C02201C
:100DE000214B10B4D3F8EC201368506819780478BC
:100DF000507A137A044201EA03011BD0937A03F07C
:100E0000030309B143F0040343F008039910013BC5
:100E100091720D2B0BD8DFE803F021071B070A1591
:100E20002121150A071B0721D368013BD3605DF818
:100E3000044B7047937A03F003030029E6D043F094
:100E40000403E3E7D3685DF8044B023BD3607047CB
:100E5000D3685DF8044B0233D3607047D3685DF804
:100E6000044B0133D36070476C6C0220214B10B4EB
:100E70001A681368506819780478507A137A044213
:100E800001EA03011BD0937A03F0030309B143F095
:100E9000040343F008039910013B91720D2B0BD80A
:100EA000DFE803F021071B070A152121150A071B9C
:100EB0000721D368013BD3605DF8044B7047937AF8
:100EC00003F003030029E6D043F00403E3E7D3680B
:100ED0005DF8044B023BD3607047D3685DF8044B68
:100EE0000233D3607047D3685DF8044B0133D3609D
:100EF000704700BF6C6C0220214B10B45A68136815
:100F0000506819780478507A137A044201EA030190
:100F10001BD0937A03F0030309B143F0040343F0B9
:100F200008039910013B91720D2B0BD8DFE803F0F9
:100F300021071B070A152121150A071B0721D36862
:100F4000013BD3605DF8044B7047937A03F00303D1
:100F50000029E6D043F00403E3E7D3685DF8044BCF
:100F6000023BD3607047D3685DF8044B0233D36013
:100F70007047D3685DF8044B0133D360704700BFFE
:100F80006C6C0220214B10B49A6813685068197871
:100F90000478507A137A044201EA03011BD0937A51
:100FA00003F0030309B143F0040343F0080399106D
:100FB000013B91720D2B0BD8DFE803F021071B07D3
:100FC0000A152121150A071B0721D368013BD360AD
:100FD0005DF8044B7047937A03F003030029E6D0D1
:100FE00043F00403E3E7D3685DF8044B023BD360AE
:100FF0007047D3685DF8044B0233D3607047D36801
:101000005DF8044B0133D360704700BF6C6C022065
:10101000214B10B4DA681368506819780478507A54
:10102000137A044201EA03011BD0937A03F003030D
:1010300009B143F0040343F008039910013B917296
:101040000D2B0BD8DFE803F021071B070A15212120
:10105000150A071B0721D368013BD3605DF8044BD9
:101060007047937A03F003030029E6D043F00403AA
:10107000E3E7D3685DF8044B023BD3607047D36865
:101080005DF8044B0233D3607047D3685DF8044BBE
:101090000133D360704700BF6C6C0220214B10B449
:1010A0001A691368506819780478507A137A0442E0
:1010B00001EA03011BD0937A03F0030309B143F063
:1010C000040343F008039910013B91720D2B0BD8D8
:1010D000DFE803F021071B070A152121150A071B6A
:1010E0000721D368013BD3605DF8044B7047937AC6
:1010F00003F003030029E6D043F00403E3E7D368D9
:101100005DF8044B023BD3607047D3685DF8044B35
:101110000233D3607047D3685DF8044B0133D3606A
:10112000704700BF6C6C0220214B10B45A691368E1
:10113000506819780478507A137A044201EA03015E
:101140001BD0937A03F0030309B143F0040343F087
:1011500008039910013B91720D2B0BD8DFE803F0C7
:1011600021071B070A152121150A071B0721D36830
:10117000013BD3605DF8044B7047937A03F003039F
:101180000029E6D043F00403E3E7D3685DF8044B9D
:10119000023BD3607047D3685DF8044B0233D360E1
:1011A0007047D3685DF8044B0133D360704700BFCC
:1011B0006C6C0220214B10B49A691368506819783E
:1011C0000478507A137A044201EA03011BD0937A1F
:1011D00003F0030309B143F0040343F0080399103B
:1011E000013B91720D2B0BD8DFE803F021071B07A1
:1011F0000A152121150A071B0721D368013BD3607B
:101200005DF8044B7047937A03F003030029E6D09E
:1012100043F00403E3E7D3685DF8044B023BD3607B
:101220007047D3685DF8044B0233D3607047D368CE
:101230005DF8044B0133D360704700BF6C6C022033
:10124000214B10B4DA691368506819780478507A21
:10125000137A044201EA03011BD0937A03F00303DB
:1012600009B143F0040343F008039910013B917264
:101270000D2B0BD8DFE803F021071B070A152121EE
:10128000150A071B0721D368013BD3605DF8044BA7
:101290007047937A03F003030029E6D043F0040378
:1012A000E3E7D3685DF8044B023BD3607047D36833
:1012B0005DF8044B0233D3607047D3685DF8044B8C
:1012C0000133D360704700BF6C6C0220214B10B417
:1012D0001A6A1368506819780478507A137A0442AD
:1012E00001EA03011BD0937A03F0030309B143F031
:1012F000040343F008039910013B91720D2B0BD8A6
:10130000DFE803F021071B070A152121150A071B37
:101310000721D368013BD3605DF8044B7047937A93
:1013200003F003030029E6D043F00403E3E7D368A6
:101330005DF8044B023BD3607047D3685DF8044B03
:101340000233D3607047D3685DF8044B0133D36038
:10135000704700BF6C6C0220214B10B45A6A1368AE
:10136000506819780478507A137A044201EA03012C
:101370001BD0937A03F0030309B143F0040343F055
:1013800008039910013B91720D2B0BD8DFE803F095
:1013900021071B070A152121150A071B0721D368FE
:1013A000013BD3605DF8044B7047937A03F003036D
:1013B0000029E6D043F00403E3E7D3685DF8044B6B
:1013C000023BD3607047D3685DF8044B0233D360AF
:1013D0007047D3685DF8044B0133D360704700BF9A
:1013E0006C6C0220214B10B49A6A1368506819780B
:1013F0000478507A137A044201EA03011BD0937AED
:1014000003F0030309B143F0040343F00803991008
:10141000013B91720D2B0BD8DFE803F021071B076E
:101420000A152121150A071B0721D368013BD36048
:101430005DF8044B7047937A03F003030029E6D06C
:1014400043F00403E3E7D3685DF8044B023BD36049
:101450007047D3685DF8044B0233D3607047D3689C
:101460005DF8044B0133D360704700BF6C6C022001
:10147000214B10B4DA6A1368506819780478507AEE
:10148000137A044201EA03011BD0937A03F00303A9
:1014900009B143F0040343F008039910013B917232
:1014A0000D2B0BD8DFE803F021071B070A152121BC
:1014B000150A071B0721D368013BD3605DF8044B75
:1014C0007047937A03F003030029E6D043F0040346
:1014D000E3E7D3685DF8044B023BD3607047D36801
:1014E0005DF8044B0233D3607047D3685DF8044B5A
:1014F0000133D360704700BF6C6C0220214B10B4E5
:101500001A6B1368506819780478507A137A044279
:1015100001EA03011BD0937A03F0030309B143F0FE
:10152000040343F008039910013B91720D2B0BD873
:10153000DFE803F021071B070A152121150A071B05
:101540000721D368013BD3605DF8044B7047937A61
:1015500003F003030029E6D043F00403E3E7D36874
:101560005DF8044B023BD3607047D3685DF8044BD1
:101570000233D3607047D3685DF8044B0133D36006
:10158000704700BF6C6C0220214B10B45A6B13687B
:10159000506819780478507A137A044201EA0301FA
:1015A0001BD0937A03F0030309B143F0040343F023
:1015B00008039910013B91720D2B0BD8DFE803F063
:1015C00021071B070A152121150A071B0721D368CC
:1015D000013BD3605DF8044B7047937A03F003033B
:1015E0000029E6D043F00403E3E7D3685DF8044B39
:1015F000023BD3607047D3685DF8044B0233D3607D
:101600007047D3685DF8044B0133D360704700BF67
:101610006C6C0220214B10B49A6B136850681978D7
:101620000478507A137A044201EA03011BD0937ABA
:1016300003F0030309B143F0040343F008039910D6
:10164000013B91720D2B0BD8DFE803F021071B073C
:101650000A152121150A071B0721D368013BD36016
:101660005DF8044B7047937A03F003030029E6D03A
:1016700043F00403E3E7D3685DF8044B023BD36017
:101680007047D3685DF8044B0233D3607047D3686A
:101690005DF8044B0133D360704700BF6C6C0220CF
:1016A000214B10B4DA6B1368506819780478507ABB
:1016B000137A044201EA03011BD0937A03F0030377
:1016C00009B143F0040343F008039910013B917200
:1016D0000D2B0BD8DFE803F021071B070A1521218A
:1016E000150A071B0721D368013BD3605DF8044B43
:1016F0007047937A03F003030029E6D043F0040314
:10170000E3E7D3685DF8044B023BD3607047D368CE
:101710005DF8044B0233D3607047D3685DF8044B27
:101720000133D360704700BF6C6C0220214B10B4B2
:101730001A6C1368506819780478507A137A044246
:1017400001EA03011BD0937A03F0030309B143F0CC
:10175000040343F008039910013B91720D2B0BD841
:10176000DFE803F021071B070A152121150A071BD3
:101770000721D368013BD3605DF8044B7047937A2F
:1017800003F003030029E6D043F00403E3E7D36842
:101790005DF8044B023BD3607047D3685DF8044B9F
:1017A0000233D3607047D3685DF8044B0133D360D4
:1017B000704700BF6C6C0220214B10B45A6C136848
:1017C000506819780478507A137A044201EA0301C8
:1017D0001BD0937A03F0030309B143F0040343F0F1
:1017E00008039910013B91720D2B0BD8DFE803F031
:1017F00021071B070A152121150A071B0721D3689A
:10180000013BD3605DF8044B7047937A03F0030308
:101810000029E6D043F00403E3E7D3685DF8044B06
:10182000023BD3607047D3685DF8044B0233D3604A
:101830007047D3685DF8044B0133D360704700BF35
:101840006C6C0220214B10B49A6C136850681978A4
:101850000478507A137A044201EA03011BD0937A88
:1018600003F0030309B143F0040343F008039910A4
:10187000013B91720D2B0BD8DFE803F021071B070A
:101880000A152121150A071B0721D368013BD360E4
:101890005DF8044B7047937A03F003030029E6D008
:1018A00043F00403E3E7D3685DF8044B023BD360E5
:1018B0007047D3685DF8044B0233D3607047D36838
:1018C0005DF8044B0133D360704700BF6C6C02209D
:1018D000214B10B4DA6C1368506819780478507A88
:1018E000137A044201EA03011BD0937A03F0030345
:1018F00009B143F0040343F008039910013B9172CE
:101900000D2B0BD8DFE803F021071B070A15212157
:10191000150A071B0721D368013BD3605DF8044B10
:101920007047937A03F003030029E6D043F00403E1
:10193000E3E7D3685DF8044B023BD3607047D3689C
:101940005DF8044B0233D3607047D3685DF8044BF5
:101950000133D360704700BF6C6C0220214B10B480
:101960001A6D1368506819780478507A137A044213
:1019700001EA03011BD0937A03F0030309B143F09A
:10198000040343F008039910013B91720D2B0BD80F
:10199000DFE803F021071B070A152121150A071BA1
:1019A0000721D368013BD3605DF8044B7047937AFD
:1019B00003F003030029E6D043F00403E3E7D36810
:1019C0005DF8044B023BD3607047D3685DF8044B6D
:1019D0000233D3607047D3685DF8044B0133D360A2
:1019E000704700BF6C6C0220214B10B45A6D136815
:1019F000506819780478507A137A044201EA030196
:101A00001BD0937A03F0030309B143F0040343F0BE
:101A100008039910013B91720D2B0BD8DFE803F0FE
:101A200021071B070A152121150A071B0721D36867
:101A3000013BD3605DF8044B7047937A03F00303D6
:101A40000029E6D043F00403E3E7D3685DF8044BD4
:101A5000023BD3607047D3685DF8044B0233D36018
:101A60007047D3685DF8044B0133D360704700BF03
:101A70006C6C0220214B10B49A6D13685068197871
:101A80000478507A137A044201EA03011BD0937A56
:101A900003F0030309B143F0040343F00803991072
:101AA000013B91720D2B0BD8DFE803F021071B07D8
:101AB0000A152121150A071B0721D368013BD360B2
:101AC0005DF8044B7047937A03F003030029E6D0D6
:101AD00043F00403E3E7D3685DF8044B023BD360B3
:101AE0007047D3685DF8044B0233D3607047D36806
:101AF0005DF8044B0133D360704700BF6C6C02206B
:101B0000214B10B4DA6D1368506819780478507A54
:101B1000137A044201EA03011BD0937A03F0030312
:101B200009B143F0040343F008039910013B91729B
:101B30000D2B0BD8DFE803F021071B070A15212125
:101B4000150A071B0721D368013BD3605DF8044BDE
:101B50007047937A03F003030029E6D043F00403AF
:101B6000E3E7D3685DF8044B023BD3607047D3686A
:101B70005DF8044B0233D3607047D3685DF8044BC3
:101B80000133D360704700BF6C6C0220214B10B44E
:101B90001A6E1368506819780478507A137A0442E0
:101BA00001EA03011BD0937A03F0030309B143F068
:101BB000040343F008039910013B91720D2B0BD8DD
:101BC000DFE803F021071B070A152121150A071B6F
:101BD0000721D368013BD3605DF8044B7047937ACB
:101BE00003F003030029E6D043F00403E3E7D368DE
:101BF0005DF8044B023BD3607047D3685DF8044B3B
:101C00000233D3607047D3685DF8044B0133D3606F
:101C1000704700BF6C6C0220214B10B45A6E1368E1
:101C2000506819780478507A137A044201EA030163
:101C30001BD0937A03F0030309B143F0040343F08C
:101C400008039910013B91720D2B0BD8DFE803F0CC
:101C500021071B070A152121150A071B0721D36835
:101C6000013BD3605DF8044B7047937A03F00303A4
:101C70000029E6D043F00403E3E7D3685DF8044BA2
:101C8000023BD3607047D3685DF8044B0233D360E6
:101C90007047D3685DF8044B0133D360704700BFD1
:101CA0006C6C0220214B10B49A6E1368506819783E
:101CB0000478507A137A044201EA03011BD0937A24
:101CC00003F0030309B143F0040343F00803991040
:101CD000013B91720D2B0BD8DFE803F021071B07A6
:101CE0000A152121150A071B0721D368013BD36080
:101CF0005DF8044B7047937A03F003030029E6D0A4
:101D000043F00403E3E7D3685DF8044B023BD36080
:101D10007047D3685DF8044B0233D3607047D368D3
:101D20005DF8044B0133D360704700BF6C6C022038
:101D3000214B10B4DA6E1368506819780478507A21
:101D4000137A044201EA03011BD0937A03F00303E0
:101D500009B143F0040343F008039910013B917269
:101D60000D2B0BD8DFE803F021071B070A152121F3
:101D7000150A071B0721D368013BD3605DF8044BAC
:101D80007047937A03F003030029E6D043F004037D
:101D9000E3E7D3685DF8044B023BD3607047D36838
:101DA0005DF8044B0233D3607047D3685DF8044B91
:101DB0000133D360704700BF6C6C0220214B10B41C
:101DC0001A6F1368506819780478507A137A0442AD
:101DD00001EA03011BD0937A03F0030309B143F036
:101DE000040343F008039910013B91720D2B0BD8AB
:101DF000DFE803F021071B070A152121150A071B3D
:101E00000721D368013BD3605DF8044B7047937A98
:101E100003F003030029E6D043F00403E3E7D368AB
:101E20005DF8044B023BD3607047D3685DF8044B08
:101E30000233D3607047D3685DF8044B0133D3603D
:101E4000704700BF6C6C0220214B10B45A6F1368AE
:101E5000506819780478507A137A044201EA030131
:101E60001BD0937A03F0030309B143F0040343F05A
:101E700008039910013B91720D2B0BD8DFE803F09A
:101E800021071B070A152121150A071B0721D36803
:101E9000013BD3605DF8044B7047937A03F0030372
:101EA0000029E6D043F00403E3E7D3685DF8044B70
:101EB000023BD3607047D3685DF8044B0233D360B4
:101EC0007047D3685DF8044B0133D360704700BF9F
:101ED0006C6C0220214B10B49A6F1368506819780B
:101EE0000478507A137A044201EA03011BD0937AF2
:101EF00003F0030309B143F0040343F0080399100E
:101F0000013B91720D2B0BD8DFE803F021071B0773
:101F10000A152121150A071B0721D368013BD3604D
:101F20005DF8044B7047937A03F003030029E6D071
:101F300043F00403E3E7D3685DF8044B023BD3604E
:101F40007047D3685DF8044B0233D3607047D368A1
:101F50005DF8044B0133D360704700BF6C6C022006
:101F6000214B10B4DA6F1368506819780478507AEE
:101F7000137A044201EA03011BD0937A03F00303AE
:101F800009B143F0040343F008039910013B917237
:101F90000D2B0BD8DFE803F021071B070A152121C1
:101FA000150A071B0721D368013BD3605DF8044B7A
:101FB0007047937A03F003030029E6D043F004034B
:101FC000E3E7D3685DF8044B023BD3607047D36806
:101FD0005DF8044B0233D3607047D3685DF8044B5F
:101FE0000133D360704700BF6C6C0220214B10B4EA
:101FF000D3F880201368506819780478507A137ADF
:10200000044201EA03011BD0937A03F0030309B1F0
:1020100043F0040343F008039910013B91720D2B28
:102020000BD8DFE803F021071B070A152121150A49
:10203000071B0721D368013BD3605DF8044B704751
:10204000937A03F003030029E6D043F00403E3E7A7
:10205000D3685DF8044B023BD3607047D3685DF8EA
:10206000044B0233D3607047D3685DF8044B0133EF
:10207000D36070476C6C0220214B10B4D3F88420DD
:102080001368506819780478507A137A044201EA88
:1020900003011BD0937A03F0030309B143F0040357
:1020A00043F008039910013B91720D2B0BD8DFE828
:1020B00003F021071B070A152121150A071B072119
:1020C000D368013BD3605DF8044B7047937A03F00B
:1020D00003030029E6D043F00403E3E7D3685DF887
:1020E000044B023BD3607047D3685DF8044B023366
:1020F000D3607047D3685DF8044B0133D3607047F9
:102100006C6C0220214B10B4D3F8882013685068FF
:1021100019780478507A137A044201EA03011BD03B
:10212000937A03F0030309B143F0040343F0080377
:102130009910013B91720D2B0BD8DFE803F02107BA
:102140001B070A152121150A071B0721D368013B2C
:10215000D3605DF8044B7047937A03F003030029C2
:10216000E6D043F00403E3E7D3685DF8044B023B99
:10217000D3607047D3685DF8044B0233D360704777
:10218000D3685DF8044B0133D36070476C6C022058
:10219000214B10B4D3F88C20136850681978047858
:1021A000507A137A044201EA03011BD0937A03F0B8
:1021B000030309B143F0040343F008039910013B02
:1021C00091720D2B0BD8DFE803F021071B070A15CE
:1021D0002121150A071B0721D368013BD3605DF855
:1021E000044B7047937A03F003030029E6D043F0D1
:1021F0000403E3E7D3685DF8044B023BD360704708
:10220000D3685DF8044B0233D3607047D3685DF840
:10221000044B0133D36070476C6C0220214B10B427
:10222000D3F890201368506819780478507A137A9C
:10223000044201EA03011BD0937A03F0030309B1BE
:1022400043F0040343F008039910013B91720D2BF6
:102250000BD8DFE803F021071B070A152121150A17
:10226000071B0721D368013BD3605DF8044B70471F
:10227000937A03F003030029E6D043F00403E3E775
:10228000D3685DF8044B023BD3607047D3685DF8B8
:10229000044B0233D3607047D3685DF8044B0133BD
:1022A000D36070476C6C0220214B10B4D3F894209B
:1022B0001368506819780478507A137A044201EA56
:1022C00003011BD0937A03F0030309B143F0040325
:1022D00043F008039910013B91720D2B0BD8DFE8F6
:1022E00003F021071B070A152121150A071B0721E7
:1022F000D368013BD3605DF8044B7047937A03F0D9
:1023000003030029E6D043F00403E3E7D3685DF854
:10231000044B023BD3607047D3685DF8044B023333
:10232000D3607047D3685DF8044B0133D3607047C6
:102330006C6C0220214B10B4D3F8982013685068BD
:1023400019780478507A137A044201EA03011BD009
:10235000937A03F0030309B143F0040343F0080345
:102360009910013B91720D2B0BD8DFE803F0210788
:102370001B070A152121150A071B0721D368013BFA
:10238000D3605DF8044B7047937A03F00303002990
:10239000E6D043F00403E3E7D3685DF8044B023B67
:1023A000D3607047D3685DF8044B0233D360704745
:1023B000D3685DF8044B0133D36070476C6C022026
:1023C000214B10B4D3F89C20136850681978047816
:1023D000507A137A044201EA03011BD0937A03F086
:1023E000030309B143F0040343F008039910013BD0
:1023F00091720D2B0BD8DFE803F021071B070A159C
:102400002121150A071B0721D368013BD3605DF822
:10241000044B7047937A03F003030029E6D043F09E
:102420000403E3E7D3685DF8044B023BD3607047D5
:10243000D3685DF8044B0233D3607047D3685DF80E
:10244000044B0133D36070476C6C0220214B10B4F5
:10245000D3F8A0201368506819780478507A137A5A
:10246000044201EA03011BD0937A03F0030309B18C
:1024700043F0040343F008039910013B91720D2BC4
:102480000BD8DFE803F021071B070A152121150AE5
:10249000071B0721D368013BD3605DF8044B7047ED
:1024A000937A03F003030029E6D043F00403E3E743
:1024B000D3685DF8044B023BD3607047D3685DF886
:1024C000044B0233D3607047D3685DF8044B01338B
:1024D000D36070476C6C0220214B10B4D3F8A42059
:1024E0001368506819780478507A137A044201EA24
:1024F00003011BD0937A03F0030309B143F00403F3
:1025000043F008039910013B91720D2B0BD8DFE8C3
:1025100003F021071B070A152121150A071B0721B4
:10252000D368013BD3605DF8044B7047937A03F0A6
:1025300003030029E6D043F00403E3E7D3685DF822
:10254000044B023BD3607047D3685DF8044B023301
:10255000D3607047D3685DF8044B0133D360704794
:102560006C6C0220002310B4114C417202610460B3
:102570000372C36041B1194600E0026942F82310BA
:10258000427A01339A42F8DC0A4B1A680AB90CE025
:102590001A465369002BFBD15061002343618380AD
:1025A000C38083725DF8044B70471860F5E700BF85
:1025B000AC940100DC740220F8B5044615460E46C2
:1025C000084602210EF05CFD284602210EF058FD5F
:1025D000984A994B52F83610012001F50077276090
:1025E000207252F83520607202F500770020676093
:1025F000E060013BFDD191F8003292F8002203F037
:102600000103D20744BF43F00203DBB2A3723B2EA7
:1026100000F20386DFE816F0F405EA05E005D605CA
:10262000CC05C205B805AE05A4059A05900586053A
:102630007C05720568055E0554054A0540053605AA
:102640002C05220518050E050405FA04F004E6041D
:10265000DC04D204C804BE04B304A8049D0492049C
:1026600087047C0428041E0414040A040004F603EE
:10267000EC03E203D803CE03C403BA03B003A603FA
:102680009C03920388037E0374036A0360033C0087
:102690006A4B6B49C3F8EC4004223B200EF048FC27
:1026A000012323743B2D00F2B585DFE815F00B0301
:1026B0000103F702ED02E302D902CF02C502BB0219
:1026C000B102A7029D02930289027F023102270212
:1026D0001D0213020902FF01F501EB01E101D7011F
:1026E000CD01C301B901AF01A5019B019101860193
:1026F0007B01700165015A014F01440139012E012E
:10270000230118010D010201F700EC00E100B800FF
:10271000AD00A20097008C00810076006B00600085
:1027200055004A003C00454B4549C3F8EC400422A3
:102730003B200EF0FDFB237C012213442374204632
:10274000F8BD3E4B3F49C3F8E84004223A200EF062
:10275000EFFB237C0122F0E7384B3B49C3F8E44010
:10276000042239200EF0E4FB237C0122E5E7334B01
:102770003649C3F8E040042238200EF0D9FB237C10
:102780000122DAE72D4B3249C3F8DC40042237201E
:102790000EF0CEFB237C0122CFE7284B2D49C3F856
:1027A000D840042236200EF0C3FB237C0122C4E76C
:1027B000224B2949C3F8D440042235200EF0B8FB3F
:1027C000237C0122B9E71D4B2449C3F8D0400422E1
:1027D00034200EF0ADFB237C0122AEE7174B2049DD
:1027E000C3F8CC40042233200EF0A2FB237C01224C
:1027F000A3E7124B1B49C3F8C840042232200EF055
:1028000097FB237C012298E70C4B1749C3F8C4407F
:10281000042231200EF08CFB237C01228DE7074B34
:102820001249C3F8C040042230200EF081FB237C03
:10283000012282E788D70100C0D401006C6C02201D
:10284000E10D0000550D0000C90C00003D0C00001A
:10285000B10B0000250B0000990A00000D0A0000D2
:1028600081090000F508000069080000DD0700008C
:10287000AC4BAD49C3F8BC4004222F200EF058FBEE
:10288000237C012259E7A74BA849C3F8B84004228A
:102890002E200EF04DFB237C01224EE7A14BA449D4
:1028A000C3F8B44004222D200EF042FB237C012209
:1028B00043E79C4B9F49C3F8B04004222C200EF004
:1028C00037FB237C012238E7964B9B49C3F8AC4089
:1028D00004222B200EF02CFB237C01222DE7914BB0
:1028E0009649C3F8A84004222A200EF021FB237C3D
:1028F000012222E78B4B9249C3F8A44004222920ED
:102900000EF016FB237C012217E7864B8D49C3F896
:10291000A040042228200EF00BFB237C01220CE7B0
:10292000804B8949C3F89C40042227200EF000FB0D
:10293000237C012201E77B4B8449C3F898400422A1
:1029400026200EF0F5FA237C0122F6E6754B80492D
:10295000C3F89440042225200EF0EAFA237C0122D9
:10296000EBE6704B7B49C3F89040042224200EF024
:10297000DFFA237C0122E0E66A4B7749C3F88C40FA
:10298000042223200EF0D4FA237C0122D5E6654BE5
:102990007249C3F88840042222200EF0C9FA237C31
:1029A0000122CAE65F4B6E49C3F88440042221200D
:1029B0000EF0BEFA237C0122BFE65A4B6949C3F8E8
:1029C0008040042220200EF0B3FA237C0122B4E6DA
:1029D000544B6549DC6704221F200EF0A9FA237CC2
:1029E0000122AAE64F4B61499C6704221E200EF08B
:1029F0009FFA237C0122A0E64A4B5D495C670422D2
:102A00001D200EF095FA237C012296E6454B59498C
:102A10001C6704221C200EF08BFA237C01228CE61A
:102A2000404B5549DC6604221B200EF081FA237CC2
:102A3000012282E63B4B51499C6604221A200EF08B
:102A400077FA237C012278E6364B4D495C660422F6
:102A500019200EF06DFA237C01226EE6314B4949B4
:102A60001C66042218200EF063FA237C012264E61F
:102A70002C4B4549DC65042217200EF059FA237CC3
:102A800001225AE6274B41499C65042216200EF08C
:102A90004FFA237C012250E6224B3D495C6504221B
:102AA00015200EF045FA237C012246E61D4B3949DC
:102AB0001C65042214200EF03BFA237C01223CE624
:102AC000184B3549DC64042213200EF031FA237CC4
:102AD000012232E6134B31499C64042212200EF08D
:102AE00027FA237C012228E60E4B2D495C64042240
:102AF00011200EF01DFA237C01221EE6094B294904
:102B00001C64042210200EF013FA237C012214E628
:102B1000044B2549DC6304220F200EF009FA237CC4
:102B200001220AE66C6C022051070000C506000075
:102B300039060000AD0500002105000095040000E5
:102B4000D92400004D240000C123000035230000DB
:102B5000A92200001D220000912100000521000093
:102B600079200000ED1F0000611F0000D51E00004D
:102B7000491E0000BD1D0000311D0000A51C000005
:102B8000191C00008D1B0000011B0000751A0000BD
:102B9000E91900005D190000D11800004518000077
:102BA000B91700002D170000A1160000B34BB4495F
:102BB0009C6304220E200EF0BBF9237C0122BCE5AD
:102BC000AE4BB0495C6304220D200EF0B1F9237CBA
:102BD0000122B2E5A94BAC491C6304220C200EF083
:102BE000A7F9237C0122A8E5A44BA849DC620422B2
:102BF0000B200EF09DF9237C01229EE59F4BA449FA
:102C00009C6204220A200EF093F9237C012294E5B1
:102C10009A4BA0495C62042209200EF089F9237CBA
:102C200001228AE5954B9C491C62042208200EF083
:102C30007FF9237C012280E5904B9849DC610422D6
:102C400007200EF075F9237C012276E58B4B944921
:102C50009C61042206200EF06BF9237C01226CE5B6
:102C6000864B90495C61042205200EF061F9237CBB
:102C7000012262E5814B8C491C61042210460EF052
:102C800057F9237C012258E57C4B8849DC600422FB
:102C900003200EF04DF9237C01224EE5774B844949
:102CA0009C60042202200EF043F9237C012244E5BB
:102CB000724B80495C60042201200EF039F9237CBC
:102CC00001223AE56D4B7C491C60042200200EF085
:102CD0002FF9237C012230E5684B7849C3F8E8409E
:102CE00004223A200EF024F90123DAE4634B7449FC
:102CF000C3F8E440042239200EF01AF90123D0E48D
:102D00005E4B7049C3F8E040042238200EF010F901
:102D10000123C6E4594B6C49C3F8DC400422372038
:102D20000EF006F90123BCE4544B6849C3F8D840BF
:102D3000042236200EF0FCF80123B2E44F4B644924
:102D4000C3F8D440042235200EF0F2F80123A8E4A1
:102D50004A4B6049C3F8D040042234200EF0E8F812
:102D600001239EE4454B5C49C3F8CC400422332048
:102D70000EF0DEF8012394E4404B5849C3F8C840F4
:102D8000042232200EF0D4F801238AE43B4B54494C
:102D9000C3F8C440042231200EF0CAF8012380E4B5
:102DA000364B5049C3F8C040042230200EF0C0F822
:102DB000012376E4314B4C49C3F8BC4004222F2058
:102DC0000EF0B6F801236CE42C4B4849C3F8B84028
:102DD00004222E200EF0ACF8012362E4274B444974
:102DE000C3F8B44004222D200EF0A2F8012358E4C9
:102DF000224B4049C3F8B04004222C200EF098F832
:102E000001234EE41D4B3C49C3F8AC4004222B2067
:102E10000EF08EF8012344E4184B3849C3F8A8405B
:102E200004222A200EF084F801233AE4134B34499B
:102E3000C3F8A440042229200EF07AF8012330E4DC
:102E40000E4B3049C3F8A040042228200EF070F841
:102E5000012326E4094B2C49C3F89C400422272077
:102E60000EF066F801231CE4044B2849C3F898408F
:102E7000042226200EF05CF8012312E46C6C022080
:102E80001516000089150000FD14000071140000E3
:102E9000E513000059130000CD120000411200009C
:102EA000B5110000291100009D1000001110000054
:102EB000850F0000F90E00006D0E0000550D00009A
:102EC000C90C00003D0C0000B10B0000250B0000F8
:102ED000990A00000D0A000081090000F5080000B1
:102EE00069080000DD07000051070000C50600006A
:102EF00039060000AD050000210500009504000022
:102F0000D92400004D240000C12300003523000017
:102F1000C34BC449C3F89440042225200EF008F89E
:102F20000123FFF7BEBBBE4BBF49C3F8904004224C
:102F300024200DF0FDFF0123FFF7B3BBB84BBB49C5
:102F4000C3F88C40042223200DF0F2FF0123FFF789
:102F5000A8BBB34BB649C3F88840042222200DF029
:102F6000E7FF0123FFF79DBBAD4BB249C3F8844097
:102F7000042221200DF0DCFF0123FFF792BBA84BB8
:102F8000AD49C3F88040042220200DF0D1FF012379
:102F9000FFF787BBA24BA949DC6704221F200DF075
:102FA000C7FF0123FFF77DBB9D4BA5499C6704220A
:102FB0001E200DF0BDFF0123FFF773BB984BA14905
:102FC0005C6704221D200DF0B3FF0123FFF769BBEE
:102FD000934B9D491C6704221C200DF0A9FF01237F
:102FE000FFF75FBB8E4B9949DC6604221B200DF076
:102FF0009FFF0123FFF755BB894B95499C6604222F
:103000001A200DF095FF0123FFF74BBB844B91492C
:103010005C66042219200DF08BFF0123FFF741BBF2
:103020007F4B8D491C66042218200DF081FF01237F
:10303000FFF737BB7A4B8949DC65042217200DF076
:1030400077FF0123FFF72DBB754B85499C65042253
:1030500016200DF06DFF0123FFF723BB704B814954
:103060005C65042215200DF063FF0123FFF719BBF7
:103070006B4B7D491C65042214200DF059FF012380
:10308000FFF70FBB664B7949DC64042213200DF077
:103090004FFF0123FFF705BB614B75499C64042278
:1030A00012200DF045FF0123FFF7FBBA5C4B71497D
:1030B0005C64042211200DF03BFF0123FFF7F1BAFD
:1030C000574B6D491C64042210200DF031FF012381
:1030D000FFF7E7BA524B6949DC6304220F200DF079
:1030E00027FF0123FFF7DDBA4D4B65499C6304229E
:1030F0000E200DF01DFF0123FFF7D3BA484B6149A5
:103100005C6304220D200DF013FF0123FFF7C9BA01
:10311000434B5D491C6304220C200DF009FF012381
:10312000FFF7BFBA3E4B5949DC6204220B200DF079
:10313000FFFE0123FFF7B5BA394B55499C620422C3
:103140000A200DF0F5FE0123FFF7ABBA344B5149CD
:103150005C62042209200DF0EBFE0123FFF7A1BA07
:103160002F4B4D491C62042208200DF0E1FE012383
:10317000FFF797BA2A4B4949DC61042207200DF07A
:10318000D7FE0123FFF78DBA254B45499C610422E8
:1031900006200DF0CDFE0123FFF783BA204B4149F5
:1031A0005C61042205200DF0C3FE0123FFF779BA0C
:1031B0001B4B3D491C61042210460DF0B9FE012352
:1031C000FFF76FBA164B3949DC60042203200DF07B
:1031D000AFFE0123FFF765BA114B35499C6004220D
:1031E00002200DF0A5FE0123FFF75BBA0C4B31491D
:1031F0005C60042201200DF09BFE0123FFF751BA11
:10320000074B2D491C60042200200DF091FE012384
:10321000FFF747BA0022FFF790BA0023FFF741BA41
:103220006C6C0220A92200001D22000091210000E8
:103230000521000079200000ED1F0000611F000043
:10324000D51E0000491E0000BD1D0000311D0000FC
:10325000A51C0000191C00008D1B0000011B0000B4
:10326000751A0000E91900005D190000D11800006E
:1032700045180000B91700002D170000A116000026
:103280001516000089150000FD14000071140000DF
:10329000E513000059130000CD1200004112000098
:1032A000B5110000291100009D1000001110000050
:1032B000850F0000F90E00006D0E000010B592B0F1
:1032C000014601A80DF0B0FB0023322201A805A998
:1032D0000DF0BEFB05A9054805F0DAFA044601A881
:1032E0000DF062FBA0B212B010BD00BFF063002071
:1032F00010B5A2B044221749044668460DF070FC90
:1033000044220DEB020014490DF06AFCADF10402F9
:10331000002352F8041FA14204D00133112BF8D12D
:1033200022B010BD0D490A68002AFCDB22AA02EB7C
:1033300083030B4913F8442C33F8423C013A12033F
:10334000013B02F47F22C3F30B0313430B6022B053
:1033500010BD00BFB0940100F494010000F10240E0
:1033600004F102402DE9F04F2DED028BDFF8ECA0C7
:10337000364BDFED378A9FED378A85B0D34603930E
:103380004FF00009039B5BF8045F33F9022F0393AE
:1033900007EE902A07EE105AFAEEEF7AB8EEC77AE7
:1033A000FDEEE77A27EE287AF8EEE76A17EE904A04
:1033B000A6EE887A1FFA89F606F104084FF4FC603D
:1033C000BDEEC77A0FFA88F817EE107ABE2FD4BF79
:1033D00027EAE777BE27BE2CA8BFBE2423B25A2215
:1033E000A4B2414600901C4803F002FCC4F1BE03A5
:1033F00004F15A02002441461BB212B2164800944E
:10340000053603F0F5FB36B24FF4487331460093AE
:103410005A222BB21048ADB203F0EAFBC5F1BE034D
:1034200005F15A0209F10209009431461BB212B2A9
:10343000094803F0DDFBB9F1FC0F4AF8047FA1D184
:1034400005B0BDEC028BBDE8F08F00BFA25C002090
:103450003333733FCDCC4C3DF06300200854002043
:1034600070B5354C354A364990B0002508A801237F
:10347000256005F00BFC10AA32480A9B12F8145D77
:103480009DF8241083600573017100F10D031A305B
:1034900012F8011F03F8011B83422A49F8D10F9B40
:1034A000CB6108A805F01AFB274E05E008A805F037
:1034B0002BFB08A805F012FB08A80122214905F002
:1034C00059FC08A805F02EFB10B92368312B2DDD1F
:1034D00008A805F007FB0028E8D108A805F000FBC4
:1034E000014668460DF0A0FA184904A80DF09CFAB0
:1034F00004A968460DF0C6FA054604A80DF054FA72
:103500001DB968460DF050FAD0E7236803EB430578
:1035100003EB850308A8F51805F0E2FA01462846F2
:1035200012F0ACFA236801332360EAE708A805F03B
:10353000D5FA10B070BD00BF0C670020E095010007
:103540006C6D0220486C022078510020E495010047
:1035500008B5064B024653F82130054805490DF0E1
:10356000CDF964200DF092FDFBE700BF703E002016
:10357000A8400020EC95010010B501220A490B4833
:103580000B4C0BF0B5F8207028B907480BF086FCFF
:10359000207020B910BD01460648FFF7D9FF01464B
:1035A0000548FFF7D5FF00BF08960100AC4C00208E
:1035B000045C00200C96010014960100F8B53B4D08
:1035C0002B6823B93A4E3268312A0CDDF8BD3948F0
:1035D0000BF052FC384B187000285ED1344E286036
:1035E0003268312AF2DC354B35491B683548324F99
:1035F000541C2246346012F0B3F9334933480DF0BD
:10360000CBF932480DF062F92E4812F099FA0146D2
:103610002C480EF0C7FD2D480DF058F9002129481F
:103620000BF050FC2A4A2B4952F820200346274829
:103630003B700DF063F90A2222491E480BF082F814
:10364000254A264952F82020034620483B700DF0B9
:1036500055F93B78022B09D00A221A4915480BF07C
:1036600071F83870E8B901232B60F8BD11480BF0F0
:1036700003FC0928387010D10E2119480EF092FD74
:1036800012480DF023F90F480BF042FC3870002867
:10369000E2D001461348FFF75BFF01461248FFF7EF
:1036A00057FF01461148FFF753FF00BFCC680020C9
:1036B0000C67002018640020045C0020D068002003
:1036C0003C96010010670020676E6964A8400020E6
:1036D000143E002048960100703E002054960100E0
:1036E0001C9601002C9601000C96010034960100F6
:1036F0002DE9F843064608F0B9FC01282CDDDFF877
:103700006490DFF858800025D8F80000134F05EBCF
:103710004004304608F0DCFC09EB042401464FF479
:10372000807220460DF05CFA0135304608F0EEFC60
:10373000022DE9D13B680133BF2B02D83B60BDE8C5
:10374000F8830022064B3A60064907484FF4C0321E
:103750000BF074F9054B1870BDE8F8831464002071
:103760000C4F00203069002018640020045C002009
:1037700038B50D2104461848184D0EF013FD184AAF
:10378000002384F8F63013700DE0204608F0A0FC0A
:10379000144B01464FF4807213480BF04FF9287018
:1037A000204608F0B3FC204608F060FC0028ECDC62
:1037B0000D480BF061FB0146287050B90B4B0C48CB
:1037C000196013210EF0EEFC0A48BDE838400DF0F8
:1037D0007DB80948FFF7BCFE64960100045C002038
:1037E000604F00200C4F002018640020CC6800209F
:1037F00074960100A84000200C96010008B5064808
:10380000FFF7B6FF0021054803F03AFD044B4FF4E3
:1038100080329A6108BD00BFA0670020F0630020DD
:10382000F0EB01202DE9F043354B074693E8030008
:103830008FB00DF10B06002501908DF80810B046F1
:103840002C4628460DF07CF908F8010F44404FF053
:10385000080914F0010F4FEA540209F1FF3314BFB5
:1038600082F08C04C4F3470413F0FF09F1D1013551
:103870002B2DE6D1CCB90CAA224923480DF03EF8F5
:103880009DF833209DF807309A4205D19DF83220EB
:103890009DF806309A4213D001AA1C491A480DF02F
:1038A0002DF800200FB0BDE8F0831C2118480EF061
:1038B00079FC15480DF00AF848460FB0BDE8F083D2
:1038C0009DF831209DF805309A42E5D19DF83020D1
:1038D0009DF804309A42DFD1013F0DF1370316F80D
:1038E000012F07F8012F9E42F9D108220949064805
:1038F0000EF0A2FB04480CF0E9FF0120DDE700BF59
:10390000F496010088960100A8400020AC960100C2
:10391000D4960100A09601002DE9F0410025471E34
:103920002C46A84617F8016F0823744014F0010FC5
:103930004FEA540203F1FF3314BF82F08C04C4F346
:10394000470413F0FF03F1D128460DF0F9F8864241
:103950000BD0314628460DF00DF928460DF0F0F851
:103960003B78834216D108F1010801352A2DD9D1BF
:10397000214628460DF0FEF828460DF0E1F8844275
:103980000CD142460A4B0B490B480CF0B7FF002004
:10399000BDE8F081214628460DF0ECF818210748D3
:1039A0000EF000FC04480CF091FF0120BDE8F0810E
:1039B000F496010018970100A8400020FC96010031
:1039C000F0B58DB001A8FFF72DFF044610B92046D1
:1039D0000DB0F0BD05214E480EF0E4FB00230A2295
:1039E0009DF804104B480CF097FF4A480CF06EFF0E
:1039F000072149480EF0D6FB099946480CF0CCFF48
:103A000044480CF063FF092144480EF0CBFB0299B7
:103A100040480CF0C1FF3F480CF058FF08214048D7
:103A20000EF0C0FB03993B480CF0B6FF39480CF090
:103A30004DFF08213B480EF0B5FB059935480CF0C9
:103A4000ABFF34480CF042FF092137480EF0AAFBC7
:103A50009DF918102F480CF09FFF2E480CF036FFF0
:103A6000072132480EF09EFB9DF9191029480CF0F1
:103A700093FF28480CF02AFF09212D480EF092FBF5
:103A80009DF9201023480CF087FF22480CF01EFF00
:103A9000072128480EF086FB9DF921101D480CF0E7
:103AA0007BFF1C480CF012FF099A234B9DF82860FD
:103AB0009DF829509DF82A009DF82B101E70012AB0
:103AC0005D709870D97082D11C481D49049F1D4DAE
:103AD0001D4B07600A60059F029A1C4E2F601A60FA
:103AE0001B48039A1B4F32601B499DF820609DF8CC
:103AF00021200670194D9DF81900194B079E3A7048
:103B00009DF81820087020462E601A700DB0F0BD88
:103B100040970100A84000204897010050970100FD
:103B20005C9701006897010074970100809701007D
:103B300088970100949701002C4F0020303E002010
:103B4000B4680020D03E0020A4660020D43E0020AF
:103B5000C03E0020E03E0020D83E0020DC3E002099
:103B6000283E00202DE9F0412049214B214D224CD7
:103B7000224809682E6825680468214A214F126886
:103B800097F800C0204F8EB097F800E0069193E8B8
:103B90000300C0F307238DF83130C0F307430B92C5
:103BA0008DF83230194A1A4B1A498DF83000000E40
:103BB00092F800801F7809688DF83300582200239E
:103BC00003A80796049505948DF829808DF828C0E0
:103BD00009918DF821E08DF820708DF80C20ADF85A
:103BE0003430FFF799FE0EB0BDE8F081303E002082
:103BF000F4960100D03E0020A4660020D43E0020B0
:103C0000B4680020C03E0020D83E0020E03E0020E6
:103C1000283E0020DC3E0020F8B5614E61480F21AF
:103C20000EF0C0FA316860480CF0B6FE5E480CF049
:103C30004DFE34685CB1032C5C4D28D0022C3CD086
:103C4000012C60D0042C7DD000232B62F8BD584895
:103C5000564D584F07F066FD574A584B11681A6881
:103C6000EC6191424FF48033AB6104BFEB61AC6116
:103C7000534B34685348544A00211960032C4FF0C9
:103C800001034FF002013B6003601160D6D14FF495
:103C900080414748474F07F029FD494B34684A485F
:103CA000484900221A60AA6101234FF48032022C95
:103CB0003B6003600B60EA61C2D14FF480413C4835
:103CC00007F0FEFC414BDFED426A93F9003007EE4E
:103CD000903AF8EEE77AB7EE006A86EE277A4FF46C
:103CE00080320023EA61AB61B4EEE67AF1EE10FABD
:103CF0003BD4F2EE007AB4EEE77AF1EE10FA44DD4E
:103D00004FF4002333E02A48284C2D4F07F00AFDDA
:103D1000294A2A4B116818684FF4803288424FF0C4
:103D20000003EB61AA6108BFE26122482649254AE7
:103D300008BFA36101233468036000263E600B6066
:103D400013607FE71A481E4F1A4E1F4C07F0EAFC1B
:103D50001C48002201234FF480313A60EA61AA61D5
:103D60003360236003602962F8BD40F28F23104F57
:103D7000134C10481449134A3B6201230027276063
:103D8000036034680B6013605AE7DFED126ADFED01
:103D9000127AE7EE267AFCEEE77A17EE903AE6E73B
:103DA000A46600209C970100A840002064670020C2
:103DB000C4660020686C0220484F0020343E00207A
:103DC000B0680020D4630020104F0020C03E0020C7
:103DD0000AD7233C00008047EE7CFF3E2DE9F04FE0
:103DE0009F49A048DFF8B0928BB00CF01DFE9E4AB0
:103DF0009E499C480FF0D0FC1C211B2227238DE8F4
:103E00000E009B48FF231422152102F091FD32225F
:103E10002521984807F032F832222421964807F0ED
:103E20002DF8232222219548FEF7C6FB32222621B7
:103E3000934807F023F832221D21924807F01EF81C
:103E40001F221E219048FEF7B7FB904B1A68904B3B
:103E5000C9F80030002389F80930C9F8103089F812
:103E60000830C9F80C300AB9B1E21A465369002B80
:103E7000FBD1C2F814900024DFF870B2854B86485D
:103E8000C9F81440A9F80440A9F8064089F80A4086
:103E9000C9F8003007F038FD0BF11802012158462F
:103EA000FEF760FB7D4B7E488BF8F44022462146AE
:103EB0008BF8F540CBF8F0408BF8F640CBF80030AB
:103EC000FEF750FB764A774B1360774A744E774D76
:103ED00018324FF48043A2F1180002213362FEF73A
:103EE00041FB714A724B1360012005F22472684E47
:103EF0002C7223462146EC602E6068722A612C46A3
:103F000000E0226942F823106A7A684801339A4235
:103F1000F7DC5E4B1A680AB95DE21A465369002B5A
:103F2000FBD15561002463492960224601234FF4E7
:103F30008071614E61486C61AC80EC80AC7285F838
:103F4000214785F82247C5F818610FF049FB4F4B10
:103F5000DFF874811A684E49C5F81C41082385F8BA
:103F6000203788F80940C8F80010C8F8104088F8D1
:103F70000840C8F80C40454B0AB92EE21A4653696E
:103F8000002BFBD1C2F814804FF0000A4C4B4D4877
:103F9000C8F814A0A8F804A0A8F806A088F80AA0F9
:103FA000C8F8003004F08CFD4748484C484F494E53
:103FB00007F058FF2C4A484943480FF0EDFB474BA8
:103FC000012103F118021846FEF7CCFA434A444B8C
:103FD0001360444B042103F128021846FEF7C2FA8D
:103FE000414B03F1280218463E4B04211C604FF45C
:103FF00080349C61DC611C625C62FEF7B3FA3A4B70
:10400000324C1C6007F128024FF4803404213846FA
:104010009C61DC611C625C62FEF7A4FA2B49BC6106
:10402000022006F11802FC613C627C62184C396087
:1040300034605346514686F808A0C6F80CA070724A
:104040003261344600E0226942F82310727A214836
:1040500001339A42F7DC0D4B1A68002A49D1BFE1BF
:10406000AC970100F84E00200C3E0020A909010089
:10407000F0630020D863002044E90120AC660020F2
:10408000184F00201C6900204C4F0020DC740220D7
:10409000AC940100A8A30100D8680020D8A30100B7
:1040A000645C0020E4A30100C8E90120885C0020D2
:1040B0009CA3010068A1010088A10100B063002059
:1040C000CCA3010070E9012058E90120B4A301004C
:1040D0006C66002028EC012071040000C4660020FA
:1040E00090A30100F0EB012064670020A06700208E
:1040F0001A465369002BFBD156610024B94ABA4BCA
:104100007461B480F480B472B8483260059307F0EB
:1041100033FE059BDFF82CA31C721846C3F80090F1
:104120005F605C72DC601C740CF056FA059BB04A50
:10413000B04918460FF030FBAF4B059350468AE864
:10414000000A8AF808408AF80940CAF80C408AF840
:1041500010400CF041FAA64AA649DFF8ECB25046EE
:104160000FF01AFB059BDFF8E4A21C724FF0010967
:104170001846C3F800805F60DC601C7483F8099007
:104180000CF02AFA059B9A4A9A49DFF8C48218462D
:104190000FF002FB994BCBF8043058468BF80840DF
:1041A000CBF800708BF80940CBF80C408BF810402E
:1041B0000CF012FA8E4A8F4958460FF0EDFA904BE8
:1041C000CAF8043050468AF80840CAF800708AF8E5
:1041D0000940CAF80C408AF810400CF0FDF9844AF6
:1041E0008449DFF870B250460FF0D6FA834B88F856
:1041F0000840404688E8280088F80940C8F80C4084
:1042000088F810400CF0E8F9794A7A497D4B05931B
:1042100040460FF0C1FA7C4BDFF83CA2CBF80430EB
:1042200058468BF80840CBF800708BF80940CBF863
:104230000C408BF810400CF0CFF96D4A6D49DFF857
:104240001C82724D58460FF0A7FA714BCAF8003025
:1042500050466D4BCAF804308AF808408AF8099035
:10426000CAF80C408AF810400CF0B6F96149604A6F
:10427000DFF8ECB150460FF08FFA059B604A1A60E8
:104280001846644A1C725A6083F80990DC601C74FA
:104290000CF0A2F9059B564A5649DFF8C8A118460A
:1042A0000FF07AFA584BC8F800304046594BC8F81E
:1042B000043088F8084088F80940C8F80C4088F8AD
:1042C00010400CF089F94B49494A40460FF064FA16
:1042D000022328464F4A6B722C722F606A60EC6092
:1042E0002C740CF079F9424A4249DFF87C814A4F3C
:1042F00028460FF051FA474B8BF8084058468BE898
:1043000048008BF80940CBF80C408BF810400CF0BB
:1043100063F9374A3749414D58460FF03DFA3D4B56
:104320008AF8099050468AE848008AF80840CAF896
:104330000C408AF810400CF04FF950462C4A2D4999
:10434000DFF828A1364CDFF828910FF025FA35491F
:10435000354B0A680792DDF81CB00A6808921A68A3
:10436000089B0968DFF80CE109911E462F4B09995B
:10437000DFF804C1CEF8002002EB420003EB80031B
:104380002B4A2D68CAF800B0A1F57A71D3F808B0AD
:10439000D3F804A0C8F80060264B2748CCF80010DA
:1043A0004FF00A082360C2F800A0C7F800B0C9F8AF
:1043B000005084F8088004F083FB0D4A1F491E4812
:1043C0000FF0EAF90CF070FB0BB0BDE8F08F1C4B5E
:1043D000C3F800904FE51860A4E5C3F80080D3E56A
:1043E00018608AE6C0A301003C5C002028EC012094
:1043F0000C3E002089040000505C0020F0EB0120FE
:10440000C466002030E90120C8E90120245C0020B6
:10441000645C0020646700209C670020DC3E002074
:104420006C4F002068750220D03E002038950100B6
:10443000D068002074A10100486C0220DD8A0000D1
:10444000DC740220986800209CE90120B0E901207A
:1044500008690020304F0020F4680020B868002070
:10446000105C0020C06300200C5C0020ECEB0120FD
:10447000085C0020E8630020A86600202DE9F043D6
:104480002DED028BC24CDFF88083C24D95B02046E3
:104490004FF6E07104F07EFA4FF400412823002229
:1044A000019100932046F0231146A56102F02AFDF8
:1044B000D8F80030012B00F06182022B00F06C82F2
:1044C00014224FF400438DE80C000021F0234FF438
:1044D0008C72AF4802F016FD28224FF448738DE825
:1044E0000C000021F0234FF49672A94802F00AFD57
:1044F00000221146A64804F031FA0122A649A44838
:104500000CF0AAF9A54BA24893F900100CF044FA5C
:10451000D8F80020022A00F0F3810222A0499C482A
:10452000A04C0CF099F9A04B994893F900100CF0AD
:1045300033FA02229D4996480CF08EF99C4B1D6877
:10454000284611F0FDFA2946024691480CF084F9FC
:104550002368092B00F0E4810A2B00F0F08114227B
:1045600000218B4804F0FAF9924B1B68042B00F2EF
:10457000BB81DFE813F0F4000601FA00000105003A
:1045800004228D4982480CF067F98C4B8C4E1968D7
:104590000BA80AF0BFFD1422B4217D4804F0DEF917
:1045A0000C9A0D9B00920921864A05A811F08AF900
:1045B00005A811F0C5FA05A9024675480CF04CF99A
:1045C00000214FF48C72724804F0C8F933687048C7
:1045D000012B0CBF4DF29A614FF6E07104F0DAF94D
:1045E00023680B2B03D13268012A00F00782764F33
:1045F00057F82350284611F0A3FA2946024664488A
:104600000CF02AF90122714961480CF025F9236860
:10461000644D072B00F09F81082B00F03C816C4B10
:104620006C4D1B685A48012B0CBF4DF29A614FF636
:10463000E07104F0AFF92B6857F82300FEF73EFE57
:10464000C0F1F00109B24FF48C72514804F086F9C0
:104650002B6857F82350284611F072FA2946024673
:104660004B480CF0F9F84FF496720021484804F0DA
:1046700075F94FF6E071464804F08CF92368032B76
:1046800000F0EE80544C2378002B00F00D81012BBC
:1046900000F01381022B514C00F01D814FF6E071A8
:1046A0003B4804F077F94E4B22784E491C784E4B2C
:1046B000052C0CBF1C460C46002A00F0A980D8F837
:1046C0000030002B40F3BD80484B494D1B68DFF89C
:1046D0003C919FED487AD9F80020002B1F46B8BFC7
:1046E00003F1FF073F1207EE907A92FBF7F785FB85
:1046F0000315DB17FAEEEF7AC3EB6535012D87EE74
:10470000278A4FEA470717DD01244FF6E076009627
:10471000052355221E4807EE904AF8EEE77A013449
:1047200067EE887AFDEEE77ACDED037ABDF90C10DD
:1047300002F05EFAA542EAD14FF6E07300935722E9
:10474000032339B2124803F063FCD8F80030012B80
:1047500000F0338115B0BDEC028BBDE8F08302227E
:1047600025490B480CF078F80FE707222349084841
:104770000CF072F809E70222214905480CF06CF8A8
:1047800003E707221F4902480CF066F8FDE600BF68
:10479000F063002090D6010070960100283E0020B2
:1047A000D0970100B0680020D83E0020D4970100C7
:1047B000D0680020A4660020F897010000D00340D4
:1047C000686C022008980100383E00209097010094
:1047D000D4630020104F0020284F002054E901200E
:1047E0006C3E0020BC970100C49701009C6700202C
:1047F000AD8BDB6800401C46E0970100F09701009C
:10480000E4970100E8970100D43E0020DC3E002040
:1048100021468A4804F03CF8C0F1EB0109B24FF49C
:104820009672864804F09AF8204611F089F92146DC
:10483000024682480CF010F8D8F80030002B3FF701
:1048400043AF552200217D4804F088F810227C49AE
:104850007A480CF001F815B0BDEC028BBDE8F0838E
:104860003368012B7FF40EAF764C74484FF6FF711E
:1048700004F090F82378002B00F0D280012B00F098
:10488000D680022B704C7FF409AF70496B4804222C
:104890000BF0E2FF02E76E4B1B685BBB07226D4922
:1048A00066480BF0D9FFBAE607226B4963480BF064
:1048B000D3FF2378012B7FF4EDAE684B1B78002BE0
:1048C00074D0062266495D480BF0C6FF23785E4C23
:1048D000022B7FF4E3AE2378002BD6D0042261496B
:1048E00056480BF0B9FFD9E605225F4953480BF053
:1048F000B3FF4AE604225D4950480BF0ADFF8EE657
:104900005B494E480BF0A8FF5A4B5B491B684B486C
:1049100081FB0321DB17C3EBA1110CF03DF8FCE593
:104920000322564945480BF097FF554B434893F9EE
:1049300000100CF031F823680A2B7FF410AE03222C
:1049400050493E480BF088FF4F4B3C4893F900100C
:104950000CF022F803E64D4B4D4A1B6803EB430372
:1049600002EB8303D3F80490484611F0E9F8494676
:10497000024632480BF070FF2B684DE600211E23E3
:1049800000932046F02301913C2202F0BBFAD8F8B4
:104990000030022B7FF494AD002106230093019197
:1049A000F0235422254802F0ADFA89E5072239495F
:1049B00022480BF051FF23786CE6D9F800102E4BFB
:1049C000354A83FB0103C917C1EBA31308A80921CA
:1049D00010F078FFA7F10A0109B23C22174803F052
:1049E000BDFF08A811F0ACF808A9024613480BF067
:1049F00033FF15B0BDEC028BBDE8F083274B284A8E
:104A00001B68284F03EB430503EB8503D5182846A5
:104A100011F096F82946024608480BF01DFFF6E50E
:104A200007220D4905480BF017FF237826E70722D8
:104A30001D4902480BF010FF237822E7F0630020A5
:104A40005C980100E8EB012054E901203498010052
:104A5000B46800201498010024980100604F0020E1
:104A60003C9801004C980100009801001C9801003E
:104A7000CC970100DC3E0020D34D6210D897010096
:104A8000C03E0020DC970100E03E0020D03E002028
:104A9000389501004498010054980100C4E90120B0
:104AA00078510020383E00202C980100074B10B5AB
:104AB000012401461C60064806F07CFB054B1C6087
:104AC000FFF7DCFC044B00221A6010BD88E100E017
:104AD0006C4F002008E100E0EC630020274B9FEDC5
:104AE000286A93ED007ADFED276AB8EEC77A07EE01
:104AF000900AC6EE075AF8EEE77A67EEA57AF4EE6A
:104B0000E67AF1EE10FA19DC1F4A204BC2ED007A6A
:104B1000F5EEC07A0122F1EE10FA1A602BD49FED67
:104B20001C7AF4EEC77AF1EE10FA1BDD194B1A4924
:104B30001A4A01200860D361FFF7A0BCC7EE065AED
:104B4000114B1748114A0121F2EE027AE5EEA67ADE
:104B5000C3ED006AFDEEE77A17EE903AF0EE667A62
:104B6000036011609FED0F7A67EE877AFCEEE77ABB
:104B700017EE903ADBE70023D9E700BF9C670020DF
:104B8000A6552C4700E0AB462C3E002088E100E013
:104B9000A655AC4680FFFF7F08E100E0645C002082
:104BA000DC3E00204B24BE472DE9F04F2DED048B59
:104BB000B24AB34B92F900201B689FEDB26ADFED59
:104BC000B26A07EE102A002BB8BFFF33F8EEC77A9F
:104BD0001B1227EE867A07EE903AF8EEE77AADF5EB
:104BE000077D87EE278A0EAC4FF4F0722046002135
:104BF000C6EEA78A10F00AFCA44B1A6802F101085D
:104C0000B8F1010FC3F80080BDEEC88AFDEEE88A56
:104C100000F01481B8F1630F40F21881DFF8B89208
:104C2000DFF8B0A29FED9A6ACDF808800020CC464C
:104C30000646864625464FF4807B0227F2EE046A3C
:104C40003CF8023FBAEC017A03EB8302520007EE14
:104C5000902AF8EEE77A5B45E7EE467AC4BF9B46BA
:104C60003E469E4477EEA67A0023FDEEE77A17EEE5
:104C7000902A042A4FEA62010BDDFF29A8BFFF2119
:104C80000B02B2F5C06F03F47843C0F2988243F48C
:104C9000FC6324F810300230EC286B8007F1010728
:104CA00005F10405CCD17B4B9FED7B7ADDF80880C4
:104CB00083FB0E234FEAEE7ECEEB23139BFBF3F335
:104CC00007EE903AF8EEE77A18EE103AF4EE477AEB
:104CD000F1EE10FA48BF0026B34204DA18EE903A1B
:104CE000B34200F3FF806D4B1D68012D4FF0000BA8
:104CF00000F02481022D00F02F8118EE103AB3420B
:104D0000674F53DA18EE903AB3424FDD3B78002BF1
:104D100040F00182634DDFF8C8912B68624A0D9321
:104D2000D9F800300D991160012B4DF29A62628121
:104D3000A281E28100F0E4815C4D022B2B7840F0EF
:104D4000EC81002B00F0E981594806F0EBFC4FF4B0
:104D50008041574806F0B4FC564BDFED576A93F993
:104D6000003007EE903AF8EEE77AB7EE006A86EE8A
:104D7000277AB4EEE67AF1EE10FA00F11982F2EE3B
:104D8000007AB4EEE77AF1EE10FA00F32F82DFED4D
:104D90004B6ADFED4B7AE7EE267AFCEEE77A17EE08
:104DA000902A434900230A622B70B6E13B786BB12D
:104DB0003C4A3D4913680993099B096812680A92A5
:104DC0004048414A0A9D05605B1A1380374D002216
:104DD0002B783A7043B9334B334A1B6808931268F7
:104DE000089B9B1A502B09D82C4B1B68022B0ED00A
:104DF0000DF5077DBDEC048BBDE8F08F2C4A012337
:104E000082F842302B70254B1B68022BF0D1254BCA
:104E10002C4A1B6807931268079B2C4D9B1A312B59
:104E200040F28E812B68B3F58C7FE1DB5A232B6037
:104E30000DF5077DBDEC048BBDE8F08F244B002100
:104E400003F5007243F8041B9A42FBD1214A224920
:104E5000DFED226A02F5FC7031F8023F92ED007A34
:104E600003EB83035B0007EE903AF8EEE77AA7EED8
:104E7000A67AA2EC017A9042EED1CFE6E03E002085
:104E80009C67002000007A4400409C47D4680020C2
:104E90006666663FBF3CB622CDCC8C3FD43E002038
:104EA000C066002068750220ECEB0120CF3E002098
:104EB000C4660020C03E00200AD7233C0000804783
:104EC000EE7CFF3E0C5C00206A4F0020103E00206C
:104ED000784F0020804F0020A25C00206F12833AA0
:104EE000A4660020C34BC44A02930021D3ED006A9C
:104EF0008B46022339F8020F92ED007A07EE900AF2
:104F0000F8EEE77A77EE877AF4EEE67AF1EE10FAC9
:104F1000E2EC017A03DDF0EE676A9B460121013382
:104F2000782BE7D1002940F04681B44A1388013339
:104F30001380B34B1D68012D7FF4DCAEB14B1B68B1
:104F4000022B00F0EF8018F0010F7FF4D6AEFEF7D1
:104F500009FAAB4B1D68CDE6A84F3B88322B7FF694
:104F6000CCAE00202D23019000930146F023388021
:104F70002822A54801F0C6FF9E4BBBF1000F00F0B0
:104F8000F1801A4692ED007A0293A04BDFEDA05A11
:104F9000F7EE007A03EB8B0377EE277A1A1D59465A
:104FA00032ED016AC6EE276AF4EEE56AF1EE10FA18
:104FB00002DD01390229F3D1DFED955A03915A46FA
:104FC000B3EC016AC6EE276AF4EEE56AF1EE10FA78
:104FD00040F3A6800132782AF2D100230493DFF84F
:104FE00018A2DFED8C9A9FED8C9A059600274FF062
:104FF000020802E0029B93ED007ADAED006A824833
:10500000C6EE877A4FF478430FFA87F90093494642
:1050100067EEA97AFDEEE77A17EE905AC5F15506CC
:1050200036B22DB232462B4601F0E2FDC34508F1FF
:10503000010800F0D1800237B8F1780FBFB2AAECB6
:10504000019AD7D1754B029D1B6895ED007A9FEDB3
:10505000749A6D48059E002BB8BFFF331B1207EEF4
:10506000903AF6EE006A27EE267AF8EEE77A2D22DD
:10507000822185ED007A27EE899A03F06FFC4DF2CC
:105080009A61614803F086FCDDED037A5E48F8EE34
:10509000E77A67EE897AFDEEE77A17EE901A0BF061
:1050A0007BFC01225F4958480BF0D6FB4FF6E071BC
:1050B000554803F06FFC07EE90BAF8EEE77A5248D5
:1050C00067EE897AFDEEE77A17EE901A0BF064FC32
:1050D000012254494C480BF0BFFB4DF29A614A48FB
:1050E00003F058FCDDED047A4748F8EEE77A67EE06
:1050F000897AFDEEE77A17EE901A0BF04DFCFCE58D
:105100002B68DFF838810C930C9AD8F80030D31A4A
:10511000B3F57A7F2DD8444D2B7801223A7059E6A9
:1051200004925CE7354A414B1288A3FB02139B08AB
:1051300003EB8303D31A9BB2002B7FF4DEAD06E7AB
:1051400001940123B5F900202F4800930021F0239A
:1051500002F06EFB29882C4802F0C8FA2B68013354
:105160002B6060E60293039593ED007ACDF810B0C2
:1051700035E72A4B2E4A1B68002BB8BFFF331B12A2
:1051800006FB03F682FB0623F6174FF4FA72C6EB12
:10519000631302FB03F3274A18461360FFF79EFCD4
:1051A0002B680B930B9AD9F80030C8F80020C3E5A0
:1051B00040F28F22F5E5029BC3ED006AB5E61E4B77
:1051C00083FB0283A3EBE273DB000A0202F4784262
:1051D00003F4FC6313435CE54FF6E07000902B464C
:1051E00032464946084801F003FD24E74FF4002207
:1051F000D7E500BFEC630020F0E90120144F002048
:10520000D43E0020A4660020F0630020E8E90120DD
:10521000CDCCCC3D00003442000000009C67002053
:105220006F12833A90970100CF3E0020CDCCCCCCBA
:10523000D34D6210DC3E0020ABAAAA2AA86600204B
:1052400038B5104B1049114A114D00EB400003EBEB
:105250008003012498685B680B6028601460FEF787
:1052600047F8C8200BF012FF0A4B1868FFF736FC0E
:10527000094B14201C600BF009FFBDE83840FFF714
:10528000FDB800BF38950100D068002088E100E03B
:105290009C670020DC3E002008E100E010B50B21F7
:1052A00011480CF07FFF114806F0E2FD1021104874
:1052B0000CF078FF0F480BF009FB0F4A0F4B1068FA
:1052C00000241C70FFF7BCFF0D4A0E4B10681860DD
:1052D000FFF704FC0C4B0D491C624FF48032CC618B
:1052E0008A61DA619A6110BD7098010058E9012065
:1052F0007C980100A8400020E863002054E90120C8
:10530000085C0020DC3E0020646700206C66002002
:105310002DE9F04196B0A8B9A24AA349A34B12685F
:105320000D681B680D21C2B9EB1848BF01F1FF33AE
:105330008B4270DB0023002878D19C4A136016B0A2
:10534000BDE8F0810128FAD1994A9A499A4B12682E
:105350000D681B680321002AE6D0012AEFD1002D39
:10536000EDD00446002B68D194490A782A4452B201
:10537000002AC0F20E815A2A1346A8BF5A2307EE0C
:10538000903A9FED8F6ADFED8F6AB8EEE77ADFED36
:105390008E7A27EE067AE7EE267AFCEEE77ACDEDF6
:1053A000037A8A4A0B70012616600399884805F033
:1053B00071FF884B1E60DFF8F481D8F80030062BAF
:1053C00061D0072B49D0082B00F0B3800B2BB6D14E
:1053D000744B1B68012B00F0CE80774B1B68072BAA
:1053E000ADD1734B1B68012BA9D17B4B1B78022BD2
:1053F000A5D17A4C6F4B22681B681344052BA8BFBC
:10540000052323EAE37318462360FFF719FF744B63
:1054100022681A6093E7734A1278002A8BD1A3F1AD
:105420000B02012A98BF0023002886D0012886D1CC
:10543000614A136016B0BDE8F081092B40F0898005
:10544000694A13782B445BB2042B00F38E8005234A
:105450006649137001230B70ADE7524B1B68012B9B
:105460007FF46DAF5D4A504B11681B680B440D2BE8
:10547000A8BF0D2323EAE37318461360FFF7E0FE8D
:10548000D8F800309FE7002C7FF459AF584F594EA1
:105490003B680693069B32689B1AB3F5FA7F09D2E4
:1054A000F92B00F22981632B8BBF0A23C5EB05136F
:1054B0005D439D0005F062FC08A9284405F008FB47
:1054C00008A805F0DDFB0BF0B5FD4B4C08A805F076
:1054D000D7FB05F0A3FC20463222502103F03EFA10
:1054E000002214232046019200933222A02350214F
:1054F00001F008FD414A424B1168A3610DA809F073
:1055000009FE0DA90EC90AA80191009209213D4A80
:1055100010F0D8F90AA810F013FB0AA90246204699
:105520000BF09AF93B680793079AD8F8003032607D
:1055300047E71C4B1B68012B7FF401AF1A4B324924
:105540001A680868314B02441340002B25DB0B60BE
:10555000F5E60A2B62D12E4A13782B445BB20E2B50
:1055600007DD232BA8BF232372E71E2BA8BF1E2312
:105570006EE70F236CE70C4A264910680B68264A31
:105580001B18126807D4013A9342A8BF13460B6058
:1055900023E7039305E70023F9E7013B63F00103E9
:1055A0000133D4E7686C0220AC680020B0680020AA
:1055B000D4630020644F0020104F0020D83E00200C
:1055C0000AD7233C00000143EE7CFF3E88E100E067
:1055D0006C4F002008E100E0284F0020D03E002062
:1055E000303E0020684F0020C03E0020084F0020C1
:1055F00068750220385C0020F063002000D0034072
:10560000ACD6010090980100B46800200100008031
:10561000E03E0020C4E901200C670020012B1AD1D4
:10562000384A13782B445BB2002B12DB3F2BA8BF08
:105630003F2318461370FFF739FA334A334B0020E3
:105640001060002103F5007243F8041B9342FBD164
:10565000B1E60023EDE7022B32D12D4F2D4E3B68F2
:105660000493049B32689B1AB3F5FA7F41D2F92B5D
:1056700045D8642B41F2883328BF4FF4FA6326499A
:10568000264A0868126803FB050341F65730834237
:105690002CDD234880FB02E0D243D20FC2EBE012A4
:1056A0004FF47A7000FB02F29342A8BF13461846EB
:1056B0000B60FFF713FA3B680593059B33607AE6AE
:1056C000042B03D1104B00221A6074E6032B7FF4E5
:1056D00072AE1449144A0B780133DBB2A2FB030209
:1056E000520802EB42029B1A0B7064E641F65833F3
:1056F000DDE74FF4FA73C2E705EB8505DAE64FF410
:105700007A73BCE7283E0020D4680020784F002040
:1057100068750220385C0020DC3E00209C67002079
:10572000D34D6210E8EB0120ABAAAAAAF0B5244D34
:10573000244F254E83B0FDF741FF28460021002469
:1057400001F0D4FF4FF4A07322462846214600936F
:105750000194F02301F0D6FB28464DF29A6103F044
:1057600019F91A4BAB6121462846642203F0F6F87A
:105770000922174928460BF06FF8384610F0E0F977
:105780003946024628460BF067F8124BAB61FEF72C
:1057900075FE1148114D05F0C5FF114A114B124914
:1057A000946130464FF48032DC619A612C600C6069
:1057B00006F068FC012386F8F63003B0F0BD00BFA8
:1057C000F063002010670020A0670020C8D6010009
:1057D000A098010090D60100C4660020A4660020B5
:1057E000F0EB01206467002014640020F8B5264B1C
:1057F000264E1968264B012700224FF480350B29CD
:10580000044637709A61DD6132D00C2926D06420BD
:105810000BF03CFC0D2C2046A8BF0D2020EAE070C8
:10582000FFF70EFD1B4A1C4B11681B68002928DB83
:105830008B42A8BF0B4603EB43041849136003EBEC
:10584000840319440D22164810F0E8F9FEF716FEFD
:1058500013491448BDE8F84006F032BB1249134B17
:1058600009689D6102291A6204BFDD619A61CEE771
:105870000F480E4B0F49006808601D62DA619A619B
:10588000C5E70023D7E700BFB068002054E9012036
:105890006C660020C4E901200C67002078510020CC
:1058A0001067002058E90120A466002064670020EA
:1058B000DC3E0020085C002008B50A4B1B781BB1B9
:1058C000094B93F8403003B108BDFFF7E7FC074BE5
:1058D0001B78002BF8D0064B1868BDE80840FFF78E
:1058E00085BF00BF54E9012058E901206866002007
:1058F000303E0020F8B5744A137C012B7BD972B678
:10590000D36862B6714E724D3268002BB8BF033354
:105910009C10944228DD01232B600120FFF7F8FC46
:105920006C4A3460137C012B2BD972B6D36862B6F3
:10593000694E6A4F3268002BB8BF03339C10944203
:105940000DDD01233B600020FFF7E2FC2B68346093
:105950000BB93B686BB1BDE8F840FEF78FBD47DA85
:105960004FF0FF333B60EEE704DA4FF0FF332B607C
:10597000D3E7F8BD574A346000232B60137C012B1A
:10598000D3D872B61368506819780478507A137AAD
:10599000044201EA03016FD0937A03F0030309B1D3
:1059A00043F0040343F008039910013B91720D2B5F
:1059B000BCD801A151F823F0C15A0000B95A000027
:1059C000B15A0000B95A00002D590000A95A000030
:1059D000C15A0000C15A0000A95A00002D59000008
:1059E000B95A0000B15A0000B95A0000C15A00006B
:1059F00000233B60AAE772B61368506819780478F0
:105A0000507A137A044201EA03012DD0937A03F00D
:105A1000030309B143F0040343F008039910013B69
:105A200091720D2B3FF66CAF01A151F823F000BF2E
:105A3000A15A0000995A0000915A0000995A00009A
:105A400001590000895A0000A15A0000A15A000023
:105A5000895A000001590000995A0000915A00002B
:105A6000995A0000A15A0000937A03F00303002919
:105A7000D4D043F00403D1E7937A03F00303002961
:105A800092D043F004038FE7D368023BD36038E73A
:105A9000D3680233D36034E7D368013BD36030E787
:105AA000D3680133D3602CE7D368023BD3603EE771
:105AB000D3680233D3603AE7D368013BD36036E75B
:105AC000D3680133D36032E7AC6600206067002002
:105AD000644F00204C4F0020444F0020AC68002051
