:1000000000000320D1010000F1210100A92101001D
:10001000A9210100A9210100A9210100A9210100B4
:10002000A9210100A9210100A9210100F12101005C
:10003000F1210100A9210100E5360100E9370100A5
:10004000F1210100F1210100F1210100F121010064
:10005000F1210100F1210100F1210100F121010054
:10006000F1210100F1210100F1210100F121010044
:10007000F1210100F1210100F1210100F121010034
:10008000F1210100F1210100F1210100F121010024
:10009000F1210100F1210100F1210100F121010014
:1000A0006551010071510100F1210100F1210100B0
:1000B000F1210100F1210100F1210100313801009D
:1000C000F12101005D390100F1210100893A0100AF
:1000D000F1210100813B0100F1210100F12101002A
:1000E000F1210100F1210100F1210100F1210100C4
:1000F000F1210100F1210100F1210100F1210100B4
:10010000F1210100F1210100F1210100F1210100A3
:10011000F12101007D280100F1210100F121010000
:10012000F1210100F1210100F1210100F121010083
:10013000F1210100F1210100F1210100F121010073
:10014000D1160100F1210100793C0100F1210100EB
:10015000F1210100F1210100F1210100F121010053
:10016000F1210100F12101007D510100F121010087
:10017000F1210100F1210100F1210100F121010033
:10018000F1210100F1210100F1210100F121010023
:10019000F1210100F1210100713D0100F121010077
:1001A000F1210100F1210100F1210100F121010003
:1001B000F1210100F1210100F1210100F1210100F3
:1001C000F1210100F1210100F1210100F1210100E3
:1001D0005C4B4CF2205210B51A804DF628121A8052
:1001E00000BF00BF12F008F8574B4FF030621A60A2
:1001F000564A9A60564ADA60564B4FF470021A60BB
:10020000554B564A1A60564A136813F4807304D14A
:1002100054490B604FF4A8531360534B1A781107DD
:1002200003D51A7842F008021A70504B5049AA229E
:100230001A70504A504B8B4204D252F8040F43F8C4
:10024000040BF8E74D4B4E4900228B4202D243F893
:10025000042BFAE74B494C4A002352F8230041F89B
:1002600023000133742BF8D1484B494A802103F80D
:10027000011B9342FBD1474B424A1A60464B8A22EC
:100280001A70A3F5805324225A70A0221A709A790A
:100290009207FCD59A79D406FCD4404A937903F0AE
:1002A0000C03082BFAD13E4B60221A7002331A78E5
:1002B000802AFCD1394B01221A715D225A719A7938
:1002C0009006FCD59979354A4906FBD5354B364918
:1002D00019600021596020231370937903F00C03F7
:1002E0000C2BFAD1314B324A1A60324B324A1A6027
:1002F00000225A60072243F8042C304AC3F80C2D20
:1003000062B612F05FF9174B1B68DA0705D52C4867
:1003100012F0DAF82B4B2C4A1A602C4B1B785B0638
:1003200009D5284C284B22689A4204D1244812F05F
:10033000CBF80023236015F02BFD11F063FF11F0C3
:1003400091FEFEE70E20054030800440823F04000D
:100350000100002B88ED00E0002008E0030000858C
:1003600010D0034014D0034002D0074000E0074003
:10037000184C00203CE70200303D0020204C0020BB
:10038000D0A90220003800200000000000E400E0B6
:1003900064E400E008ED00E0005006400040064044
:1003A00001E007404480044000000602048004404D
:1003B000C010070014E000E01FBF02000000202072
:1003C000667F595D1CE00340A5C3945A00F00740C6
:1003D000FFFFFFFFFFFFFFFFFFFFFFFFFFFFFFFF2D
:1003E000FFFFFFFFFFFFFFFFFFFFFFFFFFFFFFFF1D
:1003F000FFFFFFFFFFFFFFFFFFFFFFFFFFFFFFFF0D
:10040000FFFFFFFFFFFFFFFFFFFFFFFFDEF9FFFF23
:1004100010B5054C237833B9044B13B10448AFF33E
:1004200000800123237010BD204C0020000000003C
:1004300038E70200084B10B51BB108490848AFF374
:1004400000800848036803B910BD074B002BFBD0A0
:10045000BDE81040184700BF00000000244C0020F9
:1004600038E70200184C00200000000012F026B807
:1004700010B5044B044640F8183B06F009F8204636
:1004800010BD00BFF8AD010010B5044611F0D8F85A
:10049000204610BD214B10B41A68136850681978B3
:1004A0000478507A137A044201EA03011BD0937A4C
:1004B00003F0030309B143F0040343F00803991068
:1004C000013B91720D2B0BD8DFE803F021071B07CE
:1004D0000A152121150A071B0721D368013BD360A8
:1004E0005DF8044B7047937A03F003030029E6D0CC
:1004F00043F00403E3E7D3685DF8044B023BD360A9
:100500007047D3685DF8044B0233D3607047D368FB
:100510005DF8044B0133D360704700BF309F022069
:10052000214B10B45A681368506819780478507ACF
:10053000137A044201EA03011BD0937A03F0030308
:1005400009B143F0040343F008039910013B917291
:100550000D2B0BD8DFE803F021071B070A1521211B
:10056000150A071B0721D368013BD3605DF8044BD4
:100570007047937A03F003030029E6D043F00403A5
:10058000E3E7D3685DF8044B023BD3607047D36860
:100590005DF8044B0233D3607047D3685DF8044BB9
:1005A0000133D360704700BF309F0220214B10B44D
:1005B0009A681368506819780478507A137A04425C
:1005C00001EA03011BD0937A03F0030309B143F05E
:1005D000040343F008039910013B91720D2B0BD8D3
:1005E000DFE803F021071B070A152121150A071B65
:1005F0000721D368013BD3605DF8044B7047937AC1
:1006000003F003030029E6D043F00403E3E7D368D3
:100610005DF8044B023BD3607047D3685DF8044B30
:100620000233D3607047D3685DF8044B0133D36065
:10063000704700BF309F0220214B10B4DA68136866
:10064000506819780478507A137A044201EA030159
:100650001BD0937A03F0030309B143F0040343F082
:1006600008039910013B91720D2B0BD8DFE803F0C2
:1006700021071B070A152121150A071B0721D3682B
:10068000013BD3605DF8044B7047937A03F003039A
:100690000029E6D043F00403E3E7D3685DF8044B98
:1006A000023BD3607047D3685DF8044B0233D360DC
:1006B0007047D3685DF8044B0133D360704700BFC7
:1006C000309F0220214B10B41A69136850681978C2
:1006D0000478507A137A044201EA03011BD0937A1A
:1006E00003F0030309B143F0040343F00803991036
:1006F000013B91720D2B0BD8DFE803F021071B079C
:100700000A152121150A071B0721D368013BD36075
:100710005DF8044B7047937A03F003030029E6D099
:1007200043F00403E3E7D3685DF8044B023BD36076
:100730007047D3685DF8044B0233D3607047D368C9
:100740005DF8044B0133D360704700BF309F022037
:10075000214B10B45A691368506819780478507A9C
:10076000137A044201EA03011BD0937A03F00303D6
:1007700009B143F0040343F008039910013B91725F
:100780000D2B0BD8DFE803F021071B070A152121E9
:10079000150A071B0721D368013BD3605DF8044BA2
:1007A0007047937A03F003030029E6D043F0040373
:1007B000E3E7D3685DF8044B023BD3607047D3682E
:1007C0005DF8044B0233D3607047D3685DF8044B87
:1007D0000133D360704700BF309F0220214B10B41B
:1007E0009A691368506819780478507A137A044229
:1007F00001EA03011BD0937A03F0030309B143F02C
:10080000040343F008039910013B91720D2B0BD8A0
:10081000DFE803F021071B070A152121150A071B32
:100820000721D368013BD3605DF8044B7047937A8E
:1008300003F003030029E6D043F00403E3E7D368A1
:100840005DF8044B023BD3607047D3685DF8044BFE
:100850000233D3607047D3685DF8044B0133D36033
:10086000704700BF309F0220214B10B4DA69136833
:10087000506819780478507A137A044201EA030127
:100880001BD0937A03F0030309B143F0040343F050
:1008900008039910013B91720D2B0BD8DFE803F090
:1008A00021071B070A152121150A071B0721D368F9
:1008B000013BD3605DF8044B7047937A03F0030368
:1008C0000029E6D043F00403E3E7D3685DF8044B66
:1008D000023BD3607047D3685DF8044B0233D360AA
:1008E0007047D3685DF8044B0133D360704700BF95
:1008F000309F0220214B10B41A6A1368506819788F
:100900000478507A137A044201EA03011BD0937AE7
:1009100003F0030309B143F0040343F00803991003
:10092000013B91720D2B0BD8DFE803F021071B0769
:100930000A152121150A071B0721D368013BD36043
:100940005DF8044B7047937A03F003030029E6D067
:1009500043F00403E3E7D3685DF8044B023BD36044
:100960007047D3685DF8044B0233D3607047D36897
:100970005DF8044B0133D360704700BF309F022005
:10098000214B10B45A6A1368506819780478507A69
:10099000137A044201EA03011BD0937A03F00303A4
:1009A00009B143F0040343F008039910013B91722D
:1009B0000D2B0BD8DFE803F021071B070A152121B7
:1009C000150A071B0721D368013BD3605DF8044B70
:1009D0007047937A03F003030029E6D043F0040341
:1009E000E3E7D3685DF8044B023BD3607047D368FC
:1009F0005DF8044B0233D3607047D3685DF8044B55
:100A00000133D360704700BF309F0220214B10B4E8
:100A10009A6A1368506819780478507A137A0442F5
:100A200001EA03011BD0937A03F0030309B143F0F9
:100A3000040343F008039910013B91720D2B0BD86E
:100A4000DFE803F021071B070A152121150A071B00
:100A50000721D368013BD3605DF8044B7047937A5C
:100A600003F003030029E6D043F00403E3E7D3686F
:100A70005DF8044B023BD3607047D3685DF8044BCC
:100A80000233D3607047D3685DF8044B0133D36001
:100A9000704700BF309F0220214B10B4DA6A136800
:100AA000506819780478507A137A044201EA0301F5
:100AB0001BD0937A03F0030309B143F0040343F01E
:100AC00008039910013B91720D2B0BD8DFE803F05E
:100AD00021071B070A152121150A071B0721D368C7
:100AE000013BD3605DF8044B7047937A03F0030336
:100AF0000029E6D043F00403E3E7D3685DF8044B34
:100B0000023BD3607047D3685DF8044B0233D36077
:100B10007047D3685DF8044B0133D360704700BF62
:100B2000309F0220214B10B41A6B1368506819785B
:100B30000478507A137A044201EA03011BD0937AB5
:100B400003F0030309B143F0040343F008039910D1
:100B5000013B91720D2B0BD8DFE803F021071B0737
:100B60000A152121150A071B0721D368013BD36011
:100B70005DF8044B7047937A03F003030029E6D035
:100B800043F00403E3E7D3685DF8044B023BD36012
:100B90007047D3685DF8044B0233D3607047D36865
:100BA0005DF8044B0133D360704700BF309F0220D3
:100BB000214B10B45A6B1368506819780478507A36
:100BC000137A044201EA03011BD0937A03F0030372
:100BD00009B143F0040343F008039910013B9172FB
:100BE0000D2B0BD8DFE803F021071B070A15212185
:100BF000150A071B0721D368013BD3605DF8044B3E
:100C00007047937A03F003030029E6D043F004030E
:100C1000E3E7D3685DF8044B023BD3607047D368C9
:100C20005DF8044B0233D3607047D3685DF8044B22
:100C30000133D360704700BF309F0220214B10B4B6
:100C40009A6B1368506819780478507A137A0442C2
:100C500001EA03011BD0937A03F0030309B143F0C7
:100C6000040343F008039910013B91720D2B0BD83C
:100C7000DFE803F021071B070A152121150A071BCE
:100C80000721D368013BD3605DF8044B7047937A2A
:100C900003F003030029E6D043F00403E3E7D3683D
:100CA0005DF8044B023BD3607047D3685DF8044B9A
:100CB0000233D3607047D3685DF8044B0133D360CF
:100CC000704700BF309F0220214B10B4DA6B1368CD
:100CD000506819780478507A137A044201EA0301C3
:100CE0001BD0937A03F0030309B143F0040343F0EC
:100CF00008039910013B91720D2B0BD8DFE803F02C
:100D000021071B070A152121150A071B0721D36894
:100D1000013BD3605DF8044B7047937A03F0030303
:100D20000029E6D043F00403E3E7D3685DF8044B01
:100D3000023BD3607047D3685DF8044B0233D36045
:100D40007047D3685DF8044B0133D360704700BF30
:100D5000309F0220214B10B41A6C13685068197828
:100D60000478507A137A044201EA03011BD0937A83
:100D700003F0030309B143F0040343F0080399109F
:100D8000013B91720D2B0BD8DFE803F021071B0705
:100D90000A152121150A071B0721D368013BD360DF
:100DA0005DF8044B7047937A03F003030029E6D003
:100DB00043F00403E3E7D3685DF8044B023BD360E0
:100DC0007047D3685DF8044B0233D3607047D36833
:100DD0005DF8044B0133D360704700BF309F0220A1
:100DE000214B10B45A6C1368506819780478507A03
:100DF000137A044201EA03011BD0937A03F0030340
:100E000009B143F0040343F008039910013B9172C8
:100E10000D2B0BD8DFE803F021071B070A15212152
:100E2000150A071B0721D368013BD3605DF8044B0B
:100E30007047937A03F003030029E6D043F00403DC
:100E4000E3E7D3685DF8044B023BD3607047D36897
:100E50005DF8044B0233D3607047D3685DF8044BF0
:100E60000133D360704700BF309F0220214B10B484
:100E70009A6C1368506819780478507A137A04428F
:100E800001EA03011BD0937A03F0030309B143F095
:100E9000040343F008039910013B91720D2B0BD80A
:100EA000DFE803F021071B070A152121150A071B9C
:100EB0000721D368013BD3605DF8044B7047937AF8
:100EC00003F003030029E6D043F00403E3E7D3680B
:100ED0005DF8044B023BD3607047D3685DF8044B68
:100EE0000233D3607047D3685DF8044B0133D3609D
:100EF000704700BF309F0220214B10B4DA6C13689A
:100F0000506819780478507A137A044201EA030190
:100F10001BD0937A03F0030309B143F0040343F0B9
:100F200008039910013B91720D2B0BD8DFE803F0F9
:100F300021071B070A152121150A071B0721D36862
:100F4000013BD3605DF8044B7047937A03F00303D1
:100F50000029E6D043F00403E3E7D3685DF8044BCF
:100F6000023BD3607047D3685DF8044B0233D36013
:100F70007047D3685DF8044B0133D360704700BFFE
:100F8000309F0220214B10B41A6D136850681978F5
:100F90000478507A137A044201EA03011BD0937A51
:100FA00003F0030309B143F0040343F0080399106D
:100FB000013B91720D2B0BD8DFE803F021071B07D3
:100FC0000A152121150A071B0721D368013BD360AD
:100FD0005DF8044B7047937A03F003030029E6D0D1
:100FE00043F00403E3E7D3685DF8044B023BD360AE
:100FF0007047D3685DF8044B0233D3607047D36801
:101000005DF8044B0133D360704700BF309F02206E
:10101000214B10B45A6D1368506819780478507ACF
:10102000137A044201EA03011BD0937A03F003030D
:1010300009B143F0040343F008039910013B917296
:101040000D2B0BD8DFE803F021071B070A15212120
:10105000150A071B0721D368013BD3605DF8044BD9
:101060007047937A03F003030029E6D043F00403AA
:10107000E3E7D3685DF8044B023BD3607047D36865
:101080005DF8044B0233D3607047D3685DF8044BBE
:101090000133D360704700BF309F0220214B10B452
:1010A0009A6D1368506819780478507A137A04425C
:1010B00001EA03011BD0937A03F0030309B143F063
:1010C000040343F008039910013B91720D2B0BD8D8
:1010D000DFE803F021071B070A152121150A071B6A
:1010E0000721D368013BD3605DF8044B7047937AC6
:1010F00003F003030029E6D043F00403E3E7D368D9
:101100005DF8044B023BD3607047D3685DF8044B35
:101110000233D3607047D3685DF8044B0133D3606A
:10112000704700BF309F0220214B10B4DA6D136866
:10113000506819780478507A137A044201EA03015E
:101140001BD0937A03F0030309B143F0040343F087
:1011500008039910013B91720D2B0BD8DFE803F0C7
:1011600021071B070A152121150A071B0721D36830
:10117000013BD3605DF8044B7047937A03F003039F
:101180000029E6D043F00403E3E7D3685DF8044B9D
:10119000023BD3607047D3685DF8044B0233D360E1
:1011A0007047D3685DF8044B0133D360704700BFCC
:1011B000309F0220214B10B41A6E136850681978C2
:1011C0000478507A137A044201EA03011BD0937A1F
:1011D00003F0030309B143F0040343F0080399103B
:1011E000013B91720D2B0BD8DFE803F021071B07A1
:1011F0000A152121150A071B0721D368013BD3607B
:101200005DF8044B7047937A03F003030029E6D09E
:1012100043F00403E3E7D3685DF8044B023BD3607B
:101220007047D3685DF8044B0233D3607047D368CE
:101230005DF8044B0133D360704700BF309F02203C
:10124000214B10B45A6E1368506819780478507A9C
:10125000137A044201EA03011BD0937A03F00303DB
:1012600009B143F0040343F008039910013B917264
:101270000D2B0BD8DFE803F021071B070A152121EE
:10128000150A071B0721D368013BD3605DF8044BA7
:101290007047937A03F003030029E6D043F0040378
:1012A000E3E7D3685DF8044B023BD3607047D36833
:1012B0005DF8044B0233D3607047D3685DF8044B8C
:1012C0000133D360704700BF309F0220214B10B420
:1012D0009A6E1368506819780478507A137A044229
:1012E00001EA03011BD0937A03F0030309B143F031
:1012F000040343F008039910013B91720D2B0BD8A6
:10130000DFE803F021071B070A152121150A071B37
:101310000721D368013BD3605DF8044B7047937A93
:1013200003F003030029E6D043F00403E3E7D368A6
:101330005DF8044B023BD3607047D3685DF8044B03
:101340000233D3607047D3685DF8044B0133D36038
:10135000704700BF309F0220214B10B4DA6E136833
:10136000506819780478507A137A044201EA03012C
:101370001BD0937A03F0030309B143F0040343F055
:1013800008039910013B91720D2B0BD8DFE803F095
:1013900021071B070A152121150A071B0721D368FE
:1013A000013BD3605DF8044B7047937A03F003036D
:1013B0000029E6D043F00403E3E7D3685DF8044B6B
:1013C000023BD3607047D3685DF8044B0233D360AF
:1013D0007047D3685DF8044B0133D360704700BF9A
:1013E000309F0220214B10B41A6F1368506819788F
:1013F0000478507A137A044201EA03011BD0937AED
:1014000003F0030309B143F0040343F00803991008
:10141000013B91720D2B0BD8DFE803F021071B076E
:101420000A152121150A071B0721D368013BD36048
:101430005DF8044B7047937A03F003030029E6D06C
:1014400043F00403E3E7D3685DF8044B023BD36049
:101450007047D3685DF8044B0233D3607047D3689C
:101460005DF8044B0133D360704700BF309F02200A
:10147000214B10B45A6F1368506819780478507A69
:10148000137A044201EA03011BD0937A03F00303A9
:1014900009B143F0040343F008039910013B917232
:1014A0000D2B0BD8DFE803F021071B070A152121BC
:1014B000150A071B0721D368013BD3605DF8044B75
:1014C0007047937A03F003030029E6D043F0040346
:1014D000E3E7D3685DF8044B023BD3607047D36801
:1014E0005DF8044B0233D3607047D3685DF8044B5A
:1014F0000133D360704700BF309F0220214B10B4EE
:101500009A6F1368506819780478507A137A0442F5
:1015100001EA03011BD0937A03F0030309B143F0FE
:10152000040343F008039910013B91720D2B0BD873
:10153000DFE803F021071B070A152121150A071B05
:101540000721D368013BD3605DF8044B7047937A61
:1015500003F003030029E6D043F00403E3E7D36874
:101560005DF8044B023BD3607047D3685DF8044BD1
:101570000233D3607047D3685DF8044B0133D36006
:10158000704700BF309F0220214B10B4DA6F136800
:10159000506819780478507A137A044201EA0301FA
:1015A0001BD0937A03F0030309B143F0040343F023
:1015B00008039910013B91720D2B0BD8DFE803F063
:1015C00021071B070A152121150A071B0721D368CC
:1015D000013BD3605DF8044B7047937A03F003033B
:1015E0000029E6D043F00403E3E7D3685DF8044B39
:1015F000023BD3607047D3685DF8044B0233D3607D
:101600007047D3685DF8044B0133D360704700BF67
:10161000309F0220214B10B4D3F88020136850680B
:1016200019780478507A137A044201EA03011BD036
:10163000937A03F0030309B143F0040343F0080372
:101640009910013B91720D2B0BD8DFE803F02107B5
:101650001B070A152121150A071B0721D368013B27
:10166000D3605DF8044B7047937A03F003030029BD
:10167000E6D043F00403E3E7D3685DF8044B023B94
:10168000D3607047D3685DF8044B0233D360704772
:10169000D3685DF8044B0133D3607047309F02205C
:1016A000214B10B4D3F8842013685068197804785B
:1016B000507A137A044201EA03011BD0937A03F0B3
:1016C000030309B143F0040343F008039910013BFD
:1016D00091720D2B0BD8DFE803F021071B070A15C9
:1016E0002121150A071B0721D368013BD3605DF850
:1016F000044B7047937A03F003030029E6D043F0CC
:101700000403E3E7D3685DF8044B023BD360704702
:10171000D3685DF8044B0233D3607047D3685DF83B
:10172000044B0133D3607047309F0220214B10B42B
:10173000D3F888201368506819780478507A137A9F
:10174000044201EA03011BD0937A03F0030309B1B9
:1017500043F0040343F008039910013B91720D2BF1
:101760000BD8DFE803F021071B070A152121150A12
:10177000071B0721D368013BD3605DF8044B70471A
:10178000937A03F003030029E6D043F00403E3E770
:10179000D3685DF8044B023BD3607047D3685DF8B3
:1017A000044B0233D3607047D3685DF8044B0133B8
:1017B000D3607047309F0220214B10B4D3F88C20A7
:1017C0001368506819780478507A137A044201EA51
:1017D00003011BD0937A03F0030309B143F0040320
:1017E00043F008039910013B91720D2B0BD8DFE8F1
:1017F00003F021071B070A152121150A071B0721E2
:10180000D368013BD3605DF8044B7047937A03F0D3
:1018100003030029E6D043F00403E3E7D3685DF84F
:10182000044B023BD3607047D3685DF8044B02332E
:10183000D3607047D3685DF8044B0133D3607047C1
:10184000309F0220214B10B4D3F8902013685068C9
:1018500019780478507A137A044201EA03011BD004
:10186000937A03F0030309B143F0040343F0080340
:101870009910013B91720D2B0BD8DFE803F0210783
:101880001B070A152121150A071B0721D368013BF5
:10189000D3605DF8044B7047937A03F0030300298B
:1018A000E6D043F00403E3E7D3685DF8044B023B62
:1018B000D3607047D3685DF8044B0233D360704740
:1018C000D3685DF8044B0133D3607047309F02202A
:1018D000214B10B4D3F89420136850681978047819
:1018E000507A137A044201EA03011BD0937A03F081
:1018F000030309B143F0040343F008039910013BCB
:1019000091720D2B0BD8DFE803F021071B070A1596
:101910002121150A071B0721D368013BD3605DF81D
:10192000044B7047937A03F003030029E6D043F099
:101930000403E3E7D3685DF8044B023BD3607047D0
:10194000D3685DF8044B0233D3607047D3685DF809
:10195000044B0133D3607047309F0220214B10B4F9
:10196000D3F898201368506819780478507A137A5D
:10197000044201EA03011BD0937A03F0030309B187
:1019800043F0040343F008039910013B91720D2BBF
:101990000BD8DFE803F021071B070A152121150AE0
:1019A000071B0721D368013BD3605DF8044B7047E8
:1019B000937A03F003030029E6D043F00403E3E73E
:1019C000D3685DF8044B023BD3607047D3685DF881
:1019D000044B0233D3607047D3685DF8044B013386
:1019E000D3607047309F0220214B10B4D3F89C2065
:1019F0001368506819780478507A137A044201EA1F
:101A000003011BD0937A03F0030309B143F00403ED
:101A100043F008039910013B91720D2B0BD8DFE8BE
:101A200003F021071B070A152121150A071B0721AF
:101A3000D368013BD3605DF8044B7047937A03F0A1
:101A400003030029E6D043F00403E3E7D3685DF81D
:101A5000044B023BD3607047D3685DF8044B0233FC
:101A6000D3607047D3685DF8044B0133D36070478F
:101A7000309F0220214B10B4D3F8A0201368506887
:101A800019780478507A137A044201EA03011BD0D2
:101A9000937A03F0030309B143F0040343F008030E
:101AA0009910013B91720D2B0BD8DFE803F0210751
:101AB0001B070A152121150A071B0721D368013BC3
:101AC000D3605DF8044B7047937A03F00303002959
:101AD000E6D043F00403E3E7D3685DF8044B023B30
:101AE000D3607047D3685DF8044B0233D36070470E
:101AF000D3685DF8044B0133D3607047309F0220F8
:101B0000214B10B4D3F8A4201368506819780478D6
:101B1000507A137A044201EA03011BD0937A03F04E
:101B2000030309B143F0040343F008039910013B98
:101B300091720D2B0BD8DFE803F021071B070A1564
:101B40002121150A071B0721D368013BD3605DF8EB
:101B5000044B7047937A03F003030029E6D043F067
:101B60000403E3E7D3685DF8044B023BD36070479E
:101B7000D3685DF8044B0233D3607047D3685DF8D7
:101B8000044B0133D3607047309F0220214B10B4C7
:101B9000D3F8A8201368506819780478507A137A1B
:101BA000044201EA03011BD0937A03F0030309B155
:101BB00043F0040343F008039910013B91720D2B8D
:101BC0000BD8DFE803F021071B070A152121150AAE
:101BD000071B0721D368013BD3605DF8044B7047B6
:101BE000937A03F003030029E6D043F00403E3E70C
:101BF000D3685DF8044B023BD3607047D3685DF84F
:101C0000044B0233D3607047D3685DF8044B013353
:101C1000D3607047309F0220214B10B4D3F8EC20E2
:101C20001368506819780478507A137A044201EAEC
:101C300003011BD0937A03F0030309B143F00403BB
:101C400043F008039910013B91720D2B0BD8DFE88C
:101C500003F021071B070A152121150A071B07217D
:101C6000D368013BD3605DF8044B7047937A03F06F
:101C700003030029E6D043F00403E3E7D3685DF8EB
:101C8000044B023BD3607047D3685DF8044B0233CA
:101C9000D3607047D3685DF8044B0133D36070475D
:101CA000309F0220214B10B4D3F8AC201368506849
:101CB00019780478507A137A044201EA03011BD0A0
:101CC000937A03F0030309B143F0040343F00803DC
:101CD0009910013B91720D2B0BD8DFE803F021071F
:101CE0001B070A152121150A071B0721D368013B91
:101CF000D3605DF8044B7047937A03F00303002927
:101D0000E6D043F00403E3E7D3685DF8044B023BFD
:101D1000D3607047D3685DF8044B0233D3607047DB
:101D2000D3685DF8044B0133D3607047309F0220C5
:101D3000214B10B4D3F8B020136850681978047898
:101D4000507A137A044201EA03011BD0937A03F01C
:101D5000030309B143F0040343F008039910013B66
:101D600091720D2B0BD8DFE803F021071B070A1532
:101D70002121150A071B0721D368013BD3605DF8B9
:101D8000044B7047937A03F003030029E6D043F035
:101D90000403E3E7D3685DF8044B023BD36070476C
:101DA000D3685DF8044B0233D3607047D3685DF8A5
:101DB000044B0133D3607047309F0220214B10B495
:101DC000D3F8B4201368506819780478507A137ADD
:101DD000044201EA03011BD0937A03F0030309B123
:101DE00043F0040343F008039910013B91720D2B5B
:101DF0000BD8DFE803F021071B070A152121150A7C
:101E0000071B0721D368013BD3605DF8044B704783
:101E1000937A03F003030029E6D043F00403E3E7D9
:101E2000D3685DF8044B023BD3607047D3685DF81C
:101E3000044B0233D3607047D3685DF8044B013321
:101E4000D3607047309F0220214B10B4D3F8B820E4
:101E50001368506819780478507A137A044201EABA
:101E600003011BD0937A03F0030309B143F0040389
:101E700043F008039910013B91720D2B0BD8DFE85A
:101E800003F021071B070A152121150A071B07214B
:101E9000D368013BD3605DF8044B7047937A03F03D
:101EA00003030029E6D043F00403E3E7D3685DF8B9
:101EB000044B023BD3607047D3685DF8044B023398
:101EC000D3607047D3685DF8044B0133D36070472B
:101ED000309F0220214B10B4D3F8BC201368506807
:101EE00019780478507A137A044201EA03011BD06E
:101EF000937A03F0030309B143F0040343F00803AA
:101F00009910013B91720D2B0BD8DFE803F02107EC
:101F10001B070A152121150A071B0721D368013B5E
:101F2000D3605DF8044B7047937A03F003030029F4
:101F3000E6D043F00403E3E7D3685DF8044B023BCB
:101F4000D3607047D3685DF8044B0233D3607047A9
:101F5000D3685DF8044B0133D3607047309F022093
:101F6000214B10B4D3F8C020136850681978047856
:101F7000507A137A044201EA03011BD0937A03F0EA
:101F8000030309B143F0040343F008039910013B34
:101F900091720D2B0BD8DFE803F021071B070A1500
:101FA0002121150A071B0721D368013BD3605DF887
:101FB000044B7047937A03F003030029E6D043F003
:101FC0000403E3E7D3685DF8044B023BD36070473A
:101FD000D3685DF8044B0233D3607047D3685DF873
:101FE000044B0133D3607047309F0220214B10B463
:101FF000D3F8C4201368506819780478507A137A9B
:10200000044201EA03011BD0937A03F0030309B1F0
:1020100043F0040343F008039910013B91720D2B28
:102020000BD8DFE803F021071B070A152121150A49
:10203000071B0721D368013BD3605DF8044B704751
:10204000937A03F003030029E6D043F00403E3E7A7
:10205000D3685DF8044B023BD3607047D3685DF8EA
:10206000044B0233D3607047D3685DF8044B0133EF
:10207000D3607047309F0220214B10B4D3F8C820A2
:102080001368506819780478507A137A044201EA88
:1020900003011BD0937A03F0030309B143F0040357
:1020A00043F008039910013B91720D2B0BD8DFE828
:1020B00003F021071B070A152121150A071B072119
:1020C000D368013BD3605DF8044B7047937A03F00B
:1020D00003030029E6D043F00403E3E7D3685DF887
:1020E000044B023BD3607047D3685DF8044B023366
:1020F000D3607047D3685DF8044B0133D3607047F9
:10210000309F0220214B10B4D3F8CC2013685068C4
:1021100019780478507A137A044201EA03011BD03B
:10212000937A03F0030309B143F0040343F0080377
:102130009910013B91720D2B0BD8DFE803F02107BA
:102140001B070A152121150A071B0721D368013B2C
:10215000D3605DF8044B7047937A03F003030029C2
:10216000E6D043F00403E3E7D3685DF8044B023B99
:10217000D3607047D3685DF8044B0233D360704777
:10218000D3685DF8044B0133D3607047309F022061
:10219000214B10B4D3F8D020136850681978047814
:1021A000507A137A044201EA03011BD0937A03F0B8
:1021B000030309B143F0040343F008039910013B02
:1021C00091720D2B0BD8DFE803F021071B070A15CE
:1021D0002121150A071B0721D368013BD3605DF855
:1021E000044B7047937A03F003030029E6D043F0D1
:1021F0000403E3E7D3685DF8044B023BD360704708
:10220000D3685DF8044B0233D3607047D3685DF840
:10221000044B0133D3607047309F0220214B10B430
:10222000D3F8D4201368506819780478507A137A58
:10223000044201EA03011BD0937A03F0030309B1BE
:1022400043F0040343F008039910013B91720D2BF6
:102250000BD8DFE803F021071B070A152121150A17
:10226000071B0721D368013BD3605DF8044B70471F
:10227000937A03F003030029E6D043F00403E3E775
:10228000D3685DF8044B023BD3607047D3685DF8B8
:10229000044B0233D3607047D3685DF8044B0133BD
:1022A000D3607047309F0220214B10B4D3F8D82060
:1022B0001368506819780478507A137A044201EA56
:1022C00003011BD0937A03F0030309B143F0040325
:1022D00043F008039910013B91720D2B0BD8DFE8F6
:1022E00003F021071B070A152121150A071B0721E7
:1022F000D368013BD3605DF8044B7047937A03F0D9
:1023000003030029E6D043F00403E3E7D3685DF854
:10231000044B023BD3607047D3685DF8044B023333
:10232000D3607047D3685DF8044B0133D3607047C6
:10233000309F0220214B10B4D3F8DC201368506882
:1023400019780478507A137A044201EA03011BD009
:10235000937A03F0030309B143F0040343F0080345
:102360009910013B91720D2B0BD8DFE803F0210788
:102370001B070A152121150A071B0721D368013BFA
:10238000D3605DF8044B7047937A03F00303002990
:10239000E6D043F00403E3E7D3685DF8044B023B67
:1023A000D3607047D3685DF8044B0233D360704745
:1023B000D3685DF8044B0133D3607047309F02202F
:1023C000214B10B4D3F8E0201368506819780478D2
:1023D000507A137A044201EA03011BD0937A03F086
:1023E000030309B143F0040343F008039910013BD0
:1023F00091720D2B0BD8DFE803F021071B070A159C
:102400002121150A071B0721D368013BD3605DF822
:10241000044B7047937A03F003030029E6D043F09E
:102420000403E3E7D3685DF8044B023BD3607047D5
:10243000D3685DF8044B0233D3607047D3685DF80E
:10244000044B0133D3607047309F0220214B10B4FE
:10245000D3F8E4201368506819780478507A137A16
:10246000044201EA03011BD0937A03F0030309B18C
:1024700043F0040343F008039910013B91720D2BC4
:102480000BD8DFE803F021071B070A152121150AE5
:10249000071B0721D368013BD3605DF8044B7047ED
:1024A000937A03F003030029E6D043F00403E3E743
:1024B000D3685DF8044B023BD3607047D3685DF886
:1024C000044B0233D3607047D3685DF8044B01338B
:1024D000D3607047309F0220214B10B4D3F8E8201E
:1024E0001368506819780478507A137A044201EA24
:1024F00003011BD0937A03F0030309B143F00403F3
:1025000043F008039910013B91720D2B0BD8DFE8C3
:1025100003F021071B070A152121150A071B0721B4
:10252000D368013BD3605DF8044B7047937A03F0A6
:1025300003030029E6D043F00403E3E7D3685DF822
:10254000044B023BD3607047D3685DF8044B023301
:10255000D3607047D3685DF8044B0133D360704794
:10256000309F0220002310B4114C417202610460BC
:102570000372C36041B1194600E0026942F82310BA
:10258000427A01339A42F8DC0A4B1A680AB90CE025
:102590001A465369002BFBD15061002343618380AD
:1025A000C38083725DF8044B70471860F5E700BF85
:1025B0001CA60100D4A40220F8B5044615460E4618
:1025C000084602210FF0A6FF284602210FF0A2FFC5
:1025D000984A994B52F83610012001F50077276090
:1025E000207252F83520607202F500770020676093
:1025F000E060013BFDD191F8003292F8002203F037
:102600000103D20744BF43F00203DBB2A3723B2EA7
:1026100000F20386DFE816F0F405EA05E005D605CA
:10262000CC05C205B805AE05A4059A05900586053A
:102630007C05720568055E0554054A0540053605AA
:102640002C05220518050E050405FA04F004E6041D
:10265000DC04D204C804BE04B304A8049D0492049C
:1026600087047C0428041E0414040A040004F603EE
:10267000EC03E203D803CE03C403BA03B003A603FA
:102680009C03920388037E0374036A0360033C0087
:102690006A4B6B49C3F8EC4004223B200FF092FEDA
:1026A000012323743B2D00F2B585DFE815F00B0301
:1026B0000103F702ED02E302D902CF02C502BB0219
:1026C000B102A7029D02930289027F023102270212
:1026D0001D0213020902FF01F501EB01E101D7011F
:1026E000CD01C301B901AF01A5019B019101860193
:1026F0007B01700165015A014F01440139012E012E
:10270000230118010D010201F700EC00E100B800FF
:10271000AD00A20097008C00810076006B00600085
:1027200055004A003C00454B4549C3F8EC400422A3
:102730003B200FF047FE237C0122134423742046E4
:10274000F8BD3E4B3F49C3F8E84004223A200FF061
:1027500039FE237C0122F0E7384B3B49C3F8E440C3
:10276000042239200FF02EFE237C0122E5E7334BB3
:102770003649C3F8E040042238200FF023FE237CC2
:102780000122DAE72D4B3249C3F8DC40042237201E
:102790000FF018FE237C0122CFE7284B2D49C3F808
:1027A000D840042236200FF00DFE237C0122C4E71E
:1027B000224B2949C3F8D440042235200FF002FEF1
:1027C000237C0122B9E71D4B2449C3F8D0400422E1
:1027D00034200FF0F7FD237C0122AEE7174B204990
:1027E000C3F8CC40042233200FF0ECFD237C0122FF
:1027F000A3E7124B1B49C3F8C840042232200FF054
:10280000E1FD237C012298E70C4B1749C3F8C44033
:10281000042231200FF0D6FD237C01228DE7074BE7
:102820001249C3F8C040042230200FF0CBFD237CB6
:10283000012282E794E70100C0D40100309F02200A
:10284000191C0000D92400004D240000C123000001
:1028500035230000A92200001D2200009121000064
:102860000521000079200000ED1F0000611F00001D
:10287000AC4BAD49C3F8BC4004222F200FF0A2FDA1
:10288000237C012259E7A74BA849C3F8B84004228A
:102890002E200FF097FD237C01224EE7A14BA44987
:1028A000C3F8B44004222D200FF08CFD237C0122BC
:1028B00043E79C4B9F49C3F8B04004222C200FF003
:1028C00081FD237C012238E7964B9B49C3F8AC403D
:1028D00004222B200FF076FD237C01222DE7914B63
:1028E0009649C3F8A84004222A200FF06BFD237CF0
:1028F000012222E78B4B9249C3F8A44004222920ED
:102900000FF060FD237C012217E7864B8D49C3F849
:10291000A040042228200FF055FD237C01220CE763
:10292000804B8949C3F89C40042227200FF04AFDC0
:10293000237C012201E77B4B8449C3F898400422A1
:1029400026200FF03FFD237C0122F6E6754B8049DF
:10295000C3F89440042225200FF034FD237C01228B
:10296000EBE6704B7B49C3F89040042224200FF023
:1029700029FD237C0122E0E66A4B7749C3F88C40AD
:10298000042223200FF01EFD237C0122D5E6654B97
:102990007249C3F88840042222200FF013FD237CE3
:1029A0000122CAE65F4B6E49C3F88440042221200D
:1029B0000FF008FD237C0122BFE65A4B6949C3F89A
:1029C0008040042220200FF0FDFC237C0122B4E68D
:1029D000544B6549DC6704221F200FF0F3FC237C75
:1029E0000122AAE64F4B61499C6704221E200FF08A
:1029F000E9FC237C0122A0E64A4B5D495C67042286
:102A00001D200FF0DFFC237C012296E6454B59493F
:102A10001C6704221C200FF0D5FC237C01228CE6CD
:102A2000404B5549DC6604221B200FF0CBFC237C75
:102A3000012282E63B4B51499C6604221A200FF08A
:102A4000C1FC237C012278E6364B4D495C660422AA
:102A500019200FF0B7FC237C01226EE6314B494967
:102A60001C66042218200FF0ADFC237C012264E6D2
:102A70002C4B4549DC65042217200FF0A3FC237C76
:102A800001225AE6274B41499C65042216200FF08B
:102A900099FC237C012250E6224B3D495C650422CF
:102AA00015200FF08FFC237C012246E61D4B39498F
:102AB0001C65042214200FF085FC237C01223CE6D7
:102AC000184B3549DC64042213200FF07BFC237C77
:102AD000012232E6134B31499C64042212200FF08C
:102AE00071FC237C012228E60E4B2D495C640422F4
:102AF00011200FF067FC237C01221EE6094B2949B7
:102B00001C64042210200FF05DFC237C012214E6DB
:102B1000044B2549DC6304220F200FF053FC237C77
:102B200001220AE6309F0220D51E0000491E000047
:102B3000BD1D0000311D0000A51C00008D1B000004
:102B4000011B0000751A0000E91900005D19000062
:102B5000D118000045180000B91700002D1700001B
:102B6000A11600001516000089150000FD140000D4
:102B700071140000E513000059130000CD1200008D
:102B800041120000B5110000291100009D10000045
:102B900011100000850F0000F90E00006D0E0000FE
:102BA000E10D0000550D0000C90C0000B34BB44905
:102BB0009C6304220E200FF005FC237C0122BCE55F
:102BC000AE4BB0495C6304220D200FF0FBFB237C6D
:102BD0000122B2E5A94BAC491C6304220C200FF082
:102BE000F1FB237C0122A8E5A44BA849DC62042266
:102BF0000B200FF0E7FB237C01229EE59F4BA449AD
:102C00009C6204220A200FF0DDFB237C012294E564
:102C10009A4BA0495C62042209200FF0D3FB237C6D
:102C200001228AE5954B9C491C62042208200FF082
:102C3000C9FB237C012280E5904B9849DC6104228A
:102C400007200FF0BFFB237C012276E58B4B9449D4
:102C50009C61042206200FF0B5FB237C01226CE569
:102C6000864B90495C61042205200FF0ABFB237C6E
:102C7000012262E5814B8C491C61042210460FF051
:102C8000A1FB237C012258E57C4B8849DC600422AF
:102C900003200FF097FB237C01224EE5774B8449FC
:102CA0009C60042202200FF08DFB237C012244E56E
:102CB000724B80495C60042201200FF083FB237C6F
:102CC00001223AE56D4B7C491C60042200200FF084
:102CD00079FB237C012230E5684B7849C3F8E84052
:102CE00004223A200FF06EFB0123DAE4634B7449AF
:102CF000C3F8E440042239200FF064FB0123D0E440
:102D00005E4B7049C3F8E040042238200FF05AFBB4
:102D10000123C6E4594B6C49C3F8DC400422372038
:102D20000FF050FB0123BCE4544B6849C3F8D84072
:102D3000042236200FF046FB0123B2E44F4B6449D6
:102D4000C3F8D440042235200FF03CFB0123A8E453
:102D50004A4B6049C3F8D040042234200FF032FBC4
:102D600001239EE4454B5C49C3F8CC400422332048
:102D70000FF028FB012394E4404B5849C3F8C840A6
:102D8000042232200FF01EFB01238AE43B4B5449FE
:102D9000C3F8C440042231200FF014FB012380E467
:102DA000364B5049C3F8C040042230200FF00AFBD4
:102DB000012376E4314B4C49C3F8BC4004222F2058
:102DC0000FF000FB01236CE42C4B4849C3F8B840DA
:102DD00004222E200FF0F6FA012362E4274B444927
:102DE000C3F8B44004222D200FF0ECFA012358E47C
:102DF000224B4049C3F8B04004222C200FF0E2FAE5
:102E000001234EE41D4B3C49C3F8AC4004222B2067
:102E10000FF0D8FA012344E4184B3849C3F8A8400E
:102E200004222A200FF0CEFA01233AE4134B34494E
:102E3000C3F8A440042229200FF0C4FA012330E48F
:102E40000E4B3049C3F8A040042228200FF0BAFAF4
:102E5000012326E4094B2C49C3F89C400422272077
:102E60000FF0B0FA01231CE4044B2849C3F8984042
:102E7000042226200FF0A6FA012312E4309F02203C
:102E80003D0C0000B10B0000250B0000990A00006A
:102E90000D0A000081090000F50800006908000023
:102EA000DD07000051070000C506000039060000DC
:102EB000AD0500002105000095040000D9240000A4
:102EC0004D240000C123000035230000A92200008A
:102ED0001D22000091210000052100007920000042
:102EE000ED1F0000611F0000D51E0000491E0000FC
:102EF000BD1D0000311D0000A51C00008D1B000041
:102F0000011B0000751A0000E91900005D1900009E
:102F1000C34BC449C3F89440042225200FF052FA51
:102F20000123FFF7BEBBBE4BBF49C3F8904004224C
:102F300024200FF047FA0123FFF7B3BBB84BBB497E
:102F4000C3F88C40042223200FF03CFA0123FFF742
:102F5000A8BBB34BB649C3F88840042222200FF027
:102F600031FA0123FFF79DBBAD4BB249C3F8844052
:102F7000042221200FF026FA0123FFF792BBA84B71
:102F8000AD49C3F88040042220200FF01BFA012332
:102F9000FFF787BBA24BA949DC6704221F200FF073
:102FA00011FA0123FFF77DBB9D4BA5499C670422C5
:102FB0001E200FF007FA0123FFF773BB984BA149BE
:102FC0005C6704221D200FF0FDF90123FFF769BBA8
:102FD000934B9D491C6704221C200FF0F3F9012339
:102FE000FFF75FBB8E4B9949DC6604221B200FF074
:102FF000E9F90123FFF755BB894B95499C660422EB
:103000001A200FF0DFF90123FFF74BBB844B9149E6
:103010005C66042219200FF0D5F90123FFF741BBAC
:103020007F4B8D491C66042218200FF0CBF9012339
:10303000FFF737BB7A4B8949DC65042217200FF074
:10304000C1F90123FFF72DBB754B85499C6504220F
:1030500016200FF0B7F90123FFF723BB704B81490E
:103060005C65042215200FF0ADF90123FFF719BBB1
:103070006B4B7D491C65042214200FF0A3F901233A
:10308000FFF70FBB664B7949DC64042213200FF075
:1030900099F90123FFF705BB614B75499C64042234
:1030A00012200FF08FF90123FFF7FBBA5C4B714937
:1030B0005C64042211200FF085F90123FFF7F1BAB7
:1030C000574B6D491C64042210200FF07BF901233B
:1030D000FFF7E7BA524B6949DC6304220F200FF077
:1030E00071F90123FFF7DDBA4D4B65499C6304225A
:1030F0000E200FF067F90123FFF7D3BA484B61495F
:103100005C6304220D200FF05DF90123FFF7C9BABB
:10311000434B5D491C6304220C200FF053F901233B
:10312000FFF7BFBA3E4B5949DC6204220B200FF077
:1031300049F90123FFF7B5BA394B55499C6204227E
:103140000A200FF03FF90123FFF7ABBA344B514986
:103150005C62042209200FF035F90123FFF7A1BAC0
:103160002F4B4D491C62042208200FF02BF901233C
:10317000FFF797BA2A4B4949DC61042207200FF078
:1031800021F90123FFF78DBA254B45499C610422A3
:1031900006200FF017F90123FFF783BA204B4149AE
:1031A0005C61042205200FF00DF90123FFF779BAC5
:1031B0001B4B3D491C61042210460FF003F901230B
:1031C000FFF76FBA164B3949DC60042203200FF079
:1031D000F9F80123FFF765BA114B35499C600422C9
:1031E00002200FF0EFF80123FFF75BBA0C4B3149D7
:1031F0005C60042201200FF0E5F80123FFF751BACB
:10320000074B2D491C60042200200FF0DBF801233E
:10321000FFF747BA0022FFF790BA0023FFF741BA41
:10322000309F0220D118000045180000B917000097
:103230002D170000A11600001516000089150000CA
:10324000FD14000071140000E51300005913000084
:10325000CD12000041120000B5110000291100003C
:103260009D10000011100000850F0000F90E0000F5
:103270006D0E0000E10D0000550D0000C90C0000AE
:103280003D0C0000B10B0000250B0000990A000066
:103290000D0A000081090000F5080000690800001F
:1032A000DD07000051070000C506000039060000D8
:1032B000AD050000210500009504000010B592B096
:1032C000014601A80EF09AFB0023322201A805A9AD
:1032D0000EF0B6FB05A9054809F060FE044601A8FA
:1032E0000EF04CFBA0B212B010BD00BFE493002062
:1032F00007EE900A9FED0C6ADFED0C6A0C4B0D484F
:10330000B8EEE77ADFED0C7A27EE067A10B5E7EE35
:10331000267A01241C60FCEEE77A17EE901A05F07D
:1033200057FA064B1C6010BD0AD7233C000001432E
:1033300088E100E00C4F0020EE7CFF3E08E100E059
:1033400010B5A2B044221749044668460EF092FE1A
:1033500044220DEB020014490EF08CFEADF1040284
:10336000002352F8041FA14204D00133112BF8D1DD
:1033700022B010BD0D490A68002AFCDB22AA02EB2C
:1033800083030B4913F8442C33F8423C013A1203EF
:10339000013B02F47F22C3F30B0313430B6022B003
:1033A00010BD00BF20A6010064A6010000F102408C
:1033B00004F102402DE9F04F2DED028BDFF8ECA077
:1033C000DFF8ECB0DFED368A9FED368A85B0D14666
:1033D0004FF0000804E0B8F1FC0F4AF8046F5AD02F
:1033E0003BF9023F07EE903A59F8043F039307EE8A
:1033F000103AFAEEEF7AB8EEC77AFDEEE77A27EEEA
:10340000287AF8EEE76A17EE904AA6EE887A1FFA55
:1034100088F52F1D4FF4FC60BDEEC77A3FB217EE62
:10342000106ABE2ED4BF26EAE676BE26BE2CA8BF02
:10343000BE2423B25A22A4B2394600901A4807F09B
:103440003FF90535C4F1BE0304F15A0200243946A0
:103450001BB212B2144800942DB207F031F9BE230A
:10346000009429465A22104807F02AF9039B052B9D
:1034700008F10208AFDD1A4655324FF6FF7300938C
:1034800012B229460523084807F01AF9B8F1FC0FD3
:103490004AF8046FA4D105B0BDEC028BBDE8F08FF3
:1034A0006666663FCDCCCC3DE4930020D8830020F7
:1034B000868C0020F8B55C4E34685CB1032C5B4D03
:1034C00028D0022C3CD0012C60D0042C7DD00023CD
:1034D0002B62F8BD5648554D564F05F0C1FB564A74
:1034E000564B11681A68EC6191424FF48033AB611E
:1034F00004BFEB61AC61524B34685248524A002120
:103500001960032C4FF001034FF002013B60036090
:103510001160D6D14FF480414548464F05F084FBF9
:10352000474B34684848474900221A60AA61012382
:103530004FF48032022C3B6003600B60EA61C2D121
:103540004FF480413A4805F059FB404BDFED406AAB
:1035500093F9003007EE903AF8EEE77AB7EE006A9A
:1035600086EE277A4FF480320023EA61AB61B4EE35
:10357000E67AF1EE10FA3BD4F2EE007AB4EEE77A96
:10358000F1EE10FA44DD4FF4002333E02848274CD5
:103590002B4F05F065FB284A284B116818684FF43B
:1035A000803288424FF00003EB61AA6108BFE261FC
:1035B00020482549234A08BFA361012334680360DA
:1035C00000263E600B6013607FE719481C4F194EC0
:1035D0001D4C05F045FB1B48002201234FF48031B0
:1035E0003A60EA61AA613360236003602962F8BD32
:1035F00040F28F230E4F124C0E481349114A3B6282
:10360000012300272760036034680B6013605AE7CA
:10361000DFED106ADFED107AE7EE267AFCEEE77A4E
:1036200017EE903AE6E700BF9C96002064970020D2
:10363000C0960020609C0220D84E0020243E00202E
:10364000B0980020A0960020A04E00205D3E0020F3
:103650000AD7233C00008047EE7CFF3EF0B5474C84
:10366000474A484991B0002508A80123256002F087
:10367000E7FF10AA44480A9B12F8145D9DF8241035
:1036800083600573017100F10D031A3012F8011FF8
:1036900003F8011B83423C49F8D10F9B3B4ECB61A1
:1036A00008A802F0F5FE0023394F336005E008A8B2
:1036B00002F004FF08A802F0EBFE0122324908A83C
:1036C00003F032F808A802F007FF40F2E63310B921
:1036D00022689A424CDD08A802F0DEFE0028E6D1FE
:1036E00008A802F0D7FE014668460EF087F929497E
:1036F00004A80EF083F904A968460EF0BBF905464C
:1037000004A80EF03BF91DB968460EF037F9CEE774
:10371000236803EB430503EB850308A8FD1802F0BB
:10372000B9FE0146284613F00BFA1B4904A80EF017
:1037300065F904A968460EF09DF9054604A80EF047
:103740001DF92B460122694604A80EF0A5F904A82C
:103750000EF0C6F9054604A80EF010F93268236889
:103760000A49954203F10103C8BF0D602360CBE70E
:1037700008A802F08DFE11B0F0BD00BF0897002030
:1037800050A70100649C02203C9C0220381C0220AF
:103790001851002054A701005CA7010008B5054995
:1037A000012200200BF0A4FFFE210348BDE80840E1
:1037B00002F09ABE60A70100649C022038B5064D55
:1037C0000648074C294601220BF092FF207028463C
:1037D0000CF064FB207038BD60A701003C4C002059
:1037E000D48B0020F8B5224C236833B9214B1A68DA
:1037F00040F2E6339A420DDDF8BD1F480CF03CFB69
:1038000000231E4A23601B4B10701A6840F2E633F7
:103810009A42F1DC1A4F1B4B3D681B681A491B4842
:10382000164E01352A463D6013F0FCF8002117487A
:103830000CF048FB0A22307014490F480BF082FF4D
:103840000228307008D00A2210490B480BF07AFF8A
:10385000012330702360F8BD07480CF00DFB0928E8
:103860003070F0D109480CF053FB3070EBE700BF2B
:10387000CC9800200897002010940020D48B0020C2
:10388000381C0220D098002064A701000C9700206B
:103890002DE9F843064605F087FE01282CDDDFF808
:1038A0006490DFF858800025D8F80000134F05EB2E
:1038B0004004304605F0AAFE09EB042401464FF40B
:1038C000807220460EF0D6FB0135304605F0BCFE76
:1038D000022DE9D13B680133BF2B02D83B60BDE824
:1038E000F8830022064B3A60064907484FF4C0327D
:1038F0000CF0A4F8054B1870BDE8F883089400207C
:103900009C4E00203099002010940020D48B002081
:10391000134A38B500230446124D80F8F630137070
:103920000CE005F073FE104B01464FF480720F4817
:103930000CF084F82870204605F086FE204605F03D
:1039400033FE00282046ECDC08480CF095FA084BC2
:10395000287000221A60BDE83840FFF77FBE00BF24
:10396000F04E0020D48B00209C4E002010940020AC
:10397000CC98002008B50948FFF7CAFF0021084885
:1039800007F0E6F90749084A084B096811604FF447
:1039900080329A61BDE80840FFF78CBDA0970020F7
:1039A000E49300205C9C02209C960020E01B0220F7
:1039B0002DE9F0418CB00DF1FF3600250746B046E9
:1039C0002C4628460EF006FB08F8010F4440082359
:1039D00014F0010F4FEA540203F1FF3314BF82F0D9
:1039E0008C04C4F3470413F0FF03F1D101352F2DEC
:1039F000E7D1F4B99DF82B30322B03D020460CB020
:103A0000BDE8F0819DF82A30302BF7D19DF82930A0
:103A1000302BF3D19DF82830302BEFD1013F0DF141
:103A20002F0316F8012F07F8012F9E42F9D101202C
:103A3000E5E718460CB0BDE8F08100BFF8B50025F9
:103A4000471E2C4617F8016F0823744014F0010F2D
:103A50004FEA540203F1FF3314BF82F08C04C4F325
:103A6000470413F0FF03F1D128460EF0B3FA864263
:103A700009D0314628460EF0C7FA28460EF0AAFAB9
:103A80003B78834204D101352E2DDBD1002600E0A6
:103A90000126214628460EF0B7FA28460EF09AFA7B
:103AA00084420CBF30460120F8BD00BF2DE9F04331
:103AB00025492648264A09680068264B264D1B885A
:103AC000264C2E68264F2568264C3F6894F80090B7
:103AD0008FB001330390059192E80300C0F30722F1
:103AE0008DF83120C0F307428DF832201E491F4A5D
:103AF00091F8008092F800C0ADF80A301C4A1D4BC6
:103B00001D498DF83000000E92F800E009688DF82C
:103B1000330006965F2293F900600891002302A803
:103B20008DF81DC08DF81CE08DF808200A950497CB
:103B30008DF825908DF824800B96ADF83430FFF782
:103B40007DFF0FB0BDE8F083203E00209C96002052
:103B500070A70100088C00206C3E0020B498002063
:103B6000703E00207D3E00205D3E0020743E00201F
:103B7000183E00207C3E0020783E00202DE9F04FCA
:103B8000AA4AAB4B1468AB48AB491C600C328BB0F3
:103B900005680C681268A949A948DA605D609C60F4
:103BA0000DF02CFFA74AA849A548DFF8D49210F0E1
:103BB0004DFE1C211B2227238DE80E00A348FF2366
:103BC0001422152106F01CFC32222521A04809F000
:103BD00049FB322224219F4809F044FB2322222161
:103BE0009D48FEF7E9FC322226219C4809F03AFB69
:103BF00032221D219A4809F035FB1F221E219948C7
:103C0000FEF7DAFC984B994993F90030984A9948A5
:103C10000B7012685942017000239749C9F80010CF
:103C200089F80930C9F8103089F80830C9F80C3023
:103C30000AB9C0E21A465369002BFBD1C2F81490AE
:103C40000024DFF890B28D4B8D48C9F81440A9F8D4
:103C50000440A9F8064089F80A40C9F8003005F088
:103C6000F1F80BF1180201215846FEF77BFC854B59
:103C700085488BF8F440224621468BF8F540CBF876
:103C8000F0408BF8F640CBF80030FEF76BFC7E4A34
:103C90007E4B13607E4A7C4E7E4D18324FF480433B
:103CA000A2F1180002213362FEF75CFC784A7A4BDD
:103CB0001360012005F224726F4E2C7223462146B8
:103CC000EC602E6068722A612C4600E0226942F89E
:103CD00023106A7A6F4801339A42F7DC644B1A6802
:103CE0000AB96CE21A465369002BFBD155610024D6
:103CF0006A492960224601234FF48071684E694861
:103D00006C61AC80EC80AC7285F8214785F8224765
:103D1000C5F8186110F0BEFC554BDFF894811A68A5
:103D20005549C5F81C41082385F8203788F8094013
:103D3000C8F80010C8F8104088F80840C8F80C40CF
:103D40004B4B0AB93DE21A465369002BFBD1C2F82E
:103D500014804FF0000A544B5448C8F814A0A8F837
:103D600004A0A8F806A088F80AA0C8F8003002F05D
:103D700081FB4F484F4C504F504E05F011FB314ADC
:103D80004F494B4810F062FD4E4B012103F11802E0
:103D90001846FEF7E7FB4B4A4B4B13604B4B042195
:103DA00003F128021846FEF7DDFB494B03F1280218
:103DB0001846464B04211C604FF480349C61DC6142
:103DC0001C625C62FEF7CEFB414B3A4C1C6007F173
:103DD00028024FF48034042138469C61DC611C6267
:103DE0005C62FEF7BFFB3349BC61022006F118029A
:103DF000FC613C627C62204C396034605346514621
:103E000086F808A0C6F80CA070723261344600E053
:103E1000226942F82310727A284801339A42F7DC6B
:103E2000134B1A68002A58D1CEE100BF54800440D9
:103E3000388C0020588004405C80044078A7010042
:103E4000884E00200C3E00207D190100E4930020E4
:103E5000CC93002030190220A8960020A84E002004
:103E60001C990020DC4E00207C3E0020DC1B022040
:103E7000D4A40220DC9300201CA60100D4AD0100D4
:103E8000D898002004AE0100488C002010AE01003C
:103E9000B41902206C8C0020C8AD010094AB010065
:103EA000B4AB010094930020F8AD01005C1902202E
:103EB00044190220E0AD010064960020181C022085
:103EC00071040000C0960020BCAD0100E01B022080
:103ED00064970020A09700201A465369002BFBD15D
:103EE00056610024B94ABA4B7461B480F480B4724C
:103EF000B8483260059305F0DDF9059BDFF82CA387
:103F00001C721846C3F800905F605C72DC601C7421
:103F10000DF062FB059BB04AB049184610F096FCC4
:103F2000AF4B059350468AE8000A8AF808408AF8A1
:103F30000940CAF80C408AF810400DF04DFBA64A23
:103F4000A649DFF8ECB2504610F080FC059BDFF884
:103F5000E4A21C724FF001091846C3F800805F60AC
:103F6000DC601C7483F809900DF036FB059B9A4ABF
:103F70009A49DFF8C482184610F068FC994BCBF8D8
:103F8000043058468BF80840CBF800708BF8094095
:103F9000CBF80C408BF810400DF01EFB8E4A8F4979
:103FA000584610F053FC904BCAF8043050468AF83B
:103FB0000840CAF800708AF80940CAF80C408AF82C
:103FC00010400DF009FB844A8449DFF870B2504676
:103FD00010F03CFC834B88F80840404688E82800F5
:103FE00088F80940C8F80C4088F810400DF0F4FA41
:103FF000794A7A497D4B0593404610F027FC7C4B6B
:10400000DFF83CA2CBF8043058468BF80840CBF8D8
:1040100000708BF80940CBF80C408BF810400DF085
:10402000DBFA6D4A6D49DFF81C82724D584610F07C
:104030000DFC714BCAF8003050466D4BCAF8043085
:104040008AF808408AF80990CAF80C408AF81040AB
:104050000DF0C2FA6149604ADFF8ECB1504610F049
:10406000F5FB059B604A1A601846644A1C725A6048
:1040700083F80990DC601C740DF0AEFA059B564A7B
:104080005649DFF8C8A1184610F0E0FB584BC8F8B5
:1040900000304046594BC8F8043088F8084088F88A
:1040A0000940C8F80C4088F810400DF095FA4B49CB
:1040B000494A404610F0CAFB022328464F4A6B7219
:1040C0002C722F606A60EC602C740DF085FA424A05
:1040D0004249DFF87C814A4F284610F0B7FB474B36
:1040E0008BF8084058468BE848008BF80940CBF81D
:1040F0000C408BF810400DF06FFA374A3749414DAC
:10410000584610F0A3FB3D4B8AF8099050468AE8C8
:1041100048008AF80840CAF80C408AF810400DF0B0
:104120005BFA50462C4A2D49DFF828A1364CDFF8BF
:10413000289110F08BFB3549354B0A680792DDF862
:104140001CB00A6808921A68089B0968DFF80CE13D
:1041500009911E462F4B0999DFF804C1CEF80020C3
:1041600002EB420003EB80032B4A2D68CAF800B033
:10417000A1F57A71D3F808B0D3F804A0C8F80060AC
:10418000264B2748CCF800104FF00A082360C2F8ED
:1041900000A0C7F800B0C9F8005084F8088002F009
:1041A00069F90D4A1F491E4810F050FB0DF0C6FE7C
:1041B0000BB0BDE8F08F1C4BC3F8009040E51860D1
:1041C00095E5C3F80080C4E518608AE6ECAD01000F
:1041D000B8930020181C02200C3E00208904000027
:1041E000248C0020E01B0220C0960020F44E00200A
:1041F000B4190220F08B0020488C00206497002026
:104200009C970020783E00200C4F002064A50220DF
:104210006C3E0020A8A60100D0980020A0AB0100B1
:104220003C9C022091640000D4A4022098980020B5
:10423000881902209C19022008990020C44E0020F1
:10424000F4980020B89800200C8C0020A493002043
:10425000DC8B0020D81B0220D88B00205C9700202C
:10426000A49600202DE9F04F2DED028B474C484FCE
:10427000484E95B020464FF6E07108F011FF282512
:1042800000224FF400430193114620460095F0238D
:10429000A76106F09FFB4FF6FF7301930095F02393
:1042A0002A462046002107F047FC3368012B00F026
:1042B000CA82022B00F0D48214224FF400438DE80E
:1042C0000C000021F0234FF48C723048DFF8ECA092
:1042D00006F080FB28224FF448738DE80C00002183
:1042E000F0234FF49672294806F074FB0022114621
:1042F000264808F0B9FE0122274924480DF0ACFAFF
:104300009AF9001021480DF031FB3268022A00F0C2
:10431000B182DFF8AC9021491C48214F02220DF0F8
:104320009BFA99F9001019480DF020FB02221D4953
:1043300016480DF091FA1C4B1C68204612F080FCC8
:104340002146024611480DF087FA022217490F480C
:104350000DF082FA164B0D4893F90030012B07BF80
:1043600004221449144905220DF076FA0748142254
:10437000002108F079FE3B68042B00F24E82DFE852
:1043800013F03B01410147014D012100E49300205E
:10439000C4DF0100703E002098A70100A0A7010023
:1043A0009C960020A4A70100D0980020A8A7010097
:1043B0007C3E0020ACA70100B4A70100183E0020FD
:1043C000743E00200422C449C4480DF045FAC44B91
:1043D000DFF870831968C34C0BA808F065FE14223F
:1043E000B421BE4808F040FE0C9A0D9B00920921B2
:1043F000BD4A05A812F0C8FA05A812F021FC05A9CB
:104400000246B6480DF028FA00214FF49672B348E0
:1044100008F02AFED8F80030B048012B0CBF4DF24E
:104420009A614FF6E07108F03BFE23680A2B04D135
:10443000D8F80020012A00F07F82AC4D55F823B057
:10444000584612F0FDFB59460246A4480DF004FA06
:104450000122A749A1480DF0FFF94FF6FF719F48CF
:10446000DFF880B208F01CFE2368012B00F01282F6
:10447000022B00F0D980002B00F0DF80092B00F028
:10448000E580082B00F0EC80032B00F0F3800C2B70
:1044900000F00581052B00F01181964BDFF8A89202
:1044A0001B688E48012B0CBF4DF29A614FF6E071EC
:1044B00008F0F6FDD9F8003055F82300FEF7FEFEAF
:1044C000C0F1F00109B24FF49672844808F0CCFDB7
:1044D000D9F8003055F82350284612F0B1FB294690
:1044E00002467E480DF0B8F94FF48C7200217B48EB
:1044F00008F0BAFD4FF6E071784808F0D1FD236866
:10450000062B00F04E817C4C2378002B00F0658157
:10451000012B00F06B81022B784C00F075814FF677
:10452000E0716E4808F0BCFD754B227875491C7827
:10453000754B052C0CBF1C460C46002A00F00A8166
:104540003368002B40F31E81DFF800A26F4DDAF8CC
:104550000020DFF8D0B19FED6E7ADBF80010002A62
:104560001346B8BF02F1FF031B1207EE903A91FB0E
:10457000F3F185FB0205D217FAEEEF7AC2EB65354F
:10458000012D87EE278A4FEA41091EDD01244FF6EF
:10459000E078CDF8008005235522504807EE904A78
:1045A000F8EEE77A013467EE887AFDEEE77ACDED32
:1045B000037ABDF90C1006F083F8A542E9D1DAF8C8
:1045C0000030002BB8BFFF331B123A68022A00F0FC
:1045D00091814FF6E0730093572203230FFA89F17C
:1045E0003E4807F07DFA3368012B00F0628115B078
:1045F000BDEC028BBDE8F08F0222464937480DF032
:104600002BF9E4E60722444934480DF025F9DEE6AB
:104610000722424931480DF01FF9D8E602224049ED
:104620002E480DF019F9D2E63E4B2C4819680DF0D2
:104630009DF92368002B7FF421AF99F900102748DA
:104640000DF094F92368092B7FF41BAF364B2348F8
:1046500093F900100DF08AF92368082B7FF414AF4A
:10466000324B1E4893F900100DF080F92368032B9C
:104670007FF40DAF2E4B2F4A1B6803EB430302EB75
:104680008303D3F80490484612F0DAFA494602460A
:1046900012480DF0E1F823680C2B7FF4FBAE264B9B
:1046A00093F90030002B40F0C780032223490B48C8
:1046B0000DF0D2F82368052B7FF4EFAEDFF8909071
:1046C000D9F80030002B40F0AE8007221C49034887
:1046D0000DF0C2F8E1E600BFD4A70100E49300208A
:1046E00000D00340B0980020E4A70100283E00203D
:1046F000F0A70100A0960020B84E0020401902202B
:104700005C3E002088A7010090A70100AD8BDB680C
:1047100000401C46BCA70100C4A70100CCA70100B3
:10472000C0A70100783E00207D3E00205D3E0020B5
:104730006C3E0020A8A60100103E0020F4A7010056
:1047400000A80100609C0220A04E00209C97002041
:10475000B498002021468E4808F020FCC0F1EB01FF
:1047600009B24FF48C728A4808F07EFC204612F0A1
:1047700067FA2146024686480DF06EF83368002B32
:104780003FF7E2AE55220021814808F06DFC092276
:1047900080497F480DF060F815B0BDEC028BBDE894
:1047A000F08FD8F80030012B7FF4ADAE7A4C78480A
:1047B0004FF6FF7108F074FC2378002B00F0DA80CC
:1047C000012B00F0DE80022B744C7FF4A8AE7449FC
:1047D0006F4804220DF040F8A1E6072271496C48A9
:1047E0000DF03AF82378012B7FF495AE6E4B1B78D1
:1047F000002B57D006226D4965480DF02DF823781F
:10480000664C022B7FF48BAE2378002BDFD0042282
:1048100067495F480DF020F881E6052265495C484C
:104820000DF01AF8D3E50422634959480DF014F845
:104830000123C9F8003030E60422604954480DF0E5
:104840000BF8236826E600211E2300932046F02360
:1048500001913C2206F0BEF83368022B7FF42CADA8
:104860000021062300930191F0235422484806F0CA
:10487000B1F821E5524946480CF0EEFF514B524940
:104880001B68434881FB0321DB17C3EBA1110DF02B
:104890006DF83EE59AF900103D480DF067F8DBF839
:1048A0000030E5E50722494939480CF0D5FF237867
:1048B00031E6DBF80010444B454A83FB0103C9177E
:1048C000C1EBA31308A8092112F05EF8A9F10A01AF
:1048D00009B23C222E4808F0C7FB08A812F0B0F934
:1048E00008A902462A480CF0B7FF15B0BDEC028BB0
:1048F000BDE8F08F374A384D92F9001095FBF3F57B
:104900004FF47A7202FB01F292FBF3F3ED1A6D00A1
:104910005B001CB22DB24FF6FF772B462146009765
:1049200055221B4805F0DCFE2B46214600975922F4
:10493000174805F0D5FE4CE6284B294A1B68294D3F
:1049400003EB430B03EB8B0302EB030B58462E21C7
:1049500012F08EF8CBEB000259460132224812F0D9
:104960004DF9214812F06CF91F49024608480CF035
:1049700073FF72E507220B4905480CF06DFF2378A1
:104980001EE70722194902480CF066FF23781AE750
:10499000E493002048A80100D41B02204019022003
:1049A00020A8010010A80100F04E002028A8010056
:1049B00038A80100DCA7010008A80100F8A7010041
:1049C0009CA70100783E0020D34D621030A8010062
:1049D00040A801007D3E002080380100B01902206F
:1049E00018510020283E0020E08B002018A801006C
:1049F000074B10B5012401461C60064803F078FE01
:104A0000054B1C60FFF72EFC044B00221A6010BD02
:104A100088E100E00C4F002008E100E0E093002076
:104A2000F0B58DB06846FEF7C3FF044698B138492B
:104A3000089A384BBDF802709DF828609DF82950FF
:104A40009DF82A000F80012A9DF82B101E705D70C2
:104A50009870D97002D020460DB0F0BD2E4E2F496F
:104A6000039F37602E482F4B029D2F4E049F0F60EF
:104A70000199026019603560002D2FD0022D40D0C1
:104A8000012D35D00021294806F062F93168274808
:104A9000274E0CF06BFF274A9DF915002649274B3E
:104AA0009DF81D509DF81C701070069A0D701A60CC
:104AB0003770FEF71DFC9DF91430214A214D13700B
:104AC0001846FFF795FF099B1F4820495AB25B42E1
:104AD000037020462A700A700DB0F0BD29461348B5
:104AE00006F06CFB2946114806F040F93568C5E729
:104AF00000210E4806F062FB00210C4806F036F952
:104B0000C0E70021094806F031F93568B8E700BF71
:104B1000088C0020BC4E0020203E00206C3E00206F
:104B2000B49800209C960020703E0020E493002062
:104B30005D3E0020743E00207D3E0020783E002037
:104B4000183E00207C3E0020DC930020DC1B02206D
:104B5000274B9FED286A93ED007ADFED276AB8EEC8
:104B6000C77A07EE900AC6EE075AF8EEE77A67EEC4
:104B7000A57AF4EEE67AF1EE10FA19DC1F4A204B22
:104B8000C2ED007AF5EEC07A0122F1EE10FA1A6059
:104B90002BD49FED1C7AF4EEC77AF1EE10FA1BDDF0
:104BA000194B1A491A4A01200860D361FFF75ABB12
:104BB000C7EE065A114B1748114A0121F2EE027A4C
:104BC000E5EEA67AC3ED006AFDEEE77A17EE903ABD
:104BD000F0EE667A036011609FED0F7A67EE877AD8
:104BE000FCEEE77A17EE903ADBE70023D9E700BF47
:104BF0009C970020A6552C4700E0AB461C3E0020A9
:104C000088E100E0A655AC4680FFFF7F08E100E0A8
:104C1000488C0020783E00204B24BE472DE9F04F01
:104C20002DED048BB34AB44B92F900201B689FED25
:104C3000B36ADFEDB36A07EE102A002BB8BFFF336B
:104C4000F8EEC77A1B1227EE867A07EE903AF8EE56
:104C5000E77AADF5077D87EE278A0EAC4FF4F07248
:104C600020460021C6EEA78A11F032FCA54B1A6837
:104C70000132012A03921A60BDEEC88AFDEEE88A6D
:104C800000F01881039B632B40F21C81DFF8C08287
:104C9000DFF8B8929FED9C6A0026C446B346B6463C
:104CA00027464FF4807A0225F2EE046A0FE0042AC8
:104CB000D8BF4FF4006323DC0135782D24F816307B
:104CC00007F1040727F8023C06F102062CD03CF855
:104CD000023FB9EC017A03EB83035B0007EE903AE5
:104CE000F8EEE77AE7EE467A77EEA67AFDEEE77A17
:104CF00017EE902A52459644D9DD17EE90AAAB469E
:104D00005300FF2BA8BFFF23B2F5407FC0F2D08233
:104D1000B2F5106FC0F296821B0203F478436FEA7B
:104D2000D3236FEAC323C7E7784B9FED797A83FBE0
:104D30000E234FEAEE7ECEEB23139AFBF3F307EE3E
:104D4000903AF8EEE77A18EE103AF4EE477AF1EE80
:104D500010FA48BF4FF0000B5B4504DA18EE903AAA
:104D60005B4500F3FB806B4B1D68012D4FF0000A83
:104D700000F02081022D00F02B8118EE103A5B45E7
:104D8000654D4EDA18EE903A5B454ADD2B78002BE4
:104D900040F0FC81614EDFF8C08133680D93604BB9
:104DA0000D9A1A60D8F80030012B00F0E6815D4EB4
:104DB000022B337840F0EC81002B00F0E9815A4857
:104DC00003F04EFF4FF48041574803F017FF574B55
:104DD000DFED576A93F9003007EE903AF8EEE77A84
:104DE000B7EE006A86EE277AB4EEE67AF1EE10FAB4
:104DF00000F11882F2EE007AB4EEE77AF1EE10FAE2
:104E000000F31382DFED4B6ADFED4B7AE7EE267A93
:104E1000FCEEE77A17EE902A434900230A623370CA
:104E2000B6E12B786BB13D4A3D4913680993099B64
:104E3000096812680A924148414A0A9E06605B1A54
:104E40001380384E002233782A7043B9334A3449EC
:104E5000126808920968089A521A322A09D82D4B0A
:104E60001B68022B0FD00DF5077DBDEC048BBDE850
:104E7000F08F2D4A2B70012382F842303370254B7E
:104E80001B68022BEFD1254B2C4A1B680793126835
:104E9000079B2C4D9B1A312B40F28D812B68B3F56B
:104EA0008C7FE0DB5A232B600DF5077DBDEC048B76
:104EB000BDE8F08F244B002103F5007243F8041B7A
:104EC0009A42FBD1214A2249DFED226A02F5FC70A9
:104ED00031F8023F92ED007A03EB83035B0007EEAB
:104EE000903AF8EEE77AA7EEA67AA2EC017A82422F
:104EF000EED1CBE67D3E00209C97002000007A4456
:104F000000409C47D49800206666663FBF3CB622AE
:104F10006666863F703E0020BC96002064A5022095
:104F2000D81B02206B3E0020C09600205D3E002072
:104F30000AD7233C00008047EE7CFF3EDC8B00203C
:104F4000084F0020143E0020184F0020204F002062
:104F5000868C00206F12833A9C960020C14BC24A77
:104F600002930021D3ED006A8A46022338F8020F2B
:104F700092ED007A07EE900AF8EEE77A77EE877AFC
:104F8000F4EEE67AF1EE10FAE2EC017A03DDF0EEEF
:104F9000676A9A4601210133782BE7D1002940F056
:104FA0009E81B24A138801331380B14B1D68012DD5
:104FB0007FF4E0AEAF4B1B68022B00F0EE80039B4A
:104FC000DB073FF5DAAEFEF7F5F9A94B1D68D1E630
:104FD000A64E3388322B7FF6D0AE00202D230190D1
:104FE00000930146F02330802822A34805F0F2FC0C
:104FF0009C4BBAF1000F00F0F0801A4692ED007A57
:1050000002939E4BDFED9E5AF7EE007A03EB8A0384
:1050100077EE277A1A1D514632ED016AC6EE276AED
:10502000F4EEE56AF1EE10FA02DD01390229F3D15E
:10503000DFED935A03915246B3EC016AC6EE276A3C
:10504000F4EEE56AF1EE10FA40F3A5800132782A19
:10505000F2D100230493DFF81092DFED8A9A9FEDDE
:105060008A9ACDF814B00026022702E0029B93ED45
:10507000007AD9ED006A8048C6EE877A4FF478430B
:105080000FFA86FB0093594667EEA97AFDEEE77AA0
:1050900017EE905AC5F155080FFA88F82DB242461E
:1050A0002B4605F00DFBBA4507F1010700F0C08063
:1050B0000236782FB6B2A9EC019AD7D1734B029D74
:1050C0001B6895ED007A9FED729A6B48DDF814B07D
:1050D000002BB8BFFF331B1207EE903AF6EE006AC2
:1050E00027EE267AF8EEE77A2D22822185ED007AE6
:1050F00027EE899A07F0B8FF4DF29A615E4807F0F3
:10510000CFFFDDED037A5C48F8EEE77A67EE897A47
:10511000FDEEE77A17EE901A0CF028FC01225D49AB
:1051200055480CF099FB4FF6E071534807F0B8FF73
:1051300007EE90AAF8EEE77A4F4867EE897AFDEE1F
:10514000E77A17EE901A0CF011FC012251494A48F7
:105150000CF082FB4DF29A61474807F0A1FFDDEDAC
:10516000047A4548F8EEE77A67EE897AFDEEE77A49
:1051700017EE901A0CF0FAFBFFE53368464F0C93DC
:105180000C9A3B68D31AB3F57A7F2DD8434E337807
:1051900001222A7059E604925DE7344A404B128896
:1051A000A3FB02139B0803EB8303D31A9BB2002BD0
:1051B0007FF4E3AD07E701940123B5F900202E4801
:1051C00000930021F02306F09BF829882A4805F077
:1051D000F5FF2B6801332B6061E60293039593ED95
:1051E000007ACDF810A036E7284B2E4A1B68002B1A
:1051F000B8BFFF331B120BFB03F382FB0312DB1759
:10520000C3EB62134FF4FA7202FB03F3264A18460B
:105210001360FFF79DFC33680B930B9AD8F80030AE
:105220003A60C4E540F28F22F6E54FF40022F3E540
:105230004FF6E07000902B46424659460E4805F066
:105240003FFA35E7194981FB0210D217C2EB600221
:105250001B02D21003F4784342F4FC6213439BB266
:105260002AE500BFE0930020DC190220A44E0020B4
:10527000703E00209C960020E4930020D419022068
:10528000CDCCCC3D00003442000000009C970020B3
:105290006F12833AF0A70100A49600206B3E002015
:1052A000CDCCCCCCD34D6210783E0020398EE33883
:1052B0000D491B0202930D4B81FB0210D117401ABE
:1052C00083FB0232029BC00003F4784300F4FC60CD
:1052D000C1EB62020343C2F3C4021343ECE4029B3A
:1052E000C3ED006A5DE600BF56555555398EE3386B
:1052F00038B5104B1049114A114D00EB400003EB3B
:105300008003012498685B680B6028601460FEF7D6
:1053100017F8C8200DF004F90A4B1868FFF718FCBD
:10532000094B14201C600DF0FBF8BDE83840FEF777
:1053300099BF00BFA8A60100D098002088E100E036
:105340009C970020783E002008E100E01F4B204A97
:105350001B6801210B2B10B50446117026D0642068
:105360000DF0DEF80D2C2046A8BF0D2020EAE070DD
:10537000FFF7BEFF174C184B1A682368002B02F189
:10538000FF3220DB9342A8BF134603EB43021349CD
:10539000236003EB8203194411480D2211F0BEFC77
:1053A0000F491048BDE8104004F028B80E4A0F4BD2
:1053B00010684FF480310022022899611A6204BFFC
:1053C000D9619A61CBE70023DFE700BFB0980020E6
:1053D00040190220B019022008970020185100201F
:1053E0000C970020441902209C960020649700200E
:1053F00038B50B4C23782BB10A4890F8403003F0B5
:10540000FF0503B138BD03F0D1FF074B25701B78B2
:10541000002BF7D0054B1868BDE83840FFF796BF62
:10542000401902204419022060960020203E0020EE
:105430002DE9F04196B0D0B9A84AA949A94B126804
:105440000D681B680D21EAB9A74A12782B44002A7F
:1054500073D0002BB8BF01F1FF338B42A8BF0023EC
:10546000002875D19F4A136016B0BDE8F08101286D
:10547000FAD19E4A9E499F4B12680D681B68042111
:10548000002AE1D0012AEFD1002DEDD00446002BF7
:1054900065D199490A782A4452B2002AC0F20281A1
:1054A0005A2A1346A8BF5A2307EE903A9FED936AF3
:1054B000DFED936AB8EEE77ADFED927A27EE067AAF
:1054C000E7EE267AFCEEE77ACDED037A8E4A0B7092
:1054D0000126166003998D4803F07AF98C4B1E6003
:1054E000DFF80082D8F80030072B61D0052B48D0B8
:1054F0000A2BB9D1794B1B68012B00F0C1807D4B81
:105500001B68032BB0D1794B1B68012BACD1814BAD
:105510001B78022BA8D1804C754B22681B68134462
:10552000052BA8BF052323EAE37318462360FFF782
:10553000DFFE7A4B22681A6096E7A3F10A02012A7D
:1055400087D8012D00F09A80013508BF092384E730
:10555000012889D1674A136016B0BDE8F081032B9A
:105560007CD16D4E33682B440D2BA8BF0D2323EA4D
:10557000E37318463360FFF7BBFE694B32681A606D
:10558000AEE7564B1B68012B7FF46EAF544B654C56
:105590001A682168644B0A441340002BC0F28C80C7
:1055A0001946624823600CF0E1F9D8F800309FE713
:1055B000002C7FF459AF5E4F5E4E3B680693069B0E
:1055C00032689B1AB3F5FA7F09D2F92B00F23581C4
:1055D000632B8BBF0A23C5EB05155D43AD0004F0BB
:1055E0009BFA08A9284404F041F908A804F016FA27
:1055F0000CF06AFF4D4C08A804F010FA04F0DCFA35
:1056000020463222502107F02FFD0022142320468D
:10561000019200933222A023502105F0DBF9464A83
:10562000464B1168A3610DA807F03EFD0DA90EC9F8
:105630000AA8019100920921414A11F0A5F90AA88E
:1056400011F0FEFA0AA9024620460CF005F93B6863
:105650000793079AD8F80030326047E7082B30D11B
:10566000384A13782B445BB2042B04DD1E2BA8BFF1
:105670001E23137034E70523137031E70C23ECE687
:105680003149174A0B6812689B180DD42F4A1268CB
:10569000934202F1FF3200DB00239342A8BF13467E
:1056A0000B602CE7039311E7284B1B685A1E48BF79
:1056B0000023F5D41346F0E7013B63F00103013307
:1056C0006EE7092B49D1224A13782B445BB20E2B8B
:1056D00040DD232BA8BF2323137001E7609C022029
:1056E000AC980020B0980020F14E0020A096002039
:1056F000984E0020A04E0020743E00200AD7233C84
:1057000000000143EE7CFF3E88E100E00C4F0020EA
:1057100008E100E0B84E00206C3E0020203E002052
:105720005C970020B498002001000080E4930020E2
:1057300064A50220048C002000D00340E0DF0100BB
:1057400054A801005D3E0020B019022008970020F7
:105750007D3E00200F231370C2E60C2B0FD145496C
:10576000454B0A782A4452B21340002B01DB0B70E0
:10577000B6E6013B63F0010301330B70B0E6012B89
:1057800018D13E4A13782B445BB2002B53DB3F2BDE
:10579000A8BF3F2318461370FFF72AF9384A394B40
:1057A00000201060002103F5007243F8041B9342AF
:1057B000FBD195E6022B32D1334F344E3B68049334
:1057C000049B32689B1AB3F5FA7F31D2F92B4DD87E
:1057D000642B41F2883328BF4FF4FA632C492D4AD9
:1057E0000868126803FB050341F6573083421CDD4D
:1057F000294880FB02E0D243D20FC2EBE0124FF403
:105800007A7000FB02F29342A8BF134618460B6061
:10581000FFF79EF93B680593059B336060E6042B18
:105820000ED1174B00221A605AE641F65833EDE7C5
:105830004FF4FA73D2E70023ACE705EB8505CEE61B
:10584000062B7FF44DAE154B1B7863B11449154AF6
:105850000B780133DBB2A2FB0302520802EB4202D7
:105860009B1A0B703CE60E4A137039E64FF47A73BC
:10587000B4E700BF103E002001000080183E002069
:10588000D4980020184F002064A50220048C00202A
:10589000783E00209C970020D34D6210F14E0020EE
:1058A000D41B0220ABAAAAAAF0B5254D254F264E3F
:1058B00083B0FDF797FF28460021002405F07EFC09
:1058C0004FF4A07322462846214600930194F0230A
:1058D00005F080F828464DF29A6107F0E1FB1B4B7A
:1058E000AB6121462846642207F0BEFB0922184915
:1058F00028460BF0B1FF384611F0A2F939460246AE
:1059000028460BF0A9FF134BAB61FEF7ABFC124826
:10591000124D03F0A5F9124A12491348134B1768A8
:105920008C6104604FF480313046DC619961146011
:105930002F6003F045FE012386F8F63003B0F0BD7A
:10594000E49300200C970020A0970020FCDF0100CA
:1059500064A80100C4DF0100C09600205C9C022006
:105960009C960020E01B02200894002064970020F1
:10597000F8B57F4A137C012B40F2918072B6D36850
:1059800062B67C4E002BB8BF033332689C10944241
:105990002FDD794B794D93F900302B60002B35D1F9
:1059A000774A3460137C012B38D972B6D36862B65B
:1059B000744E002BB8BF033332689C1094420FDD45
:1059C0006D4B714F93F900303B60DBB92B6834604D
:1059D00013B93B68002B59D0BDE8F840FEF742BC34
:1059E00059DA6A4B684F93F900303B60002BEDD0D9
:1059F00008E04CDA654B614D93F900302B60002BC9
:105A0000CED003E00020FFF713FDDFE70120FFF712
:105A10000FFD5B4A3460137C012BC6D872B6136845
:105A2000506819780478507A137A044201EA030125
:105A30006ED0937A03F0030309B143F0040343F0FB
:105A400008039910013B91720D2BAFD801A151F8B9
:105A500023F000BF495B0000415B0000395B0000A0
:105A6000415B0000AD590000315B0000495B000064
:105A7000495B0000315B0000AD590000415B000054
:105A8000395B0000415B0000495B0000F8BD3B4D05
:105A900000232B6084E73C4F00233B6096E772B6FF
:105AA0001368506819780478507A137A044201EA2E
:105AB000030135D0937A03F0030309B143F00403E3
:105AC00043F008039910013B91720D2B3FF657AF3D
:105AD00001A151F823F000BF695B0000615B000089
