:1000000000000320D1010000792401003124010007
:100010003124010031240100312401003124010088
:100020003124010031240100312401007924010030
:1000300079240100312401006D390100713A010079
:100040007924010079240100792401007924010038
:100050007924010079240100792401007924010028
:100060007924010079240100792401007924010018
:100070007924010079240100792401007924010008
:1000800079240100792401007924010079240100F8
:1000900079240100792401007924010079240100E8
:1000A000ED530100F9530100792401007924010086
:1000B000792401007924010079240100B93A010072
:1000C00079240100E53B010079240100113D010084
:1000D00079240100093E01007924010079240100FE
:1000E0007924010079240100792401007924010098
:1000F0007924010079240100792401007924010088
:100100007924010079240100792401007924010077
:1001100079240100052B01007924010079240100D4
:100120007924010079240100792401007924010057
:100130007924010079240100792401007924010047
:100140005919010079240100013F010079240100BF
:100150007924010079240100792401007924010027
:10016000792401007924010005540100792401005B
:100170007924010079240100792401007924010007
:1001800079240100792401007924010079240100F7
:100190007924010079240100F93F0100792401004C
:1001A00079240100792401007924010079240100D7
:1001B00079240100792401007924010079240100C7
:1001C00079240100792401007924010079240100B7
:1001D0005C4B4CF2205210B51A804DF628121A8052
:1001E00000BF00BF12F04CF9574B4FF030621A605D
:1001F000564A9A60564ADA60564B4FF470021A60BB
:10020000554B564A1A60564A136813F4807304D14A
:1002100054490B604FF4A8531360534B1A781107DD
:1002200003D51A7842F008021A70504B5049AA229E
:100230001A70504A504B8B4204D252F8040F43F8C4
:10024000040BF8E74D4B4E4900228B4202D243F893
:10025000042BFAE74B494C4A002352F8230041F89B
:1002600023000133742BF8D1484B494A802103F80D
:10027000011B9342FBD1474B424A1A60464B8A22EC
:100280001A70A3F5805324225A70A0221A709A790A
:100290009207FCD59A79D406FCD4404A937903F0AE
:1002A0000C03082BFAD13E4B60221A7002331A78E5
:1002B000802AFCD1394B01221A715D225A719A7938
:1002C0009006FCD59979354A4906FBD5354B364918
:1002D00019600021596020231370937903F00C03F7
:1002E0000C2BFAD1314B324A1A60324B324A1A6027
:1002F00000225A60072243F8042C304AC3F80C2D20
:1003000062B612F0A3FA174B1B68DA0705D52C4822
:1003100012F01EFA2B4B2C4A1A602C4B1B785B06F2
:1003200009D5284C284B22689A4204D1244812F05F
:100330000FFA0023236015F06FFE12F0A7F811F0FA
:10034000D5FFFEE70E20054030800440823F0400C8
:100350000100002B88ED00E0002008E0030000858C
:1003600010D0034014D0034002D0074000E0074003
:10037000704C00207CDE0200303D0020704C0020DC
:1003800020AA0220003800200000000000E400E065
:1003900064E400E008ED00E0005006400040064044
:1003A00001E007404480044000000602048004404D
:1003B000C010070014E000E01FBF02000000202072
:1003C000A0875F5D1CE00340A5C3945A00F007407E
:1003D000FFFFFFFFFFFFFFFFFFFFFFFFFFFFFFFF2D
:1003E000FFFFFFFFFFFFFFFFFFFFFFFFFFFFFFFF1D
:1003F000FFFFFFFFFFFFFFFFFFFFFFFFFFFFFFFF0D
:10040000FFFFFFFFFFFFFFFFFFFFFFFFDEF9FFFF23
:1004100010B5054C237833B9044B13B10448AFF33E
:1004200000800123237010BD704C002000000000EC
:1004300078DE0200084B10B51BB108490848AFF33D
:1004400000800848036803B910BD074B002BFBD0A0
:10045000BDE81040184700BF00000000744C0020A9
:1004600078DE0200704C00200000000012F06AB933
:1004700010B5044B044640F8183B06F04DF92046F1
:1004800010BD00BF7CB1010010B5044611F01CFA8C
:10049000204610BD214B10B4D3F8E02013685068FB
:1004A00019780478507A137A044201EA03011BD0C8
:1004B000937A03F0030309B143F0040343F0080304
:1004C0009910013B91720D2B0BD8DFE803F0210747
:1004D0001B070A152121150A071B0721D368013BB9
:1004E000D3605DF8044B7047937A03F0030300294F
:1004F000E6D043F00403E3E7D3685DF8044B023B26
:10050000D3607047D3685DF8044B0233D360704703
:10051000D3685DF8044B0133D3607047809F02209D
:10052000214B10B4D3F8E42013685068197804788C
:10053000507A137A044201EA03011BD0937A03F044
:10054000030309B143F0040343F008039910013B8E
:1005500091720D2B0BD8DFE803F021071B070A155A
:100560002121150A071B0721D368013BD3605DF8E1
:10057000044B7047937A03F003030029E6D043F05D
:100580000403E3E7D3685DF8044B023BD360704794
:10059000D3685DF8044B0233D3607047D3685DF8CD
:1005A000044B0133D3607047809F0220214B10B46D
:1005B000D3F8E8201368506819780478507A137AD1
:1005C000044201EA03011BD0937A03F0030309B14B
:1005D00043F0040343F008039910013B91720D2B83
:1005E0000BD8DFE803F021071B070A152121150AA4
:1005F000071B0721D368013BD3605DF8044B7047AC
:10060000937A03F003030029E6D043F00403E3E701
:10061000D3685DF8044B023BD3607047D3685DF844
:10062000044B0233D3607047D3685DF8044B013349
:10063000D3607047809F0220214B10B4D3F8EC2088
:100640001368506819780478507A137A044201EAE2
:1006500003011BD0937A03F0030309B143F00403B1
:1006600043F008039910013B91720D2B0BD8DFE882
:1006700003F021071B070A152121150A071B072173
:10068000D368013BD3605DF8044B7047937A03F065
:1006900003030029E6D043F00403E3E7D3685DF8E1
:1006A000044B023BD3607047D3685DF8044B0233C0
:1006B000D3607047D3685DF8044B0133D360704753
:1006C000809F0220214B10B4D3F8C02013685068DB
:1006D00019780478507A137A044201EA03011BD096
:1006E000937A03F0030309B143F0040343F00803D2
:1006F0009910013B91720D2B0BD8DFE803F0210715
:100700001B070A152121150A071B0721D368013B86
:10071000D3605DF8044B7047937A03F0030300291C
:10072000E6D043F00403E3E7D3685DF8044B023BF3
:10073000D3607047D3685DF8044B0233D3607047D1
:10074000D3685DF8044B0133D3607047809F02206B
:10075000214B10B4D3F8C42013685068197804787A
:10076000507A137A044201EA03011BD0937A03F012
:10077000030309B143F0040343F008039910013B5C
:1007800091720D2B0BD8DFE803F021071B070A1528
:100790002121150A071B0721D368013BD3605DF8AF
:1007A000044B7047937A03F003030029E6D043F02B
:1007B0000403E3E7D3685DF8044B023BD360704762
:1007C000D3685DF8044B0233D3607047D3685DF89B
:1007D000044B0133D3607047809F0220214B10B43B
:1007E000D3F8C8201368506819780478507A137ABF
:1007F000044201EA03011BD0937A03F0030309B119
:1008000043F0040343F008039910013B91720D2B50
:100810000BD8DFE803F021071B070A152121150A71
:10082000071B0721D368013BD3605DF8044B704779
:10083000937A03F003030029E6D043F00403E3E7CF
:10084000D3685DF8044B023BD3607047D3685DF812
:10085000044B0233D3607047D3685DF8044B013317
:10086000D3607047809F0220214B10B4D3F8CC2076
:100870001368506819780478507A137A044201EAB0
:1008800003011BD0937A03F0030309B143F004037F
:1008900043F008039910013B91720D2B0BD8DFE850
:1008A00003F021071B070A152121150A071B072141
:1008B000D368013BD3605DF8044B7047937A03F033
:1008C00003030029E6D043F00403E3E7D3685DF8AF
:1008D000044B023BD3607047D3685DF8044B02338E
:1008E000D3607047D3685DF8044B0133D360704721
:1008F000809F0220214B10B4D3F8D0201368506899
:1009000019780478507A137A044201EA03011BD063
:10091000937A03F0030309B143F0040343F008039F
:100920009910013B91720D2B0BD8DFE803F02107E2
:100930001B070A152121150A071B0721D368013B54
:10094000D3605DF8044B7047937A03F003030029EA
:10095000E6D043F00403E3E7D3685DF8044B023BC1
:10096000D3607047D3685DF8044B0233D36070479F
:10097000D3685DF8044B0133D3607047809F022039
:10098000214B10B4D3F8D420136850681978047838
:10099000507A137A044201EA03011BD0937A03F0E0
:1009A000030309B143F0040343F008039910013B2A
:1009B00091720D2B0BD8DFE803F021071B070A15F6
:1009C0002121150A071B0721D368013BD3605DF87D
:1009D000044B7047937A03F003030029E6D043F0F9
:1009E0000403E3E7D3685DF8044B023BD360704730
:1009F000D3685DF8044B0233D3607047D3685DF869
:100A0000044B0133D3607047809F0220214B10B408
:100A1000D3F8D8201368506819780478507A137A7C
:100A2000044201EA03011BD0937A03F0030309B1E6
:100A300043F0040343F008039910013B91720D2B1E
:100A40000BD8DFE803F021071B070A152121150A3F
:100A5000071B0721D368013BD3605DF8044B704747
:100A6000937A03F003030029E6D043F00403E3E79D
:100A7000D3685DF8044B023BD3607047D3685DF8E0
:100A8000044B0233D3607047D3685DF8044B0133E5
:100A9000D3607047809F0220214B10B4D3F8DC2034
:100AA0001368506819780478507A137A044201EA7E
:100AB00003011BD0937A03F0030309B143F004034D
:100AC00043F008039910013B91720D2B0BD8DFE81E
:100AD00003F021071B070A152121150A071B07210F
:100AE000D368013BD3605DF8044B7047937A03F001
:100AF00003030029E6D043F00403E3E7D3685DF87D
:100B0000044B023BD3607047D3685DF8044B02335B
:100B1000D3607047D3685DF8044B0133D3607047EE
:100B2000809F0220214B10B41A681368506819780E
:100B30000478507A137A044201EA03011BD0937AB5
:100B400003F0030309B143F0040343F008039910D1
:100B5000013B91720D2B0BD8DFE803F021071B0737
:100B60000A152121150A071B0721D368013BD36011
:100B70005DF8044B7047937A03F003030029E6D035
:100B800043F00403E3E7D3685DF8044B023BD36012
:100B90007047D3685DF8044B0233D3607047D36865
:100BA0005DF8044B0133D360704700BF809F022083
:100BB000214B10B45A681368506819780478507A39
:100BC000137A044201EA03011BD0937A03F0030372
:100BD00009B143F0040343F008039910013B9172FB
:100BE0000D2B0BD8DFE803F021071B070A15212185
:100BF000150A071B0721D368013BD3605DF8044B3E
:100C00007047937A03F003030029E6D043F004030E
:100C1000E3E7D3685DF8044B023BD3607047D368C9
:100C20005DF8044B0233D3607047D3685DF8044B22
:100C30000133D360704700BF809F0220214B10B466
:100C40009A681368506819780478507A137A0442C5
:100C500001EA03011BD0937A03F0030309B143F0C7
:100C6000040343F008039910013B91720D2B0BD83C
:100C7000DFE803F021071B070A152121150A071BCE
:100C80000721D368013BD3605DF8044B7047937A2A
:100C900003F003030029E6D043F00403E3E7D3683D
:100CA0005DF8044B023BD3607047D3685DF8044B9A
:100CB0000233D3607047D3685DF8044B0133D360CF
:100CC000704700BF809F0220214B10B4DA68136880
:100CD000506819780478507A137A044201EA0301C3
:100CE0001BD0937A03F0030309B143F0040343F0EC
:100CF00008039910013B91720D2B0BD8DFE803F02C
:100D000021071B070A152121150A071B0721D36894
:100D1000013BD3605DF8044B7047937A03F0030303
:100D20000029E6D043F00403E3E7D3685DF8044B01
:100D3000023BD3607047D3685DF8044B0233D36045
:100D40007047D3685DF8044B0133D360704700BF30
:100D5000809F0220214B10B41A69136850681978DB
:100D60000478507A137A044201EA03011BD0937A83
:100D700003F0030309B143F0040343F0080399109F
:100D8000013B91720D2B0BD8DFE803F021071B0705
:100D90000A152121150A071B0721D368013BD360DF
:100DA0005DF8044B7047937A03F003030029E6D003
:100DB00043F00403E3E7D3685DF8044B023BD360E0
:100DC0007047D3685DF8044B0233D3607047D36833
:100DD0005DF8044B0133D360704700BF809F022051
:100DE000214B10B45A691368506819780478507A06
:100DF000137A044201EA03011BD0937A03F0030340
:100E000009B143F0040343F008039910013B9172C8
:100E10000D2B0BD8DFE803F021071B070A15212152
:100E2000150A071B0721D368013BD3605DF8044B0B
:100E30007047937A03F003030029E6D043F00403DC
:100E4000E3E7D3685DF8044B023BD3607047D36897
:100E50005DF8044B0233D3607047D3685DF8044BF0
:100E60000133D360704700BF809F0220214B10B434
:100E70009A691368506819780478507A137A044292
:100E800001EA03011BD0937A03F0030309B143F095
:100E9000040343F008039910013B91720D2B0BD80A
:100EA000DFE803F021071B070A152121150A071B9C
:100EB0000721D368013BD3605DF8044B7047937AF8
:100EC00003F003030029E6D043F00403E3E7D3680B
:100ED0005DF8044B023BD3607047D3685DF8044B68
:100EE0000233D3607047D3685DF8044B0133D3609D
:100EF000704700BF809F0220214B10B4DA6913684D
:100F0000506819780478507A137A044201EA030190
:100F10001BD0937A03F0030309B143F0040343F0B9
:100F200008039910013B91720D2B0BD8DFE803F0F9
:100F300021071B070A152121150A071B0721D36862
:100F4000013BD3605DF8044B7047937A03F00303D1
:100F50000029E6D043F00403E3E7D3685DF8044BCF
:100F6000023BD3607047D3685DF8044B0233D36013
:100F70007047D3685DF8044B0133D360704700BFFE
:100F8000809F0220214B10B41A6A136850681978A8
:100F90000478507A137A044201EA03011BD0937A51
:100FA00003F0030309B143F0040343F0080399106D
:100FB000013B91720D2B0BD8DFE803F021071B07D3
:100FC0000A152121150A071B0721D368013BD360AD
:100FD0005DF8044B7047937A03F003030029E6D0D1
:100FE00043F00403E3E7D3685DF8044B023BD360AE
:100FF0007047D3685DF8044B0233D3607047D36801
:101000005DF8044B0133D360704700BF809F02201E
:10101000214B10B45A6A1368506819780478507AD2
:10102000137A044201EA03011BD0937A03F003030D
:1010300009B143F0040343F008039910013B917296
:101040000D2B0BD8DFE803F021071B070A15212120
:10105000150A071B0721D368013BD3605DF8044BD9
:101060007047937A03F003030029E6D043F00403AA
:10107000E3E7D3685DF8044B023BD3607047D36865
:101080005DF8044B0233D3607047D3685DF8044BBE
:101090000133D360704700BF809F0220214B10B402
:1010A0009A6A1368506819780478507A137A04425F
:1010B00001EA03011BD0937A03F0030309B143F063
:1010C000040343F008039910013B91720D2B0BD8D8
:1010D000DFE803F021071B070A152121150A071B6A
:1010E0000721D368013BD3605DF8044B7047937AC6
:1010F00003F003030029E6D043F00403E3E7D368D9
:101100005DF8044B023BD3607047D3685DF8044B35
:101110000233D3607047D3685DF8044B0133D3606A
:10112000704700BF809F0220214B10B4DA6A136819
:10113000506819780478507A137A044201EA03015E
:101140001BD0937A03F0030309B143F0040343F087
:1011500008039910013B91720D2B0BD8DFE803F0C7
:1011600021071B070A152121150A071B0721D36830
:10117000013BD3605DF8044B7047937A03F003039F
:101180000029E6D043F00403E3E7D3685DF8044B9D
:10119000023BD3607047D3685DF8044B0233D360E1
:1011A0007047D3685DF8044B0133D360704700BFCC
:1011B000809F0220214B10B41A6B13685068197875
:1011C0000478507A137A044201EA03011BD0937A1F
:1011D00003F0030309B143F0040343F0080399103B
:1011E000013B91720D2B0BD8DFE803F021071B07A1
:1011F0000A152121150A071B0721D368013BD3607B
:101200005DF8044B7047937A03F003030029E6D09E
:1012100043F00403E3E7D3685DF8044B023BD3607B
:101220007047D3685DF8044B0233D3607047D368CE
:101230005DF8044B0133D360704700BF809F0220EC
:10124000214B10B45A6B1368506819780478507A9F
:10125000137A044201EA03011BD0937A03F00303DB
:1012600009B143F0040343F008039910013B917264
:101270000D2B0BD8DFE803F021071B070A152121EE
:10128000150A071B0721D368013BD3605DF8044BA7
:101290007047937A03F003030029E6D043F0040378
:1012A000E3E7D3685DF8044B023BD3607047D36833
:1012B0005DF8044B0233D3607047D3685DF8044B8C
:1012C0000133D360704700BF809F0220214B10B4D0
:1012D0009A6B1368506819780478507A137A04422C
:1012E00001EA03011BD0937A03F0030309B143F031
:1012F000040343F008039910013B91720D2B0BD8A6
:10130000DFE803F021071B070A152121150A071B37
:101310000721D368013BD3605DF8044B7047937A93
:1013200003F003030029E6D043F00403E3E7D368A6
:101330005DF8044B023BD3607047D3685DF8044B03
:101340000233D3607047D3685DF8044B0133D36038
:10135000704700BF809F0220214B10B4DA6B1368E6
:10136000506819780478507A137A044201EA03012C
:101370001BD0937A03F0030309B143F0040343F055
:1013800008039910013B91720D2B0BD8DFE803F095
:1013900021071B070A152121150A071B0721D368FE
:1013A000013BD3605DF8044B7047937A03F003036D
:1013B0000029E6D043F00403E3E7D3685DF8044B6B
:1013C000023BD3607047D3685DF8044B0233D360AF
:1013D0007047D3685DF8044B0133D360704700BF9A
:1013E000809F0220214B10B41A6C13685068197842
:1013F0000478507A137A044201EA03011BD0937AED
:1014000003F0030309B143F0040343F00803991008
:10141000013B91720D2B0BD8DFE803F021071B076E
:101420000A152121150A071B0721D368013BD36048
:101430005DF8044B7047937A03F003030029E6D06C
:1014400043F00403E3E7D3685DF8044B023BD36049
:101450007047D3685DF8044B0233D3607047D3689C
:101460005DF8044B0133D360704700BF809F0220BA
:10147000214B10B45A6C1368506819780478507A6C
:10148000137A044201EA03011BD0937A03F00303A9
:1014900009B143F0040343F008039910013B917232
:1014A0000D2B0BD8DFE803F021071B070A152121BC
:1014B000150A071B0721D368013BD3605DF8044B75
:1014C0007047937A03F003030029E6D043F0040346
:1014D000E3E7D3685DF8044B023BD3607047D36801
:1014E0005DF8044B0233D3607047D3685DF8044B5A
:1014F0000133D360704700BF809F0220214B10B49E
:101500009A6C1368506819780478507A137A0442F8
:1015100001EA03011BD0937A03F0030309B143F0FE
:10152000040343F008039910013B91720D2B0BD873
:10153000DFE803F021071B070A152121150A071B05
:101540000721D368013BD3605DF8044B7047937A61
:1015500003F003030029E6D043F00403E3E7D36874
:101560005DF8044B023BD3607047D3685DF8044BD1
:101570000233D3607047D3685DF8044B0133D36006
:10158000704700BF809F0220214B10B4DA6C1368B3
:10159000506819780478507A137A044201EA0301FA
:1015A0001BD0937A03F0030309B143F0040343F023
:1015B00008039910013B91720D2B0BD8DFE803F063
:1015C00021071B070A152121150A071B0721D368CC
:1015D000013BD3605DF8044B7047937A03F003033B
:1015E0000029E6D043F00403E3E7D3685DF8044B39
:1015F000023BD3607047D3685DF8044B0233D3607D
:101600007047D3685DF8044B0133D360704700BF67
:10161000809F0220214B10B41A6D1368506819780E
:101620000478507A137A044201EA03011BD0937ABA
:1016300003F0030309B143F0040343F008039910D6
:10164000013B91720D2B0BD8DFE803F021071B073C
:101650000A152121150A071B0721D368013BD36016
:101660005DF8044B7047937A03F003030029E6D03A
:1016700043F00403E3E7D3685DF8044B023BD36017
:101680007047D3685DF8044B0233D3607047D3686A
:101690005DF8044B0133D360704700BF809F022088
:1016A000214B10B45A6D1368506819780478507A39
:1016B000137A044201EA03011BD0937A03F0030377
:1016C00009B143F0040343F008039910013B917200
:1016D0000D2B0BD8DFE803F021071B070A1521218A
:1016E000150A071B0721D368013BD3605DF8044B43
:1016F0007047937A03F003030029E6D043F0040314
:10170000E3E7D3685DF8044B023BD3607047D368CE
:101710005DF8044B0233D3607047D3685DF8044B27
:101720000133D360704700BF809F0220214B10B46B
:101730009A6D1368506819780478507A137A0442C5
:1017400001EA03011BD0937A03F0030309B143F0CC
:10175000040343F008039910013B91720D2B0BD841
:10176000DFE803F021071B070A152121150A071BD3
:101770000721D368013BD3605DF8044B7047937A2F
:1017800003F003030029E6D043F00403E3E7D36842
:101790005DF8044B023BD3607047D3685DF8044B9F
:1017A0000233D3607047D3685DF8044B0133D360D4
:1017B000704700BF809F0220214B10B4DA6D136880
:1017C000506819780478507A137A044201EA0301C8
:1017D0001BD0937A03F0030309B143F0040343F0F1
:1017E00008039910013B91720D2B0BD8DFE803F031
:1017F00021071B070A152121150A071B0721D3689A
:10180000013BD3605DF8044B7047937A03F0030308
:101810000029E6D043F00403E3E7D3685DF8044B06
:10182000023BD3607047D3685DF8044B0233D3604A
:101830007047D3685DF8044B0133D360704700BF35
:10184000809F0220214B10B41A6E136850681978DB
:101850000478507A137A044201EA03011BD0937A88
:1018600003F0030309B143F0040343F008039910A4
:10187000013B91720D2B0BD8DFE803F021071B070A
:101880000A152121150A071B0721D368013BD360E4
:101890005DF8044B7047937A03F003030029E6D008
:1018A00043F00403E3E7D3685DF8044B023BD360E5
:1018B0007047D3685DF8044B0233D3607047D36838
:1018C0005DF8044B0133D360704700BF809F022056
:1018D000214B10B45A6E1368506819780478507A06
:1018E000137A044201EA03011BD0937A03F0030345
:1018F00009B143F0040343F008039910013B9172CE
:101900000D2B0BD8DFE803F021071B070A15212157
:10191000150A071B0721D368013BD3605DF8044B10
:101920007047937A03F003030029E6D043F00403E1
:10193000E3E7D3685DF8044B023BD3607047D3689C
:101940005DF8044B0233D3607047D3685DF8044BF5
:101950000133D360704700BF809F0220214B10B439
:101960009A6E1368506819780478507A137A044292
:1019700001EA03011BD0937A03F0030309B143F09A
:10198000040343F008039910013B91720D2B0BD80F
:10199000DFE803F021071B070A152121150A071BA1
:1019A0000721D368013BD3605DF8044B7047937AFD
:1019B00003F003030029E6D043F00403E3E7D36810
:1019C0005DF8044B023BD3607047D3685DF8044B6D
:1019D0000233D3607047D3685DF8044B0133D360A2
:1019E000704700BF809F0220214B10B4DA6E13684D
:1019F000506819780478507A137A044201EA030196
:101A00001BD0937A03F0030309B143F0040343F0BE
:101A100008039910013B91720D2B0BD8DFE803F0FE
:101A200021071B070A152121150A071B0721D36867
:101A3000013BD3605DF8044B7047937A03F00303D6
:101A40000029E6D043F00403E3E7D3685DF8044BD4
:101A5000023BD3607047D3685DF8044B0233D36018
:101A60007047D3685DF8044B0133D360704700BF03
:101A7000809F0220214B10B41A6F136850681978A8
:101A80000478507A137A044201EA03011BD0937A56
:101A900003F0030309B143F0040343F00803991072
:101AA000013B91720D2B0BD8DFE803F021071B07D8
:101AB0000A152121150A071B0721D368013BD360B2
:101AC0005DF8044B7047937A03F003030029E6D0D6
:101AD00043F00403E3E7D3685DF8044B023BD360B3
:101AE0007047D3685DF8044B0233D3607047D36806
:101AF0005DF8044B0133D360704700BF809F022024
:101B0000214B10B45A6F1368506819780478507AD2
:101B1000137A044201EA03011BD0937A03F0030312
:101B200009B143F0040343F008039910013B91729B
:101B30000D2B0BD8DFE803F021071B070A15212125
:101B4000150A071B0721D368013BD3605DF8044BDE
:101B50007047937A03F003030029E6D043F00403AF
:101B6000E3E7D3685DF8044B023BD3607047D3686A
:101B70005DF8044B0233D3607047D3685DF8044BC3
:101B80000133D360704700BF809F0220214B10B407
:101B90009A6F1368506819780478507A137A04425F
:101BA00001EA03011BD0937A03F0030309B143F068
:101BB000040343F008039910013B91720D2B0BD8DD
:101BC000DFE803F021071B070A152121150A071B6F
:101BD0000721D368013BD3605DF8044B7047937ACB
:101BE00003F003030029E6D043F00403E3E7D368DE
:101BF0005DF8044B023BD3607047D3685DF8044B3B
:101C00000233D3607047D3685DF8044B0133D3606F
:101C1000704700BF809F0220214B10B4DA6F136819
:101C2000506819780478507A137A044201EA030163
:101C30001BD0937A03F0030309B143F0040343F08C
:101C400008039910013B91720D2B0BD8DFE803F0CC
:101C500021071B070A152121150A071B0721D36835
:101C6000013BD3605DF8044B7047937A03F00303A4
:101C70000029E6D043F00403E3E7D3685DF8044BA2
:101C8000023BD3607047D3685DF8044B0233D360E6
:101C90007047D3685DF8044B0133D360704700BFD1
:101CA000809F0220214B10B4D3F880201368506825
:101CB00019780478507A137A044201EA03011BD0A0
:101CC000937A03F0030309B143F0040343F00803DC
:101CD0009910013B91720D2B0BD8DFE803F021071F
:101CE0001B070A152121150A071B0721D368013B91
:101CF000D3605DF8044B7047937A03F00303002927
:101D0000E6D043F00403E3E7D3685DF8044B023BFD
:101D1000D3607047D3685DF8044B0233D3607047DB
:101D2000D3685DF8044B0133D3607047809F022075
:101D3000214B10B4D3F884201368506819780478C4
:101D4000507A137A044201EA03011BD0937A03F01C
:101D5000030309B143F0040343F008039910013B66
:101D600091720D2B0BD8DFE803F021071B070A1532
:101D70002121150A071B0721D368013BD3605DF8B9
:101D8000044B7047937A03F003030029E6D043F035
:101D90000403E3E7D3685DF8044B023BD36070476C
:101DA000D3685DF8044B0233D3607047D3685DF8A5
:101DB000044B0133D3607047809F0220214B10B445
:101DC000D3F888201368506819780478507A137A09
:101DD000044201EA03011BD0937A03F0030309B123
:101DE00043F0040343F008039910013B91720D2B5B
:101DF0000BD8DFE803F021071B070A152121150A7C
:101E0000071B0721D368013BD3605DF8044B704783
:101E1000937A03F003030029E6D043F00403E3E7D9
:101E2000D3685DF8044B023BD3607047D3685DF81C
:101E3000044B0233D3607047D3685DF8044B013321
:101E4000D3607047809F0220214B10B4D3F88C20C0
:101E50001368506819780478507A137A044201EABA
:101E600003011BD0937A03F0030309B143F0040389
:101E700043F008039910013B91720D2B0BD8DFE85A
:101E800003F021071B070A152121150A071B07214B
:101E9000D368013BD3605DF8044B7047937A03F03D
:101EA00003030029E6D043F00403E3E7D3685DF8B9
:101EB000044B023BD3607047D3685DF8044B023398
:101EC000D3607047D3685DF8044B0133D36070472B
:101ED000809F0220214B10B4D3F8902013685068E3
:101EE00019780478507A137A044201EA03011BD06E
:101EF000937A03F0030309B143F0040343F00803AA
:101F00009910013B91720D2B0BD8DFE803F02107EC
:101F10001B070A152121150A071B0721D368013B5E
:101F2000D3605DF8044B7047937A03F003030029F4
:101F3000E6D043F00403E3E7D3685DF8044B023BCB
:101F4000D3607047D3685DF8044B0233D3607047A9
:101F5000D3685DF8044B0133D3607047809F022043
:101F6000214B10B4D3F89420136850681978047882
:101F7000507A137A044201EA03011BD0937A03F0EA
:101F8000030309B143F0040343F008039910013B34
:101F900091720D2B0BD8DFE803F021071B070A1500
:101FA0002121150A071B0721D368013BD3605DF887
:101FB000044B7047937A03F003030029E6D043F003
:101FC0000403E3E7D3685DF8044B023BD36070473A
:101FD000D3685DF8044B0233D3607047D3685DF873
:101FE000044B0133D3607047809F0220214B10B413
:101FF000D3F898201368506819780478507A137AC7
:10200000044201EA03011BD0937A03F0030309B1F0
:1020100043F0040343F008039910013B91720D2B28
:102020000BD8DFE803F021071B070A152121150A49
:10203000071B0721D368013BD3605DF8044B704751
:10204000937A03F003030029E6D043F00403E3E7A7
:10205000D3685DF8044B023BD3607047D3685DF8EA
:10206000044B0233D3607047D3685DF8044B0133EF
:10207000D3607047809F0220214B10B4D3F89C207E
:102080001368506819780478507A137A044201EA88
:1020900003011BD0937A03F0030309B143F0040357
:1020A00043F008039910013B91720D2B0BD8DFE828
:1020B00003F021071B070A152121150A071B072119
:1020C000D368013BD3605DF8044B7047937A03F00B
:1020D00003030029E6D043F00403E3E7D3685DF887
:1020E000044B023BD3607047D3685DF8044B023366
:1020F000D3607047D3685DF8044B0133D3607047F9
:10210000809F0220214B10B4D3F8A02013685068A0
:1021100019780478507A137A044201EA03011BD03B
:10212000937A03F0030309B143F0040343F0080377
:102130009910013B91720D2B0BD8DFE803F02107BA
:102140001B070A152121150A071B0721D368013B2C
:10215000D3605DF8044B7047937A03F003030029C2
:10216000E6D043F00403E3E7D3685DF8044B023B99
:10217000D3607047D3685DF8044B0233D360704777
:10218000D3685DF8044B0133D3607047809F022011
:10219000214B10B4D3F8A420136850681978047840
:1021A000507A137A044201EA03011BD0937A03F0B8
:1021B000030309B143F0040343F008039910013B02
:1021C00091720D2B0BD8DFE803F021071B070A15CE
:1021D0002121150A071B0721D368013BD3605DF855
:1021E000044B7047937A03F003030029E6D043F0D1
:1021F0000403E3E7D3685DF8044B023BD360704708
:10220000D3685DF8044B0233D3607047D3685DF840
:10221000044B0133D3607047809F0220214B10B4E0
:10222000D3F8A8201368506819780478507A137A84
:10223000044201EA03011BD0937A03F0030309B1BE
:1022400043F0040343F008039910013B91720D2BF6
:102250000BD8DFE803F021071B070A152121150A17
:10226000071B0721D368013BD3605DF8044B70471F
:10227000937A03F003030029E6D043F00403E3E775
:10228000D3685DF8044B023BD3607047D3685DF8B8
:10229000044B0233D3607047D3685DF8044B0133BD
:1022A000D3607047809F0220214B10B4D3F8AC203C
:1022B0001368506819780478507A137A044201EA56
:1022C00003011BD0937A03F0030309B143F0040325
:1022D00043F008039910013B91720D2B0BD8DFE8F6
:1022E00003F021071B070A152121150A071B0721E7
:1022F000D368013BD3605DF8044B7047937A03F0D9
:1023000003030029E6D043F00403E3E7D3685DF854
:10231000044B023BD3607047D3685DF8044B023333
:10232000D3607047D3685DF8044B0133D3607047C6
:10233000809F0220214B10B4D3F8B020136850685E
:1023400019780478507A137A044201EA03011BD009
:10235000937A03F0030309B143F0040343F0080345
:102360009910013B91720D2B0BD8DFE803F0210788
:102370001B070A152121150A071B0721D368013BFA
:10238000D3605DF8044B7047937A03F00303002990
:10239000E6D043F00403E3E7D3685DF8044B023B67
:1023A000D3607047D3685DF8044B0233D360704745
:1023B000D3685DF8044B0133D3607047809F0220DF
:1023C000214B10B4D3F8B4201368506819780478FE
:1023D000507A137A044201EA03011BD0937A03F086
:1023E000030309B143F0040343F008039910013BD0
:1023F00091720D2B0BD8DFE803F021071B070A159C
:102400002121150A071B0721D368013BD3605DF822
:10241000044B7047937A03F003030029E6D043F09E
:102420000403E3E7D3685DF8044B023BD3607047D5
:10243000D3685DF8044B0233D3607047D3685DF80E
:10244000044B0133D3607047809F0220214B10B4AE
:10245000D3F8B8201368506819780478507A137A42
:10246000044201EA03011BD0937A03F0030309B18C
:1024700043F0040343F008039910013B91720D2BC4
:102480000BD8DFE803F021071B070A152121150AE5
:10249000071B0721D368013BD3605DF8044B7047ED
:1024A000937A03F003030029E6D043F00403E3E743
:1024B000D3685DF8044B023BD3607047D3685DF886
:1024C000044B0233D3607047D3685DF8044B01338B
:1024D000D3607047809F0220214B10B4D3F8BC20FA
:1024E0001368506819780478507A137A044201EA24
:1024F00003011BD0937A03F0030309B143F00403F3
:1025000043F008039910013B91720D2B0BD8DFE8C3
:1025100003F021071B070A152121150A071B0721B4
:10252000D368013BD3605DF8044B7047937A03F0A6
:1025300003030029E6D043F00403E3E7D3685DF822
:10254000044B023BD3607047D3685DF8044B023301
:10255000D3607047D3685DF8044B0133D360704794
:10256000809F0220002310B4114C4172026104606C
:102570000372C36041B1194600E0026942F82310BA
:10258000427A01339A42F8DC0A4B1A680AB90CE025
:102590001A465369002BFBD15061002343618380AD
:1025A000C38083725DF8044B70471860F5E700BF85
:1025B0009CA8010024A50220F8B5044615460E4645
:1025C0000846022110F0EAF82846022110F0E6F849
:1025D000984A994B52F83610012001F50077276090
:1025E000207252F83520607202F500770020676093
:1025F000E060013BFDD191F8003292F8002203F037
:102600000103D20744BF43F00203DBB2A3723B2EA7
:1026100000F20386DFE816F0F405EA05E005D605CA
:10262000CC05C205B805AE05A4059A05900586053A
:102630007C05720568055E0554054A0540053605AA
:102640002C05220518050E050405FA04F004E6041D
:10265000DC04D204C804BE04B304A8049D0492049C
:1026600087047C0428041E0414040A040004F603EE
:10267000EC03E203D803CE03C403BA03B003A603FA
:102680009C03920388037E0374036A0360033C0087
:102690006A4B6B49C3F8EC4004223B200FF0D6FF95
:1026A000012323743B2D00F2B585DFE815F00B0301
:1026B0000103F702ED02E302D902CF02C502BB0219
:1026C000B102A7029D02930289027F023102270212
:1026D0001D0213020902FF01F501EB01E101D7011F
:1026E000CD01C301B901AF01A5019B019101860193
:1026F0007B01700165015A014F01440139012E012E
:10270000230118010D010201F700EC00E100B800FF
:10271000AD00A20097008C00810076006B00600085
:1027200055004A003C00454B4549C3F8EC400422A3
:102730003B200FF08BFF237C01221344237420469F
:10274000F8BD3E4B3F49C3F8E84004223A200FF061
:102750007DFF237C0122F0E7384B3B49C3F8E4407E
:10276000042239200FF072FF237C0122E5E7334B6E
:102770003649C3F8E040042238200FF067FF237C7D
:102780000122DAE72D4B3249C3F8DC40042237201E
:102790000FF05CFF237C0122CFE7284B2D49C3F8C3
:1027A000D840042236200FF051FF237C0122C4E7D9
:1027B000224B2949C3F8D440042235200FF046FFAC
:1027C000237C0122B9E71D4B2449C3F8D0400422E1
:1027D00034200FF03BFF237C0122AEE7174B20494A
:1027E000C3F8CC40042233200FF030FF237C0122B9
:1027F000A3E7124B1B49C3F8C840042232200FF054
:1028000025FF237C012298E70C4B1749C3F8C440ED
:10281000042231200FF01AFF237C01228DE7074BA1
:102820001249C3F8C040042230200FF00FFF237C70
:10283000012282E7D4DE0100C0D40100809F022083
:1028400039060000AD0500002105000095040000D8
:10285000990A00000D0A000081090000F508000037
:1028600069080000DD07000051070000C5060000F0
:10287000AC4BAD49C3F8BC4004222F200FF0E6FE5C
:10288000237C012259E7A74BA849C3F8B84004228A
:102890002E200FF0DBFE237C01224EE7A14BA44942
:1028A000C3F8B44004222D200FF0D0FE237C012277
:1028B00043E79C4B9F49C3F8B04004222C200FF003
:1028C000C5FE237C012238E7964B9B49C3F8AC40F8
:1028D00004222B200FF0BAFE237C01222DE7914B1E
:1028E0009649C3F8A84004222A200FF0AFFE237CAB
:1028F000012222E78B4B9249C3F8A44004222920ED
:102900000FF0A4FE237C012217E7864B8D49C3F804
:10291000A040042228200FF099FE237C01220CE71E
:10292000804B8949C3F89C40042227200FF08EFE7B
:10293000237C012201E77B4B8449C3F898400422A1
:1029400026200FF083FE237C0122F6E6754B80499A
:10295000C3F89440042225200FF078FE237C012246
:10296000EBE6704B7B49C3F89040042224200FF023
:102970006DFE237C0122E0E66A4B7749C3F88C4068
:10298000042223200FF062FE237C0122D5E6654B52
:102990007249C3F88840042222200FF057FE237C9E
:1029A0000122CAE65F4B6E49C3F88440042221200D
:1029B0000FF04CFE237C0122BFE65A4B6949C3F855
:1029C0008040042220200FF041FE237C0122B4E647
:1029D000544B6549DC6704221F200FF037FE237C2F
:1029E0000122AAE64F4B61499C6704221E200FF08A
:1029F0002DFE237C0122A0E64A4B5D495C67042240
:102A00001D200FF023FE237C012296E6454B5949F9
:102A10001C6704221C200FF019FE237C01228CE687
:102A2000404B5549DC6604221B200FF00FFE237C2F
:102A3000012282E63B4B51499C6604221A200FF08A
:102A400005FE237C012278E6364B4D495C66042264
:102A500019200FF0FBFD237C01226EE6314B494922
:102A60001C66042218200FF0F1FD237C012264E68D
:102A70002C4B4549DC65042217200FF0E7FD237C31
:102A800001225AE6274B41499C65042216200FF08B
:102A9000DDFD237C012250E6224B3D495C6504228A
:102AA00015200FF0D3FD237C012246E61D4B39494A
:102AB0001C65042214200FF0C9FD237C01223CE692
:102AC000184B3549DC64042213200FF0BFFD237C32
:102AD000012232E6134B31499C64042212200FF08C
:102AE000B5FD237C012228E60E4B2D495C640422AF
:102AF00011200FF0ABFD237C01221EE6094B294972
:102B00001C64042210200FF0A1FD237C012214E696
:102B1000044B2549DC6304220F200FF097FD237C32
:102B200001220AE6809F0220D92400004D240000E3
:102B3000C123000035230000A92200001D2200004F
:102B4000912100000521000079200000ED1F000008
:102B5000611F0000D51E0000491E0000BD1D0000C1
:102B6000311D0000A51C0000191C00008D1B000079
:102B7000011B0000751A0000E91900005D19000032
:102B8000D118000045180000B91700002D170000EB
:102B9000A11600001516000089150000FD140000A4
:102BA00071140000E513000059130000B34BB44941
:102BB0009C6304220E200FF049FD237C0122BCE51A
:102BC000AE4BB0495C6304220D200FF03FFD237C27
:102BD0000122B2E5A94BAC491C6304220C200FF082
:102BE00035FD237C0122A8E5A44BA849DC62042220
:102BF0000B200FF02BFD237C01229EE59F4BA44967
:102C00009C6204220A200FF021FD237C012294E51E
:102C10009A4BA0495C62042209200FF017FD237C27
:102C200001228AE5954B9C491C62042208200FF082
:102C30000DFD237C012280E5904B9849DC61042244
:102C400007200FF003FD237C012276E58B4B94498E
:102C50009C61042206200FF0F9FC237C01226CE524
:102C6000864B90495C61042205200FF0EFFC237C29
:102C7000012262E5814B8C491C61042210460FF051
:102C8000E5FC237C012258E57C4B8849DC6004226A
:102C900003200FF0DBFC237C01224EE5774B8449B7
:102CA0009C60042202200FF0D1FC237C012244E529
:102CB000724B80495C60042201200FF0C7FC237C2A
:102CC00001223AE56D4B7C491C60042200200FF084
:102CD000BDFC237C012230E5684B7849C3F8E8400D
:102CE00004223A200FF0B2FC0123DAE4634B74496A
:102CF000C3F8E440042239200FF0A8FC0123D0E4FB
:102D00005E4B7049C3F8E040042238200FF09EFC6F
:102D10000123C6E4594B6C49C3F8DC400422372038
:102D20000FF094FC0123BCE4544B6849C3F8D8402D
:102D3000042236200FF08AFC0123B2E44F4B644991
:102D4000C3F8D440042235200FF080FC0123A8E40E
:102D50004A4B6049C3F8D040042234200FF076FC7F
:102D600001239EE4454B5C49C3F8CC400422332048
:102D70000FF06CFC012394E4404B5849C3F8C84061
:102D8000042232200FF062FC01238AE43B4B5449B9
:102D9000C3F8C440042231200FF058FC012380E422
:102DA000364B5049C3F8C040042230200FF04EFC8F
:102DB000012376E4314B4C49C3F8BC4004222F2058
:102DC0000FF044FC01236CE42C4B4849C3F8B84095
:102DD00004222E200FF03AFC012362E4274B4449E1
:102DE000C3F8B44004222D200FF030FC012358E436
:102DF000224B4049C3F8B04004222C200FF026FC9F
:102E000001234EE41D4B3C49C3F8AC4004222B2067
:102E10000FF01CFC012344E4184B3849C3F8A840C8
:102E200004222A200FF012FC01233AE4134B344908
:102E3000C3F8A440042229200FF008FC012330E449
:102E40000E4B3049C3F8A040042228200FF0FEFBAF
:102E5000012326E4094B2C49C3F89C400422272077
:102E60000FF0F4FB01231CE4044B2849C3F89840FD
:102E7000042226200FF0EAFB012312E4809F0220A7
:102E8000CD12000041120000B51100002911000010
:102E90009D10000011100000850F0000F90E0000C9
:102EA0006D0E0000E10D0000550D0000C90C000082
:102EB0003D0C0000B10B0000250B0000AD0500002B
:102EC0002105000095040000990A00000D0A000089
:102ED00081090000F508000069080000DD07000016
:102EE00051070000C5060000D92400004D24000051
:102EF000C123000035230000A92200001D2200008C
:102F0000912100000521000079200000ED1F000044
:102F1000C34BC449C3F89440042225200FF096FB0C
:102F20000123FFF7BEBBBE4BBF49C3F8904004224C
:102F300024200FF08BFB0123FFF7B3BBB84BBB4939
:102F4000C3F88C40042223200FF080FB0123FFF7FD
:102F5000A8BBB34BB649C3F88840042222200FF027
:102F600075FB0123FFF79DBBAD4BB249C3F884400D
:102F7000042221200FF06AFB0123FFF792BBA84B2C
:102F8000AD49C3F88040042220200FF05FFB0123ED
:102F9000FFF787BBA24BA949DC6704221F200FF073
:102FA00055FB0123FFF77DBB9D4BA5499C67042280
:102FB0001E200FF04BFB0123FFF773BB984BA14979
:102FC0005C6704221D200FF041FB0123FFF769BB62
:102FD000934B9D491C6704221C200FF037FB0123F3
:102FE000FFF75FBB8E4B9949DC6604221B200FF074
:102FF0002DFB0123FFF755BB894B95499C660422A5
:103000001A200FF023FB0123FFF74BBB844B9149A0
:103010005C66042219200FF019FB0123FFF741BB66
:103020007F4B8D491C66042218200FF00FFB0123F3
:10303000FFF737BB7A4B8949DC65042217200FF074
:1030400005FB0123FFF72DBB754B85499C650422C9
:1030500016200FF0FBFA0123FFF723BB704B8149C9
:103060005C65042215200FF0F1FA0123FFF719BB6C
:103070006B4B7D491C65042214200FF0E7FA0123F5
:10308000FFF70FBB664B7949DC64042213200FF075
:10309000DDFA0123FFF705BB614B75499C640422EF
:1030A00012200FF0D3FA0123FFF7FBBA5C4B7149F2
:1030B0005C64042211200FF0C9FA0123FFF7F1BA72
:1030C000574B6D491C64042210200FF0BFFA0123F6
:1030D000FFF7E7BA524B6949DC6304220F200FF077
:1030E000B5FA0123FFF7DDBA4D4B65499C63042215
:1030F0000E200FF0ABFA0123FFF7D3BA484B61491A
:103100005C6304220D200FF0A1FA0123FFF7C9BA76
:10311000434B5D491C6304220C200FF097FA0123F6
:10312000FFF7BFBA3E4B5949DC6204220B200FF077
:103130008DFA0123FFF7B5BA394B55499C62042239
:103140000A200FF083FA0123FFF7ABBA344B514941
:103150005C62042209200FF079FA0123FFF7A1BA7B
:103160002F4B4D491C62042208200FF06FFA0123F7
:10317000FFF797BA2A4B4949DC61042207200FF078
:1031800065FA0123FFF78DBA254B45499C6104225E
:1031900006200FF05BFA0123FFF783BA204B414969
:1031A0005C61042205200FF051FA0123FFF779BA80
:1031B0001B4B3D491C61042210460FF047FA0123C6
:1031C000FFF76FBA164B3949DC60042203200FF079
:1031D0003DFA0123FFF765BA114B35499C60042283
:1031E00002200FF033FA0123FFF75BBA0C4B314991
:1031F0005C60042201200FF029FA0123FFF751BA85
:10320000074B2D491C60042200200FF01FFA0123F8
:10321000FFF747BA0022FFF790BA0023FFF741BA41
:10322000809F0220611F0000D51E0000491E000083
:10323000BD1D0000311D0000A51C0000191C000070
:103240008D1B0000011B0000751A0000E919000029
:103250005D190000D118000045180000B9170000E2
:103260002D170000A116000015160000891500009A
:10327000FD14000071140000E51300005913000054
:10328000CD12000041120000B5110000291100000C
:103290009D10000011100000850F0000F90E0000C5
:1032A0006D0E0000E10D0000550D0000C90C00007E
:1032B0003D0C0000B10B0000250B000010B592B0D2
:1032C000014601A80EF0DEFC0023322201A805A968
:1032D0000EF0FAFC05A9054809F0A4FF044601A870
:1032E0000EF090FCA0B212B010BD00BF2C940020D4
:1032F00007EE900A9FED0C6ADFED0C6A0C4B0D484F
:10330000B8EEE77ADFED0C7A27EE067A10B5E7EE35
:10331000267A01241C60FCEEE77A17EE901A05F07D
:103320009BFB064B1C6010BD0AD7233C00000143E9
:1033300088E100E0544F0020EE7CFF3E08E100E011
:1033400010B5A2B044221749044668460EF0D6FFD5
:1033500044220DEB020014490EF0D0FFADF104023F
:10336000002352F8041FA14204D00133112BF8D1DD
:1033700022B010BD0D490A68002AFCDB22AA02EB2C
:1033800083030B4913F8442C33F8423C013A1203EF
:10339000013B02F47F22C3F30B0313430B6022B003
:1033A00010BD00BFA0A80100E4A8010000F1024088
:1033B00004F102402DE9F04F2DED028BDFF808B14A
:1033C0003D4BDFED3E8A9FED3E8A85B04FF0000811
:1033D0000393D94604E0B8F1EA0F4BF8046F66D0C6
:1033E00059F8043F039A029332F9024F039207EE11
:1033F000903A07EE104AF8EEE77AB8EEC77A67EE31
:10340000A87ABD2CE7EE087AA8BFBD241FFA88F57C
:1034100024EAE4742F1DFDEEE77A0FFA84FA4FF4E4
:10342000FC623FB20092534639465A222548A4B264
:1034300017EE906A07F088FA0020C4F1BE0304F189
:103440005A02394600901BB212B21E48053507F0E9
:103450007BFA2DB20023BD2E009329464FF0BE0308
:103460004FF05A021748A8BFBD2607F06DFA4FF477
:10347000FC625346009229465A22124807F064FA29
:10348000029B042B08F1020826EAE676A3DD1A4621
:1034900055324FF6FF73009312B2294605230948AF
:1034A00007F052FAB8F1EA0F4BF8046F98D105B063
:1034B000BDEC028BBDE8F08FD28C00203333333F5C
:1034C0009A99993E2C94002020840020F8B55C4EF7
:1034D00034685CB1032C5B4D28D0022C3CD0012C0D
:1034E00060D0042C7DD000232B62F8BD5648554D8A
:1034F000564F05F0F9FC564A564B11681A68EC61B4
:1035000091424FF48033AB6104BFEB61AC61524B2D
:1035100034685248524A00211960032C4FF00103CD
:103520004FF002013B6003601160D6D14FF480413F
:103530004548464F05F0BCFC474B3468484847496E
:1035400000221A60AA6101234FF48032022C3B60F2
:1035500003600B60EA61C2D14FF480413A4805F044
:1035600091FC404BDFED406A93F9003007EE903A52
:10357000F8EEE77AB7EE006A86EE277A4FF48032EB
:103580000023EA61AB61B4EEE67AF1EE10FA3BD4C7
:10359000F2EE007AB4EEE77AF1EE10FA44DD4FF481
:1035A000002333E02848274C2B4F05F09DFC284A88
:1035B000284B116818684FF4803288424FF000039E
:1035C000EB61AA6108BFE26120482549234A08BF90
:1035D000A36101233468036000263E600B60136022
:1035E0007FE719481C4F194E1D4C05F07DFC1B4808
:1035F000002201234FF480313A60EA61AA6133600E
:10360000236003602962F8BD40F28F230E4F124CF5
:103610000E481349114A3B620123002727600360CB
:1036200034680B6013605AE7DFED106ADFED107A43
:10363000E7EE267AFCEEE77A17EE903AE6E700BF6F
:10364000E4960020F497002008970020A49700201B
:10365000204F0020503E002044990020E896002092
:10366000F04E0020753E00200AD7233C0000804722
:10367000EE7CFF3EF0B5474C474A484991B00025E3
:1036800008A80123256003F01FF910AA44480A9BEB
:1036900012F8145D9DF8241083600573017100F128
:1036A0000D031A3012F8011F03F8011B83423C4935
:1036B000F8D10F9B3B4ECB6108A803F02DF80023F7
:1036C000394F336005E008A803F03CF808A803F080
:1036D00023F80122324908A803F06AF908A803F088
:1036E0003FF840F2E63310B922689A424CDD08A850
:1036F00003F016F80028E6D108A803F00FF80146F9
:1037000068460EF0BFFA294904A80EF0BBFA04A9D6
:1037100068460EF0F3FA054604A80EF073FA1DB9D8
:1037200068460EF06FFACEE7236803EB430503EB20
:10373000850308A8FD1802F0F1FF0146284613F0A2
:1037400043FB1B4904A80EF09DFA04A968460EF03D
:10375000D5FA054604A80EF055FA2B460122694613
:1037600004A80EF0DDFA04A80EF0FEFA054604A83F
:103770000EF048FA326823680A49954203F10103C2
:10378000C8BF0D602360CBE708A802F0C5FF11B0E9
:10379000F0BD00BF50970020D0A90100B49C0220CA
:1037A000909C02208C1C022060510020D4A90100B2
:1037B000DCA9010008B50549012200200CF076F8CB
:1037C000FE210348BDE8084002F0D2BFE0A9010095
:1037D000B49C022038B5064D0648074C2946012204
:1037E0000CF064F8207028460CF036FC207038BDD0
:1037F000E0A901008C4C00201C8C0020F8B5244C62
:10380000236833B9234B1A6840F2E6339A420DDD40
:10381000F8BD21480CF00EFC0023204A23601D4B0C
:1038200010701A6840F2E6339A42F1DC1C4B1D4FCF
:103830001B681D4E3A681D491D48184D03EB430394
:1038400006EB830301325B683A6013F02FFA002124
:1038500017480CF015FC0A22287015490E480CF088
:103860004FF80228287008D00A2211490A480CF0A3
:1038700047F8012328702360F8BD07480CF0DAFBF5
:1038800009282870F0D10A480CF020FC2870EBE7DA
:10389000B48C002050970020589400201C8C0020ED
:1038A000BC3E00208C1C022028A90100E4A90100D4
:1038B000549700202DE9F843064605F0B9FF01288A
:1038C0002CDDDFF86490DFF858800025D8F8000080
:1038D000134F05EB4004304605F0DCFF09EB0424F0
:1038E00001464FF4807220460EF008FD0135304647
:1038F00005F0EEFF022DE9D13B680133BF2B02D862
:103900003B60BDE8F8830022064B3A600649074851
:103910004FF4C0320CF070F9054B1870BDE8F88315
:1039200050940020EC4E0020C099002058940020B4
:103930001C8C0020134A38B500230446124D80F831
:10394000F63013700CE005F0A5FF104B01464FF464
:1039500080720F480CF050F92870204605F0B8FF2F
:10396000204605F065FF00282046ECDC08480CF0F6
:1039700061FB084B287000221A60BDE83840FFF751
:1039800079BE00BF384F00201C8C0020EC4E002078
:1039900058940020B48C00202DE9F0418EB00DF138
:1039A000030600250746B0462C4628460EF056FC76
:1039B00008F8010F4440082314F0010F4FEA5402A5
:1039C00003F1FF3314BF82F08C04C4F3470413F0F7
:1039D000FF03F1D10135332DE7D1F4B99DF8333030
:1039E000332B03D020460EB0BDE8F0819DF8323075
:1039F000302BF7D19DF83130302BF3D19DF830309A
:103A0000302BEFD1013F0DF1370316F8012F07F8E6
:103A1000012F9E42F9D10120E5E718460EB0BDE81E
:103A2000F08100BFF8B50025471E2C4617F8016F3E
:103A30000823744014F0010F4FEA540203F1FF33DE
:103A400014BF82F08C04C4F3470413F0FF03F1D1D8
:103A500028460EF003FC864209D0314628460EF077
:103A600017FC28460EF0FAFB3B78834204D101355F
:103A7000322DDBD1002600E00126214628460EF03B
:103A800007FC28460EF0EAFB84420CBF30460120BA
:103A9000F8BD00BFF0B526492648274A09680068E6
:103AA000264B274D1B88274C2E682568264C91B045
:103AB00001330C90069192E803002449244A8DF8C2
:103AC0003800C0F30727096812688DF83970ADF81F
:103AD0000E30C0F30747030E1E4894F800E005922D
:103AE000089504911C4A1D4D1D4C1E49006892F812
:103AF00000C0079600222E780A90257891F90040A0
:103B00008DF82DE0602103A88DF82CC08DF80C10E5
:103B10008DF825608DF824500D94ADF83C208DF87B
:103B20003A708DF83B30FFF77DFF11B0F0BD00BF5C
:103B3000AC3E0020443E0020F0A90100508C002043
:103B4000BC3E00203C3E0020D03E0020681C0220ED
:103B5000CC3E0020C43E0020753E0020C03E002028
:103B6000483E0020C83E00202DE9F04FAD4AAE4B44
:103B70001468AE48AE491C600C328BB00C68056806
:103B80001268AC49AC489C60DA605D600EF07AF86F
:103B9000AA4AAB49A848DFF8F09210F09BFFA94B66
:103BA000A9481A680792079C1A680892089A1B6825
:103BB0000993A64B099904601A60A54CA5482723D0
:103BC00002931B22A1F57A711C2301920093142207
:103BD000FF232160152106F057FD322225219E4842
:103BE0000DF0DCFC322224219C480DF0D7FC23226E
:103BF00022219B48FEF7E0FC3222262199480DF055
:103C0000CDFC32221D2198480DF0C8FC1F221E2138
:103C10009648FEF7D1FC964B964993F90030964AA8
:103C200096480B7012685942017000239449C9F8F4
:103C3000001089F80930C9F8103089F80830C9F83F
:103C40000C300AB9A3E21A465369002BFBD1C2F823
:103C500014900024DFF884B28A4B8B48C9F81440D2
:103C6000A9F80440A9F8064089F80A40C9F80030CC
:103C700005F02CFA0BF1180201215846FEF772FCF0
:103C8000824B83488BF8F440224621468BF8F5405E
:103C9000CBF8F0408BF8F640CBF80030FEF762FC32
:103CA0007B4A7C4B13607C4A794E7C4D18324FF432
:103CB0008043A2F1180002213362FEF753FC764ADA
:103CC000774B1360012005F224726D4E2C7223464F
:103CD0002146EC602E6068722A612C4600E0226961
:103CE00042F823106A7A6D4801339A42F7DC624B3E
:103CF0001A680AB94FE21A465369002BFBD1556185
:103D0000002468492960224601234FF48071664EE1
:103D100066486C61AC80EC80AC7285F8214785F810
:103D20002247C5F8186110F0F9FD534BDFF8888180
:103D30001A685349C5F81C41082385F8203788F8CC
:103D40000940C8F80010C8F8104088F80840C8F8C2
:103D50000C40494B0AB920E21A465369002BFBD1AB
:103D6000C2F814804FF0000A514B5248C8F814A012
:103D7000A8F804A0A8F806A088F80AA0C8F800309F
:103D800002F0BCFC4C484D4C4D4F4E4E05F04CFCE7
:103D90002A4A4D49484810F09DFE4C4B012103F141
:103DA00018021846FEF7DEFB484A494B1360494BA0
:103DB000042103F128021846FEF7D4FB464B03F119
:103DC00028021846434B04211C604FF480349C6148
:103DD000DC611C625C62FEF7C5FB3F4B374C1C602C
:103DE00007F128024FF48034042138469C61DC61DD
:103DF0001C625C62FEF7B6FB3049BC61022006F132
:103E00001802FC613C627C621D4C39603460534690
:103E1000514686F808A0C6F80CA07072326134468C
:103E20005FE000BF54800440808C00205880044034
:103E30005C800440F8A90100D84E00200C3E002010
:103E4000051C0100B4A50220281C0220248C00209F
:103E5000EC9600202C94002018940020C019022019
:103E6000F0960020F84E0020A8990020244F002052
:103E7000C83E00202C1C022024A5022028940020EB
:103E80009CA8010058B101006499002088B101008C
:103E9000908C002094B10100001A0220B88C002000
:103EA0004CB1010018AF010038AF0100E0930020D1
:103EB0007CB10100C4970020AC97002064B10100E0
:103EC000AC9600206C1C02207104000008970020B2
:103ED00040B10100301C0220F497002030980020EF
:103EE000226942F82310727AAE4801339A42F7DC15
:103EF000AD4B1A680AB953E11A465369002BFBD13E
:103F000056610024A94AAA4B7461B480F480B4724B
:103F1000A4483260059305F011FB059BDFF8E4A28D
:103F20001C721846C3F800905F605C72DC601C7401
:103F30000DF096FC059B9F4A9F49184610F0CAFD5C
:103F40009E4B059350468AE8000A8AF808408AF892
:103F50000940CAF80C408AF810400DF081FC954ADF
:103F60009549DFF8A4B2504610F0B4FD059BDFF888
:103F70009CA21C724FF001091846C3F800805F60D4
:103F8000DC601C7483F809900DF06AFC059B894A7B
:103F90008949DFF87C82184610F09CFD884BCBF8ED
:103FA000043058468BF80840CBF800708BF8094075
:103FB000CBF80C408BF810400DF052FC7D4A7E4946
:103FC000584610F087FD7F4BCAF8043050468AF8F7
:103FD0000840CAF800708AF80940CAF80C408AF80C
:103FE00010400DF03DFC734A7349DFF828B250468B
:103FF00010F070FD724B88F80840404688E82800B1
:1040000088F80940C8F80C4088F810400DF028FCEA
:10401000684A69496C4B0593404610F05BFD6B4B59
:10402000DFF8F4A1CBF8043058468BF80840CBF801
:1040300000708BF80940CBF80C408BF810400DF065
:104040000FFC5C4A5C49DFF8D481614D584610F0A2
:1040500041FD604BCAF8003050465C4BCAF8043052
:104060008AF808408AF80990CAF80C408AF810408B
:104070000DF0F6FB50494F4ADFF8A4B1504610F05E
:1040800029FD059B4F4A1A601846534A1C725A6014
:1040900083F80990DC601C740DF0E2FB059B454A37
:1040A0004549DFF880A1184610F014FD474BC8F8C9
:1040B00000304046484BC8F8043088F8084088F87B
:1040C0000940C8F80C4088F810400DF0C9FB3A4987
:1040D000384A404610F0FEFC022328463E4A6B72E6
:1040E0002C722F606A60EC602C740DF0B9FB314AC1
:1040F00031493A4F284610F0EDFC374B8BF8084019
:1041000058468BE848008BF80940CBF80C408BF8F8
:1041100010400DF0A5FB274A2749314D584610F0B5
:10412000D9FC2D4B8AF8084050468AE84800CAF866
:104130000C408AF810408AF809900DF091FB504627
:104140001C4A1D49274E284C10F0C4FC274B284A16
:104150001B6828482849D0F800E0C7F800E003EBC6
:10416000430302EB830325489F685B682B600A22A8
:104170000C600A72376002F0C1FA0E4A20491F48EB
:1041800010F0A8FC0EF01EF80BB0BDE8F08F064B47
:10419000C3F800905DE51860B2E5C3F80080E1E582
:1041A0001860AEE66C1C022024A5022070B101004C
:1041B000049400200C3E0020890400006C8C002038
:1041C000301C0220089700203C4F0020001A0220DB
:1041D000388C0020908C0020F4970020208C002048
:1041E0005C9900202C98002024AF01003C3E002068
:1041F00028A90100C43E0020544F0020909C0220BA
:104200001967000028990020D4190220E81902201B
:10421000949900200C4F002080990020489900209C
:10422000548C0020F093002030B500EB8004A400F3
:104230002D3424B2054683B022460021144809F0EB
:1042400057F8144B1B689D4212D04FF6E07110488E
:1042500009F06AF8104B53F82540204612F030FE62
:1042600002460B48214603B0BDE830400DF038BC93
:104270004FF6FF71064809F057F800211423009308
:1042800022460191F023024806F0E8FCE2E700BF75
:104290002C9400203C990020103E00202DE9F04F86
:1042A0002DED028B3F4C404E404F9DB020464FF6C7
:1042B000E07109F039F8282500224FF400430193FA
:1042C000114620460095F023A66106F0C7FC4FF684
:1042D000FF7301930095F0232A462046002107F042
:1042E0006FFD3B68012B00F03383022B00F03D8310
:1042F00014224FF400438DE80C000021F0234FF40A
:104300008C7228482A4DDFF8BC8006F0A7FC2822D2
:104310004FF448738DE80C000021F0234FF496729F
:10432000204806F09BFC002211461E4808F0E0FFE2
:10433000012220491B480DF0D3FB95F900101948C4
:104340000DF058FC02221C4916480DF0C9FB98F9E3
:10435000001014480DF04EFC3A68022A00F00F835A
:10436000022216490F48DFF860900DF0B9FB144B9C
:104370001C68204612F0A4FD2146024609480DF0B3
:10438000AFFB14220021074808F0B2FFD9F8003033
:10439000042B00F2EA81DFE813F0310137013D011F
:1043A000430119002C94002020D70100B43E0020C6
:1043B000C03E002018AA01001CAA010024AA010086
:1043C0005C990020483E0020E49600200422BD496C
:1043D000BD480DF085FBBC4C14222046B42108F0EA
:1043E00087FFBA4B0AA8196808F0A2FF20464FF6CB
:1043F000E07108F099FF0B9A0C9B00920921B44AD6
:1044000004A812F005FC04A812F05AFD04A9024603
:1044100020460DF065FB3B68032B00F0B8814FF49C
:1044200096720021A84808F063FF3B68032B00F058
:104430008181A84EA84C3368A348012B0CBF4DF2D4
:104440009A614FF6E07108F06FFF2368052B03D1E6
:104450003268012A00F04C83A04E56F823A0504643
:1044600012F02EFD5146024697480DF039FB01220D
:104470009B4995480DF034FB4FF6FF719248DFF8E9
:1044800058A208F051FF2368012B00F09782022BFD
:1044900000F0CC80002B00F0D880032B00F0968237
:1044A000904B914C1B688848012B0CBF4DF29A61D0
:1044B0004FF6E07108F038FF236856F82300FEF746
:1044C000FDFEC0F1F00109B24FF496727E4808F08B
:1044D0000FFF236856F82340204612F0F1FC2146D6
:1044E000024679480DF0FCFA3B68032B00F022816C
:1044F0004FF48C72002174487C4C08F0F9FE4FF6A2
:10450000E071714808F010FF2378002B00F0A480C0
:10451000012B00F0AA80022B754C00F0B5804FF6FD
:10452000E071694808F000FF724B227872491C78EC
:10453000724B052C0CBF1C460C46002A00F0AD80C7
:104540003B68032B55D0002B40F32982DFF8E0A114
:104550006B4DDAF80020DFF8C0B19FED6A7ADBF826
:104560000010002A1346B8BF02F1FF031B1207EE2A
:10457000903A91FBF3F185FB0205D217FAEEEF7A40
:10458000C2EB6535012D87EE278A4FEA41081DDD14
:1045900001244FF6E0760096052355224A4807EE9F
:1045A000904AF8EEE77A013467EE887AFDEEE77A12
:1045B000CDED037ABDF90C1006F0C6F9A542EAD19B
:1045C000DAF80030002BB8BFFF331B12D9F80020F7
:1045D000022A00F065824FF6E0730093572203230E
:1045E0000FFA88F1384807F0BFFB3B68012B00F059
:1045F000FE811DB0BDEC028BBDE8F08F0222424966
:1046000031480DF06DFAE6E6072240492E480DF0DC
:1046100067FAE0E607223E492B480DF061FADAE638
:1046200006223C4928480DF05BFAD4E63A4B3B4958
:104630001B68254881FB0321DB17C3EBA1110DF09B
:10464000D9FA2368002B7FF428AF95F900101E4893
:104650000DF0D0FA236820E7072231491A480DF0FF
:104660003FFA2378012B7FF456AF2E4B1B78002B9B
:1046700000F0868006222C4913480DF031FA237889
:104680001B4C022B7FF44BAF23780422002B72D1FA
:1046900026490D480DF024FA41E721460A4808F062
:1046A000C1FDC0F1EB0109B24FF48C72064808F06D
:1046B0001FFE204612F004FC2146024602480DF07F
:1046C0000FFA3DE744AA01002C94002000D00340DB
:1046D00054AA0100A497002044990020543E0020D1
:1046E0007CAB0100E8960020F04E0020084F00202F
:1046F000D0190220743E002008AA010010AA01006F
:10470000AD8BDB6800401C4628AA010034AA0100DA
:104710003CAA01002CAA0100C43E0020D34D621027
:10472000C4AA0100384F0020CCAA0100DCAA010075
:104730002C9800204DF29A61BB4808F0F5FD062246
:10474000BA49B9480DF0CCF9B948FEF7B7FDC0F148
:10475000F00109B24FF49672B34808F0C9FD0B227C
:10476000B349B1480DF0BCF9C2E60522B149AE48E3
:104770000DF0B6F92FE6B049AB480DF0B1F9CEE631
:104780000722AE49A8480DF0ABF92378C3E62D22E5
:104790000021204608F0ACFD4FF6E071204608F0FD
:1047A000C3FDA74AA6611368002BC0F2BF810B2B83
:1047B000A8BF002303201360FFF736FDA14B9A48E2
:1047C00093F90030A04CA14E012B07BF0A22A0494B
:1047D000A0490C220DF084F993480DF0BBF9042098
:1047E000FFF722FD9C4B904893F900100DF002FA60
:1047F0008D480DF0AFF90520FFF716FD974B8A485D
:1048000093F900100DF0F6F987480DF0A3F9062092
:10481000FFF70AFD924B1B6803EB430304EB830392
:10482000D3F804A0504612F04BFB514602467E4896
:104830000DF056F97C480DF08DF90720FFF7F4FCD8
:10484000884B1B6803EB430304EB8303D3F804A0FA
:10485000504612F035FB5146024673480DF040F9C0
:1048600071480DF077F90820FFF7DEFC7E4B1B68DE
:1048700003EB430304EB83046468204612F020FB3F
:104880002146024668480DF02BF967480DF062F9A1
:104890000020FFF7C9FC754A754B126853F8224097
:1048A000204612F00DFB214602465F480DF018F934
:1048B0000120FFF7B9FC6F4A6F4B126853F8224092
:1048C000204612F0FDFA2146024657480DF008F93D
:1048D0000920FFF7A9FC316813A808F029FD13A9E6
:1048E0000EC907A8019100920921644A12F090F9BB
:1048F00007A812F0E5FA07A902464B480DF0F0F8B8
:104900000A20FFF791FC316813A808F011FD16A9E1
:104910000EC907A803F2B273019100920921584A07
:1049200012F076F907A812F0CBFA07A902463E4822
:104930000DF0D6F80220FFF777FC524B1B68002BD6
:1049400040F0D0800822504937480DF0C9F866E59C
:1049500000211E2300932046F02301913C2206F003
:104960007DF93B68022B7FF4C3AC00210623009342
:104970000191F02354222C4806F070F9B8E4434921
:1049800029480DF0ADF8424B42491B68264881FB8F
:104990000321DB17C3EBA1110DF02CF9E0E4552244
:1049A0000021214808F0A4FC09223B491E480DF0D3
:1049B00097F81DB0BDEC028BBDE8F08F98F90010A0
:1049C00019480DF017F9DAF8003060E5244B1E4A5B
:1049D0001B6803EB430302EB83035C68204612F081
:1049E0006FFA2146024610480DF07AF858E5DBF8D8
:1049F0000010284B294A83FB0103C917C1EBA313FD
:104A000013A8092112F004F9A8F10A0109B23C2205
:104A1000054808F06DFC13A812F052FA13A90246DB
:104A200001480DF05DF8E4E52C940020B0AA0100E7
:104A3000B8AA01004CAA0100E4AA0100D4AA01000E
:104A40003C990020C83E002028A9010000D0034066
:104A500060AA01006CAA0100D03E0020753E002033
:104A60003C3E0020BC3E0020AC3E0020CC3E00205E
:104A7000843E0020681C0220983E00207CAA010091
:104A80008CAA0100443E00209CAA010020AA01003B
:104A9000C43E0020D34D6210ECAA010094AA01008C
:104AA000234A244D92F9001095FBF3F54FF47A72E6
:104AB00002FB01F292FBF3F3ED1A6D005B001CB2F6
:104AC0002DB24FF6FF762B462146009655221A4806
:104AD00005F04AFF2B46214600965922164805F05C
:104AE00043FF78E50622154913480CF0F9FF96E4D8
:104AF000134B144A1B68144E03EB430A03EB8A035F
:104B000002EB030A50462E2112F0F6F8CAEB00021F
:104B1000514601320D4812F0B5F90C4812F0D0F9A7
:104B20000A49024604480CF0DBFFA5E40A2341E6EB
:104B3000D03E0020803801002C940020A8AA01005B
:104B4000FC19022060510020543E0020288C0020D7
:104B5000074B10B5012401461C60064803F00CFF0A
:104B6000054B1C60FFF79AFB044B00221A6010BD36
:104B700088E100E0544F002008E100E0A897002001
:104B8000F0B58FB001A8FEF707FF044698B1394988
:104B90000A9A394BBDF806709DF830609DF8315087
:104BA0009DF832000F80012A9DF833101E705D7051
:104BB0009870D97002D020460FB0F0BD2F4D304E06
:104BC000049F30492F60059F37602F482F4B039D6E
:104BD0002F4E069F0F600299026019603560002D0C
:104BE0002FD0022D40D0012D35D00021294806F0CC
:104BF000F3F931682748284E0CF0FCFF274A9DF94D
:104C00001D002749274B9DF825509DF824701070F2
:104C1000089A0D701A603770FEF76AFB9DF91C3018
:104C2000214A224D13701846FFF792FF0B9B204834
:104C300020495AB25B42037020462A700A700FB0B6
:104C4000F0BD2946134806F0FDFB2946114806F041
:104C5000D1F93568C5E700210E4806F0F3FB0021C5
:104C60000C4806F0C7F9C0E700210A4806F0C2F96F
:104C70003568B8E7508C0020201C0220AC3E002094
:104C8000BC3E00203C3E0020443E0020E496002034
:104C9000B43E00202C940020753E0020C03E002031
:104CA000D03E0020C43E0020483E0020C83E0020E8
:104CB000289400202C1C0220274B9FED286A93ED9E
:104CC000007ADFED276AB8EEC77A07EE900AC6EEE3
:104CD000075AF8EEE77A67EEA57AF4EEE67AF1EE97
:104CE00010FA19DC1F4A204BC2ED007AF5EEC07AAB
:104CF0000122F1EE10FA1A602BD49FED1C7AF4EE2B
:104D0000C77AF1EE10FA1BDD194B1A491A4A012035
:104D10000860D361FFF7C2BAC7EE065A114B1748B5
:104D2000114A0121F2EE027AE5EEA67AC3ED006A9D
:104D3000FDEEE77A17EE903AF0EE667A03601160C6
:104D40009FED0F7A67EE877AFCEEE77A17EE903ADE
:104D5000DBE70023D9E700BF2C980020A6552C479D
:104D600000E0AB464C3E002088E100E0A655AC4692
:104D700080FFFF7F08E100E0908C0020C43E00200F
:104D80004B24BE4738B5104B1049114A114D00EB6A
:104D9000400003EB8003012498685B680B60286087
:104DA0001460FEF7CDFAC8200DF0FEFC0A4B18681F
:104DB000FFF782FF094B14201C600DF0F5FCBDE8E5
:104DC0003840FFF76BBA00BF28A901005C990020AA
:104DD00088E100E02C980020C43E002008E100E0BB
:104DE00008B50B48FEF7A6FD0A4B1868FFF7CAFF87
:104DF0000021094806F0F0F80849094A094B0968FA
:104E000011604FF480329A61BDE80840FEF75EBB46
:104E1000309800203C3E00202C940020B09C0220C2
:104E2000E4960020301C0220174B10B501220446E6
:104E300064201A700DF0B8FC002C22DB0D2CD4BFBE
:104E400020460020114CFFF79DFF114B22681B6884
:104E5000002A03F1FF3303DB9A42D4BF1346002339
:104E600003EB43020B49236003EB820319440A4816
:104E70000D2212F093F808490848BDE8104004F0EC
:104E800001BC0D20DEE700BFD0190220FC19022072
:104E9000509700206051002054970020AC970020CC
:104EA00008B5064804F0C6FB054A064B1068002208
:104EB0001A70BDE80840FFF765BF00BFAC9700203F
:104EC0003C3E0020D019022008B50A4B1B781BB1CC
:104ED000094B93F8403003B108BDFFF7E1FF074BE2
:104EE0001B78002BF8D0064B1868BDE80840FFF788
:104EF0009BBF00BFD0190220AC970020A8960020CD
:104F0000AC3E00202DE9F04188B0D8B98B498C4ADD
:104F10008C4B096814681B680822F1B98A49097822
:104F20002344002967D0002B02F1FF32C0F28280B7
:104F30009342C8BF0023002867D1824A136008B09B
:104F4000BDE8F0810128FAD18049814A814B096886
:104F500014681B6804220029E0D00129EFD1002C3D
:104F6000EDD0002B58D17C490A78144464B2002C4F
:104F7000C0F292805A2CA8BF5A2407EE904A9FEDA7
:104F8000776ADFED776AB8EEE77ADFED767A27EEBB
:104F9000067AE7EE267AFCEEE77ACDED017A724BDF
:104FA0000C7001241C600199704803F055FD704B92
:104FB0001C60644B1B68052BC1D1604B1B68012B27
:104FC00057D0644B1B68032BB9D1604B1B68012B76
:104FD000B5D1684B1B78022BB1D1674A5C49136885
:104FE00009685B185DD4062BA8BF00231846136020
:104FF000FFF7C8FEA3E7191F012994D8012C36D06A
:10500000013408BF0323013A92E7012897D1514A9E
:10501000136008B0BDE8F081032B0DD1574A136827
:10502000E41837D40E2CA8BF002420461460FFF7E4
:10503000A9FEBEE713467EE7012B34D1504A137810
:1050400023445BB2002B23DB3F2BA8BF3F23184632
:105050001370FFF77DFD4B4A4B4B00201060002181
:1050600003F5007243F8041B9A42FBD1A1E7062323
:10507000C9E7464B464932481A6800680B681B1856
:1050800002F1FF320BD49342C8BF00230B6098E7B4
:105090000023DCE70D24C8E701931C467FE7134695
:1050A000F4E70523A2E7022B3AD13A4E3A4D336892
:1050B0000393039B2A689B1AB3F5FA7F2BD2F92B33
:1050C00000F24D81642B41F2883328BF4FF4FA631C
:1050D000324A334F12683348396880FB02E0D243CA
:1050E00003FB0414D20F41F65733C2EBE0129C428B
:1050F0004FF47A7000FB02F210DD41F6583394420F
:10510000C8BF1C4620463C60FFF7D6FD33680693B7
:10511000069B2B604DE74FF4FA73D9E71446F1E78D
:10512000062B7FF446AF002840D11F4E3368E418A9
:105130007BD40B2CA8BF002434603AE7A49700204E
:105140004099002044990020394F0020E896002023
:10515000E84E0020F04E0020C03E00200AD7233C3D
:1051600000000143EE7CFF3E88E100E0544F002048
:1051700008E100E0084F0020AC3E00203C3E00204B
:10518000483E002060990020604F0020509700208A
:10519000FC190220B4A502204C8C00202C98002081
:1051A000C43E0020D34D62103C99002001287FF4BA
:1051B00000AF6C4E3368032B43D0042B37D0052B44
:1051C0004ED1694A137823445BB2042B46DD1F2B72
:1051D000A8BF0523137033680A2B7FF4EAAE634B34
:1051E000634D1B680593059E2B68F31AB3F5FA7F90
:1051F00007D2F92B00F2B180632B8CBF04EB44047F
:10520000A40004F0CDFD5B4B06A903FB040004F0F1
:1052100071FC06A804F046FD0DF09AFA06A804F009
:1052200041FD04F00DFE2E60C3E60A2484E7524AD5
:10523000137823445BB20E2B0EDD242BA8BF0F2363
:10524000C8E74E4A4E4892F900304E4903705B421F
:105250005BB213700B70BEE72323BBE71E23B9E7D5
:10526000062B0BD1484A1368E31813D40E2BA8BFA2
:10527000002318461360FFF785FD336863B9434A7E
:105280001368E31804D4042BA8BF00231360A2E71B
:105290000323FBE70D23ECE7012B09D13C4A1368FC
:1052A000E31803D4052BA8BF0023EFE70423EDE7A1
:1052B000022B09D1374A1368E31803D4022BA8BF85
:1052C0000023E3E70123E1E7082B09D1324A136801
:1052D000E31803D4062BA8BF0023D7E70523D5E79F
:1052E000072B0AD12D4A13682344042B03DD0E2B10
:1052F000A8BF0523CAE70D23C8E7092B7FF46BAFCE
:105300001A4B1B4D1B680493DDF810802B68C3EB10
:105310000803B3F5FA7F1BD2F92B1BD8632B8BBF85
:105320000A27C4EB04176743BF0004F039FD06A940
:10533000384404F0DFFB06A804F0B4FC0DF008FAD2
:1053400006A804F0AFFC04F07BFDC5F8008042E73E
:105350002746EAE704EB8407E7E7640051E74FF4E8
:105360007A73B5E63C990020753E0020B4A5022072
:105370004C8C002080510100D03E0020C83E00200F
:10538000289400202C1C02203C3E0020CC3E002013
:10539000681C0220443E0020AC3E0020BC3E0020A1
:1053A000F0B583B0FEF72AFA254B264D1868264F34
:1053B000264EFFF7E7FC28460021002406F042F8BD
:1053C0004FF4A07322462846214600930194F0230F
:1053D00005F044FC28464DF29A6107F0A5FF1C4BEE
:1053E000AB6121462846642207F082FF0922194951
:1053F00028460CF075FB384611F062FD394602462E
:1054000028460CF06DFB144BAB61FEF747FF1348C9
:10541000134D03F069FD134A13491448144B1768E0
:105420008C6104604FF480313046DC619961146016
:105430002F6004F009FA012386F8F63003B0F0BDBE
:10544000BC3E00202C94002054970020309800206F
:105450003CD70100F8AA010020D7010008970020DE
:10546000B09C0220E4960020301C022050940020C2
:10547000F4970020F8B57F4A137C012B40F291800D
:1054800072B6D36862B67C4E002BB8BF0333326865
:105490009C1094422FDD794B794D93F900302B60AD
:1054A000002B35D1774A3460137C012B38D972B682
:1054B000D36862B6744E002BB8BF033332689C10B9
:1054C00094420FDD6D4B714F93F900303B60DBB9B7
:1054D0002B68346013B93B68002B59D0BDE8F84005
:1054E000FEF7DCBE59DA6A4B684F93F900303B6037
:1054F000002BEDD008E04CDA654B614D93F900309C
:105500002B60002BCED003E00020FFF7FBFCDFE791
:105510000120FFF7F7FC5B4A3460137C012BC6D8EF
:1055200072B61368506819780478507A137A044276
:1055300001EA03016ED0937A03F0030309B143F04B
:10554000040343F008039910013B91720D2BAFD86F
:1055500001A151F823F000BF4D5600004556000050
:105560003D56000045560000B1540000355600007D
:105570004D5600004D56000035560000B154000055
:10558000455600003D560000455600004D560000AF
:10559000F8BD3B4D00232B6084E73C4F00233B606C
:1055A00096E772B61368506819780478507A137ABF
:1055B000044201EA030135D0937A03F0030309B1F1
:1055C00043F0040343F008039910013B91720D2B43
:1055D0003FF657AF01A151F823F000BF6D56000010
:1055E000655600005D5600006556000083540000BB
:1055F000555600006D5600006D56000055560000CF
:1056000083540000655600005D560000655600009A
:105610006D560000937A03F00303002993D043F002
:10562000040390E7937A03F003030029CCD043F0FE
:105630000403C9E7D368023BD3603AE7D368023377
:10564000D36036E7D368013BD36032E7D3680133D8
:10565000D3602EE7D368023BD36013E7D3680233ED
:10566000D3600FE7D368013BD3600BE7D368013306
:10567000D36007E7F0960020F09700202C1C022052
:10568000E84E0020244F0020688C00204099002024
:1056900028940020F0B5A94C237883B04BB1A848DA
:1056A0000BF0B2FFA6480BF0D5FF002864D103B081
:1056B000F0BDA4480BF0A8FFA3480BF0A5FFA0483D
:1056C0000BF0A2FFA1480BF09FFFA0480BF0C2FF18
:1056D00050B19F4A13680133042BC8BF00231360E5
:1056E000FDF7F4FEFEF7DAFD95480BF0B3FF78B155
:1056F000984E3368032B74D0974D2A78002A7DD0BA
:10570000022A00F09B80012A00F08D80FEF7C6FD82
:105710008C480BF09FFFD0B1904C914D23682E68C0
:10572000B3FA83F35B09062E236031D08D4B1B78CF
:105730005BB12B688A4E042B00F0F580052B2568A1
:1057400000F0BB80002D00F09180FEF7A7FD7E48A1
:105750000BF080FF0028AAD07E4B1B68032B00F0C3
:10576000CF80814A1368B3FA83F35B09136003B0F7
:10577000BDE8F040FEF792BDFFF732FB64200DF06C
:1057800013F80023237003B0BDE8F040FEF786BD98
:10579000704B1A68032A00F00B816D487349DFF8DB
:1057A000DCE107680F607248CEF800200327002173
:1057B0001F6005F011FC00216D4805F043FE002735
:1057C000F0233946009328220197694805F046FAEC
:1057D000684B6949644A1F6001230E6013602360AF
:1057E000A4E7664B5D485C4D1B685F4F6249002231
:1057F00002600120013B2A703A6008600133002BEF
:105800003360544AC0F2CC80022B23DC23B3022B3A
:1058100000F0C880012B00F0DD800021544805F025
:10582000DBFB2A786CE723784449002B7FF46EAFCA
:105830000A70FEF733FDFFF7B3FD67E7504E33788C
:10584000002B34D14F4A012310683370FFF7ECFA74
:105850002A7858E7002313600021454805F0F2FD3F
:105860000021434805F0C6FB3368D0E7464E306858
:10587000FFF788FA454A464B10681860FFF71CFA94
:10588000444A4549206815624FF48033D3619361DF
:105890008B61CD6100287FF458AF2F4B1A78022A14
:1058A0007FF453AF30681D70FFF76CFA4DE7FFF7D8
:1058B000F7FA00232A78337025E7012D274E7FF46D
:1058C00041AF254B02221A70FDF774FF30492F4A71
:1058D000304B31480968116000224FF48031DA61A1
:1058E0009A6182611962C161FDF7C4FE1E4A224BB2
:1058F0001560356803221A60002D7FF426AFB5E7E6
:10590000FEF7C8F84FF6FF71194807F00DFD4FF488
:1059100082729621164807F0EBFC05221F491448B5
:105920000CF0DEF823E72568012D7FF40BAF0A4B5E
:105930001D70FDF74FFF336800E700BF384F0020B0
:10594000F84E0020A8990020C019022018940020C9
:10595000E4960020B43E0020084F0020A4970020C9
:1059600044990020394F0020E8960020B09C022086
:105970002C9400203C990020F04E0020B83E0020DE
:10598000D0190220AC3E00203C3E0020208C00209C
:10599000C43E0020F4970020AC96002004AB010028
:1059A000022313600021104805F024FB336831E71F
:1059B0000E490F480F4A0968066819600A481660C0
:1059C000002105F009FB0C490C4B00200122086066
:1059D0001A60ABE60021044805F034FD00210248BE
:1059E00005F008FB19E700BF2C940020B83E00200A
:1059F000B09C0220E4960020E8960020F04E0020A3
:105A0000F0B52DED028BCA48CA4FCB4ECB4C8FB0B0
:105A100005F030FF0021C64805F0ECFA0021C4482B
:105A200005F010FD4FF6FF71C14807F07DFC002125
:105A3000BF4805F0D1FA00221146BD4807F058FCD6
:105A4000022124200CF0AAFE02211D200CF0A6FE4B
:105A5000022125200CF0A2FE022126200CF09EFE41
:105A6000B749B84AB84800230B6002254FF4967135
:105A700015603B6033600BF0F7FDB44804F002FAA8
:105A8000204602F00BFF204640F273122A2102F05A
:105A9000D9FE002840F0C281AD4B9FEDAE6A93F96C
:105AA0000030DFEDAD6A9FEDAD7AA44807EE903A85
:105AB000F8EEE77A67EE867AA7EEA67AFCEEC77A6A
:105AC00017EE901A02F0C8FFA54B9C4893F90010FE
:105AD00002F052FF00221146984802F083FFA14BCA
