:1000000000000320D101000031260100E925010094
:10001000E9250100E9250100E9250100E9250100A4
:10002000E9250100E9250100E9250100312601004B
:1000300031260100E9250100253B0100293C010092
:100040003126010031260100312601003126010050
:100050003126010031260100312601003126010040
:100060003126010031260100312601003126010030
:100070003126010031260100312601003126010020
:100080003126010031260100312601003126010010
:100090003126010031260100312601003126010000
:1000A000A5550100B155010031260100312601009E
:1000B000312601003126010031260100713C01008A
:1000C000312601009D3D010031260100C93E01009D
:1000D00031260100C13F0100312601003126010017
:1000E00031260100312601003126010031260100B0
:1000F00031260100312601003126010031260100A0
:10010000312601003126010031260100312601008F
:1001100031260100BD2C01003126010031260100ED
:10012000312601003126010031260100312601006F
:10013000312601003126010031260100312601005F
:10014000111B010031260100B940010031260100D8
:10015000312601003126010031260100312601003F
:100160003126010031260100BD5501003126010074
:10017000312601003126010031260100312601001F
:10018000312601003126010031260100312601000F
:100190003126010031260100B14101003126010064
:1001A00031260100312601003126010031260100EF
:1001B00031260100312601003126010031260100DF
:1001C00031260100312601003126010031260100CF
:1001D0005C4B4CF2205210B51A804DF628121A8052
:1001E00000BF00BF12F028FA574B4FF030621A6080
:1001F000564A9A60564ADA60564B4FF470021A60BB
:10020000554B564A1A60564A136813F4807304D14A
:1002100054490B604FF4A8531360534B1A781107DD
:1002200003D51A7842F008021A70504B5049AA229E
:100230001A70504A504B8B4204D252F8040F43F8C4
:10024000040BF8E74D4B4E4900228B4202D243F893
:10025000042BFAE74B494C4A002352F8230041F89B
:1002600023000133742BF8D1484B494A802103F80D
:10027000011B9342FBD1474B424A1A60464B8A22EC
:100280001A70A3F5805324225A70A0221A709A790A
:100290009207FCD59A79D406FCD4404A937903F0AE
:1002A0000C03082BFAD13E4B60221A7002331A78E5
:1002B000802AFCD1394B01221A715D225A719A7938
:1002C0009006FCD59979354A4906FBD5354B364918
:1002D00019600021596020231370937903F00C03F7
:1002E0000C2BFAD1314B324A1A60324B324A1A6027
:1002F00000225A60072243F8042C304AC3F80C2D20
:1003000062B612F07FFB174B1B68DA0705D52C4845
:1003100012F0FAFA2B4B2C4A1A602C4B1B785B0616
:1003200009D5284C284B22689A4204D1244812F05F
:10033000EBFA0023236015F04BFF12F083F912F063
:10034000B1F8FEE70E20054030800440823F0400F3
:100350000100002B88ED00E0002008E0030000858C
:1003600010D0034014D0034002D0074000E0074003
:10037000704C002054E00200303D0020704C002002
:1003800024AA0220003800200000000000E400E061
:1003900064E400E008ED00E0005006400040064044
:1003A00001E007404480044000000602048004404D
:1003B000C010070014E000E01FBF02000000202072
:1003C000C4785D5D1CE00340A5C3945A00F007406B
:1003D000FFFFFFFFFFFFFFFFFFFFFFFFFFFFFFFF2D
:1003E000FFFFFFFFFFFFFFFFFFFFFFFFFFFFFFFF1D
:1003F000FFFFFFFFFFFFFFFFFFFFFFFFFFFFFFFF0D
:10040000FFFFFFFFFFFFFFFFFFFFFFFFDEF9FFFF23
:1004100010B5054C237833B9044B13B10448AFF33E
:1004200000800123237010BD704C002000000000EC
:1004300050E00200084B10B51BB108490848AFF363
:1004400000800848036803B910BD074B002BFBD0A0
:10045000BDE81040184700BF00000000744C0020A9
:1004600050E00200704C00200000000012F046BA7C
:1004700010B5044B044640F8183B06F029FA204614
:1004800010BD00BF58B3010010B5044611F0F8FAD2
:10049000204610BD214B10B41A68136850681978B3
:1004A0000478507A137A044201EA03011BD0937A4C
:1004B00003F0030309B143F0040343F00803991068
:1004C000013B91720D2B0BD8DFE803F021071B07CE
:1004D0000A152121150A071B0721D368013BD360A8
:1004E0005DF8044B7047937A03F003030029E6D0CC
:1004F00043F00403E3E7D3685DF8044B023BD360A9
:100500007047D3685DF8044B0233D3607047D368FB
:100510005DF8044B0133D360704700BF849F022015
:10052000214B10B45A681368506819780478507ACF
:10053000137A044201EA03011BD0937A03F0030308
:1005400009B143F0040343F008039910013B917291
:100550000D2B0BD8DFE803F021071B070A1521211B
:10056000150A071B0721D368013BD3605DF8044BD4
:100570007047937A03F003030029E6D043F00403A5
:10058000E3E7D3685DF8044B023BD3607047D36860
:100590005DF8044B0233D3607047D3685DF8044BB9
:1005A0000133D360704700BF849F0220214B10B4F9
:1005B0009A681368506819780478507A137A04425C
:1005C00001EA03011BD0937A03F0030309B143F05E
:1005D000040343F008039910013B91720D2B0BD8D3
:1005E000DFE803F021071B070A152121150A071B65
:1005F0000721D368013BD3605DF8044B7047937AC1
:1006000003F003030029E6D043F00403E3E7D368D3
:100610005DF8044B023BD3607047D3685DF8044B30
:100620000233D3607047D3685DF8044B0133D36065
:10063000704700BF849F0220214B10B4D3F8CC2018
:100640001368506819780478507A137A044201EAE2
:1006500003011BD0937A03F0030309B143F00403B1
:1006600043F008039910013B91720D2B0BD8DFE882
:1006700003F021071B070A152121150A071B072173
:10068000D368013BD3605DF8044B7047937A03F065
:1006900003030029E6D043F00403E3E7D3685DF8E1
:1006A000044B023BD3607047D3685DF8044B0233C0
:1006B000D3607047D3685DF8044B0133D360704753
:1006C000849F0220214B10B4D3F8D02013685068C7
:1006D00019780478507A137A044201EA03011BD096
:1006E000937A03F0030309B143F0040343F00803D2
:1006F0009910013B91720D2B0BD8DFE803F0210715
:100700001B070A152121150A071B0721D368013B86
:10071000D3605DF8044B7047937A03F0030300291C
:10072000E6D043F00403E3E7D3685DF8044B023BF3
:10073000D3607047D3685DF8044B0233D3607047D1
:10074000D3685DF8044B0133D3607047849F022067
:10075000214B10B4D3F8D42013685068197804786A
:10076000507A137A044201EA03011BD0937A03F012
:10077000030309B143F0040343F008039910013B5C
:1007800091720D2B0BD8DFE803F021071B070A1528
:100790002121150A071B0721D368013BD3605DF8AF
:1007A000044B7047937A03F003030029E6D043F02B
:1007B0000403E3E7D3685DF8044B023BD360704762
:1007C000D3685DF8044B0233D3607047D3685DF89B
:1007D000044B0133D3607047849F0220214B10B437
:1007E000D3F8D8201368506819780478507A137AAF
:1007F000044201EA03011BD0937A03F0030309B119
:1008000043F0040343F008039910013B91720D2B50
:100810000BD8DFE803F021071B070A152121150A71
:10082000071B0721D368013BD3605DF8044B704779
:10083000937A03F003030029E6D043F00403E3E7CF
:10084000D3685DF8044B023BD3607047D3685DF812
:10085000044B0233D3607047D3685DF8044B013317
:10086000D3607047849F0220214B10B4D3F8DC2062
:100870001368506819780478507A137A044201EAB0
:1008800003011BD0937A03F0030309B143F004037F
:1008900043F008039910013B91720D2B0BD8DFE850
:1008A00003F021071B070A152121150A071B072141
:1008B000D368013BD3605DF8044B7047937A03F033
:1008C00003030029E6D043F00403E3E7D3685DF8AF
:1008D000044B023BD3607047D3685DF8044B02338E
:1008E000D3607047D3685DF8044B0133D360704721
:1008F000849F0220214B10B4D3F8E0201368506885
:1009000019780478507A137A044201EA03011BD063
:10091000937A03F0030309B143F0040343F008039F
:100920009910013B91720D2B0BD8DFE803F02107E2
:100930001B070A152121150A071B0721D368013B54
:10094000D3605DF8044B7047937A03F003030029EA
:10095000E6D043F00403E3E7D3685DF8044B023BC1
:10096000D3607047D3685DF8044B0233D36070479F
:10097000D3685DF8044B0133D3607047849F022035
:10098000214B10B4D3F8E420136850681978047828
:10099000507A137A044201EA03011BD0937A03F0E0
:1009A000030309B143F0040343F008039910013B2A
:1009B00091720D2B0BD8DFE803F021071B070A15F6
:1009C0002121150A071B0721D368013BD3605DF87D
:1009D000044B7047937A03F003030029E6D043F0F9
:1009E0000403E3E7D3685DF8044B023BD360704730
:1009F000D3685DF8044B0233D3607047D3685DF869
:100A0000044B0133D3607047849F0220214B10B404
:100A1000D3F8E8201368506819780478507A137A6C
:100A2000044201EA03011BD0937A03F0030309B1E6
:100A300043F0040343F008039910013B91720D2B1E
:100A40000BD8DFE803F021071B070A152121150A3F
:100A5000071B0721D368013BD3605DF8044B704747
:100A6000937A03F003030029E6D043F00403E3E79D
:100A7000D3685DF8044B023BD3607047D3685DF8E0
:100A8000044B0233D3607047D3685DF8044B0133E5
:100A9000D3607047849F0220214B10B4D3F8EC2020
:100AA0001368506819780478507A137A044201EA7E
:100AB00003011BD0937A03F0030309B143F004034D
:100AC00043F008039910013B91720D2B0BD8DFE81E
:100AD00003F021071B070A152121150A071B07210F
:100AE000D368013BD3605DF8044B7047937A03F001
:100AF00003030029E6D043F00403E3E7D3685DF87D
:100B0000044B023BD3607047D3685DF8044B02335B
:100B1000D3607047D3685DF8044B0133D3607047EE
:100B2000849F0220214B10B4DA681368506819784A
:100B30000478507A137A044201EA03011BD0937AB5
:100B400003F0030309B143F0040343F008039910D1
:100B5000013B91720D2B0BD8DFE803F021071B0737
:100B60000A152121150A071B0721D368013BD36011
:100B70005DF8044B7047937A03F003030029E6D035
:100B800043F00403E3E7D3685DF8044B023BD36012
:100B90007047D3685DF8044B0233D3607047D36865
:100BA0005DF8044B0133D360704700BF849F02207F
:100BB000214B10B41A691368506819780478507A78
:100BC000137A044201EA03011BD0937A03F0030372
:100BD00009B143F0040343F008039910013B9172FB
:100BE0000D2B0BD8DFE803F021071B070A15212185
:100BF000150A071B0721D368013BD3605DF8044B3E
:100C00007047937A03F003030029E6D043F004030E
:100C1000E3E7D3685DF8044B023BD3607047D368C9
:100C20005DF8044B0233D3607047D3685DF8044B22
:100C30000133D360704700BF849F0220214B10B462
:100C40005A691368506819780478507A137A044204
:100C500001EA03011BD0937A03F0030309B143F0C7
:100C6000040343F008039910013B91720D2B0BD83C
:100C7000DFE803F021071B070A152121150A071BCE
:100C80000721D368013BD3605DF8044B7047937A2A
:100C900003F003030029E6D043F00403E3E7D3683D
:100CA0005DF8044B023BD3607047D3685DF8044B9A
:100CB0000233D3607047D3685DF8044B0133D360CF
:100CC000704700BF849F0220214B10B49A691368BB
:100CD000506819780478507A137A044201EA0301C3
:100CE0001BD0937A03F0030309B143F0040343F0EC
:100CF00008039910013B91720D2B0BD8DFE803F02C
:100D000021071B070A152121150A071B0721D36894
:100D1000013BD3605DF8044B7047937A03F0030303
:100D20000029E6D043F00403E3E7D3685DF8044B01
:100D3000023BD3607047D3685DF8044B0233D36045
:100D40007047D3685DF8044B0133D360704700BF30
:100D5000849F0220214B10B4DA6913685068197817
:100D60000478507A137A044201EA03011BD0937A83
:100D700003F0030309B143F0040343F0080399109F
:100D8000013B91720D2B0BD8DFE803F021071B0705
:100D90000A152121150A071B0721D368013BD360DF
:100DA0005DF8044B7047937A03F003030029E6D003
:100DB00043F00403E3E7D3685DF8044B023BD360E0
:100DC0007047D3685DF8044B0233D3607047D36833
:100DD0005DF8044B0133D360704700BF849F02204D
:100DE000214B10B41A6A1368506819780478507A45
:100DF000137A044201EA03011BD0937A03F0030340
:100E000009B143F0040343F008039910013B9172C8
:100E10000D2B0BD8DFE803F021071B070A15212152
:100E2000150A071B0721D368013BD3605DF8044B0B
:100E30007047937A03F003030029E6D043F00403DC
:100E4000E3E7D3685DF8044B023BD3607047D36897
:100E50005DF8044B0233D3607047D3685DF8044BF0
:100E60000133D360704700BF849F0220214B10B430
:100E70005A6A1368506819780478507A137A0442D1
:100E800001EA03011BD0937A03F0030309B143F095
:100E9000040343F008039910013B91720D2B0BD80A
:100EA000DFE803F021071B070A152121150A071B9C
:100EB0000721D368013BD3605DF8044B7047937AF8
:100EC00003F003030029E6D043F00403E3E7D3680B
:100ED0005DF8044B023BD3607047D3685DF8044B68
:100EE0000233D3607047D3685DF8044B0133D3609D
:100EF000704700BF849F0220214B10B49A6A136888
:100F0000506819780478507A137A044201EA030190
:100F10001BD0937A03F0030309B143F0040343F0B9
:100F200008039910013B91720D2B0BD8DFE803F0F9
:100F300021071B070A152121150A071B0721D36862
:100F4000013BD3605DF8044B7047937A03F00303D1
:100F50000029E6D043F00403E3E7D3685DF8044BCF
:100F6000023BD3607047D3685DF8044B0233D36013
:100F70007047D3685DF8044B0133D360704700BFFE
:100F8000849F0220214B10B4DA6A136850681978E4
:100F90000478507A137A044201EA03011BD0937A51
:100FA00003F0030309B143F0040343F0080399106D
:100FB000013B91720D2B0BD8DFE803F021071B07D3
:100FC0000A152121150A071B0721D368013BD360AD
:100FD0005DF8044B7047937A03F003030029E6D0D1
:100FE00043F00403E3E7D3685DF8044B023BD360AE
:100FF0007047D3685DF8044B0233D3607047D36801
:101000005DF8044B0133D360704700BF849F02201A
:10101000214B10B41A6B1368506819780478507A11
:10102000137A044201EA03011BD0937A03F003030D
:1010300009B143F0040343F008039910013B917296
:101040000D2B0BD8DFE803F021071B070A15212120
:10105000150A071B0721D368013BD3605DF8044BD9
:101060007047937A03F003030029E6D043F00403AA
:10107000E3E7D3685DF8044B023BD3607047D36865
:101080005DF8044B0233D3607047D3685DF8044BBE
:101090000133D360704700BF849F0220214B10B4FE
:1010A0005A6B1368506819780478507A137A04429E
:1010B00001EA03011BD0937A03F0030309B143F063
:1010C000040343F008039910013B91720D2B0BD8D8
:1010D000DFE803F021071B070A152121150A071B6A
:1010E0000721D368013BD3605DF8044B7047937AC6
:1010F00003F003030029E6D043F00403E3E7D368D9
:101100005DF8044B023BD3607047D3685DF8044B35
:101110000233D3607047D3685DF8044B0133D3606A
:10112000704700BF849F0220214B10B49A6B136854
:10113000506819780478507A137A044201EA03015E
:101140001BD0937A03F0030309B143F0040343F087
:1011500008039910013B91720D2B0BD8DFE803F0C7
:1011600021071B070A152121150A071B0721D36830
:10117000013BD3605DF8044B7047937A03F003039F
:101180000029E6D043F00403E3E7D3685DF8044B9D
:10119000023BD3607047D3685DF8044B0233D360E1
:1011A0007047D3685DF8044B0133D360704700BFCC
:1011B000849F0220214B10B4DA6B136850681978B1
:1011C0000478507A137A044201EA03011BD0937A1F
:1011D00003F0030309B143F0040343F0080399103B
:1011E000013B91720D2B0BD8DFE803F021071B07A1
:1011F0000A152121150A071B0721D368013BD3607B
:101200005DF8044B7047937A03F003030029E6D09E
:1012100043F00403E3E7D3685DF8044B023BD3607B
:101220007047D3685DF8044B0233D3607047D368CE
:101230005DF8044B0133D360704700BF849F0220E8
:10124000214B10B41A6C1368506819780478507ADE
:10125000137A044201EA03011BD0937A03F00303DB
:1012600009B143F0040343F008039910013B917264
:101270000D2B0BD8DFE803F021071B070A152121EE
:10128000150A071B0721D368013BD3605DF8044BA7
:101290007047937A03F003030029E6D043F0040378
:1012A000E3E7D3685DF8044B023BD3607047D36833
:1012B0005DF8044B0233D3607047D3685DF8044B8C
:1012C0000133D360704700BF849F0220214B10B4CC
:1012D0005A6C1368506819780478507A137A04426B
:1012E00001EA03011BD0937A03F0030309B143F031
:1012F000040343F008039910013B91720D2B0BD8A6
:10130000DFE803F021071B070A152121150A071B37
:101310000721D368013BD3605DF8044B7047937A93
:1013200003F003030029E6D043F00403E3E7D368A6
:101330005DF8044B023BD3607047D3685DF8044B03
:101340000233D3607047D3685DF8044B0133D36038
:10135000704700BF849F0220214B10B49A6C136821
:10136000506819780478507A137A044201EA03012C
:101370001BD0937A03F0030309B143F0040343F055
:1013800008039910013B91720D2B0BD8DFE803F095
:1013900021071B070A152121150A071B0721D368FE
:1013A000013BD3605DF8044B7047937A03F003036D
:1013B0000029E6D043F00403E3E7D3685DF8044B6B
:1013C000023BD3607047D3685DF8044B0233D360AF
:1013D0007047D3685DF8044B0133D360704700BF9A
:1013E000849F0220214B10B4DA6C1368506819787E
:1013F0000478507A137A044201EA03011BD0937AED
:1014000003F0030309B143F0040343F00803991008
:10141000013B91720D2B0BD8DFE803F021071B076E
:101420000A152121150A071B0721D368013BD36048
:101430005DF8044B7047937A03F003030029E6D06C
:1014400043F00403E3E7D3685DF8044B023BD36049
:101450007047D3685DF8044B0233D3607047D3689C
:101460005DF8044B0133D360704700BF849F0220B6
:10147000214B10B41A6D1368506819780478507AAB
:10148000137A044201EA03011BD0937A03F00303A9
:1014900009B143F0040343F008039910013B917232
:1014A0000D2B0BD8DFE803F021071B070A152121BC
:1014B000150A071B0721D368013BD3605DF8044B75
:1014C0007047937A03F003030029E6D043F0040346
:1014D000E3E7D3685DF8044B023BD3607047D36801
:1014E0005DF8044B0233D3607047D3685DF8044B5A
:1014F0000133D360704700BF849F0220214B10B49A
:101500005A6D1368506819780478507A137A044237
:1015100001EA03011BD0937A03F0030309B143F0FE
:10152000040343F008039910013B91720D2B0BD873
:10153000DFE803F021071B070A152121150A071B05
:101540000721D368013BD3605DF8044B7047937A61
:1015500003F003030029E6D043F00403E3E7D36874
:101560005DF8044B023BD3607047D3685DF8044BD1
:101570000233D3607047D3685DF8044B0133D36006
:10158000704700BF849F0220214B10B49A6D1368EE
:10159000506819780478507A137A044201EA0301FA
:1015A0001BD0937A03F0030309B143F0040343F023
:1015B00008039910013B91720D2B0BD8DFE803F063
:1015C00021071B070A152121150A071B0721D368CC
:1015D000013BD3605DF8044B7047937A03F003033B
:1015E0000029E6D043F00403E3E7D3685DF8044B39
:1015F000023BD3607047D3685DF8044B0233D3607D
:101600007047D3685DF8044B0133D360704700BF67
:10161000849F0220214B10B4DA6D1368506819784A
:101620000478507A137A044201EA03011BD0937ABA
:1016300003F0030309B143F0040343F008039910D6
:10164000013B91720D2B0BD8DFE803F021071B073C
:101650000A152121150A071B0721D368013BD36016
:101660005DF8044B7047937A03F003030029E6D03A
:1016700043F00403E3E7D3685DF8044B023BD36017
:101680007047D3685DF8044B0233D3607047D3686A
:101690005DF8044B0133D360704700BF849F022084
:1016A000214B10B41A6E1368506819780478507A78
:1016B000137A044201EA03011BD0937A03F0030377
:1016C00009B143F0040343F008039910013B917200
:1016D0000D2B0BD8DFE803F021071B070A1521218A
:1016E000150A071B0721D368013BD3605DF8044B43
:1016F0007047937A03F003030029E6D043F0040314
:10170000E3E7D3685DF8044B023BD3607047D368CE
:101710005DF8044B0233D3607047D3685DF8044B27
:101720000133D360704700BF849F0220214B10B467
:101730005A6E1368506819780478507A137A044204
:1017400001EA03011BD0937A03F0030309B143F0CC
:10175000040343F008039910013B91720D2B0BD841
:10176000DFE803F021071B070A152121150A071BD3
:101770000721D368013BD3605DF8044B7047937A2F
:1017800003F003030029E6D043F00403E3E7D36842
:101790005DF8044B023BD3607047D3685DF8044B9F
:1017A0000233D3607047D3685DF8044B0133D360D4
:1017B000704700BF849F0220214B10B49A6E1368BB
:1017C000506819780478507A137A044201EA0301C8
:1017D0001BD0937A03F0030309B143F0040343F0F1
:1017E00008039910013B91720D2B0BD8DFE803F031
:1017F00021071B070A152121150A071B0721D3689A
:10180000013BD3605DF8044B7047937A03F0030308
:101810000029E6D043F00403E3E7D3685DF8044B06
:10182000023BD3607047D3685DF8044B0233D3604A
:101830007047D3685DF8044B0133D360704700BF35
:10184000849F0220214B10B4DA6E13685068197817
:101850000478507A137A044201EA03011BD0937A88
:1018600003F0030309B143F0040343F008039910A4
:10187000013B91720D2B0BD8DFE803F021071B070A
:101880000A152121150A071B0721D368013BD360E4
:101890005DF8044B7047937A03F003030029E6D008
:1018A00043F00403E3E7D3685DF8044B023BD360E5
:1018B0007047D3685DF8044B0233D3607047D36838
:1018C0005DF8044B0133D360704700BF849F022052
:1018D000214B10B41A6F1368506819780478507A45
:1018E000137A044201EA03011BD0937A03F0030345
:1018F00009B143F0040343F008039910013B9172CE
:101900000D2B0BD8DFE803F021071B070A15212157
:10191000150A071B0721D368013BD3605DF8044B10
:101920007047937A03F003030029E6D043F00403E1
:10193000E3E7D3685DF8044B023BD3607047D3689C
:101940005DF8044B0233D3607047D3685DF8044BF5
:101950000133D360704700BF849F0220214B10B435
:101960005A6F1368506819780478507A137A0442D1
:1019700001EA03011BD0937A03F0030309B143F09A
:10198000040343F008039910013B91720D2B0BD80F
:10199000DFE803F021071B070A152121150A071BA1
:1019A0000721D368013BD3605DF8044B7047937AFD
:1019B00003F003030029E6D043F00403E3E7D36810
:1019C0005DF8044B023BD3607047D3685DF8044B6D
:1019D0000233D3607047D3685DF8044B0133D360A2
:1019E000704700BF849F0220214B10B49A6F136888
:1019F000506819780478507A137A044201EA030196
:101A00001BD0937A03F0030309B143F0040343F0BE
:101A100008039910013B91720D2B0BD8DFE803F0FE
:101A200021071B070A152121150A071B0721D36867
:101A3000013BD3605DF8044B7047937A03F00303D6
:101A40000029E6D043F00403E3E7D3685DF8044BD4
:101A5000023BD3607047D3685DF8044B0233D36018
:101A60007047D3685DF8044B0133D360704700BF03
:101A7000849F0220214B10B4DA6F136850681978E4
:101A80000478507A137A044201EA03011BD0937A56
:101A900003F0030309B143F0040343F00803991072
:101AA000013B91720D2B0BD8DFE803F021071B07D8
:101AB0000A152121150A071B0721D368013BD360B2
:101AC0005DF8044B7047937A03F003030029E6D0D6
:101AD00043F00403E3E7D3685DF8044B023BD360B3
:101AE0007047D3685DF8044B0233D3607047D36806
:101AF0005DF8044B0133D360704700BF849F022020
:101B0000214B10B4D3F880201368506819780478FA
:101B1000507A137A044201EA03011BD0937A03F04E
:101B2000030309B143F0040343F008039910013B98
:101B300091720D2B0BD8DFE803F021071B070A1564
:101B40002121150A071B0721D368013BD3605DF8EB
:101B5000044B7047937A03F003030029E6D043F067
:101B60000403E3E7D3685DF8044B023BD36070479E
:101B7000D3685DF8044B0233D3607047D3685DF8D7
:101B8000044B0133D3607047849F0220214B10B473
:101B9000D3F884201368506819780478507A137A3F
:101BA000044201EA03011BD0937A03F0030309B155
:101BB00043F0040343F008039910013B91720D2B8D
:101BC0000BD8DFE803F021071B070A152121150AAE
:101BD000071B0721D368013BD3605DF8044B7047B6
:101BE000937A03F003030029E6D043F00403E3E70C
:101BF000D3685DF8044B023BD3607047D3685DF84F
:101C0000044B0233D3607047D3685DF8044B013353
:101C1000D3607047849F0220214B10B4D3F88820F2
:101C20001368506819780478507A137A044201EAEC
:101C300003011BD0937A03F0030309B143F00403BB
:101C400043F008039910013B91720D2B0BD8DFE88C
:101C500003F021071B070A152121150A071B07217D
:101C6000D368013BD3605DF8044B7047937A03F06F
:101C700003030029E6D043F00403E3E7D3685DF8EB
:101C8000044B023BD3607047D3685DF8044B0233CA
:101C9000D3607047D3685DF8044B0133D36070475D
:101CA000849F0220214B10B4D3F88C201368506815
:101CB00019780478507A137A044201EA03011BD0A0
:101CC000937A03F0030309B143F0040343F00803DC
:101CD0009910013B91720D2B0BD8DFE803F021071F
:101CE0001B070A152121150A071B0721D368013B91
:101CF000D3605DF8044B7047937A03F00303002927
:101D0000E6D043F00403E3E7D3685DF8044B023BFD
:101D1000D3607047D3685DF8044B0233D3607047DB
:101D2000D3685DF8044B0133D3607047849F022071
:101D3000214B10B4D3F890201368506819780478B8
:101D4000507A137A044201EA03011BD0937A03F01C
:101D5000030309B143F0040343F008039910013B66
:101D600091720D2B0BD8DFE803F021071B070A1532
:101D70002121150A071B0721D368013BD3605DF8B9
:101D8000044B7047937A03F003030029E6D043F035
:101D90000403E3E7D3685DF8044B023BD36070476C
:101DA000D3685DF8044B0233D3607047D3685DF8A5
:101DB000044B0133D3607047849F0220214B10B441
:101DC000D3F894201368506819780478507A137AFD
:101DD000044201EA03011BD0937A03F0030309B123
:101DE00043F0040343F008039910013B91720D2B5B
:101DF0000BD8DFE803F021071B070A152121150A7C
:101E0000071B0721D368013BD3605DF8044B704783
:101E1000937A03F003030029E6D043F00403E3E7D9
:101E2000D3685DF8044B023BD3607047D3685DF81C
:101E3000044B0233D3607047D3685DF8044B013321
:101E4000D3607047849F0220214B10B4D3F89820B0
:101E50001368506819780478507A137A044201EABA
:101E600003011BD0937A03F0030309B143F0040389
:101E700043F008039910013B91720D2B0BD8DFE85A
:101E800003F021071B070A152121150A071B07214B
:101E9000D368013BD3605DF8044B7047937A03F03D
:101EA00003030029E6D043F00403E3E7D3685DF8B9
:101EB000044B023BD3607047D3685DF8044B023398
:101EC000D3607047D3685DF8044B0133D36070472B
:101ED000849F0220214B10B4D3F89C2013685068D3
:101EE00019780478507A137A044201EA03011BD06E
:101EF000937A03F0030309B143F0040343F00803AA
:101F00009910013B91720D2B0BD8DFE803F02107EC
:101F10001B070A152121150A071B0721D368013B5E
:101F2000D3605DF8044B7047937A03F003030029F4
:101F3000E6D043F00403E3E7D3685DF8044B023BCB
:101F4000D3607047D3685DF8044B0233D3607047A9
:101F5000D3685DF8044B0133D3607047849F02203F
:101F6000214B10B4D3F8A020136850681978047876
:101F7000507A137A044201EA03011BD0937A03F0EA
:101F8000030309B143F0040343F008039910013B34
:101F900091720D2B0BD8DFE803F021071B070A1500
:101FA0002121150A071B0721D368013BD3605DF887
:101FB000044B7047937A03F003030029E6D043F003
:101FC0000403E3E7D3685DF8044B023BD36070473A
:101FD000D3685DF8044B0233D3607047D3685DF873
:101FE000044B0133D3607047849F0220214B10B40F
:101FF000D3F8A4201368506819780478507A137ABB
:10200000044201EA03011BD0937A03F0030309B1F0
:1020100043F0040343F008039910013B91720D2B28
:102020000BD8DFE803F021071B070A152121150A49
:10203000071B0721D368013BD3605DF8044B704751
:10204000937A03F003030029E6D043F00403E3E7A7
:10205000D3685DF8044B023BD3607047D3685DF8EA
:10206000044B0233D3607047D3685DF8044B0133EF
:10207000D3607047849F0220214B10B4D3F8A8206E
:102080001368506819780478507A137A044201EA88
:1020900003011BD0937A03F0030309B143F0040357
:1020A00043F008039910013B91720D2B0BD8DFE828
:1020B00003F021071B070A152121150A071B072119
:1020C000D368013BD3605DF8044B7047937A03F00B
:1020D00003030029E6D043F00403E3E7D3685DF887
:1020E000044B023BD3607047D3685DF8044B023366
:1020F000D3607047D3685DF8044B0133D3607047F9
:10210000849F0220214B10B4D3F8AC201368506890
:1021100019780478507A137A044201EA03011BD03B
:10212000937A03F0030309B143F0040343F0080377
:102130009910013B91720D2B0BD8DFE803F02107BA
:102140001B070A152121150A071B0721D368013B2C
:10215000D3605DF8044B7047937A03F003030029C2
:10216000E6D043F00403E3E7D3685DF8044B023B99
:10217000D3607047D3685DF8044B0233D360704777
:10218000D3685DF8044B0133D3607047849F02200D
:10219000214B10B4D3F8B020136850681978047834
:1021A000507A137A044201EA03011BD0937A03F0B8
:1021B000030309B143F0040343F008039910013B02
:1021C00091720D2B0BD8DFE803F021071B070A15CE
:1021D0002121150A071B0721D368013BD3605DF855
:1021E000044B7047937A03F003030029E6D043F0D1
:1021F0000403E3E7D3685DF8044B023BD360704708
:10220000D3685DF8044B0233D3607047D3685DF840
:10221000044B0133D3607047849F0220214B10B4DC
:10222000D3F8B4201368506819780478507A137A78
:10223000044201EA03011BD0937A03F0030309B1BE
:1022400043F0040343F008039910013B91720D2BF6
:102250000BD8DFE803F021071B070A152121150A17
:10226000071B0721D368013BD3605DF8044B70471F
:10227000937A03F003030029E6D043F00403E3E775
:10228000D3685DF8044B023BD3607047D3685DF8B8
:10229000044B0233D3607047D3685DF8044B0133BD
:1022A000D3607047849F0220214B10B4D3F8B8202C
:1022B0001368506819780478507A137A044201EA56
:1022C00003011BD0937A03F0030309B143F0040325
:1022D00043F008039910013B91720D2B0BD8DFE8F6
:1022E00003F021071B070A152121150A071B0721E7
:1022F000D368013BD3605DF8044B7047937A03F0D9
:1023000003030029E6D043F00403E3E7D3685DF854
:10231000044B023BD3607047D3685DF8044B023333
:10232000D3607047D3685DF8044B0133D3607047C6
:10233000849F0220214B10B4D3F8BC20136850684E
:1023400019780478507A137A044201EA03011BD009
:10235000937A03F0030309B143F0040343F0080345
:102360009910013B91720D2B0BD8DFE803F0210788
:102370001B070A152121150A071B0721D368013BFA
:10238000D3605DF8044B7047937A03F00303002990
:10239000E6D043F00403E3E7D3685DF8044B023B67
:1023A000D3607047D3685DF8044B0233D360704745
:1023B000D3685DF8044B0133D3607047849F0220DB
:1023C000214B10B4D3F8C0201368506819780478F2
:1023D000507A137A044201EA03011BD0937A03F086
:1023E000030309B143F0040343F008039910013BD0
:1023F00091720D2B0BD8DFE803F021071B070A159C
:102400002121150A071B0721D368013BD3605DF822
:10241000044B7047937A03F003030029E6D043F09E
:102420000403E3E7D3685DF8044B023BD3607047D5
:10243000D3685DF8044B0233D3607047D3685DF80E
:10244000044B0133D3607047849F0220214B10B4AA
:10245000D3F8C4201368506819780478507A137A36
:10246000044201EA03011BD0937A03F0030309B18C
:1024700043F0040343F008039910013B91720D2BC4
:102480000BD8DFE803F021071B070A152121150AE5
:10249000071B0721D368013BD3605DF8044B7047ED
:1024A000937A03F003030029E6D043F00403E3E743
:1024B000D3685DF8044B023BD3607047D3685DF886
:1024C000044B0233D3607047D3685DF8044B01338B
:1024D000D3607047849F0220214B10B4D3F8C820EA
:1024E0001368506819780478507A137A044201EA24
:1024F00003011BD0937A03F0030309B143F00403F3
:1025000043F008039910013B91720D2B0BD8DFE8C3
:1025100003F021071B070A152121150A071B0721B4
:10252000D368013BD3605DF8044B7047937A03F0A6
:1025300003030029E6D043F00403E3E7D3685DF822
:10254000044B023BD3607047D3685DF8044B023301
:10255000D3607047D3685DF8044B0133D360704794
:10256000849F0220002310B4114C41720261046068
:102570000372C36041B1194600E0026942F82310BA
:10258000427A01339A42F8DC0A4B1A680AB90CE025
:102590001A465369002BFBD15061002343618380AD
:1025A000C38083725DF8044B70471860F5E700BF85
:1025B0005CAA010028A50220F8B5044615460E467F
:1025C0000846022110F0C6F92846022110F0C2F98F
:1025D000984A994B52F83610012001F50077276090
:1025E000207252F83520607202F500770020676093
:1025F000E060013BFDD191F8003292F8002203F037
:102600000103D20744BF43F00203DBB2A3723B2EA7
:1026100000F20386DFE816F0F405EA05E005D605CA
:10262000CC05C205B805AE05A4059A05900586053A
:102630007C05720568055E0554054A0540053605AA
:102640002C05220518050E050405FA04F004E6041D
:10265000DC04D204C804BE04B304A8049D0492049C
:1026600087047C0428041E0414040A040004F603EE
:10267000EC03E203D803CE03C403BA03B003A603FA
:102680009C03920388037E0374036A0360033C0087
:102690006A4B6B49C3F8EC4004223B2010F0B2F8BF
:1026A000012323743B2D00F2B585DFE815F00B0301
:1026B0000103F702ED02E302D902CF02C502BB0219
:1026C000B102A7029D02930289027F023102270212
:1026D0001D0213020902FF01F501EB01E101D7011F
:1026E000CD01C301B901AF01A5019B019101860193
:1026F0007B01700165015A014F01440139012E012E
:10270000230118010D010201F700EC00E100B800FF
:10271000AD00A20097008C00810076006B00600085
:1027200055004A003C00454B4549C3F8EC400422A3
:102730003B2010F067F8237C0122134423742046C9
:10274000F8BD3E4B3F49C3F8E84004223A2010F060
:1027500059F8237C0122F0E7384B3B49C3F8E440A9
:102760000422392010F04EF8237C0122E5E7334B98
:102770003649C3F8E0400422382010F043F8237CA7
:102780000122DAE72D4B3249C3F8DC40042237201E
:1027900010F038F8237C0122CFE7284B2D49C3F8ED
:1027A000D8400422362010F02DF8237C0122C4E703
:1027B000224B2949C3F8D4400422352010F022F8D6
:1027C000237C0122B9E71D4B2449C3F8D0400422E1
:1027D000342010F017F8237C0122AEE7174B204974
:1027E000C3F8CC400422332010F00CF8237C0122E3
:1027F000A3E7124B1B49C3F8C8400422322010F053
:1028000001F8237C012298E70C4B1749C3F8C44018
:10281000042231200FF0F6FF237C01228DE7074BC5
:102820001249C3F8C040042230200FF0EBFF237C94
:10283000012282E7B0E00100C0D40100849F0220A1
:10284000990A00000D0A000081090000F508000047
:1028500069080000DD07000051070000C506000000
:1028600039060000D92400004D240000C1230000D7
:10287000AC4BAD49C3F8BC4004222F200FF0C2FF7F
:10288000237C012259E7A74BA849C3F8B84004228A
:102890002E200FF0B7FF237C01224EE7A14BA44965
:1028A000C3F8B44004222D200FF0ACFF237C01229A
:1028B00043E79C4B9F49C3F8B04004222C200FF003
:1028C000A1FF237C012238E7964B9B49C3F8AC401B
:1028D00004222B200FF096FF237C01222DE7914B41
:1028E0009649C3F8A84004222A200FF08BFF237CCE
:1028F000012222E78B4B9249C3F8A44004222920ED
:102900000FF080FF237C012217E7864B8D49C3F827
:10291000A040042228200FF075FF237C01220CE741
:10292000804B8949C3F89C40042227200FF06AFF9E
:10293000237C012201E77B4B8449C3F898400422A1
:1029400026200FF05FFF237C0122F6E6754B8049BD
:10295000C3F89440042225200FF054FF237C012269
:10296000EBE6704B7B49C3F89040042224200FF023
:1029700049FF237C0122E0E66A4B7749C3F88C408B
:10298000042223200FF03EFF237C0122D5E6654B75
:102990007249C3F88840042222200FF033FF237CC1
:1029A0000122CAE65F4B6E49C3F88440042221200D
:1029B0000FF028FF237C0122BFE65A4B6949C3F878
:1029C0008040042220200FF01DFF237C0122B4E66A
:1029D000544B6549DC6704221F200FF013FF237C52
:1029E0000122AAE64F4B61499C6704221E200FF08A
:1029F00009FF237C0122A0E64A4B5D495C67042263
:102A00001D200FF0FFFE237C012296E6454B59491D
:102A10001C6704221C200FF0F5FE237C01228CE6AB
:102A2000404B5549DC6604221B200FF0EBFE237C53
:102A3000012282E63B4B51499C6604221A200FF08A
:102A4000E1FE237C012278E6364B4D495C66042288
:102A500019200FF0D7FE237C01226EE6314B494945
:102A60001C66042218200FF0CDFE237C012264E6B0
:102A70002C4B4549DC65042217200FF0C3FE237C54
:102A800001225AE6274B41499C65042216200FF08B
:102A9000B9FE237C012250E6224B3D495C650422AD
:102AA00015200FF0AFFE237C012246E61D4B39496D
:102AB0001C65042214200FF0A5FE237C01223CE6B5
:102AC000184B3549DC64042213200FF09BFE237C55
:102AD000012232E6134B31499C64042212200FF08C
:102AE00091FE237C012228E60E4B2D495C640422D2
:102AF00011200FF087FE237C01221EE6094B294995
:102B00001C64042210200FF07DFE237C012214E6B9
:102B1000044B2549DC6304220F200FF073FE237C55
:102B200001220AE6849F022035230000A92200002A
:102B30001D220000912100000521000079200000E5
:102B4000ED1F0000611F0000D51E0000491E00009F
:102B5000BD1D0000311D0000A51C0000191C000057
:102B60008D1B0000011B0000751A0000E919000010
:102B70005D190000D118000045180000B9170000C9
:102B80002D170000A1160000151600008915000081
:102B9000FD14000071140000E5130000591300003B
:102BA000CD12000041120000B5110000B34BB44932
:102BB0009C6304220E200FF025FE237C0122BCE53D
:102BC000AE4BB0495C6304220D200FF01BFE237C4A
:102BD0000122B2E5A94BAC491C6304220C200FF082
:102BE00011FE237C0122A8E5A44BA849DC62042243
:102BF0000B200FF007FE237C01229EE59F4BA4498A
:102C00009C6204220A200FF0FDFD237C012294E542
:102C10009A4BA0495C62042209200FF0F3FD237C4B
:102C200001228AE5954B9C491C62042208200FF082
:102C3000E9FD237C012280E5904B9849DC61042268
:102C400007200FF0DFFD237C012276E58B4B9449B2
:102C50009C61042206200FF0D5FD237C01226CE547
:102C6000864B90495C61042205200FF0CBFD237C4C
:102C7000012262E5814B8C491C61042210460FF051
:102C8000C1FD237C012258E57C4B8849DC6004228D
:102C900003200FF0B7FD237C01224EE5774B8449DA
:102CA0009C60042202200FF0ADFD237C012244E54C
:102CB000724B80495C60042201200FF0A3FD237C4D
:102CC00001223AE56D4B7C491C60042200200FF084
:102CD00099FD237C012230E5684B7849C3F8E84030
:102CE00004223A200FF08EFD0123DAE4634B74498D
:102CF000C3F8E440042239200FF084FD0123D0E41E
:102D00005E4B7049C3F8E040042238200FF07AFD92
:102D10000123C6E4594B6C49C3F8DC400422372038
:102D20000FF070FD0123BCE4544B6849C3F8D84050
:102D3000042236200FF066FD0123B2E44F4B6449B4
:102D4000C3F8D440042235200FF05CFD0123A8E431
:102D50004A4B6049C3F8D040042234200FF052FDA2
:102D600001239EE4454B5C49C3F8CC400422332048
:102D70000FF048FD012394E4404B5849C3F8C84084
:102D8000042232200FF03EFD01238AE43B4B5449DC
:102D9000C3F8C440042231200FF034FD012380E445
:102DA000364B5049C3F8C040042230200FF02AFDB2
:102DB000012376E4314B4C49C3F8BC4004222F2058
:102DC0000FF020FD01236CE42C4B4849C3F8B840B8
:102DD00004222E200FF016FD012362E4274B444904
:102DE000C3F8B44004222D200FF00CFD012358E459
:102DF000224B4049C3F8B04004222C200FF002FDC2
:102E000001234EE41D4B3C49C3F8AC4004222B2067
:102E10000FF0F8FC012344E4184B3849C3F8A840EC
:102E200004222A200FF0EEFC01233AE4134B34492C
:102E3000C3F8A440042229200FF0E4FC012330E46D
:102E40000E4B3049C3F8A040042228200FF0DAFCD2
:102E5000012326E4094B2C49C3F89C400422272077
:102E60000FF0D0FC01231CE4044B2849C3F8984020
:102E7000042226200FF0C6FC012312E4849F0220C6
:102E8000291100009D10000011100000850F0000A6
:102E9000F90E00006D0E0000E10D0000550D000060
:102EA000C90C00003D0C0000B10B0000250B000018
:102EB000AD05000021050000950400000D0A00008A
:102EC00081090000F508000069080000DD07000026
:102ED00051070000C506000039060000D924000093
:102EE0004D240000C123000035230000A92200006A
:102EF0001D22000091210000052100007920000022
:102F0000ED1F0000611F0000D51E0000491E0000DB
:102F1000C34BC449C3F89440042225200FF072FC2F
:102F20000123FFF7BEBBBE4BBF49C3F8904004224C
:102F300024200FF067FC0123FFF7B3BBB84BBB495C
:102F4000C3F88C40042223200FF05CFC0123FFF720
:102F5000A8BBB34BB649C3F88840042222200FF027
:102F600051FC0123FFF79DBBAD4BB249C3F8844030
:102F7000042221200FF046FC0123FFF792BBA84B4F
:102F8000AD49C3F88040042220200FF03BFC012310
:102F9000FFF787BBA24BA949DC6704221F200FF073
:102FA00031FC0123FFF77DBB9D4BA5499C670422A3
:102FB0001E200FF027FC0123FFF773BB984BA1499C
:102FC0005C6704221D200FF01DFC0123FFF769BB85
:102FD000934B9D491C6704221C200FF013FC012316
:102FE000FFF75FBB8E4B9949DC6604221B200FF074
:102FF00009FC0123FFF755BB894B95499C660422C8
:103000001A200FF0FFFB0123FFF74BBB844B9149C4
:103010005C66042219200FF0F5FB0123FFF741BB8A
:103020007F4B8D491C66042218200FF0EBFB012317
:10303000FFF737BB7A4B8949DC65042217200FF074
:10304000E1FB0123FFF72DBB754B85499C650422ED
:1030500016200FF0D7FB0123FFF723BB704B8149EC
:103060005C65042215200FF0CDFB0123FFF719BB8F
:103070006B4B7D491C65042214200FF0C3FB012318
:10308000FFF70FBB664B7949DC64042213200FF075
:10309000B9FB0123FFF705BB614B75499C64042212
:1030A00012200FF0AFFB0123FFF7FBBA5C4B714915
:1030B0005C64042211200FF0A5FB0123FFF7F1BA95
:1030C000574B6D491C64042210200FF09BFB012319
:1030D000FFF7E7BA524B6949DC6304220F200FF077
:1030E00091FB0123FFF7DDBA4D4B65499C63042238
:1030F0000E200FF087FB0123FFF7D3BA484B61493D
:103100005C6304220D200FF07DFB0123FFF7C9BA99
:10311000434B5D491C6304220C200FF073FB012319
:10312000FFF7BFBA3E4B5949DC6204220B200FF077
:1031300069FB0123FFF7B5BA394B55499C6204225C
:103140000A200FF05FFB0123FFF7ABBA344B514964
:103150005C62042209200FF055FB0123FFF7A1BA9E
:103160002F4B4D491C62042208200FF04BFB01231A
:10317000FFF797BA2A4B4949DC61042207200FF078
:1031800041FB0123FFF78DBA254B45499C61042281
:1031900006200FF037FB0123FFF783BA204B41498C
:1031A0005C61042205200FF02DFB0123FFF779BAA3
:1031B0001B4B3D491C61042210460FF023FB0123E9
:1031C000FFF76FBA164B3949DC60042203200FF079
:1031D00019FB0123FFF765BA114B35499C600422A6
:1031E00002200FF00FFB0123FFF75BBA0C4B3149B4
:1031F0005C60042201200FF005FB0123FFF751BAA8
:10320000074B2D491C60042200200FF0FBFA01231C
:10321000FFF747BA0022FFF790BA0023FFF741BA41
:10322000849F0220BD1D0000311D0000A51C000070
:10323000191C00008D1B0000011B0000751A000006
:10324000E91900005D190000D118000045180000C0
:10325000B91700002D170000A11600001516000078
:1032600089150000FD14000071140000E513000032
:1032700059130000CD12000041120000B5110000EA
:10328000291100009D10000011100000850F0000A2
:10329000F90E00006D0E0000E10D0000550D00005C
:1032A000C90C00003D0C0000B10B0000250B000014
:1032B000AD050000210500009504000010B592B096
:1032C000014601A80EF0BAFD0023322201A805A98B
:1032D0000EF0D6FD05A905480AF080F8044601A8BD
:1032E0000EF06CFDA0B212B010BD00BF34940020EF
:1032F00007EE900A9FED0C6ADFED0C6A0C4B0D484F
:10330000B8EEE77ADFED0C7A27EE067A10B5E7EE35
:10331000267A01241C60FCEEE77A17EE901A05F07D
:1033200077FC064B1C6010BD0AD7233C000001430C
:1033300088E100E05C4F0020EE7CFF3E08E100E009
:1033400010B5A2B044221749044668460FF0B2F8FF
:1033500044220DEB020014490FF0ACF8ADF1040269
:10336000002352F8041FA14204D00133112BF8D1DD
:1033700022B010BD0D490A68002AFCDB22AA02EB2C
:1033800083030B4913F8442C33F8423C013A1203EF
:10339000013B02F47F22C3F30B0313430B6022B003
:1033A00010BD00BF60AA0100A4AA010000F1024004
:1033B00004F102402DE9F04F2DED028BDFF808B14A
:1033C0003D4BDFED3E8A9FED3E8A85B04FF0000811
:1033D0000393D94604E0B8F1EA0F4BF8046F66D0C6
:1033E00059F8043F039A029332F9024F039207EE11
:1033F000903A07EE104AF8EEE77AB8EEC77A67EE31
:10340000A87ABD2CE7EE087AA8BFBD241FFA88F57C
:1034100024EAE4742F1DFDEEE77A0FFA84FA4FF4E4
:10342000FC623FB20092534639465A222548A4B264
:1034300017EE906A07F064FB0020C4F1BE0304F1AC
:103440005A02394600901BB212B21E48053507F0E9
:1034500057FB2DB20023BD2E009329464FF0BE032B
:103460004FF05A021748A8BFBD2607F049FB4FF49A
:10347000FC625346009229465A22124807F040FB4C
:10348000029B042B08F1020826EAE676A3DD1A4621
:1034900055324FF6FF73009312B2294605230948AF
:1034A00007F02EFBB8F1EA0F4BF8046F98D105B086
:1034B000BDEC028BBDE8F08FDA8C00203333333F54
:1034C0009A99993E3494002028840020F8B55C4EE7
:1034D00034685CB1032C5B4D28D0022C3CD0012C0D
:1034E00060D0042C7DD000232B62F8BD5648554D8A
:1034F000564F05F0D5FD564A564B11681A68EC61D7
:1035000091424FF48033AB6104BFEB61AC61524B2D
:1035100034685248524A00211960032C4FF00103CD
:103520004FF002013B6003601160D6D14FF480413F
:103530004548464F05F098FD474B34684848474991
:1035400000221A60AA6101234FF48032022C3B60F2
:1035500003600B60EA61C2D14FF480413A4805F044
:103560006DFD404BDFED406A93F9003007EE903A75
:10357000F8EEE77AB7EE006A86EE277A4FF48032EB
:103580000023EA61AB61B4EEE67AF1EE10FA3BD4C7
:10359000F2EE007AB4EEE77AF1EE10FA44DD4FF481
:1035A000002333E02848274C2B4F05F079FD284AAB
:1035B000284B116818684FF4803288424FF000039E
:1035C000EB61AA6108BFE26120482549234A08BF90
:1035D000A36101233468036000263E600B60136022
:1035E0007FE719481C4F194E1D4C05F059FD1B482B
:1035F000002201234FF480313A60EA61AA6133600E
:10360000236003602962F8BD40F28F230E4F124CF5
:103610000E481349114A3B620123002727600360CB
:1036200034680B6013605AE7DFED106ADFED107A43
:10363000E7EE267AFCEEE77A17EE903AE6E700BF6F
:10364000EC960020B897002010970020B49C022030
:10365000284F00204C3E002008990020F0960020C2
:10366000F04E0020713E00200AD7233C0000804726
:10367000EE7CFF3EF0B5474C474A484991B00025E3
:1036800008A80123256003F0FBF910AA44480A9B0F
:1036900012F8145D9DF8241083600573017100F128
:1036A0000D031A3012F8011F03F8011B83423C4935
:1036B000F8D10F9B3B4ECB6108A803F009F900231A
:1036C000394F336005E008A803F018F908A803F0A3
:1036D000FFF80122324908A803F046FA08A803F0CF
:1036E0001BF940F2E63310B922689A424CDD08A873
:1036F00003F0F2F80028E6D108A803F0EBF8014641
:1037000068460EF09BFB294904A80EF097FB04A91C
:1037100068460EF0CFFB054604A80EF04FFB1DB91E
:1037200068460EF04BFBCEE7236803EB430503EB43
:10373000850308A8FD1803F0CDF80146284613F0CC
:103740001FFC1B4904A80EF079FB04A968460EF083
:10375000B1FB054604A80EF031FB2B460122694659
:1037600004A80EF0B9FB04A80EF0DAFB054604A885
:103770000EF024FB326823680A49954203F10103E5
:10378000C8BF0D602360CBE708A803F0A1F811B013
:10379000F0BD00BF5897002090AB0100B89C0220FC
:1037A000909C02208C1C02206851002094AB0100E8
:1037B0009CAB010008B50549012200200CF052F92C
:1037C000FE210348BDE8084003F0AEB8A0AB0100FD
:1037D000B89C022038B5064D0648074C2946012200
:1037E0000CF040F9207028460CF012FD207038BD16
:1037F000A0AB01008C4C0020248C0020F8B5224C9A
:10380000236833B9214B1A6840F2E6339A420DDD42
:10381000F8BD1F480CF0EAFC00231E4A23601B4B36
:1038200010701A6840F2E6339A42F1DC1A4F1B4BD3
:103830003D681B681A491B48164E01352A463D60F3
:1038400013F010FB002117480CF0F6FC0A22307030
:1038500014490F480CF030F90228307008D00A22C1
:1038600010490B480CF028F9012330702360F8BD93
:1038700007480CF0BBFC09283070F0D109480CF067
:1038800001FD3070EBE700BFBC8C00205897002092
:1038900060940020248C00208C1C022020990020A1
:1038A000A4AB01005C9700202DE9F843064606F022
:1038B0009BF801282CDDDFF86490DFF858800025A4
:1038C000D8F80000134F05EB4004304606F0BEF870
:1038D00009EB042401464FF4807220460EF0EAFD05
:1038E0000135304606F0D0F8022DE9D13B680133AE
:1038F000BF2B02D83B60BDE8F8830022064B3A603C
:10390000064907484FF4C0320CF052FA054B1870C4
:10391000BDE8F88358940020EC4E002080990020E8
:1039200060940020248C0020134A38B500230446FC
:10393000124D80F8F63013700CE006F087F8104B4B
:1039400001464FF480720F480CF032FA287020467E
:1039500006F09AF8204606F047F800282046ECDCEE
:1039600008480CF043FC084B287000221A60BDE8A0
:103970003840FFF77FBE00BF404F0020248C00205E
:10398000EC4E002060940020BC8C00202DE9F0411A
:103990008EB00DF1030600250746B0462C4628469A
:1039A0000EF038FD08F8010F4440082314F0010F11
:1039B0004FEA540203F1FF3314BF82F08C04C4F3C6
:1039C000470413F0FF03F1D10135332DE7D1F4B9EA
:1039D0009DF83330332B03D020460EB0BDE8F08184
:1039E0009DF83230302BF7D19DF83130302BF3D1A8
:1039F0009DF83030302BEFD1013F0DF1370316F831
:103A0000012F07F8012F9E42F9D10120E5E7184662
:103A10000EB0BDE8F08100BFF8B50025471E2C466A
:103A200017F8016F0823744014F0010F4FEA540295
:103A300003F1FF3314BF82F08C04C4F3470413F086
:103A4000FF03F1D128460EF0E5FC864209D031464D
:103A500028460EF0F9FC28460EF0DCFC3B78834249
:103A600004D10135322DDBD1002600E001262146AC
:103A700028460EF0E9FC28460EF0CCFC84420CBF30
:103A800030460120F8BD00BF2DE9F0432549264806
:103A9000264A09680068264B264D1B88264C2E684E
:103AA000264F2568264C3F6894F8009091B001336A
:103AB0000490069192E80300C0F307228DF83920A4
:103AC000C0F307428DF83A201E491F4A91F8008042
:103AD00092F800C0ADF80E301C4A1D4B1D498DF800
:103AE0003800000E92F800E009688DF83B00089657
:103AF0005F2293F900600A91002303A88DF825C086
:103B00008DF824E08DF80C200C9505978DF82D90FC
:103B10008DF82C800D96ADF83C30FFF77DFF11B08D
:103B2000BDE8F083A83E0020681C0220B0AB010075
:103B3000588C0020AC3E0020403E0020CC3E0020AF
:103B4000D03E0020713E0020C03E0020443E0020B8
:103B5000C83E0020C43E00202DE9F04FAD4AAE4BD8
:103B60001468AE48AE491C600C328BB00C68056816
:103B70001268AC49AC489C60DA605D600EF05EF99A
:103B8000AA4AAB49A848DFF8F09211F07FF8A94B98
:103B9000A9481A680792079C1A680892089A1B6835
:103BA0000993A64B099904601A60A54CA5482723E0
:103BB00002931B22A1F57A711C2301920093142217
:103BC000FF232160152106F03BFE322225219E486D
:103BD0000DF0C0FD322224219C480DF0BBFD2322B4
:103BE00022219B48FEF7E8FC3222262199480DF05D
:103BF000B1FD32221D2198480DF0ACFD1F221E217F
:103C00009648FEF7D9FC964B964993F90030964AB0
:103C100096480B7012685942017000239449C9F804
:103C2000001089F80930C9F8103089F80830C9F84F
:103C30000C300AB9A8E21A465369002BFBD1C2F82E
:103C400014900024DFF884B28A4B8B48C9F81440E2
:103C5000A9F80440A9F8064089F80A40C9F80030DC
:103C600005F010FB0BF1180201215846FEF77AFC13
:103C7000824B83488BF8F440224621468BF8F5406E
:103C8000CBF8F0408BF8F640CBF80030FEF76AFC3A
:103C90007B4A7C4B13607C4A794E7C4D18324FF442
:103CA0008043A2F1180002213362FEF75BFC764AE2
:103CB000774B1360012005F224726D4E2C7223465F
:103CC0002146EC602E6068722A612C4600E0226971
:103CD00042F823106A7A6D4801339A42F7DC624B4E
:103CE0001A680AB954E21A465369002BFBD1556190
:103CF000002468492960224601234FF48071664EF2
:103D000066486C61AC80EC80AC7285F8214785F820
:103D10002247C5F8186110F0DDFE534BDFF88881AB
:103D20001A685349C5F81C41082385F8203788F8DC
:103D30000940C8F80010C8F8104088F80840C8F8D2
:103D40000C40494B0AB925E21A465369002BFBD1B6
:103D5000C2F814804FF0000A514B5248C8F814A022
:103D6000A8F804A0A8F806A088F80AA0C8F80030AF
:103D700002F0A0FD4C484D4C4D4F4E4E05F030FD2D
:103D80002A4A4D49484810F081FF4C4B012103F16C
:103D900018021846FEF7E6FB484A494B1360494BA8
:103DA000042103F128021846FEF7DCFB464B03F121
:103DB00028021846434B04211C604FF480349C6158
:103DC000DC611C625C62FEF7CDFB3F4B374C1C6034
:103DD00007F128024FF48034042138469C61DC61ED
:103DE0001C625C62FEF7BEFB3049BC61022006F13A
:103DF0001802FC613C627C621D4C396034605346A1
:103E0000514686F808A0C6F80CA07072326134469C
:103E10005FE000BF54800440888C0020588004403C
:103E20005C800440B8AB0100D84E00200C3E00205E
:103E3000BD1D0100B8A50220281C02202C8C0020EA
:103E4000F496002034940020209400208019022051
:103E5000F8960020F84E00206C9900202C4F00208E
:103E6000C83E00202C1C022028A5022030940020EF
:103E70005CAA010034B301002899002064B301005A
:103E8000988C002070B30100041A0220C08C00201E
:103E900028B30100F4B0010014B10100E893002040
:103EA00058B30100AC1902209419022040B301005C
:103EB000B49600206C1C02207104000010970020B2
:103EC0001CB30100301C0220B8970020F49700209A
:103ED000226942F82310727AB14801339A42F7DC22
:103EE000B04B1A680AB958E11A465369002BFBD146
:103EF00056610024AC4AAD4B7461B480F480B47256
:103F0000A7483260059305F0F5FB059BDFF8ECA2AE
:103F10001C721846C3F800905F605C72DC601C7411
:103F20000DF07AFD059BA24AA249184610F0AEFE9C
:103F3000A14B059350468AE8000A8AF808408AF89F
:103F40000940CAF80C408AF810400DF065FD984A07
:103F50009849DFF8ACB2504610F098FE059BDFF8A8
:103F6000A4A21C724FF001091846C3F800805F60DC
:103F7000DC601C7483F809900DF04EFD059B8C4AA3
:103F80008C49DFF88482184610F080FE8B4BCBF80A
:103F9000043058468BF80840CBF800708BF8094085
:103FA000CBF80C408BF810400DF036FD804A81496B
:103FB000584610F06BFE824BCAF8043050468AF81F
:103FC0000840CAF800708AF80940CAF80C408AF81C
:103FD00010400DF021FD764A7649DFF830B25046A8
:103FE00010F054FE754B88F80840404688E82800D9
:103FF00088F80940C8F80C4088F810400DF00CFD16
:104000006B4A6C496F4B0593404610F03FFE6E4B78
:10401000DFF8FCA1CBF8043058468BF80840CBF809
:1040200000708BF80940CBF80C408BF810400DF075
:10403000F3FC5F4A5F49DFF8DC81644D584610F0BD
:1040400025FE634BCAF8003050465F4BCAF8043077
:104050008AF808408AF80990CAF80C408AF810409B
:104060000DF0DAFC5349524ADFF8ACB1504610F07B
:104070000DFE059B524A1A601846564A1C725A6039
:1040800083F80990DC601C740DF0C6FC059B484A5F
:104090004849DFF888A1184610F0F8FD4A4BC8F8E7
:1040A000003040464B4BC8F8043088F8084088F888
:1040B0000940C8F80C4088F810400DF0ADFC3D49AF
:1040C0003B4A404610F0E2FD02232846414A6B720B
:1040D0002C722F606A60EC602C740DF09DFC344AE9
:1040E00034493D4F284610F0D1FD3A4B8BF808403B
:1040F00058468BE848008BF80940CBF80C408BF809
:1041000010400DF089FC2A4A2A49344D584610F0D7
:10411000BDFD304B8AF8084050468AE84800CAF88E
:104120000C408AF810408AF809900DF075FC504652
:104130001F4A20492A4C10F0A9FD2A4BDFF8E0C0A5
:104140001B68294ACCF8003003EB430302EB8303DE
:104150002648DFF8D0E02649D3F808C006685B6837
:104160002448CEF800C00A223B600C600A722E6020
:1041700002F0A0FB0E4A20491E4810F087FD0EF009
:10418000FDF80BB0BDE8F08F064BC3F8009058E582
:104190001860ADE5C3F80080DCE51860A9E600BF53
:1041A0006C1C022028A502204CB301000C940020B6
:1041B0000C3E002089040000748C0020301C02207A
:1041C00010970020444F0020041A0220408C002049
:1041D000988C0020B897002020990020288C00207F
:1041E00000B10100AC3E0020E8AA0100C43E00205E
:1041F0005C4F0020909C0220D1680000EC980020C9
:10420000D8190220EC19022058990020144F0020E0
:10421000449900200C9900205C8C0020F893002029
:10422000B0970020F097002030B500EB8004A40088
:104230002D3424B2054683B022460021144809F0EB
:1042400033F9144B1B689D4212D04FF6E0711048B1
:1042500009F046F9104B53F82540204612F010FFA4
:1042600002460B48214603B0BDE830400DF014BDB6
:104270004FF6FF71064809F033F90021142300932B
:1042800022460191F023024806F0C4FDE2E700BF98
:104290003494002000990020103E00202DE9F04FBA
:1042A0002DED028B3F4C404E404F9DB020464FF6C7
:1042B000E07109F015F9282500224FF4004301931D
:1042C000114620460095F023A66106F0A3FD4FF6A7
:1042D000FF7301930095F0232A462046002107F042
:1042E0004BFE3B68012B00F06482022B00F06E82D3
:1042F00014224FF400438DE80C000021F0234FF40A
:104300008C7228482A4DDFF8BC8006F083FD2822F5
:104310004FF448738DE80C000021F0234FF496729F
:10432000204806F077FD002211461E4809F0BCF82F
:10433000012220491B480DF0AFFC95F900101948E7
:104340000DF034FD02221C4916480DF0A5FC98F929
:10435000001014480DF02AFD3A68022A00F040824D
:10436000022216490F48DFF860900DF095FC144BBF
:104370001C68204612F084FE2146024609480DF0D2
:104380008BFC14220021074809F08EF8D9F8003080
:10439000042B00F20882DFE813F035013B014101F4
:1043A0004701190034940020FCD80100B43E0020DD
:1043B000C03E0020D8AB0100DCAB0100E4AB010043
:1043C00020990020443E0020EC9600200422BD49A4
:1043D000BD480DF061FCBC4C14222046B42109F00C
:1043E00063F8BA4B0AA8196809F07EF820464FF620
:1043F000E07109F075F80B9A0C9B00920921B44A00
:1044000004A812F0E1FC04A812F03AFE04A9024646
:1044100020460DF041FC3B68032B00F0F1814FF486
:1044200096720021A84809F03FF83B68032B00F082
:104430002C81A84CA84E2368A348012B0CBF4DF239
:104440009A614FF6E07109F04BF83368052B03D100
:104450002268012A00F06C83DFF8C8A25AF82340D2
:10446000204612F00DFE2146024697480DF014FC3E
:1044700001229A4994480DF00FFC4FF6FF719248C3
:10448000954C09F02DF83368012B00F0B082022B17
:1044900000F0D080002B00F0DC80032B00F0F282D3
:1044A0008F4B904C1B688848012B0CBF4DF29A61D2
:1044B0004FF6E07109F014F823685AF82300FEF76C
:1044C000FDFEC0F1F00109B24FF496727E4808F08B
:1044D000EBFF23685AF82340204612F0D1FD214615
:1044E000024679480DF0D8FB3B68032B00F0CE80E4
:1044F0004FF48C720021744808F0D6FF4FF6E0713B
:10450000714808F0EDFF3368042B00F00F81764C02
:104510002378002B00F02681012B00F02C81022B48
:10452000724C00F037814FF6E071674808F0D8FF11
:104530006F4B22786F491C786F4B052C0CBF1C46C3
:104540000C46002A00F08C803B68032B55D0002BD2
:1045500040F33E82DFF8D0A1684DDAF80020DFF8A2
:10456000B4B19FED677ADBF80010002A1346B8BF9C
:1045700002F1FF031B1207EE903A91FBF3F185FB6A
:104580000205D217FAEEEF7AC2EB6535012D87EE00
:10459000278A4FEA41081DDD01244FF6E076009698
:1045A00005235522484807EE904AF8EEE77A013491
:1045B00067EE887AFDEEE77ACDED037ABDF90C104F
:1045C00006F09EFAA542EAD1DAF80030002BB8BF17
:1045D000FF331B12D9F80020022A00F081824FF627
:1045E000E0730093572203230FFA88F1364807F04F
:1045F00097FC3B68012B00F056821DB0BDEC028B8E
:10460000BDE8F08F02223F492F480DF045FBE2E65E
:1046100007223D492C480DF03FFBDCE607223B49D1
:1046200029480DF039FBD6E60622394926480DF017
:1046300033FBD0E6374B38491B68234881FB032105
:10464000DB17C3EBA1110DF0B1FB3368002B7FF436
:1046500024AF95F900101C480DF0A8FB33681CE747
:104660002146194808F0BAFEC0F1EB0109B24FF437
:104670008C72154808F018FF204612F001FD214603
:10468000024611480DF008FB5EE7134E0E484DF24E
:104690009A6108F025FF062220490B480DF0FCFA2C
:1046A0001F48FEF70BFEC0F1F00109B24FF49672FD
:1046B000054808F0F9FE0B22194903480DF0ECFA01
:1046C00016E700BF04AC01003494002000D0034082
:1046D00014AC0100B49C02200899002048AD0100F0
:1046E000F0960020F04E0020084F00209019022084
:1046F000703E0020C8AB0100D0AB0100AD8BDB6881
:1047000000401C46E8AB0100F4AB0100FCAB01002B
:10471000ECAB0100C43E0020D34D621070AC010030
:1047200078AC0100503E0020F0970020B34B1B688E
:10473000012B7FF4ECAEB24CB2484FF6FF7108F09B
:10474000CFFE2378002B00F01282012B00F016829E
:10475000022BAD4C7FF4E7AEAC49AA4804220DF021
:104760009BFAE0E60722AA49A6480DF095FA2378BD
:10477000012B7FF4D4AEA74B1B78002B00F02181D6
:104780000622A5499F480DF087FA23789E4C022BFC
:104790007FF4C9AE2378002BDED004229F499948CC
:1047A0000DF07AFABFE605229D4996480DF074FA9D
:1047B00011E600211E2300932046F02301913C22A4
:1047C00006F028FB3B68022B7FF492AD0021062304
:1047D00000930191F02354228A4806F01BFB87E5E1
:1047E000904988480DF058FA8F4B90491B688548CE
:1047F00081FB0321DB17C3EBA1110DF0D7FAAFE565
:104800002D220021204608F04FFE4FF6E071204691
:1048100008F066FE864AA6611368002BC0F2A581E7
:104820000B2BA8BF002303201360FFF7FDFC814B77
:10483000744893F90030804C804E012B07BF0A2248
:104840007F4980490C220DF027FA6E480DF05EFA80
:104850000420FFF7E9FC7C4B6A4893F900100DF047
:10486000A5FA68480DF052FA0520FFF7DDFC774BFA
:10487000644893F900100DF099FA62480DF046FA79
:104880000620FFF7D1FC724B1B6803EB430304EBDC
:104890008303D3F804A0504612F0F2FB51460246BF
:1048A00058480DF0F9F957480DF030FA0720FFF796
:1048B000BBFC684B1B6803EB430304EB8303D3F897
:1048C00004A0504612F0DCFB514602464D480DF064
:1048D000E3F94C480DF01AFA0820FFF7A5FC5E4BEF
:1048E0001B6803EB430304EB83046468204612F067
:1048F000C7FB2146024643480DF0CEF941480DF072
:1049000005FA0020FFF790FC544A554B126853F803
:104910002240204612F0B4FB2146024639480DF0F1
:10492000BBF90120FFF780FC4E4A4F4B126853F849
:104930002240204612F0A4FB2146024631480DF0E9
:10494000ABF90920FFF770FC316813A808F0CCFD23
:1049500013A90EC907A8019100920921434A12F038
:1049600033FA07A812F08CFB07A9024625480DF080
:1049700093F90A20FFF758FC316813A808F0B4FD3A
:1049800016A90EC907A803F2B2730191009209217A
:10499000374A12F019FA07A812F072FB07A902466B
:1049A00018480DF079F90220FFF73EFC314B1B68E7
:1049B000002B40F0B78008222F4912480DF06CF907
:1049C0002DE507222D490F480DF066F92378A6E55D
:1049D000552200210B4808F067FD092228490948A3
:1049E0000DF05AF91DB0BDEC028BBDE8F08F98F9BF
:1049F000001004480DF0DAF9236848E5B49C022061
:104A0000241C0220349400209019022094AC010050
:104A100084AC0100404F00209CAC0100ACAC010014
:104A20000CAC0100E0AB0100C43E0020D34D62108D
:104A300000990020C83E0020E8AA010000D00340F1
:104A400020AC01002CAC0100D03E0020713E0020C3
:104A5000AC3E0020BC3E0020A83E0020CC3E002002
:104A6000803E0020681C0220943E00203CAC0100E7
:104A70004CAC0100403E00205CAC0100A4AC010045
:104A8000B4AC0100414B424A1B6803EB430302EB09
:104A900083035C68204612F0F3FA214602463D4843
:104AA0000DF0FAF8FCE4DBF800103B4B3B4A83FBCB
:104AB0000103C917C1EBA31313A8092112F084F94C
:104AC000A8F10A0109B23C22324808F0EDFC13A813
:104AD00012F0D6FA13A902462E480DF0DDF88CE547
:104AE0002F4A304D92F9001095FBF3F54FF47A728E
:104AF00002FB01F292FBF3F3ED1A6D005B001CB2B6
:104B00002DB24FF6FF762B462146009655222148BE
:104B100006F006F82B462146009659221D4805F05E
:104B2000FFFF5CE5062220491A480DF0B5F876E44F
:104B30001E4B1F4A1B68DFF888A003EB430403EBFE
:104B40008403D41820462E2112F0B2F9021B21460C
:104B50000132184812F072FA164812F091FA15490B
:104B600002460C480DF098F887E40A235BE607221A
:104B7000114908480DF090F82378E6E507220F491F
:104B800004480DF089F82378E2E500BFAC3E002030
:104B9000E8AA010034940020D34D621054AC010007
:104BA000D03E00208038010068AC0100001A0220CD
:104BB00068510020308C002084AC01008CAC0100D6
:104BC000503E0020074B10B5012401461C600648EA
:104BD00003F0AEFF054B1C60FFF760FB044B0022A7
:104BE0001A6010BD88E100E05C4F002008E100E0A1
:104BF000AC970020F0B58FB001A8FEF7C7FE0446C1
:104C000098B138490A9A384BBDF806709DF8306063
:104C10009DF831509DF832000F80012A9DF8331025
:104C20001E705D709870D97002D020460FB0F0BD34
:104C30002E4E2F49049F37602E482F4B039D2F4E39
:104C4000069F0F600299026019603560002D2FD019
:104C5000022D40D0012D35D00021294806F098FAC8
:104C600031682748274E0DF0A1F8274A9DF91D000D
:104C70002649274B9DF825509DF824701070089AFE
:104C80000D701A603770FEF733FB9DF91C30214A16
:104C9000214D13701846FFF795FF0B9B1F482049C5
:104CA0005AB25B42037020462A700A700FB0F0BD02
:104CB0002946134806F0A2FC2946114806F076FA68
:104CC0003568C5E700210E4806F098FC00210C4825
:104CD00006F06CFAC0E70021094806F067FA35686B
:104CE000B8E700BF588C00200C4F0020A83E0020E1
:104CF000AC3E0020403E0020EC960020B43E002058
:104D000034940020713E0020C03E0020D03E0020A0
:104D1000C43E0020443E0020C83E002030940020C5
:104D20002C1C0220274B9FED286A93ED007ADFEDC3
:104D3000276AB8EEC77A07EE900AC6EE075AF8EE71
:104D4000E77A67EEA57AF4EEE67AF1EE10FA19DC6E
:104D50001F4A204BC2ED007AF5EEC07A0122F1EE37
:104D600010FA1A602BD49FED1C7AF4EEC77AF1EE9C
:104D700010FA1BDD194B1A491A4A01200860D36149
:104D8000FFF78CBAC7EE065A114B1748114A01219A
:104D9000F2EE027AE5EEA67AC3ED006AFDEEE77A5E
:104DA00017EE903AF0EE667A036011609FED0F7A8D
:104DB00067EE877AFCEEE77A17EE903ADBE700239E
:104DC000D9E700BFF0970020A6552C4700E0AB467E
:104DD000483E002088E100E0A655AC4680FFFF7FFA
:104DE00008E100E0988C0020C43E00204B24BE4720
:104DF0002DE9F04F2DED048BB34AB44B92F900200E
:104E00001B689FEDB36ADFEDB36A07EE102A002B33
:104E1000B8BFFF33F8EEC77A1B1227EE867A07EE8B
:104E2000903AF8EEE77AADF5097D87EE278A10AC67
:104E30004FF4F07220460021C6EEA78A11F068FDFB
:104E4000A54B1A680132012A04921A60BDEEC88A85
:104E5000FDEEE88A00F01881049B632B40F21C8170
:104E6000DFF8C082DFF8B8929FED9C6A0026C44646
:104E7000B346B64627464FF4807A0225F2EE046A1E
:104E80000FE0042AD8BF4FF4006323DC0135782DEE
:104E900024F8163007F1040727F8023C06F1020651
:104EA0002CD03CF8023FB9EC017A03EB83035B00A2
:104EB00007EE903AF8EEE77AE7EE467A77EEA67AD2
:104EC000FDEEE77A17EE902A52459644D9DD17EEAB
:104ED00090AAAB465300FF2BA8BFFF23B2F5407F3B
:104EE000C0F2D482B2F5106FC0F291821B0203F4BB
:104EF00078436FEAD3236FEAC323C7E7784B9FED6C
:104F0000797A83FB0E234FEAEE7ECEEB23139AFBD6
:104F1000F3F307EE903AF8EEE77A18EE103AF4EE73
:104F2000477AF1EE10FA48BF4FF0000B5B4504DA08
:104F300018EE903A5B4500F3FB806B4B1D68012D2A
:104F40004FF0000A00F02081022D00F02B8118EEB6
:104F5000103A5B45654D4EDA18EE903A5B454ADDF6
:104F60002B78002B40F0AE81614EDFF8C0813368B2
:104F70000F93604B0F9A1A60D8F80030012B00F0A5
:104F800098815D4E022B337840F09E81002B00F01B
:104F90009B815A4804F084F84FF48041574804F04C
:104FA0004DF8574BDFED576A93F9003007EE903A12
:104FB000F8EEE77AB7EE006A86EE277AB4EEE67A84
:104FC000F1EE10FA00F11D82F2EE007AB4EEE77A0B
:104FD000F1EE10FA00F31882DFED4B6ADFED4B7A49
:104FE000E7EE267AFCEEE77A17EE902A4349002393
:104FF0000A62337068E12B786BB13D4A3D49136812
:105000000B930B9B096812680C924148414A0C9E15
:1050100006605B1A1380384E002233782A7043B939
:10502000334A344912680A9209680A9A521A322A93
:1050300009D82D4B1B68022B0FD00DF5097DBDEC57
:10504000048BBDE8F08F2D4A2B70012382F842308B
:105050003370254B1B68022BEFD1254B2C4A1B6864
:1050600009931268099B2C4D9B1A312B40F23F810A
:105070002B68B3F58C7FE0DB5A232B600DF5097D9F
:10508000BDEC048BBDE8F08F244B002103F50072CA
:1050900043F8041B9A42FBD1214A2249DFED226AE0
:1050A00002F5FC7031F8023F92ED007A03EB8303C6
:1050B0005B0007EE903AF8EEE77AA7EEA67AA2EC4C
:1050C000017A8242EED1CBE6D03E0020F09700205C
:1050D00000007A4400409C47249900206666663FA1
:1050E000BF3CB6226666863FB43E00200C97002087
:1050F000B8A50220281C0220B03E002010970020F6
:10510000713E00200AD7233C00008047EE7CFF3E22
:105110002C8C0020584F00203C3E0020684F00207F
:10512000704F0020DA8C00206F12833AEC9600203A
:10513000C34BC44A03930021D3ED006A8A4602237D
:1051400038F8020F92ED007A07EE900AF8EEE77A4F
:1051500077EE877AF4EEE67AF1EE10FAE2EC017A75
:1051600003DDF0EE676A9A4601210133782BE7D11F
:10517000002940F0A281B44A138801331380B34B55
:105180001D68012D7FF4E0AEB14B1B68022B00F0CF
:10519000A080049BDB073FF5DAAEFEF70BF9AB4BC3
:1051A0001D68D1E6A84F3B88322B7FF6D0AE002693
:1051B0002D230196009331463E80A64EA6483668C0
:1051C0000696F023282205F025FE9D4BBAF1000F2C
:1051D00000F09F801A4692ED007A03939F4BDFED1B
:1051E000A05AF7EE007A03EB8A0377EE277A1A1DAE
:1051F000514632ED016AC6EE276AF4EEE56AF1EE39
:1052000010FA02DD01390229F3D1DFED955A04913C
:105210005246B3EC016AC6EE276AF4EEE56AF1EE97
:1052200010FA54DD0132782AF3D100230593DFF818
:105230001492DFED8C9A9FED8C9ACDF81CB000266D
:10524000022702E0039B93ED007AD9ED006A8248C1
:10525000C6EE877A4FF478430FFA86FB00935946DF
:1052600067EEA97AFDEEE77A17EE905AC5F1550878
:105270000FFA88F82DB242462B4605F041FCBA459C
:1052800007F1010700F0D2800236782FB6B2A9EC00
:10529000019AD7D1DDF81CB0BAF1000F5ED1039AA4
:1052A000D2ED007AB6EE007A67EE877AC2ED007A28
:1052B0004DE633686D4F0E930E9A3B68D31AB3F5E3
:1052C0007A7F2DD86A4E337801222A70A7E605929C
:1052D000ADE75D4A674B1288A3FB02139B0803EB03
:1052E0008303D31A9BB2002B7FF431AE55E70194B0
:1052F0000123B5F90020584800930021F02306F05F
:105300001FFA2988544806F079F92B6801332B607D
:10531000AFE60393049593ED007ACDF814A086E7E9
:105320004C4B554A1B68002BB8BFFF331B120BFBBD
:1053300003F382FB0312DB17C3EB62134FF4FA7221
:1053400002FB03F34D4A18461360FFF7EBFC33688A
:105350000D930D9AD8F800303A6012E6069B9FED47
:10536000489A3D48002BB8BFFF331B1207EE903A16
:10537000F8EEE77A2D22962127EE899A08F094F824
:105380004DF29A61344808F0ABF8DDED047A32480A
:10539000F8EEE77A67EE897AFDEEE77A17EE901A73
:1053A0000CF004FD012237492B480CF075FC4FF638
:1053B000E071294808F094F807EE90AAF8EEE77A31
:1053C000254867EE897AFDEEE77A17EE901A0CF021
:1053D000EDFC01222B4920480CF05EFC4DF29A6155
:1053E0001D4808F07DF8DDED057A1B48F8EEE77AF8
:1053F00067EE897AFDEEE77A17EE901A0CF0D6FC8C
:105400004DE740F28F22F1E54FF40022EEE51E4910
:1054100081FB0210D217C2EB60021B02D21003F410
:10542000784342F4FC6213439BB22FE54FF6E070E1
:1054300000902B4642465946074805F061FB23E79A
:10544000AC9700202C1A0220F44E0020B43E00201D
:10545000EC960020F097002034940020241A0220BB
:10546000CDCCCC3D0000344200000000F49600207A
:10547000B03E0020CDCCCCCCD34D6210C43E002039
:105480006F12833A48AD0100398EE3380D491B0293
:1054900003930D4B81FB0210D117401A83FB02329C
:1054A000039BC00003F4784300F4FC60C1EB62028C
:1054B0000343C2F3C4021343E8E4039BC3ED006A51
:1054C00059E600BF56555555398EE33838B5104B5F
:1054D0001049114A114D00EB400003EB80030124F9
:1054E00098685B680B6028601460FDF729FFC8208E
:1054F0000DF036FA0A4B1868FFF714FC094B14201C
:105500001C600DF02DFABDE83840FEF7C7BE00BFA5
:10551000E8AA01002099002088E100E0F09700202F
:10552000C43E002008E100E008B50B48FEF7FCF996
:105530000A4B1868FFF7CAFF0021094805F028FE4A
:105540000849094A094B096811604FF480329A6191
:10555000BDE80840FDF7BABFF4970020B0970020DF
:1055600034940020B09C0220EC960020301C0220D5
:10557000214B224A1B680121062B10B504461170ED
:105580002BD064200DF0ECF91D4A1E4B12681A60F6
:10559000002C2FDB0E2CA8BF002420461A4CFFF74E
:1055A00095FF1A4B22681B68002A03F1FF3303DBC7
:1055B0009A42D4BF1346002303EB430214492360ED
:1055C00003EB8203194413480D2211F0C7FD114962
:1055D0001148BDE8104004F031B9104A104B106872
:1055E0004FF480310022022899611A6204BFD96108
:1055F0009A61C6E70D24D0E708990020901902208F
:10560000AC3E0020B0970020001A022058970020DE
:10561000685100205C97002094190220EC9600202D
:10562000B897002008B5064804F0E0F8054A064B94
:10563000106800221A70BDE80840FFF747BF00BF9E
:1056400094190220B09700209019022008B50A4B47
:105650001B781BB1094B93F8403003B108BDFFF72D
:10566000E1FF074B1B78002BF8D0064B1868BDE80C
:105670000840FFF77DBF00BF901902209419022057
:10568000B0960020A83E00202DE9F04186B0D0B9A8
:10569000974A9849984B12680C6819680823EAB928
:1056A000964A12782144002A31D0002903F1FF33B1
:1056B00070DB9942C8BF0021002832D18E4B19609F
:1056C00006B0BDE8F0810128FAD18D4A8D498E4B94
:1056D00012680C6819680423002AE1D0012AEFD16E
:1056E000002CEDD021BB894A13781C4464B2002CF5
:1056F000C0F286805A2C6ADD0C46854B147001245A
:105700001C60844803F084FA834B1C6020E04A1F2D
:10571000012ACAD8012C6DD0013408BF0421013BF5
:10572000C7E70128CCD1784B196006B0BDE8F081FD
:10573000032931D1794D2B68E4185DD40E2CA8BF14
:10574000002420462C60FFF7C1FE754B2A681A60C2
:10575000694B1B68052BB3D1654B1B68012B52D0DD
:10576000694B1B68032BABD1654B1B68012BA7D181
:105770006C4B1B78022BA3D16B4A624913680968F2
:105780005B1851D4062BA8BF002318461360FFF7FF
:105790009DFE95E719468FE7012947D1634A1378A3
:1057A00023445BB2002B29DB402BA8BF0023184603
:1057B0001370FFF707FA5E4A5E4B0020106000216D
:1057C00003F5007243F8041B9342FBD1C0E707EED8
:1057D000904A9FED596ADFED596AB8EEE77ADFED3E
:1057E000587A27EE067AE7EE267AFCEEE77A17EE8D
:1057F000901A82E7072192E70D24A2E73F23D6E71C
:1058000074215A2479E74F4B4F493A481A68006887
:105810000B681B1802F1FF3204D49342C8BF002367
:105820000B609DE71346FBE70523AEE702293AD15B
:10583000464E474D33680193019B2A689B1AB3F586
:10584000FA7F2BD2F92B00F26D81642B41F2883361
:1058500028BF4FF4FA633F4A3F4F12683F48396808
:1058600080FB02E0D24303FB0414D20F41F657330E
:10587000C2EBE0129C424FF47A7000FB02F210DDA2
:1058800041F658339442C8BF1C4620463C60FFF79F
:1058900049FA33680493049B2B6059E74FF4FA7379
:1058A000D9E71446F1E704290FD1144B1B78DBB17B
:1058B0002B492C4A0B780133DBB2A2FB03025208BE
:1058C00002EB42029B1A0B7042E707297FF440AFBC
:1058D00000284BD1244E3368E41800F186800B2C4D
:1058E000A8BF0024346033E71D4A137030E700BFBF
:1058F000B49C02200499002008990020414F002008
:10590000F0960020E84E0020F04E0020C03E00201F
:1059100088E100E05C4F002008E100E0AC3E0020A0
:10592000B0970020084F0020A83E0020443E0020F1
:1059300024990020684F00200AD7233C000001432F
:10594000EE7CFF3E58970020001A0220B8A50220E6
:10595000548C0020F0970020C43E0020D34D6210EC
:10596000241C0220ABAAAAAA0099002001287FF4D7
:10597000EFAE6E4E3368032B43D0042B37D0052B8C
:105980004ED16B4A137823445BB2042B46DD1F2BA8
:10599000A8BF0523137033680A2B7FF4D9AE654B7B
:1059A000654D1B680393039E2B68F31AB3F5FA7FCA
:1059B00007D2F92B00F2B480632B8CBF04EB4404B4
:1059C000A40004F0C9FA5D4B04A903FB040004F031
:1059D0006DF904A804F042FA0CF096FF04A804F054
:1059E0003DFA04F009FB2E60B2E60A247AE7544A35
:1059F000137823445BB20E2B0EDD242BA8BF0F239C
:105A0000C8E7504A504892F90030504903705B4251
:105A10005BB213700B70BEE72323BBE71E23B9E70D
:105A2000062B0ED14A4D2B68E31816D40E2BA8BFB7
:105A3000002318462B60FFF749FD464A2968336862
:105A4000116063B9444A1368E31804D4042BA8BF57
:105A5000002313609FE70323FBE70D23E9E7012BF6
:105A600009D13E4A1368E31803D4052BA8BF0023CD
:105A7000EFE70423EDE7022B09D1394A1368E31855
:105A800003D4022BA8BF0023E3E70123E1E7082B9F
:105A900009D1344A1368E31803D4062BA8BF0023A6
:105AA000D7E70523D5E7072B0AD12F4A13682344EC
:105AB000042B03DD0E2BA8BF0523CAE70D23C8E77F
:105AC000092B7FF468AF1B4B1B4D1B680293DDF85D
:105AD00008802B68C3EB0803B3F5FA7F1BD2F92BC0
