:1000000000000320D1010000490B0100010B010099
:10001000010B0100010B0100010B0100010B0100AC
:10002000010B0100010B0100010B0100490B010054
:10003000490B0100010B01003D200100412101009D
:10004000490B0100490B0100490B0100490B01005C
:10005000490B0100490B0100490B0100490B01004C
:10006000490B0100490B0100490B0100490B01003C
:10007000490B0100490B0100490B0100490B01002C
:10008000490B0100490B0100490B0100490B01001C
:10009000490B0100490B0100490B0100490B01000C
:1000A0009D3B0100A93B0100490B0100490B0100E8
:1000B000490B0100490B0100490B010069220100B5
:1000C000490B010095230100490B0100C1240100E7
:1000D000490B0100B9250100490B0100490B010042
:1000E000490B0100490B0100490B0100490B0100BC
:1000F000490B0100490B0100490B0100490B0100AC
:10010000490B0100490B0100490B0100490B01009B
:10011000490B0100D5110100490B0100490B0100F9
:10012000490B0100490B0100490B0100490B01007B
:10013000490B0100490B0100490B0100490B01006B
:10014000E9040100490B0100B1260100490B01003F
:10015000490B0100490B0100490B0100490B01004B
:10016000490B0100490B0100B53B0100490B01009F
:10017000490B0100490B0100490B0100490B01002B
:10018000490B0100490B0100490B0100490B01001B
:10019000490B0100490B0100A9270100490B01008F
:1001A000490B0100490B0100490B0100490B0100FB
:1001B000490B0100490B0100490B0100490B0100EB
:1001C000490B0100490B0100490B0100490B0100DB
:1001D0005C4B4CF2205210B51A804DF628121A8052
:1001E00000BF00BF10F0B4FC574B4FF030621A60F4
:1001F000564A9A60564ADA60564B4FF470021A60BB
:10020000554B564A1A60564A136813F4807304D14A
:1002100054490B604FF4A8531360534B1A781107DD
:1002200003D51A7842F008021A70504B5049AA229E
:100230001A70504A504B8B4204D252F8040F43F8C4
:10024000040BF8E74D4B4E4900228B4202D243F893
:10025000042BFAE74B494C4A002352F8230041F89B
:1002600023000133742BF8D1484B494A802103F80D
:10027000011B9342FBD1474B424A1A60464B8A22EC
:100280001A70A3F5805324225A70A0221A709A790A
:100290009207FCD59A79D406FCD4404A937903F0AE
:1002A0000C03082BFAD13E4B60221A7002331A78E5
:1002B000802AFCD1394B01221A715D225A719A7938
:1002C0009006FCD59979354A4906FBD5354B364918
:1002D00019600021596020231370937903F00C03F7
:1002E0000C2BFAD1314B324A1A60324B324A1A6027
:1002F00000225A60072243F8042C304AC3F80C2D20
:1003000062B610F00BFE174B1B68DA0705D52C48B8
:1003100010F086FD2B4B2C4A1A602C4B1B785B0689
:1003200009D5284C284B22689A4204D1244810F061
:1003300077FD0023236014F043FA10F00FFC10F057
:100340003DFBFEE70E20054030800440823F040064
:100350000100002B88ED00E0002008E0030000858C
:1003600010D0034014D0034002D0074000E0074003
:10037000204C00203CCF0200303D0020204C0020CB
:1003800068790220003800200000000000E400E04E
:1003900064E400E008ED00E0005006400040064044
:1003A00001E007404480044000000602048004404D
:1003B000C010070014E000E01FBF02000000202072
:1003C000BC5D3D5D1CE00340A5C3945A00F00740AE
:1003D000FFFFFFFFFFFFFFFFFFFFFFFFFFFFFFFF2D
:1003E000FFFFFFFFFFFFFFFFFFFFFFFFFFFFFFFF1D
:1003F000FFFFFFFFFFFFFFFFFFFFFFFFFFFFFFFF0D
:10040000FFFFFFFFFFFFFFFFFFFFFFFFDEF9FFFF23
:1004100010B5054C237833B9044B13B10448AFF33E
:1004200000800123237010BD204C0020000000003C
:1004300038CF0200084B10B51BB108490848AFF38C
:1004400000800848036803B910BD074B002BFBD0A0
:10045000BDE81040184700BF00000000244C0020F9
:1004600038CF0200204C00200000000010F0D2BC69
:1004700010B5044B044640F8183B08F077FC2046C2
:1004800010BD00BFD49B010010B504460FF0E4FF7F
:10049000204610BD214B10B4D3F8A4201368506837
:1004A00019780478507A137A044201EA03011BD0C8
:1004B000937A03F0030309B143F0040343F0080304
:1004C0009910013B91720D2B0BD8DFE803F0210747
:1004D0001B070A152121150A071B0721D368013BB9
:1004E000D3605DF8044B7047937A03F0030300294F
:1004F000E6D043F00403E3E7D3685DF8044B023B26
:10050000D3607047D3685DF8044B0233D360704703
:10051000D3685DF8044B0133D3607047FC6B022055
:10052000214B10B4D3F8A8201368506819780478C8
:10053000507A137A044201EA03011BD0937A03F044
:10054000030309B143F0040343F008039910013B8E
:1005500091720D2B0BD8DFE803F021071B070A155A
:100560002121150A071B0721D368013BD3605DF8E1
:10057000044B7047937A03F003030029E6D043F05D
:100580000403E3E7D3685DF8044B023BD360704794
:10059000D3685DF8044B0233D3607047D3685DF8CD
:1005A000044B0133D3607047FC6B0220214B10B425
:1005B000D3F8AC201368506819780478507A137A0D
:1005C000044201EA03011BD0937A03F0030309B14B
:1005D00043F0040343F008039910013B91720D2B83
:1005E0000BD8DFE803F021071B070A152121150AA4
:1005F000071B0721D368013BD3605DF8044B7047AC
:10060000937A03F003030029E6D043F00403E3E701
:10061000D3685DF8044B023BD3607047D3685DF844
:10062000044B0233D3607047D3685DF8044B013349
:10063000D3607047FC6B0220214B10B4D3F8B0207C
:100640001368506819780478507A137A044201EAE2
:1006500003011BD0937A03F0030309B143F00403B1
:1006600043F008039910013B91720D2B0BD8DFE882
:1006700003F021071B070A152121150A071B072173
:10068000D368013BD3605DF8044B7047937A03F065
:1006900003030029E6D043F00403E3E7D3685DF8E1
:1006A000044B023BD3607047D3685DF8044B0233C0
:1006B000D3607047D3685DF8044B0133D360704753
:1006C000FC6B0220214B10B4D3F8B420136850689F
:1006D00019780478507A137A044201EA03011BD096
:1006E000937A03F0030309B143F0040343F00803D2
:1006F0009910013B91720D2B0BD8DFE803F0210715
:100700001B070A152121150A071B0721D368013B86
:10071000D3605DF8044B7047937A03F0030300291C
:10072000E6D043F00403E3E7D3685DF8044B023BF3
:10073000D3607047D3685DF8044B0233D3607047D1
:10074000D3685DF8044B0133D3607047FC6B022023
:10075000214B10B4D3F8B820136850681978047886
:10076000507A137A044201EA03011BD0937A03F012
:10077000030309B143F0040343F008039910013B5C
:1007800091720D2B0BD8DFE803F021071B070A1528
:100790002121150A071B0721D368013BD3605DF8AF
:1007A000044B7047937A03F003030029E6D043F02B
:1007B0000403E3E7D3685DF8044B023BD360704762
:1007C000D3685DF8044B0233D3607047D3685DF89B
:1007D000044B0133D3607047FC6B0220214B10B4F3
:1007E000D3F8BC201368506819780478507A137ACB
:1007F000044201EA03011BD0937A03F0030309B119
:1008000043F0040343F008039910013B91720D2B50
:100810000BD8DFE803F021071B070A152121150A71
:10082000071B0721D368013BD3605DF8044B704779
:10083000937A03F003030029E6D043F00403E3E7CF
:10084000D3685DF8044B023BD3607047D3685DF812
:10085000044B0233D3607047D3685DF8044B013317
:10086000D3607047FC6B0220214B10B4D3F8C0203A
:100870001368506819780478507A137A044201EAB0
:1008800003011BD0937A03F0030309B143F004037F
:1008900043F008039910013B91720D2B0BD8DFE850
:1008A00003F021071B070A152121150A071B072141
:1008B000D368013BD3605DF8044B7047937A03F033
:1008C00003030029E6D043F00403E3E7D3685DF8AF
:1008D000044B023BD3607047D3685DF8044B02338E
:1008E000D3607047D3685DF8044B0133D360704721
:1008F000FC6B0220214B10B4D3F8C420136850685D
:1009000019780478507A137A044201EA03011BD063
:10091000937A03F0030309B143F0040343F008039F
:100920009910013B91720D2B0BD8DFE803F02107E2
:100930001B070A152121150A071B0721D368013B54
:10094000D3605DF8044B7047937A03F003030029EA
:10095000E6D043F00403E3E7D3685DF8044B023BC1
:10096000D3607047D3685DF8044B0233D36070479F
:10097000D3685DF8044B0133D3607047FC6B0220F1
:10098000214B10B4D3F8C820136850681978047844
:10099000507A137A044201EA03011BD0937A03F0E0
:1009A000030309B143F0040343F008039910013B2A
:1009B00091720D2B0BD8DFE803F021071B070A15F6
:1009C0002121150A071B0721D368013BD3605DF87D
:1009D000044B7047937A03F003030029E6D043F0F9
:1009E0000403E3E7D3685DF8044B023BD360704730
:1009F000D3685DF8044B0233D3607047D3685DF869
:100A0000044B0133D3607047FC6B0220214B10B4C0
:100A1000D3F8CC201368506819780478507A137A88
:100A2000044201EA03011BD0937A03F0030309B1E6
:100A300043F0040343F008039910013B91720D2B1E
:100A40000BD8DFE803F021071B070A152121150A3F
:100A5000071B0721D368013BD3605DF8044B704747
:100A6000937A03F003030029E6D043F00403E3E79D
:100A7000D3685DF8044B023BD3607047D3685DF8E0
:100A8000044B0233D3607047D3685DF8044B0133E5
:100A9000D3607047FC6B0220214B10B4D3F8D020F8
:100AA0001368506819780478507A137A044201EA7E
:100AB00003011BD0937A03F0030309B143F004034D
:100AC00043F008039910013B91720D2B0BD8DFE81E
:100AD00003F021071B070A152121150A071B07210F
:100AE000D368013BD3605DF8044B7047937A03F001
:100AF00003030029E6D043F00403E3E7D3685DF87D
:100B0000044B023BD3607047D3685DF8044B02335B
:100B1000D3607047D3685DF8044B0133D3607047EE
:100B2000FC6B0220214B10B4D3F8D420136850681A
:100B300019780478507A137A044201EA03011BD031
:100B4000937A03F0030309B143F0040343F008036D
:100B50009910013B91720D2B0BD8DFE803F02107B0
:100B60001B070A152121150A071B0721D368013B22
:100B7000D3605DF8044B7047937A03F003030029B8
:100B8000E6D043F00403E3E7D3685DF8044B023B8F
:100B9000D3607047D3685DF8044B0233D36070476D
:100BA000D3685DF8044B0133D3607047FC6B0220BF
:100BB000214B10B4D3F8D820136850681978047802
:100BC000507A137A044201EA03011BD0937A03F0AE
:100BD000030309B143F0040343F008039910013BF8
:100BE00091720D2B0BD8DFE803F021071B070A15C4
:100BF0002121150A071B0721D368013BD3605DF84B
:100C0000044B7047937A03F003030029E6D043F0C6
:100C10000403E3E7D3685DF8044B023BD3607047FD
:100C2000D3685DF8044B0233D3607047D3685DF836
:100C3000044B0133D3607047FC6B0220214B10B48E
:100C4000D3F8DC201368506819780478507A137A46
:100C5000044201EA03011BD0937A03F0030309B1B4
:100C600043F0040343F008039910013B91720D2BEC
:100C70000BD8DFE803F021071B070A152121150A0D
:100C8000071B0721D368013BD3605DF8044B704715
:100C9000937A03F003030029E6D043F00403E3E76B
:100CA000D3685DF8044B023BD3607047D3685DF8AE
:100CB000044B0233D3607047D3685DF8044B0133B3
:100CC000D3607047FC6B0220214B10B4D3F8E020B6
:100CD0001368506819780478507A137A044201EA4C
:100CE00003011BD0937A03F0030309B143F004031B
:100CF00043F008039910013B91720D2B0BD8DFE8EC
:100D000003F021071B070A152121150A071B0721DC
:100D1000D368013BD3605DF8044B7047937A03F0CE
:100D200003030029E6D043F00403E3E7D3685DF84A
:100D3000044B023BD3607047D3685DF8044B023329
:100D4000D3607047D3685DF8044B0133D3607047BC
:100D5000FC6B0220214B10B4D3F8EC2013685068D0
:100D600019780478507A137A044201EA03011BD0FF
:100D7000937A03F0030309B143F0040343F008033B
:100D80009910013B91720D2B0BD8DFE803F021077E
:100D90001B070A152121150A071B0721D368013BF0
:100DA000D3605DF8044B7047937A03F00303002986
:100DB000E6D043F00403E3E7D3685DF8044B023B5D
:100DC000D3607047D3685DF8044B0233D36070473B
:100DD000D3685DF8044B0133D3607047FC6B02208D
:100DE000214B10B4D3F8E4201368506819780478C4
:100DF000507A137A044201EA03011BD0937A03F07C
:100E0000030309B143F0040343F008039910013BC5
:100E100091720D2B0BD8DFE803F021071B070A1591
:100E20002121150A071B0721D368013BD3605DF818
:100E3000044B7047937A03F003030029E6D043F094
:100E40000403E3E7D3685DF8044B023BD3607047CB
:100E5000D3685DF8044B0233D3607047D3685DF804
:100E6000044B0133D3607047FC6B0220214B10B45C
:100E7000D3F8E8201368506819780478507A137A08
:100E8000044201EA03011BD0937A03F0030309B182
:100E900043F0040343F008039910013B91720D2BBA
:100EA0000BD8DFE803F021071B070A152121150ADB
:100EB000071B0721D368013BD3605DF8044B7047E3
:100EC000937A03F003030029E6D043F00403E3E739
:100ED000D3685DF8044B023BD3607047D3685DF87C
:100EE000044B0233D3607047D3685DF8044B013381
:100EF000D3607047FC6B0220214B10B41A68136852
:100F0000506819780478507A137A044201EA030190
:100F10001BD0937A03F0030309B143F0040343F0B9
:100F200008039910013B91720D2B0BD8DFE803F0F9
:100F300021071B070A152121150A071B0721D36862
:100F4000013BD3605DF8044B7047937A03F00303D1
:100F50000029E6D043F00403E3E7D3685DF8044BCF
:100F6000023BD3607047D3685DF8044B0233D36013
:100F70007047D3685DF8044B0133D360704700BFFE
:100F8000FC6B0220214B10B45A6813685068197822
:100F90000478507A137A044201EA03011BD0937A51
:100FA00003F0030309B143F0040343F0080399106D
:100FB000013B91720D2B0BD8DFE803F021071B07D3
:100FC0000A152121150A071B0721D368013BD360AD
:100FD0005DF8044B7047937A03F003030029E6D0D1
:100FE00043F00403E3E7D3685DF8044B023BD360AE
:100FF0007047D3685DF8044B0233D3607047D36801
:101000005DF8044B0133D360704700BFFC6B0220D6
:10101000214B10B49A681368506819780478507A94
:10102000137A044201EA03011BD0937A03F003030D
:1010300009B143F0040343F008039910013B917296
:101040000D2B0BD8DFE803F021071B070A15212120
:10105000150A071B0721D368013BD3605DF8044BD9
:101060007047937A03F003030029E6D043F00403AA
:10107000E3E7D3685DF8044B023BD3607047D36865
:101080005DF8044B0233D3607047D3685DF8044BBE
:101090000133D360704700BFFC6B0220214B10B4BA
:1010A000DA681368506819780478507A137A044221
:1010B00001EA03011BD0937A03F0030309B143F063
:1010C000040343F008039910013B91720D2B0BD8D8
:1010D000DFE803F021071B070A152121150A071B6A
:1010E0000721D368013BD3605DF8044B7047937AC6
:1010F00003F003030029E6D043F00403E3E7D368D9
:101100005DF8044B023BD3607047D3685DF8044B35
:101110000233D3607047D3685DF8044B0133D3606A
:10112000704700BFFC6B0220214B10B41A69136892
:10113000506819780478507A137A044201EA03015E
:101140001BD0937A03F0030309B143F0040343F087
:1011500008039910013B91720D2B0BD8DFE803F0C7
:1011600021071B070A152121150A071B0721D36830
:10117000013BD3605DF8044B7047937A03F003039F
:101180000029E6D043F00403E3E7D3685DF8044B9D
:10119000023BD3607047D3685DF8044B0233D360E1
:1011A0007047D3685DF8044B0133D360704700BFCC
:1011B000FC6B0220214B10B45A69136850681978EF
:1011C0000478507A137A044201EA03011BD0937A1F
:1011D00003F0030309B143F0040343F0080399103B
:1011E000013B91720D2B0BD8DFE803F021071B07A1
:1011F0000A152121150A071B0721D368013BD3607B
:101200005DF8044B7047937A03F003030029E6D09E
:1012100043F00403E3E7D3685DF8044B023BD3607B
:101220007047D3685DF8044B0233D3607047D368CE
:101230005DF8044B0133D360704700BFFC6B0220A4
:10124000214B10B49A691368506819780478507A61
:10125000137A044201EA03011BD0937A03F00303DB
:1012600009B143F0040343F008039910013B917264
:101270000D2B0BD8DFE803F021071B070A152121EE
:10128000150A071B0721D368013BD3605DF8044BA7
:101290007047937A03F003030029E6D043F0040378
:1012A000E3E7D3685DF8044B023BD3607047D36833
:1012B0005DF8044B0233D3607047D3685DF8044B8C
:1012C0000133D360704700BFFC6B0220214B10B488
:1012D000DA691368506819780478507A137A0442EE
:1012E00001EA03011BD0937A03F0030309B143F031
:1012F000040343F008039910013B91720D2B0BD8A6
:10130000DFE803F021071B070A152121150A071B37
:101310000721D368013BD3605DF8044B7047937A93
:1013200003F003030029E6D043F00403E3E7D368A6
:101330005DF8044B023BD3607047D3685DF8044B03
:101340000233D3607047D3685DF8044B0133D36038
:10135000704700BFFC6B0220214B10B41A6A13685F
:10136000506819780478507A137A044201EA03012C
:101370001BD0937A03F0030309B143F0040343F055
:1013800008039910013B91720D2B0BD8DFE803F095
:1013900021071B070A152121150A071B0721D368FE
:1013A000013BD3605DF8044B7047937A03F003036D
:1013B0000029E6D043F00403E3E7D3685DF8044B6B
:1013C000023BD3607047D3685DF8044B0233D360AF
:1013D0007047D3685DF8044B0133D360704700BF9A
:1013E000FC6B0220214B10B45A6A136850681978BC
:1013F0000478507A137A044201EA03011BD0937AED
:1014000003F0030309B143F0040343F00803991008
:10141000013B91720D2B0BD8DFE803F021071B076E
:101420000A152121150A071B0721D368013BD36048
:101430005DF8044B7047937A03F003030029E6D06C
:1014400043F00403E3E7D3685DF8044B023BD36049
:101450007047D3685DF8044B0233D3607047D3689C
:101460005DF8044B0133D360704700BFFC6B022072
:10147000214B10B49A6A1368506819780478507A2E
:10148000137A044201EA03011BD0937A03F00303A9
:1014900009B143F0040343F008039910013B917232
:1014A0000D2B0BD8DFE803F021071B070A152121BC
:1014B000150A071B0721D368013BD3605DF8044B75
:1014C0007047937A03F003030029E6D043F0040346
:1014D000E3E7D3685DF8044B023BD3607047D36801
:1014E0005DF8044B0233D3607047D3685DF8044B5A
:1014F0000133D360704700BFFC6B0220214B10B456
:10150000DA6A1368506819780478507A137A0442BA
:1015100001EA03011BD0937A03F0030309B143F0FE
:10152000040343F008039910013B91720D2B0BD873
:10153000DFE803F021071B070A152121150A071B05
:101540000721D368013BD3605DF8044B7047937A61
:1015500003F003030029E6D043F00403E3E7D36874
:101560005DF8044B023BD3607047D3685DF8044BD1
:101570000233D3607047D3685DF8044B0133D36006
:10158000704700BFFC6B0220214B10B41A6B13682C
:10159000506819780478507A137A044201EA0301FA
:1015A0001BD0937A03F0030309B143F0040343F023
:1015B00008039910013B91720D2B0BD8DFE803F063
:1015C00021071B070A152121150A071B0721D368CC
:1015D000013BD3605DF8044B7047937A03F003033B
:1015E0000029E6D043F00403E3E7D3685DF8044B39
:1015F000023BD3607047D3685DF8044B0233D3607D
:101600007047D3685DF8044B0133D360704700BF67
:10161000FC6B0220214B10B45A6B13685068197888
:101620000478507A137A044201EA03011BD0937ABA
:1016300003F0030309B143F0040343F008039910D6
:10164000013B91720D2B0BD8DFE803F021071B073C
:101650000A152121150A071B0721D368013BD36016
:101660005DF8044B7047937A03F003030029E6D03A
:1016700043F00403E3E7D3685DF8044B023BD36017
:101680007047D3685DF8044B0233D3607047D3686A
:101690005DF8044B0133D360704700BFFC6B022040
:1016A000214B10B49A6B1368506819780478507AFB
:1016B000137A044201EA03011BD0937A03F0030377
:1016C00009B143F0040343F008039910013B917200
:1016D0000D2B0BD8DFE803F021071B070A1521218A
:1016E000150A071B0721D368013BD3605DF8044B43
:1016F0007047937A03F003030029E6D043F0040314
:10170000E3E7D3685DF8044B023BD3607047D368CE
:101710005DF8044B0233D3607047D3685DF8044B27
:101720000133D360704700BFFC6B0220214B10B423
:10173000DA6B1368506819780478507A137A044287
:1017400001EA03011BD0937A03F0030309B143F0CC
:10175000040343F008039910013B91720D2B0BD841
:10176000DFE803F021071B070A152121150A071BD3
:101770000721D368013BD3605DF8044B7047937A2F
:1017800003F003030029E6D043F00403E3E7D36842
:101790005DF8044B023BD3607047D3685DF8044B9F
:1017A0000233D3607047D3685DF8044B0133D360D4
:1017B000704700BFFC6B0220214B10B41A6C1368F9
:1017C000506819780478507A137A044201EA0301C8
:1017D0001BD0937A03F0030309B143F0040343F0F1
:1017E00008039910013B91720D2B0BD8DFE803F031
:1017F00021071B070A152121150A071B0721D3689A
:10180000013BD3605DF8044B7047937A03F0030308
:101810000029E6D043F00403E3E7D3685DF8044B06
:10182000023BD3607047D3685DF8044B0233D3604A
:101830007047D3685DF8044B0133D360704700BF35
:10184000FC6B0220214B10B45A6C13685068197855
:101850000478507A137A044201EA03011BD0937A88
:1018600003F0030309B143F0040343F008039910A4
:10187000013B91720D2B0BD8DFE803F021071B070A
:101880000A152121150A071B0721D368013BD360E4
:101890005DF8044B7047937A03F003030029E6D008
:1018A00043F00403E3E7D3685DF8044B023BD360E5
:1018B0007047D3685DF8044B0233D3607047D36838
:1018C0005DF8044B0133D360704700BFFC6B02200E
:1018D000214B10B49A6C1368506819780478507AC8
:1018E000137A044201EA03011BD0937A03F0030345
:1018F00009B143F0040343F008039910013B9172CE
:101900000D2B0BD8DFE803F021071B070A15212157
:10191000150A071B0721D368013BD3605DF8044B10
:101920007047937A03F003030029E6D043F00403E1
:10193000E3E7D3685DF8044B023BD3607047D3689C
:101940005DF8044B0233D3607047D3685DF8044BF5
:101950000133D360704700BFFC6B0220214B10B4F1
:10196000DA6C1368506819780478507A137A044254
:1019700001EA03011BD0937A03F0030309B143F09A
:10198000040343F008039910013B91720D2B0BD80F
:10199000DFE803F021071B070A152121150A071BA1
:1019A0000721D368013BD3605DF8044B7047937AFD
:1019B00003F003030029E6D043F00403E3E7D36810
:1019C0005DF8044B023BD3607047D3685DF8044B6D
:1019D0000233D3607047D3685DF8044B0133D360A2
:1019E000704700BFFC6B0220214B10B41A6D1368C6
:1019F000506819780478507A137A044201EA030196
:101A00001BD0937A03F0030309B143F0040343F0BE
:101A100008039910013B91720D2B0BD8DFE803F0FE
:101A200021071B070A152121150A071B0721D36867
:101A3000013BD3605DF8044B7047937A03F00303D6
:101A40000029E6D043F00403E3E7D3685DF8044BD4
:101A5000023BD3607047D3685DF8044B0233D36018
:101A60007047D3685DF8044B0133D360704700BF03
:101A7000FC6B0220214B10B45A6D13685068197822
:101A80000478507A137A044201EA03011BD0937A56
:101A900003F0030309B143F0040343F00803991072
:101AA000013B91720D2B0BD8DFE803F021071B07D8
:101AB0000A152121150A071B0721D368013BD360B2
:101AC0005DF8044B7047937A03F003030029E6D0D6
:101AD00043F00403E3E7D3685DF8044B023BD360B3
:101AE0007047D3685DF8044B0233D3607047D36806
:101AF0005DF8044B0133D360704700BFFC6B0220DC
:101B0000214B10B49A6D1368506819780478507A94
:101B1000137A044201EA03011BD0937A03F0030312
:101B200009B143F0040343F008039910013B91729B
:101B30000D2B0BD8DFE803F021071B070A15212125
:101B4000150A071B0721D368013BD3605DF8044BDE
:101B50007047937A03F003030029E6D043F00403AF
:101B6000E3E7D3685DF8044B023BD3607047D3686A
:101B70005DF8044B0233D3607047D3685DF8044BC3
:101B80000133D360704700BFFC6B0220214B10B4BF
:101B9000DA6D1368506819780478507A137A044221
:101BA00001EA03011BD0937A03F0030309B143F068
:101BB000040343F008039910013B91720D2B0BD8DD
:101BC000DFE803F021071B070A152121150A071B6F
:101BD0000721D368013BD3605DF8044B7047937ACB
:101BE00003F003030029E6D043F00403E3E7D368DE
:101BF0005DF8044B023BD3607047D3685DF8044B3B
:101C00000233D3607047D3685DF8044B0133D3606F
:101C1000704700BFFC6B0220214B10B41A6E136892
:101C2000506819780478507A137A044201EA030163
:101C30001BD0937A03F0030309B143F0040343F08C
:101C400008039910013B91720D2B0BD8DFE803F0CC
:101C500021071B070A152121150A071B0721D36835
:101C6000013BD3605DF8044B7047937A03F00303A4
:101C70000029E6D043F00403E3E7D3685DF8044BA2
:101C8000023BD3607047D3685DF8044B0233D360E6
:101C90007047D3685DF8044B0133D360704700BFD1
:101CA000FC6B0220214B10B45A6E136850681978EF
:101CB0000478507A137A044201EA03011BD0937A24
:101CC00003F0030309B143F0040343F00803991040
:101CD000013B91720D2B0BD8DFE803F021071B07A6
:101CE0000A152121150A071B0721D368013BD36080
:101CF0005DF8044B7047937A03F003030029E6D0A4
:101D000043F00403E3E7D3685DF8044B023BD36080
:101D10007047D3685DF8044B0233D3607047D368D3
:101D20005DF8044B0133D360704700BFFC6B0220A9
:101D3000214B10B49A6E1368506819780478507A61
:101D4000137A044201EA03011BD0937A03F00303E0
:101D500009B143F0040343F008039910013B917269
:101D60000D2B0BD8DFE803F021071B070A152121F3
:101D7000150A071B0721D368013BD3605DF8044BAC
:101D80007047937A03F003030029E6D043F004037D
:101D9000E3E7D3685DF8044B023BD3607047D36838
:101DA0005DF8044B0233D3607047D3685DF8044B91
:101DB0000133D360704700BFFC6B0220214B10B48D
:101DC000DA6E1368506819780478507A137A0442EE
:101DD00001EA03011BD0937A03F0030309B143F036
:101DE000040343F008039910013B91720D2B0BD8AB
:101DF000DFE803F021071B070A152121150A071B3D
:101E00000721D368013BD3605DF8044B7047937A98
:101E100003F003030029E6D043F00403E3E7D368AB
:101E20005DF8044B023BD3607047D3685DF8044B08
:101E30000233D3607047D3685DF8044B0133D3603D
:101E4000704700BFFC6B0220214B10B41A6F13685F
:101E5000506819780478507A137A044201EA030131
:101E60001BD0937A03F0030309B143F0040343F05A
:101E700008039910013B91720D2B0BD8DFE803F09A
:101E800021071B070A152121150A071B0721D36803
:101E9000013BD3605DF8044B7047937A03F0030372
:101EA0000029E6D043F00403E3E7D3685DF8044B70
:101EB000023BD3607047D3685DF8044B0233D360B4
:101EC0007047D3685DF8044B0133D360704700BF9F
:101ED000FC6B0220214B10B45A6F136850681978BC
:101EE0000478507A137A044201EA03011BD0937AF2
:101EF00003F0030309B143F0040343F0080399100E
:101F0000013B91720D2B0BD8DFE803F021071B0773
:101F10000A152121150A071B0721D368013BD3604D
:101F20005DF8044B7047937A03F003030029E6D071
:101F300043F00403E3E7D3685DF8044B023BD3604E
:101F40007047D3685DF8044B0233D3607047D368A1
:101F50005DF8044B0133D360704700BFFC6B022077
:101F6000214B10B49A6F1368506819780478507A2E
:101F7000137A044201EA03011BD0937A03F00303AE
:101F800009B143F0040343F008039910013B917237
:101F90000D2B0BD8DFE803F021071B070A152121C1
:101FA000150A071B0721D368013BD3605DF8044B7A
:101FB0007047937A03F003030029E6D043F004034B
:101FC000E3E7D3685DF8044B023BD3607047D36806
:101FD0005DF8044B0233D3607047D3685DF8044B5F
:101FE0000133D360704700BFFC6B0220214B10B45B
:101FF000DA6F1368506819780478507A137A0442BB
:1020000001EA03011BD0937A03F0030309B143F003
:10201000040343F008039910013B91720D2B0BD878
:10202000DFE803F021071B070A152121150A071B0A
:102030000721D368013BD3605DF8044B7047937A66
:1020400003F003030029E6D043F00403E3E7D36879
:102050005DF8044B023BD3607047D3685DF8044BD6
:102060000233D3607047D3685DF8044B0133D3600B
:10207000704700BFFC6B0220214B10B4D3F88020C6
:102080001368506819780478507A137A044201EA88
:1020900003011BD0937A03F0030309B143F0040357
:1020A00043F008039910013B91720D2B0BD8DFE828
:1020B00003F021071B070A152121150A071B072119
:1020C000D368013BD3605DF8044B7047937A03F00B
:1020D00003030029E6D043F00403E3E7D3685DF887
:1020E000044B023BD3607047D3685DF8044B023366
:1020F000D3607047D3685DF8044B0133D3607047F9
:10210000FC6B0220214B10B4D3F884201368506874
:1021100019780478507A137A044201EA03011BD03B
:10212000937A03F0030309B143F0040343F0080377
:102130009910013B91720D2B0BD8DFE803F02107BA
:102140001B070A152121150A071B0721D368013B2C
:10215000D3605DF8044B7047937A03F003030029C2
:10216000E6D043F00403E3E7D3685DF8044B023B99
:10217000D3607047D3685DF8044B0233D360704777
:10218000D3685DF8044B0133D3607047FC6B0220C9
:10219000214B10B4D3F8882013685068197804785C
:1021A000507A137A044201EA03011BD0937A03F0B8
:1021B000030309B143F0040343F008039910013B02
:1021C00091720D2B0BD8DFE803F021071B070A15CE
:1021D0002121150A071B0721D368013BD3605DF855
:1021E000044B7047937A03F003030029E6D043F0D1
:1021F0000403E3E7D3685DF8044B023BD360704708
:10220000D3685DF8044B0233D3607047D3685DF840
:10221000044B0133D3607047FC6B0220214B10B498
:10222000D3F88C201368506819780478507A137AA0
:10223000044201EA03011BD0937A03F0030309B1BE
:1022400043F0040343F008039910013B91720D2BF6
:102250000BD8DFE803F021071B070A152121150A17
:10226000071B0721D368013BD3605DF8044B70471F
:10227000937A03F003030029E6D043F00403E3E775
:10228000D3685DF8044B023BD3607047D3685DF8B8
:10229000044B0233D3607047D3685DF8044B0133BD
:1022A000D3607047FC6B0220214B10B4D3F8902010
:1022B0001368506819780478507A137A044201EA56
:1022C00003011BD0937A03F0030309B143F0040325
:1022D00043F008039910013B91720D2B0BD8DFE8F6
:1022E00003F021071B070A152121150A071B0721E7
:1022F000D368013BD3605DF8044B7047937A03F0D9
:1023000003030029E6D043F00403E3E7D3685DF854
:10231000044B023BD3607047D3685DF8044B023333
:10232000D3607047D3685DF8044B0133D3607047C6
:10233000FC6B0220214B10B4D3F894201368506832
:1023400019780478507A137A044201EA03011BD009
:10235000937A03F0030309B143F0040343F0080345
:102360009910013B91720D2B0BD8DFE803F0210788
:102370001B070A152121150A071B0721D368013BFA
:10238000D3605DF8044B7047937A03F00303002990
:10239000E6D043F00403E3E7D3685DF8044B023B67
:1023A000D3607047D3685DF8044B0233D360704745
:1023B000D3685DF8044B0133D3607047FC6B022097
:1023C000214B10B4D3F8982013685068197804781A
:1023D000507A137A044201EA03011BD0937A03F086
:1023E000030309B143F0040343F008039910013BD0
:1023F00091720D2B0BD8DFE803F021071B070A159C
:102400002121150A071B0721D368013BD3605DF822
:10241000044B7047937A03F003030029E6D043F09E
:102420000403E3E7D3685DF8044B023BD3607047D5
:10243000D3685DF8044B0233D3607047D3685DF80E
:10244000044B0133D3607047FC6B0220214B10B466
:10245000D3F89C201368506819780478507A137A5E
:10246000044201EA03011BD0937A03F0030309B18C
:1024700043F0040343F008039910013B91720D2BC4
:102480000BD8DFE803F021071B070A152121150AE5
:10249000071B0721D368013BD3605DF8044B7047ED
:1024A000937A03F003030029E6D043F00403E3E743
:1024B000D3685DF8044B023BD3607047D3685DF886
:1024C000044B0233D3607047D3685DF8044B01338B
:1024D000D3607047FC6B0220214B10B4D3F8A020CE
:1024E0001368506819780478507A137A044201EA24
:1024F00003011BD0937A03F0030309B143F00403F3
:1025000043F008039910013B91720D2B0BD8DFE8C3
:1025100003F021071B070A152121150A071B0721B4
:10252000D368013BD3605DF8044B7047937A03F0A6
:1025300003030029E6D043F00403E3E7D3685DF822
:10254000044B023BD3607047D3685DF8044B023301
:10255000D3607047D3685DF8044B0133D360704794
:10256000FC6B0220002310B4114C41720261046024
:102570000372C36041B1194600E0026942F82310BA
:10258000427A01339A42F8DC0A4B1A680AB90CE025
:102590001A465369002BFBD15061002343618380AD
:1025A000C38083725DF8044B70471860F5E700BF85
:1025B000BC8E01006C740220F8B5044615460E4628
:1025C000084602210EF052FC284602210EF04EFC75
:1025D000984A994B52F83610012001F50077276090
:1025E000207252F83520607202F500770020676093
:1025F000E060013BFDD191F8003292F8002203F037
:102600000103D20744BF43F00203DBB2A3723B2EA7
:1026100000F20386DFE816F0F405EA05E005D605CA
:10262000CC05C205B805AE05A4059A05900586053A
:102630007C05720568055E0554054A0540053605AA
:102640002C05220518050E050405FA04F004E6041D
:10265000DC04D204C804BE04B304A8049D0492049C
:1026600087047C0428041E0414040A040004F603EE
:10267000EC03E203D803CE03C403BA03B003A603FA
:102680009C03920388037E0374036A0360033C0087
:102690006A4B6B49C3F8EC4004223B200EF03EFB32
:1026A000012323743B2D00F2B585DFE815F00B0301
:1026B0000103F702ED02E302D902CF02C502BB0219
:1026C000B102A7029D02930289027F023102270212
:1026D0001D0213020902FF01F501EB01E101D7011F
:1026E000CD01C301B901AF01A5019B019101860193
:1026F0007B01700165015A014F01440139012E012E
:10270000230118010D010201F700EC00E100B800FF
:10271000AD00A20097008C00810076006B00600085
:1027200055004A003C00454B4549C3F8EC400422A3
:102730003B200EF0F3FA237C01221344237420463D
:10274000F8BD3E4B3F49C3F8E84004223A200EF062
:10275000E5FA237C0122F0E7384B3B49C3F8E4401B
:10276000042239200EF0DAFA237C0122E5E7334B0C
:102770003649C3F8E040042238200EF0CFFA237C1B
:102780000122DAE72D4B3249C3F8DC40042237201E
:102790000EF0C4FA237C0122CFE7284B2D49C3F861
:1027A000D840042236200EF0B9FA237C0122C4E777
:1027B000224B2949C3F8D440042235200EF0AEFA4A
:1027C000237C0122B9E71D4B2449C3F8D0400422E1
:1027D00034200EF0A3FA237C0122AEE7174B2049E8
:1027E000C3F8CC40042233200EF098FA237C012257
:1027F000A3E7124B1B49C3F8C840042232200EF055
:102800008DFA237C012298E70C4B1749C3F8C4408A
:10281000042231200EF082FA237C01228DE7074B3F
:102820001249C3F8C040042230200EF077FA237C0E
:10283000012282E790CF0100C0D40100FC6B02208E
:10284000550D00006D0E0000E10D0000C90C0000E8
:102850003D0C0000B10B0000250B0000990A0000A0
:102860000D0A000081090000F50800006908000059
:10287000AC4BAD49C3F8BC4004222F200EF04EFAF9
:10288000237C012259E7A74BA849C3F8B84004228A
:102890002E200EF043FA237C01224EE7A14BA449DF
:1028A000C3F8B44004222D200EF038FA237C012214
:1028B00043E79C4B9F49C3F8B04004222C200EF004
:1028C0002DFA237C012238E7964B9B49C3F8AC4094
:1028D00004222B200EF022FA237C01222DE7914BBB
:1028E0009649C3F8A84004222A200EF017FA237C48
:1028F000012222E78B4B9249C3F8A44004222920ED
:102900000EF00CFA237C012217E7864B8D49C3F8A1
:10291000A040042228200EF001FA237C01220CE7BB
:10292000804B8949C3F89C40042227200EF0F6F919
:10293000237C012201E77B4B8449C3F898400422A1
:1029400026200EF0EBF9237C0122F6E6754B804938
:10295000C3F89440042225200EF0E0F9237C0122E4
:10296000EBE6704B7B49C3F89040042224200EF024
:10297000D5F9237C0122E0E66A4B7749C3F88C4005
:10298000042223200EF0CAF9237C0122D5E6654BF0
:102990007249C3F88840042222200EF0BFF9237C3C
:1029A0000122CAE65F4B6E49C3F88440042221200D
:1029B0000EF0B4F9237C0122BFE65A4B6949C3F8F3
:1029C0008040042220200EF0A9F9237C0122B4E6E5
:1029D000544B6549DC6704221F200EF09FF9237CCD
:1029E0000122AAE64F4B61499C6704221E200EF08B
:1029F00095F9237C0122A0E64A4B5D495C670422DD
:102A00001D200EF08BF9237C012296E6454B594997
:102A10001C6704221C200EF081F9237C01228CE625
:102A2000404B5549DC6604221B200EF077F9237CCD
:102A3000012282E63B4B51499C6604221A200EF08B
:102A40006DF9237C012278E6364B4D495C66042201
:102A500019200EF063F9237C01226EE6314B4949BF
:102A60001C66042218200EF059F9237C012264E62A
:102A70002C4B4549DC65042217200EF04FF9237CCE
:102A800001225AE6274B41499C65042216200EF08C
:102A900045F9237C012250E6224B3D495C65042226
:102AA00015200EF03BF9237C012246E61D4B3949E7
:102AB0001C65042214200EF031F9237C01223CE62F
:102AC000184B3549DC64042213200EF027F9237CCF
:102AD000012232E6134B31499C64042212200EF08D
:102AE0001DF9237C012228E60E4B2D495C6404224B
:102AF00011200EF013F9237C01221EE6094B29490F
:102B00001C64042210200EF009F9237C012214E633
:102B1000044B2549DC6304220F200EF0FFF8237CD0
:102B200001220AE6FC6B0220DD07000051070000CD
:102B3000C506000039060000AD05000021050000B3
:102B400095040000D92400004D240000C12300009A
:102B500035230000A92200001D2200009121000061
:102B60000521000079200000ED1F0000611F00001A
:102B7000D51E0000491E0000BD1D0000311D0000D3
:102B8000A51C0000191C00008D1B0000011B00008B
:102B9000751A0000E91900005D190000D118000045
:102BA00045180000B91700002D170000B34BB449B9
:102BB0009C6304220E200EF0B1F8237C0122BCE5B8
:102BC000AE4BB0495C6304220D200EF0A7F8237CC5
:102BD0000122B2E5A94BAC491C6304220C200EF083
:102BE0009DF8237C0122A8E5A44BA849DC620422BD
:102BF0000B200EF093F8237C01229EE59F4BA44905
:102C00009C6204220A200EF089F8237C012294E5BC
:102C10009A4BA0495C62042209200EF07FF8237CC5
:102C200001228AE5954B9C491C62042208200EF083
:102C300075F8237C012280E5904B9849DC610422E1
:102C400007200EF06BF8237C012276E58B4B94492C
:102C50009C61042206200EF061F8237C01226CE5C1
:102C6000864B90495C61042205200EF057F8237CC6
:102C7000012262E5814B8C491C61042210460EF052
:102C80004DF8237C012258E57C4B8849DC60042206
:102C900003200EF043F8237C01224EE5774B844954
:102CA0009C60042202200EF039F8237C012244E5C6
:102CB000724B80495C60042201200EF02FF8237CC7
:102CC00001223AE56D4B7C491C60042200200EF085
:102CD00025F8237C012230E5684B7849C3F8E840A9
:102CE00004223A200EF01AF80123DAE4634B744907
:102CF000C3F8E440042239200EF010F80123D0E498
:102D00005E4B7049C3F8E040042238200EF006F80C
:102D10000123C6E4594B6C49C3F8DC400422372038
:102D20000DF0FCFF0123BCE4544B6849C3F8D840C4
:102D3000042236200DF0F2FF0123B2E44F4B644928
:102D4000C3F8D440042235200DF0E8FF0123A8E4A5
:102D50004A4B6049C3F8D040042234200DF0DEFF16
:102D600001239EE4454B5C49C3F8CC400422332048
:102D70000DF0D4FF012394E4404B5849C3F8C840F8
:102D8000042232200DF0CAFF01238AE43B4B544950
:102D9000C3F8C440042231200DF0C0FF012380E4B9
:102DA000364B5049C3F8C040042230200DF0B6FF26
:102DB000012376E4314B4C49C3F8BC4004222F2058
:102DC0000DF0ACFF01236CE42C4B4849C3F8B8402C
:102DD00004222E200DF0A2FF012362E4274B444978
:102DE000C3F8B44004222D200DF098FF012358E4CD
:102DF000224B4049C3F8B04004222C200DF08EFF36
:102E000001234EE41D4B3C49C3F8AC4004222B2067
:102E10000DF084FF012344E4184B3849C3F8A8405F
:102E200004222A200DF07AFF01233AE4134B34499F
:102E3000C3F8A440042229200DF070FF012330E4E0
:102E40000E4B3049C3F8A040042228200DF066FF45
:102E5000012326E4094B2C49C3F89C400422272077
:102E60000DF05CFF01231CE4044B2849C3F8984093
:102E7000042226200DF052FF012312E4FC6B0220F5
:102E8000A11600001516000089150000FD140000B1
:102E900071140000E513000059130000CD1200006A
:102EA00041120000B5110000291100009D10000022
:102EB00011100000850F0000F90E00006D0E0000DB
:102EC000E10D0000C90C00003D0C0000B10B00003A
:102ED000250B0000990A00000D0A0000810900007E
:102EE000F508000069080000DD0700005107000038
:102EF000C506000039060000AD05000021050000F0
:102F000095040000D92400004D240000C1230000D6
:102F1000C34BC449C3F89440042225200DF0FEFEA3
:102F20000123FFF7BEBBBE4BBF49C3F8904004224C
:102F300024200DF0F3FE0123FFF7B3BBB84BBB49D0
:102F4000C3F88C40042223200DF0E8FE0123FFF794
:102F5000A8BBB34BB649C3F88840042222200DF029
:102F6000DDFE0123FFF79DBBAD4BB249C3F88440A2
:102F7000042221200DF0D2FE0123FFF792BBA84BC3
:102F8000AD49C3F88040042220200DF0C7FE012384
:102F9000FFF787BBA24BA949DC6704221F200DF075
:102FA000BDFE0123FFF77DBB9D4BA5499C67042215
:102FB0001E200DF0B3FE0123FFF773BB984BA14910
:102FC0005C6704221D200DF0A9FE0123FFF769BBF9
:102FD000934B9D491C6704221C200DF09FFE01238A
:102FE000FFF75FBB8E4B9949DC6604221B200DF076
:102FF00095FE0123FFF755BB894B95499C6604223A
:103000001A200DF08BFE0123FFF74BBB844B914937
:103010005C66042219200DF081FE0123FFF741BBFD
:103020007F4B8D491C66042218200DF077FE01238A
:10303000FFF737BB7A4B8949DC65042217200DF076
:103040006DFE0123FFF72DBB754B85499C6504225E
:1030500016200DF063FE0123FFF723BB704B81495F
:103060005C65042215200DF059FE0123FFF719BB02
:103070006B4B7D491C65042214200DF04FFE01238B
:10308000FFF70FBB664B7949DC64042213200DF077
:1030900045FE0123FFF705BB614B75499C64042283
:1030A00012200DF03BFE0123FFF7FBBA5C4B714988
:1030B0005C64042211200DF031FE0123FFF7F1BA08
:1030C000574B6D491C64042210200DF027FE01238C
:1030D000FFF7E7BA524B6949DC6304220F200DF079
:1030E0001DFE0123FFF7DDBA4D4B65499C630422A9
:1030F0000E200DF013FE0123FFF7D3BA484B6149B0
:103100005C6304220D200DF009FE0123FFF7C9BA0C
:10311000434B5D491C6304220C200DF0FFFD01238D
:10312000FFF7BFBA3E4B5949DC6204220B200DF079
:10313000F5FD0123FFF7B5BA394B55499C620422CE
:103140000A200DF0EBFD0123FFF7ABBA344B5149D8
:103150005C62042209200DF0E1FD0123FFF7A1BA12
:103160002F4B4D491C62042208200DF0D7FD01238E
:10317000FFF797BA2A4B4949DC61042207200DF07A
:10318000CDFD0123FFF78DBA254B45499C610422F3
:1031900006200DF0C3FD0123FFF783BA204B414900
:1031A0005C61042205200DF0B9FD0123FFF779BA17
:1031B0001B4B3D491C61042210460DF0AFFD01235D
:1031C000FFF76FBA164B3949DC60042203200DF07B
:1031D000A5FD0123FFF765BA114B35499C60042218
:1031E00002200DF09BFD0123FFF75BBA0C4B314928
:1031F0005C60042201200DF091FD0123FFF751BA1C
:10320000074B2D491C60042200200DF087FD01238F
:10321000FFF747BA0022FFF790BA0023FFF741BA41
:10322000FC6B022035230000A92200001D220000B3
:10323000912100000521000079200000ED1F000011
:10324000611F0000D51E0000491E0000BD1D0000CA
:10325000311D0000A51C0000191C00008D1B000082
:10326000011B0000751A0000E91900005D1900003B
:10327000D118000045180000B91700002D170000F4
:10328000A11600001516000089150000FD140000AD
:1032900071140000E513000059130000CD12000066
:1032A00041120000B5110000291100009D1000001E
:1032B00011100000850F0000F90E000010B592B04B
:1032C000014601A80DF0A6FA0023322201A805A9A3
:1032D0000DF0B4FA05A9054805F0E6F9044601A881
:1032E0000DF058FAA0B212B010BD00BF80630020EC
:1032F00010B5A2B044221749044668460DF066FB9B
:1033000044220DEB020014490DF060FBADF1040204
:10331000002352F8041FA14204D00133112BF8D12D
:1033200022B010BD0D490A68002AFCDB22AA02EB7C
:1033300083030B4913F8442C33F8423C013A12033F
:10334000013B02F47F22C3F30B0313430B6022B053
:1033500010BD00BFC08E0100048F010000F10240CB
:1033600004F102402DE9F04F2DED028BDFF8ECA0C7
:10337000364BDFED378A9FED378A85B0D34603930E
:103380004FF00009039B5BF8045F33F9022F0393AE
:1033900007EE902A07EE105AFAEEEF7AB8EEC77AE7
:1033A000FDEEE77A27EE287AF8EEE76A17EE904A04
:1033B000A6EE887A1FFA89F606F104084FF4FC603D
:1033C000BDEEC77A0FFA88F817EE107ABE2FD4BF79
:1033D00027EAE777BE27BE2CA8BFBE2423B25A2215
:1033E000A4B2414600901C4803F00EFBC4F1BE039A
:1033F00004F15A02002441461BB212B2164800944E
:10340000053603F001FB36B24FF4487331460093A2
:103410005A222BB21048ADB203F0F6FAC5F1BE0342
:1034200005F15A0209F10209009431461BB212B2A9
:10343000094803F0E9FAB9F1FC0F4AF8047FA1D179
:1034400005B0BDEC028BBDE8F08F00BF325C002000
:103450003333733FCDCC4C3D806300209453002028
:1034600070B5354C354A364990B0002508A801237F
:10347000256005F053FD10AA32480A9B12F8145D2E
:103480009DF8241083600573017100F10D031A305B
:1034900012F8011F03F8011B83422A49F8D10F9B40
:1034A000CB6108A805F062FC274E05E008A805F0EE
:1034B00073FC08A805F05AFC08A80122214905F070
:1034C000A1FD08A805F076FC10B92368312B2DDD8D
:1034D00008A805F04FFC0028E8D108A805F048FC32
:1034E000014668460DF096F9184904A80DF092F9C6
:1034F00004A968460DF0BCF9054604A80DF04AF988
:103500001DB968460DF046F9D0E7236803EB430583
:1035100003EB850308A8F51805F02AFC01462846A8
:1035200012F022F8236801332360EAE708A805F0C7
:103530001DFC10B070BD00BF9C660020F08F010024
:10354000106D0220D86B022004510020F48F01007E
:1035500038B5064D0648074C294601220AF0D4FF2B
:10356000207028460BF0A6FB207038BDFC8F0100B0
:103570003C4C0020905B0020F8B51F4D2B6823B910
:103580001E4E3268312A0BDDF8BD1D481B4E0BF074
:103590007FFB1C4A107032680023312A2B60F3DC59
:1035A000194B1A491B681A48164F541C224634609E
:1035B00011F04CFF002116480BF090FB0A223870E6
:1035C00013490F480AF0CAFF0228387008D00A22AF
:1035D0000F490B480AF0C2FF012338702B60F8BD79
:1035E00007480BF055FB09283870F0D108480BF05C
:1035F0009BFB3870EBE700BF5C6800209C660020F6
:10360000A8630020905B002060680020009001000B
:10361000A06600202DE9F843064608F033FC012897
:103620002CDDDFF86490DFF858800025D8F8000022
:10363000134F05EB4004304608F056FC09EB042418
:1036400001464FF4807220460DF0C0F90135304636
:1036500008F068FC022DE9D13B680133BF2B02D88A
:103660003B60BDE8F8830022064B3A6006490748F4
:103670004FF4C0320BF0EEF8054B1870BDE8F8833C
:10368000A46300209C4E0020C0680020A863002096
:10369000905B0020114A38B500230446104D80F895
:1036A000F63013700CE008F01FFC0E4B01464FF48F
:1036B00080720D480BF0CEF82870204608F032FCDE
:1036C000204608F0DFFB00282046ECDC06480BF023
:1036D000DFFA064B287000221A6038BDF44E002035
:1036E000905B00209C4E0020A86300205C680020B6
:1036F00008B50648FFF7CEFF0021054803F0CCFCD3
:10370000044B4FF480329A6108BD00BF306700203F
:103710008063002080EB01202DE9F0418CB00DF199
:10372000030600250746B0462C4628460DF0FEF855
:1037300008F8010F4440082314F0010F4FEA540227
:1037400003F1FF3314BF82F08C04C4F3470413F079
:10375000FF03F1D101352B2DE7D1F4B99DF82B30C2
:10376000312B03D020460CB0BDE8F0819DF82A3003
:10377000302BF7D19DF82930302BF3D19DF828302C
:10378000302BEFD1013F0DF12F0316F8012F07F871
:10379000012F9E42F9D10120E5E718460CB0BDE8A3
:1037A000F08100BFF8B50025471E2C4617F8016FC1
:1037B0000823744014F0010F4FEA540203F1FF3361
:1037C00014BF82F08C04C4F3470413F0FF03F1D15B
:1037D00028460DF0ABF8864209D0314628460DF058
:1037E000BFF828460DF0A2F83B7883420FD101358F
:1037F0002A2DDBD10026214628460DF0B1F82846B7
:103800000DF094F884420CBF30460120F8BD01262B
:10381000F1E700BFF0B58DB001A8FFF77DFF98B1CB
:103820001C49099A1C4BBDF806709DF828609DF84C
:1038300029509DF82A400F80012A9DF82B101E70F8
:103840005D709C70D97001D00DB0F0BD134C14495F
:10385000049F144D144B27600A60059F029A134E73
:103860002F601A60124C039A124F32609DF820604C
:103870009DF821202670104D1049114B079E9DF890
:1038800019403A709DF818202E600C701A700DB017
:10389000F0BD00BFC85B0020BC4E0020203E0020D1
:1038A00044680020703E002034660020743E0020F2
:1038B000613E0020803E00207C3E0020783E0020BB
:1038C000183E0020F0B522492248234A09680068C2
:1038D000224B234D1B88234C2E68234F2568234CF5
:1038E00097F800E094F800C08FB00133049006917F
:1038F00092E80300C0F307228DF830008DF83120E4
:10390000C0F30742000E8DF832208DF83300ADF879
:103910000E301748174B1849184A0778096812687B
:1039200007960B951E7805910023592503A88DF85D
:1039300029C08DF828E009928DF821708DF820605B
:103940008DF80C50ADF83430FFF72CFF0FB0F0BD00
:10395000203E0020346600200C900100C85B00204F
:10396000703E002044680020613E0020803E002020
:10397000783E0020183E0020743E00207C3E00204F
:10398000F8B55C4E34685CB1032C5B4D28D0022C3A
:103990003CD0012C60D0042C7DD000232B62F8BDDC
:1039A0005648554D564F07F0C9FD564A564B1168BB
:1039B0001A68EC6191424FF48033AB6104BFEB6154
:1039C000AC61524B34685248524A00211960032CB2
:1039D0004FF001034FF002013B6003601160D6D14C
:1039E0004FF480414548464F07F08CFD474B346803
:1039F0004848474900221A60AA6101234FF48032E7
:103A0000022C3B6003600B60EA61C2D14FF480413D
:103A10003A4807F061FD404BDFED406A93F9003012
:103A200007EE903AF8EEE77AB7EE006A86EE277A6C
:103A30004FF480320023EA61AB61B4EEE67AF1EE36
:103A400010FA3BD4F2EE007AB4EEE77AF1EE10FA17
:103A500044DD4FF4002333E02848274C2B4F07F078
:103A60006DFD284A284B116818684FF4803288424F
:103A70004FF00003EB61AA6108BFE26120482549CD
:103A8000234A08BFA36101233468036000263E6017
:103A90000B6013607FE719481C4F194E1D4C07F04F
:103AA0004DFD1B48002201234FF480313A60EA614A
:103AB000AA613360236003602962F8BD40F28F235E
:103AC0000E4F124C0E481349114A3B620123002746
:103AD0002760036034680B6013605AE7DFED106AFB
:103AE000DFED107AE7EE267AFCEEE77A17EE903AF1
:103AF000E6E700BF34660020F4660020546600202C
:103B0000F86B0220DC4E0020243E0020406800209C
:103B100064630020A04E0020613E00200AD7233CB1
:103B200000008047EE7CFF3E2DE9F04F9F49A04802
:103B3000DFF8B0928BB00CF06DFE9E4A9E499C4817
:103B40000FF0A0FB1C211B2227238DE80E009B48B1
:103B5000FF231422152102F0F7FD32222521984877
:103B600004F028FE32222421964804F023FE23226A
:103B700022219548FEF720FD32222621934804F0A9
:103B800019FE32221D21924804F014FE1F221E212C
:103B90009048FEF711FD904B1A68904BC9F8003021
:103BA000002389F80930C9F8103089F80830C9F8BD
:103BB0000C300AB9B1E21A465369002BFBD1C2F8A6
:103BC00014900024DFF870B2854B8648C9F8144081
:103BD000A9F80440A9F8064089F80A40C9F800305D
:103BE00007F09EFD0BF1180201215846FEF7BAFCC2
:103BF0007D4B7E488BF8F440224621468BF8F540F9
:103C0000CBF8F0408BF8F640CBF80030FEF7AAFC7A
:103C1000764A774B1360774A744E774D18324FF4DB
:103C20008043A2F1180002213362FEF79BFC714A27
:103C3000724B1360012005F22472684E2C722346E9
:103C40002146EC602E6068722A612C4600E02269F1
:103C500042F823106A7A684801339A42F7DC5E4BD7
:103C60001A680AB95DE21A465369002BFBD1556107
:103C7000002463492960224601234FF48071614E7C
:103C800061486C61AC80EC80AC7285F8214785F8A6
:103C90002247C5F818610FF019FA4F4BDFF874810D
:103CA0001A684E49C5F81C41082385F8203788F862
:103CB0000940C8F80010C8F8104088F80840C8F853
:103CC0000C40454B0AB92EE21A465369002BFBD132
:103CD000C2F814804FF0000A4C4B4D48C8F814A0AD
:103CE000A8F804A0A8F806A088F80AA0C8F8003030
:103CF00005F02EF84748484C484F494E07F0BEFFA4
:103D00002C4A484943480FF0BDFA474B012103F1C3
:103D100018021846FEF726FC434A444B1360444BF6
:103D2000042103F128021846FEF71CFC414B03F165
:103D3000280218463E4B04211C604FF480349C61DD
:103D4000DC611C625C62FEF70DFC3A4B324C1C607D
:103D500007F128024FF48034042138469C61DC616D
:103D60001C625C62FEF7FEFB2B49BC61022006F17F
:103D70001802FC613C627C62184C39603460534626
:103D8000514686F808A0C6F80CA07072326134461D
:103D900000E0226942F82310727A214801339A42E6
:103DA000F7DC0D4B1A68002A49D1BFE114900100DD
:103DB000884E00200C3E0020950701008063002003
:103DC00068630020D4E801203C660020A84E002053
:103DD000AC680020E04E00206C740220BC8E010014
:103DE000B09B010068680020E09B0100F45B0020AC
:103DF000EC9B010058E90120185C0020A49B010005
:103E0000709901009099010040630020D49B01004B
:103E100000E90120E8E80120BC9B0100FC650020CE
:103E2000B8EB01207104000054660020989B01004B
:103E300080EB0120F4660020306700201A465369A9
:103E4000002BFBD156610024B94ABA4B7461B4808F
:103E5000F480B472B8483260059307F099FE059B70
:103E6000DFF82CA31C721846C3F800905F605C72E8
:103E7000DC601C740CF0BCFA059BB04AB0491846D3
:103E80000FF000FAAF4B059350468AE8000A8AF813
:103E900008408AF80940CAF80C408AF810400CF033
:103EA000A7FAA64AA649DFF8ECB250460FF0EAF9A5
:103EB000059BDFF8E4A21C724FF001091846C3F815
:103EC00000805F60DC601C7483F809900CF090FA4D
:103ED000059B9A4A9A49DFF8C48218460FF0D2F936
:103EE000994BCBF8043058468BF80840CBF800705B
:103EF0008BF80940CBF80C408BF810400CF078FAA6
:103F00008E4A8F4958460FF0BDF9904BCAF80430DD
:103F100050468AF80840CAF800708AF80940CAF882
:103F20000C408AF810400CF063FA844A8449DFF8A8
:103F300070B250460FF0A6F9834B88F8084040460F
:103F400088E8280088F80940C8F80C4088F8104034
:103F50000CF04EFA794A7A497D4B059340460FF0B2
:103F600091F97C4BDFF83CA2CBF8043058468BF833
:103F70000840CBF800708BF80940CBF80C408BF868
:103F800010400CF035FA6D4A6D49DFF81C82724D15
:103F900058460FF077F9714BCAF8003050466D4B18
:103FA000CAF804308AF808408AF80990CAF80C4028
:103FB0008AF810400CF01CFA6149604ADFF8ECB155
:103FC00050460FF05FF9059B604A1A601846644A34
:103FD0001C725A6083F80990DC601C740CF008FABB
:103FE000059B564A5649DFF8C8A118460FF04AF912
:103FF000584BC8F800304046594BC8F8043088F890
:10400000084088F80940C8F80C4088F810400CF0C7
:10401000EFF94B49494A40460FF034F9022328464C
:104020004F4A6B722C722F606A60EC602C740CF03B
:10403000DFF9424A4249DFF87C814A4F28460FF0B7
:1040400021F9474B8BF8084058468BE848008BF81D
:104050000940CBF80C408BF810400CF0C9F9374AF6
:104060003749414D58460FF00DF93D4B8AF80990FC
:1040700050468AE848008AF80840CAF80C408AF896
:1040800010400CF0B5F950462C4A2D49DFF828A114
:10409000364CDFF828910FF0F5F83549354B0A68B2
:1040A0000792DDF81CB00A6808921A68089B096834
:1040B000DFF80CE109911E462F4B0999DFF804C186
:1040C000CEF8002002EB420003EB80032B4A2D6860
:1040D000CAF800B0A1F57A71D3F808B0D3F804A0FB
:1040E000C8F80060264B2748CCF800104FF00A08AB
:1040F0002360C2F800A0C7F800B0C9F8005084F8E7
:10410000088004F025FE0D4A1F491E480FF0BAF83A
:104110000CF0C0FB0BB0BDE8F08F1C4BC3F8009057
:104120004FE51860A4E5C3F80080D3E518608AE67F
:10413000C89B0100CC5B0020B8EB01200C3E0020A6
:1041400089040000E05B002080EB01205466002021
:10415000C0E8012058E90120B05B0020F45B00209A
:10416000F46600202C6700207C3E0020F84E0020E2
:10417000F8740220703E0020488F01006068002023
:104180007C990100D86B02206D8D00006C740220B8
:10419000286800202CE9012040E9012098680020CF
:1041A000C44E002084680020486800209C5B0020EA
:1041B00050630020985B00207CEB0120945B002082
:1041C00078630020386600202DE9F04F2DED028B3A
:1041D000CA4CCB4ECB4D95B020464FF6E07104F063
:1041E000E5FA4FF400412823002201910093204674
:1041F000F0231146A56102F091FD3368012B00F018
:104200008782022B00F0918214224FF400438DE844
:104210000C000021F0234FF48C72B848DFF838A36B
:1042200002F07CFD28224FF448738DE80C00002139
:10423000F0234FF49672B14802F070FD002211464F
:10424000AE4804F097FA0122AF49AC480CF010FADE
:104250009AF90010A9480CF095FA3268022A00F089
:104260006E82DFF8F892A949A448A94F02220CF007
:10427000FFF999F90010A1480CF084FA0222A5492F
:104280009E480CF0F5F9A44B1C68204611F0D8F9B3
:104290002146024699480CF0EBF914220021974878
:1042A00004F068FA3B68042B00F22682DFE813F082
:1042B0001F01600166016C010500042297498F48C7
:1042C0000CF0D6F9964BDFF898821968954C0BA83C
:1042D0000AF02CFE1422B421884804F04BFA0C9A00
:1042E0000D9B00920921904A05A811F061F805A8DC
:1042F00011F0A6F905A9024680480CF0B9F9002191
:104300004FF48C727D4804F035FAD8F800307B48C1
:10431000012B0CBF4DF29A614FF6E07104F046FAA2
:1043200023680B2B04D1D8F80020012A00F0698201
:104330007E4D55F823B0584611F082F95946024691
:104340006E480CF095F9012279496C480CF090F90F
:104350004FF6FF716948DFF8CCB104F027FA236803
:10436000012B00F0FC81022B00F01481002B00F0E7
:104370001A810A2B00F02081092B00F02781072BDE
:1043800000F02E810D2B00F04081082B00F04781BA
:10439000684BDFF8D0911B685848012B0CBF4DF2D9
:1043A0009A614FF6E07104F001FAD9F8003055F83F
:1043B0002300FEF783FFC0F1F00109B24FF48C72C5
:1043C0004E4804F0D7F9D9F8003055F82350284664
:1043D00011F036F92946024648480CF049F94FF4E5
:1043E00096720021454804F0C5F94FF6E071434844
:1043F00004F0DCF92368032B00F042814E4C237853
:10440000002B00F05981012B00F05F81022B4B4CF7
:1044100000F069814FF6E071384804F0C7F9484B65
:10442000227848491C78484B052C0CBF1C460C468A
:10443000002A00F0FE803368002B40F31281DFF881
:1044400028A1424DDAF80020DFF820B19FED407A34
:10445000DBF80010002A1346B8BF02F1FF031B125D
:1044600007EE903A91FBF3F185FB0205D217FAEEC5
:10447000EF7AC2EB6535012D87EE278A4FEA4109B5
:104480001EDD01244FF6E078CDF80080052355228B
:104490001A4807EE904AF8EEE77A013467EE887A18
:1044A000FDEEE77ACDED037ABDF90C1002F0ACFA1F
:1044B000A542E9D1DAF80030002BB8BFFF331B1258
:1044C0003A68022A00F07B814FF6E073009357228E
:1044D00003230FFA89F1094803F0A6FC3368012B86
:1044E00000F04C8115B0BDEC028BBDE8F08F0222CC
:1044F000184902480CF0BCF8E4E600BF80630020D5
:10450000743E002098CE0100349001003C900100E0
:104510003466002040900100606800205C9001003B
:1045200000D00340406800206C900100283E00202D
:104530007890010064630020B84E0020E4E8012078
:10454000603E0020249001002C900100AD8BDB68C0
:1045500000401C4644900100183E0020783E002098
:10456000F86B0220A04E00202C6700207C3E00202B
:104570000722B449B4480CF07BF8A3E60722B349FC
:10458000B1480CF075F89DE60222B149AE480CF036
:104590006FF897E6AF4BAC4819680CF0F3F8236856
:1045A000002B7FF4E6AE99F90010A7480CF0EAF86A
:1045B00023680A2B7FF4E0AEA74BA34893F90010C1
:1045C0000CF0E0F82368092B7FF4D9AEA34B9E488A
:1045D00093F900100CF0D6F82368072B7FF4D2AEC5
:1045E0009F4BA04A1B6803EB430302EB8303D3F802
:1045F0000490484611F024F84946024692480CF0CF
:1046000037F823680D2B7FF4C0AE974B8E4893F993
:1046100000100CF0B7F82368082B7FF4B9AE934B69
:104620001B68002B6ED10722914987480CF020F8B7
:10463000AEE62146844804F037F8C0F1EB0109B238
:104640004FF49672804804F095F8204610F0F8FF79
:10465000214602467C480CF00BF83368002B3FF7EC
:10466000EEAE55220021784804F084F810228149EA
:1046700075480BF0FDFF15B0BDEC028BBDE8F08F67
:10468000D8F80030012B7FF4B9AE7B4C6E484FF662
:10469000FF7104F08BF82378002B00F0C580012B0C
:1046A00000F0C980022B754C7FF4B4AE74496648A3
:1046B00004220BF0DDFFADE60722724962480BF0E1
:1046C000D7FF2378012B7FF4A1AE6F4B1B78002B13
:1046D0004DD006226D495C480BF0CAFF2378674C29
:1046E000022B7FF497AE2378002BDFD00422684999
:1046F00055480BF0BDFF8DE60522664952480BF088
:10470000B7FFDFE5042264494F480BF0B1FF3FE6F5
:1047100000211E2300932046F02301913C2202F049
:10472000FDFA3368022B7FF46FAD0021062300935E
:104730000191F0235422444802F0F0FA64E557490D
:1047400041480BF095FF434B55491B683E4881FBA0
:104750000321DB17C3EBA1110CF014F881E59AF9E2
:10476000001039480CF00EF8DBF80030FBE50722AA
:104770004C4935480BF07CFF237847E6DBF8001006
:10478000474B494A83FB0103C917C1EBA31308A890
:10479000092110F00DFEA9F10A0109B23C222A48B4
:1047A00003F0E8FF08A810F04BFF08A902462648CE
:1047B0000BF05EFF15B0BDEC028BBDE8F08F264A12
:1047C0003A4D92F9001095FBF3F54FF47A7202FB23
:1047D00001F292FBF3F3ED1A6D005B001CB22DB2F7
:1047E0004FF6FF772B46214600975522164802F0D8
:1047F0001BF92B46214600975922134802F014F961
:1048000062E62B4B2B4A1B682B4D03EB430B03EB50
:104810008B0302EB030B584610F012FF5946024679
:1048200009480BF025FF93E50722164906480BF0CF
:104830001FFF237833E70722204903480BF018FFB6
:1048400023782FE74C9001008063002054900100F2
:10485000489001007C3E0020803E0020613E002008
:10486000703E0020488F0100103E00204468002068
:104870007C900100C490010078EB0120E4E8012065
:104880009C9001008C900100F44E0020A490010047
:10489000B490010064900100849001003890010000
:1048A000D34D6210AC900100BC9001008038010033
:1048B00054E9012004510020283E0020949001007A
:1048C000074B10B5012401461C60064806F07EFB2C
:1048D000054B1C60FFF778FC044B00221A6010BDEA
:1048E00088E100E0F84E002008E100E07C63002051
:1048F000274B9FED286A93ED007ADFED276AB8EE2B
:10490000C77A07EE900AC6EE075AF8EEE77A67EE26
:10491000A57AF4EEE67AF1EE10FA19DC1F4A204B84
:10492000C2ED007AF5EEC07A0122F1EE10FA1A60BB
:104930002BD49FED1C7AF4EEC77AF1EE10FA1BDD52
:10494000194B1A491A4A01200860D361FFF73CBC91
:10495000C7EE065A114B1748114A0121F2EE027AAE
:10496000E5EEA67AC3ED006AFDEEE77A17EE903A1F
:10497000F0EE667A036011609FED0F7A67EE877A3A
:10498000FCEEE77A17EE903ADBE70023D9E700BFA9
:104990002C670020A6552C4700E0AB461C3E0020AB
:1049A00088E100E0A655AC4680FFFF7F08E100E00B
:1049B000F45B00207C3E00204B24BE472DE9F04FE5
:1049C0002DED048BB74AB84B92F900201B689FED80
:1049D000B76ADFEDB76A07EE102A002BB8BFFF33C6
:1049E000F8EEC77A1B1227EE867A07EE903AF8EEB9
:1049F000E77AADF5077D87EE278A0EAC4FF4F072AB
:104A000020460021C6EEA78A10F076FAA94B1A6854
:104A10000132012A03921A60BDEEC88AFDEEE88ACF
:104A200000F01F81039B632B40F22381DFF8D482C7
:104A3000DFF8CC929FEDA06A0026C446B346B64686
:104A400027464FF4807A0225F2EE046A0FE0042A2A
:104A5000D8BF4FF4006323DC0135782D24F81630DD
:104A600007F1040727F8023C06F102062CD03CF8B7
:104A7000023FB9EC017A03EB83035B0007EE903A47
:104A8000F8EEE77AE7EE467A77EEA67AFDEEE77A79
:104A900017EE902A52459644D9DD17EE90AAAB4600
:104AA0005300FF2BA8BFFF23B2F5407FC0F2DC828A
:104AB000B2F5106FC0F2A3821B0203F478436FEAD1
:104AC000D3236FEAC323C7E77C4B9FED7D7A83FB3B
:104AD0000E234FEAEE7ECEEB23139AFBF3F307EEA1
:104AE000903AF8EEE77A18EE103AF4EE477AF1EEE3
:104AF00010FA48BF4FF0000B5B4504DA18EE903A0D
:104B00005B4500F305816F4B1D68012D4FF0000AD6
:104B100000F02A81022D00F035816B4B6B4E93F92A
:104B2000005018EE103A5B454EDA18EE903A5B45AD
:104B30004ADD3378002B40F00582654FDFF8CC91D9
:104B40003B680D93634B0D9A1A60D9F80030012B26
:104B500000F0ED81604F022B3A7840F0F581002A99
:104B600000F0F2815D4806F0E9FC4FF480415B48BB
:104B700006F0B2FC5A4BDFED5B6A93F9003007EEAA
:104B8000903AF8EEE77AB7EE006A86EE277AB4EE4E
:104B9000E67AF1EE10FA00F12282F2EE007AB4EE3B
:104BA000E77AF1EE10FA00F31D82DFED4F6ADFEDD8
:104BB0004F7AE7EE267AFCEEE77A17EE903A47490D
:104BC00000220B623A70BFE133786BB1404A414931
:104BD00013680993099B12680A92454A09680A9862
:104BE0001060444A5B1A13803B4F00233A783370BD
:104BF00062B93749374B096808911868089905EB7D
:104C000085035B009BB2091A994209D82D4B1B689A
:104C1000022B0FD00DF5077DBDEC048BBDE8F08FA6
:104C20002E493270012381F842303B70254B1B68BE
:104C3000022BEFD1264B2E4A1B6807931268079B65
:104C40002D4D9B1A312B40F292812B68B3F58C7F4E
:104C5000E0DB5A232B600DF5077DBDEC048BBDE82E
:104C6000F08F264B002103F5007243F8041B9A4293
:104C7000FBD1234A2349DFED246A02F5FC7031F8A9
:104C8000023F92ED007A03EB83035B0007EE903A5C
:104C9000F8EEE77AA7EEA67AA2EC017A8242EED18C
:104CA000C4E600BF803E00202C67002000007A444C
:104CB00000409C47646800206666663FBF3CB622A1
:104CC0006666863F743E0020103E0020506600203D
:104CD000F87402207CEB01206F3E00205466002017
:104CE000613E00200AD7233C00008047EE7CFF3E57
:104CF000985B0020F64E0020143E0020044F002058
:104D00000C4F0020325C00206F12833A3466002082
:104D1000C24BC34A02930021D3ED006A8A460223A4
:104D200038F8020F92ED007A07EE900AF8EEE77A73
:104D300077EE877AF4EEE67AF1EE10FAE2EC017A99
:104D400003DDF0EE676A9A4601210133782BE7D143
:104D5000002940F0A081B34A138801331380B24B7D
:104D60001D68012D7FF4D6AEB04B1B68022B00F0FE
:104D7000F080039BDB073FF5D0AEFEF7F3FAAA4BBA
:104D80001D68C7E6A74E3388322B7FF6C6AE0020DB
:104D90002D23019000930146F02330802822A4485F
:104DA00001F0BCFF9D4BBAF1000F00F0F2801A46F3
:104DB00092ED007A02939F4BDFED9F5AF7EE007A57
:104DC00003EB8A0377EE277A1A1D514632ED016A0A
:104DD000C6EE276AF4EEE56AF1EE10FA02DD01395B
:104DE0000229F3D1DFED945A03915246B3EC016AE4
:104DF000C6EE276AF4EEE56AF1EE10FA40F3A780FA
:104E00000132782AF2D100230493DFF81492DFED07
:104E10008B9A9FED8B9ACDF814B00026022702E002
:104E2000029B93ED007AD9ED006A8148C6EE877A3D
:104E30004FF478430FFA86FB0093594667EEA97A40
:104E4000FDEEE77A17EE905AC5F155080FFA88F88B
:104E50002DB242462B4601F0D7FDBA4507F10107B6
:104E600000F0C3800236782FB6B2A9EC019AD7D1F0
:104E7000744B029D1B6895ED007A9FED739A6C4808
:104E8000DDF814B0002BB8BFFF331B1207EE903AC9
:104E9000F6EE006A27EE267AF8EEE77A2D228221D6
:104EA00085ED007A27EE899A03F064FC4DF29A6151
:104EB0005F4803F07BFCDDED037A5D48F8EEE77AAE
:104EC00067EE897AFDEEE77A17EE901A0BF05AFC3E
:104ED00001225E4956480BF0CBFB4FF6E071544877
:104EE00003F064FC07EE90AAF8EEE77A504867EE0C
:104EF000897AFDEEE77A17EE901A0BF043FC012257
:104F000052494B480BF0B4FB4DF29A61484803F00C
:104F10004DFCDDED047A4648F8EEE77A67EE897AD3
:104F2000FDEEE77A17EE901A0BF02CFCF5E53B68E6
:104F3000DFF830810C930C9AD8F80030D31AB3F50F
:104F40007A7F2DD8424F3A780123337050E604928D
:104F50005BE7344A3F4B1288A3FB02139B0803EB29
:104F60008303D31A9BB2002B7FF4D7AD05E70194DE
:104F70000123B5F900202E4800930021F02302F010
:104F800063FB29882A4802F0BDFA2B6801332B60A5
:104F90005CE60293039593ED007ACDF810A034E718
:104FA000284B2D4A1B68002BB8BFFF331B120BFB8D
:104FB00003F382FB0312DB17C3EB62134FF4FA72A5
:104FC00002FB03F3254A18461360FFF791FC3B6888
:104FD0000B930B9AD9F80030C8F80020BAE540F2DC
:104FE0008F23ECE54FF40023E9E54FF6E0700090E5
:104FF0002B46424659460E4801F006FD32E7184955
:1050000081FB0210D217C2EB60021B02D21003F424
:10501000784342F4FC6213439BB21DE57C6300209D
:1050200080E90120A44E0020743E00203466002058
:105030008063002078E90120CDCCCC3D00003442D3
:10504000000000002C6700206F12833A7890010066
:105050006F3E0020CDCCCCCCD34D62107C3E0020E6
:10506000398EE338386600200D491B0202930D4B40
:1050700081FB0210D117401A83FB0232029BC00051
:1050800003F4784300F4FC60C1EB62020343C2F313
:10509000C4021343E0E4029BC3ED006A5BE600BF79
:1050A00056555555398EE33838B5104B1049114ACD
:1050B000114D00EB400003EB8003012498685B680E
:1050C0000B6028601460FEF713F9C8200BF0D4FEC3
:1050D0000A4B1868FFF70CFC094B14201C600BF0FE
:1050E000CBFEBDE83840FFF76FB800BF488F010026
:1050F0006068002088E100E02C6700207C3E0020F2
:1051000008E100E010B50D4806F0BEFD0C4A0D4B5D
:10511000106800241C70FFF7C7FF0B4A0B4B106888
:105120001860FFF7E5FB0A4B0A491C624FF4803216
:10513000CC618A61DA619A6110BD00BFE8E80120A4
:1051400078630020E4E80120945B00207C3E00208E
:10515000F4660020FC6500202DE9F04196B0A8B966
:10516000AA4AAB49AB4B12680D681B680E21C2B945
:10517000EB1848BF01F1FF338B4270DB002300289E
:1051800078D1A44A136016B0BDE8F0810128FAD1A5
:10519000A14AA249A24B12680D681B680321002A8C
:1051A000E6D0012AEFD1002DEDD00446002B68D1C6
:1051B0009C490A782A4452B2002AC0F20E815A2A27
:1051C0001346A8BF5A2307EE903A9FED976ADFED8A
:1051D000976AB8EEE77ADFED967A27EE067AE7EE81
:1051E000267AFCEEE77ACDED037A924A0B7001261F
:1051F00016600399904805F059FF904B1E60DFF848
:105200001482D8F80030062B60D0072B48D0082B2A
:1052100000F0B2800B2BB6D17C4B1B68012B00F049
:10522000CE807F4B1B68072BADD17B4B1B68012BBE
:10523000A9D1834B1B78022BA5D1824C774B2268D6
:105240001B681344052BA8BF052323EAE373184604
:105250002360FFF729FF7C4B22681A6093E77B4AA3
:105260001278002A8BD1A3F10B02012A98BF0023E8
:10527000002886D0012886D1694A136016B0BDE89F
:10528000F081092B40F08880714A13782B445BB27F
:10529000042B40F38E801E2BA8BF1E231370AEE795
:1052A0005A4B1B68012B7FF46EAF664A584B11684E
:1052B0001B680B440D2BA8BF0D2323EAE37318468C
:1052C0001360FFF7F1FED8F80030A0E7002C7FF460
:1052D0005AAF604F604E3B680693069B32689B1A3C
:1052E000B3F5FA7F09D2F92B00F23D81632B8BBF16
:1052F0000A23C5EB05135D439D0003F017FC08A9C5
:10530000284403F0BDFA08A803F092FB0BF088FDD7
:10531000524C08A803F08CFB03F058FC20463222C4
:10532000502103F027FA0022142320460192009313
:105330003222A023502101F0F1FC494A494B116867
:10534000A3610DA809F0F2FD0DA90EC90AA80191EB
:1053500000920921444A10F02BF80AA810F070F9C5
:105360000AA9024620460BF083F93B680793079A87
:10537000D8F80030326048E7244B1B68012B7FF4DB
:1053800002AF234B39491A680868394B024413406D
:10539000002B26DB0B60F6E60A2B27D1354A137863
:1053A0002B445BB20E2B07DD232BA8BF23231370E6
:1053B00025E70523137022E70F2313701FE7144A14
:1053C0002D4910680B682D4A1B18126807D4013A42
:1053D0009342A8BF13460B6023E7039305E700231E
:1053E000F9E7013B63F001030133D3E70D2B49D10A
:1053F00023490B782B445BB2002B04DD232BA8BF81
:1054000023230B70FBE613460B70F8E6F86B0220C3
:105410003C6800204068002064630020984E002013
:10542000A04E0020783E00200AD7233C0000014314
:10543000EE7CFF3E88E100E0F84E002008E100E04D
:10544000B84E0020703E0020203E0020F54E002087
:10545000613E0020F8740220C45B002080630020BD
:1054600000D00340B4CE0100D89001004468002071
:1054700001000080803E002054E901209C6600204D
:10548000103E0020012B18D1384A13782B445BB210
:10549000002B63DB3F2BA8BF3F2318461370FFF799
:1054A0000FFA334A334B00201060002103F50072DD
:1054B00043F8041B9342FBD1A1E6022B32D12E4FBD
:1054C0002E4E3B680493049B32689B1AB3F5FA7F17
:1054D00041D2F92B44D8642B41F2883328BF4FF4D2
:1054E000FA632749274A0868126803FB050341F657
:1054F000573083422CDD244880FB02E0D243D20F98
:10550000C2EBE0124FF47A7000FB02F29342A8BFA4
:10551000134618460B60FFF7EBF93B680593059BB4
:1055200033606CE6042B03D1114B00221A6066E64F
:10553000032B7FF464AE1549154A0B780133DBB2B7
:10554000A2FB0302520802EB42029B1A0B7056E6C2
:1055500041F65833DDE74FF4FA73C2E700239CE7C6
:105560004FF47A73BDE705EB8505C6E6183E0020CB
:1055700064680020044F0020F8740220C45B0020FF
:105580007C3E00202C670020D34D621078EB012078
:10559000ABAAAAAAF0B5244D244F254E83B0FDF73F
:1055A000EBFF28460021002401F0ACFF4FF4A0736C
:1055B00022462846214600930194F02301F0AEFBD9
:1055C00028464DF29A6103F0F1F81A4BAB6121467F
:1055D0002846642203F0CEF80922174928460BF02A
:1055E00047F8384610F02CF83946024628460BF0AA
:1055F0003FF8124BAB61FEF7E7FD1148114D05F086
:105600009DFF114A114B1249946130464FF480328C
:10561000DC619A612C600C6006F040FC012386F886
:10562000F63003B0F0BD00BF80630020A06600200C
:1056300030670020D0CE0100E890010098CE010034
:10564000546600203466002080EB0120F4660020C0
:10565000A4630020F8B5264B264E1968264B012777
:1056600000224FF480350B29044637709A61DD61C2
:1056700032D00C2926D064200BF0FEFB0D2C2046E6
:10568000A8BF0D2020EAE070FFF70EFD1B4A1C4B5F
:1056900011681B68002928DB8B42A8BF0B4603EB6F
:1056A00043041849136003EB840319440D22164880
:1056B00010F034F8FEF788FD13491448BDE8F840AF
:1056C00006F00ABB1249134B09689D6102291A6250
:1056D00004BFDD619A61CEE70F480E4B0F490068A9
:1056E00008601D62DA619A61C5E70023D7E700BF51
:1056F00040680020E4E80120FC65002054E9012016
:105700009C66002004510020A0660020E8E80120EB
:1057100034660020F46600207C3E0020945B00206C
:1057200008B50A4B1B781BB1094B93F8403003B105
:1057300008BDFFF7E7FC074B1B78002BF8D0064BA2
:105740001868BDE80840FFF785BF00BFE4E8012006
:10575000E8E80120F8650020203E0020F8B5744AF2
:10576000137C012B7BD972B6D36862B6714E724D31
:105770003268002BB8BF03339C10944228DD01230C
:105780002B600120FFF7E8FC6C4A3460137C012B8E
:105790002BD972B6D36862B6694E6A4F3268002B55
:1057A000B8BF03339C1094420DDD01233B60002001
:1057B000FFF7D2FC2B6834600BB93B686BB1BDE8D6
:1057C000F840FEF701BD47DA4FF0FF333B60EEE7EC
:1057D00004DA4FF0FF332B60D3E7F8BD574A34604B
:1057E00000232B60137C012BD3D872B6136850684A
:1057F00019780478507A137A044201EA03016FD0D1
:10580000937A03F0030309B143F0040343F0080360
:105810009910013B91720D2BBCD801A151F823F0D6
:105820002959000021590000195900002159000090
:10583000955700001159000029590000295900000E
:105840001159000095570000215900001959000016
:10585000215900002959000000233B60AAE772B6D5
:105860001368506819780478507A137A044201EA70
:1058700003012DD0937A03F0030309B143F004032D
:1058800043F008039910013B91720D2B3FF66CAF6A
:1058900001A151F823F000BF09590000015900008F
:1058A000F95800000159000069570000F158000044
:1058B0000959000009590000F1580000695700001B
:1058C00001590000F9580000015900000959000071
:1058D000937A03F003030029D4D043F00403D1E703
:1058E000937A03F00303002992D043F004038FE777
:1058F000D368023BD36038E7D3680233D36034E720
:10590000D368013BD36030E7D3680133D3602CE721
:10591000D368023BD3603EE7D3680233D3603AE7F3
:10592000D368013BD36036E7D3680133D36032E7F5
:105930003C660020F0660020984E0020E04E0020DB
:10594000D84E00203C68002070B5764C257845B1D3
:10595000754802F065FF744802F088FF002870D196
:1059600070BD724802F05CFF714802F059FF6E484A
:1059700002F056FF6F4802F053FF6E4802F076FFC8
:1059800070B16D4B1A78002A62D16C4A13680133EA
:10599000042BC8BF00231360FDF7F2FFFEF714FCD1
:1059A000614802F063FFF8B1654D2978B1B9654EE1
:1059B000654B3268013283FB0203A3EBE27303EB16
:1059C0004303D31A022B336000F09D80012B00F0BB
:1059D000918000215D4801F05FFB297802293ED0CB
:1059E000012950D0FEF7F0FB504802F03FFFC8B14C
:1059F000574D584E2C683368B4FA84F46409032B6D
:105A00002C6037D0082B64D0534B1B7843B13368DC
:105A10002C680B2B47D01CB9494B1A78022A77D037
:105A2000FEF7D2FB424802F021FF002898D04B4AF3
:105A30001368B3FA83F35B09BDE870401360FEF7A7
:105A4000C3BBFDF755FEFEF7BFFB0023237070BDFF
:105A500035481D7002F00AFF0028C5D0A4E7404E6B
:105A60003378D3B93F4A012310683370FFF7F2FD52
:105A70002978B5E7384B3C49314A1B7809781170D1
:105A8000002BC8D1CCE72378264A002BAAD111706D
:105A9000FEF79AFBFFF77EFDA4E7FFF733FB002339
:105AA000297833709CE7012C294DB4D12D4E2F4B12
:105AB000234A2F49366818681E6002231370086055
:105AC000FDF7CEFC254A2B4B146007222C681A6088
:105AD000A1E7FDF7F7FE4FF4827200211B4802F0A8
