:1000000000000320D1010000512301000923010059
:10001000092301000923010009230100092301002C
:1000200009230100092301000923010051230100D4
:10003000512301000923010045380100493901001D
:1000400051230100512301005123010051230100DC
:1000500051230100512301005123010051230100CC
:1000600051230100512301005123010051230100BC
:1000700051230100512301005123010051230100AC
:10008000512301005123010051230100512301009C
:10009000512301005123010051230100512301008C
:1000A000C5520100D152010051230100512301002A
:1000B0005123010051230100512301009139010016
:1000C00051230100BD3A010051230100E93B010029
:1000D00051230100E13C01005123010051230100A3
:1000E000512301005123010051230100512301003C
:1000F000512301005123010051230100512301002C
:10010000512301005123010051230100512301001B
:1001100051230100DD290100512301005123010079
:1001200051230100512301005123010051230100FB
:1001300051230100512301005123010051230100EB
:100140003118010051230100D93D01005123010064
:1001500051230100512301005123010051230100CB
:100160005123010051230100DD5201005123010000
:1001700051230100512301005123010051230100AB
:10018000512301005123010051230100512301009B
:100190005123010051230100D13E010051230100F0
:1001A000512301005123010051230100512301007B
:1001B000512301005123010051230100512301006B
:1001C000512301005123010051230100512301005B
:1001D0005C4B4CF2205210B51A804DF628121A8052
:1001E00000BF00BF12F0B8F8574B4FF030621A60F2
:1001F000564A9A60564ADA60564B4FF470021A60BB
:10020000554B564A1A60564A136813F4807304D14A
:1002100054490B604FF4A8531360534B1A781107DD
:1002200003D51A7842F008021A70504B5049AA229E
:100230001A70504A504B8B4204D252F8040F43F8C4
:10024000040BF8E74D4B4E4900228B4202D243F893
:10025000042BFAE74B494C4A002352F8230041F89B
:1002600023000133742BF8D1484B494A802103F80D
:10027000011B9342FBD1474B424A1A60464B8A22EC
:100280001A70A3F5805324225A70A0221A709A790A
:100290009207FCD59A79D406FCD4404A937903F0AE
:1002A0000C03082BFAD13E4B60221A7002331A78E5
:1002B000802AFCD1394B01221A715D225A719A7938
:1002C0009006FCD59979354A4906FBD5354B364918
:1002D00019600021596020231370937903F00C03F7
:1002E0000C2BFAD1314B324A1A60324B324A1A6027
:1002F00000225A60072243F8042C304AC3F80C2D20
:1003000062B612F00FFA174B1B68DA0705D52C48B6
:1003100012F08AF92B4B2C4A1A602C4B1B785B0687
:1003200009D5284C284B22689A4204D1244812F05F
:100330007BF90023236015F0DBFD12F013F811F0B8
:1003400041FFFEE70E20054030800440823F04005C
:100350000100002B88ED00E0002008E0030000858C
:1003600010D0034014D0034002D0074000E0074003
:10037000184C0020FCE80200303D0020204C0020FA
:10038000D0A90220003800200000000000E400E0B6
:1003900064E400E008ED00E0005006400040064044
:1003A00001E007404480044000000602048004404D
:1003B000C010070014E000E01FBF02000000202072
:1003C00066805A5D1CE00340A5C3945A00F00740C4
:1003D000FFFFFFFFFFFFFFFFFFFFFFFFFFFFFFFF2D
:1003E000FFFFFFFFFFFFFFFFFFFFFFFFFFFFFFFF1D
:1003F000FFFFFFFFFFFFFFFFFFFFFFFFFFFFFFFF0D
:10040000FFFFFFFFFFFFFFFFFFFFFFFFDEF9FFFF23
:1004100010B5054C237833B9044B13B10448AFF33E
:1004200000800123237010BD204C0020000000003C
:10043000F8E80200084B10B51BB108490848AFF3B3
:1004400000800848036803B910BD074B002BFBD0A0
:10045000BDE81040184700BF00000000244C0020F9
:10046000F8E80200184C00200000000012F0D6B896
:1004700010B5044B044640F8183B06F0B9F8204686
:1004800010BD00BFBCAF010010B5044611F088F9E3
:10049000204610BD214B10B4D3F8BC20136850681F
:1004A00019780478507A137A044201EA03011BD0C8
:1004B000937A03F0030309B143F0040343F0080304
:1004C0009910013B91720D2B0BD8DFE803F0210747
:1004D0001B070A152121150A071B0721D368013BB9
:1004E000D3605DF8044B7047937A03F0030300294F
:1004F000E6D043F00403E3E7D3685DF8044B023B26
:10050000D3607047D3685DF8044B0233D360704703
:10051000D3685DF8044B0133D3607047309F0220ED
:10052000214B10B4D3F8C0201368506819780478B0
:10053000507A137A044201EA03011BD0937A03F044
:10054000030309B143F0040343F008039910013B8E
:1005500091720D2B0BD8DFE803F021071B070A155A
:100560002121150A071B0721D368013BD3605DF8E1
:10057000044B7047937A03F003030029E6D043F05D
:100580000403E3E7D3685DF8044B023BD360704794
:10059000D3685DF8044B0233D3607047D3685DF8CD
:1005A000044B0133D3607047309F0220214B10B4BD
:1005B000D3F8C4201368506819780478507A137AF5
:1005C000044201EA03011BD0937A03F0030309B14B
:1005D00043F0040343F008039910013B91720D2B83
:1005E0000BD8DFE803F021071B070A152121150AA4
:1005F000071B0721D368013BD3605DF8044B7047AC
:10060000937A03F003030029E6D043F00403E3E701
:10061000D3685DF8044B023BD3607047D3685DF844
:10062000044B0233D3607047D3685DF8044B013349
:10063000D3607047309F0220214B10B4D3F8C820FC
:100640001368506819780478507A137A044201EAE2
:1006500003011BD0937A03F0030309B143F00403B1
:1006600043F008039910013B91720D2B0BD8DFE882
:1006700003F021071B070A152121150A071B072173
:10068000D368013BD3605DF8044B7047937A03F065
:1006900003030029E6D043F00403E3E7D3685DF8E1
:1006A000044B023BD3607047D3685DF8044B0233C0
:1006B000D3607047D3685DF8044B0133D360704753
:1006C000309F0220214B10B4D3F8CC20136850681F
:1006D00019780478507A137A044201EA03011BD096
:1006E000937A03F0030309B143F0040343F00803D2
:1006F0009910013B91720D2B0BD8DFE803F0210715
:100700001B070A152121150A071B0721D368013B86
:10071000D3605DF8044B7047937A03F0030300291C
:10072000E6D043F00403E3E7D3685DF8044B023BF3
:10073000D3607047D3685DF8044B0233D3607047D1
:10074000D3685DF8044B0133D3607047309F0220BB
:10075000214B10B4D3F8D02013685068197804786E
:10076000507A137A044201EA03011BD0937A03F012
:10077000030309B143F0040343F008039910013B5C
:1007800091720D2B0BD8DFE803F021071B070A1528
:100790002121150A071B0721D368013BD3605DF8AF
:1007A000044B7047937A03F003030029E6D043F02B
:1007B0000403E3E7D3685DF8044B023BD360704762
:1007C000D3685DF8044B0233D3607047D3685DF89B
:1007D000044B0133D3607047309F0220214B10B48B
:1007E000D3F8D4201368506819780478507A137AB3
:1007F000044201EA03011BD0937A03F0030309B119
:1008000043F0040343F008039910013B91720D2B50
:100810000BD8DFE803F021071B070A152121150A71
:10082000071B0721D368013BD3605DF8044B704779
:10083000937A03F003030029E6D043F00403E3E7CF
:10084000D3685DF8044B023BD3607047D3685DF812
:10085000044B0233D3607047D3685DF8044B013317
:10086000D3607047309F0220214B10B4D3F8D820BA
:100870001368506819780478507A137A044201EAB0
:1008800003011BD0937A03F0030309B143F004037F
:1008900043F008039910013B91720D2B0BD8DFE850
:1008A00003F021071B070A152121150A071B072141
:1008B000D368013BD3605DF8044B7047937A03F033
:1008C00003030029E6D043F00403E3E7D3685DF8AF
:1008D000044B023BD3607047D3685DF8044B02338E
:1008E000D3607047D3685DF8044B0133D360704721
:1008F000309F0220214B10B4D3F8DC2013685068DD
:1009000019780478507A137A044201EA03011BD063
:10091000937A03F0030309B143F0040343F008039F
:100920009910013B91720D2B0BD8DFE803F02107E2
:100930001B070A152121150A071B0721D368013B54
:10094000D3605DF8044B7047937A03F003030029EA
:10095000E6D043F00403E3E7D3685DF8044B023BC1
:10096000D3607047D3685DF8044B0233D36070479F
:10097000D3685DF8044B0133D3607047309F022089
:10098000214B10B4D3F8E02013685068197804782C
:10099000507A137A044201EA03011BD0937A03F0E0
:1009A000030309B143F0040343F008039910013B2A
:1009B00091720D2B0BD8DFE803F021071B070A15F6
:1009C0002121150A071B0721D368013BD3605DF87D
:1009D000044B7047937A03F003030029E6D043F0F9
:1009E0000403E3E7D3685DF8044B023BD360704730
:1009F000D3685DF8044B0233D3607047D3685DF869
:100A0000044B0133D3607047309F0220214B10B458
:100A1000D3F8E4201368506819780478507A137A70
:100A2000044201EA03011BD0937A03F0030309B1E6
:100A300043F0040343F008039910013B91720D2B1E
:100A40000BD8DFE803F021071B070A152121150A3F
:100A5000071B0721D368013BD3605DF8044B704747
:100A6000937A03F003030029E6D043F00403E3E79D
:100A7000D3685DF8044B023BD3607047D3685DF8E0
:100A8000044B0233D3607047D3685DF8044B0133E5
:100A9000D3607047309F0220214B10B4D3F8E82078
:100AA0001368506819780478507A137A044201EA7E
:100AB00003011BD0937A03F0030309B143F004034D
:100AC00043F008039910013B91720D2B0BD8DFE81E
:100AD00003F021071B070A152121150A071B07210F
:100AE000D368013BD3605DF8044B7047937A03F001
:100AF00003030029E6D043F00403E3E7D3685DF87D
:100B0000044B023BD3607047D3685DF8044B02335B
:100B1000D3607047D3685DF8044B0133D3607047EE
:100B2000309F0220214B10B4D3F8EC20136850689A
:100B300019780478507A137A044201EA03011BD031
:100B4000937A03F0030309B143F0040343F008036D
:100B50009910013B91720D2B0BD8DFE803F02107B0
:100B60001B070A152121150A071B0721D368013B22
:100B7000D3605DF8044B7047937A03F003030029B8
:100B8000E6D043F00403E3E7D3685DF8044B023B8F
:100B9000D3607047D3685DF8044B0233D36070476D
:100BA000D3685DF8044B0133D3607047309F022057
:100BB000214B10B41A681368506819780478507A79
:100BC000137A044201EA03011BD0937A03F0030372
:100BD00009B143F0040343F008039910013B9172FB
:100BE0000D2B0BD8DFE803F021071B070A15212185
:100BF000150A071B0721D368013BD3605DF8044B3E
:100C00007047937A03F003030029E6D043F004030E
:100C1000E3E7D3685DF8044B023BD3607047D368C9
:100C20005DF8044B0233D3607047D3685DF8044B22
:100C30000133D360704700BF309F0220214B10B4B6
:100C40005A681368506819780478507A137A044205
:100C500001EA03011BD0937A03F0030309B143F0C7
:100C6000040343F008039910013B91720D2B0BD83C
:100C7000DFE803F021071B070A152121150A071BCE
:100C80000721D368013BD3605DF8044B7047937A2A
:100C900003F003030029E6D043F00403E3E7D3683D
:100CA0005DF8044B023BD3607047D3685DF8044B9A
:100CB0000233D3607047D3685DF8044B0133D360CF
:100CC000704700BF309F0220214B10B49A68136810
:100CD000506819780478507A137A044201EA0301C3
:100CE0001BD0937A03F0030309B143F0040343F0EC
:100CF00008039910013B91720D2B0BD8DFE803F02C
:100D000021071B070A152121150A071B0721D36894
:100D1000013BD3605DF8044B7047937A03F0030303
:100D20000029E6D043F00403E3E7D3685DF8044B01
:100D3000023BD3607047D3685DF8044B0233D36045
:100D40007047D3685DF8044B0133D360704700BF30
:100D5000309F0220214B10B4DA681368506819786C
:100D60000478507A137A044201EA03011BD0937A83
:100D700003F0030309B143F0040343F0080399109F
:100D8000013B91720D2B0BD8DFE803F021071B0705
:100D90000A152121150A071B0721D368013BD360DF
:100DA0005DF8044B7047937A03F003030029E6D003
:100DB00043F00403E3E7D3685DF8044B023BD360E0
:100DC0007047D3685DF8044B0233D3607047D36833
:100DD0005DF8044B0133D360704700BF309F0220A1
:100DE000214B10B41A691368506819780478507A46
:100DF000137A044201EA03011BD0937A03F0030340
:100E000009B143F0040343F008039910013B9172C8
:100E10000D2B0BD8DFE803F021071B070A15212152
:100E2000150A071B0721D368013BD3605DF8044B0B
:100E30007047937A03F003030029E6D043F00403DC
:100E4000E3E7D3685DF8044B023BD3607047D36897
:100E50005DF8044B0233D3607047D3685DF8044BF0
:100E60000133D360704700BF309F0220214B10B484
:100E70005A691368506819780478507A137A0442D2
:100E800001EA03011BD0937A03F0030309B143F095
:100E9000040343F008039910013B91720D2B0BD80A
:100EA000DFE803F021071B070A152121150A071B9C
:100EB0000721D368013BD3605DF8044B7047937AF8
:100EC00003F003030029E6D043F00403E3E7D3680B
:100ED0005DF8044B023BD3607047D3685DF8044B68
:100EE0000233D3607047D3685DF8044B0133D3609D
:100EF000704700BF309F0220214B10B49A691368DD
:100F0000506819780478507A137A044201EA030190
:100F10001BD0937A03F0030309B143F0040343F0B9
:100F200008039910013B91720D2B0BD8DFE803F0F9
:100F300021071B070A152121150A071B0721D36862
:100F4000013BD3605DF8044B7047937A03F00303D1
:100F50000029E6D043F00403E3E7D3685DF8044BCF
:100F6000023BD3607047D3685DF8044B0233D36013
:100F70007047D3685DF8044B0133D360704700BFFE
:100F8000309F0220214B10B4DA6913685068197839
:100F90000478507A137A044201EA03011BD0937A51
:100FA00003F0030309B143F0040343F0080399106D
:100FB000013B91720D2B0BD8DFE803F021071B07D3
:100FC0000A152121150A071B0721D368013BD360AD
:100FD0005DF8044B7047937A03F003030029E6D0D1
:100FE00043F00403E3E7D3685DF8044B023BD360AE
:100FF0007047D3685DF8044B0233D3607047D36801
:101000005DF8044B0133D360704700BF309F02206E
:10101000214B10B41A6A1368506819780478507A12
:10102000137A044201EA03011BD0937A03F003030D
:1010300009B143F0040343F008039910013B917296
:101040000D2B0BD8DFE803F021071B070A15212120
:10105000150A071B0721D368013BD3605DF8044BD9
:101060007047937A03F003030029E6D043F00403AA
:10107000E3E7D3685DF8044B023BD3607047D36865
:101080005DF8044B0233D3607047D3685DF8044BBE
:101090000133D360704700BF309F0220214B10B452
:1010A0005A6A1368506819780478507A137A04429F
:1010B00001EA03011BD0937A03F0030309B143F063
:1010C000040343F008039910013B91720D2B0BD8D8
:1010D000DFE803F021071B070A152121150A071B6A
:1010E0000721D368013BD3605DF8044B7047937AC6
:1010F00003F003030029E6D043F00403E3E7D368D9
:101100005DF8044B023BD3607047D3685DF8044B35
:101110000233D3607047D3685DF8044B0133D3606A
:10112000704700BF309F0220214B10B49A6A1368A9
:10113000506819780478507A137A044201EA03015E
:101140001BD0937A03F0030309B143F0040343F087
:1011500008039910013B91720D2B0BD8DFE803F0C7
:1011600021071B070A152121150A071B0721D36830
:10117000013BD3605DF8044B7047937A03F003039F
:101180000029E6D043F00403E3E7D3685DF8044B9D
:10119000023BD3607047D3685DF8044B0233D360E1
:1011A0007047D3685DF8044B0133D360704700BFCC
:1011B000309F0220214B10B4DA6A13685068197806
:1011C0000478507A137A044201EA03011BD0937A1F
:1011D00003F0030309B143F0040343F0080399103B
:1011E000013B91720D2B0BD8DFE803F021071B07A1
:1011F0000A152121150A071B0721D368013BD3607B
:101200005DF8044B7047937A03F003030029E6D09E
:1012100043F00403E3E7D3685DF8044B023BD3607B
:101220007047D3685DF8044B0233D3607047D368CE
:101230005DF8044B0133D360704700BF309F02203C
:10124000214B10B41A6B1368506819780478507ADF
:10125000137A044201EA03011BD0937A03F00303DB
:1012600009B143F0040343F008039910013B917264
:101270000D2B0BD8DFE803F021071B070A152121EE
:10128000150A071B0721D368013BD3605DF8044BA7
:101290007047937A03F003030029E6D043F0040378
:1012A000E3E7D3685DF8044B023BD3607047D36833
:1012B0005DF8044B0233D3607047D3685DF8044B8C
:1012C0000133D360704700BF309F0220214B10B420
:1012D0005A6B1368506819780478507A137A04426C
:1012E00001EA03011BD0937A03F0030309B143F031
:1012F000040343F008039910013B91720D2B0BD8A6
:10130000DFE803F021071B070A152121150A071B37
:101310000721D368013BD3605DF8044B7047937A93
:1013200003F003030029E6D043F00403E3E7D368A6
:101330005DF8044B023BD3607047D3685DF8044B03
:101340000233D3607047D3685DF8044B0133D36038
:10135000704700BF309F0220214B10B49A6B136876
:10136000506819780478507A137A044201EA03012C
:101370001BD0937A03F0030309B143F0040343F055
:1013800008039910013B91720D2B0BD8DFE803F095
:1013900021071B070A152121150A071B0721D368FE
:1013A000013BD3605DF8044B7047937A03F003036D
:1013B0000029E6D043F00403E3E7D3685DF8044B6B
:1013C000023BD3607047D3685DF8044B0233D360AF
:1013D0007047D3685DF8044B0133D360704700BF9A
:1013E000309F0220214B10B4DA6B136850681978D3
:1013F0000478507A137A044201EA03011BD0937AED
:1014000003F0030309B143F0040343F00803991008
:10141000013B91720D2B0BD8DFE803F021071B076E
:101420000A152121150A071B0721D368013BD36048
:101430005DF8044B7047937A03F003030029E6D06C
:1014400043F00403E3E7D3685DF8044B023BD36049
:101450007047D3685DF8044B0233D3607047D3689C
:101460005DF8044B0133D360704700BF309F02200A
:10147000214B10B41A6C1368506819780478507AAC
:10148000137A044201EA03011BD0937A03F00303A9
:1014900009B143F0040343F008039910013B917232
:1014A0000D2B0BD8DFE803F021071B070A152121BC
:1014B000150A071B0721D368013BD3605DF8044B75
:1014C0007047937A03F003030029E6D043F0040346
:1014D000E3E7D3685DF8044B023BD3607047D36801
:1014E0005DF8044B0233D3607047D3685DF8044B5A
:1014F0000133D360704700BF309F0220214B10B4EE
:101500005A6C1368506819780478507A137A044238
:1015100001EA03011BD0937A03F0030309B143F0FE
:10152000040343F008039910013B91720D2B0BD873
:10153000DFE803F021071B070A152121150A071B05
:101540000721D368013BD3605DF8044B7047937A61
:1015500003F003030029E6D043F00403E3E7D36874
:101560005DF8044B023BD3607047D3685DF8044BD1
:101570000233D3607047D3685DF8044B0133D36006
:10158000704700BF309F0220214B10B49A6C136843
:10159000506819780478507A137A044201EA0301FA
:1015A0001BD0937A03F0030309B143F0040343F023
:1015B00008039910013B91720D2B0BD8DFE803F063
:1015C00021071B070A152121150A071B0721D368CC
:1015D000013BD3605DF8044B7047937A03F003033B
:1015E0000029E6D043F00403E3E7D3685DF8044B39
:1015F000023BD3607047D3685DF8044B0233D3607D
:101600007047D3685DF8044B0133D360704700BF67
:10161000309F0220214B10B4DA6C1368506819789F
:101620000478507A137A044201EA03011BD0937ABA
:1016300003F0030309B143F0040343F008039910D6
:10164000013B91720D2B0BD8DFE803F021071B073C
:101650000A152121150A071B0721D368013BD36016
:101660005DF8044B7047937A03F003030029E6D03A
:1016700043F00403E3E7D3685DF8044B023BD36017
:101680007047D3685DF8044B0233D3607047D3686A
:101690005DF8044B0133D360704700BF309F0220D8
:1016A000214B10B41A6D1368506819780478507A79
:1016B000137A044201EA03011BD0937A03F0030377
:1016C00009B143F0040343F008039910013B917200
:1016D0000D2B0BD8DFE803F021071B070A1521218A
:1016E000150A071B0721D368013BD3605DF8044B43
:1016F0007047937A03F003030029E6D043F0040314
:10170000E3E7D3685DF8044B023BD3607047D368CE
:101710005DF8044B0233D3607047D3685DF8044B27
:101720000133D360704700BF309F0220214B10B4BB
:101730005A6D1368506819780478507A137A044205
:1017400001EA03011BD0937A03F0030309B143F0CC
:10175000040343F008039910013B91720D2B0BD841
:10176000DFE803F021071B070A152121150A071BD3
:101770000721D368013BD3605DF8044B7047937A2F
:1017800003F003030029E6D043F00403E3E7D36842
:101790005DF8044B023BD3607047D3685DF8044B9F
:1017A0000233D3607047D3685DF8044B0133D360D4
:1017B000704700BF309F0220214B10B49A6D136810
:1017C000506819780478507A137A044201EA0301C8
:1017D0001BD0937A03F0030309B143F0040343F0F1
:1017E00008039910013B91720D2B0BD8DFE803F031
:1017F00021071B070A152121150A071B0721D3689A
:10180000013BD3605DF8044B7047937A03F0030308
:101810000029E6D043F00403E3E7D3685DF8044B06
:10182000023BD3607047D3685DF8044B0233D3604A
:101830007047D3685DF8044B0133D360704700BF35
:10184000309F0220214B10B4DA6D1368506819786C
:101850000478507A137A044201EA03011BD0937A88
:1018600003F0030309B143F0040343F008039910A4
:10187000013B91720D2B0BD8DFE803F021071B070A
:101880000A152121150A071B0721D368013BD360E4
:101890005DF8044B7047937A03F003030029E6D008
:1018A00043F00403E3E7D3685DF8044B023BD360E5
:1018B0007047D3685DF8044B0233D3607047D36838
:1018C0005DF8044B0133D360704700BF309F0220A6
:1018D000214B10B41A6E1368506819780478507A46
:1018E000137A044201EA03011BD0937A03F0030345
:1018F00009B143F0040343F008039910013B9172CE
:101900000D2B0BD8DFE803F021071B070A15212157
:10191000150A071B0721D368013BD3605DF8044B10
:101920007047937A03F003030029E6D043F00403E1
:10193000E3E7D3685DF8044B023BD3607047D3689C
:101940005DF8044B0233D3607047D3685DF8044BF5
:101950000133D360704700BF309F0220214B10B489
:101960005A6E1368506819780478507A137A0442D2
:1019700001EA03011BD0937A03F0030309B143F09A
:10198000040343F008039910013B91720D2B0BD80F
:10199000DFE803F021071B070A152121150A071BA1
:1019A0000721D368013BD3605DF8044B7047937AFD
:1019B00003F003030029E6D043F00403E3E7D36810
:1019C0005DF8044B023BD3607047D3685DF8044B6D
:1019D0000233D3607047D3685DF8044B0133D360A2
:1019E000704700BF309F0220214B10B49A6E1368DD
:1019F000506819780478507A137A044201EA030196
:101A00001BD0937A03F0030309B143F0040343F0BE
:101A100008039910013B91720D2B0BD8DFE803F0FE
:101A200021071B070A152121150A071B0721D36867
:101A3000013BD3605DF8044B7047937A03F00303D6
:101A40000029E6D043F00403E3E7D3685DF8044BD4
:101A5000023BD3607047D3685DF8044B0233D36018
:101A60007047D3685DF8044B0133D360704700BF03
:101A7000309F0220214B10B4DA6E13685068197839
:101A80000478507A137A044201EA03011BD0937A56
:101A900003F0030309B143F0040343F00803991072
:101AA000013B91720D2B0BD8DFE803F021071B07D8
:101AB0000A152121150A071B0721D368013BD360B2
:101AC0005DF8044B7047937A03F003030029E6D0D6
:101AD00043F00403E3E7D3685DF8044B023BD360B3
:101AE0007047D3685DF8044B0233D3607047D36806
:101AF0005DF8044B0133D360704700BF309F022074
:101B0000214B10B41A6F1368506819780478507A12
:101B1000137A044201EA03011BD0937A03F0030312
:101B200009B143F0040343F008039910013B91729B
:101B30000D2B0BD8DFE803F021071B070A15212125
:101B4000150A071B0721D368013BD3605DF8044BDE
:101B50007047937A03F003030029E6D043F00403AF
:101B6000E3E7D3685DF8044B023BD3607047D3686A
:101B70005DF8044B0233D3607047D3685DF8044BC3
:101B80000133D360704700BF309F0220214B10B457
:101B90005A6F1368506819780478507A137A04429F
:101BA00001EA03011BD0937A03F0030309B143F068
:101BB000040343F008039910013B91720D2B0BD8DD
:101BC000DFE803F021071B070A152121150A071B6F
:101BD0000721D368013BD3605DF8044B7047937ACB
:101BE00003F003030029E6D043F00403E3E7D368DE
:101BF0005DF8044B023BD3607047D3685DF8044B3B
:101C00000233D3607047D3685DF8044B0133D3606F
:101C1000704700BF309F0220214B10B49A6F1368A9
:101C2000506819780478507A137A044201EA030163
:101C30001BD0937A03F0030309B143F0040343F08C
:101C400008039910013B91720D2B0BD8DFE803F0CC
:101C500021071B070A152121150A071B0721D36835
:101C6000013BD3605DF8044B7047937A03F00303A4
:101C70000029E6D043F00403E3E7D3685DF8044BA2
:101C8000023BD3607047D3685DF8044B0233D360E6
:101C90007047D3685DF8044B0133D360704700BFD1
:101CA000309F0220214B10B4DA6F13685068197806
:101CB0000478507A137A044201EA03011BD0937A24
:101CC00003F0030309B143F0040343F00803991040
:101CD000013B91720D2B0BD8DFE803F021071B07A6
:101CE0000A152121150A071B0721D368013BD36080
:101CF0005DF8044B7047937A03F003030029E6D0A4
:101D000043F00403E3E7D3685DF8044B023BD36080
:101D10007047D3685DF8044B0233D3607047D368D3
:101D20005DF8044B0133D360704700BF309F022041
:101D3000214B10B4D3F880201368506819780478C8
:101D4000507A137A044201EA03011BD0937A03F01C
:101D5000030309B143F0040343F008039910013B66
:101D600091720D2B0BD8DFE803F021071B070A1532
:101D70002121150A071B0721D368013BD3605DF8B9
:101D8000044B7047937A03F003030029E6D043F035
:101D90000403E3E7D3685DF8044B023BD36070476C
:101DA000D3685DF8044B0233D3607047D3685DF8A5
:101DB000044B0133D3607047309F0220214B10B495
:101DC000D3F884201368506819780478507A137A0D
:101DD000044201EA03011BD0937A03F0030309B123
:101DE00043F0040343F008039910013B91720D2B5B
:101DF0000BD8DFE803F021071B070A152121150A7C
:101E0000071B0721D368013BD3605DF8044B704783
:101E1000937A03F003030029E6D043F00403E3E7D9
:101E2000D3685DF8044B023BD3607047D3685DF81C
:101E3000044B0233D3607047D3685DF8044B013321
:101E4000D3607047309F0220214B10B4D3F8882014
:101E50001368506819780478507A137A044201EABA
:101E600003011BD0937A03F0030309B143F0040389
:101E700043F008039910013B91720D2B0BD8DFE85A
:101E800003F021071B070A152121150A071B07214B
:101E9000D368013BD3605DF8044B7047937A03F03D
:101EA00003030029E6D043F00403E3E7D3685DF8B9
:101EB000044B023BD3607047D3685DF8044B023398
:101EC000D3607047D3685DF8044B0133D36070472B
:101ED000309F0220214B10B4D3F88C201368506837
:101EE00019780478507A137A044201EA03011BD06E
:101EF000937A03F0030309B143F0040343F00803AA
:101F00009910013B91720D2B0BD8DFE803F02107EC
:101F10001B070A152121150A071B0721D368013B5E
:101F2000D3605DF8044B7047937A03F003030029F4
:101F3000E6D043F00403E3E7D3685DF8044B023BCB
:101F4000D3607047D3685DF8044B0233D3607047A9
:101F5000D3685DF8044B0133D3607047309F022093
:101F6000214B10B4D3F89020136850681978047886
:101F7000507A137A044201EA03011BD0937A03F0EA
:101F8000030309B143F0040343F008039910013B34
:101F900091720D2B0BD8DFE803F021071B070A1500
:101FA0002121150A071B0721D368013BD3605DF887
:101FB000044B7047937A03F003030029E6D043F003
:101FC0000403E3E7D3685DF8044B023BD36070473A
:101FD000D3685DF8044B0233D3607047D3685DF873
:101FE000044B0133D3607047309F0220214B10B463
:101FF000D3F894201368506819780478507A137ACB
:10200000044201EA03011BD0937A03F0030309B1F0
:1020100043F0040343F008039910013B91720D2B28
:102020000BD8DFE803F021071B070A152121150A49
:10203000071B0721D368013BD3605DF8044B704751
:10204000937A03F003030029E6D043F00403E3E7A7
:10205000D3685DF8044B023BD3607047D3685DF8EA
:10206000044B0233D3607047D3685DF8044B0133EF
:10207000D3607047309F0220214B10B4D3F89820D2
:102080001368506819780478507A137A044201EA88
:1020900003011BD0937A03F0030309B143F0040357
:1020A00043F008039910013B91720D2B0BD8DFE828
:1020B00003F021071B070A152121150A071B072119
:1020C000D368013BD3605DF8044B7047937A03F00B
:1020D00003030029E6D043F00403E3E7D3685DF887
:1020E000044B023BD3607047D3685DF8044B023366
:1020F000D3607047D3685DF8044B0133D3607047F9
:10210000309F0220214B10B4D3F89C2013685068F4
:1021100019780478507A137A044201EA03011BD03B
:10212000937A03F0030309B143F0040343F0080377
:102130009910013B91720D2B0BD8DFE803F02107BA
:102140001B070A152121150A071B0721D368013B2C
:10215000D3605DF8044B7047937A03F003030029C2
:10216000E6D043F00403E3E7D3685DF8044B023B99
:10217000D3607047D3685DF8044B0233D360704777
:10218000D3685DF8044B0133D3607047309F022061
:10219000214B10B4D3F8A020136850681978047844
:1021A000507A137A044201EA03011BD0937A03F0B8
:1021B000030309B143F0040343F008039910013B02
:1021C00091720D2B0BD8DFE803F021071B070A15CE
:1021D0002121150A071B0721D368013BD3605DF855
:1021E000044B7047937A03F003030029E6D043F0D1
:1021F0000403E3E7D3685DF8044B023BD360704708
:10220000D3685DF8044B0233D3607047D3685DF840
:10221000044B0133D3607047309F0220214B10B430
:10222000D3F8A4201368506819780478507A137A88
:10223000044201EA03011BD0937A03F0030309B1BE
:1022400043F0040343F008039910013B91720D2BF6
:102250000BD8DFE803F021071B070A152121150A17
:10226000071B0721D368013BD3605DF8044B70471F
:10227000937A03F003030029E6D043F00403E3E775
:10228000D3685DF8044B023BD3607047D3685DF8B8
:10229000044B0233D3607047D3685DF8044B0133BD
:1022A000D3607047309F0220214B10B4D3F8A82090
:1022B0001368506819780478507A137A044201EA56
:1022C00003011BD0937A03F0030309B143F0040325
:1022D00043F008039910013B91720D2B0BD8DFE8F6
:1022E00003F021071B070A152121150A071B0721E7
:1022F000D368013BD3605DF8044B7047937A03F0D9
:1023000003030029E6D043F00403E3E7D3685DF854
:10231000044B023BD3607047D3685DF8044B023333
:10232000D3607047D3685DF8044B0133D3607047C6
:10233000309F0220214B10B4D3F8AC2013685068B2
:1023400019780478507A137A044201EA03011BD009
:10235000937A03F0030309B143F0040343F0080345
:102360009910013B91720D2B0BD8DFE803F0210788
:102370001B070A152121150A071B0721D368013BFA
:10238000D3605DF8044B7047937A03F00303002990
:10239000E6D043F00403E3E7D3685DF8044B023B67
:1023A000D3607047D3685DF8044B0233D360704745
:1023B000D3685DF8044B0133D3607047309F02202F
:1023C000214B10B4D3F8B020136850681978047802
:1023D000507A137A044201EA03011BD0937A03F086
:1023E000030309B143F0040343F008039910013BD0
:1023F00091720D2B0BD8DFE803F021071B070A159C
:102400002121150A071B0721D368013BD3605DF822
:10241000044B7047937A03F003030029E6D043F09E
:102420000403E3E7D3685DF8044B023BD3607047D5
:10243000D3685DF8044B0233D3607047D3685DF80E
:10244000044B0133D3607047309F0220214B10B4FE
:10245000D3F8B4201368506819780478507A137A46
:10246000044201EA03011BD0937A03F0030309B18C
:1024700043F0040343F008039910013B91720D2BC4
:102480000BD8DFE803F021071B070A152121150AE5
:10249000071B0721D368013BD3605DF8044B7047ED
:1024A000937A03F003030029E6D043F00403E3E743
:1024B000D3685DF8044B023BD3607047D3685DF886
:1024C000044B0233D3607047D3685DF8044B01338B
:1024D000D3607047309F0220214B10B4D3F8B8204E
:1024E0001368506819780478507A137A044201EA24
:1024F00003011BD0937A03F0030309B143F00403F3
:1025000043F008039910013B91720D2B0BD8DFE8C3
:1025100003F021071B070A152121150A071B0721B4
:10252000D368013BD3605DF8044B7047937A03F0A6
:1025300003030029E6D043F00403E3E7D3685DF822
:10254000044B023BD3607047D3685DF8044B023301
:10255000D3607047D3685DF8044B0133D360704794
:10256000309F0220002310B4114C417202610460BC
:102570000372C36041B1194600E0026942F82310BA
:10258000427A01339A42F8DC0A4B1A680AB90CE025
:102590001A465369002BFBD15061002343618380AD
:1025A000C38083725DF8044B70471860F5E700BF85
:1025B0009CA70100D4A40220F8B5044615460E4697
:1025C0000846022110F056F82846022110F052F871
:1025D000984A994B52F83610012001F50077276090
:1025E000207252F83520607202F500770020676093
:1025F000E060013BFDD191F8003292F8002203F037
:102600000103D20744BF43F00203DBB2A3723B2EA7
:1026100000F20386DFE816F0F405EA05E005D605CA
:10262000CC05C205B805AE05A4059A05900586053A
:102630007C05720568055E0554054A0540053605AA
:102640002C05220518050E050405FA04F004E6041D
:10265000DC04D204C804BE04B304A8049D0492049C
:1026600087047C0428041E0414040A040004F603EE
:10267000EC03E203D803CE03C403BA03B003A603FA
:102680009C03920388037E0374036A0360033C0087
:102690006A4B6B49C3F8EC4004223B200FF042FF29
:1026A000012323743B2D00F2B585DFE815F00B0301
:1026B0000103F702ED02E302D902CF02C502BB0219
:1026C000B102A7029D02930289027F023102270212
:1026D0001D0213020902FF01F501EB01E101D7011F
:1026E000CD01C301B901AF01A5019B019101860193
:1026F0007B01700165015A014F01440139012E012E
:10270000230118010D010201F700EC00E100B800FF
:10271000AD00A20097008C00810076006B00600085
:1027200055004A003C00454B4549C3F8EC400422A3
:102730003B200FF0F7FE237C012213442374204634
:10274000F8BD3E4B3F49C3F8E84004223A200FF061
:10275000E9FE237C0122F0E7384B3B49C3F8E44013
:10276000042239200FF0DEFE237C0122E5E7334B03
:102770003649C3F8E040042238200FF0D3FE237C12
:102780000122DAE72D4B3249C3F8DC40042237201E
:102790000FF0C8FE237C0122CFE7284B2D49C3F858
:1027A000D840042236200FF0BDFE237C0122C4E76E
:1027B000224B2949C3F8D440042235200FF0B2FE41
:1027C000237C0122B9E71D4B2449C3F8D0400422E1
:1027D00034200FF0A7FE237C0122AEE7174B2049DF
:1027E000C3F8CC40042233200FF09CFE237C01224E
:1027F000A3E7124B1B49C3F8C840042232200FF054
:1028000091FE237C012298E70C4B1749C3F8C44082
:10281000042231200FF086FE237C01228DE7074B36
:102820001249C3F8C040042230200FF07BFE237C05
:10283000012282E758E90100C0D40100309F022044
:10284000250B0000990A00000D0A00008109000014
:10285000F508000069080000DD07000051070000CE
:10286000C506000039060000AD0500002105000086
:10287000AC4BAD49C3F8BC4004222F200FF052FEF0
:10288000237C012259E7A74BA849C3F8B84004228A
:102890002E200FF047FE237C01224EE7A14BA449D6
:1028A000C3F8B44004222D200FF03CFE237C01220B
:1028B00043E79C4B9F49C3F8B04004222C200FF003
:1028C00031FE237C012238E7964B9B49C3F8AC408C
:1028D00004222B200FF026FE237C01222DE7914BB2
:1028E0009649C3F8A84004222A200FF01BFE237C3F
:1028F000012222E78B4B9249C3F8A44004222920ED
:102900000FF010FE237C012217E7864B8D49C3F898
:10291000A040042228200FF005FE237C01220CE7B2
:10292000804B8949C3F89C40042227200FF0FAFD10
:10293000237C012201E77B4B8449C3F898400422A1
:1029400026200FF0EFFD237C0122F6E6754B80492F
:10295000C3F89440042225200FF0E4FD237C0122DB
:10296000EBE6704B7B49C3F89040042224200FF023
:10297000D9FD237C0122E0E66A4B7749C3F88C40FD
:10298000042223200FF0CEFD237C0122D5E6654BE7
:102990007249C3F88840042222200FF0C3FD237C33
:1029A0000122CAE65F4B6E49C3F88440042221200D
:1029B0000FF0B8FD237C0122BFE65A4B6949C3F8EA
:1029C0008040042220200FF0ADFD237C0122B4E6DC
:1029D000544B6549DC6704221F200FF0A3FD237CC4
:1029E0000122AAE64F4B61499C6704221E200FF08A
:1029F00099FD237C0122A0E64A4B5D495C670422D5
:102A00001D200FF08FFD237C012296E6454B59498E
:102A10001C6704221C200FF085FD237C01228CE61C
:102A2000404B5549DC6604221B200FF07BFD237CC4
:102A3000012282E63B4B51499C6604221A200FF08A
:102A400071FD237C012278E6364B4D495C660422F9
:102A500019200FF067FD237C01226EE6314B4949B6
:102A60001C66042218200FF05DFD237C012264E621
:102A70002C4B4549DC65042217200FF053FD237CC5
:102A800001225AE6274B41499C65042216200FF08B
:102A900049FD237C012250E6224B3D495C6504221E
:102AA00015200FF03FFD237C012246E61D4B3949DE
:102AB0001C65042214200FF035FD237C01223CE626
:102AC000184B3549DC64042213200FF02BFD237CC6
:102AD000012232E6134B31499C64042212200FF08C
:102AE00021FD237C012228E60E4B2D495C64042243
:102AF00011200FF017FD237C01221EE6094B294906
:102B00001C64042210200FF00DFD237C012214E62A
:102B1000044B2549DC6304220F200FF003FD237CC6
:102B200001220AE6309F022095040000D92400000B
:102B30004D240000C123000035230000A92200001D
:102B40001D220000912100000521000079200000D5
:102B5000ED1F0000611F0000D51E0000491E00008F
:102B6000BD1D0000311D0000A51C0000191C000047
:102B70008D1B0000011B0000751A0000E919000000
:102B80005D190000D118000045180000B9170000B9
:102B90002D170000A1160000151600008915000071
:102BA000FD14000071140000E5130000B34BB4499C
:102BB0009C6304220E200FF0B5FC237C0122BCE5AF
:102BC000AE4BB0495C6304220D200FF0ABFC237CBC
:102BD0000122B2E5A94BAC491C6304220C200FF082
:102BE000A1FC237C0122A8E5A44BA849DC620422B5
:102BF0000B200FF097FC237C01229EE59F4BA449FC
:102C00009C6204220A200FF08DFC237C012294E5B3
:102C10009A4BA0495C62042209200FF083FC237CBC
:102C200001228AE5954B9C491C62042208200FF082
:102C300079FC237C012280E5904B9849DC610422D9
:102C400007200FF06FFC237C012276E58B4B944923
:102C50009C61042206200FF065FC237C01226CE5B8
:102C6000864B90495C61042205200FF05BFC237CBD
:102C7000012262E5814B8C491C61042210460FF051
:102C800051FC237C012258E57C4B8849DC600422FE
:102C900003200FF047FC237C01224EE5774B84494B
:102CA0009C60042202200FF03DFC237C012244E5BD
:102CB000724B80495C60042201200FF033FC237CBE
:102CC00001223AE56D4B7C491C60042200200FF084
:102CD00029FC237C012230E5684B7849C3F8E840A1
:102CE00004223A200FF01EFC0123DAE4634B7449FE
:102CF000C3F8E440042239200FF014FC0123D0E48F
:102D00005E4B7049C3F8E040042238200FF00AFC03
:102D10000123C6E4594B6C49C3F8DC400422372038
:102D20000FF000FC0123BCE4544B6849C3F8D840C1
:102D3000042236200FF0F6FB0123B2E44F4B644926
:102D4000C3F8D440042235200FF0ECFB0123A8E4A3
:102D50004A4B6049C3F8D040042234200FF0E2FB14
:102D600001239EE4454B5C49C3F8CC400422332048
:102D70000FF0D8FB012394E4404B5849C3F8C840F6
:102D8000042232200FF0CEFB01238AE43B4B54494E
:102D9000C3F8C440042231200FF0C4FB012380E4B7
:102DA000364B5049C3F8C040042230200FF0BAFB24
:102DB000012376E4314B4C49C3F8BC4004222F2058
:102DC0000FF0B0FB01236CE42C4B4849C3F8B8402A
:102DD00004222E200FF0A6FB012362E4274B444976
:102DE000C3F8B44004222D200FF09CFB012358E4CB
:102DF000224B4049C3F8B04004222C200FF092FB34
:102E000001234EE41D4B3C49C3F8AC4004222B2067
:102E10000FF088FB012344E4184B3849C3F8A8405D
:102E200004222A200FF07EFB01233AE4134B34499D
:102E3000C3F8A440042229200FF074FB012330E4DE
:102E40000E4B3049C3F8A040042228200FF06AFB43
:102E5000012326E4094B2C49C3F89C400422272077
:102E60000FF060FB01231CE4044B2849C3F8984091
:102E7000042226200FF056FB012312E4309F02208B
:102E800059130000CD12000041120000B5110000DE
:102E9000291100009D10000011100000850F000096
:102EA000F90E00006D0E0000E10D0000550D000050
:102EB000C90C00003D0C0000B10B0000990A000095
:102EC0000D0A000081090000F508000069080000F3
:102ED000DD07000051070000C506000039060000AC
:102EE000AD0500002105000095040000D924000074
:102EF0004D240000C123000035230000A92200005A
:102F00001D22000091210000052100007920000011
:102F1000C34BC449C3F89440042225200FF002FBA0
:102F20000123FFF7BEBBBE4BBF49C3F8904004224C
:102F300024200FF0F7FA0123FFF7B3BBB84BBB49CE
:102F4000C3F88C40042223200FF0ECFA0123FFF792
:102F5000A8BBB34BB649C3F88840042222200FF027
:102F6000E1FA0123FFF79DBBAD4BB249C3F88440A2
:102F7000042221200FF0D6FA0123FFF792BBA84BC1
:102F8000AD49C3F88040042220200FF0CBFA012382
:102F9000FFF787BBA24BA949DC6704221F200FF073
:102FA000C1FA0123FFF77DBB9D4BA5499C67042215
:102FB0001E200FF0B7FA0123FFF773BB984BA1490E
:102FC0005C6704221D200FF0ADFA0123FFF769BBF7
:102FD000934B9D491C6704221C200FF0A3FA012388
:102FE000FFF75FBB8E4B9949DC6604221B200FF074
:102FF00099FA0123FFF755BB894B95499C6604223A
:103000001A200FF08FFA0123FFF74BBB844B914935
:103010005C66042219200FF085FA0123FFF741BBFB
:103020007F4B8D491C66042218200FF07BFA012388
:10303000FFF737BB7A4B8949DC65042217200FF074
:1030400071FA0123FFF72DBB754B85499C6504225E
:1030500016200FF067FA0123FFF723BB704B81495D
:103060005C65042215200FF05DFA0123FFF719BB00
:103070006B4B7D491C65042214200FF053FA012389
:10308000FFF70FBB664B7949DC64042213200FF075
:1030900049FA0123FFF705BB614B75499C64042283
:1030A00012200FF03FFA0123FFF7FBBA5C4B714986
:1030B0005C64042211200FF035FA0123FFF7F1BA06
:1030C000574B6D491C64042210200FF02BFA01238A
:1030D000FFF7E7BA524B6949DC6304220F200FF077
:1030E00021FA0123FFF7DDBA4D4B65499C630422A9
:1030F0000E200FF017FA0123FFF7D3BA484B6149AE
:103100005C6304220D200FF00DFA0123FFF7C9BA0A
:10311000434B5D491C6304220C200FF003FA01238A
:10312000FFF7BFBA3E4B5949DC6204220B200FF077
:10313000F9F90123FFF7B5BA394B55499C620422CE
:103140000A200FF0EFF90123FFF7ABBA344B5149D6
:103150005C62042209200FF0E5F90123FFF7A1BA10
:103160002F4B4D491C62042208200FF0DBF901238C
:10317000FFF797BA2A4B4949DC61042207200FF078
:10318000D1F90123FFF78DBA254B45499C610422F3
:1031900006200FF0C7F90123FFF783BA204B4149FE
:1031A0005C61042205200FF0BDF90123FFF779BA15
:1031B0001B4B3D491C61042210460FF0B3F901235B
:1031C000FFF76FBA164B3949DC60042203200FF079
:1031D000A9F90123FFF765BA114B35499C60042218
:1031E00002200FF09FF90123FFF75BBA0C4B314926
:1031F0005C60042201200FF095F90123FFF751BA1A
:10320000074B2D491C60042200200FF08BF901238D
:10321000FFF747BA0022FFF790BA0023FFF741BA41
:10322000309F0220ED1F0000611F0000D51E00002E
:10323000491E0000BD1D0000311D0000A51C00003E
:10324000191C00008D1B0000011B0000751A0000F6
:10325000E91900005D190000D118000045180000B0
:10326000B91700002D170000A11600001516000068
:1032700089150000FD14000071140000E513000022
:1032800059130000CD12000041120000B5110000DA
:10329000291100009D10000011100000850F000092
:1032A000F90E00006D0E0000E10D0000550D00004C
:1032B000C90C00003D0C0000B10B000010B592B02D
:1032C000014601A80EF04AFC0023322201A805A9FC
:1032D0000EF066FC05A9054809F010FF044601A898
:1032E0000EF0FCFBA0B212B010BD00BFE4930020B2
:1032F00030B500EB8004A4002D3424B2054683B021
:10330000224600210F4809F05FFF0F4B1B689D42CA
:1033100007D00C484FF6E07103B0BDE8304009F02B
:103320006FBF4FF6FF71074809F06AFF00211423B1
:10333000009322460191F023024807F0FBFB03B003
:1033400030BD00BFE4930020AC98002007EE900A47
:103350009FED0C6ADFED0C6A0C4B0D48B8EEE77A76
:10336000DFED0C7A27EE067A10B5E7EE267A012417
:103370001C60FCEEE77A17EE901A05F0D9FA064BBE
:103380001C6010BD0AD7233C0000014388E100E027
:103390000C4F0020EE7CFF3E08E100E010B5A2B02B
:1033A00044221749044668460EF014FF44220DEBF0
:1033B000020014490EF00EFFADF10402002352F892
:1033C000041FA14204D00133112BF8D122B010BD4B
:1033D0000D490A68002AFCDB22AA02EB83030B4991
:1033E00013F8442C33F8423C013A1203013B02F437
:1033F0007F22C3F30B0313430B6022B010BD00BF49
:10340000A0A70100E4A7010000F1024004F102407E
:103410002DE9F04F2DED048BDFF80CB13E4B9FED05
:103420003F9ADFED3F8A85B0D94603934FF00008FD
:10343000B6EE008A0DE04FF4FC6300932946534634
:103440005A22384807F0ECF9B8F1FC0F4BF8046F3A
:103450005CD0039B334833F9022F039307EE902A85
:1034600059F8043F0293F8EEE77A07EE103A67EE58
:10347000887AB8EEC77AFDEEE77A27EE097AF8EE99
:10348000E76A17EE904AA6EEA87A1FFA88F52F1D74
:103490004FF4FC63BDEEC77A3FB217EE106ABE2E42
:1034A000D4BF26EAE676BE26BE2CA8BFBE240FFAFD
:1034B00084FA5A22A4B200933946534607F0B0F971
:1034C0000535C4F1BE0304F15A02002439461BB28B
:1034D00012B2144800942DB207F0A2F9BE23009452
:1034E00029465A220F4807F09BF9029B052B08F149
:1034F0000208A0DD1A4655324FF6FF73009312B250
:1035000005232946074807F08BF994E705B0BDEC81
:10351000048BBDE8F08F00BF868C00203333333F2F
:103520009A99993EE4930020D8830020F8B55C4E28
:1035300034685CB1032C5B4D28D0022C3CD0012CAC
:1035400060D0042C7DD000232B62F8BD5648554D29
:10355000564F05F035FC564A564B11681A68EC6117
:1035600091424FF48033AB6104BFEB61AC61524BCD
:1035700034685248524A00211960032C4FF001036D
:103580004FF002013B6003601160D6D14FF48041DF
:103590004548464F05F0F8FB474B346848484749D3
:1035A00000221A60AA6101234FF48032022C3B6092
:1035B00003600B60EA61C2D14FF480413A4805F0E4
:1035C000CDFB404BDFED406A93F9003007EE903AB7
:1035D000F8EEE77AB7EE006A86EE277A4FF480328B
:1035E0000023EA61AB61B4EEE67AF1EE10FA3BD467
:1035F000F2EE007AB4EEE77AF1EE10FA44DD4FF421
:10360000002333E02848274C2B4F05F0D9FB284AEC
:10361000284B116818684FF4803288424FF000033D
:10362000EB61AA6108BFE26120482549234A08BF2F
:10363000A36101233468036000263E600B601360C1
:103640007FE719481C4F194E1D4C05F0B9FB1B486C
:10365000002201234FF480313A60EA61AA613360AD
:10366000236003602962F8BD40F28F230E4F124C95
:103670000E481349114A3B6201230027276003606B
:1036800034680B6013605AE7DFED106ADFED107AE3
:10369000E7EE267AFCEEE77A17EE903AE6E700BF0F
:1036A0009C96002064970020C0960020609C022019
:1036B000D84E0020203E0020B4980020A096002084
:1036C000A04E0020593E00200AD7233C000080472E
:1036D000EE7CFF3EF0B5474C474A484991B0002583
:1036E00008A80123256003F05BF810AA44480A9B50
:1036F00012F8145D9DF8241083600573017100F1C8
:103700000D031A3012F8011F03F8011B83423C49D4
:10371000F8D10F9B3B4ECB6108A802F069FF002354
:10372000394F336005E008A802F078FF08A802F0DE
:103730005FFF0122324908A803F0A6F808A802F0AA
:103740007BFF40F2E63310B922689A424CDD08A8AC
:1037500002F052FF0028E6D108A802F04BFF014614
:1037600068460EF0FBF9294904A80EF0F7F904A900
:1037700068460EF02FFA054604A80EF0AFF91DB901
:1037800068460EF0ABF9CEE7236803EB430503EB85
:10379000850308A8FD1802F02DFF0146284613F006
:1037A0007FFA1B4904A80EF0D9F904A968460EF067
:1037B00011FA054604A80EF091F92B46012269463C
:1037C00004A80EF019FA04A80EF03AFA054604A867
:1037D0000EF084F9326823680A49954203F1010327
:1037E000C8BF0D602360CBE708A802F001FF11B04D
:1037F000F0BD00BF08970020D0A80100649C022003
:103800003C9C0220381C022018510020D4A8010042
:10381000DCA8010008B50549012200200BF0B2FF29
:10382000FE210348BDE8084002F00EBFE0A80100F9
:10383000649C022038B5064D0648074C29460122F3
:103840000BF0A0FF207028460CF072FB207038BDF2
:10385000E0A801003C4C0020D48B0020F8B5224C9D
:10386000236833B9214B1A6840F2E6339A420DDDE2
:10387000F8BD1F480CF04AFB00231E4A23601B4B77
:1038800010701A6840F2E6339A42F1DC1A4F1B4B73
:103890003D681B681A491B48164E01352A463D6093
:1038A00013F070F9002117480CF056FB0A22307013
:1038B00014490F480BF090FF0228307008D00A22FC
:1038C00010490B480BF088FF012330702360F8BDCE
:1038D00007480CF01BFB09283070F0D109480CF0A8
:1038E00061FB3070EBE700BFD09800200897002004
:1038F00010940020D48B0020381C0220D498002083
:10390000E4A801000C9700202DE9F843064605F0D5
:10391000FBFE01282CDDDFF86490DFF858800025DD
:10392000D8F80000134F05EB4004304605F01EFFA9
:1039300009EB042401464FF4807220460EF04AFC45
:103940000135304605F030FF022DE9D13B680133E7
:10395000BF2B02D83B60BDE8F8830022064B3A60DB
:10396000064907484FF4C0320CF0B2F8054B187006
:10397000BDE8F883089400209C4E00203099002078
:1039800010940020D48B0020134A38B5002304463D
:10399000124D80F8F63013700CE005F0E7FE104B86
:1039A00001464FF480720F480CF092F828702046C0
:1039B00005F0FAFE204605F0A7FE00282046ECDCC4
:1039C00008480CF0A3FA084B287000221A60BDE8E2
:1039D0003840FFF77FBE00BFF04E0020D48B0020A0
:1039E0009C4E002010940020D098002008B5094873
:1039F000FFF7CAFF0021084807F05AFA0749084AAA
:103A0000084B096811604FF480329A61BDE80840A4
:103A1000FFF78CBDA0970020E49300205C9C02205F
:103A20009C960020E01B02202DE9F0418CB00DF1A6
:103A3000FF3600250746B0462C4628460EF07AFB96
:103A400008F8010F4440082314F0010F4FEA540214
:103A500003F1FF3314BF82F08C04C4F3470413F066
:103A6000FF03F1D101352F2DE7D1F4B99DF82B30AB
:103A7000322B03D020460CB0BDE8F0819DF82A30EF
:103A8000302BF7D19DF82930302BF3D19DF8283019
:103A9000302BEFD1013F0DF12F0316F8012F07F85E
:103AA000012F9E42F9D10120E5E718460CB0BDE890
:103AB000F08100BFF8B50025471E2C4617F8016FAE
:103AC0000823744014F0010F4FEA540203F1FF334E
:103AD00014BF82F08C04C4F3470413F0FF03F1D148
:103AE00028460EF027FB864209D0314628460EF0C4
:103AF0003BFB28460EF01EFB3B78834204D1013588
:103B00002E2DDBD1002600E00126214628460EF0AE
:103B10002BFB28460EF00EFB84420CBF30460120E2
:103B2000F8BD00BF2DE9F04325492648264A09681B
:103B30000068264B264D1B88264C2E68264F25688C
:103B4000264C3F6894F800908FB0013303900591A4
:103B500092E80300C0F307228DF83120C0F307423A
:103B60008DF832201E491F4A91F8008092F800C05B
:103B7000ADF80A301C4A1D4B1D498DF83000000E6F
:103B800092F800E009688DF8330006965F2293F9F9
:103B900000600891002302A88DF81DC08DF81CE07C
:103BA0008DF808200A9504978DF825908DF82480CB
:103BB0000B96ADF83430FFF77DFF0FB0BDE8F08312
:103BC0001C3E00209C960020F0A80100088C0020DC
:103BD000683E0020B89800206C3E0020793E00200E
:103BE000593E0020703E0020143E0020783E002008
:103BF000743E00202DE9F04FAA4AAB4B1468AB4845
:103C0000AB491C600C328BB005680C681268A9497E
:103C1000A948DA605D609C600DF0A0FFA74AA84942
:103C2000A548DFF8D49210F0C1FE1C211B222723E7
:103C30008DE80E00A348FF231422152106F090FC06
:103C400032222521A0480DF015FC322224219F4864
:103C50000DF010FC232222219D48FEF7ADFC3222FC
:103C600026219C480DF006FC32221D219A480DF0B9
:103C700001FC1F221E219948FEF79EFC984B994992
:103C800093F90030984A99480B70126859420170B4
:103C900000239749C9F8001089F80930C9F8103095
:103CA00089F80830C9F80C300AB9C0E21A465369DD
:103CB000002BFBD1C2F814900024DFF890B28D4B9A
:103CC0008D48C9F81440A9F80440A9F8064089F8BD
:103CD0000A40C9F8003005F065F90BF1180201211E
:103CE0005846FEF73FFC854B85488BF8F44022464A
:103CF00021468BF8F540CBF8F0408BF8F640CBF836
:103D00000030FEF72FFC7E4A7E4B13607E4A7C4ECD
:103D10007E4D18324FF48043A2F118000221336225
:103D2000FEF720FC784A7A4B1360012005F22472DA
:103D30006F4E2C7223462146EC602E6068722A6119
:103D40002C4600E0226942F823106A7A6F4801335A
:103D50009A42F7DC644B1A680AB96CE21A46536956
:103D6000002BFBD1556100246A49296022460123BA
:103D70004FF48071684E69486C61AC80EC80AC7225
:103D800085F8214785F82247C5F8186110F032FD03
:103D9000554BDFF894811A685549C5F81C41082332
:103DA00085F8203788F80940C8F80010C8F8104096
:103DB00088F80840C8F80C404B4B0AB93DE21A4657
:103DC0005369002BFBD1C2F814804FF0000A544B0A
:103DD0005448C8F814A0A8F804A0A8F806A088F8C9
:103DE0000AA0C8F8003002F0F5FB4F484F4C504F86
:103DF000504E05F085FB314A4F494B4810F0D6FD37
:103E00004E4B012103F118021846FEF7ABFB4B4A5B
:103E10004B4B13604B4B042103F128021846FEF76D
:103E2000A1FB494B03F128021846464B04211C60B4
:103E30004FF480349C61DC611C625C62FEF792FB93
:103E4000414B3A4C1C6007F128024FF480340421A6
:103E500038469C61DC611C625C62FEF783FB33497F
:103E6000BC61022006F11802FC613C627C62204CBD
:103E7000396034605346514686F808A0C6F80CA055
:103E800070723261344600E0226942F82310727A7F
:103E9000284801339A42F7DC134B1A68002A58D19C
:103EA000CEE100BF54800440388C0020588004408C
:103EB0005C800440F8A80100884E00200C3E0020E1
:103EC000DD1A0100E4930020CC9300203019022079
:103ED000A8960020A84E002020990020DC4E00204B
:103EE000783E0020DC1B0220D4A40220DC930020BA
:103EF0009CA7010098AF0100DC980020C8AF01002A
:103F0000488C0020D4AF0100B41902206C8C002032
:103F10008CAF010058AD010078AD010094930020F2
:103F2000BCAF01005C19022044190220A4AF0100BB
:103F300064960020181C022071040000C096002026
:103F400080AF0100E01B022064970020A0970020B2
:103F50001A465369002BFBD156610024B94ABA4B6B
:103F60007461B480F480B472B8483260059305F08F
:103F700051FA059BDFF82CA31C721846C3F8009079
:103F80005F605C72DC601C740DF0D6FB059BB04A70
:103F9000B049184610F00AFDAF4B059350468AE829
:103FA000000A8AF808408AF80940CAF80C408AF8E2
:103FB00010400DF0C1FBA64AA649DFF8ECB250460E
:103FC00010F0F4FC059BDFF8E4A21C724FF001092D
:103FD0001846C3F800805F60DC601C7483F80990A9
:103FE0000DF0AAFB059B9A4A9A49DFF8C48218464D
:103FF00010F0DCFC994BCBF8043058468BF80840A5
:10400000CBF800708BF80940CBF80C408BF81040CF
:104010000DF092FB8E4A8F49584610F0C7FC904B2A
:10402000CAF8043050468AF80840CAF800708AF886
:104030000940CAF80C408AF810400DF07DFB844A14
:104040008449DFF870B2504610F0B0FC834B88F81A
:104050000840404688E8280088F80940C8F80C4025
:1040600088F810400DF068FB794A7A497D4B05933A
:10407000404610F09BFC7C4BDFF83CA2CBF80430B0
:1040800058468BF80840CBF800708BF80940CBF805
:104090000C408BF810400DF04FFB6D4A6D49DFF876
:1040A0001C82724D584610F081FC714BCAF80030EA
:1040B00050466D4BCAF804308AF808408AF80990D7
:1040C000CAF80C408AF810400DF036FB6149604A8E
:1040D000DFF8ECB1504610F069FC059B604A1A60AD
:1040E0001846644A1C725A6083F80990DC601C749C
:1040F0000DF022FB059B564A5649DFF8C8A1184629
:1041000010F054FC584BC8F800304046594BC8F8E2
:10411000043088F8084088F80940C8F80C4088F84E
:1041200010400DF009FB4B49494A404610F03EFC57
:10413000022328464F4A6B722C722F606A60EC6033
:104140002C740DF0F9FA424A4249DFF87C814A4F5B
:10415000284610F02BFC474B8BF8084058468BE85C
:1041600048008BF80940CBF80C408BF810400DF05C
:10417000E3FA374A3749414D584610F017FC3D4B9A
:104180008AF8099050468AE848008AF80840CAF838
:104190000C408AF810400DF0CFFA50462C4A2D49B9
:1041A000DFF828A1364CDFF8289110F0FFFB3549E5
:1041B000354B0A680792DDF81CB00A6808921A6845
:1041C000089B0968DFF80CE109911E462F4B0999FD
:1041D000DFF804C1CEF8002002EB420003EB8003BD
:1041E0002B4A2D68CAF800B0A1F57A71D3F808B04F
:1041F000D3F804A0C8F80060264B2748CCF800107C
:104200004FF00A082360C2F800A0C7F800B0C9F850
:10421000005084F8088002F0DDF90D4A1F491E485D
:1042200010F0C4FB0DF03AFF0BB0BDE8F08F1C4B53
:10423000C3F8009040E5186095E5C3F80080C4E538
:1042400018608AE6B0AF0100B8930020181C022065
:104250000C3E002089040000248C0020E01B02207A
:10426000C0960020F44E0020B4190220F08B0020EC
:10427000488C0020649700209C970020743E00200A
:104280000C4F002064A50220683E002028A80100F1
:10429000D498002064AD01003C9C0220F165000030
:1042A000D4A4022098980020881902209C1902208A
:1042B0000C990020C44E0020F8980020BC980020E3
:1042C0000C8C0020A4930020DC8B0020D81B022043
:1042D000D88B00205C970020A49600202DE9F04F99
:1042E0002DED028B434C444E444F95B020464FF683
:1042F000E07108F085FF282500224FF40043019368
:10430000114620460095F023A66106F013FC4FF6F7
:10431000FF7301930095F0232A462046002107F001
:10432000BBFC3B68012B00F0D282022B00F04C82D8
:1043300014224FF400438DE80C000021F0234FF4C9
:104340008C722C48DFF8CC8006F0F4FB28224FF466
:1043500048738DE80C000021F0234FF49672254835
:1043600006F0E8FB00221146224808F02DFF01224A
:10437000234920480DF020FB98F900101D480DF04E
:10438000A5FB3A68022A00F029821A4C1D4D1E49ED
:10439000022220460DF010FB95F9001020460DF08A
:1043A00095FB0222194920460DF006FB184BD3F865
:1043B0000090484612F004FD4946024620460DF0A2
:1043C000FBFAD7F80090B9F1030F00F01782DFF87D
:1043D000489008481422002108F0F6FED9F8003071
:1043E000042B00F2EB81DFE813F0300136013C01D1
:1043F00042011900E493002088E101006C3E002096
:1044000018A90100703E002020A9010024A9010084
:10441000D4980020143E00209C9600200422B84925
:10442000B8480DF0C9FAB84B0BA8196808F0ECFEB3
:104430001422B421B34808F0C7FE0C9A0D9B0092D9
:104440000921B24A05A812F04FFB05A812F0B8FCEA
:1044500005A90246AB480DF0AFFA4FF49672002161
:10446000A84808F0B1FE3B68032B00F04781A84C38
:10447000A84E2368A348012B0CBF4DF29A614FF65A
:10448000E07108F0BDFE33680A2B03D12268012ACF
:1044900000F0AE82DFF8C4A25AF82340204612F0A2
:1044A0008FFC2146024697480DF086FA01229A4970
:1044B00094480DF081FA4FF6FF719248954C08F040
:1044C0009FFE3368012B00F02B82022B00F0D58079
:1044D000002B00F0DB80092B00F02982082B00F074
:1044E0004082032B00F02B82052B00F05C818B4B6C
:1044F0008B4C1B688348012B0CBF4DF29A614FF621
:10450000E07108F07DFE23685AF82300FEF7D6FE1E
:10451000C0F1F00109B24FF496727A4808F054FEE7
:1045200023685AF82340204612F04AFC21460246EE
:1045300074480DF041FA4FF48C720021714808F074
:1045400043FE4FF6E0716F4808F05AFE3368062BC1
:1045500000F0B880734C2378002B00F00381012B0E
:1045600000F00981022B704C00F014814FF6E071CD
:10457000644808F045FE6D4B22786D491C786D4B00
:10458000052C0CBF1C460C46002A00F086803B68B8
:10459000032B55D0002B40F3AC81DFF8C4A1664D4E
:1045A000DAF80020DFF8A8B19FED647ADBF800109C
:1045B000002A1346B8BF02F1FF031B1207EE903A20
:1045C00091FBF3F185FB0205D217FAEEEF7AC2EB0D
:1045D0006535012D87EE278A4FEA41081DDD01244C
:1045E0004FF6E076009605235522464807EE904A9E
:1045F000F8EEE77A013467EE887AFDEEE77ACDEDE2
:10460000037ABDF90C1006F00BF9A542EAD1DAF8ED
:104610000030002BB8BFFF331B12D9F80020022A4C
:1046200000F0C4814FF6E0730093572203230FFA82
:1046300088F1344807F004FB3B68012B00F09981B6
:1046400015B0BDEC028BBDE8F08F02223C492D482D
:104650000DF0B2F9E7E607223A492A480DF0ACF925
:10466000E1E60722384927480DF0A6F9DBE60222E9
:10467000364924480DF0A0F9D5E6354B2148196894
:104680000DF024FA3368002B7FF425AF95F9001064
:104690001C480DF01BFA33681DE72146194808F045
:1046A0002DFDC0F1EB0109B24FF48C72154808F0F2
:1046B0008BFD204612F084FB2146024611480DF086
:1046C0007BF964E7124B1B68012B7FF443AF214C4D
:1046D0000C484FF6FF7108F093FD2378002B00F093
:1046E000A781012B00F0EE81022B0F4C7FF43EAF2F
:1046F0001949044804220DF05FF937E7054E1AE71F
:10470000A4A90100E493002000D00340B4A9010053
:10471000609C0220B498002088A90100A096002087
:10472000A04E0020B84E002040190220583E002024
:1047300008A9010010A90100AD8BDB6800401C46F0
:104740008CA9010094A901009CA9010090A9010075
:10475000743E0020D41B0220E0A90100243E00206A
:104760009C9700200722B649B6480DF025F923781A
:10477000012B7FF4F7AEB44B1B78002B00F0B28016
:104780000622B249AF480DF017F92378B04C022B3E
:104790007FF4ECAE2378002BAAD00422AD49A948BF
:1047A0000DF00AF9E2E6AC4C2368002B40F0B08033
:1047B0000722AA49A3480DF0FFF898E60522A84968
:1047C000A0480DF0F9F82EE6002106230093019190
:1047D000F02354229B4806F0ADF9A9E5A149994878
:1047E0000DF0EAF8A04BA1491B68964881FB032114
:1047F000DB17C3EBA1110DF069F9C6E52D220021ED
:10480000204608F0E1FC4FF6E071204608F0F8FC85
:10481000974BA6611A68002AC0F20781032AC8BF15
:10482000C3F800900020FEF763FD082291498548F7
:104830000DF0C2F8904B834893F90030012B07BF6D
:104840000A228E498E490C220DF0B6F87D480DF0F3
:10485000EDF80120FEF74CFD12228A4979480DF04F
:10486000ABF8894B774893F900100DF02FF9754894
:104870000DF0DCF80220FEF73BFD1422834971485D
:104880000DF09AF8824B6F4893F900100DF01EF965
:104890006C480DF0CBF80320FEF72AFD7D496948EE
:1048A0000D220DF089F87C4B7C4A1B6803EB430317
:1048B00002EB83035C68204612F082FA214602462E
:1048C00060480DF079F85F480DF0B0F87FE5002101
:1048D0001E2300932046F02301913C2206F02AF982
:1048E0003B6822E507226E4956480DF065F82378AB
:1048F00038E655220021534808F066FC0922694930
:1049000050480DF059F815B0BDEC028BBDE8F08FA2
:10491000042265494B480DF04FF801232360E6E57A
:1049200098F9001047480DF0D1F82368CDE5564BB3
:10493000444893F900100DF0C9F83368CEE5564BA2
:10494000564A1B6803EB430302EB83035C68204673
:1049500012F036FA214602463A480DF02DF8336837
:10496000C2E54B4B374893F900100DF0AFF83368B0
:10497000B7E5DBF800103D4B4C4A83FB0103C91738
:10498000C1EBA31308A8092112F0AEF8A8F10A019F
:1049900009B23C222B4808F017FC08A812F010FAC4
:1049A00008A9024627480DF007F849E6364A404D67
:1049B00092F9001095FBF3F54FF47A7202FB01F2C5
:1049C00092FBF3F3ED1A6D005B001CB22DB24FF6B3
:1049D000FF762B462146009655221A4805F030FFF7
:1049E0002B46214600965922164805F029FF19E664
:1049F000304B314A1B68DFF8C8A003EB430403EBDC
:104A00008403D41820462E2112F0E2F8021B21461E
:104A100001322A4812F0A2F9284812F0D1F92749A8
:104A2000024608480CF0C8FF45E500221A60F9E686
:104A30000722034903480CF0BFFF237851E600BF6B
:104A4000D0A90100E4930020F04E0020E8A9010065
:104A500040190220F8A90100B8980020C0A901005F
:104A6000ACA901001CA90100743E0020D34D6210C6
:104A7000AC98002028A90100783E002034A901004C
:104A800040A9010050A90100793E002064A901005D
:104A9000593E00207CA90100683E002028A80100A2
:104AA000F0A9010008AA0100C8A9010000AA01009C
:104AB00080380100B019022018510020E08B00203E
:104AC000243E00200722034903480CF075FF237899
:104AD0000AE600BFD8A90100E4930020074B10B5F7
:104AE000012401461C60064803F0B2FE054B1C6021
:104AF000FFF7F4FB044B00221A6010BD88E100E0D0
:104B00000C4F002008E100E0E0930020F0B58DB0EC
:104B10006846FEF789FF044698B13849089A384B31
:104B2000BDF802709DF828609DF829509DF82A0074
:104B30000F80012A9DF82B101E705D709870D9703F
:104B400002D020460DB0F0BD2E4E2F49039F376096
:104B50002E482F4B029D2F4E049F0F60019902603B
:104B600019603560002D2FD0022D40D0012D35D099
:104B70000021294806F09CF931682748274E0CF09F
:104B8000A5FF274A9DF915002649274B9DF81D5082
:104B90009DF81C701070069A0D701A603770FEF741
:104BA000D5FB9DF91430214A214D13701846FFF7AB
:104BB00095FF099B1F4820495AB25B42037020466B
:104BC0002A700A700DB0F0BD2946134806F0A6FB06
:104BD0002946114806F07AF93568C5E700210E48E4
:104BE00006F09CFB00210C4806F070F9C0E700219C
:104BF000094806F06BF93568B8E700BF088C00205B
:104C0000BC4E00201C3E0020683E0020B8980020CA
:104C10009C9600206C3E0020E4930020593E00202A
:104C2000703E0020793E0020743E0020143E00209B
:104C3000783E0020DC930020DC1B0220274B9FEDF8
:104C4000286A93ED007ADFED276AB8EEC77A07EE9F
:104C5000900AC6EE075AF8EEE77A67EEA57AF4EE08
:104C6000E67AF1EE10FA19DC1F4A204BC2ED007A09
:104C7000F5EEC07A0122F1EE10FA1A602BD49FED06
:104C80001C7AF4EEC77AF1EE10FA1BDD194B1A49C3
:104C90001A4A01200860D361FFF720BBC7EE065A0D
:104CA000114B1748114A0121F2EE027AE5EEA67A7D
:104CB000C3ED006AFDEEE77A17EE903AF0EE667A01
:104CC000036011609FED0F7A67EE877AFCEEE77A5A
:104CD00017EE903ADBE70023D9E700BF9C9700204E
:104CE000A6552C4700E0AB46183E002088E100E0C6
:104CF000A655AC4680FFFF7F08E100E0488C00200D
:104D0000743E00204B24BE472DE9F04F2DED048B5F
:104D1000B34AB44B92F900201B689FEDB36ADFEDF4
:104D2000B36A07EE102A002BB8BFFF33F8EEC77A3C
:104D30001B1227EE867A07EE903AF8EEE77AADF589
:104D4000077D87EE278A0EAC4FF4F07220460021D3
:104D5000C6EEA78A11F06CFCA54B1A680132012A35
:104D600003921A60BDEEC88AFDEEE88A00F0188151
:104D7000039B632B40F21C81DFF8C082DFF8B892FE
:104D80009FED9C6A0026C446B346B64627464FF4BC
:104D9000807A0225F2EE046A0FE0042AD8BF4FF4AD
:104DA000006323DC0135782D24F8163007F1040761
:104DB00027F8023C06F102062CD03CF8023FB9EC81
:104DC000017A03EB83035B0007EE903AF8EEE77A93
:104DD000E7EE467A77EEA67AFDEEE77A17EE902AAE
:104DE00052459644D9DD17EE90AAAB465300FF2BEF
:104DF000A8BFFF23B2F5407FC0F2D082B2F5106F9A
:104E0000C0F296821B0203F478436FEAD3236FEA61
:104E1000C323C7E7784B9FED797A83FB0E234FEAD4
:104E2000EE7ECEEB23139AFBF3F307EE903AF8EE07
:104E3000E77A18EE103AF4EE477AF1EE10FA48BF2E
:104E40004FF0000B5B4504DA18EE903A5B4500F337
:104E5000FB806B4B1D68012D4FF0000A00F0208194
:104E6000022D00F02B8118EE103A5B45654D4EDAAD
:104E700018EE903A5B454ADD2B78002B40F0FC8120
:104E8000614EDFF8C08133680D93604B0D9A1A6054
:104E9000D8F80030012B00F0E6815D4E022B33780C
:104EA00040F0EC81002B00F0E9815A4803F088FFC4
:104EB0004FF48041574803F051FF574BDFED576ADD
:104EC00093F9003007EE903AF8EEE77AB7EE006A11
:104ED00086EE277AB4EEE67AF1EE10FA00F1188247
:104EE000F2EE007AB4EEE77AF1EE10FA00F31382F4
:104EF000DFED4B6ADFED4B7AE7EE267AFCEEE77AE0
:104F000017EE902A434900230A623370B6E12B78EA
:104F10006BB13D4A3D4913680993099B09681268C2
:104F20000A924148414A0A9E06605B1A1380384E35
:104F3000002233782A7043B9334A34491268089200
:104F40000968089A521A322A09D82D4B1B68022B7D
:104F50000FD00DF5077DBDEC048BBDE8F08F2D4A19
:104F60002B70012382F842303370254B1B68022BD3
:104F7000EFD1254B2C4A1B6807931268079B2C4DD9
:104F80009B1A312B40F28D812B68B3F58C7FE0DBCF
:104F90005A232B600DF5077DBDEC048BBDE8F08F27
:104FA000244B002103F5007243F8041B9A42FBD105
:104FB000214A2249DFED226A02F5FC7031F8023FF6
:104FC00092ED007A03EB83035B0007EE903AF8EE74
:104FD000E77AA7EEA67AA2EC017A8242EED1CBE67E
:104FE000793E00209C97002000007A4400409C47B6
:104FF000D89800206666663FBF3CB6226666863F4C
:105000006C3E0020BC96002064A50220D81B022024
:10501000673E0020C0960020593E00200AD7233C5E
:1050200000008047EE7CFF3EDC8B0020084F002014
:10503000103E0020184F0020204F0020868C0020BA
:105040006F12833A9C960020C14BC24A0293002102
:10505000D3ED006A8A46022338F8020F92ED007AF7
:1050600007EE900AF8EEE77A77EE877AF4EEE67AC2
:10507000F1EE10FAE2EC017A03DDF0EE676A9A468F
:1050800001210133782BE7D1002940F09E81B24AFB
:10509000138801331380B14B1D68012D7FF4E0AEFE
:1050A000AF4B1B68022B00F0EE80039BDB073FF544
:1050B000DAAEFEF7ADF9A94B1D68D1E6A64E3388EE
:1050C000322B7FF6D0AE00202D23019000930146B5
:1050D000F02330802822A34805F02CFD9C4BBAF128
:1050E000000F00F0F0801A4692ED007A02939E4B7A
:1050F000DFED9E5AF7EE007A03EB8A0377EE277A0C
:105100001A1D514632ED016AC6EE276AF4EEE56AD1
:10511000F1EE10FA02DD01390229F3D1DFED935AE5
:1051200003915246B3EC016AC6EE276AF4EEE56AD3
:10513000F1EE10FA40F3A5800132782AF2D1002373
:105140000493DFF81092DFED8A9A9FED8A9ACDF8EA
:1051500014B00026022702E0029B93ED007AD9EDFD
:10516000006A8048C6EE877A4FF478430FFA86FBD0
:105170000093594667EEA97AFDEEE77A17EE905A4A
:10518000C5F155080FFA88F82DB242462B4605F0B6
:1051900047FBBA4507F1010700F0C0800236782FBF
:1051A000B6B2A9EC019AD7D1734B029D1B6895ED5D
:1051B000007A9FED729A6B48DDF814B0002BB8BFEF
:1051C000FF331B1207EE903AF6EE006A27EE267ABE
:1051D000F8EEE77A2D22822185ED007A27EE899A72
:1051E00007F0F2FF4DF29A615E4808F009F8DDED34
:1051F000037A5C48F8EEE77A67EE897AFDEEE77AA3
:1052000017EE901A0CF062FC01225D4955480CF033
:10521000D3FB4FF6E071534807F0F2FF07EE90AA78
:10522000F8EEE77A4F4867EE897AFDEEE77A17EEF7
:10523000901A0CF04BFC012251494A480CF0BCFB7F
:105240004DF29A61474807F0DBFFDDED047A4548EF
:10525000F8EEE77A67EE897AFDEEE77A17EE901AB4
:105260000CF034FCFFE53368464F0C930C9A3B6816
:10527000D31AB3F57A7F2DD8434E337801222A70A2
:1052800059E604925DE7344A404B1288A3FB0213AF
:105290009B0803EB8303D31A9BB2002B7FF4E3AD8F
:1052A00007E701940123B5F900202E48009300215F
:1052B000F02306F0D5F829882A4806F02FF82B6845
:1052C00001332B6061E60293039593ED007ACDF8EC
:1052D00010A036E7284B2E4A1B68002BB8BFFF33BF
:1052E0001B120BFB03F382FB0312DB17C3EB6213EE
:1052F0004FF4FA7202FB03F3264A18461360FFF7D5
:105300009DFC33680B930B9AD8F800303A60C4E5E3
:1053100040F28F22F6E54FF40022F3E54FF6E070FD
:1053200000902B46424659460E4805F079FA35E77B
:10533000194981FB0210D217C2EB60021B02D21086
:1053400003F4784342F4FC6213439BB22AE500BFA6
:10535000E0930020DC190220A44E00206C3E0020C7
:105360009C960020E4930020D4190220CDCCCC3DA3
:1053700000003442000000009C9700206F12833A26
:1053800088A90100A4960020673E0020CDCCCCCC9B
:10539000D34D6210743E0020398EE3380D491B0254
:1053A00002930D4B81FB0210D117401A83FB02328E
:1053B000029BC00003F4784300F4FC60C1EB62027E
:1053C0000343C2F3C4021343ECE4029BC3ED006A3F
:1053D0005DE600BF56555555398EE33838B5104B4C
:1053E0001049114A114D00EB400003EB80030124EA
:1053F00098685B680B6028601460FDF7CFFFC820D9
:105400000DF03EF90A4B1868FFF718FC094B142001
:105410001C600DF035F9BDE83840FEF75FBF00BFF6
:1054200028A80100D498002088E100E09C97002083
:10543000743E002008E100E01F4B204A1B68012158
:105440000B2B10B50446117026D064200DF018F90E
:105450000D2C2046A8BF0D2020EAE070FFF7BEFF0C
:10546000174C184B1A682368002B02F1FF3220DB1F
:105470009342A8BF134603EB43021349236003EB97
:105480008203194411480D2211F008FD0F491048FC
:10549000BDE8104004F062B80E4A0F4B10684FF49C
:1054A00080310022022899611A6204BFD9619A6191
:1054B000CBE70023DFE700BFB498002040190220AB
:1054C000B019022008970020185100200C970020E6
:1054D000441902209C9600206497002038B50B4C9C
:1054E00023782BB10A4890F8403003F0FF0503B150
:1054F00038BD04F00BF8074B25701B78002BF7D054
:10550000054B1868BDE83840FFF796BF40190220E8
:1055100044190220609600201C3E00202DE9F04135
:1055200096B0D0B9A84AA949A94B12680D681B6862
:105530000D21EAB9A74A12782B44002A73D0002B18
:10554000B8BF01F1FF338B42A8BF0023002875D1FB
:105550009F4A136016B0BDE8F0810128FAD19E4A37
:105560009E499F4B12680D681B680421002AE1D0F8
:10557000012AEFD1002DEDD00446002B65D19949C9
:105580000A782A4452B2002AC0F202815A2A1346EB
:10559000A8BF5A2307EE903A9FED936ADFED936A16
:1055A000B8EEE77ADFED927A27EE067AE7EE267A12
:1055B000FCEEE77ACDED037A8E4A0B700126166079
:1055C00003998D4803F0B4F98C4B1E60DFF800821C
:1055D000D8F80030072B61D0052B48D00A2BB9D161
:1055E000794B1B68012B00F0C1807D4B1B68032B9E
:1055F000B0D1794B1B68012BACD1814B1B78022BAE
:10560000A8D1804C754B22681B681344052BA8BF9A
:10561000052323EAE37318462360FFF7DFFE7A4B86
:1056200022681A6096E7A3F10A02012A87D8012DA1
:1056300000F09A80013508BF092384E7012889D149
:10564000674A136016B0BDE8F081032B7CD16D4E24
:1056500033682B440D2BA8BF0D2323EAE3731846B0
:105660003360FFF7BBFE694B32681A60AEE7564BFA
:105670001B68012B7FF46EAF544B654C1A68216890
:10568000644B0A441340002BC0F28C8019466248D8
:1056900023600CF01BFAD8F800309FE7002C7FF451
:1056A00059AF5E4F5E4E3B680693069B32689B1A6D
:1056B000B3F5FA7F09D2F92B00F24C81632B8BBF33
:1056C0000A23C5EB05155D43AD0004F0D5FA08A922
:1056D000284404F07BF908A804F050FA0CF0A4FF69
:1056E0004D4C08A804F04AFA04F016FB204632227A
:1056F000502107F069FD00221423204601920093F7
:105700003222A023502105F015FA464A464B116873
:10571000A3610DA807F078FD0DA90EC90AA8019193
:1057200000920921414A11F0DFF90AA811F048FB63
:105730000AA9024620460CF03FF93B680793079AF6
:10574000D8F80030326047E7082B30D1384A137858
:105750002B445BB2042B04DD1E2BA8BF1E23137049
:1057600034E70523137031E70C23ECE63149174A7F
:105770000B6812689B180DD42F4A1268934202F1ED
:10578000FF3200DB00239A42A8BF1A460A602CE7CA
:10579000039311E7284B1B68013B48BF0022F5D457
:1057A0001A46F0E7013B63F0010301336EE7092B72
:1057B00049D1224A13782B445BB20E2B40DD232BB8
:1057C000A8BF2323137001E7609C0220B09800203B
:1057D000B4980020F14E0020A0960020984E0020A2
:1057E000A04E0020703E00200AD7233C0000014359
:1057F000EE7CFF3E88E100E00C4F002008E100E075
:10580000B84E0020683E00201C3E00205C9700201F
:10581000B898002001000080E493002064A50220D5
:10582000048C002000D00340A4E1010014AA010070
:10583000593E0020B019022008970020793E002030
:105840000F231370C2E60C2B08D100285CD14E4AFE
:1058500013682B4483F302031360B7E6012B18D1BE
:105860004A4A13782B445BB2002B64DB3F2BA8BF62
:105870003F2318461370FFF731F9454A454B002086
:105880001060002103F5007243F8041B9342FBD122
:105890009CE6022B32D1404F404E3B680493049B60
:1058A00032689B1AB3F5FA7F42D2F92B4FD8642B9A
:1058B00041F2883328BF4FF4FA633949394A0868FE
:1058C000126803FB050341F6573083422DDD36484D
:1058D00080FB02E0D243D20FC2EBE0124FF47A70A9
:1058E00000FB02F29342A8BF134618460B60FFF775
:1058F000A5F93B680593059B336067E6042B2CD123
:10590000234B00221A6061E601287FF45FAE1E4B34
:105910001B6893B9254A264892F90030037025493F
:105920005B425BB213700B7050E641F65833DCE714
:105930004FF4FA73C1E700239BE7012B3FF439AF23
:10594000022B3FF403AF032B3FF481AE3EE64FF44E
:105950007A73B2E705EB8505B7E6062B7FF436AE22
:10596000154B1B7863B11549154A0B780133DBB22F
:10597000A2FB0302520802EB42029B1A0B7025E6BF
:105980000E4A137022E600BFAC980020143E00209F
:10599000D8980020184F002064A50220048C002015
:1059A000743E00209C970020D34D6210783E00206A
:1059B000DC930020DC1B0220F14E0020D41B0220CF
:1059C000ABAAAAAAF0B5254D254F264E83B0FDF708
:1059D00045FF28460021002405F0A0FC4FF4A073E9
:1059E00022462846214600930194F02305F0A2F8B0
:1059F00028464DF29A6107F003FC1B4BAB61214630
:105A00002846642207F0E0FB0922184928460BF0DB
:105A1000D3FF384611F0D4F93946024628460BF038
:105A2000CBFF134BAB61FEF759FC1248124D03F04C
:105A3000C7F9124A12491348134B17688C61046066
:105A40004FF480313046DC61996114602F6003F0BF
:105A500067FE012386F8F63003B0F0BDE493002022
:105A60000C970020A0970020C0E1010024AA0100AB
:105A700088E10100C09600205C9C02209C960020DA
:105A8000E01B02200894002064970020F8B57F4AAC
:105A9000137C012B40F2918072B6D36862B67C4EC3
:105AA000002BB8BF033332689C1094422FDD794B32
:105AB000794D93F900302B60002B35D1774A346053
:105AC000137C012B38D972B6D36862B6744E002BA2
:105AD000B8BF033332689C1094420FDD6D4B714F99
