:1000000000000320D1010000ED0A0100A50A010053
:10001000A50A0100A50A0100A50A0100A50A010020
:10002000A50A0100A50A0100A50A0100ED0A0100C8
:10003000ED0A0100A50A0100E1220100E52301000B
:10004000ED0A0100ED0A0100ED0A0100ED0A0100D0
:10005000ED0A0100ED0A0100ED0A0100ED0A0100C0
:10006000ED0A0100ED0A0100ED0A0100ED0A0100B0
:10007000ED0A0100ED0A0100ED0A0100ED0A0100A0
:10008000ED0A0100ED0A0100ED0A0100ED0A010090
:10009000ED0A0100ED0A0100ED0A0100ED0A010080
:1000A000413E01004D3E0100ED0A0100ED0A010054
:1000B000ED0A0100ED0A0100ED0A01000D25010025
:1000C000ED0A010039260100ED0A01006527010053
:1000D000ED0A01005D280100ED0A0100ED0A0100B2
:1000E000ED0A0100ED0A0100ED0A0100ED0A010030
:1000F000ED0A0100ED0A0100ED0A0100ED0A010020
:10010000ED0A0100ED0A0100ED0A0100ED0A01000F
:10011000ED0A0100E1110100ED0A0100ED0A010004
:10012000ED0A0100ED0A0100ED0A0100ED0A0100EF
:10013000ED0A0100ED0A0100ED0A0100ED0A0100DF
:1001400061040100ED0A010055290100ED0A0100DA
:10015000ED0A0100ED0A0100ED0A0100ED0A0100BF
:10016000ED0A0100ED0A0100593E0100ED0A01000F
:10017000ED0A0100ED0A0100ED0A0100ED0A01009F
:10018000ED0A0100ED0A0100ED0A0100ED0A01008F
:10019000ED0A0100ED0A01004D2A0100ED0A0100FF
:1001A000ED0A0100ED0A0100ED0A0100ED0A01006F
:1001B000ED0A0100ED0A0100ED0A0100ED0A01005F
:1001C000ED0A0100ED0A0100ED0A0100ED0A01004F
:1001D0005C4B4CF2205210B51A804DF628121A8052
:1001E00000BF00BF10F086FC574B4FF030621A6022
:1001F000564A9A60564ADA60564B4FF470021A60BB
:10020000554B564A1A60564A136813F4807304D14A
:1002100054490B604FF4A8531360534B1A781107DD
:1002200003D51A7842F008021A70504B5049AA229E
:100230001A70504A504B8B4204D252F8040F43F8C4
:10024000040BF8E74D4B4E4900228B4202D243F893
:10025000042BFAE74B494C4A002352F8230041F89B
:1002600023000133742BF8D1484B494A802103F80D
:10027000011B9342FBD1474B424A1A60464B8A22EC
:100280001A70A3F5805324225A70A0221A709A790A
:100290009207FCD59A79D406FCD4404A937903F0AE
:1002A0000C03082BFAD13E4B60221A7002331A78E5
:1002B000802AFCD1394B01221A715D225A719A7938
:1002C0009006FCD59979354A4906FBD5354B364918
:1002D00019600021596020231370937903F00C03F7
:1002E0000C2BFAD1314B324A1A60324B324A1A6027
:1002F00000225A60072243F8042C304AC3F80C2D20
:1003000062B610F0DDFD174B1B68DA0705D52C48E7
:1003100010F058FD2B4B2C4A1A602C4B1B785B06B7
:1003200009D5284C284B22689A4204D1244810F061
:1003300049FD0023236014F095FB10F0E1FB10F061
:100340000FFBFEE70E20054030800440823F040092
:100350000100002B88ED00E0002008E0030000858C
:1003600010D0034014D0034002D0074000E0074003
:10037000904C002094D40200303D0020904C00208E
:10038000DC790220003800200000000000E400E0DA
:1003900064E400E008ED00E0005006400040064044
:1003A00001E007404480044000000602048004404D
:1003B000C010070014E000E01FBF02000000202072
:1003C0000960305D1CE00340A5C3945A00F007406B
:1003D000FFFFFFFFFFFFFFFFFFFFFFFFFFFFFFFF2D
:1003E000FFFFFFFFFFFFFFFFFFFFFFFFFFFFFFFF1D
:1003F000FFFFFFFFFFFFFFFFFFFFFFFFFFFFFFFF0D
:10040000FFFFFFFFFFFFFFFFFFFFFFFFDEF9FFFF23
:1004100010B5054C237833B9044B13B10448AFF33E
:1004200000800123237010BD904C002000000000CC
:1004300090D40200084B10B51BB108490848AFF32F
:1004400000800848036803B910BD074B002BFBD0A0
:10045000BDE81040184700BF00000000944C002089
:1004600090D40200904C00200000000010F0A4BCCA
:1004700010B5044B044640F8183B08F033FC204606
:1004800010BD00BF08A1010010B504460FF0A0FF89
:10049000204610BD214B10B41A68136850681978B3
:1004A0000478507A137A044201EA03011BD0937A4C
:1004B00003F0030309B143F0040343F00803991068
:1004C000013B91720D2B0BD8DFE803F021071B07CE
:1004D0000A152121150A071B0721D368013BD360A8
:1004E0005DF8044B7047937A03F003030029E6D0CC
:1004F00043F00403E3E7D3685DF8044B023BD360A9
:100500007047D3685DF8044B0233D3607047D368FB
:100510005DF8044B0133D360704700BF6C6C022060
:10052000214B10B45A681368506819780478507ACF
:10053000137A044201EA03011BD0937A03F0030308
:1005400009B143F0040343F008039910013B917291
:100550000D2B0BD8DFE803F021071B070A1521211B
:10056000150A071B0721D368013BD3605DF8044BD4
:100570007047937A03F003030029E6D043F00403A5
:10058000E3E7D3685DF8044B023BD3607047D36860
:100590005DF8044B0233D3607047D3685DF8044BB9
:1005A0000133D360704700BF6C6C0220214B10B444
:1005B0009A681368506819780478507A137A04425C
:1005C00001EA03011BD0937A03F0030309B143F05E
:1005D000040343F008039910013B91720D2B0BD8D3
:1005E000DFE803F021071B070A152121150A071B65
:1005F0000721D368013BD3605DF8044B7047937AC1
:1006000003F003030029E6D043F00403E3E7D368D3
:100610005DF8044B023BD3607047D3685DF8044B30
:100620000233D3607047D3685DF8044B0133D36065
:10063000704700BF6C6C0220214B10B4DA6813685D
:10064000506819780478507A137A044201EA030159
:100650001BD0937A03F0030309B143F0040343F082
:1006600008039910013B91720D2B0BD8DFE803F0C2
:1006700021071B070A152121150A071B0721D3682B
:10068000013BD3605DF8044B7047937A03F003039A
:100690000029E6D043F00403E3E7D3685DF8044B98
:1006A000023BD3607047D3685DF8044B0233D360DC
:1006B0007047D3685DF8044B0133D360704700BFC7
:1006C0006C6C0220214B10B41A69136850681978B9
:1006D0000478507A137A044201EA03011BD0937A1A
:1006E00003F0030309B143F0040343F00803991036
:1006F000013B91720D2B0BD8DFE803F021071B079C
:100700000A152121150A071B0721D368013BD36075
:100710005DF8044B7047937A03F003030029E6D099
:1007200043F00403E3E7D3685DF8044B023BD36076
:100730007047D3685DF8044B0233D3607047D368C9
:100740005DF8044B0133D360704700BF6C6C02202E
:10075000214B10B45A691368506819780478507A9C
:10076000137A044201EA03011BD0937A03F00303D6
:1007700009B143F0040343F008039910013B91725F
:100780000D2B0BD8DFE803F021071B070A152121E9
:10079000150A071B0721D368013BD3605DF8044BA2
:1007A0007047937A03F003030029E6D043F0040373
:1007B000E3E7D3685DF8044B023BD3607047D3682E
:1007C0005DF8044B0233D3607047D3685DF8044B87
:1007D0000133D360704700BF6C6C0220214B10B412
:1007E0009A691368506819780478507A137A044229
:1007F00001EA03011BD0937A03F0030309B143F02C
:10080000040343F008039910013B91720D2B0BD8A0
:10081000DFE803F021071B070A152121150A071B32
:100820000721D368013BD3605DF8044B7047937A8E
:1008300003F003030029E6D043F00403E3E7D368A1
:100840005DF8044B023BD3607047D3685DF8044BFE
:100850000233D3607047D3685DF8044B0133D36033
:10086000704700BF6C6C0220214B10B4DA6913682A
:10087000506819780478507A137A044201EA030127
:100880001BD0937A03F0030309B143F0040343F050
:1008900008039910013B91720D2B0BD8DFE803F090
:1008A00021071B070A152121150A071B0721D368F9
:1008B000013BD3605DF8044B7047937A03F0030368
:1008C0000029E6D043F00403E3E7D3685DF8044B66
:1008D000023BD3607047D3685DF8044B0233D360AA
:1008E0007047D3685DF8044B0133D360704700BF95
:1008F0006C6C0220214B10B41A6A13685068197886
:100900000478507A137A044201EA03011BD0937AE7
:1009100003F0030309B143F0040343F00803991003
:10092000013B91720D2B0BD8DFE803F021071B0769
:100930000A152121150A071B0721D368013BD36043
:100940005DF8044B7047937A03F003030029E6D067
:1009500043F00403E3E7D3685DF8044B023BD36044
:100960007047D3685DF8044B0233D3607047D36897
:100970005DF8044B0133D360704700BF6C6C0220FC
:10098000214B10B45A6A1368506819780478507A69
:10099000137A044201EA03011BD0937A03F00303A4
:1009A00009B143F0040343F008039910013B91722D
:1009B0000D2B0BD8DFE803F021071B070A152121B7
:1009C000150A071B0721D368013BD3605DF8044B70
:1009D0007047937A03F003030029E6D043F0040341
:1009E000E3E7D3685DF8044B023BD3607047D368FC
:1009F0005DF8044B0233D3607047D3685DF8044B55
:100A00000133D360704700BF6C6C0220214B10B4DF
:100A10009A6A1368506819780478507A137A0442F5
:100A200001EA03011BD0937A03F0030309B143F0F9
:100A3000040343F008039910013B91720D2B0BD86E
:100A4000DFE803F021071B070A152121150A071B00
:100A50000721D368013BD3605DF8044B7047937A5C
:100A600003F003030029E6D043F00403E3E7D3686F
:100A70005DF8044B023BD3607047D3685DF8044BCC
:100A80000233D3607047D3685DF8044B0133D36001
:100A9000704700BF6C6C0220214B10B4DA6A1368F7
:100AA000506819780478507A137A044201EA0301F5
:100AB0001BD0937A03F0030309B143F0040343F01E
:100AC00008039910013B91720D2B0BD8DFE803F05E
:100AD00021071B070A152121150A071B0721D368C7
:100AE000013BD3605DF8044B7047937A03F0030336
:100AF0000029E6D043F00403E3E7D3685DF8044B34
:100B0000023BD3607047D3685DF8044B0233D36077
:100B10007047D3685DF8044B0133D360704700BF62
:100B20006C6C0220214B10B41A6B13685068197852
:100B30000478507A137A044201EA03011BD0937AB5
:100B400003F0030309B143F0040343F008039910D1
:100B5000013B91720D2B0BD8DFE803F021071B0737
:100B60000A152121150A071B0721D368013BD36011
:100B70005DF8044B7047937A03F003030029E6D035
:100B800043F00403E3E7D3685DF8044B023BD36012
:100B90007047D3685DF8044B0233D3607047D36865
:100BA0005DF8044B0133D360704700BF6C6C0220CA
:100BB000214B10B45A6B1368506819780478507A36
:100BC000137A044201EA03011BD0937A03F0030372
:100BD00009B143F0040343F008039910013B9172FB
:100BE0000D2B0BD8DFE803F021071B070A15212185
:100BF000150A071B0721D368013BD3605DF8044B3E
:100C00007047937A03F003030029E6D043F004030E
:100C1000E3E7D3685DF8044B023BD3607047D368C9
:100C20005DF8044B0233D3607047D3685DF8044B22
:100C30000133D360704700BF6C6C0220214B10B4AD
:100C40009A6B1368506819780478507A137A0442C2
:100C500001EA03011BD0937A03F0030309B143F0C7
:100C6000040343F008039910013B91720D2B0BD83C
:100C7000DFE803F021071B070A152121150A071BCE
:100C80000721D368013BD3605DF8044B7047937A2A
:100C900003F003030029E6D043F00403E3E7D3683D
:100CA0005DF8044B023BD3607047D3685DF8044B9A
:100CB0000233D3607047D3685DF8044B0133D360CF
:100CC000704700BF6C6C0220214B10B4DA6B1368C4
:100CD000506819780478507A137A044201EA0301C3
:100CE0001BD0937A03F0030309B143F0040343F0EC
:100CF00008039910013B91720D2B0BD8DFE803F02C
:100D000021071B070A152121150A071B0721D36894
:100D1000013BD3605DF8044B7047937A03F0030303
:100D20000029E6D043F00403E3E7D3685DF8044B01
:100D3000023BD3607047D3685DF8044B0233D36045
:100D40007047D3685DF8044B0133D360704700BF30
:100D50006C6C0220214B10B41A6C1368506819781F
:100D60000478507A137A044201EA03011BD0937A83
:100D700003F0030309B143F0040343F0080399109F
:100D8000013B91720D2B0BD8DFE803F021071B0705
:100D90000A152121150A071B0721D368013BD360DF
:100DA0005DF8044B7047937A03F003030029E6D003
:100DB00043F00403E3E7D3685DF8044B023BD360E0
:100DC0007047D3685DF8044B0233D3607047D36833
:100DD0005DF8044B0133D360704700BF6C6C022098
:100DE000214B10B45A6C1368506819780478507A03
:100DF000137A044201EA03011BD0937A03F0030340
:100E000009B143F0040343F008039910013B9172C8
:100E10000D2B0BD8DFE803F021071B070A15212152
:100E2000150A071B0721D368013BD3605DF8044B0B
:100E30007047937A03F003030029E6D043F00403DC
:100E4000E3E7D3685DF8044B023BD3607047D36897
:100E50005DF8044B0233D3607047D3685DF8044BF0
:100E60000133D360704700BF6C6C0220214B10B47B
:100E70009A6C1368506819780478507A137A04428F
:100E800001EA03011BD0937A03F0030309B143F095
:100E9000040343F008039910013B91720D2B0BD80A
:100EA000DFE803F021071B070A152121150A071B9C
:100EB0000721D368013BD3605DF8044B7047937AF8
:100EC00003F003030029E6D043F00403E3E7D3680B
:100ED0005DF8044B023BD3607047D3685DF8044B68
:100EE0000233D3607047D3685DF8044B0133D3609D
:100EF000704700BF6C6C0220214B10B4DA6C136891
:100F0000506819780478507A137A044201EA030190
:100F10001BD0937A03F0030309B143F0040343F0B9
:100F200008039910013B91720D2B0BD8DFE803F0F9
:100F300021071B070A152121150A071B0721D36862
:100F4000013BD3605DF8044B7047937A03F00303D1
:100F50000029E6D043F00403E3E7D3685DF8044BCF
:100F6000023BD3607047D3685DF8044B0233D36013
:100F70007047D3685DF8044B0133D360704700BFFE
:100F80006C6C0220214B10B41A6D136850681978EC
:100F90000478507A137A044201EA03011BD0937A51
:100FA00003F0030309B143F0040343F0080399106D
:100FB000013B91720D2B0BD8DFE803F021071B07D3
:100FC0000A152121150A071B0721D368013BD360AD
:100FD0005DF8044B7047937A03F003030029E6D0D1
:100FE00043F00403E3E7D3685DF8044B023BD360AE
:100FF0007047D3685DF8044B0233D3607047D36801
:101000005DF8044B0133D360704700BF6C6C022065
:10101000214B10B45A6D1368506819780478507ACF
:10102000137A044201EA03011BD0937A03F003030D
:1010300009B143F0040343F008039910013B917296
:101040000D2B0BD8DFE803F021071B070A15212120
:10105000150A071B0721D368013BD3605DF8044BD9
:101060007047937A03F003030029E6D043F00403AA
:10107000E3E7D3685DF8044B023BD3607047D36865
:101080005DF8044B0233D3607047D3685DF8044BBE
:101090000133D360704700BF6C6C0220214B10B449
:1010A0009A6D1368506819780478507A137A04425C
:1010B00001EA03011BD0937A03F0030309B143F063
:1010C000040343F008039910013B91720D2B0BD8D8
:1010D000DFE803F021071B070A152121150A071B6A
:1010E0000721D368013BD3605DF8044B7047937AC6
:1010F00003F003030029E6D043F00403E3E7D368D9
:101100005DF8044B023BD3607047D3685DF8044B35
:101110000233D3607047D3685DF8044B0133D3606A
:10112000704700BF6C6C0220214B10B4DA6D13685D
:10113000506819780478507A137A044201EA03015E
:101140001BD0937A03F0030309B143F0040343F087
:1011500008039910013B91720D2B0BD8DFE803F0C7
:1011600021071B070A152121150A071B0721D36830
:10117000013BD3605DF8044B7047937A03F003039F
:101180000029E6D043F00403E3E7D3685DF8044B9D
:10119000023BD3607047D3685DF8044B0233D360E1
:1011A0007047D3685DF8044B0133D360704700BFCC
:1011B0006C6C0220214B10B41A6E136850681978B9
:1011C0000478507A137A044201EA03011BD0937A1F
:1011D00003F0030309B143F0040343F0080399103B
:1011E000013B91720D2B0BD8DFE803F021071B07A1
:1011F0000A152121150A071B0721D368013BD3607B
:101200005DF8044B7047937A03F003030029E6D09E
:1012100043F00403E3E7D3685DF8044B023BD3607B
:101220007047D3685DF8044B0233D3607047D368CE
:101230005DF8044B0133D360704700BF6C6C022033
:10124000214B10B45A6E1368506819780478507A9C
:10125000137A044201EA03011BD0937A03F00303DB
:1012600009B143F0040343F008039910013B917264
:101270000D2B0BD8DFE803F021071B070A152121EE
:10128000150A071B0721D368013BD3605DF8044BA7
:101290007047937A03F003030029E6D043F0040378
:1012A000E3E7D3685DF8044B023BD3607047D36833
:1012B0005DF8044B0233D3607047D3685DF8044B8C
:1012C0000133D360704700BF6C6C0220214B10B417
:1012D0009A6E1368506819780478507A137A044229
:1012E00001EA03011BD0937A03F0030309B143F031
:1012F000040343F008039910013B91720D2B0BD8A6
:10130000DFE803F021071B070A152121150A071B37
:101310000721D368013BD3605DF8044B7047937A93
:1013200003F003030029E6D043F00403E3E7D368A6
:101330005DF8044B023BD3607047D3685DF8044B03
:101340000233D3607047D3685DF8044B0133D36038
:10135000704700BF6C6C0220214B10B4DA6E13682A
:10136000506819780478507A137A044201EA03012C
:101370001BD0937A03F0030309B143F0040343F055
:1013800008039910013B91720D2B0BD8DFE803F095
:1013900021071B070A152121150A071B0721D368FE
:1013A000013BD3605DF8044B7047937A03F003036D
:1013B0000029E6D043F00403E3E7D3685DF8044B6B
:1013C000023BD3607047D3685DF8044B0233D360AF
:1013D0007047D3685DF8044B0133D360704700BF9A
:1013E0006C6C0220214B10B41A6F13685068197886
:1013F0000478507A137A044201EA03011BD0937AED
:1014000003F0030309B143F0040343F00803991008
:10141000013B91720D2B0BD8DFE803F021071B076E
:101420000A152121150A071B0721D368013BD36048
:101430005DF8044B7047937A03F003030029E6D06C
:1014400043F00403E3E7D3685DF8044B023BD36049
:101450007047D3685DF8044B0233D3607047D3689C
:101460005DF8044B0133D360704700BF6C6C022001
:10147000214B10B45A6F1368506819780478507A69
:10148000137A044201EA03011BD0937A03F00303A9
:1014900009B143F0040343F008039910013B917232
:1014A0000D2B0BD8DFE803F021071B070A152121BC
:1014B000150A071B0721D368013BD3605DF8044B75
:1014C0007047937A03F003030029E6D043F0040346
:1014D000E3E7D3685DF8044B023BD3607047D36801
:1014E0005DF8044B0233D3607047D3685DF8044B5A
:1014F0000133D360704700BF6C6C0220214B10B4E5
:101500009A6F1368506819780478507A137A0442F5
:1015100001EA03011BD0937A03F0030309B143F0FE
:10152000040343F008039910013B91720D2B0BD873
:10153000DFE803F021071B070A152121150A071B05
:101540000721D368013BD3605DF8044B7047937A61
:1015500003F003030029E6D043F00403E3E7D36874
:101560005DF8044B023BD3607047D3685DF8044BD1
:101570000233D3607047D3685DF8044B0133D36006
:10158000704700BF6C6C0220214B10B4DA6F1368F7
:10159000506819780478507A137A044201EA0301FA
:1015A0001BD0937A03F0030309B143F0040343F023
:1015B00008039910013B91720D2B0BD8DFE803F063
:1015C00021071B070A152121150A071B0721D368CC
:1015D000013BD3605DF8044B7047937A03F003033B
:1015E0000029E6D043F00403E3E7D3685DF8044B39
:1015F000023BD3607047D3685DF8044B0233D3607D
:101600007047D3685DF8044B0133D360704700BF67
:101610006C6C0220214B10B4D3F8E02013685068A2
:1016200019780478507A137A044201EA03011BD036
:10163000937A03F0030309B143F0040343F0080372
:101640009910013B91720D2B0BD8DFE803F02107B5
:101650001B070A152121150A071B0721D368013B27
:10166000D3605DF8044B7047937A03F003030029BD
:10167000E6D043F00403E3E7D3685DF8044B023B94
:10168000D3607047D3685DF8044B0233D360704772
:10169000D3685DF8044B0133D36070476C6C022053
:1016A000214B10B4D3F8E4201368506819780478FB
:1016B000507A137A044201EA03011BD0937A03F0B3
:1016C000030309B143F0040343F008039910013BFD
:1016D00091720D2B0BD8DFE803F021071B070A15C9
:1016E0002121150A071B0721D368013BD3605DF850
:1016F000044B7047937A03F003030029E6D043F0CC
:101700000403E3E7D3685DF8044B023BD360704702
:10171000D3685DF8044B0233D3607047D3685DF83B
:10172000044B0133D36070476C6C0220214B10B422
:10173000D3F8E8201368506819780478507A137A3F
:10174000044201EA03011BD0937A03F0030309B1B9
:1017500043F0040343F008039910013B91720D2BF1
:101760000BD8DFE803F021071B070A152121150A12
:10177000071B0721D368013BD3605DF8044B70471A
:10178000937A03F003030029E6D043F00403E3E770
:10179000D3685DF8044B023BD3607047D3685DF8B3
:1017A000044B0233D3607047D3685DF8044B0133B8
:1017B000D36070476C6C0220214B10B4D3F8EC203E
:1017C0001368506819780478507A137A044201EA51
:1017D00003011BD0937A03F0030309B143F0040320
:1017E00043F008039910013B91720D2B0BD8DFE8F1
:1017F00003F021071B070A152121150A071B0721E2
:10180000D368013BD3605DF8044B7047937A03F0D3
:1018100003030029E6D043F00403E3E7D3685DF84F
:10182000044B023BD3607047D3685DF8044B02332E
:10183000D3607047D3685DF8044B0133D3607047C1
:101840006C6C0220214B10B4D3F8C0201368506890
:1018500019780478507A137A044201EA03011BD004
:10186000937A03F0030309B143F0040343F0080340
:101870009910013B91720D2B0BD8DFE803F0210783
:101880001B070A152121150A071B0721D368013BF5
:10189000D3605DF8044B7047937A03F0030300298B
:1018A000E6D043F00403E3E7D3685DF8044B023B62
:1018B000D3607047D3685DF8044B0233D360704740
:1018C000D3685DF8044B0133D36070476C6C022021
:1018D000214B10B4D3F8C4201368506819780478E9
:1018E000507A137A044201EA03011BD0937A03F081
:1018F000030309B143F0040343F008039910013BCB
:1019000091720D2B0BD8DFE803F021071B070A1596
:101910002121150A071B0721D368013BD3605DF81D
:10192000044B7047937A03F003030029E6D043F099
:101930000403E3E7D3685DF8044B023BD3607047D0
:10194000D3685DF8044B0233D3607047D3685DF809
:10195000044B0133D36070476C6C0220214B10B4F0
:10196000D3F8C8201368506819780478507A137A2D
:10197000044201EA03011BD0937A03F0030309B187
:1019800043F0040343F008039910013B91720D2BBF
:101990000BD8DFE803F021071B070A152121150AE0
:1019A000071B0721D368013BD3605DF8044B7047E8
:1019B000937A03F003030029E6D043F00403E3E73E
:1019C000D3685DF8044B023BD3607047D3685DF881
:1019D000044B0233D3607047D3685DF8044B013386
:1019E000D36070476C6C0220214B10B4D3F8CC202C
:1019F0001368506819780478507A137A044201EA1F
:101A000003011BD0937A03F0030309B143F00403ED
:101A100043F008039910013B91720D2B0BD8DFE8BE
:101A200003F021071B070A152121150A071B0721AF
:101A3000D368013BD3605DF8044B7047937A03F0A1
:101A400003030029E6D043F00403E3E7D3685DF81D
:101A5000044B023BD3607047D3685DF8044B0233FC
:101A6000D3607047D3685DF8044B0133D36070478F
:101A70006C6C0220214B10B4D3F8D020136850684E
:101A800019780478507A137A044201EA03011BD0D2
:101A9000937A03F0030309B143F0040343F008030E
:101AA0009910013B91720D2B0BD8DFE803F0210751
:101AB0001B070A152121150A071B0721D368013BC3
:101AC000D3605DF8044B7047937A03F00303002959
:101AD000E6D043F00403E3E7D3685DF8044B023B30
:101AE000D3607047D3685DF8044B0233D36070470E
:101AF000D3685DF8044B0133D36070476C6C0220EF
:101B0000214B10B4D3F8D4201368506819780478A6
:101B1000507A137A044201EA03011BD0937A03F04E
:101B2000030309B143F0040343F008039910013B98
:101B300091720D2B0BD8DFE803F021071B070A1564
:101B40002121150A071B0721D368013BD3605DF8EB
:101B5000044B7047937A03F003030029E6D043F067
:101B60000403E3E7D3685DF8044B023BD36070479E
:101B7000D3685DF8044B0233D3607047D3685DF8D7
:101B8000044B0133D36070476C6C0220214B10B4BE
:101B9000D3F8D8201368506819780478507A137AEB
:101BA000044201EA03011BD0937A03F0030309B155
:101BB00043F0040343F008039910013B91720D2B8D
:101BC0000BD8DFE803F021071B070A152121150AAE
:101BD000071B0721D368013BD3605DF8044B7047B6
:101BE000937A03F003030029E6D043F00403E3E70C
:101BF000D3685DF8044B023BD3607047D3685DF84F
:101C0000044B0233D3607047D3685DF8044B013353
:101C1000D36070476C6C0220214B10B4D3F8DC20E9
:101C20001368506819780478507A137A044201EAEC
:101C300003011BD0937A03F0030309B143F00403BB
:101C400043F008039910013B91720D2B0BD8DFE88C
:101C500003F021071B070A152121150A071B07217D
:101C6000D368013BD3605DF8044B7047937A03F06F
:101C700003030029E6D043F00403E3E7D3685DF8EB
:101C8000044B023BD3607047D3685DF8044B0233CA
:101C9000D3607047D3685DF8044B0133D36070475D
:101CA0006C6C0220214B10B4D3F88020136850686C
:101CB00019780478507A137A044201EA03011BD0A0
:101CC000937A03F0030309B143F0040343F00803DC
:101CD0009910013B91720D2B0BD8DFE803F021071F
:101CE0001B070A152121150A071B0721D368013B91
:101CF000D3605DF8044B7047937A03F00303002927
:101D0000E6D043F00403E3E7D3685DF8044B023BFD
:101D1000D3607047D3685DF8044B0233D3607047DB
:101D2000D3685DF8044B0133D36070476C6C0220BC
:101D3000214B10B4D3F884201368506819780478C4
:101D4000507A137A044201EA03011BD0937A03F01C
:101D5000030309B143F0040343F008039910013B66
:101D600091720D2B0BD8DFE803F021071B070A1532
:101D70002121150A071B0721D368013BD3605DF8B9
:101D8000044B7047937A03F003030029E6D043F035
:101D90000403E3E7D3685DF8044B023BD36070476C
:101DA000D3685DF8044B0233D3607047D3685DF8A5
:101DB000044B0133D36070476C6C0220214B10B48C
:101DC000D3F888201368506819780478507A137A09
:101DD000044201EA03011BD0937A03F0030309B123
:101DE00043F0040343F008039910013B91720D2B5B
:101DF0000BD8DFE803F021071B070A152121150A7C
:101E0000071B0721D368013BD3605DF8044B704783
:101E1000937A03F003030029E6D043F00403E3E7D9
:101E2000D3685DF8044B023BD3607047D3685DF81C
:101E3000044B0233D3607047D3685DF8044B013321
:101E4000D36070476C6C0220214B10B4D3F88C2007
:101E50001368506819780478507A137A044201EABA
:101E600003011BD0937A03F0030309B143F0040389
:101E700043F008039910013B91720D2B0BD8DFE85A
:101E800003F021071B070A152121150A071B07214B
:101E9000D368013BD3605DF8044B7047937A03F03D
:101EA00003030029E6D043F00403E3E7D3685DF8B9
:101EB000044B023BD3607047D3685DF8044B023398
:101EC000D3607047D3685DF8044B0133D36070472B
:101ED0006C6C0220214B10B4D3F89020136850682A
:101EE00019780478507A137A044201EA03011BD06E
:101EF000937A03F0030309B143F0040343F00803AA
:101F00009910013B91720D2B0BD8DFE803F02107EC
:101F10001B070A152121150A071B0721D368013B5E
:101F2000D3605DF8044B7047937A03F003030029F4
:101F3000E6D043F00403E3E7D3685DF8044B023BCB
:101F4000D3607047D3685DF8044B0233D3607047A9
:101F5000D3685DF8044B0133D36070476C6C02208A
:101F6000214B10B4D3F89420136850681978047882
:101F7000507A137A044201EA03011BD0937A03F0EA
:101F8000030309B143F0040343F008039910013B34
:101F900091720D2B0BD8DFE803F021071B070A1500
:101FA0002121150A071B0721D368013BD3605DF887
:101FB000044B7047937A03F003030029E6D043F003
:101FC0000403E3E7D3685DF8044B023BD36070473A
:101FD000D3685DF8044B0233D3607047D3685DF873
:101FE000044B0133D36070476C6C0220214B10B45A
:101FF000D3F898201368506819780478507A137AC7
:10200000044201EA03011BD0937A03F0030309B1F0
:1020100043F0040343F008039910013B91720D2B28
:102020000BD8DFE803F021071B070A152121150A49
:10203000071B0721D368013BD3605DF8044B704751
:10204000937A03F003030029E6D043F00403E3E7A7
:10205000D3685DF8044B023BD3607047D3685DF8EA
:10206000044B0233D3607047D3685DF8044B0133EF
:10207000D36070476C6C0220214B10B4D3F89C20C5
:102080001368506819780478507A137A044201EA88
:1020900003011BD0937A03F0030309B143F0040357
:1020A00043F008039910013B91720D2B0BD8DFE828
:1020B00003F021071B070A152121150A071B072119
:1020C000D368013BD3605DF8044B7047937A03F00B
:1020D00003030029E6D043F00403E3E7D3685DF887
:1020E000044B023BD3607047D3685DF8044B023366
:1020F000D3607047D3685DF8044B0133D3607047F9
:102100006C6C0220214B10B4D3F8A02013685068E7
:1021100019780478507A137A044201EA03011BD03B
:10212000937A03F0030309B143F0040343F0080377
:102130009910013B91720D2B0BD8DFE803F02107BA
:102140001B070A152121150A071B0721D368013B2C
:10215000D3605DF8044B7047937A03F003030029C2
:10216000E6D043F00403E3E7D3685DF8044B023B99
:10217000D3607047D3685DF8044B0233D360704777
:10218000D3685DF8044B0133D36070476C6C022058
:10219000214B10B4D3F8A420136850681978047840
:1021A000507A137A044201EA03011BD0937A03F0B8
:1021B000030309B143F0040343F008039910013B02
:1021C00091720D2B0BD8DFE803F021071B070A15CE
:1021D0002121150A071B0721D368013BD3605DF855
:1021E000044B7047937A03F003030029E6D043F0D1
:1021F0000403E3E7D3685DF8044B023BD360704708
:10220000D3685DF8044B0233D3607047D3685DF840
:10221000044B0133D36070476C6C0220214B10B427
:10222000D3F8A8201368506819780478507A137A84
:10223000044201EA03011BD0937A03F0030309B1BE
:1022400043F0040343F008039910013B91720D2BF6
:102250000BD8DFE803F021071B070A152121150A17
:10226000071B0721D368013BD3605DF8044B70471F
:10227000937A03F003030029E6D043F00403E3E775
:10228000D3685DF8044B023BD3607047D3685DF8B8
:10229000044B0233D3607047D3685DF8044B0133BD
:1022A000D36070476C6C0220214B10B4D3F8AC2083
:1022B0001368506819780478507A137A044201EA56
:1022C00003011BD0937A03F0030309B143F0040325
:1022D00043F008039910013B91720D2B0BD8DFE8F6
:1022E00003F021071B070A152121150A071B0721E7
:1022F000D368013BD3605DF8044B7047937A03F0D9
:1023000003030029E6D043F00403E3E7D3685DF854
:10231000044B023BD3607047D3685DF8044B023333
:10232000D3607047D3685DF8044B0133D3607047C6
:102330006C6C0220214B10B4D3F8B02013685068A5
:1023400019780478507A137A044201EA03011BD009
:10235000937A03F0030309B143F0040343F0080345
:102360009910013B91720D2B0BD8DFE803F0210788
:102370001B070A152121150A071B0721D368013BFA
:10238000D3605DF8044B7047937A03F00303002990
:10239000E6D043F00403E3E7D3685DF8044B023B67
:1023A000D3607047D3685DF8044B0233D360704745
:1023B000D3685DF8044B0133D36070476C6C022026
:1023C000214B10B4D3F8B4201368506819780478FE
:1023D000507A137A044201EA03011BD0937A03F086
:1023E000030309B143F0040343F008039910013BD0
:1023F00091720D2B0BD8DFE803F021071B070A159C
:102400002121150A071B0721D368013BD3605DF822
:10241000044B7047937A03F003030029E6D043F09E
:102420000403E3E7D3685DF8044B023BD3607047D5
:10243000D3685DF8044B0233D3607047D3685DF80E
:10244000044B0133D36070476C6C0220214B10B4F5
:10245000D3F8B8201368506819780478507A137A42
:10246000044201EA03011BD0937A03F0030309B18C
:1024700043F0040343F008039910013B91720D2BC4
:102480000BD8DFE803F021071B070A152121150AE5
:10249000071B0721D368013BD3605DF8044B7047ED
:1024A000937A03F003030029E6D043F00403E3E743
:1024B000D3685DF8044B023BD3607047D3685DF886
:1024C000044B0233D3607047D3685DF8044B01338B
:1024D000D36070476C6C0220214B10B4D3F8BC2041
:1024E0001368506819780478507A137A044201EA24
:1024F00003011BD0937A03F0030309B143F00403F3
:1025000043F008039910013B91720D2B0BD8DFE8C3
:1025100003F021071B070A152121150A071B0721B4
:10252000D368013BD3605DF8044B7047937A03F0A6
:1025300003030029E6D043F00403E3E7D3685DF822
:10254000044B023BD3607047D3685DF8044B023301
:10255000D3607047D3685DF8044B0133D360704794
:102560006C6C0220002310B4114C417202610460B3
:102570000372C36041B1194600E0026942F82310BA
:10258000427A01339A42F8DC0A4B1A680AB90CE025
:102590001A465369002BFBD15061002343618380AD
:1025A000C38083725DF8044B70471860F5E700BF85
:1025B0006C920100DC740220F8B5044615460E4604
:1025C000084602210EF024FC284602210EF020FCD1
:1025D000984A994B52F83610012001F50077276090
:1025E000207252F83520607202F500770020676093
:1025F000E060013BFDD191F8003292F8002203F037
:102600000103D20744BF43F00203DBB2A3723B2EA7
:1026100000F20386DFE816F0F405EA05E005D605CA
:10262000CC05C205B805AE05A4059A05900586053A
:102630007C05720568055E0554054A0540053605AA
:102640002C05220518050E050405FA04F004E6041D
:10265000DC04D204C804BE04B304A8049D0492049C
:1026600087047C0428041E0414040A040004F603EE
:10267000EC03E203D803CE03C403BA03B003A603FA
:102680009C03920388037E0374036A0360033C0087
:102690006A4B6B49C3F8EC4004223B200EF010FB60
:1026A000012323743B2D00F2B585DFE815F00B0301
:1026B0000103F702ED02E302D902CF02C502BB0219
:1026C000B102A7029D02930289027F023102270212
:1026D0001D0213020902FF01F501EB01E101D7011F
:1026E000CD01C301B901AF01A5019B019101860193
:1026F0007B01700165015A014F01440139012E012E
:10270000230118010D010201F700EC00E100B800FF
:10271000AD00A20097008C00810076006B00600085
:1027200055004A003C00454B4549C3F8EC400422A3
:102730003B200EF0C5FA237C01221344237420466B
:10274000F8BD3E4B3F49C3F8E84004223A200EF062
:10275000B7FA237C0122F0E7384B3B49C3F8E44049
:10276000042239200EF0ACFA237C0122E5E7334B3A
:102770003649C3F8E040042238200EF0A1FA237C49
:102780000122DAE72D4B3249C3F8DC40042237201E
:102790000EF096FA237C0122CFE7284B2D49C3F88F
:1027A000D840042236200EF08BFA237C0122C4E7A5
:1027B000224B2949C3F8D440042235200EF080FA78
:1027C000237C0122B9E71D4B2449C3F8D0400422E1
:1027D00034200EF075FA237C0122AEE7174B204916
:1027E000C3F8CC40042233200EF06AFA237C012285
:1027F000A3E7124B1B49C3F8C840042232200EF055
:102800005FFA237C012298E70C4B1749C3F8C440B8
:10281000042231200EF054FA237C01228DE7074B6D
:102820001249C3F8C040042230200EF049FA237C3C
:10283000012282E7C4D40100C0D401006C6C0220E4
:10284000B91700002D170000A11600001516000092
:10285000191C00008D1B0000011B0000751A0000F0
:10286000E91900005D190000D118000045180000AA
:10287000AC4BAD49C3F8BC4004222F200EF020FA27
:10288000237C012259E7A74BA849C3F8B84004228A
:102890002E200EF015FA237C01224EE7A14BA4490D
:1028A000C3F8B44004222D200EF00AFA237C012242
:1028B00043E79C4B9F49C3F8B04004222C200EF004
:1028C000FFF9237C012238E7964B9B49C3F8AC40C3
:1028D00004222B200EF0F4F9237C01222DE7914BEA
:1028E0009649C3F8A84004222A200EF0E9F9237C77
:1028F000012222E78B4B9249C3F8A44004222920ED
:102900000EF0DEF9237C012217E7864B8D49C3F8D0
:10291000A040042228200EF0D3F9237C01220CE7EA
:10292000804B8949C3F89C40042227200EF0C8F947
:10293000237C012201E77B4B8449C3F898400422A1
:1029400026200EF0BDF9237C0122F6E6754B804966
:10295000C3F89440042225200EF0B2F9237C012212
:10296000EBE6704B7B49C3F89040042224200EF024
:10297000A7F9237C0122E0E66A4B7749C3F88C4033
:10298000042223200EF09CF9237C0122D5E6654B1E
:102990007249C3F88840042222200EF091F9237C6A
:1029A0000122CAE65F4B6E49C3F88440042221200D
:1029B0000EF086F9237C0122BFE65A4B6949C3F821
:1029C0008040042220200EF07BF9237C0122B4E613
:1029D000544B6549DC6704221F200EF071F9237CFB
:1029E0000122AAE64F4B61499C6704221E200EF08B
:1029F00067F9237C0122A0E64A4B5D495C6704220B
:102A00001D200EF05DF9237C012296E6454B5949C5
:102A10001C6704221C200EF053F9237C01228CE653
:102A2000404B5549DC6604221B200EF049F9237CFB
:102A3000012282E63B4B51499C6604221A200EF08B
:102A40003FF9237C012278E6364B4D495C6604222F
:102A500019200EF035F9237C01226EE6314B4949ED
:102A60001C66042218200EF02BF9237C012264E658
:102A70002C4B4549DC65042217200EF021F9237CFC
:102A800001225AE6274B41499C65042216200EF08C
:102A900017F9237C012250E6224B3D495C65042254
:102AA00015200EF00DF9237C012246E61D4B394915
:102AB0001C65042214200EF003F9237C01223CE65D
:102AC000184B3549DC64042213200EF0F9F8237CFE
:102AD000012232E6134B31499C64042212200EF08D
:102AE000EFF8237C012228E60E4B2D495C6404227A
:102AF00011200EF0E5F8237C01221EE6094B29493E
:102B00001C64042210200EF0DBF8237C012214E662
:102B1000044B2549DC6304220F200EF0D1F8237CFE
:102B200001220AE66C6C0220D92400004D2400002A
:102B3000C123000035230000A92200001D2200004F
:102B4000912100000521000079200000ED1F000008
:102B5000611F0000D51E0000491E0000BD1D0000C1
:102B6000311D0000A51C000089150000FD140000A7
:102B700071140000E513000059130000CD1200008D
:102B800041120000B5110000291100009D10000045
:102B900011100000850F0000F90E00006D0E0000FE
:102BA000E10D0000550D0000C90C0000B34BB44905
:102BB0009C6304220E200EF083F8237C0122BCE5E6
:102BC000AE4BB0495C6304220D200EF079F8237CF3
:102BD0000122B2E5A94BAC491C6304220C200EF083
:102BE0006FF8237C0122A8E5A44BA849DC620422EB
:102BF0000B200EF065F8237C01229EE59F4BA44933
:102C00009C6204220A200EF05BF8237C012294E5EA
:102C10009A4BA0495C62042209200EF051F8237CF3
:102C200001228AE5954B9C491C62042208200EF083
:102C300047F8237C012280E5904B9849DC6104220F
:102C400007200EF03DF8237C012276E58B4B94495A
:102C50009C61042206200EF033F8237C01226CE5EF
:102C6000864B90495C61042205200EF029F8237CF4
:102C7000012262E5814B8C491C61042210460EF052
:102C80001FF8237C012258E57C4B8849DC60042234
:102C900003200EF015F8237C01224EE5774B844982
:102CA0009C60042202200EF00BF8237C012244E5F4
:102CB000724B80495C60042201200EF001F8237CF5
:102CC00001223AE56D4B7C491C60042200200DF086
:102CD000F7FF237C012230E5684B7849C3F8E840D0
:102CE00004223A200DF0ECFF0123DAE4634B74492F
:102CF000C3F8E440042239200DF0E2FF0123D0E4C0
:102D00005E4B7049C3F8E040042238200DF0D8FF34
:102D10000123C6E4594B6C49C3F8DC400422372038
:102D20000DF0CEFF0123BCE4544B6849C3F8D840F2
:102D3000042236200DF0C4FF0123B2E44F4B644956
:102D4000C3F8D440042235200DF0BAFF0123A8E4D3
:102D50004A4B6049C3F8D040042234200DF0B0FF44
:102D600001239EE4454B5C49C3F8CC400422332048
:102D70000DF0A6FF012394E4404B5849C3F8C84026
:102D8000042232200DF09CFF01238AE43B4B54497E
:102D9000C3F8C440042231200DF092FF012380E4E7
:102DA000364B5049C3F8C040042230200DF088FF54
:102DB000012376E4314B4C49C3F8BC4004222F2058
:102DC0000DF07EFF01236CE42C4B4849C3F8B8405A
:102DD00004222E200DF074FF012362E4274B4449A6
:102DE000C3F8B44004222D200DF06AFF012358E4FB
:102DF000224B4049C3F8B04004222C200DF060FF64
:102E000001234EE41D4B3C49C3F8AC4004222B2067
:102E10000DF056FF012344E4184B3849C3F8A8408D
:102E200004222A200DF04CFF01233AE4134B3449CD
:102E3000C3F8A440042229200DF042FF012330E40E
:102E40000E4B3049C3F8A040042228200DF038FF73
:102E5000012326E4094B2C49C3F89C400422272077
:102E60000DF02EFF01231CE4044B2849C3F89840C1
:102E7000042226200DF024FF012312E46C6C0220B2
:102E80003D0C0000B10B0000250B0000990A00006A
:102E90000D0A000081090000F50800006908000023
:102EA000DD07000051070000C506000039060000DC
:102EB000AD05000021050000950400002D1700005D
:102EC000A116000015160000191C00008D1B000043
:102ED000011B0000751A0000E91900005D190000CF
:102EE000D118000045180000D92400004D2400002E
:102EF000C123000035230000A92200001D2200008C
:102F0000912100000521000079200000ED1F000044
:102F1000C34BC449C3F89440042225200DF0D0FED1
:102F20000123FFF7BEBBBE4BBF49C3F8904004224C
:102F300024200DF0C5FE0123FFF7B3BBB84BBB49FE
:102F4000C3F88C40042223200DF0BAFE0123FFF7C2
:102F5000A8BBB34BB649C3F88840042222200DF029
:102F6000AFFE0123FFF79DBBAD4BB249C3F88440D0
:102F7000042221200DF0A4FE0123FFF792BBA84BF1
:102F8000AD49C3F88040042220200DF099FE0123B2
:102F9000FFF787BBA24BA949DC6704221F200DF075
:102FA0008FFE0123FFF77DBB9D4BA5499C67042243
:102FB0001E200DF085FE0123FFF773BB984BA1493E
:102FC0005C6704221D200DF07BFE0123FFF769BB27
:102FD000934B9D491C6704221C200DF071FE0123B8
:102FE000FFF75FBB8E4B9949DC6604221B200DF076
:102FF00067FE0123FFF755BB894B95499C66042268
:103000001A200DF05DFE0123FFF74BBB844B914965
:103010005C66042219200DF053FE0123FFF741BB2B
:103020007F4B8D491C66042218200DF049FE0123B8
:10303000FFF737BB7A4B8949DC65042217200DF076
:103040003FFE0123FFF72DBB754B85499C6504228C
:1030500016200DF035FE0123FFF723BB704B81498D
:103060005C65042215200DF02BFE0123FFF719BB30
:103070006B4B7D491C65042214200DF021FE0123B9
:10308000FFF70FBB664B7949DC64042213200DF077
:1030900017FE0123FFF705BB614B75499C640422B1
:1030A00012200DF00DFE0123FFF7FBBA5C4B7149B6
:1030B0005C64042211200DF003FE0123FFF7F1BA36
:1030C000574B6D491C64042210200DF0F9FD0123BB
:1030D000FFF7E7BA524B6949DC6304220F200DF079
:1030E000EFFD0123FFF7DDBA4D4B65499C630422D8
:1030F0000E200DF0E5FD0123FFF7D3BA484B6149DF
:103100005C6304220D200DF0DBFD0123FFF7C9BA3B
:10311000434B5D491C6304220C200DF0D1FD0123BB
:10312000FFF7BFBA3E4B5949DC6204220B200DF079
:10313000C7FD0123FFF7B5BA394B55499C620422FC
:103140000A200DF0BDFD0123FFF7ABBA344B514906
:103150005C62042209200DF0B3FD0123FFF7A1BA40
:103160002F4B4D491C62042208200DF0A9FD0123BC
:10317000FFF797BA2A4B4949DC61042207200DF07A
:103180009FFD0123FFF78DBA254B45499C61042221
:1031900006200DF095FD0123FFF783BA204B41492E
:1031A0005C61042205200DF08BFD0123FFF779BA45
:1031B0001B4B3D491C61042210460DF081FD01238B
:1031C000FFF76FBA164B3949DC60042203200DF07B
:1031D00077FD0123FFF765BA114B35499C60042246
:1031E00002200DF06DFD0123FFF75BBA0C4B314956
:1031F0005C60042201200DF063FD0123FFF751BA4A
:10320000074B2D491C60042200200DF059FD0123BD
:10321000FFF747BA0022FFF790BA0023FFF741BA41
:103220006C6C0220611F0000D51E0000491E0000CA
:10323000BD1D0000311D0000A51C00008915000007
:10324000FD14000071140000E51300005913000084
:10325000CD12000041120000B5110000291100003C
:103260009D10000011100000850F0000F90E0000F5
:103270006D0E0000E10D0000550D0000C90C0000AE
:103280003D0C0000B10B0000250B0000990A000066
:103290000D0A000081090000F5080000690800001F
:1032A000DD07000051070000C506000039060000D8
:1032B000AD05000021050000950400002DE9F04354
:1032C000344B804693E8030087B003AF002601909B
:1032D0008DF80810B946354630460DF0F9FA09F870
:1032E000010B4540082415F0010F4FEA550304F186
:1032F000FF3014BF83F08C05C5F3470510F0FF04C1
:10330000F1D101360B2EE7D1D5B90DF112022249C8
:1033100022480DF0BBF99DF815209DF807309A4220
:1033200005D19DF814209DF806309A4213D001AAC9
:103330001B491A480DF0AAF9002007B0BDE8F08338
:103340001C2118480EF0F6FD14480DF087F92046B0
:1033500007B0BDE8F0839DF813209DF805309A4230
:10336000E5D19DF812209DF804309A42DFD108F192
:10337000FF3308F10B0817F8012B03F8012F9845CC
:10338000F9D1082108480EF0D5FD04480DF066F982
:103390000120DDE70C940100A0930100A44000206F
:1033A000C4930100EC930100B89301002DE9F041B2
:1033B0000025471E2C46A84617F8016F08237440C5
:1033C00014F0010F4FEA540203F1FF3314BF82F0EF
:1033D0008C04C4F3470413F0FF03F1D128460DF029
:1033E00077FA86420BD0314628460DF08BFA2846F4
:1033F0000DF06EFA3B78834220D108F101080135C7
:103400000A2DD9D1214628460DF07CFA28460DF028
:103410005FFA844209D018210B480EF08BFD0B484F
:103420000DF01CF90120BDE8F0814246084B094926
:1034300006480DF02BF90020BDE8F0812146284612
:103440000DF060FAE7E700BF14940100A4400020EB
:103450000C94010030940100F0B585B001A8FFF78D
:103460002DFF00283ED0204B9DF804401C442046F0
:1034700012F046FA014620460EF05CFD1B480DF0A6
:10348000EDF81B4BBDF806401C44204612F038FAFC
:10349000014620460EF04EFD14480DF0DFF8154BA6
:1034A000BDF808401C44204612F02AFA0146204686
:1034B0000EF040FD0D480DF0D1F80F4B9DF80A10AD
:1034C0000E480F4A9DF80B709DF80C609DF80D504A
:1034D000BDF806401970BDF808105F709E70DD7071
:1034E0000470117005B0F0BD58940100A440002094
:1034F00060940100689401002C4F0020BC3E002025
:10350000DC3E002070B5134B1349144A91F900407A
:1035100092F9002093E8030086B0010EADF80E206A
:103520008DF812005822C0F30726C0F30745002388
:1035300003A88DF813608DF814508DF81510ADF8B0
:1035400010408DF80C20ADF81630FFF72FFF06B0B5
:1035500070BD00BF0C940100DC3E0020BC3E00208A
:1035600010B592B0014601A80DF026F900233222D1
:1035700001A805A90DF034F905A9054805F050F892
:10358000044601A80DF0D8F8A0B212B010BD00BFDB
:10359000F063002010B5A2B04422174904466846E3
:1035A0000DF0E6F944220DEB020014490DF0E0F9AC
:1035B000ADF10402002352F8041FA14204D00133EC
:1035C000112BF8D122B010BD0D490A68002AFCDB8E
:1035D00022AA02EB83030B4913F8442C33F8423C34
:1035E000013A1203013B02F47F22C3F30B0313439E
:1035F0000B6022B010BD00BF70920100B4920100B8
:1036000000F1024004F102402DE9F04F2DED028B54
:10361000DFF8ECA0364BDFED378A9FED378A85B0B7
:10362000D34603934FF00009039B5BF8045F33F923
:10363000022F039307EE902A07EE105AFAEEEF7A64
:10364000B8EEC77AFDEEE77A27EE287AF8EEE76A59
:1036500017EE904AA6EE887A1FFA89F606F104085A
:103660004FF4FC60BDEEC77A0FFA88F817EE107AB7
:10367000BE2FD4BF27EAE777BE27BE2CA8BFBE2443
:1036800023B25A22A4B2414600901C4803F078F9B4
:10369000C4F1BE0304F15A02002441461BB212B227
:1036A00016480094053603F06BF936B24FF44873B0
:1036B000314600935A222BB21048ADB203F060F9A4
:1036C000C5F1BE0305F15A0209F102090094314621
:1036D0001BB212B2094803F053F9B9F1FC0F4AF8D2
:1036E000047FA1D105B0BDEC028BBDE8F08F00BF17
:1036F000A25C00203333733FCDCC4C3DF0630020FF
:103700000854002070B5354C354A364990B0002534
:1037100008A80123256005F0BDFB10AA32480A9BCA
:1037200012F8145D9DF8241083600573017100F197
:103730000D031A3012F8011F03F8011B83422A49B6
:10374000F8D10F9BCB6108A805F0CCFA274E05E015
:1037500008A805F0DDFA08A805F0C4FA08A80122B7
:10376000214905F00BFC08A805F0E0FA10B9236820
:10377000312B2DDD08A805F0B9FA0028E8D108A8FA
:1037800005F0B2FA014668460DF016F8184904A88B
:103790000DF012F804A968460DF03CF8054604A89F
:1037A0000CF0CAFF1DB968460CF0C6FFD0E72368CD
:1037B00003EB430503EB850308A8F51805F094FA1D
:1037C0000146284612F022F8236801332360EAE715
:1037D00008A805F087FA10B070BD00BF0C67002084
:1037E00070940100806D0220486C02207851002006
:1037F0007494010008B5064B024653F82130054881
:1038000005490CF043FF64200DF008FBFBE700BF07
:103810006C3E0020A44000207C94010010B50122E1
:103820000A490B480B4C0AF02BFE207028B90748B8
:103830000BF0FCF9207020B910BD01460648FFF7D7
:10384000D9FF01460548FFF7D5FF00BF9894010056
:10385000AC4C0020045C00209C940100A494010066
:10386000F8B53B4D2B6823B93A4E3268312A0CDD4E
:10387000F8BD39480BF0C8F9384B187000285ED1F4
:10388000344E28603268312AF2DC354B35491B68EA
:103890003548324F541C2246346011F029FF334919
:1038A00033480CF041FF32480CF0D8FE2E4812F09D
:1038B00027F801462C480EF03DFB2D480CF0CEFEBB
:1038C000002129480BF0C6F92A4A2B4952F820203A
:1038D000034627483B700CF0D9FE0A2222491E48B5
:1038E0000AF0F8FD254A264952F8202003462048D0
:1038F0003B700CF0CBFE3B78022B09D00A221A4910
:1039000015480AF0E7FD3870E8B901232B60F8BDCF
:1039100011480BF079F90928387010D10E21194897
:103920000EF008FB12480CF099FE0F480BF0B8F9A6
:1039300038700028E2D001461348FFF75BFF0146CC
:103940001248FFF757FF01461148FFF753FF00BF2A
:10395000C86800200C67002018640020045C002068
:10396000CC680020CC94010010670020676E696469
:10397000A4400020143E0020D89401006C3E00209A
:10398000E4940100AC940100BC9401009C940100FB
:10399000C49401002DE9F843064608F02FFA0128E7
:1039A0002CDDDFF86490DFF858800025D8F800009F
:1039B000134F05EB4004304608F052FA09EB04249B
:1039C00001464FF4807220460CF0D2FF013530469C
:1039D00008F064FA022DE9D13B680133BF2B02D80D
:1039E0003B60BDE8F8830022064B3A600649074871
:1039F0004FF4C0320AF0EAFE054B1870BDE8F883B8
:103A0000146400200C4F002030690020186400204E
:103A1000045C002038B50D2104461848184D0EF0FE
:103A200089FA184A002384F8F63013700DE0204616
:103A300008F016FA144B01464FF4807213480AF04E
:103A4000C5FE2870204608F029FA204608F0D6F96D
:103A50000028ECDC0D480BF0D7F80146287050B96F
:103A60000B4B0C48196013210EF064FA0A48BDE8AC
:103A700038400CF0F3BD0948FFF7BCFEF494010098
:103A8000045C0020604F00200C4F002018640020D0
:103A9000C868002004950100A44000209C94010007
:103AA00008B50648FFF7B6FF0021054803F0B0FA55
:103AB000044B4FF480329A6108BD00BFA06700201C
:103AC000F0630020F0EB0120F8B55C4E34685CB187
:103AD000032C5B4D28D0022C3CD0012C60D0042C50
:103AE0007DD000232B62F8BD5648554D564F07F048
:103AF000E1FC564A564B11681A68EC6191424FF44A
:103B00008033AB6104BFEB61AC61524B3468524807
:103B1000524A00211960032C4FF001034FF00201BB
:103B20003B6003601160D6D14FF480414548464F59
:103B300007F0A4FC474B34684848474900221A6004
:103B4000AA6101234FF48032022C3B6003600B60BA
:103B5000EA61C2D14FF480413A4807F079FC404B0A
:103B6000DFED406A93F9003007EE903AF8EEE77A1D
:103B7000B7EE006A86EE277A4FF480320023EA61BE
:103B8000AB61B4EEE67AF1EE10FA3BD4F2EE007AD5
:103B9000B4EEE77AF1EE10FA44DD4FF4002333E09F
:103BA0002848274C2B4F07F085FC284A284B1168E2
:103BB00018684FF4803288424FF00003EB61AA612D
:103BC00008BFE26120482549234A08BFA3610123B9
:103BD0003468036000263E600B6013607FE719487D
:103BE0001C4F194E1D4C07F065FC1B480022012399
:103BF0004FF480313A60EA61AA6133602360036068
:103C00002962F8BD40F28F230E4F124C0E48134923
:103C1000114A3B62012300272760036034680B6070
:103C200013605AE7DFED106ADFED107AE7EE267ACF
:103C3000FCEEE77A17EE903AE6E700BFA4660020B4
:103C400064670020C4660020686C0220484F002092
:103C5000343E0020B0680020D4630020104F0020C4
:103C6000BC3E00200AD7233C00008047EE7CFF3E8C
:103C70002DE9F04F9F49A048DFF8B0928BB00CF0CF
:103C80009BFD9E4A9E499C480FF04EFC1C211B2226
:103C900027238DE80E009B48FF231422152102F0F4
:103CA0000FFD32222521984804F016FF32222421EC
:103CB000964804F011FF232222219548FEF77CFC50
:103CC00032222621934804F007FF32221D21924818
:103CD00004F002FF1F221E219048FEF76DFC904B5E
:103CE0001A68904BC9F80030002389F80930C9F8E8
:103CF000103089F80830C9F80C300AB9ABE21A461E
:103D00005369002BFBD1C2F814900024DFF870B285
:103D1000854B8648C9F81440A9F80440A9F8064024
:103D200089F80A40C9F8003007F0B6FC0BF1180218
:103D300001215846FEF716FC7D4B7E488BF8F44077
:103D4000224621468BF8F540CBF8F0408BF8F64040
:103D5000CBF80030FEF706FC764A774B1360774AC3
:103D6000744E774D18324FF48043A2F118000221AF
:103D70003362FEF7F7FB714A724B1360012005F2C4
:103D80002472684E2C7223462146EC602E606872C5
:103D90002A612C4600E0226942F823106A7A6848BA
:103DA00001339A42F7DC5E4B1A680AB957E21A46A9
:103DB0005369002BFBD155610024634929602246D9
:103DC00001234FF48071614E61486C61AC80EC80DE
:103DD000AC7285F8214785F82247C5F818610FF0C5
:103DE000C7FA4F4BDFF874811A684E49C5F81C4179
:103DF000082385F8203788F80940C8F80010C8F86B
:103E0000104088F80840C8F80C40454B0AB928E231
:103E10001A465369002BFBD1C2F814804FF0000AF8
:103E20004C4B4D48C8F814A0A8F804A0A8F806A068
:103E300088F80AA0C8F8003004F046FF4748484C0C
:103E4000484F494E07F0D6FE2C4A484943480FF0E8
:103E50006BFB474B012103F118021846FEF782FB6A
:103E6000434A444B1360444B042103F12802184693
:103E7000FEF778FB414B03F1280218463E4B042124
:103E80001C604FF480349C61DC611C625C62FEF754
:103E900069FB3A4B324C1C6007F128024FF4803426
:103EA000042138469C61DC611C625C62FEF75AFBAF
:103EB0002B49BC61022006F11802FC613C627C6265
:103EC000184C396034605346514686F808A0C6F84D
:103ED0000CA070723261344600E0226942F823106F
:103EE000727A214801339A42F7DC0D4B1A68002A96
:103EF00049D1B9E118950100F84E00200C3E002090
:103F000039070100F0630020D863002044E9012054
:103F1000AC660020184F0020186900204C4F00208C
:103F2000DC7402206C920100E4A00100D46800203F
:103F300014A10100645C002020A10100C8E9012057
:103F4000885C0020D8A00100A49E0100C49E01004E
:103F5000B063002008A1010070E9012058E90120A8
:103F6000F0A001006C66002028EC01207104000024
:103F7000C4660020CCA00100F0EB012064670020A3
:103F8000A06700201A465369002BFBD1566100241C
:103F9000B64AB74B7461B480F480B472B5483260ED
:103FA000059307F0B1FD059BDFF824A31C721846AA
:103FB000C3F800905F605C72DC601C740CF0D4F994
:103FC000059BAD4AAD4918460FF0AEFAAC4B0593D0
:103FD00050468AE8000A8AF808408AF80940CAF878
:103FE0000C408AF810400CF0BFF9A34AA349DFF84F
:103FF000E4B250460FF098FA059BDFF8DCA21C7281
:104000004FF001091846C3F800805F60DC601C7443
:1040100083F809900CF0A8F9059B974A9749DFF8B7
:10402000BC8218460FF080FA964BCBF80430584605
:104030008BF80840CBF800708BF80940CBF80C40A7
:104040008BF810400CF090F98B4A8C4958460FF0D1
:104050006BFA8D4BCAF8043050468AF80840CAF80B
:1040600000708AF80940CAF80C408AF810400CF039
:104070007BF9814A8149DFF868B250460FF054FA63
:10408000804B88F80840404688E8280088F80940B6
:10409000C8F80C4088F810400CF066F9764A774969
:1040A0007A4B059340460FF03FFA794BDFF834A284
:1040B000CBF8043058468BF80840CBF800708BF8EA
:1040C0000940CBF80C408BF810400CF04DF96A4ACF
:1040D0006A49DFF814826F4D58460FF025FA6E4B8F
:1040E000CAF8003050466A4BCAF804308AF80840D3
:1040F0008AF80990CAF80C408AF810400CF034F99C
:104100005E495D4ADFF8E4B150460FF00DFA059BB9
:104110005D4A1A601846614A1C725A6083F8099019
:10412000DC601C740CF020F9059B534A5349DFF8FE
:10413000C0A118460FF0F8F9554BC8F800304046BA
:10414000564BC8F8043088F8084088F80940C8F889
:104150000C4088F810400CF007F94849464A4046A0
:104160000FF0E2F9022328464C4A6B722C722F6042
:104170006A60EC602C740CF0F7F83F4A3F49484FF6
:10418000DFF8708128460FF0CFF9444B8BF80840D8
:1041900058468BE848008BF80940CBF80C408BF868
:1041A00010400CF0E1F8344A344958460FF0BCF99D
:1041B0003A4B8AF8099050468AE848008AF8084045
:1041C000CAF80C408AF810400CF0CEF82B492A4A65
:1041D000344E50460FF0A8F9334B344A1A600A2285
:1041E0001A720CF029FB3249324B0A680792DDF84B
:1041F0001CB00A6808921A68089B096809911D4654
:104200002D4B09992D48DFF8F0C0DFF8F0E03A6057
:1042100002EB420903EB8903294ADFF8E4A00468B2
:10422000D3F8089027485B681360A1F57A71CEF83F
:104230000010CCF80050CAF800B0C6F80090C8F8DA
:10424000004004F041FD0C4A1F491E480FF06CF974
:104250000BB0BDE8F08F1D4BC3F8009055E518601A
:10426000AAE5C3F80080D9E5186090E6FCA001003B
:104270003C5C002028EC01200C3E0020890400005A
:10428000505C0020F0EB0120C466002030E90120E2
:10429000C8E90120245C0020645C002064670020E1
:1042A000E86300209C6700206C4F0020B09E010056
:1042B00068750220CC3E0020F8920100D83E002014
:1042C000CC680020486C0220E58C0000DC740220E1
:1042D000986800209CE90120B0E9012004690020D1
:1042E000304F0020F0680020B4680020105C0020EF
:1042F000C0630020085C00200C5C0020A866002041
:10430000ECEB01202DE9F0432DED028BC04CDFF8E2
:104310007883C04D95B020464FF6E07104F002FA64
:104320004FF4004128230022019100932046F023FE
:104330001146A56102F0AEFCD8F80030012B00F068
:104340002182022B00F02C8214224FF400438DE8CE
:104350000C000021F0234FF48C72AD4802F09AFC5F
:1043600028224FF448738DE80C000021F0234FF40D
:104370009672A74802F08EFC00221146A44804F071
:10438000B5F90122A449A2480CF02EF9A34BA0488C
:1043900093F900100CF0C8F9D8F80020022A00F0B8
:1043A000098202229E499A489E4C0CF01DF99E4BB0
:1043B000974893F900100CF0B7F902229B499448F2
:1043C0000CF012F99A4B1D68284611F099FA29460B
:1043D00002468F480CF008F92368082B00F0FA8198
:1043E000092B00F0068214220021894804F07EF98E
:1043F000904B1B68042B00F2AE81DFE813F0F00055
:104400000201F600FC00050004228B4980480CF0F4
:10441000EBF88A4B8A4F19680BA80AF043FD142267
:10442000B4217B4804F062F90C9A0D9B009209219B
:10443000844A05A811F00EF905A811F061FA05A942
:10444000024673480CF0D0F800214FF48C7270488B
:1044500004F04CF93B686E48012B0CBF4DF29A6199
:104460004FF6E07104F05EF923680A2B03D13A6835
:10447000012A00F0F281744E56F82350284611F0BC
:104480003FFA2946024662480CF0AEF801226F4915
:104490005F480CF0A9F82368072B00F062816C4B91
:1044A0006C4D1B685A48012B0CBF4DF29A614FF6B8
:1044B000E07104F037F92B6856F82300FFF750F845
:1044C000C0F1F00109B24FF48C72514804F00EF9BA
:1044D0002B6856F82350284611F012FA2946024656
:1044E0004B480CF081F84FF496720021484804F0D4
:1044F000FDF84FF6E071464804F014F92368032BE9
:1045000000F0EE80544C2378002B00F00481012B46
:1045100000F00A81022B514C00F014814FF6E0713B
:104520003B4804F0FFF84E4B22784E491C784E4B26
:10453000052C0CBF1C460C46002A00F0A980D8F8B8
:104540000030002B40F3BD80484B494D1B68DFF81D
:104550003C919FED487AD9F80020002B1F46B8BF48
:1045600003F1FF073F1207EE907A92FBF7F785FB06
:104570000315DB17FAEEEF7AC3EB6535012D87EEF5
:10458000278A4FEA470717DD01244FF6E0760096A9
:10459000052355221E4807EE904AF8EEE77A0134CB
:1045A00067EE887AFDEEE77ACDED037ABDF90C105F
:1045B00002F0E6F9A542EAD14FF6E07300935722E4
:1045C000032339B2124803F0EBFBD8F80030012B7B
:1045D00000F0228115B0BDEC028BBDE8F083022211
:1045E00025490B480CF000F813E707222349084837
:1045F0000BF0FAFF0DE70222214905480BF0F4FF0A
:1046000007E707221F4902480BF0EEFF01E700BF52
:10461000F0630020CCD3010000950100283E00206B
:104620003C950100B0680020D43E00204095010078
:10463000CC680020A46600206495010000D00340EF
:10464000686C022074950100383E00205C940100E3
:10465000D4630020104F0020284F002054E901208F
:10466000683E002028950100309501009C670020DD
:10467000AD8BDB6800401C464C9501005C95010049
:104680005095010054950100D03E0020D83E0020F6
:104690002146824803F0C4FFC0F1EB0109B24FF498
:1046A00096727E4804F022F8204611F029F921463E
:1046B00002467A480BF098FFD8F80030002B3FF7FD
:1046C00043AF55220021754804F010F810227449B8
:1046D00072480BF089FF15B0BDEC028BBDE8F0838A
:1046E0003B68012B7FF40EAF6E4C6C484FF6FF71A8
:1046F00004F018F82378002B00F0C180012B00F0A3
:10470000C580022B684C7FF409AF684963480422D6
:104710000BF06AFF02E70722654960480BF064FF6F
:104720002378012B7FF4F6AE624B1B78002B6CD004
:104730000622614959480BF057FF23785A4C022B47
:104740007FF4ECAE2378002BDFD004225B49534882
:104750000BF04AFFE2E60522594950480BF044FFAE
:1047600057E6584B584A1B6803EB430302EB83039D
:104770005D68284611F0C4F82946024647480BF008
:1047800033FF8CE600211E2300932046F023019185
:104790003C2202F07FFAD8F80030022B7FF4D4AD2F
:1047A0000021062300930191F02354223B4802F09C
:1047B00071FAC9E5454939480BF016FF444B4549A4
:1047C0001B68364881FB0321DB17C3EBA1110BF0FB
:1047D000ABFFE6E50322404930480BF005FF3F4BB5
:1047E0002E4893F900100BF09FFF2368092B7FF4EC
:1047F000FAAD03223A4929480BF0F6FE394B274817
:1048000093F900100BF090FFEDE50722364923489D
:104810000BF0EAFE23787DE6D9F800102D4B334AE1
:1048200083FB0103C917C1EBA31308A8092110F0EA
:1048300011FFA7F10A0109B23C22184803F056FF04
:1048400008A811F05DF808A9024614480BF0CCFE48
:1048500015B0BDEC028BBDE8F083254B254A1B68E3
:10486000254E03EB430503EB8503D518284611F0CD
:1048700047F82946024609480BF0B6FE0BE6072228
:104880000B4906480BF0B0FE237837E707221B4997
:1048900002480BF0A9FE237833E700BFF063002045
:1048A000B8950100E8EB012054E901209095010042
:1048B00080950100604F002098950100A8950100A7
:1048C0006C950100CC3E0020F89201003895010063
:1048D000D83E0020D34D621044950100BC3E00201C
:1048E00048950100DC3E0020A0950100B095010034
:1048F000C4E9012078510020383E0020889501004D
:10490000074B10B5012401461C60064806F01AFB4F
:10491000054B1C60FFF7F6FC044B00221A6010BD2B
:1049200088E100E06C4F002008E100E0EC6300202B
:10493000274B9FED286A93ED007ADFED276AB8EEEA
:10494000C77A07EE900AC6EE075AF8EEE77A67EEE6
:10495000A57AF4EEE67AF1EE10FA19DC1F4A204B44
:10496000C2ED007AF5EEC07A0122F1EE10FA1A607B
:104970002BD49FED1C7AF4EEC77AF1EE10FA1BDD12
:10498000194B1A491A4A01200860D361FFF7BABCD3
:10499000C7EE065A114B1748114A0121F2EE027A6E
:1049A000E5EEA67AC3ED006AFDEEE77A17EE903ADF
:1049B000F0EE667A036011609FED0F7A67EE877AFA
:1049C000FCEEE77A17EE903ADBE70023D9E700BF69
:1049D0009C670020A6552C4700E0AB462C3E0020EB
:1049E00088E100E0A655AC4680FFFF7F08E100E0CB
:1049F000645C0020D83E00204B24BE472DE9F04FD8
:104A00002DED048BB04AB14B92F900201B689FED4D
:104A1000B06ADFEDB06A07EE102A002BB8BFFF3393
:104A2000F8EEC77A1B1227EE867A07EE903AF8EE78
:104A3000E77AADF5077D87EE278A0EAC4FF4F0726A
:104A400020460021C6EEA78A10F0A8FBA24B1A68E8
:104A500002F10108B8F1010FC3F80080BDEEC88A69
:104A6000FDEEE88A00F01481B8F1630F40F218817E
:104A7000DFF8B092DFF8A8A29FED986ACDF8088021
:104A80000020CC460646864625464FF4807B02270A
:104A9000F2EE046A3CF8023FBAEC017A03EB8302BF
:104AA000520007EE902AF8EEE77A5B45E7EE467A89
:104AB000C4BF9B463E469E4477EEA67A0023FDEE99
:104AC000E77A17EE902A042A4FEA62010BDDFF29EC
:104AD000A8BFFF210B02B2F5C06F03F47843C0F208
:104AE000928243F4FC6324F810300230EC286B808F
:104AF00007F1010705F10405CCD1794B9FED797AD7
:104B0000DDF8088083FB0E234FEAEE7ECEEB231305
:104B10009BFBF3F307EE903AF8EEE77A18EE103AC3
:104B2000F4EE477AF1EE10FA48BF0026B34204DAF9
:104B300018EE903AB34200F3F9806B4B1D68012DDB
:104B40004FF0000B00F01E81022D00F0298118EEBD
:104B5000103AB342654F53DA18EE903AB3424FDD44
:104B60003B78002B40F0FB81614DDFF8BC912B6856
:104B7000604A0D93D9F800300D991160012B4DF268
:104B80009A626281A281E28100F0DE815A4D022B9D
:104B90002B7840F0E681002B00F0E381574806F0C7
:104BA00089FC4FF48041554806F052FC544BDFED30
:104BB000556A93F9003007EE903AF8EEE77AB7EECF
:104BC000006A86EE277AB4EEE67AF1EE10FA00F18A
:104BD0001382F2EE007AB4EEE77AF1EE10FA00F307
:104BE0002982DFED496ADFED497AE7EE267AFCEEAD
:104BF000E77A17EE902A414900230A622B70B0E150
:104C00003B786BB13A4A3B4913680993099B0968A1
:104C100012680A923E483F4A0A9D05605B1A13805B
:104C2000354D00222B783A7043B9314B314A1B681D
:104C300008931268089B9B1A502B09D82A4B1B68B3
:104C4000022B0ED00DF5077DBDEC048BBDE8F08F77
:104C50002A4A012382F842302B70234B1B68022B17
:104C6000F0D1234B2A4A1B6807931268079B2A4DF1
:104C70009B1A312B40F288812B68B3F58C7FE1DBE6
:104C80005A232B600DF5077DBDEC048BBDE8F08F3A
:104C9000224B002103F5007243F8041B9A42FBD11A
:104CA0001F4B204A03F5FC7132F8020F93ED007A96
:104CB00007EE900AF8EEE77A77EE277AE3EC017ACE
:104CC0009942F1D1D4E600BFDC3E00209C67002071
:104CD00000007A4400409C47D06800206666663F2A
:104CE000BF3CB622CDCC8C3FD03E0020C066002019
:104CF00068750220ECEB0120CA3E0020C46600204B
:104D0000BC3E00200AD7233C00008047EE7CFF3EDB
:104D10000C5C00206A4F0020103E0020784F0020DD
:104D2000804F0020A25C0020A4660020C34BC44A30
:104D300002930021D3ED006A8B46022339F8020F5B
:104D400092ED007A07EE900AF8EEE77A77EE877A2E
:104D5000F4EEE67AF1EE10FAE2EC017A03DDF0EE21
:104D6000676A9B4601210133782BE7D1002940F087
:104D70004681B44A138801331380B34B1D68012D5B
:104D80007FF4E2AEB14B1B68022B00F0EF8018F00D
:104D9000010F7FF4DCAEFEF737FCAB4B1D68D3E6AA
:104DA000A84F3B88322B7FF6D2AE00202D230190F6
:104DB00000930146F02338802822A54801F06AFFBD
:104DC0009E4BBBF1000F00F0F1801A4692ED007A85
:104DD0000293A04BDFEDA05AF7EE007A03EB8B03B2
:104DE00077EE277A1A1D594632ED016AC6EE276A18
:104DF000F4EEE56AF1EE10FA02DD01390229F3D191
:104E0000DFED955A03915A46B3EC016AC6EE276A64
:104E1000F4EEE56AF1EE10FA40F3A6800132782A4A
:104E2000F2D100230493DFF818A2DFED8C9A9FEDF6
:104E30008C9A059600274FF0020802E0029B93ED42
:104E4000007ADAED006A8248C6EE877A4FF478433A
:104E50000FFA87F90093494667EEA97AFDEEE77AE3
:104E600017EE905AC5F1550636B22DB232462B4692
:104E700001F086FDC34508F1010800F0D18002373A
:104E8000B8F1780FBFB2AAEC019AD7D1754B029D49
:104E90001B6895ED007A9FED749A6D48059E002B76
:104EA000B8BFFF331B1207EE903AF6EE006A27EE0A
:104EB000267AF8EEE77A2D22822185ED007A27EE18
:104EC000899A03F013FC4DF29A61614803F02AFCC1
:104ED000DDED037A5E48F8EEE77A67EE897AFDEE5B
:104EE000E77A17EE901A0BF01FFC01225F49584831
:104EF0000BF07AFB4FF6E071554803F013FC07EE18
:104F000090BAF8EEE77A524867EE897AFDEEE77AD2
:104F100017EE901A0BF008FC012254494C480BF094
:104F200063FB4DF29A614A4803F0FCFBDDED047A25
:104F30004748F8EEE77A67EE897AFDEEE77A17EEF2
:104F4000901A0BF0F1FB02E62B68DFF838810C9326
:104F50000C9AD8F80030D31AB3F57A7F2DD8444D87
:104F60002B7801223A705FE604925CE7354A414BA8
:104F70001288A3FB02139B0803EB8303D31A9BB293
:104F8000002B7FF4E4AD06E701940123B5F900207E
:104F90002F4800930021F02302F012FB29882C48AF
:104FA00002F06CFA2B6801332B6066E602930395DE
:104FB00093ED007ACDF810B035E72A4B2E4A1B68E6
:104FC000002BB8BFFF331B1206FB03F682FB062340
:104FD000F6174FF4FA72C6EB631302FB03F3274A8A
:104FE00018461360FFF7A4FC2B680B930B9AD9F8B3
:104FF0000030C8F80020C9E540F28F22FBE5029B93
:10500000C3ED006AB5E61E4B83FB0283A3EBE2739C
:10501000DB000A0202F4784203F4FC63134362E506
:105020004FF6E07000902B4632464946084801F0A2
:10503000A7FC24E74FF40022DDE500BFEC6300206D
:10504000F0E90120144F0020D03E0020A46600208B
:10505000F0630020E8E90120CDCCCC3D00003442D3
:10506000000000009C6700206F12833A5C940100EE
:10507000CA3E0020CDCCCCCCD34D6210D83E00200F
:10508000ABAAAA2AA866002038B5104B1049114ACD
:10509000114D00EB400003EB8003012498685B682E
:1050A0000B6028601460FEF775FAC8200BF0B6FE9E
:1050B0000A4B1868FFF73CFC094B14201C600BF0EE
:1050C000ADFEBDE83840FFF71DB900BFF892010002
:1050D000CC68002088E100E09C670020D83E0020DA
:1050E00008E100E010B50B2111480CF023FF114836
:1050F00006F086FD102110480CF01CFF0F480BF045
:10510000ADFA0F4A0F4B106800241C70FFF7BCFF6C
:105110000D4A0E4B10681860FFF70AFC0C4B0D4946
:105120001C624FF48032CC618A61DA619A6110BDF1
:10513000CC95010058E90120D8950100A440002039
:10514000E863002054E90120085C0020D83E0020DC
:10515000646700206C6600202DE9F04196B0A8B984
:10516000A54AA649A64B12680D681B680C21C2B956
:10517000EB1848BF01F1FF338B426DDB00230028A1
:1051800075D19F4A136016B0BDE8F0810128FAD1AD
:105190009C4A9D499D4B12680D681B680321002A9B
:1051A000E6D0012AEFD1002DEDD00446002B65D1C9
:1051B00097490A782A4452B2002AC0F2F8805A2A43
:1051C0001346A8BF5A2307EE903A9FED926ADFED8F
:1051D000926AB8EEE77ADFED917A27EE067AE7EE8B
:1051E000267AFCEEE77ACDED037A8D4A0B70012624
:1051F000166003998B4805F015FF8B4B1E60DFF896
:105200000082D8F80030062B5CD0072B44D00A2B44
:10521000B9D1794B1B68012B00F0BB807B4B1B681D
:10522000072BB0D1774B1B68012BACD17F4B1B7880
:10523000022BA8D17E4C744B22681B681344052BAB
:10524000A8BF052323EAE37318462360FFF71CFF7A
:10525000784B22681A6096E7774A1278002A8ED136
:10526000A3F10A02012A98BF0023002889D001284F
:1052700089D1664A136016B0BDE8F081082B76D15B
:105280006E4A13782B445BB2042B7CDC05236C49FB
:10529000137001230B70B2E7574B1B68012B7FF48F
:1052A00072AF634A554B11681B680B440D2BA8BFA6
:1052B0000D2323EAE37318461360FFF7E5FED8F8E1
:1052C0000030A4E7002C7FF45EAF5E4F5E4E3B687B
:1052D0000693069B32689B1AB3F5FA7F08D2F92B26
:1052E00069D8632B8BBF0A23C5EB05135D439D0073
:1052F00003F072FB08A9284403F018FA08A803F089
:10530000EDFA0BF05FFD514C08A803F0E7FA03F04B
:10531000B3FB20463222502103F0E8F90022142387
:105320002046019200933222A023502101F0B2FCCA
:10533000474A484B1168A3610DA809F0B3FD0DA9B8
:105340000EC90AA8019100920921434A10F082F97E
:105350000AA810F0D5FA0AA9024620460BF044F933
:105360003B680793079AD8F8003032604DE7092B65
:1053700024D13A4A13782B445BB20E2B07DD232B42
:10538000A8BF232383E71E2BA8BF1E237FE70F237D
:105390007DE71A4A324910680B68324A1B181268B6
:1053A00007D4013A9342A8BF13460B6036E7039334
:1053B0001BE70023F9E705EB850599E7012B59D198
:1053C000294A13782B445BB2002B12DB3F2BA8BF7A
:1053D0003F2318461370FFF793FA244A244B00200A
:1053E0001060002103F5007243F8041B9342FBD1C7
:1053F00005E70023EDE700BF686C0220AC680020E1
:10540000B0680020D4630020644F0020104F0020BB
:10541000D43E00200AD7233C00000143EE7CFF3E2F
:1054200088E100E06C4F002008E100E0284F0020F8
:10543000CC3E0020303E0020684F0020BC3E0020C3
:10544000084F002068750220385C0020F0630020BF
:1054500000D00340E8D30100EC950100DC3E0020C1
:10546000C4E901200C670020283E0020D0680020FD
:10547000784F0020022B32D1284F294E3B680493ED
:10548000049B32689B1AB3F5FA7F41D2F92B42D8BC
:10549000642B41F2883328BF4FF4FA632149224A32
:1054A0000868126803FB050341F6573083422CDD80
:1054B0001E4880FB02E0D243D20FC2EBE0124FF451
:1054C0007A7000FB02F29342A8BF134618460B60A5
:1054D000FFF72EFA3B680593059B33608FE6042B9C
:1054E00003D1134B00221A6089E6032B7FF487AEA9
:1054F0001049114A0B780133DBB2A2FB03025208B8
:1055000002EB42029B1A0B7079E641F65833DDE755
:105510004FF4FA73C2E74FF47A73BFE7687502205D
:10552000385C0020D83E00209C670020D34D6210DC
:10553000D0680020E8EB0120ABAAAAAAF0B5244D60
:10554000244F254E83B0FEF78BF928460021002416
:1055500001F094FF4FF4A0732246284621460093A1
:105560000194F02301F096FB28464DF29A6103F076
:10557000D9F81A4BAB6121462846642203F0B6F8ED
:105580000922174928460BF02FF8384610F0B8F9D1
:105590003946024628460BF027F8124BAB61FEF75E
:1055A000B1FE1148114D05F085FF114A114B12490A
:1055B000946130464FF48032DC619A612C600C605B
:1055C00006F028FC012386F8F63003B0F0BD00BFDA
:1055D000F063002010670020A067002004D40100C1
:1055E000FC950100CCD30100C4660020A466002015
:1055F000F0EB01206467002014640020F8B5264B0E
:10560000264E1968264B012700224FF480350A29BF
:10561000044637709A61DD6132D00B2926D06420B0
:105620000BF0FCFB0D2C2046A8BF0D2020EAE070FB
:10563000FFF72AFD1B4A1C4B11681B68002928DB59
:105640008B42A8BF0B4603EB43041849136003EBDE
:10565000840319440D22164810F0C0F9FEF752FEDB
:1056600013491448BDE8F84006F0F2BA1249134B4A
:1056700009689D6102291A6204BFDD619A61CEE763
:105680000F480E4B0F49006808601D62DA619A618D
:10569000C5E70023D7E700BFB068002054E9012028
:1056A0006C660020C4E901200C67002078510020BE
:1056B0001067002058E90120A466002064670020DC
:1056C000D83E0020085C002008B50A4B1B781BB1AF
:1056D000094B93F8403003B108BDFFF703FD074BBA
:1056E0001B78002BF8D0064B1868BDE80840FFF780
:1056F00085BF00BF54E9012058E9012068660020F9
:10570000303E0020F8B5744A137C012B7BD972B669
:10571000D36862B6714E724D3268002BB8BF033346
:105720009C10944228DD01232B600120FFF714FD1B
:105730006C4A3460137C012B2BD972B6D36862B6E5
:10574000694E6A4F3268002BB8BF03339C109442F5
:105750000DDD01233B600020FFF7FEFC2B68346069
:105760000BB93B686BB1BDE8F840FEF7CBBD47DA3B
:105770004FF0FF333B60EEE704DA4FF0FF332B606E
:10578000D3E7F8BD574A346000232B60137C012B0C
:10579000D3D872B61368506819780478507A137A9F
:1057A000044201EA03016FD0937A03F0030309B1C5
:1057B00043F0040343F008039910013B91720D2B51
:1057C000BCD801A151F823F0D1580000C9580000FD
:1057D000C1580000C95800003D570000B9580000EA
:1057E000D1580000D1580000B95800003D570000C2
:1057F000C9580000C1580000C9580000D158000025
:1058000000233B60AAE772B61368506819780478E1
:10581000507A137A044201EA03012DD0937A03F0FF
:10582000030309B143F0040343F008039910013B5B
:1058300091720D2B3FF66CAF01A151F823F000BF20
:10584000B1580000A9580000A1580000A958000054
:105850001157000099580000B1580000B1580000DD
:105860009958000011570000A9580000A1580000E5
:10587000A9580000B1580000937A03F003030029EF
:10588000D4D043F00403D1E7937A03F00303002953
:1058900092D043F004038FE7D368023BD36038E72C
:1058A000D3680233D36034E7D368013BD36030E779
:1058B000D3680133D3602CE7D368023BD3603EE763
:1058C000D3680233D3603AE7D368013BD36036E74D
:1058D000D3680133D36032E7AC66002060670020F4
:1058E000644F00204C4F0020444F0020AC68002043
:1058F000F8B5714C237843B1704803F023F96F4831
:1059000003F046F9002868D1F8BD6D4803F01AF994
:105910006C4803F017F9694803F014F96A4803F07A
:1059200011F9694803F034F950B1684A136801333A
:10593000042BC8BF00231360FEF7C6F8FEF7E2FC95
:105940005E4803F025F9F8B1614E3578B5B9614F7D
:10595000614B3A68013283FB0213A3EBE27303EB62
:105960004303D31A022B3B6000F09680012B00F01A
:105970008A800021594801F04BFB3578022D3AD03E
:10598000012D6FD0FEF7BEFC4D4803F001F9A8B120
:10599000534C544B21681A68B1FA81F35B09032A0E
:1059A000236033D05048007830B10A2A3DD01BB96B
:1059B000474A1178022975D0FEF7A4FC414803F04C
:1059C000E7F80028A0D0494A1368B3FA83F35B09CB
:1059D0001360BDE8F840FEF795BC0C2144480CF07C
:1059E000A9FA44480AF03AFEFEF75AF8FEF78AFC94
:1059F00000232370F8BD404F3B7883B93F4A012311
:105A000010683B70FFF7FAFD3578B9E7364A3C4835
:105A10002F49127800780870002AC8D1CCE7FFF728
:105A200061FB002335783B70AAE70029BFD1334DD5
:105A3000344B3549264A2D6818681D6002230860DA
:105A40001370324DFDF75EFE284B314801221321C1
:105A500007261A602E600CF06DFA26480AF0FEFD4B
:105A60002368A4E70C212B480CF064FA21480AF0C3
:105A7000F5FD2378104A002B84D11570FEF742FC07
:105A8000FFF75CFD7EE70021144801F0F7FC0021E0
:105A9000124801F0CBFA6CE72946104801F0C6FA2B
:105AA0003B6863E71849174C096813700846216082
:105AB000FFF7EAFA80E700BF604F0020184F002090
:105AC0001869002044E90120D8630020A466002062
:105AD000284F0020D03E002056555555F063002039
