:1000000000000320D10100009112010049120100FB
:100010004912010049120100491201004912010070
:100020004912010049120100491201009112010018
:100030009112010049120100852701008928010061
:100040009112010091120100911201009112010020
:100050009112010091120100911201009112010010
:100060009112010091120100911201009112010000
:1000700091120100911201009112010091120100F0
:1000800091120100911201009112010091120100E0
:1000900091120100911201009112010091120100D0
:1000A000054201001142010091120100911201006C
:1000B000911201009112010091120100D12801005A
:1000C00091120100FD29010091120100292B01006C
:1000D00091120100212C01009112010091120100E6
:1000E0009112010091120100911201009112010080
:1000F0009112010091120100911201009112010070
:10010000911201009112010091120100911201005F
:10011000911201001D1901009112010091120100BC
:10012000911201009112010091120100911201003F
:10013000911201009112010091120100911201002F
:100140007107010091120100192D010091120100A7
:10015000911201009112010091120100911201000F
:1001600091120100911201001D4201009112010043
:1001700091120100911201009112010091120100EF
:1001800091120100911201009112010091120100DF
:100190009112010091120100112E01009112010033
:1001A00091120100911201009112010091120100BF
:1001B00091120100911201009112010091120100AF
:1001C000911201009112010091120100911201009F
:1001D0005C4B4CF2205210B51A804DF628121A8052
:1001E00000BF00BF11F058F8574B4FF030621A6053
:1001F000564A9A60564ADA60564B4FF470021A60BB
:10020000554B564A1A60564A136813F4807304D14A
:1002100054490B604FF4A8531360534B1A781107DD
:1002200003D51A7842F008021A70504B5049AA229E
:100230001A70504A504B8B4204D252F8040F43F8C4
:10024000040BF8E74D4B4E4900228B4202D243F893
:10025000042BFAE74B494C4A002352F8230041F89B
:1002600023000133742BF8D1484B494A802103F80D
:10027000011B9342FBD1474B424A1A60464B8A22EC
:100280001A70A3F5805324225A70A0221A709A790A
:100290009207FCD59A79D406FCD4404A937903F0AE
:1002A0000C03082BFAD13E4B60221A7002331A78E5
:1002B000802AFCD1394B01221A715D225A719A7938
:1002C0009006FCD59979354A4906FBD5354B364918
:1002D00019600021596020231370937903F00C03F7
:1002E0000C2BFAD1314B324A1A60324B324A1A6027
:1002F00000225A60072243F8042C304AC3F80C2D20
:1003000062B611F0AFF9174B1B68DA0705D52C4818
:1003100011F02AF92B4B2C4A1A602C4B1B785B06E8
:1003200009D5284C284B22689A4204D1244811F060
:100330001BF90023236014F07BFD10F0B3FF10F0D5
:10034000E1FEFEE70E20054030800440823F0400BD
:100350000100002B88ED00E0002008E0030000858C
:1003600010D0034014D0034002D0074000E0074003
:10037000204C0020ACD70200303D0020204C002053
:10038000B0A90220003800200000000000E400E0D6
:1003900064E400E008ED00E0005006400040064044
:1003A00001E007404480044000000602048004404D
:1003B000C010070014E000E01FBF02000000202072
:1003C000A61F4D5D1CE00340A5C3945A00F00740F2
:1003D000FFFFFFFFFFFFFFFFFFFFFFFFFFFFFFFF2D
:1003E000FFFFFFFFFFFFFFFFFFFFFFFFFFFFFFFF1D
:1003F000FFFFFFFFFFFFFFFFFFFFFFFFFFFFFFFF0D
:10040000FFFFFFFFFFFFFFFFFFFFFFFFDEF9FFFF23
:1004100010B5054C237833B9044B13B10448AFF33E
:1004200000800123237010BD204C0020000000003C
:10043000A8D70200084B10B51BB108490848AFF314
:1004400000800848036803B910BD074B002BFBD0A0
:10045000BDE81040184700BF00000000244C0020F9
:10046000A8D70200204C00200000000011F076B850
:1004700010B5044B044640F8183B05F077FE2046C3
:1004800010BD00BFECA4010010B5044610F028F91F
:10049000204610BD214B10B4D3F8E82013685068F3
:1004A00019780478507A137A044201EA03011BD0C8
:1004B000937A03F0030309B143F0040343F0080304
:1004C0009910013B91720D2B0BD8DFE803F0210747
:1004D0001B070A152121150A071B0721D368013BB9
:1004E000D3605DF8044B7047937A03F0030300294F
:1004F000E6D043F00403E3E7D3685DF8044B023B26
:10050000D3607047D3685DF8044B0233D360704703
:10051000D3685DF8044B0133D3607047B4A3022065
:10052000214B10B4D3F8EC20136850681978047884
:10053000507A137A044201EA03011BD0937A03F044
:10054000030309B143F0040343F008039910013B8E
:1005500091720D2B0BD8DFE803F021071B070A155A
:100560002121150A071B0721D368013BD3605DF8E1
:10057000044B7047937A03F003030029E6D043F05D
:100580000403E3E7D3685DF8044B023BD360704794
:10059000D3685DF8044B0233D3607047D3685DF8CD
:1005A000044B0133D3607047B4A30220214B10B435
:1005B000D3F898201368506819780478507A137A21
:1005C000044201EA03011BD0937A03F0030309B14B
:1005D00043F0040343F008039910013B91720D2B83
:1005E0000BD8DFE803F021071B070A152121150AA4
:1005F000071B0721D368013BD3605DF8044B7047AC
:10060000937A03F003030029E6D043F00403E3E701
:10061000D3685DF8044B023BD3607047D3685DF844
:10062000044B0233D3607047D3685DF8044B013349
:10063000D3607047B4A30220214B10B4D3F89C20A0
:100640001368506819780478507A137A044201EAE2
:1006500003011BD0937A03F0030309B143F00403B1
:1006600043F008039910013B91720D2B0BD8DFE882
:1006700003F021071B070A152121150A071B072173
:10068000D368013BD3605DF8044B7047937A03F065
:1006900003030029E6D043F00403E3E7D3685DF8E1
:1006A000044B023BD3607047D3685DF8044B0233C0
:1006B000D3607047D3685DF8044B0133D360704753
:1006C000B4A30220214B10B4D3F8A02013685068C3
:1006D00019780478507A137A044201EA03011BD096
:1006E000937A03F0030309B143F0040343F00803D2
:1006F0009910013B91720D2B0BD8DFE803F0210715
:100700001B070A152121150A071B0721D368013B86
:10071000D3605DF8044B7047937A03F0030300291C
:10072000E6D043F00403E3E7D3685DF8044B023BF3
:10073000D3607047D3685DF8044B0233D3607047D1
:10074000D3685DF8044B0133D3607047B4A3022033
:10075000214B10B4D3F8A42013685068197804789A
:10076000507A137A044201EA03011BD0937A03F012
:10077000030309B143F0040343F008039910013B5C
:1007800091720D2B0BD8DFE803F021071B070A1528
:100790002121150A071B0721D368013BD3605DF8AF
:1007A000044B7047937A03F003030029E6D043F02B
:1007B0000403E3E7D3685DF8044B023BD360704762
:1007C000D3685DF8044B0233D3607047D3685DF89B
:1007D000044B0133D3607047B4A30220214B10B403
:1007E000D3F8A8201368506819780478507A137ADF
:1007F000044201EA03011BD0937A03F0030309B119
:1008000043F0040343F008039910013B91720D2B50
:100810000BD8DFE803F021071B070A152121150A71
:10082000071B0721D368013BD3605DF8044B704779
:10083000937A03F003030029E6D043F00403E3E7CF
:10084000D3685DF8044B023BD3607047D3685DF812
:10085000044B0233D3607047D3685DF8044B013317
:10086000D3607047B4A30220214B10B4D3F8AC205E
:100870001368506819780478507A137A044201EAB0
:1008800003011BD0937A03F0030309B143F004037F
:1008900043F008039910013B91720D2B0BD8DFE850
:1008A00003F021071B070A152121150A071B072141
:1008B000D368013BD3605DF8044B7047937A03F033
:1008C00003030029E6D043F00403E3E7D3685DF8AF
:1008D000044B023BD3607047D3685DF8044B02338E
:1008E000D3607047D3685DF8044B0133D360704721
:1008F000B4A30220214B10B4D3F8B0201368506881
:1009000019780478507A137A044201EA03011BD063
:10091000937A03F0030309B143F0040343F008039F
:100920009910013B91720D2B0BD8DFE803F02107E2
:100930001B070A152121150A071B0721D368013B54
:10094000D3605DF8044B7047937A03F003030029EA
:10095000E6D043F00403E3E7D3685DF8044B023BC1
:10096000D3607047D3685DF8044B0233D36070479F
:10097000D3685DF8044B0133D3607047B4A3022001
:10098000214B10B4D3F8B420136850681978047858
:10099000507A137A044201EA03011BD0937A03F0E0
:1009A000030309B143F0040343F008039910013B2A
:1009B00091720D2B0BD8DFE803F021071B070A15F6
:1009C0002121150A071B0721D368013BD3605DF87D
:1009D000044B7047937A03F003030029E6D043F0F9
:1009E0000403E3E7D3685DF8044B023BD360704730
:1009F000D3685DF8044B0233D3607047D3685DF869
:100A0000044B0133D3607047B4A30220214B10B4D0
:100A1000D3F8B8201368506819780478507A137A9C
:100A2000044201EA03011BD0937A03F0030309B1E6
:100A300043F0040343F008039910013B91720D2B1E
:100A40000BD8DFE803F021071B070A152121150A3F
:100A5000071B0721D368013BD3605DF8044B704747
:100A6000937A03F003030029E6D043F00403E3E79D
:100A7000D3685DF8044B023BD3607047D3685DF8E0
:100A8000044B0233D3607047D3685DF8044B0133E5
:100A9000D3607047B4A30220214B10B4D3F8BC201C
:100AA0001368506819780478507A137A044201EA7E
:100AB00003011BD0937A03F0030309B143F004034D
:100AC00043F008039910013B91720D2B0BD8DFE81E
:100AD00003F021071B070A152121150A071B07210F
:100AE000D368013BD3605DF8044B7047937A03F001
:100AF00003030029E6D043F00403E3E7D3685DF87D
:100B0000044B023BD3607047D3685DF8044B02335B
:100B1000D3607047D3685DF8044B0133D3607047EE
:100B2000B4A30220214B10B4D3F8C020136850683E
:100B300019780478507A137A044201EA03011BD031
:100B4000937A03F0030309B143F0040343F008036D
:100B50009910013B91720D2B0BD8DFE803F02107B0
:100B60001B070A152121150A071B0721D368013B22
:100B7000D3605DF8044B7047937A03F003030029B8
:100B8000E6D043F00403E3E7D3685DF8044B023B8F
:100B9000D3607047D3685DF8044B0233D36070476D
:100BA000D3685DF8044B0133D3607047B4A30220CF
:100BB000214B10B4D3F8C420136850681978047816
:100BC000507A137A044201EA03011BD0937A03F0AE
:100BD000030309B143F0040343F008039910013BF8
:100BE00091720D2B0BD8DFE803F021071B070A15C4
:100BF0002121150A071B0721D368013BD3605DF84B
:100C0000044B7047937A03F003030029E6D043F0C6
:100C10000403E3E7D3685DF8044B023BD3607047FD
:100C2000D3685DF8044B0233D3607047D3685DF836
:100C3000044B0133D3607047B4A30220214B10B49E
:100C4000D3F8C8201368506819780478507A137A5A
:100C5000044201EA03011BD0937A03F0030309B1B4
:100C600043F0040343F008039910013B91720D2BEC
:100C70000BD8DFE803F021071B070A152121150A0D
:100C8000071B0721D368013BD3605DF8044B704715
:100C9000937A03F003030029E6D043F00403E3E76B
:100CA000D3685DF8044B023BD3607047D3685DF8AE
:100CB000044B0233D3607047D3685DF8044B0133B3
:100CC000D3607047B4A30220214B10B4D3F8CC20DA
:100CD0001368506819780478507A137A044201EA4C
:100CE00003011BD0937A03F0030309B143F004031B
:100CF00043F008039910013B91720D2B0BD8DFE8EC
:100D000003F021071B070A152121150A071B0721DC
:100D1000D368013BD3605DF8044B7047937A03F0CE
:100D200003030029E6D043F00403E3E7D3685DF84A
:100D3000044B023BD3607047D3685DF8044B023329
:100D4000D3607047D3685DF8044B0133D3607047BC
:100D5000B4A30220214B10B4D3F8D02013685068FC
:100D600019780478507A137A044201EA03011BD0FF
:100D7000937A03F0030309B143F0040343F008033B
:100D80009910013B91720D2B0BD8DFE803F021077E
:100D90001B070A152121150A071B0721D368013BF0
:100DA000D3605DF8044B7047937A03F00303002986
:100DB000E6D043F00403E3E7D3685DF8044B023B5D
:100DC000D3607047D3685DF8044B0233D36070473B
:100DD000D3685DF8044B0133D3607047B4A302209D
:100DE000214B10B4D3F8D4201368506819780478D4
:100DF000507A137A044201EA03011BD0937A03F07C
:100E0000030309B143F0040343F008039910013BC5
:100E100091720D2B0BD8DFE803F021071B070A1591
:100E20002121150A071B0721D368013BD3605DF818
:100E3000044B7047937A03F003030029E6D043F094
:100E40000403E3E7D3685DF8044B023BD3607047CB
:100E5000D3685DF8044B0233D3607047D3685DF804
:100E6000044B0133D3607047B4A30220214B10B46C
:100E7000D3F8D8201368506819780478507A137A18
:100E8000044201EA03011BD0937A03F0030309B182
:100E900043F0040343F008039910013B91720D2BBA
:100EA0000BD8DFE803F021071B070A152121150ADB
:100EB000071B0721D368013BD3605DF8044B7047E3
:100EC000937A03F003030029E6D043F00403E3E739
:100ED000D3685DF8044B023BD3607047D3685DF87C
:100EE000044B0233D3607047D3685DF8044B013381
:100EF000D3607047B4A30220214B10B4D3F8DC2098
:100F00001368506819780478507A137A044201EA19
:100F100003011BD0937A03F0030309B143F00403E8
:100F200043F008039910013B91720D2B0BD8DFE8B9
:100F300003F021071B070A152121150A071B0721AA
:100F4000D368013BD3605DF8044B7047937A03F09C
:100F500003030029E6D043F00403E3E7D3685DF818
:100F6000044B023BD3607047D3685DF8044B0233F7
:100F7000D3607047D3685DF8044B0133D36070478A
:100F8000B4A30220214B10B4D3F8E02013685068BA
:100F900019780478507A137A044201EA03011BD0CD
:100FA000937A03F0030309B143F0040343F0080309
:100FB0009910013B91720D2B0BD8DFE803F021074C
:100FC0001B070A152121150A071B0721D368013BBE
:100FD000D3605DF8044B7047937A03F00303002954
:100FE000E6D043F00403E3E7D3685DF8044B023B2B
:100FF000D3607047D3685DF8044B0233D360704709
:10100000D3685DF8044B0133D3607047B4A302206A
:10101000214B10B4D3F8E420136850681978047891
:10102000507A137A044201EA03011BD0937A03F049
:10103000030309B143F0040343F008039910013B93
:1010400091720D2B0BD8DFE803F021071B070A155F
:101050002121150A071B0721D368013BD3605DF8E6
:10106000044B7047937A03F003030029E6D043F062
:101070000403E3E7D3685DF8044B023BD360704799
:10108000D3685DF8044B0233D3607047D3685DF8D2
:10109000044B0133D3607047B4A30220214B10B43A
:1010A0001A681368506819780478507A137A0442E1
:1010B00001EA03011BD0937A03F0030309B143F063
:1010C000040343F008039910013B91720D2B0BD8D8
:1010D000DFE803F021071B070A152121150A071B6A
:1010E0000721D368013BD3605DF8044B7047937AC6
:1010F00003F003030029E6D043F00403E3E7D368D9
:101100005DF8044B023BD3607047D3685DF8044B35
:101110000233D3607047D3685DF8044B0133D3606A
:10112000704700BFB4A30220214B10B45A68136863
:10113000506819780478507A137A044201EA03015E
:101140001BD0937A03F0030309B143F0040343F087
:1011500008039910013B91720D2B0BD8DFE803F0C7
:1011600021071B070A152121150A071B0721D36830
:10117000013BD3605DF8044B7047937A03F003039F
:101180000029E6D043F00403E3E7D3685DF8044B9D
:10119000023BD3607047D3685DF8044B0233D360E1
:1011A0007047D3685DF8044B0133D360704700BFCC
:1011B000B4A30220214B10B49A68136850681978C0
:1011C0000478507A137A044201EA03011BD0937A1F
:1011D00003F0030309B143F0040343F0080399103B
:1011E000013B91720D2B0BD8DFE803F021071B07A1
:1011F0000A152121150A071B0721D368013BD3607B
:101200005DF8044B7047937A03F003030029E6D09E
:1012100043F00403E3E7D3685DF8044B023BD3607B
:101220007047D3685DF8044B0233D3607047D368CE
:101230005DF8044B0133D360704700BFB4A30220B4
:10124000214B10B4DA681368506819780478507A22
:10125000137A044201EA03011BD0937A03F00303DB
:1012600009B143F0040343F008039910013B917264
:101270000D2B0BD8DFE803F021071B070A152121EE
:10128000150A071B0721D368013BD3605DF8044BA7
:101290007047937A03F003030029E6D043F0040378
:1012A000E3E7D3685DF8044B023BD3607047D36833
:1012B0005DF8044B0233D3607047D3685DF8044B8C
:1012C0000133D360704700BFB4A30220214B10B498
:1012D0001A691368506819780478507A137A0442AE
:1012E00001EA03011BD0937A03F0030309B143F031
:1012F000040343F008039910013B91720D2B0BD8A6
:10130000DFE803F021071B070A152121150A071B37
:101310000721D368013BD3605DF8044B7047937A93
:1013200003F003030029E6D043F00403E3E7D368A6
:101330005DF8044B023BD3607047D3685DF8044B03
:101340000233D3607047D3685DF8044B0133D36038
:10135000704700BFB4A30220214B10B45A69136830
:10136000506819780478507A137A044201EA03012C
:101370001BD0937A03F0030309B143F0040343F055
:1013800008039910013B91720D2B0BD8DFE803F095
:1013900021071B070A152121150A071B0721D368FE
:1013A000013BD3605DF8044B7047937A03F003036D
:1013B0000029E6D043F00403E3E7D3685DF8044B6B
:1013C000023BD3607047D3685DF8044B0233D360AF
:1013D0007047D3685DF8044B0133D360704700BF9A
:1013E000B4A30220214B10B49A691368506819788D
:1013F0000478507A137A044201EA03011BD0937AED
:1014000003F0030309B143F0040343F00803991008
:10141000013B91720D2B0BD8DFE803F021071B076E
:101420000A152121150A071B0721D368013BD36048
:101430005DF8044B7047937A03F003030029E6D06C
:1014400043F00403E3E7D3685DF8044B023BD36049
:101450007047D3685DF8044B0233D3607047D3689C
:101460005DF8044B0133D360704700BFB4A3022082
:10147000214B10B4DA691368506819780478507AEF
:10148000137A044201EA03011BD0937A03F00303A9
:1014900009B143F0040343F008039910013B917232
:1014A0000D2B0BD8DFE803F021071B070A152121BC
:1014B000150A071B0721D368013BD3605DF8044B75
:1014C0007047937A03F003030029E6D043F0040346
:1014D000E3E7D3685DF8044B023BD3607047D36801
:1014E0005DF8044B0233D3607047D3685DF8044B5A
:1014F0000133D360704700BFB4A30220214B10B466
:101500001A6A1368506819780478507A137A04427A
:1015100001EA03011BD0937A03F0030309B143F0FE
:10152000040343F008039910013B91720D2B0BD873
:10153000DFE803F021071B070A152121150A071B05
:101540000721D368013BD3605DF8044B7047937A61
:1015500003F003030029E6D043F00403E3E7D36874
:101560005DF8044B023BD3607047D3685DF8044BD1
:101570000233D3607047D3685DF8044B0133D36006
:10158000704700BFB4A30220214B10B45A6A1368FD
:10159000506819780478507A137A044201EA0301FA
:1015A0001BD0937A03F0030309B143F0040343F023
:1015B00008039910013B91720D2B0BD8DFE803F063
:1015C00021071B070A152121150A071B0721D368CC
:1015D000013BD3605DF8044B7047937A03F003033B
:1015E0000029E6D043F00403E3E7D3685DF8044B39
:1015F000023BD3607047D3685DF8044B0233D3607D
:101600007047D3685DF8044B0133D360704700BF67
:10161000B4A30220214B10B49A6A13685068197859
:101620000478507A137A044201EA03011BD0937ABA
:1016300003F0030309B143F0040343F008039910D6
:10164000013B91720D2B0BD8DFE803F021071B073C
:101650000A152121150A071B0721D368013BD36016
:101660005DF8044B7047937A03F003030029E6D03A
:1016700043F00403E3E7D3685DF8044B023BD36017
:101680007047D3685DF8044B0233D3607047D3686A
:101690005DF8044B0133D360704700BFB4A3022050
:1016A000214B10B4DA6A1368506819780478507ABC
:1016B000137A044201EA03011BD0937A03F0030377
:1016C00009B143F0040343F008039910013B917200
:1016D0000D2B0BD8DFE803F021071B070A1521218A
:1016E000150A071B0721D368013BD3605DF8044B43
:1016F0007047937A03F003030029E6D043F0040314
:10170000E3E7D3685DF8044B023BD3607047D368CE
:101710005DF8044B0233D3607047D3685DF8044B27
:101720000133D360704700BFB4A30220214B10B433
:101730001A6B1368506819780478507A137A044247
:1017400001EA03011BD0937A03F0030309B143F0CC
:10175000040343F008039910013B91720D2B0BD841
:10176000DFE803F021071B070A152121150A071BD3
:101770000721D368013BD3605DF8044B7047937A2F
:1017800003F003030029E6D043F00403E3E7D36842
:101790005DF8044B023BD3607047D3685DF8044B9F
:1017A0000233D3607047D3685DF8044B0133D360D4
:1017B000704700BFB4A30220214B10B45A6B1368CA
:1017C000506819780478507A137A044201EA0301C8
:1017D0001BD0937A03F0030309B143F0040343F0F1
:1017E00008039910013B91720D2B0BD8DFE803F031
:1017F00021071B070A152121150A071B0721D3689A
:10180000013BD3605DF8044B7047937A03F0030308
:101810000029E6D043F00403E3E7D3685DF8044B06
:10182000023BD3607047D3685DF8044B0233D3604A
:101830007047D3685DF8044B0133D360704700BF35
:10184000B4A30220214B10B49A6B13685068197826
:101850000478507A137A044201EA03011BD0937A88
:1018600003F0030309B143F0040343F008039910A4
:10187000013B91720D2B0BD8DFE803F021071B070A
:101880000A152121150A071B0721D368013BD360E4
:101890005DF8044B7047937A03F003030029E6D008
:1018A00043F00403E3E7D3685DF8044B023BD360E5
:1018B0007047D3685DF8044B0233D3607047D36838
:1018C0005DF8044B0133D360704700BFB4A302201E
:1018D000214B10B4DA6B1368506819780478507A89
:1018E000137A044201EA03011BD0937A03F0030345
:1018F00009B143F0040343F008039910013B9172CE
:101900000D2B0BD8DFE803F021071B070A15212157
:10191000150A071B0721D368013BD3605DF8044B10
:101920007047937A03F003030029E6D043F00403E1
:10193000E3E7D3685DF8044B023BD3607047D3689C
:101940005DF8044B0233D3607047D3685DF8044BF5
:101950000133D360704700BFB4A30220214B10B401
:101960001A6C1368506819780478507A137A044214
:1019700001EA03011BD0937A03F0030309B143F09A
:10198000040343F008039910013B91720D2B0BD80F
:10199000DFE803F021071B070A152121150A071BA1
:1019A0000721D368013BD3605DF8044B7047937AFD
:1019B00003F003030029E6D043F00403E3E7D36810
:1019C0005DF8044B023BD3607047D3685DF8044B6D
:1019D0000233D3607047D3685DF8044B0133D360A2
:1019E000704700BFB4A30220214B10B45A6C136897
:1019F000506819780478507A137A044201EA030196
:101A00001BD0937A03F0030309B143F0040343F0BE
:101A100008039910013B91720D2B0BD8DFE803F0FE
:101A200021071B070A152121150A071B0721D36867
:101A3000013BD3605DF8044B7047937A03F00303D6
:101A40000029E6D043F00403E3E7D3685DF8044BD4
:101A5000023BD3607047D3685DF8044B0233D36018
:101A60007047D3685DF8044B0133D360704700BF03
:101A7000B4A30220214B10B49A6C136850681978F3
:101A80000478507A137A044201EA03011BD0937A56
:101A900003F0030309B143F0040343F00803991072
:101AA000013B91720D2B0BD8DFE803F021071B07D8
:101AB0000A152121150A071B0721D368013BD360B2
:101AC0005DF8044B7047937A03F003030029E6D0D6
:101AD00043F00403E3E7D3685DF8044B023BD360B3
:101AE0007047D3685DF8044B0233D3607047D36806
:101AF0005DF8044B0133D360704700BFB4A30220EC
:101B0000214B10B4DA6C1368506819780478507A55
:101B1000137A044201EA03011BD0937A03F0030312
:101B200009B143F0040343F008039910013B91729B
:101B30000D2B0BD8DFE803F021071B070A15212125
:101B4000150A071B0721D368013BD3605DF8044BDE
:101B50007047937A03F003030029E6D043F00403AF
:101B6000E3E7D3685DF8044B023BD3607047D3686A
:101B70005DF8044B0233D3607047D3685DF8044BC3
:101B80000133D360704700BFB4A30220214B10B4CF
:101B90001A6D1368506819780478507A137A0442E1
:101BA00001EA03011BD0937A03F0030309B143F068
:101BB000040343F008039910013B91720D2B0BD8DD
:101BC000DFE803F021071B070A152121150A071B6F
:101BD0000721D368013BD3605DF8044B7047937ACB
:101BE00003F003030029E6D043F00403E3E7D368DE
:101BF0005DF8044B023BD3607047D3685DF8044B3B
:101C00000233D3607047D3685DF8044B0133D3606F
:101C1000704700BFB4A30220214B10B45A6D136863
:101C2000506819780478507A137A044201EA030163
:101C30001BD0937A03F0030309B143F0040343F08C
:101C400008039910013B91720D2B0BD8DFE803F0CC
:101C500021071B070A152121150A071B0721D36835
:101C6000013BD3605DF8044B7047937A03F00303A4
:101C70000029E6D043F00403E3E7D3685DF8044BA2
:101C8000023BD3607047D3685DF8044B0233D360E6
:101C90007047D3685DF8044B0133D360704700BFD1
:101CA000B4A30220214B10B49A6D136850681978C0
:101CB0000478507A137A044201EA03011BD0937A24
:101CC00003F0030309B143F0040343F00803991040
:101CD000013B91720D2B0BD8DFE803F021071B07A6
:101CE0000A152121150A071B0721D368013BD36080
:101CF0005DF8044B7047937A03F003030029E6D0A4
:101D000043F00403E3E7D3685DF8044B023BD36080
:101D10007047D3685DF8044B0233D3607047D368D3
:101D20005DF8044B0133D360704700BFB4A30220B9
:101D3000214B10B4DA6D1368506819780478507A22
:101D4000137A044201EA03011BD0937A03F00303E0
:101D500009B143F0040343F008039910013B917269
:101D60000D2B0BD8DFE803F021071B070A152121F3
:101D7000150A071B0721D368013BD3605DF8044BAC
:101D80007047937A03F003030029E6D043F004037D
:101D9000E3E7D3685DF8044B023BD3607047D36838
:101DA0005DF8044B0233D3607047D3685DF8044B91
:101DB0000133D360704700BFB4A30220214B10B49D
:101DC0001A6E1368506819780478507A137A0442AE
:101DD00001EA03011BD0937A03F0030309B143F036
:101DE000040343F008039910013B91720D2B0BD8AB
:101DF000DFE803F021071B070A152121150A071B3D
:101E00000721D368013BD3605DF8044B7047937A98
:101E100003F003030029E6D043F00403E3E7D368AB
:101E20005DF8044B023BD3607047D3685DF8044B08
:101E30000233D3607047D3685DF8044B0133D3603D
:101E4000704700BFB4A30220214B10B45A6E136830
:101E5000506819780478507A137A044201EA030131
:101E60001BD0937A03F0030309B143F0040343F05A
:101E700008039910013B91720D2B0BD8DFE803F09A
:101E800021071B070A152121150A071B0721D36803
:101E9000013BD3605DF8044B7047937A03F0030372
:101EA0000029E6D043F00403E3E7D3685DF8044B70
:101EB000023BD3607047D3685DF8044B0233D360B4
:101EC0007047D3685DF8044B0133D360704700BF9F
:101ED000B4A30220214B10B49A6E1368506819788D
:101EE0000478507A137A044201EA03011BD0937AF2
:101EF00003F0030309B143F0040343F0080399100E
:101F0000013B91720D2B0BD8DFE803F021071B0773
:101F10000A152121150A071B0721D368013BD3604D
:101F20005DF8044B7047937A03F003030029E6D071
:101F300043F00403E3E7D3685DF8044B023BD3604E
:101F40007047D3685DF8044B0233D3607047D368A1
:101F50005DF8044B0133D360704700BFB4A3022087
:101F6000214B10B4DA6E1368506819780478507AEF
:101F7000137A044201EA03011BD0937A03F00303AE
:101F800009B143F0040343F008039910013B917237
:101F90000D2B0BD8DFE803F021071B070A152121C1
:101FA000150A071B0721D368013BD3605DF8044B7A
:101FB0007047937A03F003030029E6D043F004034B
:101FC000E3E7D3685DF8044B023BD3607047D36806
:101FD0005DF8044B0233D3607047D3685DF8044B5F
:101FE0000133D360704700BFB4A30220214B10B46B
:101FF0001A6F1368506819780478507A137A04427B
:1020000001EA03011BD0937A03F0030309B143F003
:10201000040343F008039910013B91720D2B0BD878
:10202000DFE803F021071B070A152121150A071B0A
:102030000721D368013BD3605DF8044B7047937A66
:1020400003F003030029E6D043F00403E3E7D36879
:102050005DF8044B023BD3607047D3685DF8044BD6
:102060000233D3607047D3685DF8044B0133D3600B
:10207000704700BFB4A30220214B10B45A6F1368FD
:10208000506819780478507A137A044201EA0301FF
:102090001BD0937A03F0030309B143F0040343F028
:1020A00008039910013B91720D2B0BD8DFE803F068
:1020B00021071B070A152121150A071B0721D368D1
:1020C000013BD3605DF8044B7047937A03F0030340
:1020D0000029E6D043F00403E3E7D3685DF8044B3E
:1020E000023BD3607047D3685DF8044B0233D36082
:1020F0007047D3685DF8044B0133D360704700BF6D
:10210000B4A30220214B10B49A6F13685068197859
:102110000478507A137A044201EA03011BD0937ABF
:1021200003F0030309B143F0040343F008039910DB
:10213000013B91720D2B0BD8DFE803F021071B0741
:102140000A152121150A071B0721D368013BD3601B
:102150005DF8044B7047937A03F003030029E6D03F
:1021600043F00403E3E7D3685DF8044B023BD3601C
:102170007047D3685DF8044B0233D3607047D3686F
:102180005DF8044B0133D360704700BFB4A3022055
:10219000214B10B4DA6F1368506819780478507ABC
:1021A000137A044201EA03011BD0937A03F003037C
:1021B00009B143F0040343F008039910013B917205
:1021C0000D2B0BD8DFE803F021071B070A1521218F
:1021D000150A071B0721D368013BD3605DF8044B48
:1021E0007047937A03F003030029E6D043F0040319
:1021F000E3E7D3685DF8044B023BD3607047D368D4
:102200005DF8044B0233D3607047D3685DF8044B2C
:102210000133D360704700BFB4A30220214B10B438
:10222000D3F880201368506819780478507A137AAC
:10223000044201EA03011BD0937A03F0030309B1BE
:1022400043F0040343F008039910013B91720D2BF6
:102250000BD8DFE803F021071B070A152121150A17
:10226000071B0721D368013BD3605DF8044B70471F
:10227000937A03F003030029E6D043F00403E3E775
:10228000D3685DF8044B023BD3607047D3685DF8B8
:10229000044B0233D3607047D3685DF8044B0133BD
:1022A000D3607047B4A30220214B10B4D3F884202C
:1022B0001368506819780478507A137A044201EA56
:1022C00003011BD0937A03F0030309B143F0040325
:1022D00043F008039910013B91720D2B0BD8DFE8F6
:1022E00003F021071B070A152121150A071B0721E7
:1022F000D368013BD3605DF8044B7047937A03F0D9
:1023000003030029E6D043F00403E3E7D3685DF854
:10231000044B023BD3607047D3685DF8044B023333
:10232000D3607047D3685DF8044B0133D3607047C6
:10233000B4A30220214B10B4D3F88820136850684E
:1023400019780478507A137A044201EA03011BD009
:10235000937A03F0030309B143F0040343F0080345
:102360009910013B91720D2B0BD8DFE803F0210788
:102370001B070A152121150A071B0721D368013BFA
:10238000D3605DF8044B7047937A03F00303002990
:10239000E6D043F00403E3E7D3685DF8044B023B67
:1023A000D3607047D3685DF8044B0233D360704745
:1023B000D3685DF8044B0133D3607047B4A30220A7
:1023C000214B10B4D3F88C20136850681978047826
:1023D000507A137A044201EA03011BD0937A03F086
:1023E000030309B143F0040343F008039910013BD0
:1023F00091720D2B0BD8DFE803F021071B070A159C
:102400002121150A071B0721D368013BD3605DF822
:10241000044B7047937A03F003030029E6D043F09E
:102420000403E3E7D3685DF8044B023BD3607047D5
:10243000D3685DF8044B0233D3607047D3685DF80E
:10244000044B0133D3607047B4A30220214B10B476
:10245000D3F890201368506819780478507A137A6A
:10246000044201EA03011BD0937A03F0030309B18C
:1024700043F0040343F008039910013B91720D2BC4
:102480000BD8DFE803F021071B070A152121150AE5
:10249000071B0721D368013BD3605DF8044B7047ED
:1024A000937A03F003030029E6D043F00403E3E743
:1024B000D3685DF8044B023BD3607047D3685DF886
:1024C000044B0233D3607047D3685DF8044B01338B
:1024D000D3607047B4A30220214B10B4D3F89420EA
:1024E0001368506819780478507A137A044201EA24
:1024F00003011BD0937A03F0030309B143F00403F3
:1025000043F008039910013B91720D2B0BD8DFE8C3
:1025100003F021071B070A152121150A071B0721B4
:10252000D368013BD3605DF8044B7047937A03F0A6
:1025300003030029E6D043F00403E3E7D3685DF822
:10254000044B023BD3607047D3685DF8044B023301
:10255000D3607047D3685DF8044B0133D360704794
:10256000B4A30220002310B4114C41720261046034
:102570000372C36041B1194600E0026942F82310BA
:10258000427A01339A42F8DC0A4B1A680AB90CE025
:102590001A465369002BFBD15061002343618380AD
:1025A000C38083725DF8044B70471860F5E700BF85
:1025B000DC960100B4A40220F8B5044615460E4688
:1025C000084602210EF0F6FF284602210EF0F2FF27
:1025D000984A994B52F83610012001F50077276090
:1025E000207252F83520607202F500770020676093
:1025F000E060013BFDD191F8003292F8002203F037
:102600000103D20744BF43F00203DBB2A3723B2EA7
:1026100000F20386DFE816F0F405EA05E005D605CA
:10262000CC05C205B805AE05A4059A05900586053A
:102630007C05720568055E0554054A0540053605AA
:102640002C05220518050E050405FA04F004E6041D
:10265000DC04D204C804BE04B304A8049D0492049C
:1026600087047C0428041E0414040A040004F603EE
:10267000EC03E203D803CE03C403BA03B003A603FA
:102680009C03920388037E0374036A0360033C0087
:102690006A4B6B49C3F8EC4004223B200EF0E2FE8B
:1026A000012323743B2D00F2B585DFE815F00B0301
:1026B0000103F702ED02E302D902CF02C502BB0219
:1026C000B102A7029D02930289027F023102270212
:1026D0001D0213020902FF01F501EB01E101D7011F
:1026E000CD01C301B901AF01A5019B019101860193
:1026F0007B01700165015A014F01440139012E012E
:10270000230118010D010201F700EC00E100B800FF
:10271000AD00A20097008C00810076006B00600085
:1027200055004A003C00454B4549C3F8EC400422A3
:102730003B200EF097FE237C012213442374204695
:10274000F8BD3E4B3F49C3F8E84004223A200EF062
:1027500089FE237C0122F0E7384B3B49C3F8E44073
:10276000042239200EF07EFE237C0122E5E7334B64
:102770003649C3F8E040042238200EF073FE237C73
:102780000122DAE72D4B3249C3F8DC40042237201E
:102790000EF068FE237C0122CFE7284B2D49C3F8B9
:1027A000D840042236200EF05DFE237C0122C4E7CF
:1027B000224B2949C3F8D440042235200EF052FEA2
:1027C000237C0122B9E71D4B2449C3F8D0400422E1
:1027D00034200EF047FE237C0122AEE7174B204940
:1027E000C3F8CC40042233200EF03CFE237C0122AF
:1027F000A3E7124B1B49C3F8C840042232200EF055
:1028000031FE237C012298E70C4B1749C3F8C440E2
:10281000042231200EF026FE237C01228DE7074B97
:102820001249C3F8C040042230200EF01BFE237C66
:10283000012282E704D80100C0D40100B4A3022021
:10284000210500009504000011100000850F000014
:10285000F90E00006D0E0000E10D0000550D0000A6
:10286000C90C00003D0C0000B10B0000250B00005E
:10287000AC4BAD49C3F8BC4004222F200EF0F2FD52
:10288000237C012259E7A74BA849C3F8B84004228A
:102890002E200EF0E7FD237C01224EE7A14BA44938
:1028A000C3F8B44004222D200EF0DCFD237C01226D
:1028B00043E79C4B9F49C3F8B04004222C200EF004
:1028C000D1FD237C012238E7964B9B49C3F8AC40ED
:1028D00004222B200EF0C6FD237C01222DE7914B14
:1028E0009649C3F8A84004222A200EF0BBFD237CA1
:1028F000012222E78B4B9249C3F8A44004222920ED
:102900000EF0B0FD237C012217E7864B8D49C3F8FA
:10291000A040042228200EF0A5FD237C01220CE714
:10292000804B8949C3F89C40042227200EF09AFD71
:10293000237C012201E77B4B8449C3F898400422A1
:1029400026200EF08FFD237C0122F6E6754B804990
:10295000C3F89440042225200EF084FD237C01223C
:10296000EBE6704B7B49C3F89040042224200EF024
:1029700079FD237C0122E0E66A4B7749C3F88C405D
:10298000042223200EF06EFD237C0122D5E6654B48
:102990007249C3F88840042222200EF063FD237C94
:1029A0000122CAE65F4B6E49C3F88440042221200D
:1029B0000EF058FD237C0122BFE65A4B6949C3F84B
:1029C0008040042220200EF04DFD237C0122B4E63D
:1029D000544B6549DC6704221F200EF043FD237C25
:1029E0000122AAE64F4B61499C6704221E200EF08B
:1029F00039FD237C0122A0E64A4B5D495C67042235
:102A00001D200EF02FFD237C012296E6454B5949EF
:102A10001C6704221C200EF025FD237C01228CE67D
:102A2000404B5549DC6604221B200EF01BFD237C25
:102A3000012282E63B4B51499C6604221A200EF08B
:102A400011FD237C012278E6364B4D495C66042259
:102A500019200EF007FD237C01226EE6314B494917
:102A60001C66042218200EF0FDFC237C012264E683
:102A70002C4B4549DC65042217200EF0F3FC237C27
:102A800001225AE6274B41499C65042216200EF08C
:102A9000E9FC237C012250E6224B3D495C6504227F
:102AA00015200EF0DFFC237C012246E61D4B394940
:102AB0001C65042214200EF0D5FC237C01223CE688
:102AC000184B3549DC64042213200EF0CBFC237C28
:102AD000012232E6134B31499C64042212200EF08D
:102AE000C1FC237C012228E60E4B2D495C640422A4
:102AF00011200EF0B7FC237C01221EE6094B294968
:102B00001C64042210200EF0ADFC237C012214E68C
:102B1000044B2549DC6304220F200EF0A3FC237C28
:102B200001220AE6B4A30220990A00000D0A00005F
:102B300081090000F508000069080000DD070000B9
:102B400051070000C506000039060000AD05000071
:102B5000D92400004D240000C123000035230000CB
:102B6000A92200001D220000912100000521000083
:102B700079200000ED1F0000611F0000D51E00003D
:102B8000491E0000BD1D0000311D0000A51C0000F5
:102B9000191C00008D1B0000011B0000751A0000AD
:102BA000E91900005D190000D1180000B34BB449C9
:102BB0009C6304220E200EF055FC237C0122BCE510
:102BC000AE4BB0495C6304220D200EF04BFC237C1D
:102BD0000122B2E5A94BAC491C6304220C200EF083
:102BE00041FC237C0122A8E5A44BA849DC62042215
:102BF0000B200EF037FC237C01229EE59F4BA4495D
:102C00009C6204220A200EF02DFC237C012294E514
:102C10009A4BA0495C62042209200EF023FC237C1D
:102C200001228AE5954B9C491C62042208200EF083
:102C300019FC237C012280E5904B9849DC61042239
:102C400007200EF00FFC237C012276E58B4B944984
:102C50009C61042206200EF005FC237C01226CE519
:102C6000864B90495C61042205200EF0FBFB237C1F
:102C7000012262E5814B8C491C61042210460EF052
:102C8000F1FB237C012258E57C4B8849DC6004225F
:102C900003200EF0E7FB237C01224EE5774B8449AD
:102CA0009C60042202200EF0DDFB237C012244E51F
:102CB000724B80495C60042201200EF0D3FB237C20
:102CC00001223AE56D4B7C491C60042200200EF085
:102CD000C9FB237C012230E5684B7849C3F8E84002
:102CE00004223A200EF0BEFB0123DAE4634B744960
:102CF000C3F8E440042239200EF0B4FB0123D0E4F1
:102D00005E4B7049C3F8E040042238200EF0AAFB65
:102D10000123C6E4594B6C49C3F8DC400422372038
:102D20000EF0A0FB0123BCE4544B6849C3F8D84023
:102D3000042236200EF096FB0123B2E44F4B644987
:102D4000C3F8D440042235200EF08CFB0123A8E404
:102D50004A4B6049C3F8D040042234200EF082FB75
:102D600001239EE4454B5C49C3F8CC400422332048
:102D70000EF078FB012394E4404B5849C3F8C84057
:102D8000042232200EF06EFB01238AE43B4B5449AF
:102D9000C3F8C440042231200EF064FB012380E418
:102DA000364B5049C3F8C040042230200EF05AFB85
:102DB000012376E4314B4C49C3F8BC4004222F2058
:102DC0000EF050FB01236CE42C4B4849C3F8B8408B
:102DD00004222E200EF046FB012362E4274B4449D7
:102DE000C3F8B44004222D200EF03CFB012358E42C
:102DF000224B4049C3F8B04004222C200EF032FB95
:102E000001234EE41D4B3C49C3F8AC4004222B2067
:102E10000EF028FB012344E4184B3849C3F8A840BE
:102E200004222A200EF01EFB01233AE4134B3449FE
:102E3000C3F8A440042229200EF014FB012330E43F
:102E40000E4B3049C3F8A040042228200EF00AFBA4
:102E5000012326E4094B2C49C3F89C400422272077
:102E60000EF000FB01231CE4044B2849C3F89840F2
:102E7000042226200EF0F6FA012312E4B4A3022065
:102E800045180000B91700002D170000A11600001A
:102E90001516000089150000FD14000071140000D3
:102EA000E513000059130000CD120000411200008C
:102EB000B5110000291100009D10000095040000CC
:102EC00011100000850F0000F90E00006D0E0000CB
:102ED000E10D0000550D0000C90C00003D0C000084
:102EE000B10B0000250B0000990A00000D0A00003C
:102EF00081090000F508000069080000DD070000F6
:102F000051070000C506000039060000AD050000AD
:102F1000C34BC449C3F89440042225200EF0A2FA02
:102F20000123FFF7BEBBBE4BBF49C3F8904004224C
:102F300024200EF097FA0123FFF7B3BBB84BBB492F
:102F4000C3F88C40042223200EF08CFA0123FFF7F3
:102F5000A8BBB34BB649C3F88840042222200EF028
:102F600081FA0123FFF79DBBAD4BB249C3F8844002
:102F7000042221200EF076FA0123FFF792BBA84B22
:102F8000AD49C3F88040042220200EF06BFA0123E3
:102F9000FFF787BBA24BA949DC6704221F200EF074
:102FA00061FA0123FFF77DBB9D4BA5499C67042275
:102FB0001E200EF057FA0123FFF773BB984BA1496F
:102FC0005C6704221D200EF04DFA0123FFF769BB58
:102FD000934B9D491C6704221C200EF043FA0123E9
:102FE000FFF75FBB8E4B9949DC6604221B200EF075
:102FF00039FA0123FFF755BB894B95499C6604229A
:103000001A200EF02FFA0123FFF74BBB844B914996
:103010005C66042219200EF025FA0123FFF741BB5C
:103020007F4B8D491C66042218200EF01BFA0123E9
:10303000FFF737BB7A4B8949DC65042217200EF075
:1030400011FA0123FFF72DBB754B85499C650422BE
:1030500016200EF007FA0123FFF723BB704B8149BE
:103060005C65042215200EF0FDF90123FFF719BB62
:103070006B4B7D491C65042214200EF0F3F90123EB
:10308000FFF70FBB664B7949DC64042213200EF076
:10309000E9F90123FFF705BB614B75499C640422E4
:1030A00012200EF0DFF90123FFF7FBBA5C4B7149E8
:1030B0005C64042211200EF0D5F90123FFF7F1BA68
:1030C000574B6D491C64042210200EF0CBF90123EC
:1030D000FFF7E7BA524B6949DC6304220F200EF078
:1030E000C1F90123FFF7DDBA4D4B65499C6304220A
:1030F0000E200EF0B7F90123FFF7D3BA484B614910
:103100005C6304220D200EF0ADF90123FFF7C9BA6C
:10311000434B5D491C6304220C200EF0A3F90123EC
:10312000FFF7BFBA3E4B5949DC6204220B200EF078
:1031300099F90123FFF7B5BA394B55499C6204222E
:103140000A200EF08FF90123FFF7ABBA344B514937
:103150005C62042209200EF085F90123FFF7A1BA71
:103160002F4B4D491C62042208200EF07BF90123ED
:10317000FFF797BA2A4B4949DC61042207200EF079
:1031800071F90123FFF78DBA254B45499C61042253
:1031900006200EF067F90123FFF783BA204B41495F
:1031A0005C61042205200EF05DF90123FFF779BA76
:1031B0001B4B3D491C61042210460EF053F90123BC
:1031C000FFF76FBA164B3949DC60042203200EF07A
:1031D00049F90123FFF765BA114B35499C60042278
:1031E00002200EF03FF90123FFF75BBA0C4B314987
:1031F0005C60042201200EF035F90123FFF751BA7B
:10320000074B2D491C60042200200EF02BF90123EE
:10321000FFF747BA0022FFF790BA0023FFF741BA41
:10322000B4A30220D92400004D240000C1230000D3
:1032300035230000A92200001D220000912100007A
:103240000521000079200000ED1F0000611F000033
:10325000D51E0000491E0000BD1D0000311D0000EC
:10326000A51C0000191C00008D1B0000011B0000A4
:10327000751A0000E91900005D190000D11800005E
:1032800045180000B91700002D170000A116000016
:103290001516000089150000FD14000071140000CF
:1032A000E513000059130000CD1200004112000088
:1032B000B5110000291100009D10000010B592B05A
:1032C000014601A80DF0EAFB0023322201A805A95E
:1032D0000DF006FC05A905480CF098FD044601A870
:1032E0000DF09CFBA0B212B010BD00BFBC9300203B
:1032F00010B5A2B044221749044668460DF00AFFF3
:1033000044220DEB020014490DF004FFADF104025C
:10331000002352F8041FA14204D00133112BF8D12D
:1033200022B010BD0D490A68002AFCDB22AA02EB7C
:1033300083030B4913F8442C33F8423C013A12033F
:10334000013B02F47F22C3F30B0313430B6022B053
:1033500010BD00BFE09601002497010000F102407B
:1033600004F102402DE9F04F2DED028BDFF8ECA0C7
:10337000364BDFED378A9FED378A85B0D34603930E
:103380004FF00009039B5BF8045F33F9022F0393AE
:1033900007EE902A07EE105AFAEEEF7AB8EEC77AE7
:1033A000FDEEE77A27EE287AF8EEE76A17EE904A04
:1033B000A6EE887A1FFA89F606F104084FF4FC603D
:1033C000BDEEC77A0FFA88F817EE107ABE2FD4BF79
:1033D00027EAE777BE27BE2CA8BFBE2423B25A2215
:1033E000A4B2414600901C480AF0C0FEC4F1BE03DE
:1033F00004F15A02002441461BB212B2164800944E
:1034000005360AF0B3FE36B24FF4487331460093E6
:103410005A222BB21048ADB20AF0A8FEC5F1BE0385
:1034200005F15A0209F10209009431461BB212B2A9
:1034300009480AF09BFEB9F1FC0F4AF8047FA1D1BC
:1034400005B0BDEC028BBDE8F08F00BF5E8C0020A4
:103450003333733FCDCC4C3DBC930020C083002060
:10346000F8B55C4E34685CB1032C5B4D28D0022C5F
:103470003CD0012C60D0042C7DD000232B62F8BD01
:103480005648554D564F09F0B1FA564A564B1168F9
:103490001A68EC6191424FF48033AB6104BFEB6179
:1034A000AC61524B34685248524A00211960032CD7
:1034B0004FF001034FF002013B6003601160D6D171
:1034C0004FF480414548464F09F074FA474B346841
:1034D0004848474900221A60AA6101234FF480320C
:1034E000022C3B6003600B60EA61C2D14FF4804163
:1034F0003A4809F049FA404BDFED406A93F9003051
:1035000007EE903AF8EEE77AB7EE006A86EE277A91
:103510004FF480320023EA61AB61B4EEE67AF1EE5B
:1035200010FA3BD4F2EE007AB4EEE77AF1EE10FA3C
:1035300044DD4FF4002333E02848274C2B4F09F09B
:1035400055FA284A284B116818684FF4803288428F
:103550004FF00003EB61AA6108BFE26120482549F2
:10356000234A08BFA36101233468036000263E603C
:103570000B6013607FE719481C4F194E1D4C09F072
:1035800035FA1B48002201234FF480313A60EA618A
:10359000AA613360236003602962F8BD40F28F2383
:1035A0000E4F124C0E481349114A3B62012300276B
:1035B0002760036034680B6013605AE7DFED106A20
:1035C000DFED107AE7EE267AFCEEE77A17EE903A16
:1035D000E6E700BF749600203897002098960020F8
:1035E000409C0220D84E0020243E002084980020D9
:1035F00078960020A04E00205D3E00200AD7233C94
:1036000000008047EE7CFF3EF0B5474C474A4849F2
:1036100091B0002508A80123256002F07FFE10AAC2
:1036200044480A9B12F8145D9DF8241083600573CA
:10363000017100F10D031A3012F8011F03F8011B8C
:1036400083423C49F8D10F9B3B4ECB6108A802F066
:103650008DFD0023394F336005E008A802F09CFD82
:1036600008A802F083FD0122324908A802F0CAFE30
:1036700008A802F09FFD40F2E63310B922689A4292
:103680004CDD08A802F076FD0028E6D108A802F07B
:103690006FFD014668460DF001FA294904A80DF0B6
:1036A000FDF904A968460DF035FA054604A80DF0A9
:1036B000B5F91DB968460DF0B1F9CEE7236803EB03
:1036C000430503EB850308A8FD1802F051FD0146F0
:1036D000284612F085FA1B4904A80DF0DFF904A969
:1036E00068460DF017FA054604A80DF097F92B4629
:1036F0000122694604A80DF01FFA04A80DF040FA53
:10370000054604A80DF08AF9326823680A499542F3
:1037100003F10103C8BF0D602360CBE708A802F0E6
:1037200025FD11B0F0BD00BFE0960020109801000B
:10373000449C02201C9C0220181C022000510020E6
:10374000149801001C98010008B5054901220020C9
:1037500006F0E6FEFE210348BDE8084002F032BD57
:1037600020980100449C022038B5064D0648074CBD
:103770002946012206F0D4FE2070284607F0A6FA5A
:10378000207038BD209801003C4C0020BC8B0020EC
:10379000F8B5224C236833B9214B1A6840F2E6335E
:1037A0009A420DDDF8BD1F4807F07EFA00231E4A3D
:1037B00023601B4B10701A6840F2E6339A42F1DC2A
:1037C0001A4F1B4B3D681B681A491B48164E0135A2
:1037D0002A463D6012F076F90021174807F08AFA70
:1037E0000A22307014490F4806F0C4FE02283070D7
:1037F00008D00A2210490B4806F0BCFE01233070A5
:103800002360F8BD074807F04FFA09283070F0D15F
:10381000094807F095FA3070EBE700BFA098002048
:10382000E0960020E8930020BC8B0020181C0220AA
:10383000A498002024980100E49600202DE9F84384
:10384000064609F077FD01282CDDDFF86490DFF8EB
:1038500058800025D8F80000134F05EB400430468F
:1038600009F09AFD09EB042401464FF480722046CA
:103870000DF050FC0135304609F0ACFD022DE9D1C8
:103880003B680133BF2B02D83B60BDE8F8830022C0
:10389000064B3A60064907484FF4C03206F0E6FF8F
:1038A000054B1870BDE8F883E09300209C4E002083
:1038B00000990020E8930020BC8B0020134A38B503
:1038C00000230446124D80F8F63013700CE009F026
:1038D00063FD104B01464FF480720F4806F0C6FF9F
:1038E0002870204609F076FD204609F023FD0028C7
:1038F0002046ECDC084807F0D7F9084B2870002276
:103900001A60BDE83840FFF77FBE00BFF04E0020D0
:10391000BC8B00209C4E0020E8930020A098002043
:1039200008B50948FFF7CAFF002108480AF066FFFA
:103930000749084A084B096811604FF480329A61C0
:10394000BDE80840FFF78CBD74970020BC930020B1
:103950003C9C022074960020C01B02202DE9F041FF
:103960008CB00DF1030600250746B0462C462846CC
:103970000DF080FB08F8010F4440082314F0010FFC
:103980004FEA540203F1FF3314BF82F08C04C4F3F6
:10399000470413F0FF03F1D101352B2DE7D1F4B922
:1039A0009DF82B30312B03D020460CB0BDE8F081C0
:1039B0009DF82A30302BF7D19DF82930302BF3D1E8
:1039C0009DF82830302BEFD1013F0DF12F0316F871
:1039D000012F07F8012F9E42F9D10120E5E7184693
:1039E0000CB0BDE8F08100BFF8B50025471E2C469D
:1039F00017F8016F0823744014F0010F4FEA5402C6
:103A000003F1FF3314BF82F08C04C4F3470413F0B6
:103A1000FF03F1D128460DF02DFB864209D0314637
:103A200028460DF041FB28460DF024FB3B788342ED
:103A30000FD101352A2DDBD10026214628460DF075
:103A400033FB28460DF016FB84420CBF30460120A4
:103A5000F8BD0126F1E700BFF0B58DB001A8FFF772
:103A60007DFF98B11C49099A1C4BBDF806709DF862
:103A700028609DF829509DF82A400F80012A9DF862
:103A80002B101E705D709C70D97001D00DB0F0BD10
:103A9000134C1449049F144D144B27600A60059F72
:103AA000029A134E2F601A60124C039A124F326022
:103AB0009DF820609DF821202670104D1049114B73
:103AC000079E9DF819403A709DF818202E600C70E2
:103AD0001A700DB0F0BD00BFF08B0020BC4E00206E
:103AE000203E0020889800206C3E00207496002024
:103AF000703E00205D3E00207C3E0020783E00208D
:103B0000743E0020183E0020F0B522492248234A86
:103B100009680068224B234D1B88234C2E68234FD5
:103B20002568234C97F800E094F800C08FB001336B
:103B30000490069192E80300C0F307228DF830004C
:103B40008DF83120C0F30742000E8DF832208DF839
:103B50003300ADF80E301748174B1849184A07784C
:103B60000968126807960B951E78059100235E255B
:103B700003A88DF829C08DF828E009928DF82170EE
:103B80008DF820608DF80C50ADF83430FFF72CFF25
:103B90000FB0F0BD203E0020749600203098010048
:103BA000F08B00206C3E0020889800205D3E0020B5
:103BB0007C3E0020743E0020183E0020703E002015
:103BC000783E00202DE9F04F9F49A048DFF8B092E1
:103BD0008BB00CF063FF9E4A9E499C480FF086FE16
:103BE0001C211B2227238DE80E009B48FF23142253
:103BF00015210AF05BF932222521984809F0FCFCD6
:103C000032222421964809F0F7FC232222219548EC
:103C1000FEF7D2FC32222621934809F0EDFC322235
:103C20001D21924809F0E8FC1F221E219048FEF752
:103C3000C3FC904B1A68904BC9F80030002389F8F8
:103C40000930C9F8103089F80830C9F80C300AB9C1
:103C5000B1E21A465369002BFBD1C2F8149000243C
:103C6000DFF870B2854B8648C9F81440A9F80440C3
:103C7000A9F8064089F80A40C9F8003008F0A8FF02
:103C80000BF1180201215846FEF76CFC7D4B7E4873
:103C90008BF8F440224621468BF8F540CBF8F040F3
:103CA0008BF8F640CBF80030FEF75CFC764A774B99
:103CB0001360774A744E774D18324FF48043A2F167
:103CC000180002213362FEF74DFC714A724B1360FB
:103CD000012005F22472684E2C7223462146EC60C6
:103CE0002E6068722A612C4600E0226942F8231097
:103CF0006A7A684801339A42F7DC5E4B1A680AB95F
:103D00005DE21A465369002BFBD1556100246349DB
:103D10002960224601234FF48071614E61486C6135
:103D2000AC80EC80AC7285F8214785F82247C5F855
:103D300018610FF0FFFC4F4BDFF874811A684E4991
:103D4000C5F81C41082385F8203788F80940C8F8D1
:103D50000010C8F8104088F80840C8F80C40454BDF
:103D60000AB92EE21A465369002BFBD1C2F814801F
:103D70004FF0000A4C4B4D48C8F814A0A8F804A016
:103D8000A8F806A088F80AA0C8F8003002F0E0F908
:103D90004748484C484F494E09F0C8F92C4A484911
:103DA00043480FF0A3FD474B012103F118021846C9
:103DB000FEF7D8FB434A444B1360444B042103F104
:103DC00028021846FEF7CEFB414B03F128021846A5
:103DD0003E4B04211C604FF480349C61DC611C620A
:103DE0005C62FEF7BFFB3A4B324C1C6007F12802C5
:103DF0004FF48034042138469C61DC611C625C62B3
:103E0000FEF7B0FB2B49BC61022006F11802FC61F1
:103E10003C627C62184C396034605346514686F8E7
:103E200008A0C6F80CA070723261344600E0226926
:103E300042F82310727A214801339A42F7DC0D4B85
:103E40001A68002A49D1BFE138980100884E002045
:103E50000C3E00201D0A0100BC930020A49300200A
:103E60001419022080960020A84E0020F09800200F
:103E7000DC4E0020B4A40220DC960100C8A401009E
:103E8000AC980020F8A40100208C002004A50100BB
:103E900098190220448C0020BCA4010088A20100D3
:103EA000A8A201006C930020ECA40100401902209C
:103EB00028190220D4A401003C960020F81B0220FF
:103EC0007104000098960020B0A40100C01B0220DD
:103ED00038970020749700201A465369002BFBD1B5
:103EE00056610024B94ABA4B7461B480F480B4724C
:103EF000B8483260059309F0A3F8059BDFF82CA3BE
:103F00001C721846C3F800905F605C72DC601C7421
:103F10000CF0B2FB059BB04AB04918460FF0E6FC26
:103F2000AF4B059350468AE8000A8AF808408AF8A1
:103F30000940CAF80C408AF810400CF09DFBA64AD4
:103F4000A649DFF8ECB250460FF0D0FC059BDFF835
:103F5000E4A21C724FF001091846C3F800805F60AC
:103F6000DC601C7483F809900CF086FB059B9A4A70
:103F70009A49DFF8C48218460FF0B8FC994BCBF889
:103F8000043058468BF80840CBF800708BF8094095
:103F9000CBF80C408BF810400CF06EFB8E4A8F492A
:103FA00058460FF0A3FC904BCAF8043050468AF8EC
:103FB0000840CAF800708AF80940CAF80C408AF82C
:103FC00010400CF059FB844A8449DFF870B2504627
:103FD0000FF08CFC834B88F80840404688E82800A6
:103FE00088F80940C8F80C4088F810400CF044FBF1
:103FF000794A7A497D4B059340460FF077FC7C4B1C
:10400000DFF83CA2CBF8043058468BF80840CBF8D8
:1040100000708BF80940CBF80C408BF810400CF086
:104020002BFB6D4A6D49DFF81C82724D58460FF02C
:104030005DFC714BCAF8003050466D4BCAF8043035
:104040008AF808408AF80990CAF80C408AF81040AB
:104050000CF012FB6149604ADFF8ECB150460FF0FA
:1040600045FC059B604A1A601846644A1C725A60F7
:1040700083F80990DC601C740CF0FEFA059B564A2C
:104080005649DFF8C8A118460FF030FC584BC8F865
:1040900000304046594BC8F8043088F8084088F88A
:1040A0000940C8F80C4088F810400CF0E5FA4B497C
:1040B000494A40460FF01AFC022328464F4A6B72C9
:1040C0002C722F606A60EC602C740CF0D5FA424AB6
:1040D0004249DFF87C814A4F28460FF007FC474BE6
:1040E0008BF8084058468BE848008BF80940CBF81D
:1040F0000C408BF810400CF0BFFA374A3749414D5D
:1041000058460FF0F3FB3D4B8AF8099050468AE879
:1041100048008AF80840CAF80C408AF810400CF0B1
:10412000ABFA50462C4A2D49DFF828A1364CDFF86F
:1041300028910FF0DBFB3549354B0A680792DDF813
:104140001CB00A6808921A68089B0968DFF80CE13D
:1041500009911E462F4B0999DFF804C1CEF80020C3
:1041600002EB420003EB80032B4A2D68CAF800B033
:10417000A1F57A71D3F808B0D3F804A0C8F80060AC
:10418000264B2748CCF800104FF00A082360C2F8ED
:1041900000A0C7F800B0C9F8005084F8088001F00A
:1041A000D7FF0D4A1F491E480FF0A0FB0CF016FF69
:1041B0000BB0BDE8F08F1C4BC3F800904FE51860C2
:1041C000A4E5C3F80080D3E518608AE6E0A4010006
:1041D00090930020F81B02200C3E00208904000070
:1041E0000C8C0020C01B0220989600200019022091
:1041F00098190220D88B0020208C002038970020AE
:1042000070970020783E0020F44E002044A5022044
:104210006C3E002068970100A498002094A2010041
:104220001C9C02206D610000B4A402206C98002048
:104230006C19022080190220DC980020C44E002056
:10424000C89800208C980020F48B00207C930020DC
:10425000C48B0020BC1B0220C08B0020B493002024
:104260007C9600202DE9F04F2DED028BCA4CCB4EF1
:10427000CB4D95B020464FF6E0710BF049FE4FF460
:10428000004128230022019100932046F02311468B
:10429000A5610AF0F5F83368012B00F08782022B44
:1042A00000F0918214224FF400438DE80C000021AD
:1042B000F0234FF48C72B848DFF838A30AF0E0F826
:1042C00028224FF448738DE80C000021F0234FF4AE
:1042D0009672B1480AF0D4F800221146AE480BF0AD
:1042E000FBFD0122AF49AC480CF006FB9AF9001027
:1042F000A9480CF08BFB3268022A00F06E82DFF8CE
:10430000F892A949A448A94F02220CF0F5FA99F9AC
:104310000010A1480CF07AFB0222A5499E480CF03F
:10432000EBFAA44B1C68204611F0EAFC2146024639
:1043300099480CF0E1FA1422002197480BF0CCFDCB
:104340003B68042B00F22682DFE813F01F016001B6
:1043500066016C010500042297498F480CF0CCFAE5
:10436000964BDFF898821968954C0BA80BF0D4FD9A
:104370001422B42188480BF0AFFD0C9A0D9B0092DB
:104380000921904A05A811F04FFB05A811F0B8FCCF
:1043900005A9024680480CF0AFFA00214FF48C7258
:1043A0007D480BF099FDD8F800307B48012B0CBFFD
:1043B0004DF29A614FF6E0710BF0AAFD23680A2BCB
:1043C00004D1D8F80020012A00F069827E4D55F80A
:1043D00023B0584611F094FC594602466E480CF042
:1043E0008BFA012279496C480CF086FA4FF6FF717E
:1043F0006948DFF8CCB10BF08BFD2368012B00F08E
:10440000FC81022B00F01481002B00F01A81092B93
:1044100000F02081082B00F02781032B00F02E8173
:104420000C2B00F04081052B00F04781684BDFF832
:10443000D0911B685848012B0CBF4DF29A614FF682
:10444000E0710BF065FDD9F8003055F82300FEF758
:1044500035FFC0F1F00109B24FF48C724E480BF0F9
:104460003BFDD9F8003055F82350284611F048FCA0
:104470002946024648480CF03FFA4FF49672002154
:1044800045480BF029FD4FF6E07143480BF040FD25
:104490002368062B00F042814E4C2378002B00F05D
:1044A0005981012B00F05F81022B4B4C00F0698198
:1044B0004FF6E07138480BF02BFD484B2278484905
:1044C0001C78484B052C0CBF1C460C46002A00F0FB
:1044D000FE803368002B40F31281DFF828A1424DA3
:1044E000DAF80020DFF820B19FED407ADBF8001009
:1044F000002A1346B8BF02F1FF031B1207EE903AE1
:1045000091FBF3F185FB0205D217FAEEEF7AC2EBCD
:104510006535012D87EE278A4FEA41091EDD01240A
:104520004FF6E078CDF80080052355221A4807EEB3
:10453000904AF8EEE77A013467EE887AFDEEE77A82
:10454000CDED037ABDF90C1009F010FEA542E9D1BA
:10455000DAF80030002BB8BFFF331B123A68022A8A
:1045600000F07B814FF6E0730093572203230FFA8C
:1045700089F109480BF00AF83368012B00F04C81EF
:1045800015B0BDEC028BBDE8F08F0222184902483D
:104590000CF0B2F9E4E600BFBC930020703E0020AE
:1045A000ACD6010058980100609801007496002074
:1045B00064980100A49800208098010000D0034076
:1045C0008498002090980100283E00209C980100CB
:1045D00078960020B84E0020241902205C3E00206E
:1045E0004898010050980100AD8BDB6800401C46E4
:1045F00068980100183E0020743E0020409C022074
:10460000A04E002070970020783E00200722BA4973
:10461000BA480CF071F9A3E60722B949B7480CF083
:104620006BF99DE60222B749B4480CF065F997E6AC
:10463000B54BB24819680CF0E9F92368002B7FF4F8
:10464000E6AE99F90010AD480CF0E0F92368092BAB
:104650007FF4E0AEAD4BA94893F900100CF0D6F909
:104660002368082B7FF4D9AEA94BA44893F9001016
:104670000CF0CCF92368032B7FF4D2AEA54BA64AED
:104680001B6803EB430302EB8303D3F80490484613
:1046900011F036FB4946024698480CF02DF9236884
:1046A0000C2B7FF4C0AE9D4B944893F900100CF096
:1046B000ADF92368052B7FF4B9AE994B1B68002B2D
:1046C0006ED1072297498D480CF016F9AEE62146C7
:1046D0008A480BF09BFBC0F1EB0109B24FF49672D4
:1046E00086480BF0F9FB204611F00AFB21460246F2
:1046F00082480CF001F93368002B3FF7EEAE5522EB
:1047000000217E480BF0E8FB102287497B480CF023
:10471000F3F815B0BDEC028BBDE8F08FD8F800308F
:10472000012B7FF4B9AE814C74484FF6FF710BF04A
:10473000EFFB2378002B00F0D080012B00F0D48019
:10474000022B7B4C7FF4B4AE7A496C4804220CF007
:10475000D3F8ADE60722784968480CF0CDF8237805
:10476000012B7FF4A1AE754B1B78002B4DD0062298
:10477000734962480CF0C0F823786D4C022B7FF42B
:1047800097AE2378002BDFD004226E495B480CF0F3
:10479000B3F88DE605226C4958480CF0ADF8DFE51A
:1047A00004226A4955480CF0A7F83FE600211E2371
:1047B00000932046F02301913C2209F061FE33680A
:1047C000022B7FF46FAD0021062300930191F023AB
:1047D00054224A4809F054FE64E55D4947480CF00C
:1047E0008BF8494B5B491B68444881FB0321DB176D
:1047F000C3EBA1110CF00AF981E59AF900103F48CA
:104800000CF004F9DBF80030FBE5072252493B4885
:104810000CF072F8237847E6DBF800104D4B4F4A56
:1048200083FB0103C917C1EBA31308A8092111F0E9
:10483000FBF8A9F10A0109B23C2230480BF04CFB0D
:1048400008A811F05DFA08A902462C480CF054F8AB
:1048500015B0BDEC028BBDE8F08F2C4A404D92F9AB
:10486000001095FBF3F54FF47A7202FB01F292FB14
:10487000F3F3ED1A6D005B001CB22DB24FF6FF771B
:104880002B462146009755221C4809F07FFC2B46F9
:10489000214600975922194809F078FC62E6314B0D
:1048A000314A1B68314D03EB430B03EB8B0302EBE7
:1048B000030B58462E2111F02BF9CBEB0002594681
:1048C00001322B4811F0EAF9294811F019FA284968
:1048D00002460A480CF010F888E5072216490748F6
:1048E0000CF00AF8237828E70722224903480CF045
:1048F00003F8237824E700BF70980100BC930020E0
:10490000789801006C980100783E00207C3E0020E1
:104910005D3E00206C3E002068970100103E0020A4
:1049200088980020A0980100E8980100B81B022098
:1049300024190220C0980100B0980100F04E002018
:10494000C8980100D898010088980100A898010033
:104950005C980100D34D6210D0980100E0980100EE
:10496000803801009419022000510020283E0020C8
:10497000C88B0020B8980100074B10B501240146F0
:104980001C60064807F07AFD054B1C60FFF76AFCC7
:10499000044B00221A6010BD88E100E0F44E0020B4
:1049A00008E100E0B8930020274B9FED286A93EDC3
:1049B000007ADFED276AB8EEC77A07EE900AC6EEF6
:1049C000075AF8EEE77A67EEA57AF4EEE67AF1EEAA
:1049D00010FA19DC1F4A204BC2ED007AF5EEC07ABE
:1049E0000122F1EE10FA1A602BD49FED1C7AF4EE3E
:1049F000C77AF1EE10FA1BDD194B1A491A4A012049
:104A00000860D361FFF72EBCC7EE065A114B17485A
:104A1000114A0121F2EE027AE5EEA67AC3ED006AB0
:104A2000FDEEE77A17EE903AF0EE667A03601160D9
:104A30009FED0F7A67EE877AFCEEE77A17EE903AF1
:104A4000DBE70023D9E700BF70970020A6552C476D
:104A500000E0AB461C3E002088E100E0A655AC46D5
:104A600080FFFF7F08E100E0208C0020783E0020DE
:104A70004B24BE472DE9F04F2DED048BB34AB44BC8
:104A800092F900201B689FEDB36ADFEDB36A07EE71
:104A9000102A002BB8BFFF33F8EEC77A1B1227EE9F
:104AA000867A07EE903AF8EEE77AADF5077D87EE65
:104AB000278A0EAC4FF4F07220460021C6EEA78A7A
:104AC00010F056FDA54B1A680132012A03921A60B4
:104AD000BDEEC88AFDEEE88A00F01881039B632BC7
:104AE00040F21C81DFF8C082DFF8B8929FED9C6A2B
:104AF0000026C446B346B64627464FF4807A0225C0
:104B0000F2EE046A0FE0042AD8BF4FF4006323DCFE
:104B10000135782D24F8163007F1040727F8023CF8
:104B200006F102062CD03CF8023FB9EC017A03EB07
:104B300083035B0007EE903AF8EEE77AE7EE467AF9
:104B400077EEA67AFDEEE77A17EE902A5245964464
:104B5000D9DD17EE90AAAB465300FF2BA8BFFF2369
:104B6000B2F5407FC0F2D082B2F5106FC0F29682EB
:104B70001B0203F478436FEAD3236FEAC323C7E72A
:104B8000784B9FED797A83FB0E234FEAEE7ECEEBD6
:104B900023139AFBF3F307EE903AF8EEE77A18EE58
:104BA000103AF4EE477AF1EE10FA48BF4FF0000BDE
:104BB0005B4504DA18EE903A5B4500F3FB806B4BE3
:104BC0001D68012D4FF0000A00F02081022D00F039
:104BD0002B8118EE103A5B45654D4EDA18EE903A8F
:104BE0005B454ADD2B78002B40F0FC81614EDFF8FD
:104BF000C08133680D93604B0D9A1A60D8F800306D
:104C0000012B00F0E6815D4E022B337840F0EC8101
:104C1000002B00F0E9815A4807F0E8FE4FF480418C
:104C2000574807F0B1FE574BDFED576A93F9003054
:104C300007EE903AF8EEE77AB7EE006A86EE277A4A
:104C4000B4EEE67AF1EE10FA00F11882F2EE007A94
:104C5000B4EEE77AF1EE10FA00F31382DFED4B6A5F
:104C6000DFED4B7AE7EE267AFCEEE77A17EE902A34
:104C7000434900230A623370B6E12B786BB13D4A99
:104C80003D4913680993099B096812680A924148D3
:104C9000414A0A9E06605B1A1380384E0022337820
:104CA0002A7043B9334A3449126808920968089A4D
:104CB000521A322A09D82D4B1B68022B0FD00DF542
:104CC000077DBDEC048BBDE8F08F2D4A2B700123CE
:104CD00082F842303370254B1B68022BEFD1254BF5
:104CE0002C4A1B6807931268079B2C4D9B1A312B8B
:104CF00040F28D812B68B3F58C7FE0DB5A232B606B
:104D00000DF5077DBDEC048BBDE8F08F244B002131
:104D100003F5007243F8041B9A42FBD1214A224951
:104D2000DFED226A02F5FC7031F8023F92ED007A65
:104D300003EB83035B0007EE903AF8EEE77AA7EE09
:104D4000A67AA2EC017A8242EED1CBE67C3E00202C
:104D50007097002000007A4400409C47A8980020EB
:104D60006666663FBF3CB6226666863F703E0020A0
:104D70009496002044A50220BC1B02206B3E00201C
:104D8000989600205D3E00200AD7233C0000804713
:104D9000EE7CFF3EC48B0020F24E0020143E00202B
:104DA000004F0020084F00205E8C00206F12833AD5
:104DB00074960020C14BC24A02930021D3ED006AD1
:104DC0008A46022338F8020F92ED007A07EE900A25
:104DD000F8EEE77A77EE877AF4EEE67AF1EE10FAFB
:104DE000E2EC017A03DDF0EE676A9A4601210133B5
:104DF000782BE7D1002940F09E81B24A1388013315
:104E00001380B14B1D68012D7FF4E0AEAF4B1B68E2
:104E1000022B00F0EE80039BDB073FF5DAAEFEF7D6
:104E2000A1FAA94B1D68D1E6A64E3388322B7FF636
:104E3000D0AE00202D23019000930146F023308056
:104E40002822A34809F01CFB9C4BBAF1000F00F08C
:104E5000F0801A4692ED007A02939E4BDFED9E5A47
:104E6000F7EE007A03EB8A0377EE277A1A1D514694
:104E700032ED016AC6EE276AF4EEE56AF1EE10FA49
:104E800002DD01390229F3D1DFED935A0391524635
:104E9000B3EC016AC6EE276AF4EEE56AF1EE10FAA9
:104EA00040F3A5800132782AF2D100230493DFF881
:104EB0001092DFED8A9A9FED8A9ACDF814B0002601
:104EC000022702E0029B93ED007AD9ED006A804848
:104ED000C6EE877A4FF478430FFA86FB0093594663
:104EE00067EEA97AFDEEE77A17EE905AC5F15508FC
:104EF0000FFA88F82DB242462B4609F037F9BA4529
:104F000007F1010700F0C0800236782FB6B2A9EC95
:104F1000019AD7D1734B029D1B6895ED007A9FEDE6
:104F2000729A6B48DDF814B0002BB8BFFF331B1228
:104F300007EE903AF6EE006A27EE267AF8EEE77A68
:104F40002D22822185ED007A27EE899A0AF0C4FF8E
:104F50004DF29A615E480AF0DBFFDDED037A5C48B2
:104F6000F8EEE77A67EE897AFDEEE77A17EE901AA7
:104F70000BF04CFD01225D4955480BF0BDFC4FF68E
:104F8000E07153480AF0C4FF07EE90AAF8EEE77A02
:104F90004F4867EE897AFDEEE77A17EE901A0BF02C
:104FA00035FD012251494A480BF0A6FC4DF29A61A9
:104FB00047480AF0ADFFDDED047A4548F8EEE77AA0
:104FC00067EE897AFDEEE77A17EE901A0BF01EFD78
:104FD000FFE53368464F0C930C9A3B68D31AB3F540
:104FE0007A7F2DD8434E337801222A7059E60492F5
:104FF0005DE7344A404B1288A3FB02139B0803EB86
:105000008303D31A9BB2002B7FF4E3AD07E701942F
:105010000123B5F900202E4800930021F02309F068
:10502000C5FE29882A4809F01FFE2B6801332B6032
:1050300061E60293039593ED007ACDF810A036E770
:10504000284B2E4A1B68002BB8BFFF331B120BFBEB
:1050500003F382FB0312DB17C3EB62134FF4FA7204
:1050600002FB03F3264A18461360FFF79DFC3368E2
:105070000B930B9AD8F800303A60C4E540F28F22C7
:10508000F6E54FF40022F3E54FF6E07000902B4672
:10509000424659460E4809F069F835E7194981FB3F
:1050A0000210D217C2EB60021B02D21003F4784345
:1050B00042F4FC6213439BB22AE500BFB893002080
:1050C000C0190220A44E0020703E002074960020DB
:1050D000BC930020B8190220CDCCCC3D0000344256
:1050E00000000000709700206F12833A9C98010026
:1050F0007C9600206B3E0020CDCCCCCCD34D6210F2
:10510000783E0020398EE3380D491B0202930D4B87
:1051100081FB0210D117401A83FB0232029BC000B0
:1051200003F4784300F4FC60C1EB62020343C2F372
:10513000C4021343ECE4029BC3ED006A5DE600BFCA
:1051400056555555398EE33838B5104B1049114A2C
:10515000114D00EB400003EB8003012498685B686D
:105160000B6028601460FEF7C3F8C8200CF028FA22
:105170000A4B1868FFF718FC094B14201C600CF050
:105180001FFABDE83840FFF76DB800BF689701000F
:10519000A498002088E100E070970020783E00206D
:1051A00008E100E01F4B204A1B6801210B2B10B5C2
:1051B0000446117026D064200CF002FA0D2C204613
:1051C000A8BF0D2020EAE070FFF7BEFF174C184B78
:1051D0001A682368002B02F1FF3220DB9342A8BF3C
:1051E000134603EB43021349236003EB8203194484
:1051F00011480D2210F0F2FD0F491048BDE8104093
:1052000007F0C2BF0E4A0F4B10684FF480310022E6
:10521000022899611A6204BFD9619A61CBE7002321
:10522000DFE700BF8498002024190220941902208F
:10523000E096002000510020E4960020281902206A
:10524000749600203897002038B50B4C23782BB18A
:105250000A4890F8403003F0FF0503B138BD07F06D
:105260006BFF074B25701B78002BF7D0054B186898
:10527000BDE83840FFF796BF241902202819022004
:1052800038960020203E00202DE9F04196B0A8B9C4
:10529000A44AA549A54B12680D681B680D21C2B927
:1052A000EB1848BF01F1FF338B426DDB0023002870
:1052B00075D19E4A136016B0BDE8F0810128FAD17D
:1052C0009B4A9C499C4B12680D681B680421002A6C
:1052D000E6D0012AEFD1002DEDD00446002B65D198
:1052E00096490A782A4452B2002AC0F2F9805A2A12
:1052F0001346A8BF5A2307EE903A9FED916ADFED5F
:10530000916AB8EEE77ADFED907A27EE067AE7EE5B
:10531000267AFCEEE77ACDED037A8C4A0B700126F3
:10532000166003998A4807F019F98A4B1E60DFF866
:10533000FC81D8F80030072B5BD0052B48D00A2B16
:10534000B9D1784B1B68012B00F0B8807A4B1B68F1
:10535000032BB0D1764B1B68012BACD17E4B1B7855
:10536000022BA8D17D4C734B22681B681344052B7C
:10537000A8BF052323EAE37318462360FFF7E4FE82
:10538000774B22681A6096E7764A1278002A8ED107
:10539000A3F10A02012A98BF0023002889D001281E
:1053A00089D1654A136016B0BDE8F081032B75D131
:1053B0006A4E33682B440D2BA8BF0D2323EAE373F9
:1053C00018463360FFF7C0FE674B32681A60AEE7DD
:1053D000544B1B68012B7FF46EAF534B63491A6823
:1053E0000868634B02441340002BC0F283800B60BB
:1053F00061E7002C7FF45FAF5E4F5F4E3B68069322
:10540000069B32689B1AB3F5FA7F08D2F92B76D83F
:10541000632B8BBF0A23C5EB05135D439D000AF088
:10542000AFFF08A928440AF055FE08A80AF02AFF91
:105430000CF09AF8514C08A80AF024FF0AF0F0FF8B
:105440002046322250210AF047FD00221423204634
:10545000019200933222A023502109F011F8484A0A
:10546000484B1168A3610DA80AF056FD0DA90EC99D
:105470000AA8019100920921434A10F0D5FA0AA81E
:1054800010F03EFC0AA9024620460BF035FA3B68B4
:105490000793079AD8F8003032604EE7082B31D1D5
:1054A0003A4A13782B445BB2042B04DD1E2BA8BFB1
:1054B0001E2313703BE70523137038E734491A4A5B
:1054C0000B6812689B180DD4324A1268934202F19D
:1054D000FF3200DB00239342A8BF13460B6035E781
:1054E00003931AE72B4B1B685A1E48BF0023F5D4C1
:1054F0001346F0E7013B63F00103013377E705EB67
:1055000085058CE7092B49D1234A13782B445BB2DC
:105510000E2B04DD232BA8BF2323137007E70F23D3
:10552000137004E7409C022080980020849800209B
:1055300078960020984E0020A04E0020743E002057
:105540000AD7233C00000143EE7CFF3E88E100E0E7
:10555000F44E002008E100E0B84E00206C3E002030
:10556000203E0020F14E0020B493002088980020B7
:105570000100008044A50220EC8B0020BC93002099
:1055800000D00340C8D60100FC9801005D3E002019
:1055900094190220E09600207C3E00200C2B0AD1BA
:1055A0003F490B782B445BB2002B60DD232BA8BF57
:1055B00023230B70BBE6012B18D13A4A13782B44F6
:1055C0005BB2002B56DB3F2BA8BF3F23184613705E
:1055D000FFF7D2F9344A354B00201060002103F563
:1055E000007243F8041B9342FBD1A0E6022B32D198
:1055F0002F4F304E3B680493049B32689B1AB3F5DF
:10560000FA7F31D2F92B47D8642B41F2883328BF77
:105610004FF4FA632849294A0868126803FB050316
:1056200041F6573083421CDD254880FB02E0D2431F
:10563000D20FC2EBE0124FF47A7000FB02F29342F9
:10564000A8BF134618460B60FFF7AEF93B680593F9
:10565000059B33606BE6042B0ED1134B00221A60BE
:1056600065E641F65833EDE74FF4FA73D2E7134697
:105670000B705CE60023A9E7062B7FF458AE1149B6
:10568000114A0B780133DBB2A2FB0302520802EB92
:1056900042029B1A0B704AE64FF47A73BAE700BFD6
:1056A000103E0020183E0020A8980020004F002047
:1056B00044A50220EC8B0020783E0020709700204B
:1056C000D34D6210B81B0220ABAAAAAAF0B5254D93
:1056D000254F264E83B0FEF75BF8284600210024B4
:1056E00009F0C2FA4FF4A0732246284621460093DF
:1056F0000194F02308F0C4FE28464DF29A610AF0A6
:1057000007FC1B4BAB612146284664220AF0E4FBF0
:105710000922184928460BF0EFF8384610F0F0FA45
:105720003946024628460BF0E7F8134BAB61FEF70B
:1057300099FD1248124D07F059F9124A12491348BF
:10574000134B17688C6104604FF480313046DC6184
:10575000996114602F6007F0F9FD012386F8F63097
:1057600003B0F0BDBC930020E496002074970020A5
:10577000E4D601000C990100ACD6010098960020F7
:105780003C9C022074960020C01B0220E093002065
:1057900038970020F8B5744A137C012B7BD972B678
:1057A000D36862B6714E724D3268002BB8BF0333B6
:1057B0009C10944228DD01232B600120FFF764FD3B
:1057C0006C4A3460137C012B2BD972B6D36862B655
:1057D000694E6A4F3268002BB8BF03339C10944265
:1057E0000DDD01233B600020FFF74EFD2B68346088
:1057F0000BB93B686BB1BDE8F840FEF733BD47DA43
:105800004FF0FF333B60EEE704DA4FF0FF332B60DD
:10581000D3E7F8BD574A346000232B60137C012B7B
:10582000D3D872B61368506819780478507A137A0E
:10583000044201EA03016FD0937A03F0030309B134
:1058400043F0040343F008039910013B91720D2BC0
:10585000BCD801A151F823F061590000595900004A
:105860005159000059590000CD5700004959000016
:10587000615900006159000049590000CD570000EE
:105880005959000051590000595900006159000050
:1058900000233B60AAE772B6136850681978047851
:1058A000507A137A044201EA03012DD0937A03F06F
:1058B000030309B143F0040343F008039910013BCB
:1058C00091720D2B3FF66CAF01A151F823F000BF90
:1058D0004159000039590000315900003959000080
:1058E000A15700002959000041590000415900000A
:1058F00029590000A1570000395900003159000012
:105900003959000041590000937A03F0030300293C
:10591000D4D043F00403D1E7937A03F003030029C2
:1059200092D043F004038FE7D368023BD36038E79B
:10593000D3680233D36034E7D368013BD36030E7E8
:10594000D3680133D3602CE7D368023BD3603EE7D2
:10595000D3680233D3603AE7D368013BD36036E7BC
:10596000D3680133D36032E780960020349700205B
:10597000984E0020DC4E0020088C002080980020EB
:1059800070B58A4C25784DB1894807F06BFE884880
:1059900007F08EFE002840F08B8070BD854807F030
:1059A00061FE854807F05EFE814807F05BFE834894
:1059B00007F058FE814807F07BFE70B1804B1A78E3
:1059C000002A7CD17F4A13680133042BC8BF00230F
:1059D0001360FDF745FDFEF745FC754807F068FECE
:1059E000F8B1794D2978B1B9784E794B32680132E6
:1059F00083FB0203A3EBE27303EB4303D31A022BF3
:105A0000336000F0A380012B00F0978000217148E3
:105A100008F0F4FE2978022958D001296BD0FEF74E
:105A200021FC644807F044FE002831D06A4C6B4DDD
:105A300023682A68B3FA83F35B09062A236050D0EF
:105A4000052A69D0664B1B7803B32B680A2B03D158
:105A50002668012E00F08780624D2868FFF774FBEE
:105A6000614A624B10681860FEF79EFF604B614907
:105A70004FF4803200201862C8618A61DA619A614D
:105A800023681BB9504A1178022964D0FEF7EAFB5B
:105A9000494807F00DFE00283FF47FAF564A1368CF
:105AA000B3FA83F35B09BDE870401360FEF7DABB1D
:105AB000FDF736FFFEF7D6FB0023237070BD3C4890
:105AC0001D7007F0F5FD0028ABD08AE74B4E337808
:105AD000DBB94B4A012310683370FFF763FB297869
