:1000000000000320D1010000792501003125010005
:100010003125010031250100312501003125010084
:10002000312501003125010031250100792501002C
:1000300079250100312501006D3A0100713B010075
:100040007925010079250100792501007925010034
:100050007925010079250100792501007925010024
:100060007925010079250100792501007925010014
:100070007925010079250100792501007925010004
:1000800079250100792501007925010079250100F4
:1000900079250100792501007925010079250100E4
:1000A000ED540100F9540100792501007925010082
:1000B000792501007925010079250100B93B01006E
:1000C00079250100E53C010079250100113E010080
:1000D00079250100093F01007925010079250100FA
:1000E0007925010079250100792501007925010094
:1000F0007925010079250100792501007925010084
:100100007925010079250100792501007925010073
:1001100079250100052C01007925010079250100D0
:100120007925010079250100792501007925010053
:100130007925010079250100792501007925010043
:10014000591A0100792501000140010079250100BB
:100150007925010079250100792501007925010023
:100160007925010079250100055501007925010057
:100170007925010079250100792501007925010003
:1001800079250100792501007925010079250100F3
:100190007925010079250100F94001007925010048
:1001A00079250100792501007925010079250100D3
:1001B00079250100792501007925010079250100C3
:1001C00079250100792501007925010079250100B3
:1001D0005C4B4CF2205210B51A804DF628121A8052
:1001E00000BF00BF12F0CCF9574B4FF030621A60DD
:1001F000564A9A60564ADA60564B4FF470021A60BB
:10020000554B564A1A60564A136813F4807304D14A
:1002100054490B604FF4A8531360534B1A781107DD
:1002200003D51A7842F008021A70504B5049AA229E
:100230001A70504A504B8B4204D252F8040F43F8C4
:10024000040BF8E74D4B4E4900228B4202D243F893
:10025000042BFAE74B494C4A002352F8230041F89B
:1002600023000133742BF8D1484B494A802103F80D
:10027000011B9342FBD1474B424A1A60464B8A22EC
:100280001A70A3F5805324225A70A0221A709A790A
:100290009207FCD59A79D406FCD4404A937903F0AE
:1002A0000C03082BFAD13E4B60221A7002331A78E5
:1002B000802AFCD1394B01221A715D225A719A7938
:1002C0009006FCD59979354A4906FBD5354B364918
:1002D00019600021596020231370937903F00C03F7
:1002E0000C2BFAD1314B324A1A60324B324A1A6027
:1002F00000225A60072243F8042C304AC3F80C2D20
:1003000062B612F023FB174B1B68DA0705D52C48A1
:1003100012F09EFA2B4B2C4A1A602C4B1B785B0672
:1003200009D5284C284B22689A4204D1244812F05F
:100330008FFA0023236015F0EFFE12F027F912F078
:1003400055F8FEE70E20054030800440823F04004F
:100350000100002B88ED00E0002008E0030000858C
:1003600010D0034014D0034002D0074000E0074003
:10037000184C0020DCDE0200303D0020204C002024
:10038000D0A90220003800200000000000E400E0B6
:1003900064E400E008ED00E0005006400040064044
:1003A00001E007404480044000000602048004404D
:1003B000C010070014E000E01FBF02000000202072
:1003C0003BE15A5D1CE00340A5C3945A00F007408E
:1003D000FFFFFFFFFFFFFFFFFFFFFFFFFFFFFFFF2D
:1003E000FFFFFFFFFFFFFFFFFFFFFFFFFFFFFFFF1D
:1003F000FFFFFFFFFFFFFFFFFFFFFFFFFFFFFFFF0D
:10040000FFFFFFFFFFFFFFFFFFFFFFFFDEF9FFFF23
:1004100010B5054C237833B9044B13B10448AFF33E
:1004200000800123237010BD204C0020000000003C
:10043000D8DE0200084B10B51BB108490848AFF3DD
:1004400000800848036803B910BD074B002BFBD0A0
:10045000BDE81040184700BF00000000244C0020F9
:10046000D8DE0200184C00200000000012F0EAB9AB
:1004700010B5044B044640F8183B06F0CDF9204671
:1004800010BD00BFDCB1010010B5044611F09CFAAC
:10049000204610BD214B10B4D3F8C020136850681B
:1004A00019780478507A137A044201EA03011BD0C8
:1004B000937A03F0030309B143F0040343F0080304
:1004C0009910013B91720D2B0BD8DFE803F0210747
:1004D0001B070A152121150A071B0721D368013BB9
:1004E000D3605DF8044B7047937A03F0030300294F
:1004F000E6D043F00403E3E7D3685DF8044B023B26
:10050000D3607047D3685DF8044B0233D360704703
:10051000D3685DF8044B0133D3607047309F0220ED
:10052000214B10B4D3F8C4201368506819780478AC
:10053000507A137A044201EA03011BD0937A03F044
:10054000030309B143F0040343F008039910013B8E
:1005500091720D2B0BD8DFE803F021071B070A155A
:100560002121150A071B0721D368013BD3605DF8E1
:10057000044B7047937A03F003030029E6D043F05D
:100580000403E3E7D3685DF8044B023BD360704794
:10059000D3685DF8044B0233D3607047D3685DF8CD
:1005A000044B0133D3607047309F0220214B10B4BD
:1005B000D3F8C8201368506819780478507A137AF1
:1005C000044201EA03011BD0937A03F0030309B14B
:1005D00043F0040343F008039910013B91720D2B83
:1005E0000BD8DFE803F021071B070A152121150AA4
:1005F000071B0721D368013BD3605DF8044B7047AC
:10060000937A03F003030029E6D043F00403E3E701
:10061000D3685DF8044B023BD3607047D3685DF844
:10062000044B0233D3607047D3685DF8044B013349
:10063000D3607047309F0220214B10B4D3F8CC20F8
:100640001368506819780478507A137A044201EAE2
:1006500003011BD0937A03F0030309B143F00403B1
:1006600043F008039910013B91720D2B0BD8DFE882
:1006700003F021071B070A152121150A071B072173
:10068000D368013BD3605DF8044B7047937A03F065
:1006900003030029E6D043F00403E3E7D3685DF8E1
:1006A000044B023BD3607047D3685DF8044B0233C0
:1006B000D3607047D3685DF8044B0133D360704753
:1006C000309F0220214B10B4D3F8D020136850681B
:1006D00019780478507A137A044201EA03011BD096
:1006E000937A03F0030309B143F0040343F00803D2
:1006F0009910013B91720D2B0BD8DFE803F0210715
:100700001B070A152121150A071B0721D368013B86
:10071000D3605DF8044B7047937A03F0030300291C
:10072000E6D043F00403E3E7D3685DF8044B023BF3
:10073000D3607047D3685DF8044B0233D3607047D1
:10074000D3685DF8044B0133D3607047309F0220BB
:10075000214B10B4D3F8D42013685068197804786A
:10076000507A137A044201EA03011BD0937A03F012
:10077000030309B143F0040343F008039910013B5C
:1007800091720D2B0BD8DFE803F021071B070A1528
:100790002121150A071B0721D368013BD3605DF8AF
:1007A000044B7047937A03F003030029E6D043F02B
:1007B0000403E3E7D3685DF8044B023BD360704762
:1007C000D3685DF8044B0233D3607047D3685DF89B
:1007D000044B0133D3607047309F0220214B10B48B
:1007E000D3F8D8201368506819780478507A137AAF
:1007F000044201EA03011BD0937A03F0030309B119
:1008000043F0040343F008039910013B91720D2B50
:100810000BD8DFE803F021071B070A152121150A71
:10082000071B0721D368013BD3605DF8044B704779
:10083000937A03F003030029E6D043F00403E3E7CF
:10084000D3685DF8044B023BD3607047D3685DF812
:10085000044B0233D3607047D3685DF8044B013317
:10086000D3607047309F0220214B10B4D3F8DC20B6
:100870001368506819780478507A137A044201EAB0
:1008800003011BD0937A03F0030309B143F004037F
:1008900043F008039910013B91720D2B0BD8DFE850
:1008A00003F021071B070A152121150A071B072141
:1008B000D368013BD3605DF8044B7047937A03F033
:1008C00003030029E6D043F00403E3E7D3685DF8AF
:1008D000044B023BD3607047D3685DF8044B02338E
:1008E000D3607047D3685DF8044B0133D360704721
:1008F000309F0220214B10B4D3F8E02013685068D9
:1009000019780478507A137A044201EA03011BD063
:10091000937A03F0030309B143F0040343F008039F
:100920009910013B91720D2B0BD8DFE803F02107E2
:100930001B070A152121150A071B0721D368013B54
:10094000D3605DF8044B7047937A03F003030029EA
:10095000E6D043F00403E3E7D3685DF8044B023BC1
:10096000D3607047D3685DF8044B0233D36070479F
:10097000D3685DF8044B0133D3607047309F022089
:10098000214B10B4D3F8E420136850681978047828
:10099000507A137A044201EA03011BD0937A03F0E0
:1009A000030309B143F0040343F008039910013B2A
:1009B00091720D2B0BD8DFE803F021071B070A15F6
:1009C0002121150A071B0721D368013BD3605DF87D
:1009D000044B7047937A03F003030029E6D043F0F9
:1009E0000403E3E7D3685DF8044B023BD360704730
:1009F000D3685DF8044B0233D3607047D3685DF869
:100A0000044B0133D3607047309F0220214B10B458
:100A1000D3F8E8201368506819780478507A137A6C
:100A2000044201EA03011BD0937A03F0030309B1E6
:100A300043F0040343F008039910013B91720D2B1E
:100A40000BD8DFE803F021071B070A152121150A3F
:100A5000071B0721D368013BD3605DF8044B704747
:100A6000937A03F003030029E6D043F00403E3E79D
:100A7000D3685DF8044B023BD3607047D3685DF8E0
:100A8000044B0233D3607047D3685DF8044B0133E5
:100A9000D3607047309F0220214B10B4D3F8EC2074
:100AA0001368506819780478507A137A044201EA7E
:100AB00003011BD0937A03F0030309B143F004034D
:100AC00043F008039910013B91720D2B0BD8DFE81E
:100AD00003F021071B070A152121150A071B07210F
:100AE000D368013BD3605DF8044B7047937A03F001
:100AF00003030029E6D043F00403E3E7D3685DF87D
:100B0000044B023BD3607047D3685DF8044B02335B
:100B1000D3607047D3685DF8044B0133D3607047EE
:100B2000309F0220214B10B41A681368506819785E
:100B30000478507A137A044201EA03011BD0937AB5
:100B400003F0030309B143F0040343F008039910D1
:100B5000013B91720D2B0BD8DFE803F021071B0737
:100B60000A152121150A071B0721D368013BD36011
:100B70005DF8044B7047937A03F003030029E6D035
:100B800043F00403E3E7D3685DF8044B023BD36012
:100B90007047D3685DF8044B0233D3607047D36865
:100BA0005DF8044B0133D360704700BF309F0220D3
:100BB000214B10B45A681368506819780478507A39
:100BC000137A044201EA03011BD0937A03F0030372
:100BD00009B143F0040343F008039910013B9172FB
:100BE0000D2B0BD8DFE803F021071B070A15212185
:100BF000150A071B0721D368013BD3605DF8044B3E
:100C00007047937A03F003030029E6D043F004030E
:100C1000E3E7D3685DF8044B023BD3607047D368C9
:100C20005DF8044B0233D3607047D3685DF8044B22
:100C30000133D360704700BF309F0220214B10B4B6
:100C40009A681368506819780478507A137A0442C5
:100C500001EA03011BD0937A03F0030309B143F0C7
:100C6000040343F008039910013B91720D2B0BD83C
:100C7000DFE803F021071B070A152121150A071BCE
:100C80000721D368013BD3605DF8044B7047937A2A
:100C900003F003030029E6D043F00403E3E7D3683D
:100CA0005DF8044B023BD3607047D3685DF8044B9A
:100CB0000233D3607047D3685DF8044B0133D360CF
:100CC000704700BF309F0220214B10B4DA681368D0
:100CD000506819780478507A137A044201EA0301C3
:100CE0001BD0937A03F0030309B143F0040343F0EC
:100CF00008039910013B91720D2B0BD8DFE803F02C
:100D000021071B070A152121150A071B0721D36894
:100D1000013BD3605DF8044B7047937A03F0030303
:100D20000029E6D043F00403E3E7D3685DF8044B01
:100D3000023BD3607047D3685DF8044B0233D36045
:100D40007047D3685DF8044B0133D360704700BF30
:100D5000309F0220214B10B41A691368506819782B
:100D60000478507A137A044201EA03011BD0937A83
:100D700003F0030309B143F0040343F0080399109F
:100D8000013B91720D2B0BD8DFE803F021071B0705
:100D90000A152121150A071B0721D368013BD360DF
:100DA0005DF8044B7047937A03F003030029E6D003
:100DB00043F00403E3E7D3685DF8044B023BD360E0
:100DC0007047D3685DF8044B0233D3607047D36833
:100DD0005DF8044B0133D360704700BF309F0220A1
:100DE000214B10B45A691368506819780478507A06
:100DF000137A044201EA03011BD0937A03F0030340
:100E000009B143F0040343F008039910013B9172C8
:100E10000D2B0BD8DFE803F021071B070A15212152
:100E2000150A071B0721D368013BD3605DF8044B0B
:100E30007047937A03F003030029E6D043F00403DC
:100E4000E3E7D3685DF8044B023BD3607047D36897
:100E50005DF8044B0233D3607047D3685DF8044BF0
:100E60000133D360704700BF309F0220214B10B484
:100E70009A691368506819780478507A137A044292
:100E800001EA03011BD0937A03F0030309B143F095
:100E9000040343F008039910013B91720D2B0BD80A
:100EA000DFE803F021071B070A152121150A071B9C
:100EB0000721D368013BD3605DF8044B7047937AF8
:100EC00003F003030029E6D043F00403E3E7D3680B
:100ED0005DF8044B023BD3607047D3685DF8044B68
:100EE0000233D3607047D3685DF8044B0133D3609D
:100EF000704700BF309F0220214B10B4DA6913689D
:100F0000506819780478507A137A044201EA030190
:100F10001BD0937A03F0030309B143F0040343F0B9
:100F200008039910013B91720D2B0BD8DFE803F0F9
:100F300021071B070A152121150A071B0721D36862
:100F4000013BD3605DF8044B7047937A03F00303D1
:100F50000029E6D043F00403E3E7D3685DF8044BCF
:100F6000023BD3607047D3685DF8044B0233D36013
:100F70007047D3685DF8044B0133D360704700BFFE
:100F8000309F0220214B10B41A6A136850681978F8
:100F90000478507A137A044201EA03011BD0937A51
:100FA00003F0030309B143F0040343F0080399106D
:100FB000013B91720D2B0BD8DFE803F021071B07D3
:100FC0000A152121150A071B0721D368013BD360AD
:100FD0005DF8044B7047937A03F003030029E6D0D1
:100FE00043F00403E3E7D3685DF8044B023BD360AE
:100FF0007047D3685DF8044B0233D3607047D36801
:101000005DF8044B0133D360704700BF309F02206E
:10101000214B10B45A6A1368506819780478507AD2
:10102000137A044201EA03011BD0937A03F003030D
:1010300009B143F0040343F008039910013B917296
:101040000D2B0BD8DFE803F021071B070A15212120
:10105000150A071B0721D368013BD3605DF8044BD9
:101060007047937A03F003030029E6D043F00403AA
:10107000E3E7D3685DF8044B023BD3607047D36865
:101080005DF8044B0233D3607047D3685DF8044BBE
:101090000133D360704700BF309F0220214B10B452
:1010A0009A6A1368506819780478507A137A04425F
:1010B00001EA03011BD0937A03F0030309B143F063
:1010C000040343F008039910013B91720D2B0BD8D8
:1010D000DFE803F021071B070A152121150A071B6A
:1010E0000721D368013BD3605DF8044B7047937AC6
:1010F00003F003030029E6D043F00403E3E7D368D9
:101100005DF8044B023BD3607047D3685DF8044B35
:101110000233D3607047D3685DF8044B0133D3606A
:10112000704700BF309F0220214B10B4DA6A136869
:10113000506819780478507A137A044201EA03015E
:101140001BD0937A03F0030309B143F0040343F087
:1011500008039910013B91720D2B0BD8DFE803F0C7
:1011600021071B070A152121150A071B0721D36830
:10117000013BD3605DF8044B7047937A03F003039F
:101180000029E6D043F00403E3E7D3685DF8044B9D
:10119000023BD3607047D3685DF8044B0233D360E1
:1011A0007047D3685DF8044B0133D360704700BFCC
:1011B000309F0220214B10B41A6B136850681978C5
:1011C0000478507A137A044201EA03011BD0937A1F
:1011D00003F0030309B143F0040343F0080399103B
:1011E000013B91720D2B0BD8DFE803F021071B07A1
:1011F0000A152121150A071B0721D368013BD3607B
:101200005DF8044B7047937A03F003030029E6D09E
:1012100043F00403E3E7D3685DF8044B023BD3607B
:101220007047D3685DF8044B0233D3607047D368CE
:101230005DF8044B0133D360704700BF309F02203C
:10124000214B10B45A6B1368506819780478507A9F
:10125000137A044201EA03011BD0937A03F00303DB
:1012600009B143F0040343F008039910013B917264
:101270000D2B0BD8DFE803F021071B070A152121EE
:10128000150A071B0721D368013BD3605DF8044BA7
:101290007047937A03F003030029E6D043F0040378
:1012A000E3E7D3685DF8044B023BD3607047D36833
:1012B0005DF8044B0233D3607047D3685DF8044B8C
:1012C0000133D360704700BF309F0220214B10B420
:1012D0009A6B1368506819780478507A137A04422C
:1012E00001EA03011BD0937A03F0030309B143F031
:1012F000040343F008039910013B91720D2B0BD8A6
:10130000DFE803F021071B070A152121150A071B37
:101310000721D368013BD3605DF8044B7047937A93
:1013200003F003030029E6D043F00403E3E7D368A6
:101330005DF8044B023BD3607047D3685DF8044B03
:101340000233D3607047D3685DF8044B0133D36038
:10135000704700BF309F0220214B10B4DA6B136836
:10136000506819780478507A137A044201EA03012C
:101370001BD0937A03F0030309B143F0040343F055
:1013800008039910013B91720D2B0BD8DFE803F095
:1013900021071B070A152121150A071B0721D368FE
:1013A000013BD3605DF8044B7047937A03F003036D
:1013B0000029E6D043F00403E3E7D3685DF8044B6B
:1013C000023BD3607047D3685DF8044B0233D360AF
:1013D0007047D3685DF8044B0133D360704700BF9A
:1013E000309F0220214B10B41A6C13685068197892
:1013F0000478507A137A044201EA03011BD0937AED
:1014000003F0030309B143F0040343F00803991008
:10141000013B91720D2B0BD8DFE803F021071B076E
:101420000A152121150A071B0721D368013BD36048
:101430005DF8044B7047937A03F003030029E6D06C
:1014400043F00403E3E7D3685DF8044B023BD36049
:101450007047D3685DF8044B0233D3607047D3689C
:101460005DF8044B0133D360704700BF309F02200A
:10147000214B10B45A6C1368506819780478507A6C
:10148000137A044201EA03011BD0937A03F00303A9
:1014900009B143F0040343F008039910013B917232
:1014A0000D2B0BD8DFE803F021071B070A152121BC
:1014B000150A071B0721D368013BD3605DF8044B75
:1014C0007047937A03F003030029E6D043F0040346
:1014D000E3E7D3685DF8044B023BD3607047D36801
:1014E0005DF8044B0233D3607047D3685DF8044B5A
:1014F0000133D360704700BF309F0220214B10B4EE
:101500009A6C1368506819780478507A137A0442F8
:1015100001EA03011BD0937A03F0030309B143F0FE
:10152000040343F008039910013B91720D2B0BD873
:10153000DFE803F021071B070A152121150A071B05
:101540000721D368013BD3605DF8044B7047937A61
:1015500003F003030029E6D043F00403E3E7D36874
:101560005DF8044B023BD3607047D3685DF8044BD1
:101570000233D3607047D3685DF8044B0133D36006
:10158000704700BF309F0220214B10B4DA6C136803
:10159000506819780478507A137A044201EA0301FA
:1015A0001BD0937A03F0030309B143F0040343F023
:1015B00008039910013B91720D2B0BD8DFE803F063
:1015C00021071B070A152121150A071B0721D368CC
:1015D000013BD3605DF8044B7047937A03F003033B
:1015E0000029E6D043F00403E3E7D3685DF8044B39
:1015F000023BD3607047D3685DF8044B0233D3607D
:101600007047D3685DF8044B0133D360704700BF67
:10161000309F0220214B10B41A6D1368506819785E
:101620000478507A137A044201EA03011BD0937ABA
:1016300003F0030309B143F0040343F008039910D6
:10164000013B91720D2B0BD8DFE803F021071B073C
:101650000A152121150A071B0721D368013BD36016
:101660005DF8044B7047937A03F003030029E6D03A
:1016700043F00403E3E7D3685DF8044B023BD36017
:101680007047D3685DF8044B0233D3607047D3686A
:101690005DF8044B0133D360704700BF309F0220D8
:1016A000214B10B45A6D1368506819780478507A39
:1016B000137A044201EA03011BD0937A03F0030377
:1016C00009B143F0040343F008039910013B917200
:1016D0000D2B0BD8DFE803F021071B070A1521218A
:1016E000150A071B0721D368013BD3605DF8044B43
:1016F0007047937A03F003030029E6D043F0040314
:10170000E3E7D3685DF8044B023BD3607047D368CE
:101710005DF8044B0233D3607047D3685DF8044B27
:101720000133D360704700BF309F0220214B10B4BB
:101730009A6D1368506819780478507A137A0442C5
:1017400001EA03011BD0937A03F0030309B143F0CC
:10175000040343F008039910013B91720D2B0BD841
:10176000DFE803F021071B070A152121150A071BD3
:101770000721D368013BD3605DF8044B7047937A2F
:1017800003F003030029E6D043F00403E3E7D36842
:101790005DF8044B023BD3607047D3685DF8044B9F
:1017A0000233D3607047D3685DF8044B0133D360D4
:1017B000704700BF309F0220214B10B4DA6D1368D0
:1017C000506819780478507A137A044201EA0301C8
:1017D0001BD0937A03F0030309B143F0040343F0F1
:1017E00008039910013B91720D2B0BD8DFE803F031
:1017F00021071B070A152121150A071B0721D3689A
:10180000013BD3605DF8044B7047937A03F0030308
:101810000029E6D043F00403E3E7D3685DF8044B06
:10182000023BD3607047D3685DF8044B0233D3604A
:101830007047D3685DF8044B0133D360704700BF35
:10184000309F0220214B10B41A6E1368506819782B
:101850000478507A137A044201EA03011BD0937A88
:1018600003F0030309B143F0040343F008039910A4
:10187000013B91720D2B0BD8DFE803F021071B070A
:101880000A152121150A071B0721D368013BD360E4
:101890005DF8044B7047937A03F003030029E6D008
:1018A00043F00403E3E7D3685DF8044B023BD360E5
:1018B0007047D3685DF8044B0233D3607047D36838
:1018C0005DF8044B0133D360704700BF309F0220A6
:1018D000214B10B45A6E1368506819780478507A06
:1018E000137A044201EA03011BD0937A03F0030345
:1018F00009B143F0040343F008039910013B9172CE
:101900000D2B0BD8DFE803F021071B070A15212157
:10191000150A071B0721D368013BD3605DF8044B10
:101920007047937A03F003030029E6D043F00403E1
:10193000E3E7D3685DF8044B023BD3607047D3689C
:101940005DF8044B0233D3607047D3685DF8044BF5
:101950000133D360704700BF309F0220214B10B489
:101960009A6E1368506819780478507A137A044292
:1019700001EA03011BD0937A03F0030309B143F09A
:10198000040343F008039910013B91720D2B0BD80F
:10199000DFE803F021071B070A152121150A071BA1
:1019A0000721D368013BD3605DF8044B7047937AFD
:1019B00003F003030029E6D043F00403E3E7D36810
:1019C0005DF8044B023BD3607047D3685DF8044B6D
:1019D0000233D3607047D3685DF8044B0133D360A2
:1019E000704700BF309F0220214B10B4DA6E13689D
:1019F000506819780478507A137A044201EA030196
:101A00001BD0937A03F0030309B143F0040343F0BE
:101A100008039910013B91720D2B0BD8DFE803F0FE
:101A200021071B070A152121150A071B0721D36867
:101A3000013BD3605DF8044B7047937A03F00303D6
:101A40000029E6D043F00403E3E7D3685DF8044BD4
:101A5000023BD3607047D3685DF8044B0233D36018
:101A60007047D3685DF8044B0133D360704700BF03
:101A7000309F0220214B10B41A6F136850681978F8
:101A80000478507A137A044201EA03011BD0937A56
:101A900003F0030309B143F0040343F00803991072
:101AA000013B91720D2B0BD8DFE803F021071B07D8
:101AB0000A152121150A071B0721D368013BD360B2
:101AC0005DF8044B7047937A03F003030029E6D0D6
:101AD00043F00403E3E7D3685DF8044B023BD360B3
:101AE0007047D3685DF8044B0233D3607047D36806
:101AF0005DF8044B0133D360704700BF309F022074
:101B0000214B10B45A6F1368506819780478507AD2
:101B1000137A044201EA03011BD0937A03F0030312
:101B200009B143F0040343F008039910013B91729B
:101B30000D2B0BD8DFE803F021071B070A15212125
:101B4000150A071B0721D368013BD3605DF8044BDE
:101B50007047937A03F003030029E6D043F00403AF
:101B6000E3E7D3685DF8044B023BD3607047D3686A
:101B70005DF8044B0233D3607047D3685DF8044BC3
:101B80000133D360704700BF309F0220214B10B457
:101B90009A6F1368506819780478507A137A04425F
:101BA00001EA03011BD0937A03F0030309B143F068
:101BB000040343F008039910013B91720D2B0BD8DD
:101BC000DFE803F021071B070A152121150A071B6F
:101BD0000721D368013BD3605DF8044B7047937ACB
:101BE00003F003030029E6D043F00403E3E7D368DE
:101BF0005DF8044B023BD3607047D3685DF8044B3B
:101C00000233D3607047D3685DF8044B0133D3606F
:101C1000704700BF309F0220214B10B4DA6F136869
:101C2000506819780478507A137A044201EA030163
:101C30001BD0937A03F0030309B143F0040343F08C
:101C400008039910013B91720D2B0BD8DFE803F0CC
:101C500021071B070A152121150A071B0721D36835
:101C6000013BD3605DF8044B7047937A03F00303A4
:101C70000029E6D043F00403E3E7D3685DF8044BA2
:101C8000023BD3607047D3685DF8044B0233D360E6
:101C90007047D3685DF8044B0133D360704700BFD1
:101CA000309F0220214B10B4D3F880201368506875
:101CB00019780478507A137A044201EA03011BD0A0
:101CC000937A03F0030309B143F0040343F00803DC
:101CD0009910013B91720D2B0BD8DFE803F021071F
:101CE0001B070A152121150A071B0721D368013B91
:101CF000D3605DF8044B7047937A03F00303002927
:101D0000E6D043F00403E3E7D3685DF8044B023BFD
:101D1000D3607047D3685DF8044B0233D3607047DB
:101D2000D3685DF8044B0133D3607047309F0220C5
:101D3000214B10B4D3F884201368506819780478C4
:101D4000507A137A044201EA03011BD0937A03F01C
:101D5000030309B143F0040343F008039910013B66
:101D600091720D2B0BD8DFE803F021071B070A1532
:101D70002121150A071B0721D368013BD3605DF8B9
:101D8000044B7047937A03F003030029E6D043F035
:101D90000403E3E7D3685DF8044B023BD36070476C
:101DA000D3685DF8044B0233D3607047D3685DF8A5
:101DB000044B0133D3607047309F0220214B10B495
:101DC000D3F888201368506819780478507A137A09
:101DD000044201EA03011BD0937A03F0030309B123
:101DE00043F0040343F008039910013B91720D2B5B
:101DF0000BD8DFE803F021071B070A152121150A7C
:101E0000071B0721D368013BD3605DF8044B704783
:101E1000937A03F003030029E6D043F00403E3E7D9
:101E2000D3685DF8044B023BD3607047D3685DF81C
:101E3000044B0233D3607047D3685DF8044B013321
:101E4000D3607047309F0220214B10B4D3F88C2010
:101E50001368506819780478507A137A044201EABA
:101E600003011BD0937A03F0030309B143F0040389
:101E700043F008039910013B91720D2B0BD8DFE85A
:101E800003F021071B070A152121150A071B07214B
:101E9000D368013BD3605DF8044B7047937A03F03D
:101EA00003030029E6D043F00403E3E7D3685DF8B9
:101EB000044B023BD3607047D3685DF8044B023398
:101EC000D3607047D3685DF8044B0133D36070472B
:101ED000309F0220214B10B4D3F890201368506833
:101EE00019780478507A137A044201EA03011BD06E
:101EF000937A03F0030309B143F0040343F00803AA
:101F00009910013B91720D2B0BD8DFE803F02107EC
:101F10001B070A152121150A071B0721D368013B5E
:101F2000D3605DF8044B7047937A03F003030029F4
:101F3000E6D043F00403E3E7D3685DF8044B023BCB
:101F4000D3607047D3685DF8044B0233D3607047A9
:101F5000D3685DF8044B0133D3607047309F022093
:101F6000214B10B4D3F89420136850681978047882
:101F7000507A137A044201EA03011BD0937A03F0EA
:101F8000030309B143F0040343F008039910013B34
:101F900091720D2B0BD8DFE803F021071B070A1500
:101FA0002121150A071B0721D368013BD3605DF887
:101FB000044B7047937A03F003030029E6D043F003
:101FC0000403E3E7D3685DF8044B023BD36070473A
:101FD000D3685DF8044B0233D3607047D3685DF873
:101FE000044B0133D3607047309F0220214B10B463
:101FF000D3F898201368506819780478507A137AC7
:10200000044201EA03011BD0937A03F0030309B1F0
:1020100043F0040343F008039910013B91720D2B28
:102020000BD8DFE803F021071B070A152121150A49
:10203000071B0721D368013BD3605DF8044B704751
:10204000937A03F003030029E6D043F00403E3E7A7
:10205000D3685DF8044B023BD3607047D3685DF8EA
:10206000044B0233D3607047D3685DF8044B0133EF
:10207000D3607047309F0220214B10B4D3F89C20CE
:102080001368506819780478507A137A044201EA88
:1020900003011BD0937A03F0030309B143F0040357
:1020A00043F008039910013B91720D2B0BD8DFE828
:1020B00003F021071B070A152121150A071B072119
:1020C000D368013BD3605DF8044B7047937A03F00B
:1020D00003030029E6D043F00403E3E7D3685DF887
:1020E000044B023BD3607047D3685DF8044B023366
:1020F000D3607047D3685DF8044B0133D3607047F9
:10210000309F0220214B10B4D3F8A02013685068F0
:1021100019780478507A137A044201EA03011BD03B
:10212000937A03F0030309B143F0040343F0080377
:102130009910013B91720D2B0BD8DFE803F02107BA
:102140001B070A152121150A071B0721D368013B2C
:10215000D3605DF8044B7047937A03F003030029C2
:10216000E6D043F00403E3E7D3685DF8044B023B99
:10217000D3607047D3685DF8044B0233D360704777
:10218000D3685DF8044B0133D3607047309F022061
:10219000214B10B4D3F8A420136850681978047840
:1021A000507A137A044201EA03011BD0937A03F0B8
:1021B000030309B143F0040343F008039910013B02
:1021C00091720D2B0BD8DFE803F021071B070A15CE
:1021D0002121150A071B0721D368013BD3605DF855
:1021E000044B7047937A03F003030029E6D043F0D1
:1021F0000403E3E7D3685DF8044B023BD360704708
:10220000D3685DF8044B0233D3607047D3685DF840
:10221000044B0133D3607047309F0220214B10B430
:10222000D3F8A8201368506819780478507A137A84
:10223000044201EA03011BD0937A03F0030309B1BE
:1022400043F0040343F008039910013B91720D2BF6
:102250000BD8DFE803F021071B070A152121150A17
:10226000071B0721D368013BD3605DF8044B70471F
:10227000937A03F003030029E6D043F00403E3E775
:10228000D3685DF8044B023BD3607047D3685DF8B8
:10229000044B0233D3607047D3685DF8044B0133BD
:1022A000D3607047309F0220214B10B4D3F8AC208C
:1022B0001368506819780478507A137A044201EA56
:1022C00003011BD0937A03F0030309B143F0040325
:1022D00043F008039910013B91720D2B0BD8DFE8F6
:1022E00003F021071B070A152121150A071B0721E7
:1022F000D368013BD3605DF8044B7047937A03F0D9
:1023000003030029E6D043F00403E3E7D3685DF854
:10231000044B023BD3607047D3685DF8044B023333
:10232000D3607047D3685DF8044B0133D3607047C6
:10233000309F0220214B10B4D3F8B02013685068AE
:1023400019780478507A137A044201EA03011BD009
:10235000937A03F0030309B143F0040343F0080345
:102360009910013B91720D2B0BD8DFE803F0210788
:102370001B070A152121150A071B0721D368013BFA
:10238000D3605DF8044B7047937A03F00303002990
:10239000E6D043F00403E3E7D3685DF8044B023B67
:1023A000D3607047D3685DF8044B0233D360704745
:1023B000D3685DF8044B0133D3607047309F02202F
:1023C000214B10B4D3F8B4201368506819780478FE
:1023D000507A137A044201EA03011BD0937A03F086
:1023E000030309B143F0040343F008039910013BD0
:1023F00091720D2B0BD8DFE803F021071B070A159C
:102400002121150A071B0721D368013BD3605DF822
:10241000044B7047937A03F003030029E6D043F09E
:102420000403E3E7D3685DF8044B023BD3607047D5
:10243000D3685DF8044B0233D3607047D3685DF80E
:10244000044B0133D3607047309F0220214B10B4FE
:10245000D3F8B8201368506819780478507A137A42
:10246000044201EA03011BD0937A03F0030309B18C
:1024700043F0040343F008039910013B91720D2BC4
:102480000BD8DFE803F021071B070A152121150AE5
:10249000071B0721D368013BD3605DF8044B7047ED
:1024A000937A03F003030029E6D043F00403E3E743
:1024B000D3685DF8044B023BD3607047D3685DF886
:1024C000044B0233D3607047D3685DF8044B01338B
:1024D000D3607047309F0220214B10B4D3F8BC204A
:1024E0001368506819780478507A137A044201EA24
:1024F00003011BD0937A03F0030309B143F00403F3
:1025000043F008039910013B91720D2B0BD8DFE8C3
:1025100003F021071B070A152121150A071B0721B4
:10252000D368013BD3605DF8044B7047937A03F0A6
:1025300003030029E6D043F00403E3E7D3685DF822
:10254000044B023BD3607047D3685DF8044B023301
:10255000D3607047D3685DF8044B0133D360704794
:10256000309F0220002310B4114C417202610460BC
:102570000372C36041B1194600E0026942F82310BA
:10258000427A01339A42F8DC0A4B1A680AB90CE025
:102590001A465369002BFBD15061002343618380AD
:1025A000C38083725DF8044B70471860F5E700BF85
:1025B0009CA90100D4A40220F8B5044615460E4695
:1025C0000846022110F06AF92846022110F066F947
:1025D000984A994B52F83610012001F50077276090
:1025E000207252F83520607202F500770020676093
:1025F000E060013BFDD191F8003292F8002203F037
:102600000103D20744BF43F00203DBB2A3723B2EA7
:1026100000F20386DFE816F0F405EA05E005D605CA
:10262000CC05C205B805AE05A4059A05900586053A
:102630007C05720568055E0554054A0540053605AA
:102640002C05220518050E050405FA04F004E6041D
:10265000DC04D204C804BE04B304A8049D0492049C
:1026600087047C0428041E0414040A040004F603EE
:10267000EC03E203D803CE03C403BA03B003A603FA
:102680009C03920388037E0374036A0360033C0087
:102690006A4B6B49C3F8EC4004223B2010F056F81B
:1026A000012323743B2D00F2B585DFE815F00B0301
:1026B0000103F702ED02E302D902CF02C502BB0219
:1026C000B102A7029D02930289027F023102270212
:1026D0001D0213020902FF01F501EB01E101D7011F
:1026E000CD01C301B901AF01A5019B019101860193
:1026F0007B01700165015A014F01440139012E012E
:10270000230118010D010201F700EC00E100B800FF
:10271000AD00A20097008C00810076006B00600085
:1027200055004A003C00454B4549C3F8EC400422A3
:102730003B2010F00BF8237C012213442374204625
:10274000F8BD3E4B3F49C3F8E84004223A200FF061
:10275000FDFF237C0122F0E7384B3B49C3F8E440FE
:10276000042239200FF0F2FF237C0122E5E7334BEE
:102770003649C3F8E040042238200FF0E7FF237CFD
:102780000122DAE72D4B3249C3F8DC40042237201E
:102790000FF0DCFF237C0122CFE7284B2D49C3F843
:1027A000D840042236200FF0D1FF237C0122C4E759
:1027B000224B2949C3F8D440042235200FF0C6FF2C
:1027C000237C0122B9E71D4B2449C3F8D0400422E1
:1027D00034200FF0BBFF237C0122AEE7174B2049CA
:1027E000C3F8CC40042233200FF0B0FF237C012239
:1027F000A3E7124B1B49C3F8C840042232200FF054
:10280000A5FF237C012298E70C4B1749C3F8C4406D
:10281000042231200FF09AFF237C01228DE7074B21
:102820001249C3F8C040042230200FF08FFF237CF0
:10283000012282E734DF0100C0D40100309F022072
:10284000990A00000D0A000081090000F508000047
:1028500069080000DD07000051070000C506000000
:1028600039060000AD0500002105000095040000B8
:10287000AC4BAD49C3F8BC4004222F200FF066FFDB
:10288000237C012259E7A74BA849C3F8B84004228A
:102890002E200FF05BFF237C01224EE7A14BA449C1
:1028A000C3F8B44004222D200FF050FF237C0122F6
:1028B00043E79C4B9F49C3F8B04004222C200FF003
:1028C00045FF237C012238E7964B9B49C3F8AC4077
:1028D00004222B200FF03AFF237C01222DE7914B9D
:1028E0009649C3F8A84004222A200FF02FFF237C2A
:1028F000012222E78B4B9249C3F8A44004222920ED
:102900000FF024FF237C012217E7864B8D49C3F883
:10291000A040042228200FF019FF237C01220CE79D
:10292000804B8949C3F89C40042227200FF00EFFFA
:10293000237C012201E77B4B8449C3F898400422A1
:1029400026200FF003FF237C0122F6E6754B804919
:10295000C3F89440042225200FF0F8FE237C0122C6
:10296000EBE6704B7B49C3F89040042224200FF023
:10297000EDFE237C0122E0E66A4B7749C3F88C40E8
:10298000042223200FF0E2FE237C0122D5E6654BD2
:102990007249C3F88840042222200FF0D7FE237C1E
:1029A0000122CAE65F4B6E49C3F88440042221200D
:1029B0000FF0CCFE237C0122BFE65A4B6949C3F8D5
:1029C0008040042220200FF0C1FE237C0122B4E6C7
:1029D000544B6549DC6704221F200FF0B7FE237CAF
:1029E0000122AAE64F4B61499C6704221E200FF08A
:1029F000ADFE237C0122A0E64A4B5D495C670422C0
:102A00001D200FF0A3FE237C012296E6454B594979
:102A10001C6704221C200FF099FE237C01228CE607
:102A2000404B5549DC6604221B200FF08FFE237CAF
:102A3000012282E63B4B51499C6604221A200FF08A
:102A400085FE237C012278E6364B4D495C660422E4
:102A500019200FF07BFE237C01226EE6314B4949A1
:102A60001C66042218200FF071FE237C012264E60C
:102A70002C4B4549DC65042217200FF067FE237CB0
:102A800001225AE6274B41499C65042216200FF08B
:102A90005DFE237C012250E6224B3D495C65042209
:102AA00015200FF053FE237C012246E61D4B3949C9
:102AB0001C65042214200FF049FE237C01223CE611
:102AC000184B3549DC64042213200FF03FFE237CB1
:102AD000012232E6134B31499C64042212200FF08C
:102AE00035FE237C012228E60E4B2D495C6404222E
:102AF00011200FF02BFE237C01221EE6094B2949F1
:102B00001C64042210200FF021FE237C012214E615
:102B1000044B2549DC6304220F200FF017FE237CB1
:102B200001220AE6309F0220D92400004D24000033
:102B3000C123000035230000A92200001D2200004F
:102B4000912100000521000079200000ED1F000008
:102B5000611F0000D51E0000491E0000BD1D0000C1
:102B6000311D0000A51C0000191C00008D1B000079
:102B7000011B0000751A0000E91900005D19000032
:102B8000D118000045180000B91700002D170000EB
:102B9000A11600001516000089150000FD140000A4
:102BA00071140000E513000059130000B34BB44941
:102BB0009C6304220E200FF0C9FD237C0122BCE59A
:102BC000AE4BB0495C6304220D200FF0BFFD237CA7
:102BD0000122B2E5A94BAC491C6304220C200FF082
:102BE000B5FD237C0122A8E5A44BA849DC620422A0
:102BF0000B200FF0ABFD237C01229EE59F4BA449E7
:102C00009C6204220A200FF0A1FD237C012294E59E
:102C10009A4BA0495C62042209200FF097FD237CA7
:102C200001228AE5954B9C491C62042208200FF082
:102C30008DFD237C012280E5904B9849DC610422C4
:102C400007200FF083FD237C012276E58B4B94490E
:102C50009C61042206200FF079FD237C01226CE5A3
:102C6000864B90495C61042205200FF06FFD237CA8
:102C7000012262E5814B8C491C61042210460FF051
:102C800065FD237C012258E57C4B8849DC600422E9
:102C900003200FF05BFD237C01224EE5774B844936
:102CA0009C60042202200FF051FD237C012244E5A8
:102CB000724B80495C60042201200FF047FD237CA9
:102CC00001223AE56D4B7C491C60042200200FF084
:102CD0003DFD237C012230E5684B7849C3F8E8408C
:102CE00004223A200FF032FD0123DAE4634B7449E9
:102CF000C3F8E440042239200FF028FD0123D0E47A
:102D00005E4B7049C3F8E040042238200FF01EFDEE
:102D10000123C6E4594B6C49C3F8DC400422372038
:102D20000FF014FD0123BCE4544B6849C3F8D840AC
:102D3000042236200FF00AFD0123B2E44F4B644910
:102D4000C3F8D440042235200FF000FD0123A8E48D
:102D50004A4B6049C3F8D040042234200FF0F6FCFF
:102D600001239EE4454B5C49C3F8CC400422332048
:102D70000FF0ECFC012394E4404B5849C3F8C840E1
:102D8000042232200FF0E2FC01238AE43B4B544939
:102D9000C3F8C440042231200FF0D8FC012380E4A2
:102DA000364B5049C3F8C040042230200FF0CEFC0F
:102DB000012376E4314B4C49C3F8BC4004222F2058
:102DC0000FF0C4FC01236CE42C4B4849C3F8B84015
:102DD00004222E200FF0BAFC012362E4274B444961
:102DE000C3F8B44004222D200FF0B0FC012358E4B6
:102DF000224B4049C3F8B04004222C200FF0A6FC1F
:102E000001234EE41D4B3C49C3F8AC4004222B2067
:102E10000FF09CFC012344E4184B3849C3F8A84048
:102E200004222A200FF092FC01233AE4134B344988
:102E3000C3F8A440042229200FF088FC012330E4C9
:102E40000E4B3049C3F8A040042228200FF07EFC2E
:102E5000012326E4094B2C49C3F89C400422272077
:102E60000FF074FC01231CE4044B2849C3F898407C
:102E7000042226200FF06AFC012312E4309F022076
:102E8000CD12000041120000B51100002911000010
:102E90009D10000011100000850F0000F90E0000C9
:102EA0006D0E0000E10D0000550D0000C90C000082
:102EB0003D0C0000B10B0000250B00000D0A0000C6
:102EC00081090000F508000069080000DD07000026
:102ED00051070000C506000039060000AD050000DE
:102EE0002105000095040000D92400004D240000B5
:102EF000C123000035230000A92200001D2200008C
:102F0000912100000521000079200000ED1F000044
:102F1000C34BC449C3F89440042225200FF016FC8B
:102F20000123FFF7BEBBBE4BBF49C3F8904004224C
:102F300024200FF00BFC0123FFF7B3BBB84BBB49B8
:102F4000C3F88C40042223200FF000FC0123FFF77C
:102F5000A8BBB34BB649C3F88840042222200FF027
:102F6000F5FB0123FFF79DBBAD4BB249C3F884408D
:102F7000042221200FF0EAFB0123FFF792BBA84BAC
:102F8000AD49C3F88040042220200FF0DFFB01236D
:102F9000FFF787BBA24BA949DC6704221F200FF073
:102FA000D5FB0123FFF77DBB9D4BA5499C67042200
:102FB0001E200FF0CBFB0123FFF773BB984BA149F9
:102FC0005C6704221D200FF0C1FB0123FFF769BBE2
:102FD000934B9D491C6704221C200FF0B7FB012373
:102FE000FFF75FBB8E4B9949DC6604221B200FF074
:102FF000ADFB0123FFF755BB894B95499C66042225
:103000001A200FF0A3FB0123FFF74BBB844B914920
:103010005C66042219200FF099FB0123FFF741BBE6
:103020007F4B8D491C66042218200FF08FFB012373
:10303000FFF737BB7A4B8949DC65042217200FF074
:1030400085FB0123FFF72DBB754B85499C65042249
:1030500016200FF07BFB0123FFF723BB704B814948
:103060005C65042215200FF071FB0123FFF719BBEB
:103070006B4B7D491C65042214200FF067FB012374
:10308000FFF70FBB664B7949DC64042213200FF075
:103090005DFB0123FFF705BB614B75499C6404226E
:1030A00012200FF053FB0123FFF7FBBA5C4B714971
:1030B0005C64042211200FF049FB0123FFF7F1BAF1
:1030C000574B6D491C64042210200FF03FFB012375
:1030D000FFF7E7BA524B6949DC6304220F200FF077
:1030E00035FB0123FFF7DDBA4D4B65499C63042294
:1030F0000E200FF02BFB0123FFF7D3BA484B614999
:103100005C6304220D200FF021FB0123FFF7C9BAF5
:10311000434B5D491C6304220C200FF017FB012375
:10312000FFF7BFBA3E4B5949DC6204220B200FF077
:103130000DFB0123FFF7B5BA394B55499C620422B8
:103140000A200FF003FB0123FFF7ABBA344B5149C0
:103150005C62042209200FF0F9FA0123FFF7A1BAFB
:103160002F4B4D491C62042208200FF0EFFA012377
:10317000FFF797BA2A4B4949DC61042207200FF078
:10318000E5FA0123FFF78DBA254B45499C610422DE
:1031900006200FF0DBFA0123FFF783BA204B4149E9
:1031A0005C61042205200FF0D1FA0123FFF779BA00
:1031B0001B4B3D491C61042210460FF0C7FA012346
:1031C000FFF76FBA164B3949DC60042203200FF079
:1031D000BDFA0123FFF765BA114B35499C60042203
:1031E00002200FF0B3FA0123FFF75BBA0C4B314911
:1031F0005C60042201200FF0A9FA0123FFF751BA05
:10320000074B2D491C60042200200FF09FFA012378
:10321000FFF747BA0022FFF790BA0023FFF741BA41
:10322000309F0220611F0000D51E0000491E0000D3
:10323000BD1D0000311D0000A51C0000191C000070
:103240008D1B0000011B0000751A0000E919000029
:103250005D190000D118000045180000B9170000E2
:103260002D170000A116000015160000891500009A
:10327000FD14000071140000E51300005913000054
:10328000CD12000041120000B5110000291100000C
:103290009D10000011100000850F0000F90E0000C5
:1032A0006D0E0000E10D0000550D0000C90C00007E
:1032B0003D0C0000B10B0000250B000010B592B0D2
:1032C000014601A80EF05EFD0023322201A805A9E7
:1032D0000EF07AFD05A905480AF024F8044601A875
:1032E0000EF010FDA0B212B010BD00BFE49300209C
:1032F00030B500EB8004A4002D3424B2054683B021
:10330000224600210F480AF073F80F4B1B689D42BC
:1033100007D00C484FF6E07103B0BDE830400AF02A
:1033200083B84FF6FF7107480AF07EF80021142396
:10333000009322460191F023024807F00FFD03B0ED
:1033400030BD00BFE4930020AC98002007EE900A47
:103350009FED0C6ADFED0C6A0C4B0D48B8EEE77A76
:10336000DFED0C7A27EE067A10B5E7EE267A012417
:103370001C60FCEEE77A17EE901A05F0EDFB064BA9
:103380001C6010BD0AD7233C0000014388E100E027
:103390000C4F0020EE7CFF3E08E100E010B5A2B02B
:1033A00044221749044668460FF028F844220DEBE2
:1033B000020014490FF022F8ADF10402002352F884
:1033C000041FA14204D00133112BF8D122B010BD4B
:1033D0000D490A68002AFCDB22AA02EB83030B4991
:1033E00013F8442C33F8423C013A1203013B02F437
:1033F0007F22C3F30B0313430B6022B010BD00BF49
:10340000A0A90100E4A9010000F1024004F102407A
:103410002DE9F04F2DED028BDFF800B13B4BDFEDD6
:103420003C8A9FED3C8A85B04FF000080393D94653
:1034300004E0B8F1FC0F4BF8046F62D059F8043F78
:10344000039A029332F9024F039207EE903A07EE85
:10345000104AF8EEE77AB8EEC77A67EEA87A1FFA54
:1034600088F5E7EE087A2F1D4FF4FC633FB2FDEEBE
:10347000E77A5A2217EE906ABE2ED4BF26EAE67685
:10348000BE26BE2CA8BFBE240FFA84FA22480093A1
:1034900039465346A4B207F0D7FA0020C4F1BE0360
:1034A00004F15A02394600901BB212B21A4805358F
:1034B00007F0CAFA2DB2002300932946BE235A22F0
:1034C000154807F0C1FA4FF4FC62534600922946B2
:1034D0005A22114807F0B8FA029B042B08F102089F
:1034E000A7DD1A4655324FF6FF73009312B22946F4
:1034F0000523094807F0A8FAB8F1FC0F4BF8046F50
:103500009CD105B0BDEC028BBDE8F08F868C00200D
:103510003333333F9A99993EE4930020D8830020B7
:10352000F8B55C4E34685CB1032C5B4D28D0022C9E
:103530003CD0012C60D0042C7DD000232B62F8BD40
:103540005648554D564F05F04FFD564A564B11689B
:103550001A68EC6191424FF48033AB6104BFEB61B8
:10356000AC61524B34685248524A00211960032C16
:103570004FF001034FF002013B6003601160D6D1B0
:103580004FF480414548464F05F012FD474B3468E3
:103590004848474900221A60AA6101234FF480324B
:1035A000022C3B6003600B60EA61C2D14FF48041A2
:1035B0003A4805F0E7FC404BDFED406A93F90030F4
:1035C00007EE903AF8EEE77AB7EE006A86EE277AD1
:1035D0004FF480320023EA61AB61B4EEE67AF1EE9B
:1035E00010FA3BD4F2EE007AB4EEE77AF1EE10FA7C
:1035F00044DD4FF4002333E02848274C2B4F05F0DF
:10360000F3FC284A284B116818684FF4803288422E
:103610004FF00003EB61AA6108BFE2612048254931
:10362000234A08BFA36101233468036000263E607B
:103630000B6013607FE719481C4F194E1D4C05F0B5
:10364000D3FC1B48002201234FF480313A60EA6129
:10365000AA613360236003602962F8BD40F28F23C2
:103660000E4F124C0E481349114A3B6201230027AA
:103670002760036034680B6013605AE7DFED106A5F
:10368000DFED107AE7EE267AFCEEE77A17EE903A55
:10369000E6E700BF9C96002064970020C0960020BB
:1036A000609C0220D84E0020203E0020B4980020CC
:1036B000A0960020A04E0020593E00200AD7233CAF
:1036C00000008047EE7CFF3EF0B5474C474A484932
:1036D00091B0002508A80123256003F075F910AA10
:1036E00044480A9B12F8145D9DF82410836005730A
:1036F000017100F10D031A3012F8011F03F8011BCC
:1037000083423C49F8D10F9B3B4ECB6108A803F0A4
:1037100083F80023394F336005E008A803F092F8DE
:1037200008A803F079F80122324908A803F0C0F98B
:1037300008A803F095F840F2E63310B922689A42DF
:103740004CDD08A803F06CF80028E6D108A803F0C7
:1037500065F8014668460EF015FB294904A80EF0ED
:1037600011FB04A968460EF049FB054604A80EF0BB
:10377000C9FA1DB968460EF0C5FACEE7236803EB17
:10378000430503EB850308A8FD1803F047F801463D
:10379000284613F099FB1B4904A80EF0F3FA04A97C
:1037A00068460EF02BFB054604A80EF0ABFA2B463C
:1037B0000122694604A80EF033FB04A80EF054FB66
:1037C000054604A80EF09EFA326823680A4995421D
:1037D00003F10103C8BF0D602360CBE708A803F025
:1037E0001BF811B0F0BD00BF08970020D0AA01005F
:1037F000649C02203C9C0220381C022018510020AE
:10380000D4AA0100DCAA010008B505490122002064
:103810000CF032F9FE210348BDE8084003F028B857
:10382000E0AA0100649C022038B5064D0648074C0A
:10383000294601220CF020F9207028460CF0F2FCF9
:10384000207038BDE0AA01003C4C0020D48B002041
:10385000F8B5224C236833B9214B1A6840F2E6339D
:103860009A420DDDF8BD1F480CF0CAFC00231E4A29
:1038700023601B4B10701A6840F2E6339A42F1DC69
:103880001A4F1B4B3D681B681A491B48164E0135E1
:103890002A463D6013F08AFA002117480CF0D6FC46
:1038A0000A22307014490F480CF010F902283070C9
:1038B00008D00A2210490B480CF008F90123307097
:1038C0002360F8BD07480CF09BFC09283070F0D14C
:1038D00009480CF0E1FC3070EBE700BFD098002005
:1038E0000897002010940020D48B0020381C022060
:1038F000D4980020E4AA01000C9700202DE9F84399
:10390000064606F015F801282CDDDFF86490DFF894
:1039100058800025D8F80000134F05EB40043046CE
:1039200006F038F809EB042401464FF48072204673
:103930000EF064FD0135304606F04AF8022DE9D15B
:103940003B680133BF2B02D83B60BDE8F8830022FF
:10395000064B3A60064907484FF4C0320CF032FA81
:10396000054B1870BDE8F883089400209C4E002099
:103970003099002010940020D48B0020134A38B5D1
:1039800000230446124D80F8F63013700CE006F068
:1039900001F8104B01464FF480720F480CF012FAF8
:1039A0002870204606F014F8204605F0C1FF0028D4
:1039B0002046ECDC08480CF023FC084B2870002261
:1039C0001A60BDE83840FFF77FBE00BFF04E002010
:1039D000D48B00209C4E002010940020D098002012
:1039E00008B50948FFF7CAFF0021084807F074FB33
:1039F0000749084A084B096811604FF480329A6100
:103A0000BDE80840FFF78CBDA0970020E49300209C
:103A10005C9C02209C960020E01B02202DE9F041D6
:103A20008CB00DF1FF3600250746B0462C462846DF
:103A30000EF094FC08F8010F4440082314F0010F25
:103A40004FEA540203F1FF3314BF82F08C04C4F335
:103A5000470413F0FF03F1D101352F2DE7D1F4B95D
:103A60009DF82B30322B03D020460CB0BDE8F081FE
:103A70009DF82A30302BF7D19DF82930302BF3D127
:103A80009DF82830302BEFD1013F0DF12F0316F8B0
:103A9000012F07F8012F9E42F9D10120E5E71846D2
:103AA0000CB0BDE8F08100BFF8B50025471E2C46DC
:103AB00017F8016F0823744014F0010F4FEA540205
:103AC00003F1FF3314BF82F08C04C4F3470413F0F6
:103AD000FF03F1D128460EF041FC864209D0314661
:103AE00028460EF055FC28460EF038FC3B78834201
:103AF00004D101352E2DDBD1002600E00126214620
:103B000028460EF045FC28460EF028FC84420CBFE7
:103B100030460120F8BD00BF2DE9F0432549264875
:103B2000264A09680068264B264D1B88264C2E68BD
:103B3000264F2568264C3F6894F800908FB00133DB
:103B40000390059192E80300C0F307228DF831201D
:103B5000C0F307428DF832201E491F4A91F80080B9
:103B600092F800C0ADF80A301C4A1D4B1D498DF873
:103B70003000000E92F800E009688DF833000696D8
:103B80005F2293F900600891002302A88DF81DC000
:103B90008DF81CE08DF808200A9504978DF8259083
:103BA0008DF824800B96ADF83430FFF77DFF0FB011
:103BB000BDE8F0831C3E00209C960020F0AA010086
:103BC000088C0020683E0020B89800206C3E002041
:103BD0007D3E0020593E0020743E0020143E00200F
:103BE0007C3E0020783E00202DE9F04FAA4AAB4BE6
:103BF0001468AB48AB491C600C328BB005680C688C
:103C00001268A949A948DA605D609C600EF0BAF8B4
:103C1000A74AA849A548DFF8D49210F0DBFF1C2181
:103C20001B2227238DE80E00A348FF231422152111
:103C300006F0AAFD32222521A04809F0D7FC322245
:103C400024219F4809F0D2FC232222219D48FEF71F
:103C5000B3FC322226219C4809F0C8FC32221D21E7
:103C60009A4809F0C3FC1F221E219948FEF7A4FCC4
:103C7000984B994993F90030984A99480B7012680B
:103C80005942017000239749C9F8001089F809309A
:103C9000C9F8103089F80830C9F80C300AB9C0E208
:103CA0001A465369002BFBD1C2F814900024DFF8A8
:103CB00090B28D4B8D48C9F81440A9F80440A9F87A
:103CC000064089F80A40C9F8003005F07FFA0BF188
:103CD000180201215846FEF745FC854B85488BF8B4
:103CE000F440224621468BF8F540CBF8F0408BF8A3
:103CF000F640CBF80030FEF735FC7E4A7E4B136071
:103D00007E4A7C4E7E4D18324FF48043A2F118005B
:103D100002213362FEF726FC784A7A4B13600120B9
:103D200005F224726F4E2C7223462146EC602E6001
:103D300068722A612C4600E0226942F823106A7AF0
:103D40006F4801339A42F7DC644B1A680AB96CE297
:103D50001A465369002BFBD1556100246A4929603A
:103D6000224601234FF48071684E69486C61AC8033
:103D7000EC80AC7285F8214785F82247C5F81861B8
:103D800010F04CFE554BDFF894811A685549C5F880
:103D90001C41082385F8203788F80940C8F800102E
:103DA000C8F8104088F80840C8F80C404B4B0AB9D6
:103DB0003DE21A465369002BFBD1C2F814804FF044
:103DC000000A544B5448C8F814A0A8F804A0A8F856
:103DD00006A088F80AA0C8F8003002F00FFD4F488E
:103DE0004F4C504F504E05F09FFC314A4F494B48C5
:103DF00010F0F0FE4E4B012103F118021846FEF7B9
:103E0000B1FB4B4A4B4B13604B4B042103F128028F
:103E10001846FEF7A7FB494B03F128021846464B0C
:103E200004211C604FF480349C61DC611C625C6284
:103E3000FEF798FB414B3A4C1C6007F128024FF407
:103E40008034042138469C61DC611C625C62FEF7B0
:103E500089FB3349BC61022006F11802FC613C6217
:103E60007C62204C396034605346514686F808A085
:103E7000C6F80CA070723261344600E0226942F844
:103E80002310727A284801339A42F7DC134B1A68E0
:103E9000002A58D1CEE100BF54800440388C002065
:103EA000588004405C800440F8AA0100884E00203D
:103EB0000C3E0020051D0100E4930020CC9300205F
:103EC00030190220A8960020A84E0020209900203A
:103ED000DC4E00207C3E0020DC1B0220D4A402200B
:103EE000DC9300209CA90100B8B10100DC980020FF
:103EF000E8B10100488C0020F4B10100B41902209F
:103F00006C8C0020ACB1010078AF010098AF0100CB
:103F100094930020DCB101005C19022044190220B6
:103F2000C4B1010064960020181C02207104000036
:103F3000C0960020A0B10100E01B02206497002081
:103F4000A09700201A465369002BFBD1566100242C
:103F5000B94ABA4B7461B480F480B472B848326024
:103F6000059305F06BFB059BDFF82CA31C7218462C
:103F7000C3F800905F605C72DC601C740DF0F0FCB4
:103F8000059BB04AB049184610F024FEAF4B05938C
:103F900050468AE8000A8AF808408AF80940CAF8B8
:103FA0000C408AF810400DF0DBFCA64AA649DFF869
:103FB000ECB2504610F00EFE059BDFF8E4A21C7236
:103FC0004FF001091846C3F800805F60DC601C7484
:103FD00083F809900DF0C4FC059B9A4A9A49DFF8D2
:103FE000C482184610F0F6FD994BCBF804305846C1
:103FF0008BF80840CBF800708BF80940CBF80C40E8
:104000008BF810400DF0ACFC8E4A8F49584610F0EA
:10401000E1FD904BCAF8043050468AF80840CAF8CF
:1040200000708AF80940CAF80C408AF810400DF078
:1040300097FC844A8449DFF870B2504610F0CAFDFC
:10404000834B88F80840404688E8280088F80940F3
:10405000C8F80C4088F810400DF082FC794A7A4983
:104060007D4B0593404610F0B5FD7C4BDFF83CA23C
:10407000CBF8043058468BF80840CBF800708BF82A
:104080000940CBF80C408BF810400DF069FC6D4AEC
:104090006D49DFF81C82724D584610F09BFD714B44
:1040A000CAF8003050466D4BCAF804308AF8084010
:1040B0008AF80990CAF80C408AF810400DF050FCBC
:1040C0006149604ADFF8ECB1504610F083FD059B72
:1040D000604A1A601846644A1C725A6083F8099054
:1040E000DC601C740DF03CFC059B564A5649DFF819
:1040F000C8A1184610F06EFD584BC8F80030404675
:10410000594BC8F8043088F8084088F80940C8F8C6
:104110000C4088F810400DF023FC4B49494A4046BA
:1041200010F058FD022328464F4A6B722C722F6004
:104130006A60EC602C740DF013FC424A4249DFF8CF
:104140007C814A4F284610F045FD474B8BF80840CC
:1041500058468BE848008BF80940CBF80C408BF8A8
:1041600010400DF0FDFB374A3749414D584610F0DD
:1041700031FD3D4B8AF8099050468AE848008AF89C
:104180000840CAF80C408AF810400DF0E9FB504690
:104190002C4A2D49DFF828A1364CDFF8289110F081
:1041A00019FD3549354B0A680792DDF81CB00A68DD
:1041B00008921A68089B0968DFF80CE109911E460D
:1041C0002F4B0999DFF804C1CEF8002002EB420022
:1041D00003EB80032B4A2D68CAF800B0A1F57A7171
:1041E000D3F808B0D3F804A0C8F80060264B2748DD
:1041F000CCF800104FF00A082360C2F800A0C7F8FE
:1042000000B0C9F8005084F8088002F0F7FA0D4AAF
:104210001F491E4810F0DEFC0EF054F80BB0BDE84C
:10422000F08F1C4BC3F8009040E5186095E5C3F88B
:104230000080C4E518608AE6D0B10100B893002080
:10424000181C02200C3E002089040000248C002051
:10425000E01B0220C0960020F44E0020B41902207A
:10426000F08B0020488C0020649700209C97002051
:10427000783E00200C4F002064A50220683E0020FC
:1042800028AA0100D498002084AF01003C9C0220A1
:1042900019680000D4A402209898002088190220F0
:1042A0009C1902200C990020C44E0020F898002090
:1042B000BC9800200C8C0020A4930020DC8B0020F4
:1042C000D81B0220D88B00205C970020A4960020E9
:1042D0002DE9F04F2DED028B434CDFF82891434F31
:1042E00095B020464FF6E07109F09EF8282500228F
:1042F0004FF400430193114620460095F023C4F883
:10430000189006F02BFD4FF6FF7301930095F023F4
:104310002A462046002107F0D3FD3B68012B00F020
:104320009182022B00F09B8214224FF400438DE80F
:104330000C000021F0234FF48C722B482C4EDFF838
:10434000C88006F00BFD28224FF448738DE80C005E
:104350000021F0234FF49672234806F0FFFC002260
:104360001146214809F044F8022222491E480DF066
:1043700037FC96F900101C480DF0BCFC01221E49C8
:1043800019480DF02DFC98F9001017480DF0B2FCFB
:104390003A68022A00F06D82134C18490222204626
:1043A0000DF01EFC164B1D68284612F009FE29462A
:1043B000024620460DF014FC3D68032D00F0698292
:1043C000DFF8489008481422002109F011F8D9F8C4
:1043D0000030042B00F23082DFE813F04301490182
:1043E0004F0155011A0000BFE49300206C3E0020ED
:1043F000743E002018AB01001CAB010024AB01008F
:10440000D498002080D70100143E00209C96002004
:104410000422C049C0480DF0E3FBC04BC04C1968F2
:104420000BA809F005F81422B421BB48DDF830B020
:10443000DDF834A008F0DCFF4FF6E071B64808F074
:10444000F3FF2368072B00F0998105ADCDF800B08C
:1044500053462846B34A092112F05AFC284612F066
:10446000AFFD29460246AC480DF0BAFB4FF49672F8
:104470000021A94808F0BCFF3B68032B00F0348101
:10448000A94DA5482B68012B0CBF4DF29A614FF640
:10449000E07108F0C9FF23680A2B03D12A68012ABA
:1044A00000F02683DFF8CCA25AF82350284612F0F9
:1044B00087FD2946024698480DF092FB01229B4950
:1044C00095480DF08DFB4FF6FF719348944D08F021
:1044D000ABFF2368012B00F08582022B00F0D9800E
:1044E000002B00F0E580092B00F06282082B00F021
:1044F0005782032B00F06482052B00F092818C4BD5
:104500008C4D1B688448012B0CBF4DF29A614FF60D
:10451000E07108F089FF2B685AF82300FEF7CEFE01
:10452000C0F1F00109B24FF496727B4808F060FFC9
:104530002B685AF82350284612F042FD29460246BD
:1045400075480DF04DFB3B68032B00F0CD804FF418
:104550008C720021704808F04BFF4FF6E0716E48F6
:1045600008F062FF2368062B00F01E81724C23784E
:10457000002B00F03581012B00F03B81022B6F4CAA
:1045800000F046814FF6E071634808F04DFF6C4B38
:1045900022786C491C786C4B052C0CBF1C460C46D1
:1045A000002A00F08C803B68032B55D0002B40F391
:1045B000E081DFF8C4A1654DDAF80020DFF8A4B18E
:1045C0009FED637ADBF80010002A1346B8BF02F1B2
:1045D000FF031B1207EE903A91FBF3F185FB0205F6
:1045E000D217FAEEEF7AC2EB6535012D87EE278AF6
:1045F0004FEA41081DDD01244FF6E07600960523C1
:104600005522454807EE904AF8EEE77A013467EE06
:10461000887AFDEEE77ACDED037ABDF90C1006F04D
:1046200013FAA542EAD1DAF80030002BB8BFFF3305
:104630001B12D9F80020022A00F038824FF6E073EE
:104640000093572203230FFA88F1334807F00CFC3C
:104650003B68012B00F0CD8115B0BDEC028BBDE8AD
:10466000F08F02223B492C480DF0BAFAD5E607221A
:10467000394929480DF0B4FACFE6072237492648D0
:104680000DF0AEFAC9E60622354923480DF0A8FA26
:10469000C3E6344B34491B681F4881FB0321DB17F9
:1046A000C3EBA1110DF026FB2368002B7FF41BAF99
:1046B00096F9001018480DF01DFB236813E72146FA
:1046C000154808F02FFEC0F1EB0109B24FF48C72CF
:1046D000114808F08DFE204612F072FC2146024679
:1046E0000D480DF07DFA5EE7062220490A480DF0DC
:1046F00077FA1F48FEF7E2FDC0F1F00109B24FF46E
:104700009672054808F074FE0622194902480DF019
:1047100067FA1CE7A8AB0100E493002000D0034037
:10472000B4980020C8AB0100609C022088AB010057
:10473000A0960020A04E0020B84E00204019022074
:10474000583E002008AB010010AB0100AD8BDB68C8
:1047500000401C468CAB010098AB0100A0AB0100EF
:1047600090AB0100783E0020D34D6210D4AB010025
:10477000DCAB0100243E00209C97002014229621EF
:10478000AA4808F035FE4FF6FF71A84808F04CFE25
:1047900005AD0B9A0192CDF800B053462846A44AC5
:1047A000092112F0B5FA59E6A24B1B68012B7FF4E0
:1047B000DDAEA14C9D484FF6FF7108F035FE237821
:1047C000002B00F0B581012B00F0B981022B9B4C2E
:1047D0007FF4D8AE9A49954804220DF001FAD1E64B
:1047E0000722984991480DF0FBF92378012B7FF4BB
:1047F000C5AE954B1B78002B00F0B4800622934980
:104800008A480DF0EDF923788C4C022B7FF4BAAE78
:104810002378002BDED004228D4984480DF0E0F986
:10482000B0E68C4D2B68002B40F0B28007228A49FD
:104830007E480DF0D5F962E6052288497B480DF0E7
:10484000CFF9EAE500211E2300932046F0230191D1
:104850003C2206F083FA3B68022B7FF465AD002111
:10486000062300930191F0235422704806F076FA53
:104870005AE57B496D480DF0B3F97A4B7A491B68CC
:104880006A4881FB0321DB17C3EBA1110DF032FA5B
:1048900082E52D220021204608F0AAFD4FF6E071A6
:1048A000204608F0C1FD714BC4F818901A68002A20
:1048B000C0F23B81032AC8BF1D600020FEF718FD2F
:1048C00008226B4959480DF08BF96A4B574893F908
:1048D0000030012B07BF0A22674968490C220DF0FE
:1048E0007FF952480DF0B6F90120FEF701FD1222C2
:1048F00063494E480DF074F9624B4C4893F900102F
:104900000DF0F8F949480DF0A5F90220FEF7F0FC8A
:1049100014225D4945480DF063F95C4B434893F917
:1049200000100DF0E7F941480DF094F90320FEF76F
:10493000DFFC57493D480D220DF052F9554B564AC0
:104940001B6803EB430302EB83035C68204612F011
:1049500037FB2146024635480DF042F933480DF049
:1049600079F92DE507224D4930480DF039F92378C2
:1049700004E6552200212D4808F03AFD0922484955
:104980002A480DF02DF915B0BDEC028BBDE8F08F73
:104990000422444925480DF023F901232B60AEE59C
:1049A0003A4B224893F900100DF0A4F92368A0E5D2
:1049B000344B1E4893F900100DF09CF9236895E5DF
:1049C000344B354A1B6803EB430302EB83035D68FA
:1049D000284612F0F5FA2946024614480DF000F96F
:1049E000236889E598F9001010480DF083F92B68C9
:1049F00073E5DBF800101C4B2B4A83FB0103C9173E
:104A0000C1EBA31308A8092112F082F9A8F10A0149
:104A100009B23C22054808F0EBFC08A812F0D0FAD5
:104A200008A9024601480DF0DBF815E6E4930020E2
:104A3000B8AB0100609C0220D41B02204019022068
:104A400004AC0100F4AB0100F04E00200CAC0100FE
:104A50001CAC0100B8980020E4AB0100B0AB010031
:104A600020AB0100783E0020D34D6210AC980020AE
:104A700028AB01007C3E002034AB010040AB0100BC
:104A800050AB01007D3E002064AB0100593E002088
:104A90007CAB0100683E002028AA010014AC010094
:104AA0002CAC0100ECAB010024AC0100274A284DDE
:104AB00092F9001095FBF3F54FF47A7202FB01F2C4
:104AC00092FBF3F3ED1A6D005B001CB22DB24FF6B2
:104AD000FF762B462146009655221E4805F0C4FF5E
:104AE0002B462146009659221A4805F0BDFFA5E540
:104AF000194B1A4A1B68DFF874A003EB430503EB5C
:104B00008503D51828462E2112F076F9421B294636
:104B10000132134812F036FA114812F051FA1049D6
:104B200002460C480DF05CF8CDE400221A60C4E6A1
:104B300007220C4907480DF053F8237843E6072273
:104B4000094904480DF04CF823783FE67D3E0020EB
:104B500080380100E4930020B01902201851002091
:104B6000E08B0020F4AB0100FCAB0100243E0020F0
:104B7000074B10B5012401461C60064803F07CFF7A
:104B8000054B1C60FFF7A4FB044B00221A6010BD0C
:104B900088E100E00C4F002008E100E0E0930020F5
:104BA000F0B58DB06846FEF739FF044698B1384934
:104BB000089A384BBDF802709DF828609DF829507E
:104BC0009DF82A000F80012A9DF82B101E705D7041
:104BD0009870D97002D020460DB0F0BD2E4E2F49EE
:104BE000039F37602E482F4B029D2F4E049F0F606E
:104BF0000199026019603560002D2FD0022D40D040
:104C0000012D35D00021294806F066FA3168274881
:104C1000274E0DF06FF8274A9DF915002649274BBE
:104C20009DF81D509DF81C701070069A0D701A604A
:104C30003770FEF78BFB9DF91430214A214D13701C
:104C40001846FFF795FF099B1F4820495AB25B425F
:104C5000037020462A700A700DB0F0BD2946134833
:104C600006F070FC2946114806F044FA3568C5E79D
:104C700000210E4806F066FC00210C4806F03AFAC6
:104C8000C0E70021094806F035FA3568B8E700BFEB
:104C9000088C0020BC4E00201C3E0020683E0020F6
:104CA000B89800209C9600206C3E0020E4930020E1
:104CB000593E0020743E00207D3E0020783E0020BA
:104CC000143E00207C3E0020DC930020DC1B0220F0
:104CD000274B9FED286A93ED007ADFED276AB8EE47
:104CE000C77A07EE900AC6EE075AF8EEE77A67EE43
:104CF000A57AF4EEE67AF1EE10FA19DC1F4A204BA1
:104D0000C2ED007AF5EEC07A0122F1EE10FA1A60D7
:104D10002BD49FED1C7AF4EEC77AF1EE10FA1BDD6E
:104D2000194B1A491A4A01200860D361FFF7D0BA1B
:104D3000C7EE065A114B1748114A0121F2EE027ACA
:104D4000E5EEA67AC3ED006AFDEEE77A17EE903A3B
:104D5000F0EE667A036011609FED0F7A67EE877A56
:104D6000FCEEE77A17EE903ADBE70023D9E700BFC5
:104D70009C970020A6552C4700E0AB46183E00202B
:104D800088E100E0A655AC4680FFFF7F08E100E027
:104D9000488C0020783E00204B24BE472DE9F04F80
:104DA0002DED048BB34AB44B92F900201B689FEDA4
:104DB000B36ADFEDB36A07EE102A002BB8BFFF33EA
:104DC000F8EEC77A1B1227EE867A07EE903AF8EED5
:104DD000E77AADF5097D87EE278A10AC4FF4F072C3
:104DE00020460021C6EEA78A11F036FDA54B1A68B1
:104DF0000132012A04921A60BDEEC88AFDEEE88AEB
:104E000000F01881049B632B40F21C81DFF8C08204
:104E1000DFF8B8929FED9C6A0026C446B346B646BA
:104E200027464FF4807A0225F2EE046A0FE0042A46
:104E3000D8BF4FF4006323DC0135782D24F81630F9
:104E400007F1040727F8023C06F102062CD03CF8D3
:104E5000023FB9EC017A03EB83035B0007EE903A63
:104E6000F8EEE77AE7EE467A77EEA67AFDEEE77A95
:104E700017EE902A52459644D9DD17EE90AAAB461C
:104E80005300FF2BA8BFFF23B2F5407FC0F2D482AE
:104E9000B2F5106FC0F291821B0203F478436FEAFF
:104EA000D3236FEAC323C7E7784B9FED797A83FB5F
:104EB0000E234FEAEE7ECEEB23139AFBF3F307EEBD
:104EC000903AF8EEE77A18EE103AF4EE477AF1EEFF
:104ED00010FA48BF4FF0000B5B4504DA18EE903A29
:104EE0005B4500F3FB806B4B1D68012D4FF0000A02
:104EF00000F02081022D00F02B8118EE103A5B4566
:104F0000654D4EDA18EE903A5B454ADD2B78002B62
:104F100040F0AE81614EDFF8C08133680F93604B83
:104F20000F9A1A60D8F80030012B00F098815D4E7E
:104F3000022B337840F09E81002B00F09B815A4871
:104F400004F052F84FF48041574804F01BF8574BD7
:104F5000DFED576A93F9003007EE903AF8EEE77A02
:104F6000B7EE006A86EE277AB4EEE67AF1EE10FA32
:104F700000F11D82F2EE007AB4EEE77AF1EE10FA5B
:104F800000F31882DFED4B6ADFED4B7AE7EE267A0D
:104F9000FCEEE77A17EE902A434900230A62337049
:104FA00068E12B786BB13D4A3D4913680B930B9B2D
:104FB000096812680C924148414A0C9E06605B1ACF
:104FC0001380384E002233782A7043B9334A34496B
:104FD00012680A9209680A9A521A322A09D82D4B85
:104FE0001B68022B0FD00DF5097DBDEC048BBDE8CD
:104FF000F08F2D4A2B70012382F842303370254BFD
:105000001B68022BEFD1254B2C4A1B6809931268B1
:10501000099B2C4D9B1A312B40F23F812B68B3F535
:105020008C7FE0DB5A232B600DF5097DBDEC048BF2
:10503000BDE8F08F244B002103F5007243F8041BF8
:105040009A42FBD1214A2249DFED226A02F5FC7027
:1050500031F8023F92ED007A03EB83035B0007EE29
:10506000903AF8EEE77AA7EEA67AA2EC017A8242AD
:10507000EED1CBE67D3E00209C97002000007A44D4
:1050800000409C47D89800206666663FBF3CB62229
:105090006666863F6C3E0020BC96002064A5022018
:1050A000D81B0220673E0020C0960020593E0020F9
:1050B0000AD7233C00008047EE7CFF3EDC8B0020BB
:1050C000084F0020103E0020184F0020204F0020E5
:1050D000868C00206F12833A9C960020C34BC44AF2
:1050E00003930021D3ED006A8A46022338F8020FA9
:1050F00092ED007A07EE900AF8EEE77A77EE877A7B
:10510000F4EEE67AF1EE10FAE2EC017A03DDF0EE6D
:10511000676A9A4601210133782BE7D1002940F0D4
:10512000A281B44A138801331380B34B1D68012D4B
:105130007FF4E0AEB14B1B68022B00F0A080049B13
:10514000DB073FF5DAAEFEF763F9AB4B1D68D1E63E
:10515000A84F3B88322B7FF6D0AE00262D23019638
:10516000009331463E80A64EA64836680696F02348
:10517000282205F0F3FD9D4BBAF1000F00F09F804F
:105180001A4692ED007A03939F4BDFEDA05AF7EE9B
:10519000007A03EB8A0377EE277A1A1D514632ED27
:1051A000016AC6EE276AF4EEE56AF1EE10FA02DD56
:1051B00001390229F3D1DFED955A04915246B3EC3F
:1051C000016AC6EE276AF4EEE56AF1EE10FA54DDE4
:1051D0000132782AF3D100230593DFF81492DFED32
:1051E0008C9A9FED8C9ACDF81CB00026022702E025
:1051F000039B93ED007AD9ED006A8248C6EE877A68
:105200004FF478430FFA86FB0093594667EEA97A6C
:10521000FDEEE77A17EE905AC5F155080FFA88F8B7
:105220002DB242462B4605F00FFCBA4507F10107A7
:1052300000F0D2800236782FB6B2A9EC019AD7D10D
:10524000DDF81CB0BAF1000F5ED1039AD2ED007AFE
:10525000B6EE007A67EE877AC2ED007A4DE63368E3
:105260006D4F0E930E9A3B68D31AB3F57A7F2DD803
:105270006A4E337801222A70A7E60592ADE75D4AAF
:10528000674B1288A3FB02139B0803EB8303D31A1B
:105290009BB2002B7FF431AE55E701940123B5F9A1
:1052A0000020584800930021F02306F0EDF92988EA
:1052B000544806F047F92B6801332B60AFE603939F
:1052C000049593ED007ACDF814A086E74C4B554A2F
:1052D0001B68002BB8BFFF331B120BFB03F382FBD1
:1052E0000312DB17C3EB62134FF4FA7202FB03F3F2
:1052F0004D4A18461360FFF7EBFC33680D930D9A87
:10530000D8F800303A6012E6069B9FED489A3D4877
:10531000002BB8BFFF331B1207EE903AF8EEE77A86
:105320002D22962127EE899A08F062F84DF29A61B3
:10533000344808F079F8DDED047A3248F8EEE77A7F
:1053400067EE897AFDEEE77A17EE901A0CF0D2FC40
:10535000012237492B480CF043FC4FF6E0712948F5
:1053600008F062F807EE90AAF8EEE77A254867EEB3
:10537000897AFDEEE77A17EE901A0CF0BBFC012259
:105380002B4920480CF02CFC4DF29A611D4808F086
:105390004BF8DDED057A1B48F8EEE77A67EE897A7F
:1053A000FDEEE77A17EE901A0CF0A4FC4DE740F200
:1053B0008F22F1E54FF40022EEE51E4981FB021039
:1053C000D217C2EB60021B02D21003F4784342F4FE
:1053D000FC6213439BB22FE54FF6E07000902B4622
:1053E00042465946074805F02FFB23E7E09300208B
:1053F000DC190220A44E00206C3E00209C96002068
:105400009C970020E4930020D4190220CDCCCC3D01
:105410000000344200000000A4960020673E0020F7
:10542000CDCCCCCCD34D6210783E00206F12833AA5
:1054300088AB0100398EE3380D491B0203930D4BF5
:1054400081FB0210D117401A83FB0232039BC0007C
:1054500003F4784300F4FC60C1EB62020343C2F33F
:10546000C4021343E8E4039BC3ED006A59E600BF9E
:1054700056555555398EE33838B5104B1049114AF9
:10548000114D00EB400003EB8003012498685B683A
:105490000B6028601460FDF781FFC8200DF004FA4E
:1054A0000A4B1868FFF714FC094B14201C600DF020
:1054B000FBF9BDE83840FEF70BBF00BF28AA01008A
:1054C000D498002088E100E09C970020783E0020DE
:1054D00008E100E01F4B204A1B6801210B2B10B58F
:1054E0000446117026D064200DF0DEF90D2C204604
:1054F000A8BF0D2020EAE070FFF7BEFF174C184B45
:105500001A682368002B02F1FF3220DB9342A8BF08
:10551000134603EB43021349236003EB8203194450
:1055200011480D2211F0BAFD0F491048BDE8104096
:1055300004F028B90E4A0F4B10684FF48031002256
:10554000022899611A6204BFD9619A61CBE70023EE
:10555000DFE700BFB498002040190220B0190220F4
:1055600008970020185100200C97002044190220B1
:105570009C9600206497002038B50B4C23782BB103
:105580000A4890F8403003F0FF0503B138BD04F03D
:10559000D1F8074B25701B78002BF7D0054B186806
:1055A000BDE83840FFF796BF401902204419022099
:1055B000609600201C3E00202DE9F04788B0D0B94D
:1055C000A64BA74AA7491B6815680E680D22EBB9C0
:1055D000A54B19787319002973D0002BB8BF02F1BD
:1055E000FF339342A8BF0023002875D19C4A136063
:1055F00008B0BDE8F0870128FAD19C4B9C4A9D4930
:105600001B6815680E680422002BE1D0012BEFD136
:10561000002EEDD00446002D65D1974A137833440F
:105620005BB2002BC0F2ED805A2BA8BF5A2307EEC5
:10563000903A9FED926ADFED926AB8EEE77ADFED7D
:10564000917A27EE067AE7EE267AFCEEE77ACDED40
:10565000017A8D49137001270F608C48019903F07E
:105660007BFA8B4B1F607E4F3B68072B68D0052B66
:105670004BD00C2D50D03B680A2BB9D1774B1B680F
:10568000012B00F0AC807A4B1B68032BB0D1774B19
:105690001B68012BACD17F4B1B78022BA8D17E4C11
:1056A000744B22681B681344052BA8BF052323EA0B
:1056B000E37318462360FFF7DFFE784B22681A6019
:1056C00096E7A3F10A01012987D8012E00F0858011
:1056D000013608BF092384E7012889D1644A136091
:1056E00008B0BDE8F087032D5FD16B4F3B683344B2
:1056F0000D2BA8BF0D2323EAE37318463B60FFF789
:10570000BBFE674B3A681A60ADE7544B1B68012B30
:105710007CD00C2D7FF46CAF002C54D0012CAAD17E
:10572000604B1B68002B40F083805F4A5F4892F912
:1057300000305F4903705B425BB213700B709AE7F5
:10574000002C96D1DFF88491DFF88481D9F80030FD
:105750000493049BD8F800209B1AB3F5FA7F53D228
:10576000F92B00F25F81632B8BBF4FF00A0AC6EB67
:10577000061A0AFB06FA4FEA8A0A04F091FB06A908
:10578000504404F037FA06A804F00CFB0DF060F862
:1057900006A804F007FB04F0D3FBD9F8003005930A
:1057A000059A3B68C8F8002061E7082D40F0AD80FD
:1057B000404A137833445BB2042B0BDD1E2BA8BF89
:1057C0001E2313704FE7374A1368334483F30203F1
:1057D000136050E70523137045E70C2301E73649B2
:1057E000204A0B6812689B182FD4344A12689342DF
:1057F00002F1FF3200DB00239342A8BF13460B6087
:1058000041E701952B4624E7B246B6E7154BDFF892
:10581000C4E01A68DEF80010294B0A441340002B3C
:105820006EDB19462748CEF800300CF063FA20E70B
:10583000012B51D1244A137833445BB20E2B59DD2E
:10584000232BA8BF2323137015E71C4B1B685A1E7C
:1058500048BF0023D3D41346CEE700BF609C02208C
:10586000B4980020B0980020F14E0020A0960020AF
:10587000A04E0020984E0020743E00200AD7233C02
:1058800000000143EE7CFF3E88E100E00C4F002069
:1058900008E100E0B84E0020683E00201C3E0020D9
:1058A0005C970020AC9800207C3E0020DC93002018
:1058B000DC1B0220593E0020B0190220089700206E
:1058C00001000080E49300207D3E002064A50220BA
:1058D000048C0020B8980020022B40F0A6805C4A7F
:1058E000137833445BB2042B07DD1E2BA8BF1E23A5
:1058F0001370C0E60F231370BDE605231370BAE6DC
:10590000013B63F0010301338BE7092D0DD1514AAF
:10591000137833445BB20E2B04DD232BA8BF232363
:105920001370A0E60F2313709DE6012D18D14A4A8B
:10593000137833445BB2002B6FDB3F2BA8BF3F23B0
:1059400018461370FFF714F9444A454B00201060C5
:10595000002103F5007243F8041B9342FBD182E659
:10596000022D38D1DFF81C91DFF81C81D9F8003006
:105970000293029BD8F800209B1AB3F5FA7F46D217
:10598000F92B4CD8642B41F2883328BF4FF4FA63CB
:10599000344F354A3968126803FB061341F6573114
:1059A0008B4231DD314981FB0201D243D20FC2EB80
:1059B000E1124FF47A7101FB02F29342A8BF134641
:1059C00018463B60FFF784F9D9F800300393039B36
:1059D000C8F8003047E6042D03D1204B00221A609E
:1059E00041E6062D7FF43FAE214B1B7893B1214950
:1059F000214A0B780133DBB2A2FB0302520802EB0F
:105A000042029B1A0B702EE641F65833D8E74FF44A
:105A1000FA73BDE7174A137025E6002390E74FF4A9
:105A20007A73B5E706EB860AA7E6032B7FF423AE6D
:105A3000124C23681E440D2EA8BF0D2626EAE676DA
:105A400030462660FFF718FD0D4B22681A6012E6FB
:105A5000593E00207D3E0020143E0020D8980020B2
:105A6000184F0020783E00209C970020D34D6210F4
:105A7000F14E0020D41B0220ABAAAAAA683E002047
:105A80005C97002064A50220048C0020F0B5254D11
:105A9000254F264E83B0FDF7DBFE2846002100246B
:105AA00005F050FD4FF4A07322462846214600938E
:105AB0000194F02305F052F928464DF29A6107F05F
:105AC000B3FC1B4BAB6121462846642207F090FCD7
:105AD0000922184928460CF083F8384611F070FA6C
