:1000000000000320D1010000791F0100311F010011
:10001000311F0100311F0100311F0100311F01009C
:10002000311F0100311F0100311F0100791F010044
:10003000791F0100311F01006D340100713501008D
:10004000791F0100791F0100791F0100791F01004C
:10005000791F0100791F0100791F0100791F01003C
:10006000791F0100791F0100791F0100791F01002C
:10007000791F0100791F0100791F0100791F01001C
:10008000791F0100791F0100791F0100791F01000C
:10009000791F0100791F0100791F0100791F0100FC
:1000A000ED4E0100F94E0100791F0100791F01009A
:1000B000791F0100791F0100791F0100B935010086
:1000C000791F0100E5360100791F01001138010098
:1000D000791F010009390100791F0100791F010012
:1000E000791F0100791F0100791F0100791F0100AC
:1000F000791F0100791F0100791F0100791F01009C
:10010000791F0100791F0100791F0100791F01008B
:10011000791F010005260100791F0100791F0100E8
:10012000791F0100791F0100791F0100791F01006B
:10013000791F0100791F0100791F0100791F01005B
:1001400059140100791F0100013A0100791F0100D3
:10015000791F0100791F0100791F0100791F01003B
:10016000791F0100791F0100054F0100791F01006F
:10017000791F0100791F0100791F0100791F01001B
:10018000791F0100791F0100791F0100791F01000B
:10019000791F0100791F0100F93A0100791F010060
:1001A000791F0100791F0100791F0100791F0100EB
:1001B000791F0100791F0100791F0100791F0100DB
:1001C000791F0100791F0100791F0100791F0100CB
:1001D0005C4B4CF2205210B51A804DF628121A8052
:1001E00000BF00BF11F0CCFE574B4FF030621A60D9
:1001F000564A9A60564ADA60564B4FF470021A60BB
:10020000554B564A1A60564A136813F4807304D14A
:1002100054490B604FF4A8531360534B1A781107DD
:1002200003D51A7842F008021A70504B5049AA229E
:100230001A70504A504B8B4204D252F8040F43F8C4
:10024000040BF8E74D4B4E4900228B4202D243F893
:10025000042BFAE74B494C4A002352F8230041F89B
:1002600023000133742BF8D1484B494A802103F80D
:10027000011B9342FBD1474B424A1A60464B8A22EC
:100280001A70A3F5805324225A70A0221A709A790A
:100290009207FCD59A79D406FCD4404A937903F0AE
:1002A0000C03082BFAD13E4B60221A7002331A78E5
:1002B000802AFCD1394B01221A715D225A719A7938
:1002C0009006FCD59979354A4906FBD5354B364918
:1002D00019600021596020231370937903F00C03F7
:1002E0000C2BFAD1314B324A1A60324B324A1A6027
:1002F00000225A60072243F8042C304AC3F80C2D20
:1003000062B612F023F8174B1B68DA0705D52C48A4
:1003100011F09EFF2B4B2C4A1A602C4B1B785B066E
:1003200009D5284C284B22689A4204D1244811F060
:100330008FFF0023236015F0EFFB11F027FE11F073
:1003400055FDFEE70E20054030800440823F04004A
:100350000100002B88ED00E0002008E0030000858C
:1003600010D0034014D0034002D0074000E0074003
:10037000204C002084E40200303D0020204C00206E
:10038000B0A90220003800200000000000E400E0D6
:1003900064E400E008ED00E0005006400040064044
:1003A00001E007404480044000000602048004404D
:1003B000C010070014E000E01FBF02000000202072
:1003C00022C4525D1CE00340A5C3945A00F00740CC
:1003D000FFFFFFFFFFFFFFFFFFFFFFFFFFFFFFFF2D
:1003E000FFFFFFFFFFFFFFFFFFFFFFFFFFFFFFFF1D
:1003F000FFFFFFFFFFFFFFFFFFFFFFFFFFFFFFFF0D
:10040000FFFFFFFFFFFFFFFFFFFFFFFFDEF9FFFF23
:1004100010B5054C237833B9044B13B10448AFF33E
:1004200000800123237010BD204C0020000000003C
:1004300080E40200084B10B51BB108490848AFF32F
:1004400000800848036803B910BD074B002BFBD0A0
:10045000BDE81040184700BF00000000244C0020F9
:1004600080E40200204C00200000000011F0EABEF1
:1004700010B5044B044640F8183B05F0CDFE20466D
:1004800010BD00BFC8B1010010B5044610F09CFFBC
:10049000204610BD214B10B4D3F8E82013685068F3
:1004A00019780478507A137A044201EA03011BD0C8
:1004B000937A03F0030309B143F0040343F0080304
:1004C0009910013B91720D2B0BD8DFE803F0210747
:1004D0001B070A152121150A071B0721D368013BB9
:1004E000D3605DF8044B7047937A03F0030300294F
:1004F000E6D043F00403E3E7D3685DF8044B023B26
:10050000D3607047D3685DF8044B0233D360704703
:10051000D3685DF8044B0133D3607047A0A3022079
:10052000214B10B4D3F8EC20136850681978047884
:10053000507A137A044201EA03011BD0937A03F044
:10054000030309B143F0040343F008039910013B8E
:1005500091720D2B0BD8DFE803F021071B070A155A
:100560002121150A071B0721D368013BD3605DF8E1
:10057000044B7047937A03F003030029E6D043F05D
:100580000403E3E7D3685DF8044B023BD360704794
:10059000D3685DF8044B0233D3607047D3685DF8CD
:1005A000044B0133D3607047A0A30220214B10B449
:1005B000D3F8D8201368506819780478507A137AE1
:1005C000044201EA03011BD0937A03F0030309B14B
:1005D00043F0040343F008039910013B91720D2B83
:1005E0000BD8DFE803F021071B070A152121150AA4
:1005F000071B0721D368013BD3605DF8044B7047AC
:10060000937A03F003030029E6D043F00403E3E701
:10061000D3685DF8044B023BD3607047D3685DF844
:10062000044B0233D3607047D3685DF8044B013349
:10063000D3607047A0A30220214B10B4D3F8DC2074
:100640001368506819780478507A137A044201EAE2
:1006500003011BD0937A03F0030309B143F00403B1
:1006600043F008039910013B91720D2B0BD8DFE882
:1006700003F021071B070A152121150A071B072173
:10068000D368013BD3605DF8044B7047937A03F065
:1006900003030029E6D043F00403E3E7D3685DF8E1
:1006A000044B023BD3607047D3685DF8044B0233C0
:1006B000D3607047D3685DF8044B0133D360704753
:1006C000A0A30220214B10B4D3F8E0201368506897
:1006D00019780478507A137A044201EA03011BD096
:1006E000937A03F0030309B143F0040343F00803D2
:1006F0009910013B91720D2B0BD8DFE803F0210715
:100700001B070A152121150A071B0721D368013B86
:10071000D3605DF8044B7047937A03F0030300291C
:10072000E6D043F00403E3E7D3685DF8044B023BF3
:10073000D3607047D3685DF8044B0233D3607047D1
:10074000D3685DF8044B0133D3607047A0A3022047
:10075000214B10B4D3F8E42013685068197804785A
:10076000507A137A044201EA03011BD0937A03F012
:10077000030309B143F0040343F008039910013B5C
:1007800091720D2B0BD8DFE803F021071B070A1528
:100790002121150A071B0721D368013BD3605DF8AF
:1007A000044B7047937A03F003030029E6D043F02B
:1007B0000403E3E7D3685DF8044B023BD360704762
:1007C000D3685DF8044B0233D3607047D3685DF89B
:1007D000044B0133D3607047A0A30220214B10B417
:1007E000D3F898201368506819780478507A137AEF
:1007F000044201EA03011BD0937A03F0030309B119
:1008000043F0040343F008039910013B91720D2B50
:100810000BD8DFE803F021071B070A152121150A71
:10082000071B0721D368013BD3605DF8044B704779
:10083000937A03F003030029E6D043F00403E3E7CF
:10084000D3685DF8044B023BD3607047D3685DF812
:10085000044B0233D3607047D3685DF8044B013317
:10086000D3607047A0A30220214B10B4D3F89C2082
:100870001368506819780478507A137A044201EAB0
:1008800003011BD0937A03F0030309B143F004037F
:1008900043F008039910013B91720D2B0BD8DFE850
:1008A00003F021071B070A152121150A071B072141
:1008B000D368013BD3605DF8044B7047937A03F033
:1008C00003030029E6D043F00403E3E7D3685DF8AF
:1008D000044B023BD3607047D3685DF8044B02338E
:1008E000D3607047D3685DF8044B0133D360704721
:1008F000A0A30220214B10B4D3F8A02013685068A5
:1009000019780478507A137A044201EA03011BD063
:10091000937A03F0030309B143F0040343F008039F
:100920009910013B91720D2B0BD8DFE803F02107E2
:100930001B070A152121150A071B0721D368013B54
:10094000D3605DF8044B7047937A03F003030029EA
:10095000E6D043F00403E3E7D3685DF8044B023BC1
:10096000D3607047D3685DF8044B0233D36070479F
:10097000D3685DF8044B0133D3607047A0A3022015
:10098000214B10B4D3F8A420136850681978047868
:10099000507A137A044201EA03011BD0937A03F0E0
:1009A000030309B143F0040343F008039910013B2A
:1009B00091720D2B0BD8DFE803F021071B070A15F6
:1009C0002121150A071B0721D368013BD3605DF87D
:1009D000044B7047937A03F003030029E6D043F0F9
:1009E0000403E3E7D3685DF8044B023BD360704730
:1009F000D3685DF8044B0233D3607047D3685DF869
:100A0000044B0133D3607047A0A30220214B10B4E4
:100A1000D3F8A8201368506819780478507A137AAC
:100A2000044201EA03011BD0937A03F0030309B1E6
:100A300043F0040343F008039910013B91720D2B1E
:100A40000BD8DFE803F021071B070A152121150A3F
:100A5000071B0721D368013BD3605DF8044B704747
:100A6000937A03F003030029E6D043F00403E3E79D
:100A7000D3685DF8044B023BD3607047D3685DF8E0
:100A8000044B0233D3607047D3685DF8044B0133E5
:100A9000D3607047A0A30220214B10B4D3F8AC2040
:100AA0001368506819780478507A137A044201EA7E
:100AB00003011BD0937A03F0030309B143F004034D
:100AC00043F008039910013B91720D2B0BD8DFE81E
:100AD00003F021071B070A152121150A071B07210F
:100AE000D368013BD3605DF8044B7047937A03F001
:100AF00003030029E6D043F00403E3E7D3685DF87D
:100B0000044B023BD3607047D3685DF8044B02335B
:100B1000D3607047D3685DF8044B0133D3607047EE
:100B2000A0A30220214B10B4D3F8B0201368506862
:100B300019780478507A137A044201EA03011BD031
:100B4000937A03F0030309B143F0040343F008036D
:100B50009910013B91720D2B0BD8DFE803F02107B0
:100B60001B070A152121150A071B0721D368013B22
:100B7000D3605DF8044B7047937A03F003030029B8
:100B8000E6D043F00403E3E7D3685DF8044B023B8F
:100B9000D3607047D3685DF8044B0233D36070476D
:100BA000D3685DF8044B0133D3607047A0A30220E3
:100BB000214B10B4D3F8B420136850681978047826
:100BC000507A137A044201EA03011BD0937A03F0AE
:100BD000030309B143F0040343F008039910013BF8
:100BE00091720D2B0BD8DFE803F021071B070A15C4
:100BF0002121150A071B0721D368013BD3605DF84B
:100C0000044B7047937A03F003030029E6D043F0C6
:100C10000403E3E7D3685DF8044B023BD3607047FD
:100C2000D3685DF8044B0233D3607047D3685DF836
:100C3000044B0133D3607047A0A30220214B10B4B2
:100C4000D3F8B8201368506819780478507A137A6A
:100C5000044201EA03011BD0937A03F0030309B1B4
:100C600043F0040343F008039910013B91720D2BEC
:100C70000BD8DFE803F021071B070A152121150A0D
:100C8000071B0721D368013BD3605DF8044B704715
:100C9000937A03F003030029E6D043F00403E3E76B
:100CA000D3685DF8044B023BD3607047D3685DF8AE
:100CB000044B0233D3607047D3685DF8044B0133B3
:100CC000D3607047A0A30220214B10B4D3F8BC20FE
:100CD0001368506819780478507A137A044201EA4C
:100CE00003011BD0937A03F0030309B143F004031B
:100CF00043F008039910013B91720D2B0BD8DFE8EC
:100D000003F021071B070A152121150A071B0721DC
:100D1000D368013BD3605DF8044B7047937A03F0CE
:100D200003030029E6D043F00403E3E7D3685DF84A
:100D3000044B023BD3607047D3685DF8044B023329
:100D4000D3607047D3685DF8044B0133D3607047BC
:100D5000A0A30220214B10B4D3F8C0201368506820
:100D600019780478507A137A044201EA03011BD0FF
:100D7000937A03F0030309B143F0040343F008033B
:100D80009910013B91720D2B0BD8DFE803F021077E
:100D90001B070A152121150A071B0721D368013BF0
:100DA000D3605DF8044B7047937A03F00303002986
:100DB000E6D043F00403E3E7D3685DF8044B023B5D
:100DC000D3607047D3685DF8044B0233D36070473B
:100DD000D3685DF8044B0133D3607047A0A30220B1
:100DE000214B10B4D3F8C4201368506819780478E4
:100DF000507A137A044201EA03011BD0937A03F07C
:100E0000030309B143F0040343F008039910013BC5
:100E100091720D2B0BD8DFE803F021071B070A1591
:100E20002121150A071B0721D368013BD3605DF818
:100E3000044B7047937A03F003030029E6D043F094
:100E40000403E3E7D3685DF8044B023BD3607047CB
:100E5000D3685DF8044B0233D3607047D3685DF804
:100E6000044B0133D3607047A0A30220214B10B480
:100E7000D3F8C8201368506819780478507A137A28
:100E8000044201EA03011BD0937A03F0030309B182
:100E900043F0040343F008039910013B91720D2BBA
:100EA0000BD8DFE803F021071B070A152121150ADB
:100EB000071B0721D368013BD3605DF8044B7047E3
:100EC000937A03F003030029E6D043F00403E3E739
:100ED000D3685DF8044B023BD3607047D3685DF87C
:100EE000044B0233D3607047D3685DF8044B013381
:100EF000D3607047A0A30220214B10B4D3F8CC20BC
:100F00001368506819780478507A137A044201EA19
:100F100003011BD0937A03F0030309B143F00403E8
:100F200043F008039910013B91720D2B0BD8DFE8B9
:100F300003F021071B070A152121150A071B0721AA
:100F4000D368013BD3605DF8044B7047937A03F09C
:100F500003030029E6D043F00403E3E7D3685DF818
:100F6000044B023BD3607047D3685DF8044B0233F7
:100F7000D3607047D3685DF8044B0133D36070478A
:100F8000A0A30220214B10B4D3F8D02013685068DE
:100F900019780478507A137A044201EA03011BD0CD
:100FA000937A03F0030309B143F0040343F0080309
:100FB0009910013B91720D2B0BD8DFE803F021074C
:100FC0001B070A152121150A071B0721D368013BBE
:100FD000D3605DF8044B7047937A03F00303002954
:100FE000E6D043F00403E3E7D3685DF8044B023B2B
:100FF000D3607047D3685DF8044B0233D360704709
:10100000D3685DF8044B0133D3607047A0A302207E
:10101000214B10B4D3F8D4201368506819780478A1
:10102000507A137A044201EA03011BD0937A03F049
:10103000030309B143F0040343F008039910013B93
:1010400091720D2B0BD8DFE803F021071B070A155F
:101050002121150A071B0721D368013BD3605DF8E6
:10106000044B7047937A03F003030029E6D043F062
:101070000403E3E7D3685DF8044B023BD360704799
:10108000D3685DF8044B0233D3607047D3685DF8D2
:10109000044B0133D3607047A0A30220214B10B44E
:1010A0001A681368506819780478507A137A0442E1
:1010B00001EA03011BD0937A03F0030309B143F063
:1010C000040343F008039910013B91720D2B0BD8D8
:1010D000DFE803F021071B070A152121150A071B6A
:1010E0000721D368013BD3605DF8044B7047937AC6
:1010F00003F003030029E6D043F00403E3E7D368D9
:101100005DF8044B023BD3607047D3685DF8044B35
:101110000233D3607047D3685DF8044B0133D3606A
:10112000704700BFA0A30220214B10B45A68136877
:10113000506819780478507A137A044201EA03015E
:101140001BD0937A03F0030309B143F0040343F087
:1011500008039910013B91720D2B0BD8DFE803F0C7
:1011600021071B070A152121150A071B0721D36830
:10117000013BD3605DF8044B7047937A03F003039F
:101180000029E6D043F00403E3E7D3685DF8044B9D
:10119000023BD3607047D3685DF8044B0233D360E1
:1011A0007047D3685DF8044B0133D360704700BFCC
:1011B000A0A30220214B10B49A68136850681978D4
:1011C0000478507A137A044201EA03011BD0937A1F
:1011D00003F0030309B143F0040343F0080399103B
:1011E000013B91720D2B0BD8DFE803F021071B07A1
:1011F0000A152121150A071B0721D368013BD3607B
:101200005DF8044B7047937A03F003030029E6D09E
:1012100043F00403E3E7D3685DF8044B023BD3607B
:101220007047D3685DF8044B0233D3607047D368CE
:101230005DF8044B0133D360704700BFA0A30220C8
:10124000214B10B4DA681368506819780478507A22
:10125000137A044201EA03011BD0937A03F00303DB
:1012600009B143F0040343F008039910013B917264
:101270000D2B0BD8DFE803F021071B070A152121EE
:10128000150A071B0721D368013BD3605DF8044BA7
:101290007047937A03F003030029E6D043F0040378
:1012A000E3E7D3685DF8044B023BD3607047D36833
:1012B0005DF8044B0233D3607047D3685DF8044B8C
:1012C0000133D360704700BFA0A30220214B10B4AC
:1012D0001A691368506819780478507A137A0442AE
:1012E00001EA03011BD0937A03F0030309B143F031
:1012F000040343F008039910013B91720D2B0BD8A6
:10130000DFE803F021071B070A152121150A071B37
:101310000721D368013BD3605DF8044B7047937A93
:1013200003F003030029E6D043F00403E3E7D368A6
:101330005DF8044B023BD3607047D3685DF8044B03
:101340000233D3607047D3685DF8044B0133D36038
:10135000704700BFA0A30220214B10B45A69136844
:10136000506819780478507A137A044201EA03012C
:101370001BD0937A03F0030309B143F0040343F055
:1013800008039910013B91720D2B0BD8DFE803F095
:1013900021071B070A152121150A071B0721D368FE
:1013A000013BD3605DF8044B7047937A03F003036D
:1013B0000029E6D043F00403E3E7D3685DF8044B6B
:1013C000023BD3607047D3685DF8044B0233D360AF
:1013D0007047D3685DF8044B0133D360704700BF9A
:1013E000A0A30220214B10B49A69136850681978A1
:1013F0000478507A137A044201EA03011BD0937AED
:1014000003F0030309B143F0040343F00803991008
:10141000013B91720D2B0BD8DFE803F021071B076E
:101420000A152121150A071B0721D368013BD36048
:101430005DF8044B7047937A03F003030029E6D06C
:1014400043F00403E3E7D3685DF8044B023BD36049
:101450007047D3685DF8044B0233D3607047D3689C
:101460005DF8044B0133D360704700BFA0A3022096
:10147000214B10B4DA691368506819780478507AEF
:10148000137A044201EA03011BD0937A03F00303A9
:1014900009B143F0040343F008039910013B917232
:1014A0000D2B0BD8DFE803F021071B070A152121BC
:1014B000150A071B0721D368013BD3605DF8044B75
:1014C0007047937A03F003030029E6D043F0040346
:1014D000E3E7D3685DF8044B023BD3607047D36801
:1014E0005DF8044B0233D3607047D3685DF8044B5A
:1014F0000133D360704700BFA0A30220214B10B47A
:101500001A6A1368506819780478507A137A04427A
:1015100001EA03011BD0937A03F0030309B143F0FE
:10152000040343F008039910013B91720D2B0BD873
:10153000DFE803F021071B070A152121150A071B05
:101540000721D368013BD3605DF8044B7047937A61
:1015500003F003030029E6D043F00403E3E7D36874
:101560005DF8044B023BD3607047D3685DF8044BD1
:101570000233D3607047D3685DF8044B0133D36006
:10158000704700BFA0A30220214B10B45A6A136811
:10159000506819780478507A137A044201EA0301FA
:1015A0001BD0937A03F0030309B143F0040343F023
:1015B00008039910013B91720D2B0BD8DFE803F063
:1015C00021071B070A152121150A071B0721D368CC
:1015D000013BD3605DF8044B7047937A03F003033B
:1015E0000029E6D043F00403E3E7D3685DF8044B39
:1015F000023BD3607047D3685DF8044B0233D3607D
:101600007047D3685DF8044B0133D360704700BF67
:10161000A0A30220214B10B49A6A1368506819786D
:101620000478507A137A044201EA03011BD0937ABA
:1016300003F0030309B143F0040343F008039910D6
:10164000013B91720D2B0BD8DFE803F021071B073C
:101650000A152121150A071B0721D368013BD36016
:101660005DF8044B7047937A03F003030029E6D03A
:1016700043F00403E3E7D3685DF8044B023BD36017
:101680007047D3685DF8044B0233D3607047D3686A
:101690005DF8044B0133D360704700BFA0A3022064
:1016A000214B10B4DA6A1368506819780478507ABC
:1016B000137A044201EA03011BD0937A03F0030377
:1016C00009B143F0040343F008039910013B917200
:1016D0000D2B0BD8DFE803F021071B070A1521218A
:1016E000150A071B0721D368013BD3605DF8044B43
:1016F0007047937A03F003030029E6D043F0040314
:10170000E3E7D3685DF8044B023BD3607047D368CE
:101710005DF8044B0233D3607047D3685DF8044B27
:101720000133D360704700BFA0A30220214B10B447
:101730001A6B1368506819780478507A137A044247
:1017400001EA03011BD0937A03F0030309B143F0CC
:10175000040343F008039910013B91720D2B0BD841
:10176000DFE803F021071B070A152121150A071BD3
:101770000721D368013BD3605DF8044B7047937A2F
:1017800003F003030029E6D043F00403E3E7D36842
:101790005DF8044B023BD3607047D3685DF8044B9F
:1017A0000233D3607047D3685DF8044B0133D360D4
:1017B000704700BFA0A30220214B10B45A6B1368DE
:1017C000506819780478507A137A044201EA0301C8
:1017D0001BD0937A03F0030309B143F0040343F0F1
:1017E00008039910013B91720D2B0BD8DFE803F031
:1017F00021071B070A152121150A071B0721D3689A
:10180000013BD3605DF8044B7047937A03F0030308
:101810000029E6D043F00403E3E7D3685DF8044B06
:10182000023BD3607047D3685DF8044B0233D3604A
:101830007047D3685DF8044B0133D360704700BF35
:10184000A0A30220214B10B49A6B1368506819783A
:101850000478507A137A044201EA03011BD0937A88
:1018600003F0030309B143F0040343F008039910A4
:10187000013B91720D2B0BD8DFE803F021071B070A
:101880000A152121150A071B0721D368013BD360E4
:101890005DF8044B7047937A03F003030029E6D008
:1018A00043F00403E3E7D3685DF8044B023BD360E5
:1018B0007047D3685DF8044B0233D3607047D36838
:1018C0005DF8044B0133D360704700BFA0A3022032
:1018D000214B10B4DA6B1368506819780478507A89
:1018E000137A044201EA03011BD0937A03F0030345
:1018F00009B143F0040343F008039910013B9172CE
:101900000D2B0BD8DFE803F021071B070A15212157
:10191000150A071B0721D368013BD3605DF8044B10
:101920007047937A03F003030029E6D043F00403E1
:10193000E3E7D3685DF8044B023BD3607047D3689C
:101940005DF8044B0233D3607047D3685DF8044BF5
:101950000133D360704700BFA0A30220214B10B415
:101960001A6C1368506819780478507A137A044214
:1019700001EA03011BD0937A03F0030309B143F09A
:10198000040343F008039910013B91720D2B0BD80F
:10199000DFE803F021071B070A152121150A071BA1
:1019A0000721D368013BD3605DF8044B7047937AFD
:1019B00003F003030029E6D043F00403E3E7D36810
:1019C0005DF8044B023BD3607047D3685DF8044B6D
:1019D0000233D3607047D3685DF8044B0133D360A2
:1019E000704700BFA0A30220214B10B45A6C1368AB
:1019F000506819780478507A137A044201EA030196
:101A00001BD0937A03F0030309B143F0040343F0BE
:101A100008039910013B91720D2B0BD8DFE803F0FE
:101A200021071B070A152121150A071B0721D36867
:101A3000013BD3605DF8044B7047937A03F00303D6
:101A40000029E6D043F00403E3E7D3685DF8044BD4
:101A5000023BD3607047D3685DF8044B0233D36018
:101A60007047D3685DF8044B0133D360704700BF03
:101A7000A0A30220214B10B49A6C13685068197807
:101A80000478507A137A044201EA03011BD0937A56
:101A900003F0030309B143F0040343F00803991072
:101AA000013B91720D2B0BD8DFE803F021071B07D8
:101AB0000A152121150A071B0721D368013BD360B2
:101AC0005DF8044B7047937A03F003030029E6D0D6
:101AD00043F00403E3E7D3685DF8044B023BD360B3
:101AE0007047D3685DF8044B0233D3607047D36806
:101AF0005DF8044B0133D360704700BFA0A3022000
:101B0000214B10B4DA6C1368506819780478507A55
:101B1000137A044201EA03011BD0937A03F0030312
:101B200009B143F0040343F008039910013B91729B
:101B30000D2B0BD8DFE803F021071B070A15212125
:101B4000150A071B0721D368013BD3605DF8044BDE
:101B50007047937A03F003030029E6D043F00403AF
:101B6000E3E7D3685DF8044B023BD3607047D3686A
:101B70005DF8044B0233D3607047D3685DF8044BC3
:101B80000133D360704700BFA0A30220214B10B4E3
:101B90001A6D1368506819780478507A137A0442E1
:101BA00001EA03011BD0937A03F0030309B143F068
:101BB000040343F008039910013B91720D2B0BD8DD
:101BC000DFE803F021071B070A152121150A071B6F
:101BD0000721D368013BD3605DF8044B7047937ACB
:101BE00003F003030029E6D043F00403E3E7D368DE
:101BF0005DF8044B023BD3607047D3685DF8044B3B
:101C00000233D3607047D3685DF8044B0133D3606F
:101C1000704700BFA0A30220214B10B45A6D136877
:101C2000506819780478507A137A044201EA030163
:101C30001BD0937A03F0030309B143F0040343F08C
:101C400008039910013B91720D2B0BD8DFE803F0CC
:101C500021071B070A152121150A071B0721D36835
:101C6000013BD3605DF8044B7047937A03F00303A4
:101C70000029E6D043F00403E3E7D3685DF8044BA2
:101C8000023BD3607047D3685DF8044B0233D360E6
:101C90007047D3685DF8044B0133D360704700BFD1
:101CA000A0A30220214B10B49A6D136850681978D4
:101CB0000478507A137A044201EA03011BD0937A24
:101CC00003F0030309B143F0040343F00803991040
:101CD000013B91720D2B0BD8DFE803F021071B07A6
:101CE0000A152121150A071B0721D368013BD36080
:101CF0005DF8044B7047937A03F003030029E6D0A4
:101D000043F00403E3E7D3685DF8044B023BD36080
:101D10007047D3685DF8044B0233D3607047D368D3
:101D20005DF8044B0133D360704700BFA0A30220CD
:101D3000214B10B4DA6D1368506819780478507A22
:101D4000137A044201EA03011BD0937A03F00303E0
:101D500009B143F0040343F008039910013B917269
:101D60000D2B0BD8DFE803F021071B070A152121F3
:101D7000150A071B0721D368013BD3605DF8044BAC
:101D80007047937A03F003030029E6D043F004037D
:101D9000E3E7D3685DF8044B023BD3607047D36838
:101DA0005DF8044B0233D3607047D3685DF8044B91
:101DB0000133D360704700BFA0A30220214B10B4B1
:101DC0001A6E1368506819780478507A137A0442AE
:101DD00001EA03011BD0937A03F0030309B143F036
:101DE000040343F008039910013B91720D2B0BD8AB
:101DF000DFE803F021071B070A152121150A071B3D
:101E00000721D368013BD3605DF8044B7047937A98
:101E100003F003030029E6D043F00403E3E7D368AB
:101E20005DF8044B023BD3607047D3685DF8044B08
:101E30000233D3607047D3685DF8044B0133D3603D
:101E4000704700BFA0A30220214B10B45A6E136844
:101E5000506819780478507A137A044201EA030131
:101E60001BD0937A03F0030309B143F0040343F05A
:101E700008039910013B91720D2B0BD8DFE803F09A
:101E800021071B070A152121150A071B0721D36803
:101E9000013BD3605DF8044B7047937A03F0030372
:101EA0000029E6D043F00403E3E7D3685DF8044B70
:101EB000023BD3607047D3685DF8044B0233D360B4
:101EC0007047D3685DF8044B0133D360704700BF9F
:101ED000A0A30220214B10B49A6E136850681978A1
:101EE0000478507A137A044201EA03011BD0937AF2
:101EF00003F0030309B143F0040343F0080399100E
:101F0000013B91720D2B0BD8DFE803F021071B0773
:101F10000A152121150A071B0721D368013BD3604D
:101F20005DF8044B7047937A03F003030029E6D071
:101F300043F00403E3E7D3685DF8044B023BD3604E
:101F40007047D3685DF8044B0233D3607047D368A1
:101F50005DF8044B0133D360704700BFA0A302209B
:101F6000214B10B4DA6E1368506819780478507AEF
:101F7000137A044201EA03011BD0937A03F00303AE
:101F800009B143F0040343F008039910013B917237
:101F90000D2B0BD8DFE803F021071B070A152121C1
:101FA000150A071B0721D368013BD3605DF8044B7A
:101FB0007047937A03F003030029E6D043F004034B
:101FC000E3E7D3685DF8044B023BD3607047D36806
:101FD0005DF8044B0233D3607047D3685DF8044B5F
:101FE0000133D360704700BFA0A30220214B10B47F
:101FF0001A6F1368506819780478507A137A04427B
:1020000001EA03011BD0937A03F0030309B143F003
:10201000040343F008039910013B91720D2B0BD878
:10202000DFE803F021071B070A152121150A071B0A
:102030000721D368013BD3605DF8044B7047937A66
:1020400003F003030029E6D043F00403E3E7D36879
:102050005DF8044B023BD3607047D3685DF8044BD6
:102060000233D3607047D3685DF8044B0133D3600B
:10207000704700BFA0A30220214B10B45A6F136811
:10208000506819780478507A137A044201EA0301FF
:102090001BD0937A03F0030309B143F0040343F028
:1020A00008039910013B91720D2B0BD8DFE803F068
:1020B00021071B070A152121150A071B0721D368D1
:1020C000013BD3605DF8044B7047937A03F0030340
:1020D0000029E6D043F00403E3E7D3685DF8044B3E
:1020E000023BD3607047D3685DF8044B0233D36082
:1020F0007047D3685DF8044B0133D360704700BF6D
:10210000A0A30220214B10B49A6F1368506819786D
:102110000478507A137A044201EA03011BD0937ABF
:1021200003F0030309B143F0040343F008039910DB
:10213000013B91720D2B0BD8DFE803F021071B0741
:102140000A152121150A071B0721D368013BD3601B
:102150005DF8044B7047937A03F003030029E6D03F
:1021600043F00403E3E7D3685DF8044B023BD3601C
:102170007047D3685DF8044B0233D3607047D3686F
:102180005DF8044B0133D360704700BFA0A3022069
:10219000214B10B4DA6F1368506819780478507ABC
:1021A000137A044201EA03011BD0937A03F003037C
:1021B00009B143F0040343F008039910013B917205
:1021C0000D2B0BD8DFE803F021071B070A1521218F
:1021D000150A071B0721D368013BD3605DF8044B48
:1021E0007047937A03F003030029E6D043F0040319
:1021F000E3E7D3685DF8044B023BD3607047D368D4
:102200005DF8044B0233D3607047D3685DF8044B2C
:102210000133D360704700BFA0A30220214B10B44C
:10222000D3F880201368506819780478507A137AAC
:10223000044201EA03011BD0937A03F0030309B1BE
:1022400043F0040343F008039910013B91720D2BF6
:102250000BD8DFE803F021071B070A152121150A17
:10226000071B0721D368013BD3605DF8044B70471F
:10227000937A03F003030029E6D043F00403E3E775
:10228000D3685DF8044B023BD3607047D3685DF8B8
:10229000044B0233D3607047D3685DF8044B0133BD
:1022A000D3607047A0A30220214B10B4D3F8842040
:1022B0001368506819780478507A137A044201EA56
:1022C00003011BD0937A03F0030309B143F0040325
:1022D00043F008039910013B91720D2B0BD8DFE8F6
:1022E00003F021071B070A152121150A071B0721E7
:1022F000D368013BD3605DF8044B7047937A03F0D9
:1023000003030029E6D043F00403E3E7D3685DF854
:10231000044B023BD3607047D3685DF8044B023333
:10232000D3607047D3685DF8044B0133D3607047C6
:10233000A0A30220214B10B4D3F888201368506862
:1023400019780478507A137A044201EA03011BD009
:10235000937A03F0030309B143F0040343F0080345
:102360009910013B91720D2B0BD8DFE803F0210788
:102370001B070A152121150A071B0721D368013BFA
:10238000D3605DF8044B7047937A03F00303002990
:10239000E6D043F00403E3E7D3685DF8044B023B67
:1023A000D3607047D3685DF8044B0233D360704745
:1023B000D3685DF8044B0133D3607047A0A30220BB
:1023C000214B10B4D3F88C20136850681978047826
:1023D000507A137A044201EA03011BD0937A03F086
:1023E000030309B143F0040343F008039910013BD0
:1023F00091720D2B0BD8DFE803F021071B070A159C
:102400002121150A071B0721D368013BD3605DF822
:10241000044B7047937A03F003030029E6D043F09E
:102420000403E3E7D3685DF8044B023BD3607047D5
:10243000D3685DF8044B0233D3607047D3685DF80E
:10244000044B0133D3607047A0A30220214B10B48A
:10245000D3F890201368506819780478507A137A6A
:10246000044201EA03011BD0937A03F0030309B18C
:1024700043F0040343F008039910013B91720D2BC4
:102480000BD8DFE803F021071B070A152121150AE5
:10249000071B0721D368013BD3605DF8044B7047ED
:1024A000937A03F003030029E6D043F00403E3E743
:1024B000D3685DF8044B023BD3607047D3685DF886
:1024C000044B0233D3607047D3685DF8044B01338B
:1024D000D3607047A0A30220214B10B4D3F89420FE
:1024E0001368506819780478507A137A044201EA24
:1024F00003011BD0937A03F0030309B143F00403F3
:1025000043F008039910013B91720D2B0BD8DFE8C3
:1025100003F021071B070A152121150A071B0721B4
:10252000D368013BD3605DF8044B7047937A03F0A6
:1025300003030029E6D043F00403E3E7D3685DF822
:10254000044B023BD3607047D3685DF8044B023301
:10255000D3607047D3685DF8044B0133D360704794
:10256000A0A30220002310B4114C41720261046048
:102570000372C36041B1194600E0026942F82310BA
:10258000427A01339A42F8DC0A4B1A680AB90CE025
:102590001A465369002BFBD15061002343618380AD
:1025A000C38083725DF8044B70471860F5E700BF85
:1025B0009CA30100B4A40220F8B5044615460E46BB
:1025C000084602210FF06AFE284602210FF066FE3F
:1025D000984A994B52F83610012001F50077276090
:1025E000207252F83520607202F500770020676093
:1025F000E060013BFDD191F8003292F8002203F037
:102600000103D20744BF43F00203DBB2A3723B2EA7
:1026100000F20386DFE816F0F405EA05E005D605CA
:10262000CC05C205B805AE05A4059A05900586053A
:102630007C05720568055E0554054A0540053605AA
:102640002C05220518050E050405FA04F004E6041D
:10265000DC04D204C804BE04B304A8049D0492049C
:1026600087047C0428041E0414040A040004F603EE
:10267000EC03E203D803CE03C403BA03B003A603FA
:102680009C03920388037E0374036A0360033C0087
:102690006A4B6B49C3F8EC4004223B200FF056FD17
:1026A000012323743B2D00F2B585DFE815F00B0301
:1026B0000103F702ED02E302D902CF02C502BB0219
:1026C000B102A7029D02930289027F023102270212
:1026D0001D0213020902FF01F501EB01E101D7011F
:1026E000CD01C301B901AF01A5019B019101860193
:1026F0007B01700165015A014F01440139012E012E
:10270000230118010D010201F700EC00E100B800FF
:10271000AD00A20097008C00810076006B00600085
:1027200055004A003C00454B4549C3F8EC400422A3
:102730003B200FF00BFD237C012213442374204621
:10274000F8BD3E4B3F49C3F8E84004223A200FF061
:10275000FDFC237C0122F0E7384B3B49C3F8E44001
:10276000042239200FF0F2FC237C0122E5E7334BF1
:102770003649C3F8E040042238200FF0E7FC237C00
:102780000122DAE72D4B3249C3F8DC40042237201E
:102790000FF0DCFC237C0122CFE7284B2D49C3F846
:1027A000D840042236200FF0D1FC237C0122C4E75C
:1027B000224B2949C3F8D440042235200FF0C6FC2F
:1027C000237C0122B9E71D4B2449C3F8D0400422E1
:1027D00034200FF0BBFC237C0122AEE7174B2049CD
:1027E000C3F8CC40042233200FF0B0FC237C01223C
:1027F000A3E7124B1B49C3F8C840042232200FF054
:10280000A5FC237C012298E70C4B1749C3F8C44070
:10281000042231200FF09AFC237C01228DE7074B24
:102820001249C3F8C040042230200FF08FFC237CF3
:10283000012282E7E0E40100C0D40100A0A302204D
:10284000210500009504000051070000C5060000A6
:1028500039060000AD05000011100000850F0000D2
:10286000F90E00006D0E0000E10D0000550D000096
:10287000AC4BAD49C3F8BC4004222F200FF066FCDE
:10288000237C012259E7A74BA849C3F8B84004228A
:102890002E200FF05BFC237C01224EE7A14BA449C4
:1028A000C3F8B44004222D200FF050FC237C0122F9
:1028B00043E79C4B9F49C3F8B04004222C200FF003
:1028C00045FC237C012238E7964B9B49C3F8AC407A
:1028D00004222B200FF03AFC237C01222DE7914BA0
:1028E0009649C3F8A84004222A200FF02FFC237C2D
:1028F000012222E78B4B9249C3F8A44004222920ED
:102900000FF024FC237C012217E7864B8D49C3F886
:10291000A040042228200FF019FC237C01220CE7A0
:10292000804B8949C3F89C40042227200FF00EFCFD
:10293000237C012201E77B4B8449C3F898400422A1
:1029400026200FF003FC237C0122F6E6754B80491C
:10295000C3F89440042225200FF0F8FB237C0122C9
:10296000EBE6704B7B49C3F89040042224200FF023
:10297000EDFB237C0122E0E66A4B7749C3F88C40EB
:10298000042223200FF0E2FB237C0122D5E6654BD5
:102990007249C3F88840042222200FF0D7FB237C21
:1029A0000122CAE65F4B6E49C3F88440042221200D
:1029B0000FF0CCFB237C0122BFE65A4B6949C3F8D8
:1029C0008040042220200FF0C1FB237C0122B4E6CA
:1029D000544B6549DC6704221F200FF0B7FB237CB2
:1029E0000122AAE64F4B61499C6704221E200FF08A
:1029F000ADFB237C0122A0E64A4B5D495C670422C3
:102A00001D200FF0A3FB237C012296E6454B59497C
:102A10001C6704221C200FF099FB237C01228CE60A
:102A2000404B5549DC6604221B200FF08FFB237CB2
:102A3000012282E63B4B51499C6604221A200FF08A
:102A400085FB237C012278E6364B4D495C660422E7
:102A500019200FF07BFB237C01226EE6314B4949A4
:102A60001C66042218200FF071FB237C012264E60F
:102A70002C4B4549DC65042217200FF067FB237CB3
:102A800001225AE6274B41499C65042216200FF08B
:102A90005DFB237C012250E6224B3D495C6504220C
:102AA00015200FF053FB237C012246E61D4B3949CC
:102AB0001C65042214200FF049FB237C01223CE614
:102AC000184B3549DC64042213200FF03FFB237CB4
:102AD000012232E6134B31499C64042212200FF08C
:102AE00035FB237C012228E60E4B2D495C64042231
:102AF00011200FF02BFB237C01221EE6094B2949F4
:102B00001C64042210200FF021FB237C012214E618
:102B1000044B2549DC6304220F200FF017FB237CB4
:102B200001220AE6A0A30220C90C00003D0C00000F
:102B3000B10B0000250B0000990A00000D0A0000EF
:102B400081090000F508000069080000DD070000A9
:102B5000D92400004D240000C123000035230000CB
:102B6000A92200001D220000912100000521000083
:102B700079200000ED1F0000611F0000D51E00003D
:102B8000491E0000BD1D0000311D0000A51C0000F5
:102B9000191C00008D1B0000011B0000751A0000AD
:102BA000E91900005D190000D1180000B34BB449C9
:102BB0009C6304220E200FF0C9FA237C0122BCE59D
:102BC000AE4BB0495C6304220D200FF0BFFA237CAA
:102BD0000122B2E5A94BAC491C6304220C200FF082
:102BE000B5FA237C0122A8E5A44BA849DC620422A3
:102BF0000B200FF0ABFA237C01229EE59F4BA449EA
:102C00009C6204220A200FF0A1FA237C012294E5A1
:102C10009A4BA0495C62042209200FF097FA237CAA
:102C200001228AE5954B9C491C62042208200FF082
:102C30008DFA237C012280E5904B9849DC610422C7
:102C400007200FF083FA237C012276E58B4B944911
:102C50009C61042206200FF079FA237C01226CE5A6
:102C6000864B90495C61042205200FF06FFA237CAB
:102C7000012262E5814B8C491C61042210460FF051
:102C800065FA237C012258E57C4B8849DC600422EC
:102C900003200FF05BFA237C01224EE5774B844939
:102CA0009C60042202200FF051FA237C012244E5AB
:102CB000724B80495C60042201200FF047FA237CAC
:102CC00001223AE56D4B7C491C60042200200FF084
:102CD0003DFA237C012230E5684B7849C3F8E8408F
:102CE00004223A200FF032FA0123DAE4634B7449EC
:102CF000C3F8E440042239200FF028FA0123D0E47D
:102D00005E4B7049C3F8E040042238200FF01EFAF1
:102D10000123C6E4594B6C49C3F8DC400422372038
:102D20000FF014FA0123BCE4544B6849C3F8D840AF
:102D3000042236200FF00AFA0123B2E44F4B644913
:102D4000C3F8D440042235200FF000FA0123A8E490
:102D50004A4B6049C3F8D040042234200FF0F6F902
:102D600001239EE4454B5C49C3F8CC400422332048
:102D70000FF0ECF9012394E4404B5849C3F8C840E4
:102D8000042232200FF0E2F901238AE43B4B54493C
:102D9000C3F8C440042231200FF0D8F9012380E4A5
:102DA000364B5049C3F8C040042230200FF0CEF912
:102DB000012376E4314B4C49C3F8BC4004222F2058
:102DC0000FF0C4F901236CE42C4B4849C3F8B84018
:102DD00004222E200FF0BAF9012362E4274B444964
:102DE000C3F8B44004222D200FF0B0F9012358E4B9
:102DF000224B4049C3F8B04004222C200FF0A6F922
:102E000001234EE41D4B3C49C3F8AC4004222B2067
:102E10000FF09CF9012344E4184B3849C3F8A8404B
:102E200004222A200FF092F901233AE4134B34498B
:102E3000C3F8A440042229200FF088F9012330E4CC
:102E40000E4B3049C3F8A040042228200FF07EF931
:102E5000012326E4094B2C49C3F89C400422272077
:102E60000FF074F901231CE4044B2849C3F898407F
:102E7000042226200FF06AF9012312E4A0A3022005
:102E800045180000B91700002D170000A11600001A
:102E90001516000089150000FD14000071140000D3
:102EA000E513000059130000CD120000411200008C
:102EB000B5110000291100009D10000095040000CC
:102EC00051070000C506000039060000AD050000EE
:102ED00011100000850F0000F90E00006D0E0000BB
:102EE000E10D0000550D0000C90C00003D0C000074
:102EF000B10B0000250B0000990A00000D0A00002C
:102F000081090000F508000069080000DD070000E5
:102F1000C34BC449C3F89440042225200FF016F98E
:102F20000123FFF7BEBBBE4BBF49C3F8904004224C
:102F300024200FF00BF90123FFF7B3BBB84BBB49BB
:102F4000C3F88C40042223200FF000F90123FFF77F
:102F5000A8BBB34BB649C3F88840042222200FF027
:102F6000F5F80123FFF79DBBAD4BB249C3F8844090
:102F7000042221200FF0EAF80123FFF792BBA84BAF
:102F8000AD49C3F88040042220200FF0DFF8012370
:102F9000FFF787BBA24BA949DC6704221F200FF073
:102FA000D5F80123FFF77DBB9D4BA5499C67042203
:102FB0001E200FF0CBF80123FFF773BB984BA149FC
:102FC0005C6704221D200FF0C1F80123FFF769BBE5
:102FD000934B9D491C6704221C200FF0B7F8012376
:102FE000FFF75FBB8E4B9949DC6604221B200FF074
:102FF000ADF80123FFF755BB894B95499C66042228
:103000001A200FF0A3F80123FFF74BBB844B914923
:103010005C66042219200FF099F80123FFF741BBE9
:103020007F4B8D491C66042218200FF08FF8012376
:10303000FFF737BB7A4B8949DC65042217200FF074
:1030400085F80123FFF72DBB754B85499C6504224C
:1030500016200FF07BF80123FFF723BB704B81494B
:103060005C65042215200FF071F80123FFF719BBEE
:103070006B4B7D491C65042214200FF067F8012377
:10308000FFF70FBB664B7949DC64042213200FF075
:103090005DF80123FFF705BB614B75499C64042271
:1030A00012200FF053F80123FFF7FBBA5C4B714974
:1030B0005C64042211200FF049F80123FFF7F1BAF4
:1030C000574B6D491C64042210200FF03FF8012378
:1030D000FFF7E7BA524B6949DC6304220F200FF077
:1030E00035F80123FFF7DDBA4D4B65499C63042297
:1030F0000E200FF02BF80123FFF7D3BA484B61499C
:103100005C6304220D200FF021F80123FFF7C9BAF8
:10311000434B5D491C6304220C200FF017F8012378
:10312000FFF7BFBA3E4B5949DC6204220B200FF077
:103130000DF80123FFF7B5BA394B55499C620422BB
:103140000A200FF003F80123FFF7ABBA344B5149C3
:103150005C62042209200EF0F9FF0123FFF7A1BAF7
:103160002F4B4D491C62042208200EF0EFFF012373
:10317000FFF797BA2A4B4949DC61042207200EF079
:10318000E5FF0123FFF78DBA254B45499C610422D9
:1031900006200EF0DBFF0123FFF783BA204B4149E5
:1031A0005C61042205200EF0D1FF0123FFF779BAFC
:1031B0001B4B3D491C61042210460EF0C7FF012342
:1031C000FFF76FBA164B3949DC60042203200EF07A
:1031D000BDFF0123FFF765BA114B35499C600422FE
:1031E00002200EF0B3FF0123FFF75BBA0C4B31490D
:1031F0005C60042201200EF0A9FF0123FFF751BA01
:10320000074B2D491C60042200200EF09FFF012374
:10321000FFF747BA0022FFF790BA0023FFF741BA41
:10322000A0A30220D92400004D240000C1230000E7
:1032300035230000A92200001D220000912100007A
:103240000521000079200000ED1F0000611F000033
:10325000D51E0000491E0000BD1D0000311D0000EC
:10326000A51C0000191C00008D1B0000011B0000A4
:10327000751A0000E91900005D190000D11800005E
:1032800045180000B91700002D170000A116000016
:103290001516000089150000FD14000071140000CF
:1032A000E513000059130000CD1200004112000088
:1032B000B5110000291100009D10000010B592B05A
:1032C000014601A80EF05EFA0023322201A805A9EA
:1032D0000EF07AFA05A905480DF00CFC044601A889
:1032E0000EF010FAA0B212B010BD00BFBC930020C7
:1032F00010B5A2B044221749044668460EF07EFD80
:1033000044220DEB020014490EF078FDADF10402E9
:10331000002352F8041FA14204D00133112BF8D12D
:1033200022B010BD0D490A68002AFCDB22AA02EB7C
:1033300083030B4913F8442C33F8423C013A12033F
:10334000013B02F47F22C3F30B0313430B6022B053
:1033500010BD00BFA0A30100E4A3010000F10240E2
:1033600004F102402DE9F04F2DED028BDFF8ECA0C7
:10337000364BDFED378A9FED378A85B0D34603930E
:103380004FF00009039B5BF8045F33F9022F0393AE
:1033900007EE902A07EE105AFAEEEF7AB8EEC77AE7
:1033A000FDEEE77A27EE287AF8EEE76A17EE904A04
:1033B000A6EE887A1FFA89F606F104084FF4FC603D
:1033C000BDEEC77A0FFA88F817EE107ABE2FD4BF79
:1033D00027EAE777BE27BE2CA8BFBE2423B25A2215
:1033E000A4B2414600901C480AF016FFC4F1BE0387
:1033F00004F15A02002441461BB212B2164800944E
:1034000005360AF009FF36B24FF44873314600938F
:103410005A222BB21048ADB20AF0FEFEC5F1BE032F
:1034200005F15A0209F10209009431461BB212B2A9
:1034300009480AF0F1FEB9F1FC0F4AF8047FA1D166
:1034400005B0BDEC028BBDE8F08F00BF5E8C0020A4
:103450003333733FCDCC4C3DBC930020C083002060
:10346000F8B55C4E34685CB1032C5B4D28D0022C5F
:103470003CD0012C60D0042C7DD000232B62F8BD01
:103480005648554D564F09F007FB564A564B1168A2
:103490001A68EC6191424FF48033AB6104BFEB6179
:1034A000AC61524B34685248524A00211960032CD7
:1034B0004FF001034FF002013B6003601160D6D171
:1034C0004FF480414548464F09F0CAFA474B3468EB
:1034D0004848474900221A60AA6101234FF480320C
:1034E000022C3B6003600B60EA61C2D14FF4804163
:1034F0003A4809F09FFA404BDFED406A93F90030FB
:1035000007EE903AF8EEE77AB7EE006A86EE277A91
:103510004FF480320023EA61AB61B4EEE67AF1EE5B
:1035200010FA3BD4F2EE007AB4EEE77AF1EE10FA3C
:1035300044DD4FF4002333E02848274C2B4F09F09B
:10354000ABFA284A284B116818684FF48032884239
:103550004FF00003EB61AA6108BFE26120482549F2
:10356000234A08BFA36101233468036000263E603C
:103570000B6013607FE719481C4F194E1D4C09F072
:103580008BFA1B48002201234FF480313A60EA6134
:10359000AA613360236003602962F8BD40F28F2383
:1035A0000E4F124C0E481349114A3B62012300276B
:1035B0002760036034680B6013605AE7DFED106A20
:1035C000DFED107AE7EE267AFCEEE77A17EE903A16
:1035D000E6E700BF749600203897002098960020F8
:1035E000409C0220D84E0020243E002084980020D9
:1035F00078960020A04E00205D3E00200AD7233C94
:1036000000008047EE7CFF3EF0B5474C474A4849F2
:1036100091B0002508A80123256002F0D5FE10AA6C
:1036200044480A9B12F8145D9DF8241083600573CA
:10363000017100F10D031A3012F8011F03F8011B8C
:1036400083423C49F8D10F9B3B4ECB6108A802F066
:10365000E3FD0023394F336005E008A802F0F2FDD6
:1036600008A802F0D9FD0122324908A802F020FF83
:1036700008A802F0F5FD40F2E63310B922689A423C
:103680004CDD08A802F0CCFD0028E6D108A802F025
:10369000C5FD014668460EF075F8294904A80EF0EC
:1036A00071F804A968460EF0A9F8054604A80EF0C2
:1036B00029F81DB968460EF025F8CEE7236803EB1C
:1036C000430503EB850308A8FD1802F0A7FD01469A
:1036D000284613F0F9F81B4904A80EF053F804A982
:1036E00068460EF08BF8054604A80EF00BF82B4642
:1036F0000122694604A80EF093F804A80EF0B4F86D
:10370000054604A80DF0FEFF326823680A49954279
:1037100003F10103C8BF0D602360CBE708A802F0E6
:103720007BFD11B0F0BD00BFE0960020D0A40100E9
:10373000449C02201C9C0220181C022000510020E6
:10374000D4A40100DCA4010008B505490122002031
:1037500006F03CFFFE210348BDE8084002F088BDAA
:10376000E0A40100449C022038B5064D0648074CF1
:103770002946012206F02AFF2070284607F0FCFAAD
:10378000207038BDE0A401003C4C0020BC8B002020
:10379000F8B5224C236833B9214B1A6840F2E6335E
:1037A0009A420DDDF8BD1F4807F0D4FA00231E4AE7
:1037B00023601B4B10701A6840F2E6339A42F1DC2A
:1037C0001A4F1B4B3D681B681A491B48164E0135A2
:1037D0002A463D6012F0EAFF0021174807F0E0FAA0
:1037E0000A22307014490F4806F01AFF0228307080
:1037F00008D00A2210490B4806F012FF012330704E
:103800002360F8BD074807F0A5FA09283070F0D109
:10381000094807F0EBFA3070EBE700BFA0980020F2
:10382000E0960020E8930020BC8B0020181C0220AA
:10383000A4980020E4A40100E49600202DE9F843B8
:10384000064609F0CDFD01282CDDDFF86490DFF895
:1038500058800025D8F80000134F05EB400430468F
:1038600009F0F0FD09EB042401464FF48072204674
:103870000EF0C4FA0135304609F002FE022DE9D1FE
:103880003B680133BF2B02D83B60BDE8F8830022C0
:10389000064B3A60064907484FF4C03207F03CF83F
:1038A000054B1870BDE8F883E09300209C4E002083
:1038B00000990020E8930020BC8B0020134A38B503
:1038C00000230446124D80F8F63013700CE009F026
:1038D000B9FD104B01464FF480720F4807F01CF8F9
:1038E0002870204609F0CCFD204609F079FD00281B
:1038F0002046ECDC084807F02DFA084B287000221F
:103900001A60BDE83840FFF77FBE00BFF04E0020D0
:10391000BC8B00209C4E0020E8930020A098002043
:1039200008B50948FFF7CAFF002108480AF0BCFFA4
:103930000749084A084B096811604FF480329A61C0
:10394000BDE80840FFF78CBD74970020BC930020B1
:103950003C9C022074960020C01B02202DE9F041FF
:103960008CB00DF1030600250746B0462C462846CC
:103970000EF0F4F908F8010F4440082314F0010F89
:103980004FEA540203F1FF3314BF82F08C04C4F3F6
:10399000470413F0FF03F1D101352B2DE7D1F4B922
:1039A0009DF82B30312B03D020460CB0BDE8F081C0
:1039B0009DF82A30302BF7D19DF82930302BF3D1E8
:1039C0009DF82830302BEFD1013F0DF12F0316F871
:1039D000012F07F8012F9E42F9D10120E5E7184693
:1039E0000CB0BDE8F08100BFF8B50025471E2C469D
:1039F00017F8016F0823744014F0010F4FEA5402C6
:103A000003F1FF3314BF82F08C04C4F3470413F0B6
:103A1000FF03F1D128460EF0A1F9864209D03146C4
:103A200028460EF0B5F928460EF098F93B78834207
:103A30000FD101352A2DDBD10026214628460EF074
:103A4000A7F928460EF08AF984420CBF30460120BF
:103A5000F8BD0126F1E700BFF0B58DB001A8FFF772
:103A60007DFF98B11C49099A1C4BBDF806709DF862
:103A700028609DF829509DF82A400F80012A9DF862
:103A80002B101E705D709C70D97001D00DB0F0BD10
:103A9000134C1449049F144D144B27600A60059F72
:103AA000029A134E2F601A60124C039A124F326022
:103AB0009DF820609DF821202670104D1049114B73
:103AC000079E9DF819403A709DF818202E600C70E2
:103AD0001A700DB0F0BD00BFF08B0020BC4E00206E
:103AE000203E0020889800206C3E00207496002024
:103AF000703E00205D3E00207C3E0020783E00208D
:103B0000743E0020183E0020F0B522492248234A86
:103B100009680068224B234D1B88234C2E68234FD5
:103B20002568234C97F800E094F800C08FB001336B
:103B30000490069192E80300C0F307228DF830004C
:103B40008DF83120C0F30742000E8DF832208DF839
:103B50003300ADF80E301748174B1849184A07784C
:103B60000968126807960B951E78059100235E255B
:103B700003A88DF829C08DF828E009928DF82170EE
:103B80008DF820608DF80C50ADF83430FFF72CFF25
:103B90000FB0F0BD203E002074960020F0A401007C
:103BA000F08B00206C3E0020889800205D3E0020B5
:103BB0007C3E0020743E0020183E0020703E002015
:103BC000783E00202DE9F04F9F49A048DFF8B092E1
:103BD0008BB00DF0D7FD9E4A9E499C4810F0FAFC30
:103BE0001C211B2227238DE80E009B48FF23142253
:103BF00015210AF0B1F932222521984809F052FD29
:103C000032222421964809F04DFD23222221954895
:103C1000FEF7D2FC32222621934809F043FD3222DE
:103C20001D21924809F03EFD1F221E219048FEF7FB
:103C3000C3FC904B1A68904BC9F80030002389F8F8
:103C40000930C9F8103089F80830C9F80C300AB9C1
:103C5000B1E21A465369002BFBD1C2F8149000243C
:103C6000DFF870B2854B8648C9F81440A9F80440C3
:103C7000A9F8064089F80A40C9F8003008F0FEFFAC
:103C80000BF1180201215846FEF76CFC7D4B7E4873
:103C90008BF8F440224621468BF8F540CBF8F040F3
:103CA0008BF8F640CBF80030FEF75CFC764A774B99
:103CB0001360774A744E774D18324FF48043A2F167
:103CC000180002213362FEF74DFC714A724B1360FB
:103CD000012005F22472684E2C7223462146EC60C6
:103CE0002E6068722A612C4600E0226942F8231097
:103CF0006A7A684801339A42F7DC5E4B1A680AB95F
:103D00005DE21A465369002BFBD1556100246349DB
:103D10002960224601234FF48071614E61486C6135
:103D2000AC80EC80AC7285F8214785F82247C5F855
:103D3000186110F073FB4F4BDFF874811A684E491D
:103D4000C5F81C41082385F8203788F80940C8F8D1
:103D50000010C8F8104088F80840C8F80C40454BDF
:103D60000AB92EE21A465369002BFBD1C2F814801F
:103D70004FF0000A4C4B4D48C8F814A0A8F804A016
:103D8000A8F806A088F80AA0C8F8003002F036FAB1
:103D90004748484C484F494E09F01EFA2C4A4849BA
:103DA000434810F017FC474B012103F11802184655
:103DB000FEF7D8FB434A444B1360444B042103F104
:103DC00028021846FEF7CEFB414B03F128021846A5
:103DD0003E4B04211C604FF480349C61DC611C620A
:103DE0005C62FEF7BFFB3A4B324C1C6007F12802C5
:103DF0004FF48034042138469C61DC611C625C62B3
:103E0000FEF7B0FB2B49BC61022006F11802FC61F1
:103E10003C627C62184C396034605346514686F8E7
:103E200008A0C6F80CA070723261344600E0226926
:103E300042F82310727A214801339A42F7DC0D4B85
:103E40001A68002A49D1BFE1F8A40100884E002079
:103E50000C3E002005170100BC930020A493002015
:103E60001419022080960020A84E0020F09800200F
:103E7000DC4E0020B4A402209CA30100A4B10100E8
:103E8000AC980020D4B10100208C0020E0B10100EA
:103E900098190220448C002098B1010064AF010001
:103EA00084AF01006C930020C8B1010040190220CA
:103EB00028190220B0B101003C960020F81B022016
:103EC00071040000989600208CB10100C01B0220F4
:103ED00038970020749700201A465369002BFBD1B5
:103EE00056610024B94ABA4B7461B480F480B4724C
:103EF000B8483260059309F0F9F8059BDFF82CA368
:103F00001C721846C3F800905F605C72DC601C7421
:103F10000DF026FA059BB04AB049184610F05AFB3E
:103F2000AF4B059350468AE8000A8AF808408AF8A1
:103F30000940CAF80C408AF810400DF011FAA64A60
:103F4000A649DFF8ECB2504610F044FB059BDFF8C1
:103F5000E4A21C724FF001091846C3F800805F60AC
:103F6000DC601C7483F809900DF0FAF9059B9A4AFD
:103F70009A49DFF8C482184610F02CFB994BCBF815
:103F8000043058468BF80840CBF800708BF8094095
:103F9000CBF80C408BF810400DF0E2F98E4A8F49B7
:103FA000584610F017FB904BCAF8043050468AF878
:103FB0000840CAF800708AF80940CAF80C408AF82C
:103FC00010400DF0CDF9844A8449DFF870B25046B4
:103FD00010F000FB834B88F80840404688E8280032
:103FE00088F80940C8F80C4088F810400DF0B8F97E
:103FF000794A7A497D4B0593404610F0EBFA7C4BA9
:10400000DFF83CA2CBF8043058468BF80840CBF8D8
:1040100000708BF80940CBF80C408BF810400DF085
:104020009FF96D4A6D49DFF81C82724D584610F0B9
:10403000D1FA714BCAF8003050466D4BCAF80430C3
:104040008AF808408AF80990CAF80C408AF81040AB
:104050000DF086F96149604ADFF8ECB1504610F086
:10406000B9FA059B604A1A601846644A1C725A6085
:1040700083F80990DC601C740DF072F9059B564AB8
:104080005649DFF8C8A1184610F0A4FA584BC8F8F2
:1040900000304046594BC8F8043088F8084088F88A
:1040A0000940C8F80C4088F810400DF059F94B4908
:1040B000494A404610F08EFA022328464F4A6B7256
:1040C0002C722F606A60EC602C740DF049F9424A42
:1040D0004249DFF87C814A4F284610F07BFA474B73
:1040E0008BF8084058468BE848008BF80940CBF81D
:1040F0000C408BF810400DF033F9374A3749414DE9
:10410000584610F067FA3D4B8AF8099050468AE805
:1041100048008AF80840CAF80C408AF810400DF0B0
:104120001FF950462C4A2D49DFF828A1364CDFF8FC
:10413000289110F04FFA3549354B0A680792DDF89F
:104140001CB00A6808921A68089B0968DFF80CE13D
:1041500009911E462F4B0999DFF804C1CEF80020C3
:1041600002EB420003EB80032B4A2D68CAF800B033
:10417000A1F57A71D3F808B0D3F804A0C8F80060AC
:10418000264B2748CCF800104FF00A082360C2F8ED
:1041900000A0C7F800B0C9F8005084F8088002F009
:1041A0002DF80D4A1F491E4810F014FA0DF08AFD33
:1041B0000BB0BDE8F08F1C4BC3F800904FE51860C2
:1041C000A4E5C3F80080D3E518608AE6BCB101001D
:1041D00090930020F81B02200C3E00208904000070
:1041E0000C8C0020C01B0220989600200019022091
:1041F00098190220D88B0020208C002038970020AE
:1042000070970020783E0020F44E002044A5022044
:104210006C3E002028A40100A498002070AF01008B
:104220001C9C022019620000B4A402206C9800209B
:104230006C19022080190220DC980020C44E002056
:10424000C89800208C980020F48B00207C930020DC
:10425000C48B0020BC1B0220C08B0020B493002024
:104260007C9600202DE9F04F2DED028BCC4CCD4FEC
:10427000CD4E95B020464FF6E0710CF0BDFC2825E0
:1042800000224FF400430193114620460095F0238D
:10429000A7610AF04BF94FF6FF7301930095F023E5
:1042A0002A46204600210BF0F3F93368012B00F079
:1042B0008A82022B00F0948214224FF400438DE88E
:1042C0000C000021F0234FF48C72B548DFF828A3CE
:1042D0000AF02CF928224FF448738DE80C000021D5
:1042E000F0234FF49672AE480AF020F900221146EE
:1042F000AB480CF065FC0122AC49A9480DF070F9FF
:104300009AF90010A6480DF0F5F93268022A00F07B
:104310007182DFF8E892A649A148A64F02220DF06B
:104320005FF999F900109E480DF0E4F90222A249C4
:104330009B480DF055F9A14B1C68204612F040FB3C
:104340002146024696480DF04BF91422002194486C
:104350000CF036FC3B68042B00F22682DFE813F0F9
:1043600058015E0164016A010500042294498C48E9
:104370000DF036F9934BDFF888821968924C0BA840
:104380000CF03EFC1422B42185480CF019FC0C9A68
:104390000D9B009209218D4A05A812F0B9F905A8D4
:1043A00012F00EFB05A902467D480DF019F9002117
:1043B0004FF496727A480CF003FCD8F80030784835
:1043C000012B0CBF4DF29A614FF6E0710CF014FC1A
:1043D00023680A2B04D1D8F80020012A00F06C824F
:1043E0007B4D55F823B0584612F0EAFA594602467A
:1043F0006B480DF0F5F80122764969480DF0F0F8A8
:104400004FF6FF716648DFF8C0B10CF0F5FB23688A
:10441000012B00F0FF81022B00F01281002B00F035
:104420001881092B00F01E81082B00F02581032B39
:1044300000F02C810C2B00F03E81052B00F0458113
:10444000654BDFF8C0911B685548012B0CBF4DF23E
:104450009A614FF6E0710CF0CFFBD9F8003055F8B7
:104460002300FEF72BFFC0F1F00109B24FF4967262
:104470004B480CF0A5FBD9F8003055F823502846DE
:1044800012F09EFA2946024645480DF0A9F84FF46D
:104490008C72002142480CF093FB4FF6E0714048CB
:1044A0000CF0AAFB2368062B00F042814B4C2378CA
:1044B000002B00F05981012B00F05F81022B484C4A
:1044C00000F069814FF6E07135480CF095FB454BE3
:1044D000227845491C78454B052C0CBF1C460C46E0
:1044E000002A00F0FE803368002B40F31281DFF8D1
:1044F00018A13F4DDAF80020DFF810B19FED3D7AAA
:10450000DBF80010002A1346B8BF02F1FF031B12AC
:1045100007EE903A91FBF3F185FB0205D217FAEE14
:10452000EF7AC2EB6535012D87EE278A4FEA410904
:104530001EDD01244FF6E078CDF8008005235522DA
:10454000174807EE904AF8EEE77A013467EE887A6A
:10455000FDEEE77ACDED037ABDF90C1009F05CFEB3
:10456000A542E9D1DAF80030002BB8BFFF331B12A7
:104570003A68022A00F07E814FF6E07300935722DA
:1045800003230FFA89F106480BF056F83368012B24
:1045900000F04F8115B0BDEC028BBDE8F08F00BF7D
:1045A000BC93002088E30100703E002018A50100A4
:1045B00020A501007496002024A50100A4980020E5
:1045C00040A5010000D003408498002050A50100C0
:1045D000283E00205CA5010078960020B84E0020FF
:1045E000241902205C3E002008A5010010A501004E
:1045F000AD8BDB6800401C46183E0020743E002056
:10460000409C0220A04E002070970020783E0020A1
:104610000222BC49BC480CF0E3FFABE60722BB49D1
:10462000B9480CF0DDFFA5E60722B949B6480CF001
:10463000D7FF9FE60222B749B3480CF0D1FF99E6B5
:10464000B54BB14819680DF055F82368002B7FF47D
:10465000E8AE99F90010AC480DF04CF82368092B2E
:104660007FF4E2AEAD4BA84893F900100DF042F88C
:104670002368082B7FF4DBAEA94BA34893F9001005
:104680000DF038F82368032B7FF4D4AEA54BA64A6F
:104690001B6803EB430302EB8303D3F80490484603
:1046A00012F08EF94946024697480CF099FF2368AC
:1046B0000C2B7FF4C2AE9D4B934893F900100DF084
:1046C00019F82368052B7FF4BBAEDFF8B492D9F854
:1046D0000030002B6ED1072295498B480CF080FFEB
:1046E000AEE6214688480CF005FAC0F1EB0109B2AC
:1046F0004FF48C7284480CF063FA204612F060F993
:104700002146024680480CF06BFF3368002B3FF7D0
:10471000EEAE552200217C480CF052FA0922854960
:1047200079480CF05DFF15B0BDEC028BBDE8F08F51
:10473000D8F80030012B7FF4B9AE7F4C72484FF6A9
:10474000FF710CF059FA2378002B00F0D380012B75
:1047500000F01881022B794C7FF4B4AE78496A4896
:1047600004220CF03DFFADE60722764966480CF0C6
:1047700037FF2378012B7FF4A1AE734B1B78002BFE
:1047800050D00622714960480CF02AFF23786B4C08
:10479000022B7FF497AE2378002BDFD004226C49E4
:1047A00059480CF01DFF8DE605226A4956480CF069
:1047B00017FFDFE50422684953480CF011FF01237D
:1047C000C9F800303CE600211E2300932046F02368
:1047D00001913C2209F0AAFE3368022B7FF46CADF4
:1047E0000021062300930191F0235422464809F04A
:1047F0009DFE61E5594944480CF0F2FE464B58498C
:104800001B68414881FB0321DB17C3EBA1110CF0AE
:1048100071FF7EE59AF900103B480CF06BFFDBF866
:104820000030F8E507224F4937480CF0D9FE2378CD
:1048300044E6DBF800104A4B4B4A83FB0103C917DF
:10484000C1EBA31308A8092111F062FFA9F10A0125
:1048500009B23C222C480CF0B3F908A812F0B0F8C9
:1048600008A9024628480CF0BBFE15B0BDEC028B2F
:10487000BDE8F08F294A3D4D92F9001095FBF3F504
:104880004FF47A7202FB01F292FBF3F3ED1A6D0022
:104890005B001CB22DB24FF6FF772B4621460097E6
:1048A0005522194809F0C8FC2B4621460097592289
:1048B000154809F0C1FC5FE62D4B2E4A1B682E4DB2
:1048C00003EB430B03EB8B0302EB030B58462E2148
:1048D00011F092FFCBEB000259460132274812F04B
:1048E00051F8264812F06CF82449024606480CF0AC
:1048F00077FE85E50722134903480CF071FE237803
:1049000025E700BF28A50100BC93002030A50100C9
:1049100038A501002CA50100783E00207C3E002037
:104920005D3E00206C3E002028A40100103E0020C7
:1049300060A50100A8A50100B81B022024190220CF
:1049400080A5010070A50100F04E002088A501009F
:1049500098A5010048A5010068A501001CA501005B
:10496000D34D621090A50100A0A501008038010080
:104970009419022000510020283E0020C88B0020FE
:10498000889800200722034903480CF029FE237869
:10499000E0E600BF78A50100BC930020074B10B5EE
:1049A000012401461C60064807F0BEFD054B1C6053
:1049B000FFF758FC044B00221A6010BD88E100E0AC
:1049C000F44E002008E100E0B8930020274B9FED53
:1049D000286A93ED007ADFED276AB8EEC77A07EE12
:1049E000900AC6EE075AF8EEE77A67EEA57AF4EE7B
:1049F000E67AF1EE10FA19DC1F4A204BC2ED007A7C
:104A0000F5EEC07A0122F1EE10FA1A602BD49FED78
:104A10001C7AF4EEC77AF1EE10FA1BDD194B1A4935
:104A20001A4A01200860D361FFF71CBCC7EE065A82
:104A3000114B1748114A0121F2EE027AE5EEA67AEF
:104A4000C3ED006AFDEEE77A17EE903AF0EE667A73
:104A5000036011609FED0F7A67EE877AFCEEE77ACC
:104A600017EE903ADBE70023D9E700BF70970020EC
:104A7000A6552C4700E0AB461C3E002088E100E034
:104A8000A655AC4680FFFF7F08E100E0208C0020A7
:104A9000783E00204B24BE472DE9F04F2DED048BCE
:104AA000B34AB44B92F900201B689FEDB36ADFED67
:104AB000B36A07EE102A002BB8BFFF33F8EEC77AAF
:104AC0001B1227EE867A07EE903AF8EEE77AADF5FC
:104AD000077D87EE278A0EAC4FF4F0722046002146
:104AE000C6EEA78A11F0B8FBA54B1A680132012A5D
:104AF00003921A60BDEEC88AFDEEE88A00F01881C4
:104B0000039B632B40F21C81DFF8C082DFF8B89270
:104B10009FED9C6A0026C446B346B64627464FF42E
:104B2000807A0225F2EE046A0FE0042AD8BF4FF41F
:104B3000006323DC0135782D24F8163007F10407D3
:104B400027F8023C06F102062CD03CF8023FB9ECF3
:104B5000017A03EB83035B0007EE903AF8EEE77A05
:104B6000E7EE467A77EEA67AFDEEE77A17EE902A20
:104B700052459644D9DD17EE90AAAB465300FF2B61
:104B8000A8BFFF23B2F5407FC0F2D082B2F5106F0C
:104B9000C0F296821B0203F478436FEAD3236FEAD4
:104BA000C323C7E7784B9FED797A83FB0E234FEA47
:104BB000EE7ECEEB23139AFBF3F307EE903AF8EE7A
:104BC000E77A18EE103AF4EE477AF1EE10FA48BFA1
:104BD0004FF0000B5B4504DA18EE903A5B4500F3AA
:104BE000FB806B4B1D68012D4FF0000A00F0208107
:104BF000022D00F02B8118EE103A5B45654D4EDA20
:104C000018EE903A5B454ADD2B78002B40F0FC8192
:104C1000614EDFF8C08133680D93604B0D9A1A60C6
:104C2000D8F80030012B00F0E6815D4E022B33787E
:104C300040F0EC81002B00F0E9815A4807F02CFF8E
:104C40004FF48041574807F0F5FE574BDFED576AA8
:104C500093F9003007EE903AF8EEE77AB7EE006A83
:104C600086EE277AB4EEE67AF1EE10FA00F11882B9
:104C7000F2EE007AB4EEE77AF1EE10FA00F3138266
:104C8000DFED4B6ADFED4B7AE7EE267AFCEEE77A52
:104C900017EE902A434900230A623370B6E12B785D
:104CA0006BB13D4A3D4913680993099B0968126835
:104CB0000A924148414A0A9E06605B1A1380384EA8
:104CC000002233782A7043B9334A34491268089273
:104CD0000968089A521A322A09D82D4B1B68022BF0
:104CE0000FD00DF5077DBDEC048BBDE8F08F2D4A8C
:104CF0002B70012382F842303370254B1B68022B46
:104D0000EFD1254B2C4A1B6807931268079B2C4D4B
:104D10009B1A312B40F28D812B68B3F58C7FE0DB41
:104D20005A232B600DF5077DBDEC048BBDE8F08F99
:104D3000244B002103F5007243F8041B9A42FBD177
:104D4000214A2249DFED226A02F5FC7031F8023F68
:104D500092ED007A03EB83035B0007EE903AF8EEE6
:104D6000E77AA7EEA67AA2EC017A8242EED1CBE6F0
:104D70007C3E00207097002000007A4400409C4751
:104D8000A89800206666663FBF3CB6226666863FEE
:104D9000703E00209496002044A50220BC1B0220F7
:104DA0006B3E0020989600205D3E00200AD7233CF1
:104DB00000008047EE7CFF3EC48B0020F24E0020B6
:104DC000143E0020004F0020084F00205E8C002081
:104DD0006F12833A74960020C14BC24A029300219D
:104DE000D3ED006A8A46022338F8020F92ED007A6A
:104DF00007EE900AF8EEE77A77EE877AF4EEE67A35
:104E0000F1EE10FAE2EC017A03DDF0EE676A9A4601
:104E100001210133782BE7D1002940F09E81B24A6D
:104E2000138801331380B14B1D68012D7FF4E0AE70
:104E3000AF4B1B68022B00F0EE80039BDB073FF5B6
:104E4000DAAEFEF78FFAA94B1D68D1E6A64E33887D
:104E5000322B7FF6D0AE00202D2301900093014627
:104E6000F02330802822A34809F060FB9C4BBAF164
:104E7000000F00F0F0801A4692ED007A02939E4BEC
:104E8000DFED9E5AF7EE007A03EB8A0377EE277A7E
:104E90001A1D514632ED016AC6EE276AF4EEE56A44
:104EA000F1EE10FA02DD01390229F3D1DFED935A58
:104EB00003915246B3EC016AC6EE276AF4EEE56A46
:104EC000F1EE10FA40F3A5800132782AF2D10023E6
:104ED0000493DFF81092DFED8A9A9FED8A9ACDF85D
:104EE00014B00026022702E0029B93ED007AD9ED70
:104EF000006A8048C6EE877A4FF478430FFA86FB43
:104F00000093594667EEA97AFDEEE77A17EE905ABC
:104F1000C5F155080FFA88F82DB242462B4609F024
:104F20007BF9BA4507F1010700F0C0800236782FFF
:104F3000B6B2A9EC019AD7D1734B029D1B6895EDCF
:104F4000007A9FED729A6B48DDF814B0002BB8BF61
:104F5000FF331B1207EE903AF6EE006A27EE267A30
:104F6000F8EEE77A2D22822185ED007A27EE899AE4
:104F70000BF026FE4DF29A615E480BF03DFEDDED32
:104F8000037A5C48F8EEE77A67EE897AFDEEE77A15
:104F900017EE901A0CF0AEFB01225D4955480CF05B
:104FA0001FFB4FF6E07153480BF026FE07EE90AA68
:104FB000F8EEE77A4F4867EE897AFDEEE77A17EE6A
:104FC000901A0CF097FB012251494A480CF008FB5B
:104FD0004DF29A6147480BF00FFEDDED047A45482B
:104FE000F8EEE77A67EE897AFDEEE77A17EE901A27
:104FF0000CF080FBFFE53368464F0C930C9A3B683E
:10500000D31AB3F57A7F2DD8434E337801222A7014
:1050100059E604925DE7344A404B1288A3FB021321
:105020009B0803EB8303D31A9BB2002B7FF4E3AD01
:1050300007E701940123B5F900202E4800930021D1
:10504000F02309F009FF29882A4809F063FE2B683C
:1050500001332B6061E60293039593ED007ACDF85E
:1050600010A036E7284B2E4A1B68002BB8BFFF3331
:105070001B120BFB03F382FB0312DB17C3EB621360
:105080004FF4FA7202FB03F3264A18461360FFF747
:105090009DFC33680B930B9AD8F800303A60C4E556
:1050A00040F28F22F6E54FF40022F3E54FF6E07070
:1050B00000902B46424659460E4809F0ADF835E7B8
:1050C000194981FB0210D217C2EB60021B02D210F9
:1050D00003F4784342F4FC6213439BB22AE500BF19
:1050E000B8930020C0190220A44E0020703E00207A
:1050F00074960020BC930020B8190220CDCCCC3D82
:105100000000344200000000709700206F12833AC4
:105110005CA501007C9600206B3E0020CDCCCCCC61
:10512000D34D6210783E0020398EE3380D491B02C2
:1051300002930D4B81FB0210D117401A83FB023200
:10514000029BC00003F4784300F4FC60C1EB6202F0
:105150000343C2F3C4021343ECE4029BC3ED006AB1
:105160005DE600BF56555555398EE33838B5104BBE
:105170001049114A114D00EB400003EB800301245C
:1051800098685B680B6028601460FEF7B1F8C8206F
:105190000DF08AF80A4B1868FFF718FC094B142029
:1051A0001C600DF081F8BDE83840FFF75BB800BF28
:1051B00028A40100A498002088E100E07097002056
:1051C000783E002008E100E01F4B204A1B680121C7
:1051D0000B2B10B50446117026D064200DF064F836
:1051E0000D2C2046A8BF0D2020EAE070FFF7BEFF7F
:1051F000174C184B1A682368002B02F1FF3220DB92
:105200009342A8BF134603EB43021349236003EB09
:105210008203194411480D2211F040FC0F49104837
:10522000BDE8104008F006B80E4A0F4B10684FF466
:1052300080310022022899611A6204BFD9619A6103
:10524000CBE70023DFE700BF849800202419022069
:1052500094190220E096002000510020E4960020DE
:1052600028190220749600203897002038B50B4C7E
:1052700023782BB10A4890F8403003F0FF0503B1C2
:1052800038BD07F0AFFF074B25701B78002BF7D018
:10529000054B1868BDE83840FFF796BF2419022077
:1052A0002819022038960020203E00202DE9F041E8
:1052B00096B0D0B9A84AA949A94B12680D681B68D5
:1052C0000D21EAB9A74A12782B44002A73D0002B8B
:1052D000B8BF01F1FF338B42A8BF0023002875D16E
:1052E0009F4A136016B0BDE8F0810128FAD19E4AAA
:1052F0009E499F4B12680D681B680421002AE1D06B
:10530000012AEFD1002DEDD00446002B65D199493B
:105310000A782A4452B2002AC0F202815A2A13465D
:10532000A8BF5A2307EE903A9FED936ADFED936A88
:10533000B8EEE77ADFED927A27EE067AE7EE267A84
:10534000FCEEE77ACDED037A8E4A0B7001261660EB
:1053500003998D4807F058F98C4B1E60DFF80082E6
:10536000D8F80030072B61D0052B48D00A2BB9D1D3
:10537000794B1B68012B00F0C1807D4B1B68032B10
:10538000B0D1794B1B68012BACD1814B1B78022B20
:10539000A8D1804C754B22681B681344052BA8BF0D
:1053A000052323EAE37318462360FFF7DFFE7A4BF9
:1053B00022681A6096E7A3F10A02012A87D8012D14
:1053C00000F09A80013508BF092384E7012889D1BC
:1053D000674A136016B0BDE8F081032B7CD16D4E97
:1053E00033682B440D2BA8BF0D2323EAE373184623
:1053F0003360FFF7BBFE694B32681A60AEE7564B6D
:105400001B68012B7FF46EAF544B654C1A68216802
:10541000644B0A441340002BC0F28C80194662484A
:1054200023600CF067F9D8F800309FE7002C7FF478
:1054300059AF5E4F5E4E3B680693069B32689B1ADF
:10544000B3F5FA7F09D2F92B00F24C81632B8BBFA5
:105450000A23C5EB05155D43AD000BF005FE08A959
:1054600028440BF0ABFC08A80BF080FD0CF0F0FE1C
:105470004D4C08A80BF07AFD0BF046FE2046322278
:1054800050210BF09DFB0022142320460192009333
:105490003222A023502109F049F8464A464B1168B0
:1054A000A3610DA80BF0ACFB0DA90EC90AA80191D0
:1054B00000920921414A11F02BF90AA811F080FA53
:1054C0000AA9024620460CF08BF83B680793079A1E
:1054D000D8F80030326047E7082B30D1384A1378CB
:1054E0002B445BB2042B04DD1E2BA8BF1E231370BC
:1054F00034E70523137031E70C23ECE63149174AF2
:105500000B6812689B180DD42F4A1268934202F15F
:10551000FF3200DB00239342A8BF13460B602CE749
:10552000039311E7284B1B685A1E48BF0023F5D48C
:105530001346F0E7013B63F0010301336EE7092BEB
:1055400049D1224A13782B445BB20E2B40DD232B2A
:10555000A8BF2323137001E7409C022080980020FD
:1055600084980020F14E002078960020984E00206C
:10557000A04E0020743E00200AD7233C00000143C7
:10558000EE7CFF3E88E100E0F44E002008E100E000
:10559000B84E00206C3E0020203E0020B493002036
:1055A0008898002001000080BC93002044A50220C0
:1055B000EC8B002000D00340A4E30100B4A501005F
:1055C0005D3E002094190220E09600207C3E0020E1
:1055D0000F231370C2E60C2B0AD144490B782B44DD
:1055E0005BB2002B60DD232BA8BF23230B70B5E635
:1055F000012B18D13E4A13782B445BB2002B56DBAB
:105600003F2BA8BF3F2318461370FFF7C7F9394A4D
:10561000394B00201060002103F5007243F8041B91
:105620009342FBD19AE6022B32D1344F344E3B6881
:105630000493049B32689B1AB3F5FA7F31D2F92B9D
:105640004DD8642B41F2883328BF4FF4FA632D49BB
:105650002D4A0868126803FB050341F65730834260
:105660001CDD2A4880FB02E0D243D20FC2EBE012DD
:105670004FF47A7000FB02F29342A8BF134618461B
:105680000B60FFF7A3F93B680593059B336065E664
:10569000042B0ED1174B00221A605FE641F65833F7
:1056A000EDE74FF4FA73D2E713460B7056E600238A
:1056B000A9E7062B7FF452AE154B1B7863B1154951
:1056C000154A0B780133DBB2A2FB0302520802EB4E
:1056D00042029B1A0B7041E60E4A13703EE64FF4ED
:1056E0007A73B4E705EB8505B7E600BF103E0020EE
:1056F000183E0020A8980020004F002044A502205A
:10570000EC8B0020783E002070970020D34D621073
:10571000F14E0020B81B0220ABAAAAAAF0B5254D75
:10572000254F264E83B0FEF733F82846002100248B
:1057300009F0F0FA4FF4A073224628462146009360
:105740000194F02308F0F2FE28464DF29A610BF026
:1057500053FA1B4BAB612146284664220BF030FA0A
:105760000922184928460BF03BFF384611F028F96A
:105770003946024628460BF033FF134BAB61FEF768
:1057800071FD1248124D07F087F9124A1249134869
:10579000134B17688C6104604FF480313046DC6134
:1057A000996114602F6007F027FE012386F8F63018
:1057B00003B0F0BDBC930020E49600207497002055
:1057C000C0E30100C4A5010088E301009896002011
:1057D0003C9C022074960020C01B0220E093002015
:1057E00038970020F8B5744A137C012B7BD972B628
:1057F000D36862B6714E724D3268002BB8BF033366
:105800009C10944228DD01232B600120FFF74EFD00
:105810006C4A3460137C012B2BD972B6D36862B604
:10582000694E6A4F3268002BB8BF03339C10944214
:105830000DDD01233B600020FFF738FD2B6834604D
:105840000BB93B686BB1BDE8F840FEF70BBD47DA1A
:105850004FF0FF333B60EEE704DA4FF0FF332B608D
:10586000D3E7F8BD574A346000232B60137C012B2B
:10587000D3D872B61368506819780478507A137ABE
:10588000044201EA03016FD0937A03F0030309B1E4
:1058900043F0040343F008039910013B91720D2B70
:1058A000BCD801A151F823F0B1590000A95900005A
:1058B000A1590000A95900001D5800009959000085
:1058C000B1590000B1590000995900001D5800005D
:1058D000A9590000A1590000A9590000B1590000C0
:1058E00000233B60AAE772B6136850681978047801
:1058F000507A137A044201EA03012DD0937A03F01F
:10590000030309B143F0040343F008039910013B7A
:1059100091720D2B3FF66CAF01A151F823F000BF3F
:1059200091590000895900008159000089590000EF
:10593000F157000079590000915900009159000079
:1059400079590000F1570000895900008159000081
:105950008959000091590000937A03F0030300294C
:10596000D4D043F00403D1E7937A03F00303002972
:1059700092D043F004038FE7D368023BD36038E74B
:10598000D3680233D36034E7D368013BD36030E798
:10599000D3680133D3602CE7D368023BD3603EE782
:1059A000D3680233D3603AE7D368013BD36036E76C
:1059B000D3680133D36032E780960020349700200B
:1059C000984E0020DC4E0020088C0020809800209B
:1059D000F8B5914C25784DB1904807F099FE8F4865
:1059E00007F0BCFE002840F08E80F8BD8C4807F020
:1059F0008FFE8C4807F08CFE884807F089FE8A48A5
:105A000007F086FE884807F0A9FE70B1874B1A7828
:105A1000002A7FD1864A13680133042BC8BF0023B4
:105A20001360FDF71DFDFEF71DFC7C4807F096FE98
:105A300010B3804E3378CBB97F4F804D3B68013334
:105A400085FB0325A5EBE37505EB45055D1B3D6077
:105A5000002D00F08C80022D00F0AD80012D00F0B3
:105A6000A1800021764808F01FFF3378022B58D020
:105A7000012B6BD0FEF7F6FB694807F06FFE00289C
:105A800031D0704C704D23682A68B3FA83F35B09F8
:105A9000062A236050D0052A73D06C4B1B7803B3C1
:105AA0002B680A2B03D12668012E00F09280684DE6
:105AB0002868FFF75BFB674A674B10681860FEF7C2
:105AC00085FF664B66494FF4803200201862C8613A
:105AD0008A61DA619A6123681BB9564A11780229F2
