:1000000000000320D1010000311A0100E9190100AC
:10001000E9190100E9190100E9190100E9190100D4
:10002000E9190100E9190100E9190100311A01007B
:10003000311A0100E9190100611401006515010080
:10004000311A0100311A0100311A0100311A010080
:10005000311A0100311A0100311A0100311A010070
:10006000311A0100311A0100311A0100311A010060
:10007000311A0100311A0100311A0100311A010050
:10008000311A0100311A0100311A0100311A010040
:10009000311A0100311A0100311A0100311A010030
:1000A000010F01000D0F0100311A0100311A01008A
:1000B000311A0100311A0100311A01006D310100BD
:1000C000311A010099320100311A0100C5330100D3
:1000D000311A0100BD340100311A0100311A01004A
:1000E000311A0100311A0100311A0100311A0100E0
:1000F000311A0100311A0100311A0100311A0100D0
:10010000311A0100311A0100311A0100311A0100BF
:10011000311A010015210100311A0100311A0100C4
:10012000311A0100311A0100311A0100311A01009F
:10013000311A0100311A0100311A0100311A01008F
:1001400015120100311A0100B5350100311A010004
:10015000311A0100311A0100311A0100311A01006F
:10016000311A0100311A0100190F0100311A010082
:10017000311A0100311A0100311A0100311A01004F
:10018000311A0100C1BF0000311A0100311A01000B
:10019000311A0100311A0100AD360100311A010097
:1001A000311A0100311A0100311A0100311A01001F
:1001B000311A0100311A0100311A0100311A01000F
:1001C000311A0100311A0100311A0100311A0100FF
:1001D0005C4B4CF2205210B51A804DF628121A8052
:1001E00000BF00BF11F028FC574B4FF030621A607F
:1001F000564A9A60564ADA60564B4FF470021A60BB
:10020000554B564A1A60564A136813F4807304D14A
:1002100054490B604FF4A8531360534B1A781107DD
:1002200003D51A7842F008021A70504B5049AA229E
:100230001A70504A504B8B4204D252F8040F43F8C4
:10024000040BF8E74D4B4E4900228B4202D243F893
:10025000042BFAE74B494C4A002352F8230041F89B
:1002600023000133742BF8D1484B494A802103F80D
:10027000011B9342FBD1474B424A1A60464B8A22EC
:100280001A70A3F5805324225A70A0221A709A790A
:100290009207FCD59A79D406FCD4404A937903F0AE
:1002A0000C03082BFAD13E4B60221A7002331A78E5
:1002B000802AFCD1394B01221A715D225A719A7938
:1002C0009006FCD59979354A4906FBD5354B364918
:1002D00019600021596020231370937903F00C03F7
:1002E0000C2BFAD1314B324A1A60324B324A1A6027
:1002F00000225A60072243F8042C304AC3F80C2D20
:1003000062B611F077FD174B1B68DA0705D52C484C
:1003100011F0F2FC2B4B2C4A1A602C4B1B785B061D
:1003200009D5284C284B22689A4204D1244811F060
:10033000E3FC0023236014F02DFD11F083FB11F08A
:10034000B1FAFEE70E20054030800440823F0400F1
:100350000100002B88ED00E0002008E0030000858C
:1003600010D0034014D0034002D0074000E0074003
:10037000A84C0020E0D30200303D0020B04C00200B
:10038000547C0220003800200000000000E400E05F
:1003900064E400E008ED00E0005006400040064044
:1003A00001E007404480044000000602048004404D
:1003B000C010070014E000E01FBF02000000202072
:1003C000C6FD1A5D1CE00340A5C3945A00F0074027
:1003D000FFFFFFFFFFFFFFFFFFFFFFFFFFFFFFFF2D
:1003E000FFFFFFFFFFFFFFFFFFFFFFFFFFFFFFFF1D
:1003F000FFFFFFFFFFFFFFFFFFFFFFFFFFFFFFFF0D
:10040000FFFFFFFFFFFFFFFFFFFFFFFFDEF9FFFF23
:1004100010B5054C237833B9044B13B10448AFF33E
:1004200000800123237010BDB04C002000000000AC
:10043000DCD30200084B10B51BB108490848AFF3E4
:1004400000800848036803B910BD074B002BFBD0A0
:10045000BDE81040184700BF00000000B44C002069
:10046000DCD30200A84C00200000000011F03EBCCC
:1004700010B5044B044640F8183B05F04FFB2046EE
:1004800010BD00BF34A1010010B5044610F07AFE83
:10049000204610BD214B10B45A6A13685068197871
:1004A0000478507A137A044201EA03011BD0937A4C
:1004B00003F0030309B143F0040343F00803991068
:1004C000013B91720D2B0BD8DFE803F021071B07CE
:1004D0000A152121150A071B0721D368013BD360A8
:1004E0005DF8044B7047937A03F003030029E6D0CC
:1004F00043F00403E3E7D3685DF8044B023BD360A9
:100500007047D3685DF8044B0233D3607047D368FB
:100510005DF8044B0133D360704700BFC474022000
:10052000214B10B49A6A1368506819780478507A8D
:10053000137A044201EA03011BD0937A03F0030308
:1005400009B143F0040343F008039910013B917291
:100550000D2B0BD8DFE803F021071B070A1521211B
:10056000150A071B0721D368013BD3605DF8044BD4
:100570007047937A03F003030029E6D043F00403A5
:10058000E3E7D3685DF8044B023BD3607047D36860
:100590005DF8044B0233D3607047D3685DF8044BB9
:1005A0000133D360704700BFC4740220214B10B4E4
:1005B000DA6A1368506819780478507A137A04421A
:1005C00001EA03011BD0937A03F0030309B143F05E
:1005D000040343F008039910013B91720D2B0BD8D3
:1005E000DFE803F021071B070A152121150A071B65
:1005F0000721D368013BD3605DF8044B7047937AC1
:1006000003F003030029E6D043F00403E3E7D368D3
:100610005DF8044B023BD3607047D3685DF8044B30
:100620000233D3607047D3685DF8044B0133D36065
:10063000704700BFC4740220214B10B41A6B1368BA
:10064000506819780478507A137A044201EA030159
:100650001BD0937A03F0030309B143F0040343F082
:1006600008039910013B91720D2B0BD8DFE803F0C2
:1006700021071B070A152121150A071B0721D3682B
:10068000013BD3605DF8044B7047937A03F003039A
:100690000029E6D043F00403E3E7D3685DF8044B98
:1006A000023BD3607047D3685DF8044B0233D360DC
:1006B0007047D3685DF8044B0133D360704700BFC7
:1006C000C4740220214B10B45A6B13685068197817
:1006D0000478507A137A044201EA03011BD0937A1A
:1006E00003F0030309B143F0040343F00803991036
:1006F000013B91720D2B0BD8DFE803F021071B079C
:100700000A152121150A071B0721D368013BD36075
:100710005DF8044B7047937A03F003030029E6D099
:1007200043F00403E3E7D3685DF8044B023BD36076
:100730007047D3685DF8044B0233D3607047D368C9
:100740005DF8044B0133D360704700BFC4740220CE
:10075000214B10B49A6B1368506819780478507A5A
:10076000137A044201EA03011BD0937A03F00303D6
:1007700009B143F0040343F008039910013B91725F
:100780000D2B0BD8DFE803F021071B070A152121E9
:10079000150A071B0721D368013BD3605DF8044BA2
:1007A0007047937A03F003030029E6D043F0040373
:1007B000E3E7D3685DF8044B023BD3607047D3682E
:1007C0005DF8044B0233D3607047D3685DF8044B87
:1007D0000133D360704700BFC4740220214B10B4B2
:1007E000DA6B1368506819780478507A137A0442E7
:1007F00001EA03011BD0937A03F0030309B143F02C
:10080000040343F008039910013B91720D2B0BD8A0
:10081000DFE803F021071B070A152121150A071B32
:100820000721D368013BD3605DF8044B7047937A8E
:1008300003F003030029E6D043F00403E3E7D368A1
:100840005DF8044B023BD3607047D3685DF8044BFE
:100850000233D3607047D3685DF8044B0133D36033
:10086000704700BFC4740220214B10B41A6C136887
:10087000506819780478507A137A044201EA030127
:100880001BD0937A03F0030309B143F0040343F050
:1008900008039910013B91720D2B0BD8DFE803F090
:1008A00021071B070A152121150A071B0721D368F9
:1008B000013BD3605DF8044B7047937A03F0030368
:1008C0000029E6D043F00403E3E7D3685DF8044B66
:1008D000023BD3607047D3685DF8044B0233D360AA
:1008E0007047D3685DF8044B0133D360704700BF95
:1008F000C4740220214B10B45A6C136850681978E4
:100900000478507A137A044201EA03011BD0937AE7
:1009100003F0030309B143F0040343F00803991003
:10092000013B91720D2B0BD8DFE803F021071B0769
:100930000A152121150A071B0721D368013BD36043
:100940005DF8044B7047937A03F003030029E6D067
:1009500043F00403E3E7D3685DF8044B023BD36044
:100960007047D3685DF8044B0233D3607047D36897
:100970005DF8044B0133D360704700BFC47402209C
:10098000214B10B49A6C1368506819780478507A27
:10099000137A044201EA03011BD0937A03F00303A4
:1009A00009B143F0040343F008039910013B91722D
:1009B0000D2B0BD8DFE803F021071B070A152121B7
:1009C000150A071B0721D368013BD3605DF8044B70
:1009D0007047937A03F003030029E6D043F0040341
:1009E000E3E7D3685DF8044B023BD3607047D368FC
:1009F0005DF8044B0233D3607047D3685DF8044B55
:100A00000133D360704700BFC4740220214B10B47F
:100A1000DA6C1368506819780478507A137A0442B3
:100A200001EA03011BD0937A03F0030309B143F0F9
:100A3000040343F008039910013B91720D2B0BD86E
:100A4000DFE803F021071B070A152121150A071B00
:100A50000721D368013BD3605DF8044B7047937A5C
:100A600003F003030029E6D043F00403E3E7D3686F
:100A70005DF8044B023BD3607047D3685DF8044BCC
:100A80000233D3607047D3685DF8044B0133D36001
:100A9000704700BFC4740220214B10B41A6D136854
:100AA000506819780478507A137A044201EA0301F5
:100AB0001BD0937A03F0030309B143F0040343F01E
:100AC00008039910013B91720D2B0BD8DFE803F05E
:100AD00021071B070A152121150A071B0721D368C7
:100AE000013BD3605DF8044B7047937A03F0030336
:100AF0000029E6D043F00403E3E7D3685DF8044B34
:100B0000023BD3607047D3685DF8044B0233D36077
:100B10007047D3685DF8044B0133D360704700BF62
:100B2000C4740220214B10B45A6D136850681978B0
:100B30000478507A137A044201EA03011BD0937AB5
:100B400003F0030309B143F0040343F008039910D1
:100B5000013B91720D2B0BD8DFE803F021071B0737
:100B60000A152121150A071B0721D368013BD36011
:100B70005DF8044B7047937A03F003030029E6D035
:100B800043F00403E3E7D3685DF8044B023BD36012
:100B90007047D3685DF8044B0233D3607047D36865
:100BA0005DF8044B0133D360704700BFC47402206A
:100BB000214B10B49A6D1368506819780478507AF4
:100BC000137A044201EA03011BD0937A03F0030372
:100BD00009B143F0040343F008039910013B9172FB
:100BE0000D2B0BD8DFE803F021071B070A15212185
:100BF000150A071B0721D368013BD3605DF8044B3E
:100C00007047937A03F003030029E6D043F004030E
:100C1000E3E7D3685DF8044B023BD3607047D368C9
:100C20005DF8044B0233D3607047D3685DF8044B22
:100C30000133D360704700BFC4740220214B10B44D
:100C4000DA6D1368506819780478507A137A044280
:100C500001EA03011BD0937A03F0030309B143F0C7
:100C6000040343F008039910013B91720D2B0BD83C
:100C7000DFE803F021071B070A152121150A071BCE
:100C80000721D368013BD3605DF8044B7047937A2A
:100C900003F003030029E6D043F00403E3E7D3683D
:100CA0005DF8044B023BD3607047D3685DF8044B9A
:100CB0000233D3607047D3685DF8044B0133D360CF
:100CC000704700BFC4740220214B10B41A6E136821
:100CD000506819780478507A137A044201EA0301C3
:100CE0001BD0937A03F0030309B143F0040343F0EC
:100CF00008039910013B91720D2B0BD8DFE803F02C
:100D000021071B070A152121150A071B0721D36894
:100D1000013BD3605DF8044B7047937A03F0030303
:100D20000029E6D043F00403E3E7D3685DF8044B01
:100D3000023BD3607047D3685DF8044B0233D36045
:100D40007047D3685DF8044B0133D360704700BF30
:100D5000C4740220214B10B45A6813685068197883
:100D60000478507A137A044201EA03011BD0937A83
:100D700003F0030309B143F0040343F0080399109F
:100D8000013B91720D2B0BD8DFE803F021071B0705
:100D90000A152121150A071B0721D368013BD360DF
:100DA0005DF8044B7047937A03F003030029E6D003
:100DB00043F00403E3E7D3685DF8044B023BD360E0
:100DC0007047D3685DF8044B0233D3607047D36833
:100DD0005DF8044B0133D360704700BFC474022038
:100DE000214B10B49A681368506819780478507AC7
:100DF000137A044201EA03011BD0937A03F0030340
:100E000009B143F0040343F008039910013B9172C8
:100E10000D2B0BD8DFE803F021071B070A15212152
:100E2000150A071B0721D368013BD3605DF8044B0B
:100E30007047937A03F003030029E6D043F00403DC
:100E4000E3E7D3685DF8044B023BD3607047D36897
:100E50005DF8044B0233D3607047D3685DF8044BF0
:100E60000133D360704700BFC4740220214B10B41B
:100E7000DA681368506819780478507A137A044253
:100E800001EA03011BD0937A03F0030309B143F095
:100E9000040343F008039910013B91720D2B0BD80A
:100EA000DFE803F021071B070A152121150A071B9C
:100EB0000721D368013BD3605DF8044B7047937AF8
:100EC00003F003030029E6D043F00403E3E7D3680B
:100ED0005DF8044B023BD3607047D3685DF8044B68
:100EE0000233D3607047D3685DF8044B0133D3609D
:100EF000704700BFC4740220214B10B41A691368F4
:100F0000506819780478507A137A044201EA030190
:100F10001BD0937A03F0030309B143F0040343F0B9
:100F200008039910013B91720D2B0BD8DFE803F0F9
:100F300021071B070A152121150A071B0721D36862
:100F4000013BD3605DF8044B7047937A03F00303D1
:100F50000029E6D043F00403E3E7D3685DF8044BCF
:100F6000023BD3607047D3685DF8044B0233D36013
:100F70007047D3685DF8044B0133D360704700BFFE
:100F8000C4740220214B10B45A6913685068197850
:100F90000478507A137A044201EA03011BD0937A51
:100FA00003F0030309B143F0040343F0080399106D
:100FB000013B91720D2B0BD8DFE803F021071B07D3
:100FC0000A152121150A071B0721D368013BD360AD
:100FD0005DF8044B7047937A03F003030029E6D0D1
:100FE00043F00403E3E7D3685DF8044B023BD360AE
:100FF0007047D3685DF8044B0233D3607047D36801
:101000005DF8044B0133D360704700BFC474022005
:10101000214B10B49A691368506819780478507A93
:10102000137A044201EA03011BD0937A03F003030D
:1010300009B143F0040343F008039910013B917296
:101040000D2B0BD8DFE803F021071B070A15212120
:10105000150A071B0721D368013BD3605DF8044BD9
:101060007047937A03F003030029E6D043F00403AA
:10107000E3E7D3685DF8044B023BD3607047D36865
:101080005DF8044B0233D3607047D3685DF8044BBE
:101090000133D360704700BFC4740220214B10B4E9
:1010A000DA691368506819780478507A137A044220
:1010B00001EA03011BD0937A03F0030309B143F063
:1010C000040343F008039910013B91720D2B0BD8D8
:1010D000DFE803F021071B070A152121150A071B6A
:1010E0000721D368013BD3605DF8044B7047937AC6
:1010F00003F003030029E6D043F00403E3E7D368D9
:101100005DF8044B023BD3607047D3685DF8044B35
:101110000233D3607047D3685DF8044B0133D3606A
:10112000704700BFC4740220214B10B41A6A1368C0
:10113000506819780478507A137A044201EA03015E
:101140001BD0937A03F0030309B143F0040343F087
:1011500008039910013B91720D2B0BD8DFE803F0C7
:1011600021071B070A152121150A071B0721D36830
:10117000013BD3605DF8044B7047937A03F003039F
:101180000029E6D043F00403E3E7D3685DF8044B9D
:10119000023BD3607047D3685DF8044B0233D360E1
:1011A0007047D3685DF8044B0133D360704700BFCC
:1011B000C4740220214B10B4D3F8EC20136850689B
:1011C00019780478507A137A044201EA03011BD09B
:1011D000937A03F0030309B143F0040343F00803D7
:1011E0009910013B91720D2B0BD8DFE803F021071A
:1011F0001B070A152121150A071B0721D368013B8C
:10120000D3605DF8044B7047937A03F00303002921
:10121000E6D043F00403E3E7D3685DF8044B023BF8
:10122000D3607047D3685DF8044B0233D3607047D6
:10123000D3685DF8044B0133D3607047C474022057
:10124000214B10B41A681368506819780478507AE2
:10125000137A044201EA03011BD0937A03F00303DB
:1012600009B143F0040343F008039910013B917264
:101270000D2B0BD8DFE803F021071B070A152121EE
:10128000150A071B0721D368013BD3605DF8044BA7
:101290007047937A03F003030029E6D043F0040378
:1012A000E3E7D3685DF8044B023BD3607047D36833
:1012B0005DF8044B0233D3607047D3685DF8044B8C
:1012C0000133D360704700BFC4740220214B10B4B7
:1012D000D3F8E4201368506819780478507A137AA8
:1012E000044201EA03011BD0937A03F0030309B11E
:1012F00043F0040343F008039910013B91720D2B56
:101300000BD8DFE803F021071B070A152121150A76
:10131000071B0721D368013BD3605DF8044B70477E
:10132000937A03F003030029E6D043F00403E3E7D4
:10133000D3685DF8044B023BD3607047D3685DF817
:10134000044B0233D3607047D3685DF8044B01331C
:10135000D3607047C4740220214B10B4D3F8E82046
:101360001368506819780478507A137A044201EAB5
:1013700003011BD0937A03F0030309B143F0040384
:1013800043F008039910013B91720D2B0BD8DFE855
:1013900003F021071B070A152121150A071B072146
:1013A000D368013BD3605DF8044B7047937A03F038
:1013B00003030029E6D043F00403E3E7D3685DF8B4
:1013C000044B023BD3607047D3685DF8044B023393
:1013D000D3607047D3685DF8044B0133D360704726
:1013E000C4740220214B10B45A6E136850681978E7
:1013F0000478507A137A044201EA03011BD0937AED
:1014000003F0030309B143F0040343F00803991008
:10141000013B91720D2B0BD8DFE803F021071B076E
:101420000A152121150A071B0721D368013BD36048
:101430005DF8044B7047937A03F003030029E6D06C
:1014400043F00403E3E7D3685DF8044B023BD36049
:101450007047D3685DF8044B0233D3607047D3689C
:101460005DF8044B0133D360704700BFC4740220A1
:10147000214B10B49A6E1368506819780478507A2A
:10148000137A044201EA03011BD0937A03F00303A9
:1014900009B143F0040343F008039910013B917232
:1014A0000D2B0BD8DFE803F021071B070A152121BC
:1014B000150A071B0721D368013BD3605DF8044B75
:1014C0007047937A03F003030029E6D043F0040346
:1014D000E3E7D3685DF8044B023BD3607047D36801
:1014E0005DF8044B0233D3607047D3685DF8044B5A
:1014F0000133D360704700BFC4740220214B10B485
:10150000DA6E1368506819780478507A137A0442B6
:1015100001EA03011BD0937A03F0030309B143F0FE
:10152000040343F008039910013B91720D2B0BD873
:10153000DFE803F021071B070A152121150A071B05
:101540000721D368013BD3605DF8044B7047937A61
:1015500003F003030029E6D043F00403E3E7D36874
:101560005DF8044B023BD3607047D3685DF8044BD1
:101570000233D3607047D3685DF8044B0133D36006
:10158000704700BFC4740220214B10B41A6F136857
:10159000506819780478507A137A044201EA0301FA
:1015A0001BD0937A03F0030309B143F0040343F023
:1015B00008039910013B91720D2B0BD8DFE803F063
:1015C00021071B070A152121150A071B0721D368CC
:1015D000013BD3605DF8044B7047937A03F003033B
:1015E0000029E6D043F00403E3E7D3685DF8044B39
:1015F000023BD3607047D3685DF8044B0233D3607D
:101600007047D3685DF8044B0133D360704700BF67
:10161000C4740220214B10B45A6F136850681978B3
:101620000478507A137A044201EA03011BD0937ABA
:1016300003F0030309B143F0040343F008039910D6
:10164000013B91720D2B0BD8DFE803F021071B073C
:101650000A152121150A071B0721D368013BD36016
:101660005DF8044B7047937A03F003030029E6D03A
:1016700043F00403E3E7D3685DF8044B023BD36017
:101680007047D3685DF8044B0233D3607047D3686A
:101690005DF8044B0133D360704700BFC47402206F
:1016A000214B10B49A6F1368506819780478507AF7
:1016B000137A044201EA03011BD0937A03F0030377
:1016C00009B143F0040343F008039910013B917200
:1016D0000D2B0BD8DFE803F021071B070A1521218A
:1016E000150A071B0721D368013BD3605DF8044B43
:1016F0007047937A03F003030029E6D043F0040314
:10170000E3E7D3685DF8044B023BD3607047D368CE
:101710005DF8044B0233D3607047D3685DF8044B27
:101720000133D360704700BFC4740220214B10B452
:10173000DA6F1368506819780478507A137A044283
:1017400001EA03011BD0937A03F0030309B143F0CC
:10175000040343F008039910013B91720D2B0BD841
:10176000DFE803F021071B070A152121150A071BD3
:101770000721D368013BD3605DF8044B7047937A2F
:1017800003F003030029E6D043F00403E3E7D36842
:101790005DF8044B023BD3607047D3685DF8044B9F
:1017A0000233D3607047D3685DF8044B0133D360D4
:1017B000704700BFC4740220214B10B4D3F88020BE
:1017C0001368506819780478507A137A044201EA51
:1017D00003011BD0937A03F0030309B143F0040320
:1017E00043F008039910013B91720D2B0BD8DFE8F1
:1017F00003F021071B070A152121150A071B0721E2
:10180000D368013BD3605DF8044B7047937A03F0D3
:1018100003030029E6D043F00403E3E7D3685DF84F
:10182000044B023BD3607047D3685DF8044B02332E
:10183000D3607047D3685DF8044B0133D3607047C1
:10184000C4740220214B10B4D3F88420136850686C
:1018500019780478507A137A044201EA03011BD004
:10186000937A03F0030309B143F0040343F0080340
:101870009910013B91720D2B0BD8DFE803F0210783
:101880001B070A152121150A071B0721D368013BF5
:10189000D3605DF8044B7047937A03F0030300298B
:1018A000E6D043F00403E3E7D3685DF8044B023B62
:1018B000D3607047D3685DF8044B0233D360704740
:1018C000D3685DF8044B0133D3607047C4740220C1
:1018D000214B10B4D3F88820136850681978047825
:1018E000507A137A044201EA03011BD0937A03F081
:1018F000030309B143F0040343F008039910013BCB
:1019000091720D2B0BD8DFE803F021071B070A1596
:101910002121150A071B0721D368013BD3605DF81D
:10192000044B7047937A03F003030029E6D043F099
:101930000403E3E7D3685DF8044B023BD3607047D0
:10194000D3685DF8044B0233D3607047D3685DF809
:10195000044B0133D3607047C4740220214B10B490
:10196000D3F88C201368506819780478507A137A69
:10197000044201EA03011BD0937A03F0030309B187
:1019800043F0040343F008039910013B91720D2BBF
:101990000BD8DFE803F021071B070A152121150AE0
:1019A000071B0721D368013BD3605DF8044B7047E8
:1019B000937A03F003030029E6D043F00403E3E73E
:1019C000D3685DF8044B023BD3607047D3685DF881
:1019D000044B0233D3607047D3685DF8044B013386
:1019E000D3607047C4740220214B10B4D3F8902008
:1019F0001368506819780478507A137A044201EA1F
:101A000003011BD0937A03F0030309B143F00403ED
:101A100043F008039910013B91720D2B0BD8DFE8BE
:101A200003F021071B070A152121150A071B0721AF
:101A3000D368013BD3605DF8044B7047937A03F0A1
:101A400003030029E6D043F00403E3E7D3685DF81D
:101A5000044B023BD3607047D3685DF8044B0233FC
:101A6000D3607047D3685DF8044B0133D36070478F
:101A7000C4740220214B10B4D3F89420136850682A
:101A800019780478507A137A044201EA03011BD0D2
:101A9000937A03F0030309B143F0040343F008030E
:101AA0009910013B91720D2B0BD8DFE803F0210751
:101AB0001B070A152121150A071B0721D368013BC3
:101AC000D3605DF8044B7047937A03F00303002959
:101AD000E6D043F00403E3E7D3685DF8044B023B30
:101AE000D3607047D3685DF8044B0233D36070470E
:101AF000D3685DF8044B0133D3607047C47402208F
:101B0000214B10B4D3F898201368506819780478E2
:101B1000507A137A044201EA03011BD0937A03F04E
:101B2000030309B143F0040343F008039910013B98
:101B300091720D2B0BD8DFE803F021071B070A1564
:101B40002121150A071B0721D368013BD3605DF8EB
:101B5000044B7047937A03F003030029E6D043F067
:101B60000403E3E7D3685DF8044B023BD36070479E
:101B7000D3685DF8044B0233D3607047D3685DF8D7
:101B8000044B0133D3607047C4740220214B10B45E
:101B9000D3F89C201368506819780478507A137A27
:101BA000044201EA03011BD0937A03F0030309B155
:101BB00043F0040343F008039910013B91720D2B8D
:101BC0000BD8DFE803F021071B070A152121150AAE
:101BD000071B0721D368013BD3605DF8044B7047B6
:101BE000937A03F003030029E6D043F00403E3E70C
:101BF000D3685DF8044B023BD3607047D3685DF84F
:101C0000044B0233D3607047D3685DF8044B013353
:101C1000D3607047C4740220214B10B4D3F8A020C5
:101C20001368506819780478507A137A044201EAEC
:101C300003011BD0937A03F0030309B143F00403BB
:101C400043F008039910013B91720D2B0BD8DFE88C
:101C500003F021071B070A152121150A071B07217D
:101C6000D368013BD3605DF8044B7047937A03F06F
:101C700003030029E6D043F00403E3E7D3685DF8EB
:101C8000044B023BD3607047D3685DF8044B0233CA
:101C9000D3607047D3685DF8044B0133D36070475D
:101CA000C4740220214B10B4D3F8A42013685068E8
:101CB00019780478507A137A044201EA03011BD0A0
:101CC000937A03F0030309B143F0040343F00803DC
:101CD0009910013B91720D2B0BD8DFE803F021071F
:101CE0001B070A152121150A071B0721D368013B91
:101CF000D3605DF8044B7047937A03F00303002927
:101D0000E6D043F00403E3E7D3685DF8044B023BFD
:101D1000D3607047D3685DF8044B0233D3607047DB
:101D2000D3685DF8044B0133D3607047C47402205C
:101D3000214B10B4D3F8A8201368506819780478A0
:101D4000507A137A044201EA03011BD0937A03F01C
:101D5000030309B143F0040343F008039910013B66
:101D600091720D2B0BD8DFE803F021071B070A1532
:101D70002121150A071B0721D368013BD3605DF8B9
:101D8000044B7047937A03F003030029E6D043F035
:101D90000403E3E7D3685DF8044B023BD36070476C
:101DA000D3685DF8044B0233D3607047D3685DF8A5
:101DB000044B0133D3607047C4740220214B10B42C
:101DC000D3F8AC201368506819780478507A137AE5
:101DD000044201EA03011BD0937A03F0030309B123
:101DE00043F0040343F008039910013B91720D2B5B
:101DF0000BD8DFE803F021071B070A152121150A7C
:101E0000071B0721D368013BD3605DF8044B704783
:101E1000937A03F003030029E6D043F00403E3E7D9
:101E2000D3685DF8044B023BD3607047D3685DF81C
:101E3000044B0233D3607047D3685DF8044B013321
:101E4000D3607047C4740220214B10B4D3F8B02083
:101E50001368506819780478507A137A044201EABA
:101E600003011BD0937A03F0030309B143F0040389
:101E700043F008039910013B91720D2B0BD8DFE85A
:101E800003F021071B070A152121150A071B07214B
:101E9000D368013BD3605DF8044B7047937A03F03D
:101EA00003030029E6D043F00403E3E7D3685DF8B9
:101EB000044B023BD3607047D3685DF8044B023398
:101EC000D3607047D3685DF8044B0133D36070472B
:101ED000C4740220214B10B4D3F8B42013685068A6
:101EE00019780478507A137A044201EA03011BD06E
:101EF000937A03F0030309B143F0040343F00803AA
:101F00009910013B91720D2B0BD8DFE803F02107EC
:101F10001B070A152121150A071B0721D368013B5E
:101F2000D3605DF8044B7047937A03F003030029F4
:101F3000E6D043F00403E3E7D3685DF8044B023BCB
:101F4000D3607047D3685DF8044B0233D3607047A9
:101F5000D3685DF8044B0133D3607047C47402202A
:101F6000214B10B4D3F8B82013685068197804785E
:101F7000507A137A044201EA03011BD0937A03F0EA
:101F8000030309B143F0040343F008039910013B34
:101F900091720D2B0BD8DFE803F021071B070A1500
:101FA0002121150A071B0721D368013BD3605DF887
:101FB000044B7047937A03F003030029E6D043F003
:101FC0000403E3E7D3685DF8044B023BD36070473A
:101FD000D3685DF8044B0233D3607047D3685DF873
:101FE000044B0133D3607047C4740220214B10B4FA
:101FF000D3F8BC201368506819780478507A137AA3
:10200000044201EA03011BD0937A03F0030309B1F0
:1020100043F0040343F008039910013B91720D2B28
:102020000BD8DFE803F021071B070A152121150A49
:10203000071B0721D368013BD3605DF8044B704751
:10204000937A03F003030029E6D043F00403E3E7A7
:10205000D3685DF8044B023BD3607047D3685DF8EA
:10206000044B0233D3607047D3685DF8044B0133EF
:10207000D3607047C4740220214B10B4D3F8C02041
:102080001368506819780478507A137A044201EA88
:1020900003011BD0937A03F0030309B143F0040357
:1020A00043F008039910013B91720D2B0BD8DFE828
:1020B00003F021071B070A152121150A071B072119
:1020C000D368013BD3605DF8044B7047937A03F00B
:1020D00003030029E6D043F00403E3E7D3685DF887
:1020E000044B023BD3607047D3685DF8044B023366
:1020F000D3607047D3685DF8044B0133D3607047F9
:10210000C4740220214B10B4D3F8C4201368506863
:1021100019780478507A137A044201EA03011BD03B
:10212000937A03F0030309B143F0040343F0080377
:102130009910013B91720D2B0BD8DFE803F02107BA
:102140001B070A152121150A071B0721D368013B2C
:10215000D3605DF8044B7047937A03F003030029C2
:10216000E6D043F00403E3E7D3685DF8044B023B99
:10217000D3607047D3685DF8044B0233D360704777
:10218000D3685DF8044B0133D3607047C4740220F8
:10219000214B10B4D3F8C82013685068197804781C
:1021A000507A137A044201EA03011BD0937A03F0B8
:1021B000030309B143F0040343F008039910013B02
:1021C00091720D2B0BD8DFE803F021071B070A15CE
:1021D0002121150A071B0721D368013BD3605DF855
:1021E000044B7047937A03F003030029E6D043F0D1
:1021F0000403E3E7D3685DF8044B023BD360704708
:10220000D3685DF8044B0233D3607047D3685DF840
:10221000044B0133D3607047C4740220214B10B4C7
:10222000D3F8CC201368506819780478507A137A60
:10223000044201EA03011BD0937A03F0030309B1BE
:1022400043F0040343F008039910013B91720D2BF6
:102250000BD8DFE803F021071B070A152121150A17
:10226000071B0721D368013BD3605DF8044B70471F
:10227000937A03F003030029E6D043F00403E3E775
:10228000D3685DF8044B023BD3607047D3685DF8B8
:10229000044B0233D3607047D3685DF8044B0133BD
:1022A000D3607047C4740220214B10B4D3F8D020FF
:1022B0001368506819780478507A137A044201EA56
:1022C00003011BD0937A03F0030309B143F0040325
:1022D00043F008039910013B91720D2B0BD8DFE8F6
:1022E00003F021071B070A152121150A071B0721E7
:1022F000D368013BD3605DF8044B7047937A03F0D9
:1023000003030029E6D043F00403E3E7D3685DF854
:10231000044B023BD3607047D3685DF8044B023333
:10232000D3607047D3685DF8044B0133D3607047C6
:10233000C4740220214B10B4D3F8D4201368506821
:1023400019780478507A137A044201EA03011BD009
:10235000937A03F0030309B143F0040343F0080345
:102360009910013B91720D2B0BD8DFE803F0210788
:102370001B070A152121150A071B0721D368013BFA
:10238000D3605DF8044B7047937A03F00303002990
:10239000E6D043F00403E3E7D3685DF8044B023B67
:1023A000D3607047D3685DF8044B0233D360704745
:1023B000D3685DF8044B0133D3607047C4740220C6
:1023C000214B10B4D3F8D8201368506819780478DA
:1023D000507A137A044201EA03011BD0937A03F086
:1023E000030309B143F0040343F008039910013BD0
:1023F00091720D2B0BD8DFE803F021071B070A159C
:102400002121150A071B0721D368013BD3605DF822
:10241000044B7047937A03F003030029E6D043F09E
:102420000403E3E7D3685DF8044B023BD3607047D5
:10243000D3685DF8044B0233D3607047D3685DF80E
:10244000044B0133D3607047C4740220214B10B495
:10245000D3F8DC201368506819780478507A137A1E
:10246000044201EA03011BD0937A03F0030309B18C
:1024700043F0040343F008039910013B91720D2BC4
:102480000BD8DFE803F021071B070A152121150AE5
:10249000071B0721D368013BD3605DF8044B7047ED
:1024A000937A03F003030029E6D043F00403E3E743
:1024B000D3685DF8044B023BD3607047D3685DF886
:1024C000044B0233D3607047D3685DF8044B01338B
:1024D000D3607047C4740220214B10B4D3F8E020BD
:1024E0001368506819780478507A137A044201EA24
:1024F00003011BD0937A03F0030309B143F00403F3
:1025000043F008039910013B91720D2B0BD8DFE8C3
:1025100003F021071B070A152121150A071B0721B4
:10252000D368013BD3605DF8044B7047937A03F0A6
:1025300003030029E6D043F00403E3E7D3685DF822
:10254000044B023BD3607047D3685DF8044B023301
:10255000D3607047D3685DF8044B0133D360704794
:10256000C4740220002310B4114C41720261046053
:102570000372C36041B1194600E0026942F82310BA
:10258000427A01339A42F8DC0A4B1A680AB90CE025
:102590001A465369002BFBD15061002343618380AD
:1025A000C38083725DF8044B70471860F5E700BF85
:1025B0006C950100C8750220F8B5044615460E4614
:1025C000084602210FF0BEFB284602210FF0BAFB9D
:1025D000984A994B52F83610012001F50077276090
:1025E000207252F83520607202F500770020676093
:1025F000E060013BFDD191F8003292F8002203F037
:102600000103D20744BF43F00203DBB2A3723B2EA7
:1026100000F20386DFE816F0F405EA05E005D605CA
:10262000CC05C205B805AE05A4059A05900586053A
:102630007C05720568055E0554054A0540053605AA
:102640002C05220518050E050405FA04F004E6041D
:10265000DC04D204C804BE04B304A8049D0492049C
:1026600087047C0428041E0414040A040004F603EE
:10267000EC03E203D803CE03C403BA03B003A603FA
:102680009C03920388037E0374036A0360033C0087
:102690006A4B6B49C3F8EC4004223B200FF0AAFAC6
:1026A000012323743B2D00F2B585DFE815F00B0301
:1026B0000103F702ED02E302D902CF02C502BB0219
:1026C000B102A7029D02930289027F023102270212
:1026D0001D0213020902FF01F501EB01E101D7011F
:1026E000CD01C301B901AF01A5019B019101860193
:1026F0007B01700165015A014F01440139012E012E
:10270000230118010D010201F700EC00E100B800FF
:10271000AD00A20097008C00810076006B00600085
:1027200055004A003C00454B4549C3F8EC400422A3
:102730003B200FF05FFA237C0122134423742046D0
:10274000F8BD3E4B3F49C3F8E84004223A200FF061
:1027500051FA237C0122F0E7384B3B49C3F8E440AF
:10276000042239200FF046FA237C0122E5E7334B9F
:102770003649C3F8E040042238200FF03BFA237CAE
:102780000122DAE72D4B3249C3F8DC40042237201E
:102790000FF030FA237C0122CFE7284B2D49C3F8F4
:1027A000D840042236200FF025FA237C0122C4E70A
:1027B000224B2949C3F8D440042235200FF01AFADD
:1027C000237C0122B9E71D4B2449C3F8D0400422E1
:1027D00034200FF00FFA237C0122AEE7174B20497B
:1027E000C3F8CC40042233200FF004FA237C0122EA
:1027F000A3E7124B1B49C3F8C840042232200FF054
:10280000F9F9237C012298E70C4B1749C3F8C4401F
:10281000042231200FF0EEF9237C01228DE7074BD3
:102820001249C3F8C040042230200FF0E3F9237CA2
:10283000012282E7F4D40100C0D40100C474022054
:10284000B511000059130000CD120000D92400007A
:102850004D240000C123000035230000A922000000
:102860001D220000912100000521000079200000B8
:10287000AC4BAD49C3F8BC4004222F200FF0BAF98D
:10288000237C012259E7A74BA849C3F8B84004228A
:102890002E200FF0AFF9237C01224EE7A14BA44973
:1028A000C3F8B44004222D200FF0A4F9237C0122A8
:1028B00043E79C4B9F49C3F8B04004222C200FF003
:1028C00099F9237C012238E7964B9B49C3F8AC4029
:1028D00004222B200FF08EF9237C01222DE7914B4F
:1028E0009649C3F8A84004222A200FF083F9237CDC
:1028F000012222E78B4B9249C3F8A44004222920ED
:102900000FF078F9237C012217E7864B8D49C3F835
:10291000A040042228200FF06DF9237C01220CE74F
:10292000804B8949C3F89C40042227200FF062F9AC
:10293000237C012201E77B4B8449C3F898400422A1
:1029400026200FF057F9237C0122F6E6754B8049CB
:10295000C3F89440042225200FF04CF9237C012277
:10296000EBE6704B7B49C3F89040042224200FF023
:1029700041F9237C0122E0E66A4B7749C3F88C4099
:10298000042223200FF036F9237C0122D5E6654B83
:102990007249C3F88840042222200FF02BF9237CCF
:1029A0000122CAE65F4B6E49C3F88440042221200D
:1029B0000FF020F9237C0122BFE65A4B6949C3F886
:1029C0008040042220200FF015F9237C0122B4E678
:1029D000544B6549DC6704221F200FF00BF9237C60
:1029E0000122AAE64F4B61499C6704221E200FF08A
:1029F00001F9237C0122A0E64A4B5D495C67042271
:102A00001D200FF0F7F8237C012296E6454B59492B
:102A10001C6704221C200FF0EDF8237C01228CE6B9
:102A2000404B5549DC6604221B200FF0E3F8237C61
:102A3000012282E63B4B51499C6604221A200FF08A
:102A4000D9F8237C012278E6364B4D495C66042296
:102A500019200FF0CFF8237C01226EE6314B494953
:102A60001C66042218200FF0C5F8237C012264E6BE
:102A70002C4B4549DC65042217200FF0BBF8237C62
:102A800001225AE6274B41499C65042216200FF08B
:102A9000B1F8237C012250E6224B3D495C650422BB
:102AA00015200FF0A7F8237C012246E61D4B39497B
:102AB0001C65042214200FF09DF8237C01223CE6C3
:102AC000184B3549DC64042213200FF093F8237C63
:102AD000012232E6134B31499C64042212200FF08C
:102AE00089F8237C012228E60E4B2D495C640422E0
:102AF00011200FF07FF8237C01221EE6094B2949A3
:102B00001C64042210200FF075F8237C012214E6C7
:102B1000044B2549DC6304220F200FF06BF8237C63
:102B200001220AE6C4740220ED1F0000611F0000AC
:102B3000D51E0000491E0000BD1D0000311D000013
:102B4000A51C0000191C00008D1B0000011B0000CB
:102B5000751A0000E91900005D190000D118000085
:102B600045180000B91700002D170000A11600003D
:102B70001516000089150000FD14000071140000F6
:102B8000E5130000C90C00003D0C0000B10B000073
:102B9000250B0000990A00000D0A000081090000C1
:102BA000F508000069080000DD070000B34BB449D8
:102BB0009C6304220E200FF01DF8237C0122BCE54B
:102BC000AE4BB0495C6304220D200FF013F8237C58
:102BD0000122B2E5A94BAC491C6304220C200FF082
:102BE00009F8237C0122A8E5A44BA849DC62042251
:102BF0000B200EF0FFFF237C01229EE59F4BA44992
:102C00009C6204220A200EF0F5FF237C012294E549
:102C10009A4BA0495C62042209200EF0EBFF237C52
:102C200001228AE5954B9C491C62042208200EF083
:102C3000E1FF237C012280E5904B9849DC6104226E
:102C400007200EF0D7FF237C012276E58B4B9449B9
:102C50009C61042206200EF0CDFF237C01226CE54E
:102C6000864B90495C61042205200EF0C3FF237C53
:102C7000012262E5814B8C491C61042210460EF052
:102C8000B9FF237C012258E57C4B8849DC60042293
:102C900003200EF0AFFF237C01224EE5774B8449E1
:102CA0009C60042202200EF0A5FF237C012244E553
:102CB000724B80495C60042201200EF09BFF237C54
:102CC00001223AE56D4B7C491C60042200200EF085
:102CD00091FF237C012230E5684B7849C3F8E84036
:102CE00004223A200EF086FF0123DAE4634B744994
:102CF000C3F8E440042239200EF07CFF0123D0E425
:102D00005E4B7049C3F8E040042238200EF072FF99
:102D10000123C6E4594B6C49C3F8DC400422372038
:102D20000EF068FF0123BCE4544B6849C3F8D84057
:102D3000042236200EF05EFF0123B2E44F4B6449BB
:102D4000C3F8D440042235200EF054FF0123A8E438
:102D50004A4B6049C3F8D040042234200EF04AFFA9
:102D600001239EE4454B5C49C3F8CC400422332048
:102D70000EF040FF012394E4404B5849C3F8C8408B
:102D8000042232200EF036FF01238AE43B4B5449E3
:102D9000C3F8C440042231200EF02CFF012380E44C
:102DA000364B5049C3F8C040042230200EF022FFB9
:102DB000012376E4314B4C49C3F8BC4004222F2058
:102DC0000EF018FF01236CE42C4B4849C3F8B840BF
:102DD00004222E200EF00EFF012362E4274B44490B
:102DE000C3F8B44004222D200EF004FF012358E460
:102DF000224B4049C3F8B04004222C200EF0FAFECA
:102E000001234EE41D4B3C49C3F8AC4004222B2067
:102E10000EF0F0FE012344E4184B3849C3F8A840F3
:102E200004222A200EF0E6FE01233AE4134B344933
:102E3000C3F8A440042229200EF0DCFE012330E474
:102E40000E4B3049C3F8A040042228200EF0D2FED9
:102E5000012326E4094B2C49C3F89C400422272077
:102E60000EF0C8FE01231CE4044B2849C3F8984027
:102E7000042226200EF0BEFE012312E4C4740220B8
:102E800051070000C506000039060000AD0500002E
:102E90002105000095040000291100009D1000008C
:102EA00011100000850F0000F90E00006D0E0000EB
:102EB000E10D0000550D0000411200005913000003
:102EC000CD120000D92400004D240000C1230000D1
:102ED00035230000A92200001D22000091210000DE
:102EE0000521000079200000ED1F0000611F000097
:102EF000D51E0000491E0000BD1D0000311D000050
:102F0000A51C0000191C00008D1B0000011B000007
:102F1000C34BC449C3F89440042225200EF06AFE36
:102F20000123FFF7BEBBBE4BBF49C3F8904004224C
:102F300024200EF05FFE0123FFF7B3BBB84BBB4963
:102F4000C3F88C40042223200EF054FE0123FFF727
:102F5000A8BBB34BB649C3F88840042222200EF028
:102F600049FE0123FFF79DBBAD4BB249C3F8844036
:102F7000042221200EF03EFE0123FFF792BBA84B56
:102F8000AD49C3F88040042220200EF033FE012317
:102F9000FFF787BBA24BA949DC6704221F200EF074
:102FA00029FE0123FFF77DBB9D4BA5499C670422A9
:102FB0001E200EF01FFE0123FFF773BB984BA149A3
:102FC0005C6704221D200EF015FE0123FFF769BB8C
:102FD000934B9D491C6704221C200EF00BFE01231D
:102FE000FFF75FBB8E4B9949DC6604221B200EF075
:102FF00001FE0123FFF755BB894B95499C660422CE
:103000001A200EF0F7FD0123FFF74BBB844B9149CB
:103010005C66042219200EF0EDFD0123FFF741BB91
:103020007F4B8D491C66042218200EF0E3FD01231E
:10303000FFF737BB7A4B8949DC65042217200EF075
:10304000D9FD0123FFF72DBB754B85499C650422F3
:1030500016200EF0CFFD0123FFF723BB704B8149F3
:103060005C65042215200EF0C5FD0123FFF719BB96
:103070006B4B7D491C65042214200EF0BBFD01231F
:10308000FFF70FBB664B7949DC64042213200EF076
:10309000B1FD0123FFF705BB614B75499C64042218
:1030A00012200EF0A7FD0123FFF7FBBA5C4B71491C
:1030B0005C64042211200EF09DFD0123FFF7F1BA9C
:1030C000574B6D491C64042210200EF093FD012320
:1030D000FFF7E7BA524B6949DC6304220F200EF078
:1030E00089FD0123FFF7DDBA4D4B65499C6304223E
:1030F0000E200EF07FFD0123FFF7D3BA484B614944
:103100005C6304220D200EF075FD0123FFF7C9BAA0
:10311000434B5D491C6304220C200EF06BFD012320
:10312000FFF7BFBA3E4B5949DC6204220B200EF078
:1031300061FD0123FFF7B5BA394B55499C62042262
:103140000A200EF057FD0123FFF7ABBA344B51496B
:103150005C62042209200EF04DFD0123FFF7A1BAA5
:103160002F4B4D491C62042208200EF043FD012321
:10317000FFF797BA2A4B4949DC61042207200EF079
:1031800039FD0123FFF78DBA254B45499C61042287
:1031900006200EF02FFD0123FFF783BA204B414993
:1031A0005C61042205200EF025FD0123FFF779BAAA
:1031B0001B4B3D491C61042210460EF01BFD0123F0
:1031C000FFF76FBA164B3949DC60042203200EF07A
:1031D00011FD0123FFF765BA114B35499C600422AC
:1031E00002200EF007FD0123FFF75BBA0C4B3149BB
:1031F0005C60042201200EF0FDFC0123FFF751BAB0
:10320000074B2D491C60042200200EF0F3FC012323
:10321000FFF747BA0022FFF790BA0023FFF741BA41
:10322000C4740220751A0000E91900005D1900003D
:10323000D118000045180000B91700002D17000034
:10324000A11600001516000089150000FD140000ED
:1032500071140000E5130000C90C00003D0C0000D3
:10326000B10B0000250B0000990A00000D0A0000B8
:1032700081090000F508000069080000DD07000072
:1032800051070000C506000039060000AD0500002A
:103290002105000095040000291100009D10000088
:1032A00011100000850F0000F90E00006D0E0000E7
:1032B000E10D0000550D00004112000070B5354CC5
:1032C000354A364990B0002508A80123256002F050
:1032D000FDFC10AA32480A9B12F8145D9DF82410D8
:1032E00083600573017100F10D031A3012F8011F9C
:1032F00003F8011B83422A49F8D10F9BCB6108A830
:1033000002F00CFC274E05E008A802F01DFC08A8FE
:1033100002F004FC08A80122214902F04BFD08A894
:1033200002F020FC10B92368312B2DDD08A802F033
:10333000F9FB0028E8D108A802F0F2FB0146684634
:103340000EF000FA184904A80EF0FCF904A968462A
:103350000EF026FA054604A80EF0B4F91DB9684629
:103360000EF0B0F9D0E7236803EB430503EB8503C8
:1033700008A8F51802F0D4FB0146284612F0DEFB3F
:10338000236801332360EAE708A802F0C7FB10B006
:1033900070BD00BF10680020A89601000C6D0220CF
:1033A000E86C022068500020AC96010008B5024687
:1033B0000B46044804490EF02FF964200EF0C8FCB7
:1033C000FBE700BF44420020B496010010B592B064
:1033D000014601A80EF0B6F90023322201A805A982
:1033E0000EF0C4F905A905480DF0CCFA044601A871
:1033F0000EF068F9A0B212B010BD00BF5C690020E9
:1034000010B5A2B044221749044668460EF052FA9D
:1034100044220DEB020014490EF04CFAADF1040207
:10342000002352F8041FA14204D00133112BF8D11C
:1034300022B010BD0D490A68002AFCDB22AA02EB6B
:1034400083030B4913F8442C33F8423C013A12032E
:10345000013B02F47F22C3F30B0313430B6022B042
:1034600010BD00BF70950100B495010000F102404D
:1034700004F102402DE9F04F2DED028BDFF8ECA0B6
:10348000364BDFED378A9FED378A85B0D3460393FD
:103490004FF00009039B5BF8045F33F9022F03939D
:1034A00007EE902A07EE105AFAEEEF7AB8EEC77AD6
:1034B000FDEEE77A27EE287AF8EEE76A17EE904AF3
:1034C000A6EE887A1FFA89F606F104084FF4FC602C
:1034D000BDEEC77A0FFA88F817EE107ABE2FD4BF68
:1034E00027EAE777BE27BE2CA8BFBE2423B25A2204
:1034F000A4B2414600901C480BF0F4FBC4F1BE039B
:1035000004F15A02002441461BB212B2164800943C
:1035100005360BF0E7FB36B24FF4487331460093A3
:103520005A222BB21048ADB20BF0DCFBC5F1BE0342
:1035300005F15A0209F10209009431461BB212B298
:1035400009480BF0CFFBB9F1FC0F4AF8047FA1D179
:1035500005B0BDEC028BBDE8F08F00BF7E5B0020A4
:103560003333733FCDCC4C3D5C690020F8520020D2
:103570002DE9F04118480AF0B9FA01282AD9DFF8F4
:103580006480164F00253B681348144E05EB430337
:1035900008EB03240AF0DCFA4FF48072014620465F
:1035A0000EF088F901350C480AF0F0FA022DEAD144
:1035B00033680133BF2B02D83360BDE8F0810022AD
:1035C000074B3260074908484FF4C03206F09AFEB4
:1035D000064B1870BDE8F08150680020146500208B
:1035E000304D0020006A002018650020C4EC012046
:1035F00038B50D211C481D4C0FF036FC1C491D4AE6
:10360000002381F8F63013700DE019480AF0A0FA93
:10361000194B01464FF48072184806F073FE207073
:1036200013480AF0B3FA12480AF060FA0028ECDCFA
:10363000124807F099F80546207088B9104B1148D8
:103640001D6013210FF010FC0F480DF0CDFF29462F
:103650000E480BF08FFE0E4B4FF480329A6138BD4E
:1036600001460C48FFF7A2FECC960100C4EC0120F5
:1036700050680020B44D0020304D00201865002017
:103680009C690020E4960100444200205C6900200F
:10369000504D0020DC960100F8B5494E34685CB10D
:1036A000032C484D28D0022C3CD0012C56D0042CA1
:1036B00073D000232B62F8BD4348424D434F09F0BD
:1036C0004DFC434A434B11681A68EC6191424FF438
:1036D0008033AB6104BFEB61AC613F4B34683F4862
:1036E0003F4A00211960032C4FF001034FF0020103
:1036F0003B6003601160D6D14FF480413248334FB4
:1037000009F010FC344B34683548344900221A6003
:10371000AA6101234FF48032022C3B6003600B60EE
:10372000EA61C2D1284F4FF48041384609F0E4FBEA
:10373000294B3468DFF894E02948284940F6CD4207
:103740003A6200221A60AA6101234FF48032012CF0
:10375000CEF8003003600B60EA61A8D11A48194C1A
:103760001D4F09F0FBFB1A4A1A4B116818684FF4F9
:10377000803288424FF00003EB61AA6108BFE2612A
:1037800012481749154A08BFA36101233468036032
:1037900000263E600B60136089E70B480E4F0B4E0E
:1037A0000F4C09F0DBFB0D48002201234FF4803160
:1037B0003A60EA61AA613360236003602962F8BD60
:1037C000A467002014680020C8670020086D02204C
:1037D000C0EC0120203E002084690020A867002062
:1037E000344D00202DE9F04FA348DFF8CC928BB088
:1037F00002F086F9A14AA2499F4811F0B9FAA149FD
:10380000A1480DF09FFF9D4AA0499F4811F0B0FAD2
:103810001C211B2227238DE80E009D48FF23142224
:1038200015210BF0FFF8322225219A480AF0A0FC5E
:103830003222242198480AF09BFC23222221974817
:10384000FEF7BAFE3222262195480AF091FC322278
:103850001D2194480AF08CFC1F221E219248FEF77D
:10386000ABFE924B1A68924BC9F80030002389F8DE
:103870000930C9F8103089F80830C9F80C300AB995
:10388000A7E21A465369002BFBD1C2F8149000241A
:10389000DFF878B2874B8848C9F81440A9F804408B
:1038A000A9F8064089F80A40C9F8003009F06CFC14
:1038B0000BF1180201215846FEF754FE7F4B804859
:1038C0008BF8F440224621468BF8F540CBF8F040C7
:1038D0008BF8F640CBF80030FEF744FE784A794B7F
:1038E0001360794A764E794D18324FF48043A2F135
:1038F000180002213362FEF735FE734A744B1360E1
:10390000012005F224726A4E2C7223462146EC6097
:103910002E6068722A612C4600E0226942F823106A
:103920006A7A6A4801339A42F7DC604B1A680AB92E
:1039300053E21A465369002BFBD1556100246549B7
:103940002960224601234FF48071634E63486C6105
:10395000AC80EC80AC7285F8214785F82247C5F829
:10396000186110F035FB514BDFF87C811A68504923
:10397000C5F81C41082385F8203788F80940C8F8A5
:103980000010C8F8104088F80840C8F80C40474BB1
:103990000AB924E21A465369002BFBD1C2F81480FD
:1039A0004FF0000A4E4B4F48C8F814A0A8F804A0E6
:1039B000A8F806A088F80AA0C8F8003002F0A0F81D
:1039C00049484A4C4A4F4B4E09F08CFF2B4A4A4912
:1039D000454811F0CDF9494B012103F11802184671
:1039E000FEF7C0FD454A464B1360464B042103F1E8
:1039F00028021846FEF7B6FD434B03F1280218468D
:103A0000404B04211C604FF480349C61DC611C62DB
:103A10005C62FEF7A7FD3C4B344C1C6007F12802AA
:103A20004FF48034042138469C61DC611C625C6286
:103A3000FEF798FD2D49BC61022006F11802FC61D9
:103A40003C627C621A4C396034605346514686F8B9
:103A500008A0C6F80CA070723261344600E02269FA
:103A600042F82310727A234801339A42F7DC0F4B55
:103A70001A68002A4DD1B5E1E86C02200C3E002006
:103A80001D5B0000F89601001C4D0020C5160100CA
:103A90005C690020C462002014EA0120B0670020A5
:103AA0003C4D0020EC690020A04D0020C87502208C
:103AB0006C95010010A10100A869002040A101003F
:103AC000405B00204CA1010098EA0120645B0020CB
:103AD00004A10100D09E0100F09E01008C62002034
:103AE00034A1010040EA012028EA01201CA10100C4
:103AF0006C670020C8EC012071040000C86700203A
:103B0000F8A00100504D00201468002050680020EB
:103B10001A465369002BFBD156610024B24AB34BBD
:103B20007461B480F480B472B1483260059309F0D6
:103B300027FE059BDFF80CA31C721846C3F8009003
:103B40005F605C72DC601C740DF0E8FA059BA94AAA
:103B5000A949184611F00CF9A84B059350468AE87C
:103B6000000A8AF808408AF80940CAF80C408AF826
:103B700010400DF0D3FA9F4A9F49DFF8CCB250466F
:103B800011F0F6F8059BDFF8C4A21C724FF0010992
:103B90001846C3F800805F60DC601C7483F80990ED
:103BA0000DF0BCFA059B934A9349DFF8A4821846AE
:103BB00011F0DEF8924BCBF8043058468BF80840F1
:103BC000CBF800708BF80940CBF80C408BF8104014
:103BD0000DF0A4FA874A8849584611F0C9F8894B74
:103BE000CAF8043050468AF80840CAF800708AF8CB
:103BF0000940CAF80C408AF810400DF08FFA7D4A4F
:103C00007D49DFF850B2504611F0B2F87C4B88F88D
:103C10000840404688E8280088F80940C8F80C4069
:103C200088F810400DF07AFA724A7349764B059382
:103C3000404611F09DF8754BDFF81CA2CBF804301C
:103C400058468BF80840CBF800708BF80940CBF849
:103C50000C408BF810400DF061FA664A6649DFF8B7
:103C6000FC816B4D584611F083F86A4BCAF800305E
:103C70005046664BCAF804308AF808408AF8099022
:103C8000CAF80C408AF810400DF048FA5A49594ACF
:103C9000DFF8CCB1504611F06BF8059B594A1A6019
:103CA00018465D4A1C725A6083F80990DC601C74E7
:103CB0000DF034FA059B4F4A4F49DFF8A8A118468A
:103CC00011F056F8514BC8F800304046524BC8F836
:103CD000043088F8084088F80940C8F80C4088F893
:103CE00010400DF01BFA4449424A404611F040F89A
:103CF00002232846484A6B722C722F606A60EC607F
:103D00002C740DF00BFA3B4A3B49444FDFF85881C5
:103D1000284611F02DF8404B8BF8084058468BE8A8
:103D200048008BF80940CBF80C408BF810400DF0A0
:103D3000F5F9304A3049584611F01AF8364B8AF8EE
:103D4000099050468AE848008AF80840CAF80C40B2
:103D50008AF810400DF0E2F95046264A2649DFF86D
:103D60000CA12F4C2F4E11F003F82F492F4B0A684E
:103D70000792DDF81CB00A6808921A68089B096867
:103D800009911D462A4B0999DFF8E4C02948DFF85C
:103D9000E4E02468CAF800B002EB420903EB8903AF
:103DA0003A60A1F57A79D3F804A09968224A234BA6
:103DB000CCF800504FF00A0CCEF800903160C2F8F9
:103DC00000A0C8F80040036080F808C00BB0BDE850
:103DD000F08F1B4BC3F8009059E51860AEE5C3F8AF
:103DE0000080DDE5186098E628A10100B06200209F
:103DF000C8EC01200C3E0020890400002C5B002050
:103E0000504D0020C867002000EA012098EA0120F8
:103E1000105B0020405B002014680020D46200206A
:103E2000583E00204C68002074760220503E00204E
:103E3000F89501005C4E0020A0690020DC9E010086
:103E4000C8750220486900206CEA012080EA012040
:103E5000D8690020884D0020C469002088690020AE
:103E6000FC5A00209C620020F45A0020BCEC012087
:103E7000F85A0020AC6700202DE9F0432DED028BAD
:103E8000BC4CDFF86883BC4D95B020464FF6E0711E
:103E90000CF0FAFD4FF40041282300220191009319
:103EA0002046F0231146A5610BF0A6F8D8F80030A3
:103EB000022B00F01982012B00F0248214224FF40F
:103EC00000438DE80C000021F0234FF48C72A948C8
:103ED0000BF092F828224FF448738DE80C00002173
:103EE000F0234FF49672A3480BF086F80022114697
:103EF000A0480CF0ADFD0222A0499E480DF03AFB0F
:103F00009F4B9C4893F900100DF0D4FBD8F800307B
:103F1000012B00F0018203229A4996480DF02AFBFA
:103F2000994B944893F900100DF0C4FB0322974974
:103F300090480DF01FFB964B1C68204611F060FE68
:103F4000214602468B480DF015FB142200218948BA
:103F50000CF07EFD8F4B1B68042B00F2AE81DFE876
:103F600013F0F1000301F700FD00050004228A4967
:103F700080480DF0FFFA894B894F1968894D0BA8CD
:103F800006F094FC1422B4217A480CF061FD0C9ADE
:103F90000D9B00920921844A05A811F0F3FC05A8A5
:103FA00011F02EFE05A9024672480DF0E3FA002139
:103FB0004FF48C726F480CF04BFD3B686D48012B41
:103FC0000CBF4DF29A614FF6E0710CF05DFD2B686D
:103FD000082B03D13A68012A00F0D781734E56F8B6
:103FE0002340204611F00CFE2146024661480DF0A8
:103FF000C1FA01226E495F480DF0BCFA2B68072B0D
:1040000000F061816B4B6C4C1B685A48012B0CBF54
:104010004DF29A614FF6E0710CF036FD236856F8C8
:104020002300FFF7D3F9C0F1F00109B24FF48C720D
:1040300050480CF00DFD236856F82340204611F03F
:10404000DFFD214602464B480DF094FA4FF496727C
:10405000002148480CF0FCFC4FF6E07145480CF09C
:1040600013FD2B68032B00F0ED80544C2378002BBC
:1040700000F00381012B00F00981022B504C00F06D
:1040800013814FF6E0713B480CF0FEFC4D4B22785B
:104090004D491C784D4B052C0CBF1C460C46002A84
:1040A00000F0A880D8F80030002B40F3BC80484BCB
:1040B000484D1B68DFF838919FED477AD9F800200A
:1040C000002B1F46B8BF03F1FF073F1207EE907A9F
:1040D00092FBF7F785FB0315DB17FAEEEF7AC3EBDC
:1040E0006535012D87EE278A4FEA470717DD012442
:1040F0004FF6E0760096052355221E4807EE904ABB
:10410000F8EEE77A013467EE887AFDEEE77ACDEDD6
:10411000037ABDF90C100AF0E5FDA542EAD14FF68D
:10412000E07300935722032339B212480BF0EAFFE1
:10413000D8F80030022B00F0078115B0BDEC028BDF
:10414000BDE8F083022225490A480DF013FA12E770
:104150000722234907480DF00DFA0CE702222149F6
:1041600004480DF007FA06E707221F4901480DF041
:1041700001FA00E75C6900208CCE0100189701006D
:10418000143E002020970100543E00202497010097
:10419000A0690020A46700204097010000D00340E0
:1041A000086D02208469002050970100243E002001
:1041B0005C970100A8670020344D00204C4D002082
:1041C00024EA01204C3E00200897010010970100CE
:1041D0004C680020AD8BDB6800401C46289701002E
:1041E000389701002C970100309701005C3E0020B9
:1041F000583E0020214675480CF0C4FBC0F1EB018D
:1042000009B24FF4967271480CF022FC204611F06E
:10421000F7FC214602466D480DF0ACF9D8F80030A5
:10422000002B3FF744AF5522002168480CF010FCEA
:104230001022674965480DF09DF915B0BDEC028B61
:10424000BDE8F0833B68012B7FF40FAF614C5F4802
:104250004FF6FF710CF018FC2378002B00F0A780BC
:10426000012B00F0AB80022B5B4C7FF40AAF5B4963
:10427000564804220DF07EF903E7072258495348B7
:104280000DF078F92378012B7FF4F7AE554B1B78AE
:10429000002B52D0062254494C480DF06BF923787C
:1042A0004D4C022B7FF4EDAE2378002BDFD004229F
:1042B0004E4946480DF05EF9E3E605224C49434875
:1042C0000DF058F957E64B4B4B4A1B6803EB430381
:1042D00002EB83035C68204611F092FC2146024603
:1042E0003A480DF047F98DE600211E230093204641
:1042F000F02301913C220AF07FFED8F80030012B18
:104300007FF4DCAD0021062300930191F0235422B9
:104310002E480AF071FED1E5032238492B480DF0F2
:1043200029F9374B37491B68284881FB0321DB17E4
:10433000C3EBA1110DF0BEF9EDE507223249234888
:104340000DF018F9237898E6D9F800102D4B2F4A74
:1043500083FB0103C917C1EBA31308A8092111F0BE
:1043600011FBA7F10A0109B23C2218480CF070FBBE
:1043700008A811F045FC08A9024614480DF0FAF807
:1043800015B0BDEC028BBDE8F083214B214A1B68C0
:10439000214E03EB430403EB8403D418204611F0B1
:1043A0002FFC2146024609480DF0E4F826E60722D4
:1043B0000B4906480DF0DEF8237851E7072217492C
:1043C00002480DF0D7F823784DE700BF5C69002064
:1043D00098970100B8EC012024EA012070970100B1
:1043E00060970100B44D0020789701008897010084
:1043F00048970100503E0020F89501001C970100ED
:10440000583E0020D34D6210809701009097010024
:1044100094EA012068500020243E002068970100A3
:10442000074B10B5012401461C60064808F0E0FA6D
:10443000054B1C60FFF720FD044B00221A6010BDE5
:1044400088E100E05C4E002008E100E0D862002036
:10445000274B9FED286A93ED007ADFED276AB8EECF
:10446000C77A07EE900AC6EE075AF8EEE77A67EECB
:10447000A57AF4EEE67AF1EE10FA19DC1F4A204B29
:10448000C2ED007AF5EEC07A0122F1EE10FA1A6060
:104490002BD49FED1C7AF4EEC77AF1EE10FA1BDDF7
:1044A000194B1A491A4A01200860D361FFF7E4BC8E
:1044B000C7EE065A114B1748114A0121F2EE027A53
:1044C000E5EEA67AC3ED006AFDEEE77A17EE903AC4
:1044D000F0EE667A036011609FED0F7A67EE877ADF
:1044E000FCEEE77A17EE903ADBE70023D9E700BF4E
:1044F0004C680020A6552C4700E0AB46183E002033
:1045000088E100E0A655AC4680FFFF7F08E100E0AF
:10451000405B0020583E00204B24BE472DE9F04F61
:10452000B44BB54D1B682DED028BADF5097D002B0D
:1045300010ACB8BFFF334FF4F072204600211B12BD
:1045400046F2A81696FBF3F695FBF3F30396049355
:1045500010F0BCFFA94B1A6802F1010CBCF1010F6D
:10456000C3F800C000F0EC80BCF1630F40F2F080B3
:10457000DFF8C482DFF8BC929FEDA16A0025C64631
:10458000AB462F4626464FF4007A0220F2EE046A2C
:104590000CE0042B24DC0130782824F8152006F1E7
:1045A000040626F8022C05F1020527D03EF8023F4A
:1045B000B9EC017A03EB83035B0007EE903AF8EE67
:1045C000E77A0022E7EE467A77EEA67AFDEEE77A02
:1045D00017EE903A53451F44DBDD17EE90AA834651
:1045E0005910FF29A8BFFF210A02B3F5C06F02F4DA
:1045F0007842C0F2658242F4FC62CCE7814B9FEDC9
:10460000827A83FB0723FF17C7EB23139AFBF3F38D
:1046100007EE903AF8EEE77A039BF4EE477AF1EE74
:1046200010FA48BF4FF0000B5B4503DA049B5B4573
:1046300000F3A680754B1B68022B4FF0000A00F0B8
:10464000CB80012B00F00481039B714E5B452FDA78
:10465000049B5B452CDD3378002B40F0D7816D4DFA
:10466000DFF8E8812B686C4A0F93D8F800300F9977
:104670001160012B4DF29A626281A281E28100F009
:10468000BC81664D022B2B7840F0C281002B00F0DC
:10469000BF81634F384608F061FC38464FF48041D3
:1046A00008F02AFC40F6CD4200233A622B70AFE1BD
:1046B00033786BB1574A584913680B930B9B0968C1
:1046C00012680C925748584A0C9D05605B1A13807B
:1046D000524D00222B78327043B94E4B4E4A1B6824
:1046E0000A9312680A9B9B1A502B09D8474B1B68E8
:1046F000012B0ED00DF5097DBDEC028BBDE8F08FCE
:10470000474A012382F842302B70404B1B68012B33
:10471000F0D1404A4349126809920968099A434D09
:10472000521A312A40F287812B68B3F58C7FE1DB86
:104730005A232B600DF5097DBDEC028BBDE8F08F8F
:104740003B4B002103F5007243F8041B9A42FBD156
:10475000384A3949DFED396A02F5FC7031F8023F19
:1047600092ED007A03EB83035B0007EE903AF8EEDC
:10477000E77AA7EEA67AA2EC017A9042EED1F7E6AC
:104780002F4B304A02930021D3ED006A8A46022360
:1047900038F8020F92ED007A07EE900AF8EEE77A09
:1047A00077EE877AF4EEE67AF1EE10FAE2EC017A2F
:1047B00003DDF0EE676A9A4601210133782BE7D1D9
:1047C000002940F07981204A1388013313800F4B70
:1047D0001B68022B7FF435AF1C4B1B68022B00F0CB
:1047E0001C811CF0010F7FF42FAFFEF743FE074B37
:1047F0001B6826E74C68002080380100A46900206F
:104800006666663FBF3CB622CDCC8C3F5C3E002046
:10481000C467002074760220BCEC01204D3E0020CD
:10482000C8670020F85A0020584E0020103E002093
:10483000684E0020704E00207E5B00206F12833A8D
:10484000D8620020C0EA0120384D0020A467002073
:10485000A34D2B88322B7FF6F7AE00202D2301903D
:1048600000930146F023288028229E480AF0C4FBCA
:104870009D4BBAF1000F00F0EF801A4692ED007ADE
:1048800002939A4BDFED9A5AF7EE007A03EB8A0314
:1048900077EE277A1A1D514632ED016AC6EE276A75
:1048A000F4EEE56AF1EE10FA02DD01390229F3D1E6
:1048B000DFED8F5A05915246B3EC016AC6EE276AC6
:1048C000F4EEE56AF1EE10FA40F3A5800132782AA1
:1048D000F2D100230693DFF84892DFED868A9FED40
:1048E000868ACDF81CB00026022702E0029B93EDD9
:1048F000007AD9ED006A7B48C6EE877A4FF4784398
:104900000FFA86FB0093594667EEA87AFDEEE77A28
:1049100017EE905AC5F155080FFA88F82DB24246A5
:104920002B460AF0DFF9BA4507F1010700F0BA801B
:104930000236782FB6B2A9EC018AD7D16F4B029D0F
:104940001B6895ED007A9FED6E8A6648DDF81CB015
:10495000002BB8BFFF331B1207EE903AF6EE006A49
:1049600027EE267AF8EEE77A2D22822185ED007A6D
:1049700027EE888A0CF06CF84DF29A6159480CF0D9
:1049800083F8DDED057A5748F8EEE77A67EE887A26
:10499000FDEEE77A17EE901A0CF08CFE01225949D1
:1049A00050480CF0E7FD4FF6E0714E480CF06CF803
:1049B00007EE90AAF8EEE77A4A4867EE887AFDEEAD
:1049C000E77A17EE901A0CF075FE01224D49454822
:1049D0000CF0D0FD4DF29A6142480CF055F8DDED37
:1049E000067A4048F8EEE77A67EE887AFDEEE77AD5
:1049F00017EE901A0CF05EFE26E62B68424F0E93DF
:104A00000E9A3B68D31AB3F57A7F2DD83F4D2B7899
:104A10000122327060E606925DE7314A3C4B128813
:104A2000A3FB02139B0803EB8303D31A9BB2002B57
:104A30007FF40AAED9E60194B5F900202948009325
:104A40000021F0230AF06EFF298826480AF0C8FEEC
:104A50002B6801332B6068E6029393ED007ACDF862
:104A600018A00223059336E7244B2A4A1B68002B23
:104A7000B8BFFF331B120BFB03F382FB0312DB17E0
:104A8000C3EB62134FF4FA7202FB03F3224A184697
:104A90001360FFF7DDFC2B680D930D9AD8F80030FA
:104AA0003A60EEE54FF6E07000902B4642465946DC
:104AB0000C480AF017F93BE7029BC3ED006A82E657
:104AC0000A02164902F47842029281FB0321A1EB0B
:104AD000E373DB00029A03F4FC631A435BE500BF57
:104AE000384D00205C690020D8620020B8EA01201F
:104AF000CDCCCC3D00003442000000004C680020CA
:104B00006F12833A5C970100AC6700204D3E002095
:104B1000CDCCCCCCD34D6210583E0020ABAAAA2AF3
:104B2000C0EA012038B5104B1049114A114D00EB75
:104B3000400003EB8003012498685B680B602860E9
:104B40001460FEF75DFCC8200DF002F90A4B1868EE
:104B5000FFF77EFC094B14201C600DF0F9F8BDE84E
:104B60003840FFF789B900BFF8950100A06900201F
:104B700088E100E04C680020583E002008E100E099
:104B800010B50B2111480EF06FF9114808F0B0FE76
:104B9000102110480EF068F90F480CF025FD0F4A5F
:104BA0000F4B106800241C70FFF7BCFF0D4A0E4B22
:104BB00010681860FFF74CFC0C4B0D491C624FF459
:104BC0008032CC618A61DA619A6110BDAC970100D4
:104BD00028EA0120B897010044420020D462002056
:104BE00024EA0120F45A0020583E002014680020D6
:104BF0006C6700202DE9F04196B0A8B9A74AA849F2
:104C0000A84B12680D681B680A21C2B9EB1848BF8F
:104C100001F1FF338B426DDB0023002875D1A14ADF
:104C2000136016B0BDE8F0810128FAD19E4A9F4971
:104C30009F4B12680D681B680321002AE6D0012AE9
:104C4000EFD1002DEDD00446002B65D199490A78AB
:104C50002A4452B2002AC0F26E815A2A1346A8BFD3
:104C60005A2307EE903A9FED946ADFED946AB8EE0E
:104C7000E77ADFED937A27EE067AE7EE267AFCEE06
:104C8000E77ACDED037A8F4A0B70012616600399FF
:104C90008D4807F01DFF8D4B1E60DFF80882D8F8A5
:104CA0000030062B6BD0072B53D0082BB9D17B4B90
:104CB0001B68012B00F02C817D4B1B68072BB0D1AA
:104CC000794B1B68012BACD1814B1B78022BA8D1EF
:104CD000804C764B22681B681344052BA8BF052324
:104CE00023EAE37318462360FFF71CFF7A4B226820
:104CF0001A6096E7794A1278002A8ED1A3F1080249
:104D0000012A98BF0023002889D0012889D1684A48
:104D1000136016B0BDE8F081012B40F08680704A28
:104D200013782B445BB2002BC0F200813F2BA8BF4D
:104D30003F2318461370FFF773FB6A4A6A4B002043
:104D40001060002103F5007243F8041B9A42FBD166
:104D5000A3E7524B1B68012B7FF463AF5D4A504BB6
:104D600011681B680B440D2BA8BF0D2323EAE373C6
:104D700018461360FFF7D6FED8F8003095E7002CF0
:104D80007FF44FAF594F5A4E3B680693069B3268EB
:104D90009B1AB3F5FA7F09D2F92B00F2D080632B6E
:104DA0008BBF0A23C5EB05135D439D0007F06AFC2A
:104DB00008A9284407F010FB08A807F0E5FB0CF051
:104DC0009BFF4C4C08A807F0DFFB07F0ABFC20462C
:104DD000322250210BF03CFE002214232046019287
:104DE00000933222A02350210AF006F9424A434B95
:104DF0001168A3610DA805F059FD0DA90EC90AA8F7
:104E00000191009209213E4A10F0BCFD0AA810F061
:104E1000F7FE0AA9024620460CF0ACFB3B6807935C
:104E2000079AD8F8003032603DE7022B40F08A80C4
:104E30002E4F2F4E3B680493049B32689B1AB3F5A8
:104E4000FA7F22D34FF4FA732E492F4A086812686A
:104E500003FB050341F65730834269DD2B4880FB95
:104E600002E0D243D20FC2EBE0124FF47A7000FBA3
:104E700002F29342A8BF134618460B60FFF7E8FA08
:104E80003B680593059B336007E7F92B60D8642BDB
:104E900041F2883328BF4FF4FA63D5E7086D02204A
:104EA0008069002084690020A86700202C4D002024
:104EB000344D0020543E00200AD7233C000001431B
:104EC000EE7CFF3E88E100E05C4E002008E100E05F
:104ED0004C4D0020503E00201C3E0020B54D0020CF
:104EE000143E0020A4690020684E00207476022041
:104EF000245B00205C69002000D00340A8CE0100A4
:104F0000CC970100583E00204C680020D34D621021
:104F1000194A1A4910680B68194A1B1812680CD4F0
:104F2000013A9342A8BF13460B60C5E6002300E791
:104F300041F65833A0E70393A5E60023F4E705EB19
:104F4000850533E7042B06D10E4B00221A60A4E638
:104F50004FF47A7378E7032B7FF49FAE0A490B4A2C
:104F60000B780133DBB2A2FB0302520802EB4202D0
:104F70009B1A0B7091E600BF8069002094EA012023
:104F800010680020A4690020B8EC0120ABAAAAAAEE
:104F9000F0B5604C83B0FEF791F90E215E480DF03C
:104FA00063FF2368002B40F08E805C4D2A68312A15
:104FB00043DD5B4D5B4E2846002100240AF010FCC7
:104FC0004FF4A07322462846214600930194F02313
:104FD0000AF012F828464DF29A610BF055FD524B3B
:104FE000AB612146284664220BF032FD09224F496D
:104FF00028460CF0BFFA4E4810F002FE4C4902461B
:1050000028460CF0B7FA4B4BAB61FEF735FF4A4828
:105010004A4D07F0A3FF4A4A4A4B4B499461304638
:105020004FF48032DC619A612C600C6008F06AFDFC
:10503000012386F8F63003B0F0BD444B44491B68A9
:105040003B48444F444E01322A6010F0E9FC43498A
:1050500043480CF02FFB42480CF0C6FA344810F0DD
:10506000CFFD014632480DF0FFFE3D480CF0BCFA82
:105070003C4A2F480D2105F015FD0021394805F067
:1050800085FBBB68384905460246354835700CF04B
:10509000C3FA0A223349384604F0B8FFBB683349E3
:1050A000054602462E4835700CF0B6FA3378022BCE
:1050B00011D00A222B49274804F0A8FF307028BBE2
:1050C0000123236075E7234805F04EFB224B18703F
:1050D000C0B9206069E7384605F046FB0928307002
:1050E00010D10E2122480DF0BFFE1D480CF07CFAB5
:1050F0001C4805F071FB30700028DAD001461D48CD
:10510000FEF754F901461C48FEF750F901461B48CA
:10511000FEF74CF99C690020DC9701001068002024
:105120005C69002050680020C4CE01000C9801008A
:10513000CC4C00208CCE0100C8670020A467002062
:10514000504D00201468002014650020A069002044
:105150001898010018650020C4EC0120676E69648E
:1051600044420020B84D00202498010030980100EE
:10517000EC970100FC970100DC9601000498010007
:10518000F8B5274B274E1968274B012700224FF40B
:1051900080350829044637709A61DD6135D00929C8
:1051A00029D064200CF0D4FD0D2C2046A8BF0D2082
:1051B00020EAE070FFF7B6FC1C4A1D4B11681B6823
:1051C00000292BDB8B42A8BF0B4603EB4304194994
:1051D000136003EB840319440D22174810F07EFD81
:1051E000164B01221A60FEF747FE13491448BDE82A
:1051F000F84008F0A5BB1349134B09689D610229CB
:105200001A6204BFDD619A61CBE710480E4B10496A
:10521000006808601D62DA619A61C2E70023D4E782
:105220008469002024EA01206C67002094EA0120B0
:105230001068002068500020CC4C00205C3E00200C
:1052400028EA0120A467002014680020583E0020AE
:10525000F45A002008B50A4B1B781BB1094B93F890
:10526000403003B108BDFFF78BFC074B1B78002BC8
:10527000F8D0064B1868BDE80840FFF781BF00BFB3
:1052800024EA012028EA0120686700201C3E002053
:10529000F8B5744A137C012B7BD972B6D36862B619
:1052A000714E724D3268002BB8BF03339C1094428C
:1052B00028DD01232B600120FFF79CFC6C4A346041
:1052C000137C012B2BD972B6D36862B6694E6A4F34
:1052D0003268002BB8BF03339C1094420DDD0123CC
:1052E0003B600020FFF786FC2B6834600BB93B68FD
:1052F0006BB1BDE8F840FEF7BFBD47DA4FF0FF33B2
:105300003B60EEE704DA4FF0FF332B60D3E7F8BDE4
:10531000574A346000232B60137C012BD3D872B61C
:105320001368506819780478507A137A044201EAB5
:1053300003016FD0937A03F0030309B143F0040330
:1053400043F008039910013B91720D2BBCD801A1C9
:1053500051F823F05D540000555400004D540000F6
:1053600055540000C9520000455400005D5400002F
:105370005D54000045540000C9520000555400001F
:105380004D540000555400005D54000000233B6064
:10539000AAE772B61368506819780478507A137ABD
:1053A000044201EA03012DD0937A03F0030309B10B
:1053B00043F0040343F008039910013B91720D2B55
:1053C0003FF66CAF01A151F823F000BF3D5400003F
:1053D000355400002D540000355400009D5200004B
:1053E000255400003D5400003D54000025540000A9
:1053F0009D520000355400002D540000355400002B
:105400003D540000937A03F003030029D4D043F005
:105410000403D1E7937A03F00303002992D043F009
:1054200004038FE7D368023BD36038E7D3680233C5
:10543000D36034E7D368013BD36030E7D3680133EE
:10544000D3602CE7D368023BD3603EE7D3680233D6
:10545000D3603AE7D368013BD36036E7D3680133C2
:10546000D36032E7B06700209C4D00202C4D002017
:10547000A04D0020285B002080690020F8B5714C09
:10548000237843B1704808F0A9FE6F4808F0CCFEBD
:10549000002868D1F8BD6D4808F0A0FE6C4808F0FF
:1054A0009DFE694808F09AFE6A4808F097FE694830
:1054B00008F0BAFE50B1684A13680133042BC8BF24
:1054C00000231360FEF7E8F8FEF7D6FC5E4808F00C
:1054D000ABFEF8B1614E3578B5B9614F614B3A68B2
:1054E000013283FB0213A3EBE27303EB4303D31AF2
:1054F000012B3B6000F09680022B00F08A80002197
:10550000594809F037FF3578022D3AD0012D6FD078
:10551000FEF7B2FC4D4808F087FEA8B1534C544B3F
:1055200021681A68B1FA81F35B09032A236033D03A
:105530005048007830B1082A3DD01BB9474A11784D
:10554000022975D0FEF798FC414808F06DFE00284E
:10555000A0D0494A1368B3FA83F35B091360BDE82E
:10556000F840FEF789BC0C2144480DF07DFC44480E
:105570000CF03AF8FEF73CF8FEF77EFC00232370AF
:10558000F8BD404F3B7883B93F4A012310683B7018
:10559000FFF7F6FD3578B9E7364A3C482F491278CF
:1055A00000780870002AC8D1CCE7FFF7E9FA002399
:1055B00035783B70AAE70029BFD1334D344B3549CC
:1055C000264A2D6818681D60022308601370324D4A
:1055D000FDF774FE284B31480122132107261A607B
:1055E0002E600DF041FC26480BF0FEFF2368A4E777
:1055F0000C212B480DF038FC21480BF0F5FF2378E7
:10560000104A002B84D11570FEF736FCFFF7C0FC62
:105610007EE7002114480AF0E3F80021124809F05F
:10562000B7FE6CE72946104809F0B2FE3B6863E715
:105630001849174C0968137008462160FFF772FA81
:1056400080E700BFB44D00203C4D0020EC690020F5
:1056500014EA0120C4620020A46700204C4D002001
:105660005C3E0020565555555C690020086D0220AF
:1056700084690020B54D0020A867002040980100F3
:105680004442002024EA01201C3E0020B8EC012006
:10569000503E0020D4620020344D0020609801006C
:1056A0005098010070B5284C2378012B8EB047D05C
:1056B000022B3ED0FFF7E2FE244B1C786CB3244B48
:1056C000244E196805A805F0F1F83378069C9C4231
:1056D00021D0214D214BAB6128461422B4210BF07F
:1056E000B7F914224FF400438DE80C0028463C2300
:1056F000B42109F081FC079B194A0094092102A8F2
:1057000010F040F902A810F07BFA02A902462846E0
:105710000BF030FF34700EB070BDFFF7B9FD114BC8
:1057200093F82227002ACAD083F82247FEF7F6FE14
:10573000C5E70D4B1B78002BBCD0FFF78BFDB9E7FD
:10574000FDF716FF2378B3E74C4D0020B44D002041
:1057500000D00340C06900205C6900208CCE0100AD
:1057600050970100645B002024EA0120F0B5C820B6
:105770008FB00CF0EDFA022124200CF0E3FA0221A4
:105780001D200CF0DFFA022125200CF0DBFA0221AB
:1057900026200CF0D7FA7349734A744F744E75483B
:1057A000754C00230B6002254FF4967115603B6029
:1057B00033600BF0B7FB714806F0D6FF204607F0C8
:1057C000A9F8204640F273122A2107F077F8002842
:1057D00040F0B8803A216848694C07F079F9694B84
:1057E000654893F9001007F003F90022114662485A
:1057F00007F034F9644B4FF4803220469A610AF086
:1058000007FA2046002109F0C3FD2046002109F0D7
:10581000B1FD0022114620460BF01AF9204628223D
:105820005A2109F0EFFE2046322250210BF010F9E8
:10583000564A574B1168A36105A805F037F805A92A
:105840000EC902A8019100920921524A10F09AF85B
:1058500002A810F0D5F902A9024620460BF08AFEF4
:1058600020465A2200210BF0F3F812224A49204622
:105870000BF080FE7822204614210BF0E9F847490E
:1058800020460BF08BFE41F288300CF061FAFEF7F7
:10589000F3FAFE21424800F06DF9064600283AD19D
:1058A0001C214048404D0DF0DFFA40480BF09CFEB3
:1058B0004FF4FA700CF04CFA4FF478430093204602
:1058C0000523322246212E700AF01CFC2B78002B77
:1058D00032D1374B374E1868FFF724F9364B18682A
:1058E000FEF7B6FD354B3649364800244FF4803577
:1058F0004FF480429D61DC611C62B561F46107F088
:10590000E7FA314B002103F5007243F8041B9A4279
:10591000FBD10FB0F0BD244D20464FF4FC630124B1
:1059200000933222052346212C700AF0EBFBFDF791
:10593000C5FC2B78002BCCD000222449244804F04D
:105940003BFBC6E788222021204606F0B7FF00284F
:105950003FF440AFE288204622F00402242106F002
:10596000ADFF37E784690020344D0020086D022028
:10597000A86700200002FF1F5C4E00206D0400009D
:105980005C690020143E0020504D002000D00340F0
:10599000ECCD0100CC970100749801001C4D002053
:1059A0000C6D022088980100B54D00204442002073
:1059B000503E00206C670020583E002014680020F4
:1059C000E8EC0120C8670020684E0020A096010086
:1059D000DC62002000207047704700BF10B582B025
:1059E00002AB026803F8011D546819460122A04762
:1059F00002B010BDC06938B18369C06847F6FF7254
:105A0000181A904228BF1046704700BFC36910B5EE
:105A100004463BB100201871E06901F007FDE3691D
:105A20001B791BB101232371002010BD10BD00BFE5
:105A3000C06978B100B583B001220DF1070101F012
:105A4000A5FA01280CBF9DF807004FF0FF3003B006
:105A50005DF804FB4FF0FF30704700BFC369C3B16E
:105A600010B582B00446012218460DF1070101F07D
:105A70008DFA012803D04FF0FF3002B010BDE0696D
:105A80009DF80740C168013901F05EFB204602B075
:105A900010BD1846704700BFC06908B101F086BB51
:105AA000704700BF2DE9F04105464FF47A73134863
:105AB000AB60002328602B712B7324200C4690468A
:105AC0000FF090F9E861B0B1064604F1200E2068AD
:105AD0006168A268E36837460FC7103474453E46D4
